{"abi":[{"inputs":[],"stateMutability":"nonpayable","type":"constructor","name":"constructor"},{"inputs":[{"internalType":"address","name":"_token","type":"address"},{"internalType":"uint256","name":"_amount","type":"uint256"}],"name":"deposit","outputs":[],"stateMutability":"nonpayable","type":"function"},{"inputs":[{"internalType":"uint256","name":"","type":"uint256"}],"name":"getTokenAddressList","outputs":[{"internalType":"address","name":"","type":"address"}],"stateMutability":"view","type":"function"},{"inputs":[{"internalType":"uint256","name":"","type":"uint256"}],"name":"getTokenBalanceList","outputs":[{"internalType":"uint256","name":"","type":"uint256"}],"stateMutability":"view","type":"function"},{"inputs":[{"internalType":"address","name":"_token","type":"address"},{"internalType":"uint256","name":"_amount","type":"uint256"}],"name":"loan","outputs":[],"stateMutability":"nonpayable","type":"function"},{"inputs":[{"internalType":"address","name":"","type":"address"}],"name":"loanAccountMap","outputs":[{"internalType":"bool","name":"isExist","type":"bool"},{"internalType":"address","name":"loanAccountAddress","type":"address"}],"stateMutability":"view","type":"function"},{"inputs":[{"internalType":"address","name":"","type":"address"}],"name":"loanPoolMap","outputs":[{"internalType":"bool","name":"isExist","type":"bool"},{"internalType":"address","name":"loanPoolAddress","type":"address"}],"stateMutability":"view","type":"function"},{"inputs":[{"internalType":"address","name":"_token","type":"address"},{"internalType":"uint256","name":"_amount","type":"uint256"}],"name":"payback","outputs":[],"stateMutability":"nonpayable","type":"function"},{"inputs":[],"name":"reserve","outputs":[{"internalType":"uint256","name":"","type":"uint256"}],"stateMutability":"view","type":"function"},{"inputs":[],"name":"testAddress","outputs":[{"internalType":"address","name":"","type":"address"}],"stateMutability":"view","type":"function"},{"inputs":[{"internalType":"uint256","name":"","type":"uint256"}],"name":"testMap","outputs":[{"internalType":"uint256","name":"","type":"uint256"}],"stateMutability":"view","type":"function"},{"inputs":[],"name":"testNegValue","outputs":[{"internalType":"int256","name":"","type":"int256"}],"stateMutability":"view","type":"function"},{"inputs":[],"name":"testValue","outputs":[{"internalType":"uint256","name":"","type":"uint256"}],"stateMutability":"view","type":"function"},{"inputs":[{"internalType":"uint256","name":"_index","type":"uint256"}],"name":"trialA","outputs":[{"internalType":"address","name":"","type":"address"}],"stateMutability":"view","type":"function"},{"inputs":[{"internalType":"uint256","name":"_index","type":"uint256"}],"name":"trialB","outputs":[{"internalType":"uint256","name":"","type":"uint256"}],"stateMutability":"view","type":"function"},{"inputs":[{"internalType":"address","name":"_token","type":"address"},{"internalType":"uint256","name":"_amount","type":"uint256"}],"name":"withdraw","outputs":[],"stateMutability":"nonpayable","type":"function"}],"bytecode":"600d600155600280546001600160a01b03191630908117825560031960035560c0604052608081815260a0919091526200003d9160049190620000a5565b506040805180820190915260048152600560208201819052620000629160026200010f565b503480156200007057600080fd5b506001600090815260205260047fada5013122d395ba3c54772283fb069b10426056ef8ca54750cb9bb552a59e7d5562000169565b828054828255906000526020600020908101928215620000fd579160200282015b82811115620000fd57825182546001600160a01b0319166001600160a01b03909116178255602090920191600190910190620000c6565b506200010b92915062000152565b5090565b828054828255906000526020600020908101928215620000fd579160200282015b82811115620000fd578251829060ff1690559160200191906001019062000130565b5b808211156200010b576000815560010162000153565b614f8780620001796000396000f3fe608060405234801561001057600080fd5b50600436106100f55760003560e01c80633f27a87e11610097578063b83e20ed11610066578063b83e20ed14610250578063cd3293de14610263578063f3fef3a31461026c578063f4aa4a7e1461027f57600080fd5b80633f27a87e146101ee57806347e7ef24146102015780638af5de7214610214578063ab1fa4711461021d57600080fd5b8063262330b4116100d3578063262330b41461019457806333f8522f146101bf57806335ed8ab8146101c85780633ad97d49146101db57600080fd5b80631500db3f146100fa5780631734e5cf14610151578063185cc7511461017f575b600080fd5b61012d610108366004611182565b60076020526000908152604090205460ff81169061010090046001600160a01b031682565b6040805192151583526001600160a01b039091166020830152015b60405180910390f35b61017161015f3660046111a4565b60006020819052908152604090205481565b604051908152602001610148565b61019261018d3660046111bd565b610292565b005b6002546101a7906001600160a01b031681565b6040516001600160a01b039091168152602001610148565b61017160035481565b6101926101d63660046111bd565b610576565b6101716101e93660046111a4565b61085f565b6101a76101fc3660046111a4565b610886565b61019261020f3660046111bd565b6108b0565b61017160015481565b61012d61022b366004611182565b60086020526000908152604090205460ff81169061010090046001600160a01b031682565b61017161025e3660046111a4565b610d81565b61017160065481565b61019261027a3660046111bd565b610da2565b6101a761028d3660046111a4565b61111c565b3360008181526007602052604090205460ff166102ca5760405162461bcd60e51b81526004016102c1906111e7565b60405180910390fd5b6001600160a01b038316600090815260086020526040902054839060ff166103045760405162461bcd60e51b81526004016102c190611237565b6001600160a01b0380851660009081526008602090815260409182902054825163d0cb3cd160e01b8152925188948894610100909304169263d0cb3cd192600480820193918290030181865afa158015610362573d6000803e3d6000fd5b505050506040513d601f19601f82011682018060405250810190610386919061126c565b81106103a45760405162461bcd60e51b81526004016102c190611285565b6001600160a01b038681166000908152600860209081526040808320543380855260079093529281902054905163185cc75160e01b81526004810192909252602482018990526101009283900484169392900490911690829063185cc75190604401600060405180830381600087803b15801561042057600080fd5b505af1158015610434573d6000803e3d6000fd5b50505050806001600160a01b031663cebc743d8989856001600160a01b03166388adcac16040518163ffffffff1660e01b8152600401602060405180830381865afa158015610487573d6000803e3d6000fd5b505050506040513d601f19601f820116820180604052508101906104ab919061126c565b6040516001600160e01b031960e086901b1681526001600160a01b03909316600484015260248301919091526044820152606401600060405180830381600087803b1580156104f957600080fd5b505af115801561050d573d6000803e3d6000fd5b50506040516334b3c50f60e01b81526001600160a01b038481166004830152851692506334b3c50f9150602401600060405180830381600087803b15801561055457600080fd5b505af1158015610568573d6000803e3d6000fd5b505050505050505050505050565b3360008181526007602052604090205460ff166105a55760405162461bcd60e51b81526004016102c1906111e7565b6001600160a01b038316600090815260086020526040902054839060ff166105df5760405162461bcd60e51b81526004016102c190611237565b6001600160a01b03848116600081815260086020908152604080832054338085526007909352928190205490516323b872dd60e01b8152600481019290925261010092839004851660248301819052604483018990529492900490911691906323b872dd906064016020604051808303816000875af1158015610666573d6000803e3d6000fd5b505050506040513d601f19601f8201168201806040525081019061068a91906112f7565b6106d15760405162461bcd60e51b8152602060048201526018602482015277151c985b9cd9995c881bd9881d1bdad95b8819985a5b195960421b60448201526064016102c1565b60405163a846c2fd60e01b8152600481018690526001600160a01b0383169063a846c2fd90602401600060405180830381600087803b15801561071357600080fd5b505af1158015610727573d6000803e3d6000fd5b5050604051630b56fd4960e01b81526001600160a01b0389811660048301526024820189905284169250630b56fd499150604401600060405180830381600087803b15801561077557600080fd5b505af1158015610789573d6000803e3d6000fd5b5050604051633ce6120160e21b81526001600160a01b0389811660048301528416925063f39848049150602401602060405180830381865afa1580156107d3573d6000803e3d6000fd5b505050506040513d601f19601f820116820180604052508101906107f791906112f7565b6108575760405163d9ed268560e01b81526001600160a01b03828116600483015283169063d9ed268590602401600060405180830381600087803b15801561083e57600080fd5b505af1158015610852573d6000803e3d6000fd5b505050505b505050505050565b60006005828154811061087457610874611319565b90600052602060002001549050919050565b6004818154811061089657600080fd5b6000918252602090912001546001600160a01b0316905081565b604051636eb1769f60e11b815233600482015230602482015281906001600160a01b0384169063dd62ed3e90604401602060405180830381865afa1580156108fc573d6000803e3d6000fd5b505050506040513d601f19601f82011682018060405250810190610920919061126c565b101561097a5760405162461bcd60e51b8152602060048201526024808201527f5573657220617070726f76656420616d6f756e7420697320696e7375666669636044820152631a595b9d60e21b60648201526084016102c1565b6001600160a01b03821660009081526008602052604090205460ff16610a40576040518060400160405280600115158152602001836040516109bb9061114c565b6001600160a01b039091168152602001604051809103906000f0801580156109e7573d6000803e3d6000fd5b506001600160a01b0390811690915283811660009081526008602090815260409091208351815494909201516001600160a81b0319909416911515610100600160a81b0319169190911761010093909216929092021790555b3360009081526007602052604090205460ff16610afb57604051806040016040528060011515815260200133604051610a7890611159565b6001600160a01b039091168152602001604051809103906000f080158015610aa4573d6000803e3d6000fd5b506001600160a01b039081169091523360009081526007602090815260409091208351815494909201516001600160a81b0319909416911515610100600160a81b0319169190911761010093909216929092021790555b6001600160a01b03828116600081815260086020908152604080832054338085526007909352928190205490516323b872dd60e01b8152600481019290925261010092839004851660248301819052604483018790529492900490911691906323b872dd906064016020604051808303816000875af1158015610b82573d6000803e3d6000fd5b505050506040513d601f19601f82011682018060405250810190610ba691906112f7565b610bed5760405162461bcd60e51b8152602060048201526018602482015277151c985b9cd9995c881bd9881d1bdad95b8819985a5b195960421b60448201526064016102c1565b60405163b6b55f2560e01b8152600481018490526001600160a01b0383169063b6b55f2590602401600060405180830381600087803b158015610c2f57600080fd5b505af1158015610c43573d6000803e3d6000fd5b50506040516334b3c50f60e01b81526001600160a01b038481166004830152851692506334b3c50f9150602401600060405180830381600087803b158015610c8a57600080fd5b505af1158015610c9e573d6000803e3d6000fd5b50505050806001600160a01b0316630e19ae768585856001600160a01b03166388adcac16040518163ffffffff1660e01b8152600401602060405180830381865afa158015610cf1573d6000803e3d6000fd5b505050506040513d601f19601f82011682018060405250810190610d15919061126c565b6040516001600160e01b031960e086901b1681526001600160a01b03909316600484015260248301919091526044820152606401600060405180830381600087803b158015610d6357600080fd5b505af1158015610d77573d6000803e3d6000fd5b5050505050505050565b60058181548110610d9157600080fd5b600091825260209091200154905081565b3360008181526007602052604090205460ff16610dd15760405162461bcd60e51b81526004016102c1906111e7565b6001600160a01b038316600090815260086020526040902054839060ff16610e0b5760405162461bcd60e51b81526004016102c190611237565b336000818152600760205260409081902054905163776e4b3560e11b81526001600160a01b038781166004830152879287926101009091049091169063eedc966a90602401602060405180830381865afa158015610e6d573d6000803e3d6000fd5b505050506040513d601f19601f82011682018060405250810190610e91919061126c565b8112610eaf5760405162461bcd60e51b81526004016102c190611285565b6001600160a01b0380881660009081526008602090815260409182902054825163d0cb3cd160e01b815292518b948b94610100909304169263d0cb3cd192600480820193918290030181865afa158015610f0d573d6000803e3d6000fd5b505050506040513d601f19601f82011682018060405250810190610f31919061126c565b8110610f4f5760405162461bcd60e51b81526004016102c190611285565b6001600160a01b038981166000908152600860209081526040808320543380855260079093529281902054905163f3fef3a360e01b81526004810192909252602482018c90526101009283900484169392900490911690829063f3fef3a390604401600060405180830381600087803b158015610fcb57600080fd5b505af1158015610fdf573d6000803e3d6000fd5b5050604051637da7d3f160e01b81526001600160a01b038e81166004830152602482018e905284169250637da7d3f19150604401600060405180830381600087803b15801561102d57600080fd5b505af1158015611041573d6000803e3d6000fd5b5050604051633ce6120160e21b81526001600160a01b038e811660048301528416925063f39848049150602401602060405180830381865afa15801561108b573d6000803e3d6000fd5b505050506040513d601f19601f820116820180604052508101906110af91906112f7565b61110f5760405163d9ed268560e01b81526001600160a01b03828116600483015283169063d9ed268590602401600060405180830381600087803b1580156110f657600080fd5b505af115801561110a573d6000803e3d6000fd5b505050505b5050505050505050505050565b60006004828154811061113157611131611319565b6000918252602090912001546001600160a01b031692915050565b6111f58061133083390190565b612a2d8061252583390190565b80356001600160a01b038116811461117d57600080fd5b919050565b60006020828403121561119457600080fd5b61119d82611166565b9392505050565b6000602082840312156111b657600080fd5b5035919050565b600080604083850312156111d057600080fd5b6111d983611166565b946020939093013593505050565b60208082526030908201527f4163636f756e74206f662074686973207573657220646f65736e27742065786960408201526f737420696e207468652073797374656d60801b606082015260800190565b6020808252818101527f506f6f6c206f66207468697320746f6b656e20646f65736e2774206578697374604082015260600190565b60006020828403121561127e57600080fd5b5051919050565b6020808252604c908201527f506f6f6c206f66207468697320746f6b656e20646f65736e277420686176652060408201527f73756666696369656e7420617661696c61626c652066756e6420666f7220746860608201526b34b99037b832b930ba34b7b760a11b608082015260a00190565b60006020828403121561130957600080fd5b8151801515811461119d57600080fd5b634e487b7160e01b600052603260045260246000fdfe608060405260006001556000600255600060035534801561001f57600080fd5b506040516111f53803806111f583398101604081905261003e91610063565b600080546001600160a01b0319166001600160a01b0392909216919091179055610093565b60006020828403121561007557600080fd5b81516001600160a01b038116811461008c57600080fd5b9392505050565b611153806100a26000396000f3fe608060405234801561001057600080fd5b50600436106100cf5760003560e01c806388adcac11161008c578063b6b55f2511610066578063b6b55f25146101ac578063d0cb3cd1146101bf578063d9ed2685146101c7578063f3fef3a3146101da57600080fd5b806388adcac1146101655780639d76ea581461016e578063a846c2fd1461019957600080fd5b806307cc8f71146100d4578063185cc751146100ef5780631bf055791461010457806334b3c50f1461010d57806361bc1a49146101205780637c7dc09414610129575b600080fd5b6100dc6101ed565b6040519081526020015b60405180910390f35b6101026100fd366004610f6a565b6102f0565b005b6100dc60025481565b61010261011b366004610f94565b610492565b6100dc60015481565b610155610137366004610f94565b6001600160a01b031660009081526005602052604090205460ff1690565b60405190151581526020016100e6565b6100dc60035481565b600054610181906001600160a01b031681565b6040516001600160a01b0390911681526020016100e6565b6101026101a7366004610faf565b610565565b6101026101ba366004610faf565b610585565b6100dc610597565b6101026101d5366004610f94565b6105ae565b6101026101e8366004610f6a565b61063c565b600080600154600254670de0b6b3a76400006102099190610fde565b6102139190611013565b9050670b1a2bc2ec50000081101561026e5761026861026361024d610237846107c1565b610248670b1a2bc2ec5000006107c1565b61082a565b61025e6702c68af0bb1400006107c1565b610ae4565b610d3f565b91505090565b670b1a2bc2ec50000081106102ec576102da6102636102bd6102a061029b670b1a2bc2ec50000086611035565b6107c1565b61024861029b670b1a2bc2ec500000670de0b6b3a7640000611035565b61025e61029b6702c68af0bb140000671bc16d674ec80000611035565b610268906702c68af0bb14000061104c565b5090565b6000546040516370a0823160e01b81523060048201528391839182916001600160a01b0316906370a0823190602401602060405180830381865afa15801561033c573d6000803e3d6000fd5b505050506040513d601f19601f820116820180604052508101906103609190611064565b10156103875760405162461bcd60e51b815260040161037e9061107d565b60405180910390fd5b80610390610597565b10156103ae5760405162461bcd60e51b815260040161037e9061107d565b60005460405163a9059cbb60e01b81526001600160a01b038481166004830152602482018490529091169063a9059cbb906044016020604051808303816000875af1158015610401573d6000803e3d6000fd5b505050506040513d601f19601f8201168201806040525081019061042591906110b4565b61046c5760405162461bcd60e51b8152602060048201526018602482015277151c985b9cd9995c881bd9881d1bdad95b8819985a5b195960421b604482015260640161037e565b826002600082825461047e919061104c565b9091555061048c9050610dc3565b50505050565b604051631f1f702560e21b81526001600160a01b03821660048201523090637c7dc09490602401602060405180830381865afa1580156104d6573d6000803e3d6000fd5b505050506040513d601f19601f820116820180604052508101906104fa91906110b4565b610562576004805460018082019092557f8a35acfbc15ff81a39ae7d344fd709f28e8600b4aa8c65c6b64bfe7fe36bd19b0180546001600160a01b0319166001600160a01b0384169081179091556000908152600560205260409020805460ff191690911790555b50565b80600260008282546105779190611035565b909155506105629050610dc3565b8060016000828254610577919061104c565b60006002546001546105a99190611035565b905090565b604051631f1f702560e21b81526001600160a01b03821660048201523090637c7dc09490602401602060405180830381865afa1580156105f2573d6000803e3d6000fd5b505050506040513d601f19601f8201168201806040525081019061061691906110b4565b15610562576001600160a01b03166000908152600560205260409020805460ff19169055565b6000546040516370a0823160e01b81523060048201528391839182916001600160a01b0316906370a0823190602401602060405180830381865afa158015610688573d6000803e3d6000fd5b505050506040513d601f19601f820116820180604052508101906106ac9190611064565b10156106ca5760405162461bcd60e51b815260040161037e9061107d565b806106d3610597565b10156106f15760405162461bcd60e51b815260040161037e9061107d565b60005460405163a9059cbb60e01b81526001600160a01b038481166004830152602482018490529091169063a9059cbb906044016020604051808303816000875af1158015610744573d6000803e3d6000fd5b505050506040513d601f19601f8201168201806040525081019061076891906110b4565b6107af5760405162461bcd60e51b8152602060048201526018602482015277151c985b9cd9995c881bd9881d1bdad95b8819985a5b195960421b604482015260640161037e565b826001600082825461047e9190611035565b6000816107d057506000919050565b8160006107dc82610eb0565b905060708110156107f5578060700382901b9150610808565b6070811115610808576070810382901c91505b613fff0160701b6001600160701b03919091161760801b92915050565b919050565b6000617fff60f084811c8216919084901c8116908214156108705780617fff141561085f575061ffff60ef1b9150610ade9050565b505050600160ff1b81168218610ade565b80617fff14156108b4576dffffffffffffffffffffffffffff60801b8416156108a3575061ffff60ef1b9150610ade9050565b505050808218600160ff1b16610ade565b600160801b600160ff1b0384166108fe57600160801b600160ff1b0385166108e6575061ffff60ef1b9150610ade9050565b505050808218600160ff1b16617fff60f01b17610ade565b6001600160701b03608085901c168161091a5760019150610921565b600160701b175b6001600160701b03608087901c168361096057801561095b57600061094582610eb0565b6001955060e20393840160711901939190911b90505b61096a565b600160701b1760721b5b81818161097957610979610ffd565b049050806109a657600160ff1b8787181661099557600061099b565b600160ff1b5b945050505050610ade565b6001606c1b8110156109ba576109ba6110d6565b6000600160731b8210156109f957600160721b8210156109ee57600160711b8210156109e75760706109f1565b60716109f1565b60725b60ff16610a02565b610a0282610eb0565b905083614071018186011115610a2057617fff945060009150610ab3565b83818601613ffc011015610a3b576000945060009150610ab3565b83818601613f8c011015610a88578385613ffc011115610a66578385613ffc010382901b9150610a7f565b8385613ffc011015610a7f57613ffc8585030382901c91505b60009450610ab3565b6070811115610a9b576070810382901c91505b6001600160701b038216915083818601613f8d010394505b81607086901b888a186001607f1b60801b1660801c6001600160801b0316171760801b955050505050505b92915050565b6000617fff60f084811c8216919084901c811690821415610b835780617fff1415610b62576001600160801b03198581169085161415610b2f57505050600160ff1b81168218610ade565b600160ff1b6001600160801b0319868618161415610b5257505050818117610ade565b5061ffff60ef1b9150610ade9050565b600160801b600160ff1b03841661085f575061ffff60ef1b9150610ade9050565b80617fff1415610bbf57600160801b600160ff1b038516610bae575061ffff60ef1b9150610ade9050565b505050600160ff1b82168118610ade565b6001600160701b03608086901c1682610bdb5760019250610be2565b600160701b175b6001600160701b03608086901c1682610bfe5760019250610c05565b600160701b175b9081029081610c2257600160ff1b8787181661099557600061099b565b928201926000600160e11b831015610c5557600160e01b831015610c4e57610c4983610eb0565b610c58565b60e0610c58565b60e15b90506140708186011015610c73576000945060009250610d10565b6140e08186011015610cb657614070851015610c9857846140700383901c9250610cad565b614070851115610cad57614070850383901b92505b60009450610d10565b61c0dd8186011115610cd057617fff945060009250610d10565b6070811115610ce7576070810383901c9250610cfa565b6070811015610cfa578060700383901b92505b6001600160701b03831692506140df8186010394505b82607086901b888a186001607f1b60801b1660801c6001600160801b0316171760801b95505050505050610ade565b6000617fff60f083901c16613fff811015610d5d5750600092915050565b6001607f1b608084901c10610d7157600080fd5b6140fe811115610d8057600080fd5b600160701b6001600160701b03608085901c161761406f821015610daa5761406f8290031c610dbc565b61406f821115610dbc5761406e1982011b5b9392505050565b6301e13380610dd06101ed565b610dda9190611013565b60035560005b60045481101561056257600060046000018281548110610e0257610e026110ec565b60009182526020808320909101546001600160a01b0316808352600590915260409091205490915060ff1615610e9d57600054600354604051631395702760e01b81526001600160a01b039283166004820152602481019190915290821690631395702790604401600060405180830381600087803b158015610e8457600080fd5b505af1158015610e98573d6000803e3d6000fd5b505050505b5080610ea881611102565b915050610de0565b6000808211610ebe57600080fd5b6000600160801b8310610ed357608092831c92015b680100000000000000008310610eeb57604092831c92015b6401000000008310610eff57602092831c92015b620100008310610f1157601092831c92015b6101008310610f2257600892831c92015b60108310610f3257600492831c92015b60048310610f4257600292831c92015b60028310610ade5760010192915050565b80356001600160a01b038116811461082557600080fd5b60008060408385031215610f7d57600080fd5b610f8683610f53565b946020939093013593505050565b600060208284031215610fa657600080fd5b610dbc82610f53565b600060208284031215610fc157600080fd5b5035919050565b634e487b7160e01b600052601160045260246000fd5b6000816000190483118215151615610ff857610ff8610fc8565b500290565b634e487b7160e01b600052601260045260246000fd5b60008261103057634e487b7160e01b600052601260045260246000fd5b500490565b60008282101561104757611047610fc8565b500390565b6000821982111561105f5761105f610fc8565b500190565b60006020828403121561107657600080fd5b5051919050565b6020808252601a908201527f506f6f6c2068617320696e73756666696369656e742066756e64000000000000604082015260600190565b6000602082840312156110c657600080fd5b81518015158114610dbc57600080fd5b634e487b7160e01b600052600160045260246000fd5b634e487b7160e01b600052603260045260246000fd5b600060001982141561111657611116610fc8565b506001019056fea26469706673582212203e136eba7904e73a41ec4bd86af5939cd099b9b1333b17776ed69c6bdd283e9e64736f6c634300080b003360806040523480156200001157600080fd5b5060405162002a2d38038062002a2d83398101604081905262000034916200005a565b600080546001600160a01b0319166001600160a01b03929092169190911790556200008c565b6000602082840312156200006d57600080fd5b81516001600160a01b03811681146200008557600080fd5b9392505050565b612991806200009c6000396000f3fe608060405234801561001057600080fd5b50600436106100885760003560e01c8063cebc743d1161005b578063cebc743d146100db578063e4128fb3146100ee578063eedc966a1461011e578063f39848041461015957600080fd5b80630b56fd491461008d5780630e19ae76146100a257806313957027146100b55780637da7d3f1146100c8575b600080fd5b6100a061009b366004612779565b610198565b005b6100a06100b03660046127a3565b6102e2565b6100a06100c3366004612779565b6103d3565b6100a06100d6366004612779565b61042d565b6100a06100e93660046127a3565b61056e565b600054610101906001600160a01b031681565b6040516001600160a01b0390911681526020015b60405180910390f35b61014b61012c3660046127d6565b6001600160a01b03166000908152600160208190526040909120015490565b604051908152602001610115565b6101886101673660046127d6565b6001600160a01b031660009081526001602052604090206003015460ff1690565b6040519015158152602001610115565b600081136101c15760405162461bcd60e51b81526004016101b8906127f1565b60405180910390fd5b6001600160a01b0382166000908152600160205260409020600381015460ff166101fd5760405162461bcd60e51b81526004016101b89061281d565b60008160010154126102515760405162461bcd60e51b815260206004820181905260248201527f596f7520646f6e2774206f776520616e7920666f72207468697320746f6b656e60448201526064016101b8565b806001015461025f9061287b565b8213156102ba5760405162461bcd60e51b815260206004820152602360248201527f596f7520617265206f766572706179696e6720666f72207768617420796f75206044820152626f776560e81b60648201526084016101b8565b818160010160008282546102ce9190612898565b909155506102dd90508361066c565b505050565b600082136103025760405162461bcd60e51b81526004016101b8906127f1565b6001600160a01b0383166000908152600160205260409020600381015460ff1615610346578281600101600082825461033b9190612898565b909155506103cd9050565b6040805160a0810182526001600160a01b038681168083526020808401888152848601888152600160608701818152426080890190815260009687529482905297909420955186546001600160a01b0319169516949094178555519184019190915590516002830155915160038201805460ff191691151591909117905590516004909101555b50505050565b6001600160a01b03821660009081526001602052604090206003810154429060ff16156103cd5761041c8260010154836002015484600401548461041791906128d9565b6106d1565b600183015560048201556002015550565b6000811361044d5760405162461bcd60e51b81526004016101b8906127f1565b6001600160a01b0382166000908152600160205260409020600381015460ff166104895760405162461bcd60e51b81526004016101b89061281d565b60008160010154136104f15760405162461bcd60e51b815260206004820152602b60248201527f596f75722062616c616e636520666f72207468697320746f6b656e206973206e60448201526a6f7420706f73697469766560a81b60648201526084016101b8565b806001015482131561055a5760405162461bcd60e51b815260206004820152602c60248201527f596f75206861766520696e73756666696369656e742062616c616e636520666f60448201526b39103a3434b9903a37b5b2b760a11b60648201526084016101b8565b818160010160008282546102ce91906128f0565b6000821361058e5760405162461bcd60e51b81526004016101b8906127f1565b6001600160a01b0383166000908152600160205260409020600381015460ff16156105c7578281600101600082825461033b91906128f0565b6040518060a00160405280856001600160a01b03168152602001846105eb9061287b565b815260208082019490945260016040808301829052426060938401526001600160a01b039788166000908152828752819020845181546001600160a01b031916991698909817885594830151908701559281015160028601559182015160038501805460ff1916911515919091179055506080015160049092019190915550565b6001600160a01b0381166000908152600160205260409020600381015460ff16801561069c575060058160010154125b80156106b457506106ad600561287b565b8160010154135b156106cd576000600182015560038101805460ff191690555b5050565b600061073c6107376106e286610744565b61072d6107326106f1876107d7565b61072d61072861070160016107d7565b61072361070d8d6107d7565b61071e670de0b6b3a76400006107d7565b61083b565b610af5565b610ec5565b611078565b6112c3565b612616565b949350505050565b60008161075357506000919050565b60008083136107655782600003610767565b825b90506000610774826126c4565b9050607081101561078d578060700382901b91506107a0565b60708111156107a0576070810382901c91505b6001600160701b03909116613fff820160701b179060008412156107c8576001607f1b821791505b5060801b92915050565b919050565b6000816107e657506000919050565b8160006107f2826126c4565b9050607081101561080b578060700382901b915061081e565b607081111561081e576070810382901c91505b613fff0160701b6001600160701b03919091161760801b92915050565b6000617fff60f084811c8216919084901c8116908214156108815780617fff1415610870575061ffff60ef1b9150610aef9050565b505050600160ff1b81168218610aef565b80617fff14156108c5576dffffffffffffffffffffffffffff60801b8416156108b4575061ffff60ef1b9150610aef9050565b505050808218600160ff1b16610aef565b600160801b600160ff1b03841661090f57600160801b600160ff1b0385166108f7575061ffff60ef1b9150610aef9050565b505050808218600160ff1b16617fff60f01b17610aef565b6001600160701b03608085901c168161092b5760019150610932565b600160701b175b6001600160701b03608087901c168361097157801561096c576000610956826126c4565b6001955060e20393840160711901939190911b90505b61097b565b600160701b1760721b5b81818161098a5761098a61292f565b049050806109b757600160ff1b878718166109a65760006109ac565b600160ff1b5b945050505050610aef565b6001606c1b8110156109cb576109cb612945565b6000600160731b821015610a0a57600160721b8210156109ff57600160711b8210156109f8576070610a02565b6071610a02565b60725b60ff16610a13565b610a13826126c4565b905083614071018186011115610a3157617fff945060009150610ac4565b83818601613ffc011015610a4c576000945060009150610ac4565b83818601613f8c011015610a99578385613ffc011115610a77578385613ffc010382901b9150610a90565b8385613ffc011015610a9057613ffc8585030382901c91505b60009450610ac4565b6070811115610aac576070810382901c91505b6001600160701b038216915083818601613f8d010394505b81607086901b888a186001607f1b60801b1660801c6001600160801b0316171760801b955050505050505b92915050565b6000617fff60f084811c8216919084901c811690821415610b535780617fff1415610b49576001600160801b03198581169085161415610b39578492505050610aef565b5061ffff60ef1b9150610aef9050565b8492505050610aef565b80617fff1415610b67578392505050610aef565b6001607f1b608086901c90811015906001600160701b031683610b8d5760019350610b94565b600160701b175b6001607f1b608087901c90811015906001600160701b031684610bba5760019450610bc1565b600160701b175b82610bf1576001600160801b03198816600160ff1b14610be15787610be4565b60005b9650505050505050610aef565b80610c11576001600160801b03198916600160ff1b14610be15788610be4565b8486038415158315151415610d1c576070811315610c385789975050505050505050610aef565b6000811315610c4a5790811c90610c79565b606f19811215610c635788975050505050505050610aef565b6000811215610c79578060000384901c93508596505b92810192600160711b8410610c94576001968701969390931c925b86617fff1415610cc65784610cae57617fff60f01b610cb8565b6001600160f01b03195b975050505050505050610aef565b600160701b841015610cdb5760009650610ce8565b6001600160701b03841693505b83607088901b86610cfa576000610d00565b6001607f1b5b6001600160801b0316171760801b975050505050505050610aef565b6000811315610d3757600184901b9350600187039650610d4e565b6000811215610d4e57600182901b91506001860396505b6070811315610d605760019150610dad565b6001811315610d7d576001810360018303901c6001019150610dad565b606f19811215610d905760019350610dad565b600019811215610dad576001816000030360018503901c60010193505b818410610dbe578184039350610dc7565b83820393508294505b83610ddd575060009650610aef95505050505050565b6000610de8856126c4565b90508060711415610e0e57600185901c6001600160701b03169450600188019750610e5d565b6070811015610e5057607081900380891115610e3d578086901b6001600160701b031695508089039850610e4a565b600098600019019590951b945b50610e5d565b6001600160701b03851694505b87617fff1415610e905785610e7757617fff60f01b610e81565b6001600160f01b03195b98505050505050505050610aef565b84607089901b87610ea2576000610ea8565b6001607f1b5b6001600160801b0316171760801b98505050505050505050610aef565b60006001607f1b608083901c1115610ee3575061ffff60ef1b919050565b613fff60f01b6001600160801b031983161415610f0257506000919050565b617fff60f083901c811690811415610f1b575090919050565b6001600160701b03608084901c1681610f375760019150610f3e565b600160701b175b80610f5457506001600160f01b03199392505050565b600061406f81613fff8510610f7a5750600f9290921b9160009150613ffe198401610fb9565b60019250600160701b8410610f9c5784613ffe039050600f84901b9350610fb9565b6000610fa7856126c4565b607f8190039590951b9461406d039150505b836001607f1b1415610ff0578215610fcf576001015b6000610fda826126c4565b60700390508082901b915080830392505061103e565b600083610ffe576000611001565b60015b60ff1690505b600160701b82101561103c5793800260ff81901c607f81019190911c94600019939093019260019290921b9082180190611007565b505b806001600160701b0316607083901b8461105957600061105f565b6001607f1b5b6001600160801b0316171760801b979650505050505050565b6000617fff60f084811c8216919084901c8116908214156111075780617fff14156110e6576001600160801b031985811690851614156110c357505050600160ff1b81168218610aef565b600160ff1b6001600160801b0319868618161415610b3957505050818117610aef565b600160801b600160ff1b038416610870575061ffff60ef1b9150610aef9050565b80617fff141561114357600160801b600160ff1b038516611132575061ffff60ef1b9150610aef9050565b505050600160ff1b82168118610aef565b6001600160701b03608086901c168261115f5760019250611166565b600160701b175b6001600160701b03608086901c16826111825760019250611189565b600160701b175b90810290816111a657600160ff1b878718166109a65760006109ac565b928201926000600160e11b8310156111d957600160e01b8310156111d2576111cd836126c4565b6111dc565b60e06111dc565b60e15b905061407081860110156111f7576000945060009250611294565b6140e0818601101561123a5761407085101561121c57846140700383901c9250611231565b61407085111561123157614070850383901b92505b60009450611294565b61c0dd818601111561125457617fff945060009250611294565b607081111561126b576070810383901c925061127e565b607081101561127e578060700383901b92505b6001600160701b03831692506140df8186010394505b82607086901b888a186001607f1b60801b1660801c6001600160801b0316171760801b95505050505050610aef565b60006001607f1b608083901c90811190617fff60f085901c8116916001600160701b031690821480156112f557508015155b15611309575061ffff60ef1b949350505050565b61400d82111561132f578261132357617fff60f01b611326565b60005b95945050505050565b613f7f8210156113485750613fff60f01b949350505050565b81611356576001915061135d565b600160701b175b613fef82111561137357613fee1982011b611385565b613fef82101561138557613fef8290031c5b828015611396575061203760811b81115b156113a657506000949350505050565b821580156113c55750713fffffffffffffffffffffffffffffffffff81115b156113d95750617fff60f01b949350505050565b6001600160801b0381169060801c8380156113f357508115155b156113ff579019906001015b6001607f1b828116156114235770016a09e667f3bcc908b2fb1366ea957d3e0260801c5b6001607e1b831615611446577001306fe0a31b7152de8d5a46305c85edec0260801c5b6001607d1b831615611469577001172b83c7d517adcdf7c8c50eb14a791f0260801c5b6001607c1b83161561148c5770010b5586cf9890f6298b92b71842a983630260801c5b6001607b1b8316156114af577001059b0d31585743ae7c548eb68ca417fd0260801c5b6001607a1b8316156114d257700102c9a3e778060ee6f7caca4f7a29bde80260801c5b600160791b8316156114f55770010163da9fb33356d84a66ae336dcdfa3f0260801c5b600160781b83161561151857700100b1afa5abcbed6129ab13ec11dc95430260801c5b600160771b83161561153b5770010058c86da1c09ea1ff19d294cf2f679b0260801c5b600160761b83161561155e577001002c605e2e8cec506d21bfc89a23a00f0260801c5b600160751b83161561158157700100162f3904051fa128bca9c55c31e5df0260801c5b600160741b8316156115a4577001000b175effdc76ba38e31671ca9397250260801c5b600160731b8316156115c757700100058ba01fb9f96d6cacd4b180917c3d0260801c5b600160721b8316156115ea5770010002c5cc37da9491d0985c348c68e7b30260801c5b600160711b83161561160d577001000162e525ee054754457d59952920260260801c5b600160701b8316156116305770010000b17255775c040618bf4a4ade83fc0260801c5b6001606f1b831615611653577001000058b91b5bc9ae2eed81e9b7d4cfab0260801c5b6001606e1b83161561167657700100002c5c89d5ec6ca4d7c8acc017b7c90260801c5b6001606d1b8316156116995770010000162e43f4f831060e02d839a9d16d0260801c5b6001606c1b8316156116bc57700100000b1721bcfc99d9f890ea069117630260801c5b6001606b1b8316156116df5770010000058b90cf1e6d97f9ca14dbcc16280260801c5b6001606a1b831615611702577001000002c5c863b73f016468f6bac5ca2b0260801c5b600160691b83161561172557700100000162e430e5a18f6119e3c02282a50260801c5b600160681b831615611748577001000000b1721835514b86e6d96efd1bfe0260801c5b600160671b83161561176b57700100000058b90c0b48c6be5df846c5b2ef0260801c5b600160661b83161561178e5770010000002c5c8601cc6b9e94213c72737a0260801c5b600160651b8316156117b1577001000000162e42fff037df38aa2b219f060260801c5b600160641b8316156117d45770010000000b17217fba9c739aa5819f44f90260801c5b600160631b8316156117f7577001000000058b90bfcdee5acd3c1cedc8230260801c5b600160621b83161561181a57700100000002c5c85fe31f35a6a30da1be500260801c5b600160611b83161561183d5770010000000162e42ff0999ce3541b9fffcf0260801c5b600160601b83161561186057700100000000b17217f80f4ef5aadda455540260801c5b6001605f1b8316156118835770010000000058b90bfbf8479bd5a81b51ad0260801c5b6001605e1b8316156118a6577001000000002c5c85fdf84bd62ae30a74cc0260801c5b6001605d1b8316156118c957700100000000162e42fefb2fed257559bdaa0260801c5b6001605c1b8316156118ec577001000000000b17217f7d5a7716bba4a9ae0260801c5b6001605b1b83161561190f57700100000000058b90bfbe9ddbac5e109cce0260801c5b6001605a1b8316156119325770010000000002c5c85fdf4b15de6f17eb0d0260801c5b600160591b831615611955577001000000000162e42fefa494f1478fde050260801c5b600160581b8316156119785770010000000000b17217f7d20cf927c8e94c0260801c5b600160571b83161561199b577001000000000058b90bfbe8f71cb4e4b33d0260801c5b600160561b8316156119be57700100000000002c5c85fdf477b662b269450260801c5b600160551b8316156119e15770010000000000162e42fefa3ae53369388c0260801c5b600160541b831615611a0457700100000000000b17217f7d1d351a389d400260801c5b600160531b831615611a275770010000000000058b90bfbe8e8b2d3d4ede0260801c5b600160521b831615611a4a577001000000000002c5c85fdf4741bea6e77e0260801c5b600160511b831615611a6d57700100000000000162e42fefa39fe95583c20260801c5b600160501b831615611a90577001000000000000b17217f7d1cfb72b45e10260801c5b6980000000000000000000831615611ab957700100000000000058b90bfbe8e7cc35c3f00260801c5b6940000000000000000000831615611ae25770010000000000002c5c85fdf473e242ea380260801c5b6920000000000000000000831615611b0b577001000000000000162e42fefa39f02b772c0260801c5b6910000000000000000000831615611b345770010000000000000b17217f7d1cf7d83c1a0260801c5b6908000000000000000000831615611b5d577001000000000000058b90bfbe8e7bdcbe2e0260801c5b6904000000000000000000831615611b8657700100000000000002c5c85fdf473dea871f0260801c5b6902000000000000000000831615611baf5770010000000000000162e42fefa39ef44d910260801c5b6901000000000000000000831615611bd857700100000000000000b17217f7d1cf79e9490260801c5b68800000000000000000831615611c005770010000000000000058b90bfbe8e7bce5440260801c5b68400000000000000000831615611c28577001000000000000002c5c85fdf473de6eca0260801c5b68200000000000000000831615611c5057700100000000000000162e42fefa39ef366f0260801c5b68100000000000000000831615611c78577001000000000000000b17217f7d1cf79afa0260801c5b68080000000000000000831615611ca057700100000000000000058b90bfbe8e7bcd6d0260801c5b68040000000000000000831615611cc85770010000000000000002c5c85fdf473de6b20260801c5b68020000000000000000831615611cf0577001000000000000000162e42fefa39ef3580260801c5b600160401b831615611d135770010000000000000000b17217f7d1cf79ab0260801c5b678000000000000000831615611d3a577001000000000000000058b90bfbe8e7bcd50260801c5b674000000000000000831615611d6157700100000000000000002c5c85fdf473de6a0260801c5b672000000000000000831615611d885770010000000000000000162e42fefa39ef340260801c5b671000000000000000831615611daf57700100000000000000000b17217f7d1cf7990260801c5b670800000000000000831615611dd65770010000000000000000058b90bfbe8e7bcc0260801c5b670400000000000000831615611dfd577001000000000000000002c5c85fdf473de50260801c5b670200000000000000831615611e2457700100000000000000000162e42fefa39ef20260801c5b670100000000000000831615611e4b577001000000000000000000b17217f7d1cf780260801c5b6680000000000000831615611e7157700100000000000000000058b90bfbe8e7bb0260801c5b6640000000000000831615611e975770010000000000000000002c5c85fdf473dd0260801c5b6620000000000000831615611ebd577001000000000000000000162e42fefa39ee0260801c5b6610000000000000831615611ee35770010000000000000000000b17217f7d1cf60260801c5b6608000000000000831615611f09577001000000000000000000058b90bfbe8e7a0260801c5b6604000000000000831615611f2f57700100000000000000000002c5c85fdf473c0260801c5b6602000000000000831615611f555770010000000000000000000162e42fefa39d0260801c5b6601000000000000831615611f7b57700100000000000000000000b17217f7d1ce0260801c5b65800000000000831615611fa05770010000000000000000000058b90bfbe8e60260801c5b65400000000000831615611fc5577001000000000000000000002c5c85fdf4720260801c5b65200000000000831615611fea57700100000000000000000000162e42fefa380260801c5b6510000000000083161561200f577001000000000000000000000b17217f7d1b0260801c5b6508000000000083161561203457700100000000000000000000058b90bfbe8d0260801c5b650400000000008316156120595770010000000000000000000002c5c85fdf460260801c5b6502000000000083161561207e577001000000000000000000000162e42fefa20260801c5b650100000000008316156120a35770010000000000000000000000b17217f7d00260801c5b6480000000008316156120c7577001000000000000000000000058b90bfbe70260801c5b6440000000008316156120eb57700100000000000000000000002c5c85fdf30260801c5b64200000000083161561210f5770010000000000000000000000162e42fef90260801c5b64100000000083161561213357700100000000000000000000000b17217f7c0260801c5b6408000000008316156121575770010000000000000000000000058b90bfbd0260801c5b64040000000083161561217b577001000000000000000000000002c5c85fde0260801c5b64020000000083161561219f57700100000000000000000000000162e42fee0260801c5b6401000000008316156121c3577001000000000000000000000000b17217f60260801c5b63800000008316156121e657700100000000000000000000000058b90bfa0260801c5b63400000008316156122095770010000000000000000000000002c5c85fc0260801c5b632000000083161561222c577001000000000000000000000000162e42fd0260801c5b631000000083161561224f5770010000000000000000000000000b17217e0260801c5b6308000000831615612272577001000000000000000000000000058b90be0260801c5b630400000083161561229557700100000000000000000000000002c5c85e0260801c5b63020000008316156122b85770010000000000000000000000000162e42e0260801c5b63010000008316156122db57700100000000000000000000000000b172160260801c5b628000008316156122fd5770010000000000000000000000000058b90a0260801c5b6240000083161561231f577001000000000000000000000000002c5c840260801c5b6220000083161561234157700100000000000000000000000000162e410260801c5b62100000831615612363577001000000000000000000000000000b17200260801c5b6208000083161561238557700100000000000000000000000000058b8f0260801c5b620400008316156123a75770010000000000000000000000000002c5c70260801c5b620200008316156123c9577001000000000000000000000000000162e30260801c5b620100008316156123eb5770010000000000000000000000000000b1710260801c5b61800083161561240c577001000000000000000000000000000058b80260801c5b61400083161561242d57700100000000000000000000000000002c5b0260801c5b61200083161561244e5770010000000000000000000000000000162d0260801c5b61100083161561246f57700100000000000000000000000000000b160260801c5b6108008316156124905770010000000000000000000000000000058a0260801c5b6104008316156124b1577001000000000000000000000000000002c40260801c5b6102008316156124d2577001000000000000000000000000000001610260801c5b6101008316156124f3577001000000000000000000000000000000b00260801c5b6080831615612513577001000000000000000000000000000000570260801c5b60408316156125335770010000000000000000000000000000002b0260801c5b6020831615612553577001000000000000000000000000000000150260801c5b60108316156125735770010000000000000000000000000000000a0260801c5b6008831615612593577001000000000000000000000000000000040260801c5b60048316156125b3577001000000000000000000000000000000010260801c5b846125d457600f81901c6001600160701b03169050613fff82019150612603565b613ffe82116125f957600f81901c6001600160701b0316905081613fff039150612603565b600091613fee19011c5b60709190911b1760801b95945050505050565b6000617fff60f083901c166140fe81111561263057600080fd5b613fff8110156126435750600092915050565b600160701b6001600160701b03608085901c161761406f82101561266d5761406f8290031c61267f565b61406f82111561267f5761406e1982011b5b6001607f1b608085901c106126a957600160ff1b81111561269f57600080fd5b6000039392505050565b6001600160ff1b038111156126bd57600080fd5b9392505050565b60008082116126d257600080fd5b6000600160801b83106126e757608092831c92015b600160401b83106126fa57604092831c92015b640100000000831061270e57602092831c92015b62010000831061272057601092831c92015b610100831061273157600892831c92015b6010831061274157600492831c92015b6004831061275157600292831c92015b60028310610aef5760010192915050565b80356001600160a01b03811681146107d257600080fd5b6000806040838503121561278c57600080fd5b61279583612762565b946020939093013593505050565b6000806000606084860312156127b857600080fd5b6127c184612762565b95602085013595506040909401359392505050565b6000602082840312156127e857600080fd5b6126bd82612762565b6020808252601290820152710416d6f756e74206d757374206265203e20360741b604082015260600190565b60208082526028908201527f596f7572204c6f616e206163636f756e7420646f65736e2774206861766520746040820152673434b99031b7b4b760c11b606082015260800190565b634e487b7160e01b600052601160045260246000fd5b6000600160ff1b82141561289157612891612865565b5060000390565b600080821280156001600160ff1b03849003851316156128ba576128ba612865565b600160ff1b83900384128116156128d3576128d3612865565b50500190565b6000828210156128eb576128eb612865565b500390565b60008083128015600160ff1b85018412161561290e5761290e612865565b6001600160ff1b038401831381161561292957612929612865565b50500390565b634e487b7160e01b600052601260045260246000fd5b634e487b7160e01b600052600160045260246000fdfea264697066735822122073bc6e07294d254c9907f482916b7bd86eb7443da0670cb7686fcea87d0d335c64736f6c634300080b0033a2646970667358221220bf0ff2538fedbbd63912ab92a5c4fb1a383d1271ac4513eed20fad789377e9c664736f6c634300080b0033","bytecodeSha1":"eb0970511dac05d497659f971bdfbd98a7bf7968","compiler":{"evm_version":"istanbul","optimizer":{"enabled":true,"runs":200},"version":"0.8.11+commit.d7f03943"},"contractName":"PotamusLoan","language":"Solidity","natspec":{"kind":"dev","methods":{},"version":1},"opcodes":"PUSH1 0x80 PUSH1 0x40 MSTORE CALLVALUE DUP1 ISZERO PUSH2 0x10 JUMPI PUSH1 0x0 DUP1 REVERT JUMPDEST POP PUSH1 0x4 CALLDATASIZE LT PUSH2 0xF5 JUMPI PUSH1 0x0 CALLDATALOAD PUSH1 0xE0 SHR DUP1 PUSH4 0x3F27A87E GT PUSH2 0x97 JUMPI DUP1 PUSH4 0xB83E20ED GT PUSH2 0x66 JUMPI DUP1 PUSH4 0xB83E20ED EQ PUSH2 0x250 JUMPI DUP1 PUSH4 0xCD3293DE EQ PUSH2 0x263 JUMPI DUP1 PUSH4 0xF3FEF3A3 EQ PUSH2 0x26C JUMPI DUP1 PUSH4 0xF4AA4A7E EQ PUSH2 0x27F JUMPI PUSH1 0x0 DUP1 REVERT JUMPDEST DUP1 PUSH4 0x3F27A87E EQ PUSH2 0x1EE JUMPI DUP1 PUSH4 0x47E7EF24 EQ PUSH2 0x201 JUMPI DUP1 PUSH4 0x8AF5DE72 EQ PUSH2 0x214 JUMPI DUP1 PUSH4 0xAB1FA471 EQ PUSH2 0x21D JUMPI PUSH1 0x0 DUP1 REVERT JUMPDEST DUP1 PUSH4 0x262330B4 GT PUSH2 0xD3 JUMPI DUP1 PUSH4 0x262330B4 EQ PUSH2 0x194 JUMPI DUP1 PUSH4 0x33F8522F EQ PUSH2 0x1BF JUMPI DUP1 PUSH4 0x35ED8AB8 EQ PUSH2 0x1C8 JUMPI DUP1 PUSH4 0x3AD97D49 EQ PUSH2 0x1DB JUMPI PUSH1 0x0 DUP1 REVERT JUMPDEST DUP1 PUSH4 0x1500DB3F EQ PUSH2 0xFA JUMPI DUP1 PUSH4 0x1734E5CF EQ PUSH2 0x151 JUMPI DUP1 PUSH4 0x185CC751 EQ PUSH2 0x17F JUMPI JUMPDEST PUSH1 0x0 DUP1 REVERT JUMPDEST PUSH2 0x12D PUSH2 0x108 CALLDATASIZE PUSH1 0x4 PUSH2 0x1182 JUMP JUMPDEST PUSH1 0x7 PUSH1 0x20 MSTORE PUSH1 0x0 SWAP1 DUP2 MSTORE PUSH1 0x40 SWAP1 KECCAK256 SLOAD PUSH1 0xFF DUP2 AND SWAP1 PUSH2 0x100 SWAP1 DIV PUSH1 0x1 PUSH1 0x1 PUSH1 0xA0 SHL SUB AND DUP3 JUMP JUMPDEST PUSH1 0x40 DUP1 MLOAD SWAP3 ISZERO ISZERO DUP4 MSTORE PUSH1 0x1 PUSH1 0x1 PUSH1 0xA0 SHL SUB SWAP1 SWAP2 AND PUSH1 0x20 DUP4 ADD MSTORE ADD JUMPDEST PUSH1 0x40 MLOAD DUP1 SWAP2 SUB SWAP1 RETURN JUMPDEST PUSH2 0x171 PUSH2 0x15F CALLDATASIZE PUSH1 0x4 PUSH2 0x11A4 JUMP JUMPDEST PUSH1 0x0 PUSH1 0x20 DUP2 SWAP1 MSTORE SWAP1 DUP2 MSTORE PUSH1 0x40 SWAP1 KECCAK256 SLOAD DUP2 JUMP JUMPDEST PUSH1 0x40 MLOAD SWAP1 DUP2 MSTORE PUSH1 0x20 ADD PUSH2 0x148 JUMP JUMPDEST PUSH2 0x192 PUSH2 0x18D CALLDATASIZE PUSH1 0x4 PUSH2 0x11BD JUMP JUMPDEST PUSH2 0x292 JUMP JUMPDEST STOP JUMPDEST PUSH1 0x2 SLOAD PUSH2 0x1A7 SWAP1 PUSH1 0x1 PUSH1 0x1 PUSH1 0xA0 SHL SUB AND DUP2 JUMP JUMPDEST PUSH1 0x40 MLOAD PUSH1 0x1 PUSH1 0x1 PUSH1 0xA0 SHL SUB SWAP1 SWAP2 AND DUP2 MSTORE PUSH1 0x20 ADD PUSH2 0x148 JUMP JUMPDEST PUSH2 0x171 PUSH1 0x3 SLOAD DUP2 JUMP JUMPDEST PUSH2 0x192 PUSH2 0x1D6 CALLDATASIZE PUSH1 0x4 PUSH2 0x11BD JUMP JUMPDEST PUSH2 0x576 JUMP JUMPDEST PUSH2 0x171 PUSH2 0x1E9 CALLDATASIZE PUSH1 0x4 PUSH2 0x11A4 JUMP JUMPDEST PUSH2 0x85F JUMP JUMPDEST PUSH2 0x1A7 PUSH2 0x1FC CALLDATASIZE PUSH1 0x4 PUSH2 0x11A4 JUMP JUMPDEST PUSH2 0x886 JUMP JUMPDEST PUSH2 0x192 PUSH2 0x20F CALLDATASIZE PUSH1 0x4 PUSH2 0x11BD JUMP JUMPDEST PUSH2 0x8B0 JUMP JUMPDEST PUSH2 0x171 PUSH1 0x1 SLOAD DUP2 JUMP JUMPDEST PUSH2 0x12D PUSH2 0x22B CALLDATASIZE PUSH1 0x4 PUSH2 0x1182 JUMP JUMPDEST PUSH1 0x8 PUSH1 0x20 MSTORE PUSH1 0x0 SWAP1 DUP2 MSTORE PUSH1 0x40 SWAP1 KECCAK256 SLOAD PUSH1 0xFF DUP2 AND SWAP1 PUSH2 0x100 SWAP1 DIV PUSH1 0x1 PUSH1 0x1 PUSH1 0xA0 SHL SUB AND DUP3 JUMP JUMPDEST PUSH2 0x171 PUSH2 0x25E CALLDATASIZE PUSH1 0x4 PUSH2 0x11A4 JUMP JUMPDEST PUSH2 0xD81 JUMP JUMPDEST PUSH2 0x171 PUSH1 0x6 SLOAD DUP2 JUMP JUMPDEST PUSH2 0x192 PUSH2 0x27A CALLDATASIZE PUSH1 0x4 PUSH2 0x11BD JUMP JUMPDEST PUSH2 0xDA2 JUMP JUMPDEST PUSH2 0x1A7 PUSH2 0x28D CALLDATASIZE PUSH1 0x4 PUSH2 0x11A4 JUMP JUMPDEST PUSH2 0x111C JUMP JUMPDEST CALLER PUSH1 0x0 DUP2 DUP2 MSTORE PUSH1 0x7 PUSH1 0x20 MSTORE PUSH1 0x40 SWAP1 KECCAK256 SLOAD PUSH1 0xFF AND PUSH2 0x2CA JUMPI PUSH1 0x40 MLOAD PUSH3 0x461BCD PUSH1 0xE5 SHL DUP2 MSTORE PUSH1 0x4 ADD PUSH2 0x2C1 SWAP1 PUSH2 0x11E7 JUMP JUMPDEST PUSH1 0x40 MLOAD DUP1 SWAP2 SUB SWAP1 REVERT JUMPDEST PUSH1 0x1 PUSH1 0x1 PUSH1 0xA0 SHL SUB DUP4 AND PUSH1 0x0 SWAP1 DUP2 MSTORE PUSH1 0x8 PUSH1 0x20 MSTORE PUSH1 0x40 SWAP1 KECCAK256 SLOAD DUP4 SWAP1 PUSH1 0xFF AND PUSH2 0x304 JUMPI PUSH1 0x40 MLOAD PUSH3 0x461BCD PUSH1 0xE5 SHL DUP2 MSTORE PUSH1 0x4 ADD PUSH2 0x2C1 SWAP1 PUSH2 0x1237 JUMP JUMPDEST PUSH1 0x1 PUSH1 0x1 PUSH1 0xA0 SHL SUB DUP1 DUP6 AND PUSH1 0x0 SWAP1 DUP2 MSTORE PUSH1 0x8 PUSH1 0x20 SWAP1 DUP2 MSTORE PUSH1 0x40 SWAP2 DUP3 SWAP1 KECCAK256 SLOAD DUP3 MLOAD PUSH4 0xD0CB3CD1 PUSH1 0xE0 SHL DUP2 MSTORE SWAP3 MLOAD DUP9 SWAP5 DUP9 SWAP5 PUSH2 0x100 SWAP1 SWAP4 DIV AND SWAP3 PUSH4 0xD0CB3CD1 SWAP3 PUSH1 0x4 DUP1 DUP3 ADD SWAP4 SWAP2 DUP3 SWAP1 SUB ADD DUP2 DUP7 GAS STATICCALL ISZERO DUP1 ISZERO PUSH2 0x362 JUMPI RETURNDATASIZE PUSH1 0x0 DUP1 RETURNDATACOPY RETURNDATASIZE PUSH1 0x0 REVERT JUMPDEST POP POP POP POP PUSH1 0x40 MLOAD RETURNDATASIZE PUSH1 0x1F NOT PUSH1 0x1F DUP3 ADD AND DUP3 ADD DUP1 PUSH1 0x40 MSTORE POP DUP2 ADD SWAP1 PUSH2 0x386 SWAP2 SWAP1 PUSH2 0x126C JUMP JUMPDEST DUP2 LT PUSH2 0x3A4 JUMPI PUSH1 0x40 MLOAD PUSH3 0x461BCD PUSH1 0xE5 SHL DUP2 MSTORE PUSH1 0x4 ADD PUSH2 0x2C1 SWAP1 PUSH2 0x1285 JUMP JUMPDEST PUSH1 0x1 PUSH1 0x1 PUSH1 0xA0 SHL SUB DUP7 DUP2 AND PUSH1 0x0 SWAP1 DUP2 MSTORE PUSH1 0x8 PUSH1 0x20 SWAP1 DUP2 MSTORE PUSH1 0x40 DUP1 DUP4 KECCAK256 SLOAD CALLER DUP1 DUP6 MSTORE PUSH1 0x7 SWAP1 SWAP4 MSTORE SWAP3 DUP2 SWAP1 KECCAK256 SLOAD SWAP1 MLOAD PUSH4 0x185CC751 PUSH1 0xE0 SHL DUP2 MSTORE PUSH1 0x4 DUP2 ADD SWAP3 SWAP1 SWAP3 MSTORE PUSH1 0x24 DUP3 ADD DUP10 SWAP1 MSTORE PUSH2 0x100 SWAP3 DUP4 SWAP1 DIV DUP5 AND SWAP4 SWAP3 SWAP1 DIV SWAP1 SWAP2 AND SWAP1 DUP3 SWAP1 PUSH4 0x185CC751 SWAP1 PUSH1 0x44 ADD PUSH1 0x0 PUSH1 0x40 MLOAD DUP1 DUP4 SUB DUP2 PUSH1 0x0 DUP8 DUP1 EXTCODESIZE ISZERO DUP1 ISZERO PUSH2 0x420 JUMPI PUSH1 0x0 DUP1 REVERT JUMPDEST POP GAS CALL ISZERO DUP1 ISZERO PUSH2 0x434 JUMPI RETURNDATASIZE PUSH1 0x0 DUP1 RETURNDATACOPY RETURNDATASIZE PUSH1 0x0 REVERT JUMPDEST POP POP POP POP DUP1 PUSH1 0x1 PUSH1 0x1 PUSH1 0xA0 SHL SUB AND PUSH4 0xCEBC743D DUP10 DUP10 DUP6 PUSH1 0x1 PUSH1 0x1 PUSH1 0xA0 SHL SUB AND PUSH4 0x88ADCAC1 PUSH1 0x40 MLOAD DUP2 PUSH4 0xFFFFFFFF AND PUSH1 0xE0 SHL DUP2 MSTORE PUSH1 0x4 ADD PUSH1 0x20 PUSH1 0x40 MLOAD DUP1 DUP4 SUB DUP2 DUP7 GAS STATICCALL ISZERO DUP1 ISZERO PUSH2 0x487 JUMPI RETURNDATASIZE PUSH1 0x0 DUP1 RETURNDATACOPY RETURNDATASIZE PUSH1 0x0 REVERT JUMPDEST POP POP POP POP PUSH1 0x40 MLOAD RETURNDATASIZE PUSH1 0x1F NOT PUSH1 0x1F DUP3 ADD AND DUP3 ADD DUP1 PUSH1 0x40 MSTORE POP DUP2 ADD SWAP1 PUSH2 0x4AB SWAP2 SWAP1 PUSH2 0x126C JUMP JUMPDEST PUSH1 0x40 MLOAD PUSH1 0x1 PUSH1 0x1 PUSH1 0xE0 SHL SUB NOT PUSH1 0xE0 DUP7 SWAP1 SHL AND DUP2 MSTORE PUSH1 0x1 PUSH1 0x1 PUSH1 0xA0 SHL SUB SWAP1 SWAP4 AND PUSH1 0x4 DUP5 ADD MSTORE PUSH1 0x24 DUP4 ADD SWAP2 SWAP1 SWAP2 MSTORE PUSH1 0x44 DUP3 ADD MSTORE PUSH1 0x64 ADD PUSH1 0x0 PUSH1 0x40 MLOAD DUP1 DUP4 SUB DUP2 PUSH1 0x0 DUP8 DUP1 EXTCODESIZE ISZERO DUP1 ISZERO PUSH2 0x4F9 JUMPI PUSH1 0x0 DUP1 REVERT JUMPDEST POP GAS CALL ISZERO DUP1 ISZERO PUSH2 0x50D JUMPI RETURNDATASIZE PUSH1 0x0 DUP1 RETURNDATACOPY RETURNDATASIZE PUSH1 0x0 REVERT JUMPDEST POP POP PUSH1 0x40 MLOAD PUSH4 0x34B3C50F PUSH1 0xE0 SHL DUP2 MSTORE PUSH1 0x1 PUSH1 0x1 PUSH1 0xA0 SHL SUB DUP5 DUP2 AND PUSH1 0x4 DUP4 ADD MSTORE DUP6 AND SWAP3 POP PUSH4 0x34B3C50F SWAP2 POP PUSH1 0x24 ADD PUSH1 0x0 PUSH1 0x40 MLOAD DUP1 DUP4 SUB DUP2 PUSH1 0x0 DUP8 DUP1 EXTCODESIZE ISZERO DUP1 ISZERO PUSH2 0x554 JUMPI PUSH1 0x0 DUP1 REVERT JUMPDEST POP GAS CALL ISZERO DUP1 ISZERO PUSH2 0x568 JUMPI RETURNDATASIZE PUSH1 0x0 DUP1 RETURNDATACOPY RETURNDATASIZE PUSH1 0x0 REVERT JUMPDEST POP POP POP POP POP POP POP POP POP POP POP POP JUMP JUMPDEST CALLER PUSH1 0x0 DUP2 DUP2 MSTORE PUSH1 0x7 PUSH1 0x20 MSTORE PUSH1 0x40 SWAP1 KECCAK256 SLOAD PUSH1 0xFF AND PUSH2 0x5A5 JUMPI PUSH1 0x40 MLOAD PUSH3 0x461BCD PUSH1 0xE5 SHL DUP2 MSTORE PUSH1 0x4 ADD PUSH2 0x2C1 SWAP1 PUSH2 0x11E7 JUMP JUMPDEST PUSH1 0x1 PUSH1 0x1 PUSH1 0xA0 SHL SUB DUP4 AND PUSH1 0x0 SWAP1 DUP2 MSTORE PUSH1 0x8 PUSH1 0x20 MSTORE PUSH1 0x40 SWAP1 KECCAK256 SLOAD DUP4 SWAP1 PUSH1 0xFF AND PUSH2 0x5DF JUMPI PUSH1 0x40 MLOAD PUSH3 0x461BCD PUSH1 0xE5 SHL DUP2 MSTORE PUSH1 0x4 ADD PUSH2 0x2C1 SWAP1 PUSH2 0x1237 JUMP JUMPDEST PUSH1 0x1 PUSH1 0x1 PUSH1 0xA0 SHL SUB DUP5 DUP2 AND PUSH1 0x0 DUP2 DUP2 MSTORE PUSH1 0x8 PUSH1 0x20 SWAP1 DUP2 MSTORE PUSH1 0x40 DUP1 DUP4 KECCAK256 SLOAD CALLER DUP1 DUP6 MSTORE PUSH1 0x7 SWAP1 SWAP4 MSTORE SWAP3 DUP2 SWAP1 KECCAK256 SLOAD SWAP1 MLOAD PUSH4 0x23B872DD PUSH1 0xE0 SHL DUP2 MSTORE PUSH1 0x4 DUP2 ADD SWAP3 SWAP1 SWAP3 MSTORE PUSH2 0x100 SWAP3 DUP4 SWAP1 DIV DUP6 AND PUSH1 0x24 DUP4 ADD DUP2 SWAP1 MSTORE PUSH1 0x44 DUP4 ADD DUP10 SWAP1 MSTORE SWAP5 SWAP3 SWAP1 DIV SWAP1 SWAP2 AND SWAP2 SWAP1 PUSH4 0x23B872DD SWAP1 PUSH1 0x64 ADD PUSH1 0x20 PUSH1 0x40 MLOAD DUP1 DUP4 SUB DUP2 PUSH1 0x0 DUP8 GAS CALL ISZERO DUP1 ISZERO PUSH2 0x666 JUMPI RETURNDATASIZE PUSH1 0x0 DUP1 RETURNDATACOPY RETURNDATASIZE PUSH1 0x0 REVERT JUMPDEST POP POP POP POP PUSH1 0x40 MLOAD RETURNDATASIZE PUSH1 0x1F NOT PUSH1 0x1F DUP3 ADD AND DUP3 ADD DUP1 PUSH1 0x40 MSTORE POP DUP2 ADD SWAP1 PUSH2 0x68A SWAP2 SWAP1 PUSH2 0x12F7 JUMP JUMPDEST PUSH2 0x6D1 JUMPI PUSH1 0x40 MLOAD PUSH3 0x461BCD PUSH1 0xE5 SHL DUP2 MSTORE PUSH1 0x20 PUSH1 0x4 DUP3 ADD MSTORE PUSH1 0x18 PUSH1 0x24 DUP3 ADD MSTORE PUSH24 0x151C985B9CD9995C881BD9881D1BDAD95B8819985A5B1959 PUSH1 0x42 SHL PUSH1 0x44 DUP3 ADD MSTORE PUSH1 0x64 ADD PUSH2 0x2C1 JUMP JUMPDEST PUSH1 0x40 MLOAD PUSH4 0xA846C2FD PUSH1 0xE0 SHL DUP2 MSTORE PUSH1 0x4 DUP2 ADD DUP7 SWAP1 MSTORE PUSH1 0x1 PUSH1 0x1 PUSH1 0xA0 SHL SUB DUP4 AND SWAP1 PUSH4 0xA846C2FD SWAP1 PUSH1 0x24 ADD PUSH1 0x0 PUSH1 0x40 MLOAD DUP1 DUP4 SUB DUP2 PUSH1 0x0 DUP8 DUP1 EXTCODESIZE ISZERO DUP1 ISZERO PUSH2 0x713 JUMPI PUSH1 0x0 DUP1 REVERT JUMPDEST POP GAS CALL ISZERO DUP1 ISZERO PUSH2 0x727 JUMPI RETURNDATASIZE PUSH1 0x0 DUP1 RETURNDATACOPY RETURNDATASIZE PUSH1 0x0 REVERT JUMPDEST POP POP PUSH1 0x40 MLOAD PUSH4 0xB56FD49 PUSH1 0xE0 SHL DUP2 MSTORE PUSH1 0x1 PUSH1 0x1 PUSH1 0xA0 SHL SUB DUP10 DUP2 AND PUSH1 0x4 DUP4 ADD MSTORE PUSH1 0x24 DUP3 ADD DUP10 SWAP1 MSTORE DUP5 AND SWAP3 POP PUSH4 0xB56FD49 SWAP2 POP PUSH1 0x44 ADD PUSH1 0x0 PUSH1 0x40 MLOAD DUP1 DUP4 SUB DUP2 PUSH1 0x0 DUP8 DUP1 EXTCODESIZE ISZERO DUP1 ISZERO PUSH2 0x775 JUMPI PUSH1 0x0 DUP1 REVERT JUMPDEST POP GAS CALL ISZERO DUP1 ISZERO PUSH2 0x789 JUMPI RETURNDATASIZE PUSH1 0x0 DUP1 RETURNDATACOPY RETURNDATASIZE PUSH1 0x0 REVERT JUMPDEST POP POP PUSH1 0x40 MLOAD PUSH4 0x3CE61201 PUSH1 0xE2 SHL DUP2 MSTORE PUSH1 0x1 PUSH1 0x1 PUSH1 0xA0 SHL SUB DUP10 DUP2 AND PUSH1 0x4 DUP4 ADD MSTORE DUP5 AND SWAP3 POP PUSH4 0xF3984804 SWAP2 POP PUSH1 0x24 ADD PUSH1 0x20 PUSH1 0x40 MLOAD DUP1 DUP4 SUB DUP2 DUP7 GAS STATICCALL ISZERO DUP1 ISZERO PUSH2 0x7D3 JUMPI RETURNDATASIZE PUSH1 0x0 DUP1 RETURNDATACOPY RETURNDATASIZE PUSH1 0x0 REVERT JUMPDEST POP POP POP POP PUSH1 0x40 MLOAD RETURNDATASIZE PUSH1 0x1F NOT PUSH1 0x1F DUP3 ADD AND DUP3 ADD DUP1 PUSH1 0x40 MSTORE POP DUP2 ADD SWAP1 PUSH2 0x7F7 SWAP2 SWAP1 PUSH2 0x12F7 JUMP JUMPDEST PUSH2 0x857 JUMPI PUSH1 0x40 MLOAD PUSH4 0xD9ED2685 PUSH1 0xE0 SHL DUP2 MSTORE PUSH1 0x1 PUSH1 0x1 PUSH1 0xA0 SHL SUB DUP3 DUP2 AND PUSH1 0x4 DUP4 ADD MSTORE DUP4 AND SWAP1 PUSH4 0xD9ED2685 SWAP1 PUSH1 0x24 ADD PUSH1 0x0 PUSH1 0x40 MLOAD DUP1 DUP4 SUB DUP2 PUSH1 0x0 DUP8 DUP1 EXTCODESIZE ISZERO DUP1 ISZERO PUSH2 0x83E JUMPI PUSH1 0x0 DUP1 REVERT JUMPDEST POP GAS CALL ISZERO DUP1 ISZERO PUSH2 0x852 JUMPI RETURNDATASIZE PUSH1 0x0 DUP1 RETURNDATACOPY RETURNDATASIZE PUSH1 0x0 REVERT JUMPDEST POP POP POP POP JUMPDEST POP POP POP POP POP POP JUMP JUMPDEST PUSH1 0x0 PUSH1 0x5 DUP3 DUP2 SLOAD DUP2 LT PUSH2 0x874 JUMPI PUSH2 0x874 PUSH2 0x1319 JUMP JUMPDEST SWAP1 PUSH1 0x0 MSTORE PUSH1 0x20 PUSH1 0x0 KECCAK256 ADD SLOAD SWAP1 POP SWAP2 SWAP1 POP JUMP JUMPDEST PUSH1 0x4 DUP2 DUP2 SLOAD DUP2 LT PUSH2 0x896 JUMPI PUSH1 0x0 DUP1 REVERT JUMPDEST PUSH1 0x0 SWAP2 DUP3 MSTORE PUSH1 0x20 SWAP1 SWAP2 KECCAK256 ADD SLOAD PUSH1 0x1 PUSH1 0x1 PUSH1 0xA0 SHL SUB AND SWAP1 POP DUP2 JUMP JUMPDEST PUSH1 0x40 MLOAD PUSH4 0x6EB1769F PUSH1 0xE1 SHL DUP2 MSTORE CALLER PUSH1 0x4 DUP3 ADD MSTORE ADDRESS PUSH1 0x24 DUP3 ADD MSTORE DUP2 SWAP1 PUSH1 0x1 PUSH1 0x1 PUSH1 0xA0 SHL SUB DUP5 AND SWAP1 PUSH4 0xDD62ED3E SWAP1 PUSH1 0x44 ADD PUSH1 0x20 PUSH1 0x40 MLOAD DUP1 DUP4 SUB DUP2 DUP7 GAS STATICCALL ISZERO DUP1 ISZERO PUSH2 0x8FC JUMPI RETURNDATASIZE PUSH1 0x0 DUP1 RETURNDATACOPY RETURNDATASIZE PUSH1 0x0 REVERT JUMPDEST POP POP POP POP PUSH1 0x40 MLOAD RETURNDATASIZE PUSH1 0x1F NOT PUSH1 0x1F DUP3 ADD AND DUP3 ADD DUP1 PUSH1 0x40 MSTORE POP DUP2 ADD SWAP1 PUSH2 0x920 SWAP2 SWAP1 PUSH2 0x126C JUMP JUMPDEST LT ISZERO PUSH2 0x97A JUMPI PUSH1 0x40 MLOAD PUSH3 0x461BCD PUSH1 0xE5 SHL DUP2 MSTORE PUSH1 0x20 PUSH1 0x4 DUP3 ADD MSTORE PUSH1 0x24 DUP1 DUP3 ADD MSTORE PUSH32 0x5573657220617070726F76656420616D6F756E7420697320696E737566666963 PUSH1 0x44 DUP3 ADD MSTORE PUSH4 0x1A595B9D PUSH1 0xE2 SHL PUSH1 0x64 DUP3 ADD MSTORE PUSH1 0x84 ADD PUSH2 0x2C1 JUMP JUMPDEST PUSH1 0x1 PUSH1 0x1 PUSH1 0xA0 SHL SUB DUP3 AND PUSH1 0x0 SWAP1 DUP2 MSTORE PUSH1 0x8 PUSH1 0x20 MSTORE PUSH1 0x40 SWAP1 KECCAK256 SLOAD PUSH1 0xFF AND PUSH2 0xA40 JUMPI PUSH1 0x40 MLOAD DUP1 PUSH1 0x40 ADD PUSH1 0x40 MSTORE DUP1 PUSH1 0x1 ISZERO ISZERO DUP2 MSTORE PUSH1 0x20 ADD DUP4 PUSH1 0x40 MLOAD PUSH2 0x9BB SWAP1 PUSH2 0x114C JUMP JUMPDEST PUSH1 0x1 PUSH1 0x1 PUSH1 0xA0 SHL SUB SWAP1 SWAP2 AND DUP2 MSTORE PUSH1 0x20 ADD PUSH1 0x40 MLOAD DUP1 SWAP2 SUB SWAP1 PUSH1 0x0 CREATE DUP1 ISZERO DUP1 ISZERO PUSH2 0x9E7 JUMPI RETURNDATASIZE PUSH1 0x0 DUP1 RETURNDATACOPY RETURNDATASIZE PUSH1 0x0 REVERT JUMPDEST POP PUSH1 0x1 PUSH1 0x1 PUSH1 0xA0 SHL SUB SWAP1 DUP2 AND SWAP1 SWAP2 MSTORE DUP4 DUP2 AND PUSH1 0x0 SWAP1 DUP2 MSTORE PUSH1 0x8 PUSH1 0x20 SWAP1 DUP2 MSTORE PUSH1 0x40 SWAP1 SWAP2 KECCAK256 DUP4 MLOAD DUP2 SLOAD SWAP5 SWAP1 SWAP3 ADD MLOAD PUSH1 0x1 PUSH1 0x1 PUSH1 0xA8 SHL SUB NOT SWAP1 SWAP5 AND SWAP2 ISZERO ISZERO PUSH2 0x100 PUSH1 0x1 PUSH1 0xA8 SHL SUB NOT AND SWAP2 SWAP1 SWAP2 OR PUSH2 0x100 SWAP4 SWAP1 SWAP3 AND SWAP3 SWAP1 SWAP3 MUL OR SWAP1 SSTORE JUMPDEST CALLER PUSH1 0x0 SWAP1 DUP2 MSTORE PUSH1 0x7 PUSH1 0x20 MSTORE PUSH1 0x40 SWAP1 KECCAK256 SLOAD PUSH1 0xFF AND PUSH2 0xAFB JUMPI PUSH1 0x40 MLOAD DUP1 PUSH1 0x40 ADD PUSH1 0x40 MSTORE DUP1 PUSH1 0x1 ISZERO ISZERO DUP2 MSTORE PUSH1 0x20 ADD CALLER PUSH1 0x40 MLOAD PUSH2 0xA78 SWAP1 PUSH2 0x1159 JUMP JUMPDEST PUSH1 0x1 PUSH1 0x1 PUSH1 0xA0 SHL SUB SWAP1 SWAP2 AND DUP2 MSTORE PUSH1 0x20 ADD PUSH1 0x40 MLOAD DUP1 SWAP2 SUB SWAP1 PUSH1 0x0 CREATE DUP1 ISZERO DUP1 ISZERO PUSH2 0xAA4 JUMPI RETURNDATASIZE PUSH1 0x0 DUP1 RETURNDATACOPY RETURNDATASIZE PUSH1 0x0 REVERT JUMPDEST POP PUSH1 0x1 PUSH1 0x1 PUSH1 0xA0 SHL SUB SWAP1 DUP2 AND SWAP1 SWAP2 MSTORE CALLER PUSH1 0x0 SWAP1 DUP2 MSTORE PUSH1 0x7 PUSH1 0x20 SWAP1 DUP2 MSTORE PUSH1 0x40 SWAP1 SWAP2 KECCAK256 DUP4 MLOAD DUP2 SLOAD SWAP5 SWAP1 SWAP3 ADD MLOAD PUSH1 0x1 PUSH1 0x1 PUSH1 0xA8 SHL SUB NOT SWAP1 SWAP5 AND SWAP2 ISZERO ISZERO PUSH2 0x100 PUSH1 0x1 PUSH1 0xA8 SHL SUB NOT AND SWAP2 SWAP1 SWAP2 OR PUSH2 0x100 SWAP4 SWAP1 SWAP3 AND SWAP3 SWAP1 SWAP3 MUL OR SWAP1 SSTORE JUMPDEST PUSH1 0x1 PUSH1 0x1 PUSH1 0xA0 SHL SUB DUP3 DUP2 AND PUSH1 0x0 DUP2 DUP2 MSTORE PUSH1 0x8 PUSH1 0x20 SWAP1 DUP2 MSTORE PUSH1 0x40 DUP1 DUP4 KECCAK256 SLOAD CALLER DUP1 DUP6 MSTORE PUSH1 0x7 SWAP1 SWAP4 MSTORE SWAP3 DUP2 SWAP1 KECCAK256 SLOAD SWAP1 MLOAD PUSH4 0x23B872DD PUSH1 0xE0 SHL DUP2 MSTORE PUSH1 0x4 DUP2 ADD SWAP3 SWAP1 SWAP3 MSTORE PUSH2 0x100 SWAP3 DUP4 SWAP1 DIV DUP6 AND PUSH1 0x24 DUP4 ADD DUP2 SWAP1 MSTORE PUSH1 0x44 DUP4 ADD DUP8 SWAP1 MSTORE SWAP5 SWAP3 SWAP1 DIV SWAP1 SWAP2 AND SWAP2 SWAP1 PUSH4 0x23B872DD SWAP1 PUSH1 0x64 ADD PUSH1 0x20 PUSH1 0x40 MLOAD DUP1 DUP4 SUB DUP2 PUSH1 0x0 DUP8 GAS CALL ISZERO DUP1 ISZERO PUSH2 0xB82 JUMPI RETURNDATASIZE PUSH1 0x0 DUP1 RETURNDATACOPY RETURNDATASIZE PUSH1 0x0 REVERT JUMPDEST POP POP POP POP PUSH1 0x40 MLOAD RETURNDATASIZE PUSH1 0x1F NOT PUSH1 0x1F DUP3 ADD AND DUP3 ADD DUP1 PUSH1 0x40 MSTORE POP DUP2 ADD SWAP1 PUSH2 0xBA6 SWAP2 SWAP1 PUSH2 0x12F7 JUMP JUMPDEST PUSH2 0xBED JUMPI PUSH1 0x40 MLOAD PUSH3 0x461BCD PUSH1 0xE5 SHL DUP2 MSTORE PUSH1 0x20 PUSH1 0x4 DUP3 ADD MSTORE PUSH1 0x18 PUSH1 0x24 DUP3 ADD MSTORE PUSH24 0x151C985B9CD9995C881BD9881D1BDAD95B8819985A5B1959 PUSH1 0x42 SHL PUSH1 0x44 DUP3 ADD MSTORE PUSH1 0x64 ADD PUSH2 0x2C1 JUMP JUMPDEST PUSH1 0x40 MLOAD PUSH4 0xB6B55F25 PUSH1 0xE0 SHL DUP2 MSTORE PUSH1 0x4 DUP2 ADD DUP5 SWAP1 MSTORE PUSH1 0x1 PUSH1 0x1 PUSH1 0xA0 SHL SUB DUP4 AND SWAP1 PUSH4 0xB6B55F25 SWAP1 PUSH1 0x24 ADD PUSH1 0x0 PUSH1 0x40 MLOAD DUP1 DUP4 SUB DUP2 PUSH1 0x0 DUP8 DUP1 EXTCODESIZE ISZERO DUP1 ISZERO PUSH2 0xC2F JUMPI PUSH1 0x0 DUP1 REVERT JUMPDEST POP GAS CALL ISZERO DUP1 ISZERO PUSH2 0xC43 JUMPI RETURNDATASIZE PUSH1 0x0 DUP1 RETURNDATACOPY RETURNDATASIZE PUSH1 0x0 REVERT JUMPDEST POP POP PUSH1 0x40 MLOAD PUSH4 0x34B3C50F PUSH1 0xE0 SHL DUP2 MSTORE PUSH1 0x1 PUSH1 0x1 PUSH1 0xA0 SHL SUB DUP5 DUP2 AND PUSH1 0x4 DUP4 ADD MSTORE DUP6 AND SWAP3 POP PUSH4 0x34B3C50F SWAP2 POP PUSH1 0x24 ADD PUSH1 0x0 PUSH1 0x40 MLOAD DUP1 DUP4 SUB DUP2 PUSH1 0x0 DUP8 DUP1 EXTCODESIZE ISZERO DUP1 ISZERO PUSH2 0xC8A JUMPI PUSH1 0x0 DUP1 REVERT JUMPDEST POP GAS CALL ISZERO DUP1 ISZERO PUSH2 0xC9E JUMPI RETURNDATASIZE PUSH1 0x0 DUP1 RETURNDATACOPY RETURNDATASIZE PUSH1 0x0 REVERT JUMPDEST POP POP POP POP DUP1 PUSH1 0x1 PUSH1 0x1 PUSH1 0xA0 SHL SUB AND PUSH4 0xE19AE76 DUP6 DUP6 DUP6 PUSH1 0x1 PUSH1 0x1 PUSH1 0xA0 SHL SUB AND PUSH4 0x88ADCAC1 PUSH1 0x40 MLOAD DUP2 PUSH4 0xFFFFFFFF AND PUSH1 0xE0 SHL DUP2 MSTORE PUSH1 0x4 ADD PUSH1 0x20 PUSH1 0x40 MLOAD DUP1 DUP4 SUB DUP2 DUP7 GAS STATICCALL ISZERO DUP1 ISZERO PUSH2 0xCF1 JUMPI RETURNDATASIZE PUSH1 0x0 DUP1 RETURNDATACOPY RETURNDATASIZE PUSH1 0x0 REVERT JUMPDEST POP POP POP POP PUSH1 0x40 MLOAD RETURNDATASIZE PUSH1 0x1F NOT PUSH1 0x1F DUP3 ADD AND DUP3 ADD DUP1 PUSH1 0x40 MSTORE POP DUP2 ADD SWAP1 PUSH2 0xD15 SWAP2 SWAP1 PUSH2 0x126C JUMP JUMPDEST PUSH1 0x40 MLOAD PUSH1 0x1 PUSH1 0x1 PUSH1 0xE0 SHL SUB NOT PUSH1 0xE0 DUP7 SWAP1 SHL AND DUP2 MSTORE PUSH1 0x1 PUSH1 0x1 PUSH1 0xA0 SHL SUB SWAP1 SWAP4 AND PUSH1 0x4 DUP5 ADD MSTORE PUSH1 0x24 DUP4 ADD SWAP2 SWAP1 SWAP2 MSTORE PUSH1 0x44 DUP3 ADD MSTORE PUSH1 0x64 ADD PUSH1 0x0 PUSH1 0x40 MLOAD DUP1 DUP4 SUB DUP2 PUSH1 0x0 DUP8 DUP1 EXTCODESIZE ISZERO DUP1 ISZERO PUSH2 0xD63 JUMPI PUSH1 0x0 DUP1 REVERT JUMPDEST POP GAS CALL ISZERO DUP1 ISZERO PUSH2 0xD77 JUMPI RETURNDATASIZE PUSH1 0x0 DUP1 RETURNDATACOPY RETURNDATASIZE PUSH1 0x0 REVERT JUMPDEST POP POP POP POP POP POP POP POP JUMP JUMPDEST PUSH1 0x5 DUP2 DUP2 SLOAD DUP2 LT PUSH2 0xD91 JUMPI PUSH1 0x0 DUP1 REVERT JUMPDEST PUSH1 0x0 SWAP2 DUP3 MSTORE PUSH1 0x20 SWAP1 SWAP2 KECCAK256 ADD SLOAD SWAP1 POP DUP2 JUMP JUMPDEST CALLER PUSH1 0x0 DUP2 DUP2 MSTORE PUSH1 0x7 PUSH1 0x20 MSTORE PUSH1 0x40 SWAP1 KECCAK256 SLOAD PUSH1 0xFF AND PUSH2 0xDD1 JUMPI PUSH1 0x40 MLOAD PUSH3 0x461BCD PUSH1 0xE5 SHL DUP2 MSTORE PUSH1 0x4 ADD PUSH2 0x2C1 SWAP1 PUSH2 0x11E7 JUMP JUMPDEST PUSH1 0x1 PUSH1 0x1 PUSH1 0xA0 SHL SUB DUP4 AND PUSH1 0x0 SWAP1 DUP2 MSTORE PUSH1 0x8 PUSH1 0x20 MSTORE PUSH1 0x40 SWAP1 KECCAK256 SLOAD DUP4 SWAP1 PUSH1 0xFF AND PUSH2 0xE0B JUMPI PUSH1 0x40 MLOAD PUSH3 0x461BCD PUSH1 0xE5 SHL DUP2 MSTORE PUSH1 0x4 ADD PUSH2 0x2C1 SWAP1 PUSH2 0x1237 JUMP JUMPDEST CALLER PUSH1 0x0 DUP2 DUP2 MSTORE PUSH1 0x7 PUSH1 0x20 MSTORE PUSH1 0x40 SWAP1 DUP2 SWAP1 KECCAK256 SLOAD SWAP1 MLOAD PUSH4 0x776E4B35 PUSH1 0xE1 SHL DUP2 MSTORE PUSH1 0x1 PUSH1 0x1 PUSH1 0xA0 SHL SUB DUP8 DUP2 AND PUSH1 0x4 DUP4 ADD MSTORE DUP8 SWAP3 DUP8 SWAP3 PUSH2 0x100 SWAP1 SWAP2 DIV SWAP1 SWAP2 AND SWAP1 PUSH4 0xEEDC966A SWAP1 PUSH1 0x24 ADD PUSH1 0x20 PUSH1 0x40 MLOAD DUP1 DUP4 SUB DUP2 DUP7 GAS STATICCALL ISZERO DUP1 ISZERO PUSH2 0xE6D JUMPI RETURNDATASIZE PUSH1 0x0 DUP1 RETURNDATACOPY RETURNDATASIZE PUSH1 0x0 REVERT JUMPDEST POP POP POP POP PUSH1 0x40 MLOAD RETURNDATASIZE PUSH1 0x1F NOT PUSH1 0x1F DUP3 ADD AND DUP3 ADD DUP1 PUSH1 0x40 MSTORE POP DUP2 ADD SWAP1 PUSH2 0xE91 SWAP2 SWAP1 PUSH2 0x126C JUMP JUMPDEST DUP2 SLT PUSH2 0xEAF JUMPI PUSH1 0x40 MLOAD PUSH3 0x461BCD PUSH1 0xE5 SHL DUP2 MSTORE PUSH1 0x4 ADD PUSH2 0x2C1 SWAP1 PUSH2 0x1285 JUMP JUMPDEST PUSH1 0x1 PUSH1 0x1 PUSH1 0xA0 SHL SUB DUP1 DUP9 AND PUSH1 0x0 SWAP1 DUP2 MSTORE PUSH1 0x8 PUSH1 0x20 SWAP1 DUP2 MSTORE PUSH1 0x40 SWAP2 DUP3 SWAP1 KECCAK256 SLOAD DUP3 MLOAD PUSH4 0xD0CB3CD1 PUSH1 0xE0 SHL DUP2 MSTORE SWAP3 MLOAD DUP12 SWAP5 DUP12 SWAP5 PUSH2 0x100 SWAP1 SWAP4 DIV AND SWAP3 PUSH4 0xD0CB3CD1 SWAP3 PUSH1 0x4 DUP1 DUP3 ADD SWAP4 SWAP2 DUP3 SWAP1 SUB ADD DUP2 DUP7 GAS STATICCALL ISZERO DUP1 ISZERO PUSH2 0xF0D JUMPI RETURNDATASIZE PUSH1 0x0 DUP1 RETURNDATACOPY RETURNDATASIZE PUSH1 0x0 REVERT JUMPDEST POP POP POP POP PUSH1 0x40 MLOAD RETURNDATASIZE PUSH1 0x1F NOT PUSH1 0x1F DUP3 ADD AND DUP3 ADD DUP1 PUSH1 0x40 MSTORE POP DUP2 ADD SWAP1 PUSH2 0xF31 SWAP2 SWAP1 PUSH2 0x126C JUMP JUMPDEST DUP2 LT PUSH2 0xF4F JUMPI PUSH1 0x40 MLOAD PUSH3 0x461BCD PUSH1 0xE5 SHL DUP2 MSTORE PUSH1 0x4 ADD PUSH2 0x2C1 SWAP1 PUSH2 0x1285 JUMP JUMPDEST PUSH1 0x1 PUSH1 0x1 PUSH1 0xA0 SHL SUB DUP10 DUP2 AND PUSH1 0x0 SWAP1 DUP2 MSTORE PUSH1 0x8 PUSH1 0x20 SWAP1 DUP2 MSTORE PUSH1 0x40 DUP1 DUP4 KECCAK256 SLOAD CALLER DUP1 DUP6 MSTORE PUSH1 0x7 SWAP1 SWAP4 MSTORE SWAP3 DUP2 SWAP1 KECCAK256 SLOAD SWAP1 MLOAD PUSH4 0xF3FEF3A3 PUSH1 0xE0 SHL DUP2 MSTORE PUSH1 0x4 DUP2 ADD SWAP3 SWAP1 SWAP3 MSTORE PUSH1 0x24 DUP3 ADD DUP13 SWAP1 MSTORE PUSH2 0x100 SWAP3 DUP4 SWAP1 DIV DUP5 AND SWAP4 SWAP3 SWAP1 DIV SWAP1 SWAP2 AND SWAP1 DUP3 SWAP1 PUSH4 0xF3FEF3A3 SWAP1 PUSH1 0x44 ADD PUSH1 0x0 PUSH1 0x40 MLOAD DUP1 DUP4 SUB DUP2 PUSH1 0x0 DUP8 DUP1 EXTCODESIZE ISZERO DUP1 ISZERO PUSH2 0xFCB JUMPI PUSH1 0x0 DUP1 REVERT JUMPDEST POP GAS CALL ISZERO DUP1 ISZERO PUSH2 0xFDF JUMPI RETURNDATASIZE PUSH1 0x0 DUP1 RETURNDATACOPY RETURNDATASIZE PUSH1 0x0 REVERT JUMPDEST POP POP PUSH1 0x40 MLOAD PUSH4 0x7DA7D3F1 PUSH1 0xE0 SHL DUP2 MSTORE PUSH1 0x1 PUSH1 0x1 PUSH1 0xA0 SHL SUB DUP15 DUP2 AND PUSH1 0x4 DUP4 ADD MSTORE PUSH1 0x24 DUP3 ADD DUP15 SWAP1 MSTORE DUP5 AND SWAP3 POP PUSH4 0x7DA7D3F1 SWAP2 POP PUSH1 0x44 ADD PUSH1 0x0 PUSH1 0x40 MLOAD DUP1 DUP4 SUB DUP2 PUSH1 0x0 DUP8 DUP1 EXTCODESIZE ISZERO DUP1 ISZERO PUSH2 0x102D JUMPI PUSH1 0x0 DUP1 REVERT JUMPDEST POP GAS CALL ISZERO DUP1 ISZERO PUSH2 0x1041 JUMPI RETURNDATASIZE PUSH1 0x0 DUP1 RETURNDATACOPY RETURNDATASIZE PUSH1 0x0 REVERT JUMPDEST POP POP PUSH1 0x40 MLOAD PUSH4 0x3CE61201 PUSH1 0xE2 SHL DUP2 MSTORE PUSH1 0x1 PUSH1 0x1 PUSH1 0xA0 SHL SUB DUP15 DUP2 AND PUSH1 0x4 DUP4 ADD MSTORE DUP5 AND SWAP3 POP PUSH4 0xF3984804 SWAP2 POP PUSH1 0x24 ADD PUSH1 0x20 PUSH1 0x40 MLOAD DUP1 DUP4 SUB DUP2 DUP7 GAS STATICCALL ISZERO DUP1 ISZERO PUSH2 0x108B JUMPI RETURNDATASIZE PUSH1 0x0 DUP1 RETURNDATACOPY RETURNDATASIZE PUSH1 0x0 REVERT JUMPDEST POP POP POP POP PUSH1 0x40 MLOAD RETURNDATASIZE PUSH1 0x1F NOT PUSH1 0x1F DUP3 ADD AND DUP3 ADD DUP1 PUSH1 0x40 MSTORE POP DUP2 ADD SWAP1 PUSH2 0x10AF SWAP2 SWAP1 PUSH2 0x12F7 JUMP JUMPDEST PUSH2 0x110F JUMPI PUSH1 0x40 MLOAD PUSH4 0xD9ED2685 PUSH1 0xE0 SHL DUP2 MSTORE PUSH1 0x1 PUSH1 0x1 PUSH1 0xA0 SHL SUB DUP3 DUP2 AND PUSH1 0x4 DUP4 ADD MSTORE DUP4 AND SWAP1 PUSH4 0xD9ED2685 SWAP1 PUSH1 0x24 ADD PUSH1 0x0 PUSH1 0x40 MLOAD DUP1 DUP4 SUB DUP2 PUSH1 0x0 DUP8 DUP1 EXTCODESIZE ISZERO DUP1 ISZERO PUSH2 0x10F6 JUMPI PUSH1 0x0 DUP1 REVERT JUMPDEST POP GAS CALL ISZERO DUP1 ISZERO PUSH2 0x110A JUMPI RETURNDATASIZE PUSH1 0x0 DUP1 RETURNDATACOPY RETURNDATASIZE PUSH1 0x0 REVERT JUMPDEST POP POP POP POP JUMPDEST POP POP POP POP POP POP POP POP POP POP POP JUMP JUMPDEST PUSH1 0x0 PUSH1 0x4 DUP3 DUP2 SLOAD DUP2 LT PUSH2 0x1131 JUMPI PUSH2 0x1131 PUSH2 0x1319 JUMP JUMPDEST PUSH1 0x0 SWAP2 DUP3 MSTORE PUSH1 0x20 SWAP1 SWAP2 KECCAK256 ADD SLOAD PUSH1 0x1 PUSH1 0x1 PUSH1 0xA0 SHL SUB AND SWAP3 SWAP2 POP POP JUMP JUMPDEST PUSH2 0x11F5 DUP1 PUSH2 0x1330 DUP4 CODECOPY ADD SWAP1 JUMP JUMPDEST PUSH2 0x2A2D DUP1 PUSH2 0x2525 DUP4 CODECOPY ADD SWAP1 JUMP JUMPDEST DUP1 CALLDATALOAD PUSH1 0x1 PUSH1 0x1 PUSH1 0xA0 SHL SUB DUP2 AND DUP2 EQ PUSH2 0x117D JUMPI PUSH1 0x0 DUP1 REVERT JUMPDEST SWAP2 SWAP1 POP JUMP JUMPDEST PUSH1 0x0 PUSH1 0x20 DUP3 DUP5 SUB SLT ISZERO PUSH2 0x1194 JUMPI PUSH1 0x0 DUP1 REVERT JUMPDEST PUSH2 0x119D DUP3 PUSH2 0x1166 JUMP JUMPDEST SWAP4 SWAP3 POP POP POP JUMP JUMPDEST PUSH1 0x0 PUSH1 0x20 DUP3 DUP5 SUB SLT ISZERO PUSH2 0x11B6 JUMPI PUSH1 0x0 DUP1 REVERT JUMPDEST POP CALLDATALOAD SWAP2 SWAP1 POP JUMP JUMPDEST PUSH1 0x0 DUP1 PUSH1 0x40 DUP4 DUP6 SUB SLT ISZERO PUSH2 0x11D0 JUMPI PUSH1 0x0 DUP1 REVERT JUMPDEST PUSH2 0x11D9 DUP4 PUSH2 0x1166 JUMP JUMPDEST SWAP5 PUSH1 0x20 SWAP4 SWAP1 SWAP4 ADD CALLDATALOAD SWAP4 POP POP POP JUMP JUMPDEST PUSH1 0x20 DUP1 DUP3 MSTORE PUSH1 0x30 SWAP1 DUP3 ADD MSTORE PUSH32 0x4163636F756E74206F662074686973207573657220646F65736E277420657869 PUSH1 0x40 DUP3 ADD MSTORE PUSH16 0x737420696E207468652073797374656D PUSH1 0x80 SHL PUSH1 0x60 DUP3 ADD MSTORE PUSH1 0x80 ADD SWAP1 JUMP JUMPDEST PUSH1 0x20 DUP1 DUP3 MSTORE DUP2 DUP2 ADD MSTORE PUSH32 0x506F6F6C206F66207468697320746F6B656E20646F65736E2774206578697374 PUSH1 0x40 DUP3 ADD MSTORE PUSH1 0x60 ADD SWAP1 JUMP JUMPDEST PUSH1 0x0 PUSH1 0x20 DUP3 DUP5 SUB SLT ISZERO PUSH2 0x127E JUMPI PUSH1 0x0 DUP1 REVERT JUMPDEST POP MLOAD SWAP2 SWAP1 POP JUMP JUMPDEST PUSH1 0x20 DUP1 DUP3 MSTORE PUSH1 0x4C SWAP1 DUP3 ADD MSTORE PUSH32 0x506F6F6C206F66207468697320746F6B656E20646F65736E2774206861766520 PUSH1 0x40 DUP3 ADD MSTORE PUSH32 0x73756666696369656E7420617661696C61626C652066756E6420666F72207468 PUSH1 0x60 DUP3 ADD MSTORE PUSH12 0x34B99037B832B930BA34B7B7 PUSH1 0xA1 SHL PUSH1 0x80 DUP3 ADD MSTORE PUSH1 0xA0 ADD SWAP1 JUMP JUMPDEST PUSH1 0x0 PUSH1 0x20 DUP3 DUP5 SUB SLT ISZERO PUSH2 0x1309 JUMPI PUSH1 0x0 DUP1 REVERT JUMPDEST DUP2 MLOAD DUP1 ISZERO ISZERO DUP2 EQ PUSH2 0x119D JUMPI PUSH1 0x0 DUP1 REVERT JUMPDEST PUSH4 0x4E487B71 PUSH1 0xE0 SHL PUSH1 0x0 MSTORE PUSH1 0x32 PUSH1 0x4 MSTORE PUSH1 0x24 PUSH1 0x0 REVERT INVALID PUSH1 0x80 PUSH1 0x40 MSTORE PUSH1 0x0 PUSH1 0x1 SSTORE PUSH1 0x0 PUSH1 0x2 SSTORE PUSH1 0x0 PUSH1 0x3 SSTORE CALLVALUE DUP1 ISZERO PUSH2 0x1F JUMPI PUSH1 0x0 DUP1 REVERT JUMPDEST POP PUSH1 0x40 MLOAD PUSH2 0x11F5 CODESIZE SUB DUP1 PUSH2 0x11F5 DUP4 CODECOPY DUP2 ADD PUSH1 0x40 DUP2 SWAP1 MSTORE PUSH2 0x3E SWAP2 PUSH2 0x63 JUMP JUMPDEST PUSH1 0x0 DUP1 SLOAD PUSH1 0x1 PUSH1 0x1 PUSH1 0xA0 SHL SUB NOT AND PUSH1 0x1 PUSH1 0x1 PUSH1 0xA0 SHL SUB SWAP3 SWAP1 SWAP3 AND SWAP2 SWAP1 SWAP2 OR SWAP1 SSTORE PUSH2 0x93 JUMP JUMPDEST PUSH1 0x0 PUSH1 0x20 DUP3 DUP5 SUB SLT ISZERO PUSH2 0x75 JUMPI PUSH1 0x0 DUP1 REVERT JUMPDEST DUP2 MLOAD PUSH1 0x1 PUSH1 0x1 PUSH1 0xA0 SHL SUB DUP2 AND DUP2 EQ PUSH2 0x8C JUMPI PUSH1 0x0 DUP1 REVERT JUMPDEST SWAP4 SWAP3 POP POP POP JUMP JUMPDEST PUSH2 0x1153 DUP1 PUSH2 0xA2 PUSH1 0x0 CODECOPY PUSH1 0x0 RETURN INVALID PUSH1 0x80 PUSH1 0x40 MSTORE CALLVALUE DUP1 ISZERO PUSH2 0x10 JUMPI PUSH1 0x0 DUP1 REVERT JUMPDEST POP PUSH1 0x4 CALLDATASIZE LT PUSH2 0xCF JUMPI PUSH1 0x0 CALLDATALOAD PUSH1 0xE0 SHR DUP1 PUSH4 0x88ADCAC1 GT PUSH2 0x8C JUMPI DUP1 PUSH4 0xB6B55F25 GT PUSH2 0x66 JUMPI DUP1 PUSH4 0xB6B55F25 EQ PUSH2 0x1AC JUMPI DUP1 PUSH4 0xD0CB3CD1 EQ PUSH2 0x1BF JUMPI DUP1 PUSH4 0xD9ED2685 EQ PUSH2 0x1C7 JUMPI DUP1 PUSH4 0xF3FEF3A3 EQ PUSH2 0x1DA JUMPI PUSH1 0x0 DUP1 REVERT JUMPDEST DUP1 PUSH4 0x88ADCAC1 EQ PUSH2 0x165 JUMPI DUP1 PUSH4 0x9D76EA58 EQ PUSH2 0x16E JUMPI DUP1 PUSH4 0xA846C2FD EQ PUSH2 0x199 JUMPI PUSH1 0x0 DUP1 REVERT JUMPDEST DUP1 PUSH4 0x7CC8F71 EQ PUSH2 0xD4 JUMPI DUP1 PUSH4 0x185CC751 EQ PUSH2 0xEF JUMPI DUP1 PUSH4 0x1BF05579 EQ PUSH2 0x104 JUMPI DUP1 PUSH4 0x34B3C50F EQ PUSH2 0x10D JUMPI DUP1 PUSH4 0x61BC1A49 EQ PUSH2 0x120 JUMPI DUP1 PUSH4 0x7C7DC094 EQ PUSH2 0x129 JUMPI JUMPDEST PUSH1 0x0 DUP1 REVERT JUMPDEST PUSH2 0xDC PUSH2 0x1ED JUMP JUMPDEST PUSH1 0x40 MLOAD SWAP1 DUP2 MSTORE PUSH1 0x20 ADD JUMPDEST PUSH1 0x40 MLOAD DUP1 SWAP2 SUB SWAP1 RETURN JUMPDEST PUSH2 0x102 PUSH2 0xFD CALLDATASIZE PUSH1 0x4 PUSH2 0xF6A JUMP JUMPDEST PUSH2 0x2F0 JUMP JUMPDEST STOP JUMPDEST PUSH2 0xDC PUSH1 0x2 SLOAD DUP2 JUMP JUMPDEST PUSH2 0x102 PUSH2 0x11B CALLDATASIZE PUSH1 0x4 PUSH2 0xF94 JUMP JUMPDEST PUSH2 0x492 JUMP JUMPDEST PUSH2 0xDC PUSH1 0x1 SLOAD DUP2 JUMP JUMPDEST PUSH2 0x155 PUSH2 0x137 CALLDATASIZE PUSH1 0x4 PUSH2 0xF94 JUMP JUMPDEST PUSH1 0x1 PUSH1 0x1 PUSH1 0xA0 SHL SUB AND PUSH1 0x0 SWAP1 DUP2 MSTORE PUSH1 0x5 PUSH1 0x20 MSTORE PUSH1 0x40 SWAP1 KECCAK256 SLOAD PUSH1 0xFF AND SWAP1 JUMP JUMPDEST PUSH1 0x40 MLOAD SWAP1 ISZERO ISZERO DUP2 MSTORE PUSH1 0x20 ADD PUSH2 0xE6 JUMP JUMPDEST PUSH2 0xDC PUSH1 0x3 SLOAD DUP2 JUMP JUMPDEST PUSH1 0x0 SLOAD PUSH2 0x181 SWAP1 PUSH1 0x1 PUSH1 0x1 PUSH1 0xA0 SHL SUB AND DUP2 JUMP JUMPDEST PUSH1 0x40 MLOAD PUSH1 0x1 PUSH1 0x1 PUSH1 0xA0 SHL SUB SWAP1 SWAP2 AND DUP2 MSTORE PUSH1 0x20 ADD PUSH2 0xE6 JUMP JUMPDEST PUSH2 0x102 PUSH2 0x1A7 CALLDATASIZE PUSH1 0x4 PUSH2 0xFAF JUMP JUMPDEST PUSH2 0x565 JUMP JUMPDEST PUSH2 0x102 PUSH2 0x1BA CALLDATASIZE PUSH1 0x4 PUSH2 0xFAF JUMP JUMPDEST PUSH2 0x585 JUMP JUMPDEST PUSH2 0xDC PUSH2 0x597 JUMP JUMPDEST PUSH2 0x102 PUSH2 0x1D5 CALLDATASIZE PUSH1 0x4 PUSH2 0xF94 JUMP JUMPDEST PUSH2 0x5AE JUMP JUMPDEST PUSH2 0x102 PUSH2 0x1E8 CALLDATASIZE PUSH1 0x4 PUSH2 0xF6A JUMP JUMPDEST PUSH2 0x63C JUMP JUMPDEST PUSH1 0x0 DUP1 PUSH1 0x1 SLOAD PUSH1 0x2 SLOAD PUSH8 0xDE0B6B3A7640000 PUSH2 0x209 SWAP2 SWAP1 PUSH2 0xFDE JUMP JUMPDEST PUSH2 0x213 SWAP2 SWAP1 PUSH2 0x1013 JUMP JUMPDEST SWAP1 POP PUSH8 0xB1A2BC2EC500000 DUP2 LT ISZERO PUSH2 0x26E JUMPI PUSH2 0x268 PUSH2 0x263 PUSH2 0x24D PUSH2 0x237 DUP5 PUSH2 0x7C1 JUMP JUMPDEST PUSH2 0x248 PUSH8 0xB1A2BC2EC500000 PUSH2 0x7C1 JUMP JUMPDEST PUSH2 0x82A JUMP JUMPDEST PUSH2 0x25E PUSH8 0x2C68AF0BB140000 PUSH2 0x7C1 JUMP JUMPDEST PUSH2 0xAE4 JUMP JUMPDEST PUSH2 0xD3F JUMP JUMPDEST SWAP2 POP POP SWAP1 JUMP JUMPDEST PUSH8 0xB1A2BC2EC500000 DUP2 LT PUSH2 0x2EC JUMPI PUSH2 0x2DA PUSH2 0x263 PUSH2 0x2BD PUSH2 0x2A0 PUSH2 0x29B PUSH8 0xB1A2BC2EC500000 DUP7 PUSH2 0x1035 JUMP JUMPDEST PUSH2 0x7C1 JUMP JUMPDEST PUSH2 0x248 PUSH2 0x29B PUSH8 0xB1A2BC2EC500000 PUSH8 0xDE0B6B3A7640000 PUSH2 0x1035 JUMP JUMPDEST PUSH2 0x25E PUSH2 0x29B PUSH8 0x2C68AF0BB140000 PUSH8 0x1BC16D674EC80000 PUSH2 0x1035 JUMP JUMPDEST PUSH2 0x268 SWAP1 PUSH8 0x2C68AF0BB140000 PUSH2 0x104C JUMP JUMPDEST POP SWAP1 JUMP JUMPDEST PUSH1 0x0 SLOAD PUSH1 0x40 MLOAD PUSH4 0x70A08231 PUSH1 0xE0 SHL DUP2 MSTORE ADDRESS PUSH1 0x4 DUP3 ADD MSTORE DUP4 SWAP2 DUP4 SWAP2 DUP3 SWAP2 PUSH1 0x1 PUSH1 0x1 PUSH1 0xA0 SHL SUB AND SWAP1 PUSH4 0x70A08231 SWAP1 PUSH1 0x24 ADD PUSH1 0x20 PUSH1 0x40 MLOAD DUP1 DUP4 SUB DUP2 DUP7 GAS STATICCALL ISZERO DUP1 ISZERO PUSH2 0x33C JUMPI RETURNDATASIZE PUSH1 0x0 DUP1 RETURNDATACOPY RETURNDATASIZE PUSH1 0x0 REVERT JUMPDEST POP POP POP POP PUSH1 0x40 MLOAD RETURNDATASIZE PUSH1 0x1F NOT PUSH1 0x1F DUP3 ADD AND DUP3 ADD DUP1 PUSH1 0x40 MSTORE POP DUP2 ADD SWAP1 PUSH2 0x360 SWAP2 SWAP1 PUSH2 0x1064 JUMP JUMPDEST LT ISZERO PUSH2 0x387 JUMPI PUSH1 0x40 MLOAD PUSH3 0x461BCD PUSH1 0xE5 SHL DUP2 MSTORE PUSH1 0x4 ADD PUSH2 0x37E SWAP1 PUSH2 0x107D JUMP JUMPDEST PUSH1 0x40 MLOAD DUP1 SWAP2 SUB SWAP1 REVERT JUMPDEST DUP1 PUSH2 0x390 PUSH2 0x597 JUMP JUMPDEST LT ISZERO PUSH2 0x3AE JUMPI PUSH1 0x40 MLOAD PUSH3 0x461BCD PUSH1 0xE5 SHL DUP2 MSTORE PUSH1 0x4 ADD PUSH2 0x37E SWAP1 PUSH2 0x107D JUMP JUMPDEST PUSH1 0x0 SLOAD PUSH1 0x40 MLOAD PUSH4 0xA9059CBB PUSH1 0xE0 SHL DUP2 MSTORE PUSH1 0x1 PUSH1 0x1 PUSH1 0xA0 SHL SUB DUP5 DUP2 AND PUSH1 0x4 DUP4 ADD MSTORE PUSH1 0x24 DUP3 ADD DUP5 SWAP1 MSTORE SWAP1 SWAP2 AND SWAP1 PUSH4 0xA9059CBB SWAP1 PUSH1 0x44 ADD PUSH1 0x20 PUSH1 0x40 MLOAD DUP1 DUP4 SUB DUP2 PUSH1 0x0 DUP8 GAS CALL ISZERO DUP1 ISZERO PUSH2 0x401 JUMPI RETURNDATASIZE PUSH1 0x0 DUP1 RETURNDATACOPY RETURNDATASIZE PUSH1 0x0 REVERT JUMPDEST POP POP POP POP PUSH1 0x40 MLOAD RETURNDATASIZE PUSH1 0x1F NOT PUSH1 0x1F DUP3 ADD AND DUP3 ADD DUP1 PUSH1 0x40 MSTORE POP DUP2 ADD SWAP1 PUSH2 0x425 SWAP2 SWAP1 PUSH2 0x10B4 JUMP JUMPDEST PUSH2 0x46C JUMPI PUSH1 0x40 MLOAD PUSH3 0x461BCD PUSH1 0xE5 SHL DUP2 MSTORE PUSH1 0x20 PUSH1 0x4 DUP3 ADD MSTORE PUSH1 0x18 PUSH1 0x24 DUP3 ADD MSTORE PUSH24 0x151C985B9CD9995C881BD9881D1BDAD95B8819985A5B1959 PUSH1 0x42 SHL PUSH1 0x44 DUP3 ADD MSTORE PUSH1 0x64 ADD PUSH2 0x37E JUMP JUMPDEST DUP3 PUSH1 0x2 PUSH1 0x0 DUP3 DUP3 SLOAD PUSH2 0x47E SWAP2 SWAP1 PUSH2 0x104C JUMP JUMPDEST SWAP1 SWAP2 SSTORE POP PUSH2 0x48C SWAP1 POP PUSH2 0xDC3 JUMP JUMPDEST POP POP POP POP JUMP JUMPDEST PUSH1 0x40 MLOAD PUSH4 0x1F1F7025 PUSH1 0xE2 SHL DUP2 MSTORE PUSH1 0x1 PUSH1 0x1 PUSH1 0xA0 SHL SUB DUP3 AND PUSH1 0x4 DUP3 ADD MSTORE ADDRESS SWAP1 PUSH4 0x7C7DC094 SWAP1 PUSH1 0x24 ADD PUSH1 0x20 PUSH1 0x40 MLOAD DUP1 DUP4 SUB DUP2 DUP7 GAS STATICCALL ISZERO DUP1 ISZERO PUSH2 0x4D6 JUMPI RETURNDATASIZE PUSH1 0x0 DUP1 RETURNDATACOPY RETURNDATASIZE PUSH1 0x0 REVERT JUMPDEST POP POP POP POP PUSH1 0x40 MLOAD RETURNDATASIZE PUSH1 0x1F NOT PUSH1 0x1F DUP3 ADD AND DUP3 ADD DUP1 PUSH1 0x40 MSTORE POP DUP2 ADD SWAP1 PUSH2 0x4FA SWAP2 SWAP1 PUSH2 0x10B4 JUMP JUMPDEST PUSH2 0x562 JUMPI PUSH1 0x4 DUP1 SLOAD PUSH1 0x1 DUP1 DUP3 ADD SWAP1 SWAP3 SSTORE PUSH32 0x8A35ACFBC15FF81A39AE7D344FD709F28E8600B4AA8C65C6B64BFE7FE36BD19B ADD DUP1 SLOAD PUSH1 0x1 PUSH1 0x1 PUSH1 0xA0 SHL SUB NOT AND PUSH1 0x1 PUSH1 0x1 PUSH1 0xA0 SHL SUB DUP5 AND SWAP1 DUP2 OR SWAP1 SWAP2 SSTORE PUSH1 0x0 SWAP1 DUP2 MSTORE PUSH1 0x5 PUSH1 0x20 MSTORE PUSH1 0x40 SWAP1 KECCAK256 DUP1 SLOAD PUSH1 0xFF NOT AND SWAP1 SWAP2 OR SWAP1 SSTORE JUMPDEST POP JUMP JUMPDEST DUP1 PUSH1 0x2 PUSH1 0x0 DUP3 DUP3 SLOAD PUSH2 0x577 SWAP2 SWAP1 PUSH2 0x1035 JUMP JUMPDEST SWAP1 SWAP2 SSTORE POP PUSH2 0x562 SWAP1 POP PUSH2 0xDC3 JUMP JUMPDEST DUP1 PUSH1 0x1 PUSH1 0x0 DUP3 DUP3 SLOAD PUSH2 0x577 SWAP2 SWAP1 PUSH2 0x104C JUMP JUMPDEST PUSH1 0x0 PUSH1 0x2 SLOAD PUSH1 0x1 SLOAD PUSH2 0x5A9 SWAP2 SWAP1 PUSH2 0x1035 JUMP JUMPDEST SWAP1 POP SWAP1 JUMP JUMPDEST PUSH1 0x40 MLOAD PUSH4 0x1F1F7025 PUSH1 0xE2 SHL DUP2 MSTORE PUSH1 0x1 PUSH1 0x1 PUSH1 0xA0 SHL SUB DUP3 AND PUSH1 0x4 DUP3 ADD MSTORE ADDRESS SWAP1 PUSH4 0x7C7DC094 SWAP1 PUSH1 0x24 ADD PUSH1 0x20 PUSH1 0x40 MLOAD DUP1 DUP4 SUB DUP2 DUP7 GAS STATICCALL ISZERO DUP1 ISZERO PUSH2 0x5F2 JUMPI RETURNDATASIZE PUSH1 0x0 DUP1 RETURNDATACOPY RETURNDATASIZE PUSH1 0x0 REVERT JUMPDEST POP POP POP POP PUSH1 0x40 MLOAD RETURNDATASIZE PUSH1 0x1F NOT PUSH1 0x1F DUP3 ADD AND DUP3 ADD DUP1 PUSH1 0x40 MSTORE POP DUP2 ADD SWAP1 PUSH2 0x616 SWAP2 SWAP1 PUSH2 0x10B4 JUMP JUMPDEST ISZERO PUSH2 0x562 JUMPI PUSH1 0x1 PUSH1 0x1 PUSH1 0xA0 SHL SUB AND PUSH1 0x0 SWAP1 DUP2 MSTORE PUSH1 0x5 PUSH1 0x20 MSTORE PUSH1 0x40 SWAP1 KECCAK256 DUP1 SLOAD PUSH1 0xFF NOT AND SWAP1 SSTORE JUMP JUMPDEST PUSH1 0x0 SLOAD PUSH1 0x40 MLOAD PUSH4 0x70A08231 PUSH1 0xE0 SHL DUP2 MSTORE ADDRESS PUSH1 0x4 DUP3 ADD MSTORE DUP4 SWAP2 DUP4 SWAP2 DUP3 SWAP2 PUSH1 0x1 PUSH1 0x1 PUSH1 0xA0 SHL SUB AND SWAP1 PUSH4 0x70A08231 SWAP1 PUSH1 0x24 ADD PUSH1 0x20 PUSH1 0x40 MLOAD DUP1 DUP4 SUB DUP2 DUP7 GAS STATICCALL ISZERO DUP1 ISZERO PUSH2 0x688 JUMPI RETURNDATASIZE PUSH1 0x0 DUP1 RETURNDATACOPY RETURNDATASIZE PUSH1 0x0 REVERT JUMPDEST POP POP POP POP PUSH1 0x40 MLOAD RETURNDATASIZE PUSH1 0x1F NOT PUSH1 0x1F DUP3 ADD AND DUP3 ADD DUP1 PUSH1 0x40 MSTORE POP DUP2 ADD SWAP1 PUSH2 0x6AC SWAP2 SWAP1 PUSH2 0x1064 JUMP JUMPDEST LT ISZERO PUSH2 0x6CA JUMPI PUSH1 0x40 MLOAD PUSH3 0x461BCD PUSH1 0xE5 SHL DUP2 MSTORE PUSH1 0x4 ADD PUSH2 0x37E SWAP1 PUSH2 0x107D JUMP JUMPDEST DUP1 PUSH2 0x6D3 PUSH2 0x597 JUMP JUMPDEST LT ISZERO PUSH2 0x6F1 JUMPI PUSH1 0x40 MLOAD PUSH3 0x461BCD PUSH1 0xE5 SHL DUP2 MSTORE PUSH1 0x4 ADD PUSH2 0x37E SWAP1 PUSH2 0x107D JUMP JUMPDEST PUSH1 0x0 SLOAD PUSH1 0x40 MLOAD PUSH4 0xA9059CBB PUSH1 0xE0 SHL DUP2 MSTORE PUSH1 0x1 PUSH1 0x1 PUSH1 0xA0 SHL SUB DUP5 DUP2 AND PUSH1 0x4 DUP4 ADD MSTORE PUSH1 0x24 DUP3 ADD DUP5 SWAP1 MSTORE SWAP1 SWAP2 AND SWAP1 PUSH4 0xA9059CBB SWAP1 PUSH1 0x44 ADD PUSH1 0x20 PUSH1 0x40 MLOAD DUP1 DUP4 SUB DUP2 PUSH1 0x0 DUP8 GAS CALL ISZERO DUP1 ISZERO PUSH2 0x744 JUMPI RETURNDATASIZE PUSH1 0x0 DUP1 RETURNDATACOPY RETURNDATASIZE PUSH1 0x0 REVERT JUMPDEST POP POP POP POP PUSH1 0x40 MLOAD RETURNDATASIZE PUSH1 0x1F NOT PUSH1 0x1F DUP3 ADD AND DUP3 ADD DUP1 PUSH1 0x40 MSTORE POP DUP2 ADD SWAP1 PUSH2 0x768 SWAP2 SWAP1 PUSH2 0x10B4 JUMP JUMPDEST PUSH2 0x7AF JUMPI PUSH1 0x40 MLOAD PUSH3 0x461BCD PUSH1 0xE5 SHL DUP2 MSTORE PUSH1 0x20 PUSH1 0x4 DUP3 ADD MSTORE PUSH1 0x18 PUSH1 0x24 DUP3 ADD MSTORE PUSH24 0x151C985B9CD9995C881BD9881D1BDAD95B8819985A5B1959 PUSH1 0x42 SHL PUSH1 0x44 DUP3 ADD MSTORE PUSH1 0x64 ADD PUSH2 0x37E JUMP JUMPDEST DUP3 PUSH1 0x1 PUSH1 0x0 DUP3 DUP3 SLOAD PUSH2 0x47E SWAP2 SWAP1 PUSH2 0x1035 JUMP JUMPDEST PUSH1 0x0 DUP2 PUSH2 0x7D0 JUMPI POP PUSH1 0x0 SWAP2 SWAP1 POP JUMP JUMPDEST DUP2 PUSH1 0x0 PUSH2 0x7DC DUP3 PUSH2 0xEB0 JUMP JUMPDEST SWAP1 POP PUSH1 0x70 DUP2 LT ISZERO PUSH2 0x7F5 JUMPI DUP1 PUSH1 0x70 SUB DUP3 SWAP1 SHL SWAP2 POP PUSH2 0x808 JUMP JUMPDEST PUSH1 0x70 DUP2 GT ISZERO PUSH2 0x808 JUMPI PUSH1 0x70 DUP2 SUB DUP3 SWAP1 SHR SWAP2 POP JUMPDEST PUSH2 0x3FFF ADD PUSH1 0x70 SHL PUSH1 0x1 PUSH1 0x1 PUSH1 0x70 SHL SUB SWAP2 SWAP1 SWAP2 AND OR PUSH1 0x80 SHL SWAP3 SWAP2 POP POP JUMP JUMPDEST SWAP2 SWAP1 POP JUMP JUMPDEST PUSH1 0x0 PUSH2 0x7FFF PUSH1 0xF0 DUP5 DUP2 SHR DUP3 AND SWAP2 SWAP1 DUP5 SWAP1 SHR DUP2 AND SWAP1 DUP3 EQ ISZERO PUSH2 0x870 JUMPI DUP1 PUSH2 0x7FFF EQ ISZERO PUSH2 0x85F JUMPI POP PUSH2 0xFFFF PUSH1 0xEF SHL SWAP2 POP PUSH2 0xADE SWAP1 POP JUMP JUMPDEST POP POP POP PUSH1 0x1 PUSH1 0xFF SHL DUP2 AND DUP3 XOR PUSH2 0xADE JUMP JUMPDEST DUP1 PUSH2 0x7FFF EQ ISZERO PUSH2 0x8B4 JUMPI PUSH14 0xFFFFFFFFFFFFFFFFFFFFFFFFFFFF PUSH1 0x80 SHL DUP5 AND ISZERO PUSH2 0x8A3 JUMPI POP PUSH2 0xFFFF PUSH1 0xEF SHL SWAP2 POP PUSH2 0xADE SWAP1 POP JUMP JUMPDEST POP POP POP DUP1 DUP3 XOR PUSH1 0x1 PUSH1 0xFF SHL AND PUSH2 0xADE JUMP JUMPDEST PUSH1 0x1 PUSH1 0x80 SHL PUSH1 0x1 PUSH1 0xFF SHL SUB DUP5 AND PUSH2 0x8FE JUMPI PUSH1 0x1 PUSH1 0x80 SHL PUSH1 0x1 PUSH1 0xFF SHL SUB DUP6 AND PUSH2 0x8E6 JUMPI POP PUSH2 0xFFFF PUSH1 0xEF SHL SWAP2 POP PUSH2 0xADE SWAP1 POP JUMP JUMPDEST POP POP POP DUP1 DUP3 XOR PUSH1 0x1 PUSH1 0xFF SHL AND PUSH2 0x7FFF PUSH1 0xF0 SHL OR PUSH2 0xADE JUMP JUMPDEST PUSH1 0x1 PUSH1 0x1 PUSH1 0x70 SHL SUB PUSH1 0x80 DUP6 SWAP1 SHR AND DUP2 PUSH2 0x91A JUMPI PUSH1 0x1 SWAP2 POP PUSH2 0x921 JUMP JUMPDEST PUSH1 0x1 PUSH1 0x70 SHL OR JUMPDEST PUSH1 0x1 PUSH1 0x1 PUSH1 0x70 SHL SUB PUSH1 0x80 DUP8 SWAP1 SHR AND DUP4 PUSH2 0x960 JUMPI DUP1 ISZERO PUSH2 0x95B JUMPI PUSH1 0x0 PUSH2 0x945 DUP3 PUSH2 0xEB0 JUMP JUMPDEST PUSH1 0x1 SWAP6 POP PUSH1 0xE2 SUB SWAP4 DUP5 ADD PUSH1 0x71 NOT ADD SWAP4 SWAP2 SWAP1 SWAP2 SHL SWAP1 POP JUMPDEST PUSH2 0x96A JUMP JUMPDEST PUSH1 0x1 PUSH1 0x70 SHL OR PUSH1 0x72 SHL JUMPDEST DUP2 DUP2 DUP2 PUSH2 0x979 JUMPI PUSH2 0x979 PUSH2 0xFFD JUMP JUMPDEST DIV SWAP1 POP DUP1 PUSH2 0x9A6 JUMPI PUSH1 0x1 PUSH1 0xFF SHL DUP8 DUP8 XOR AND PUSH2 0x995 JUMPI PUSH1 0x0 PUSH2 0x99B JUMP JUMPDEST PUSH1 0x1 PUSH1 0xFF SHL JUMPDEST SWAP5 POP POP POP POP POP PUSH2 0xADE JUMP JUMPDEST PUSH1 0x1 PUSH1 0x6C SHL DUP2 LT ISZERO PUSH2 0x9BA JUMPI PUSH2 0x9BA PUSH2 0x10D6 JUMP JUMPDEST PUSH1 0x0 PUSH1 0x1 PUSH1 0x73 SHL DUP3 LT ISZERO PUSH2 0x9F9 JUMPI PUSH1 0x1 PUSH1 0x72 SHL DUP3 LT ISZERO PUSH2 0x9EE JUMPI PUSH1 0x1 PUSH1 0x71 SHL DUP3 LT ISZERO PUSH2 0x9E7 JUMPI PUSH1 0x70 PUSH2 0x9F1 JUMP JUMPDEST PUSH1 0x71 PUSH2 0x9F1 JUMP JUMPDEST PUSH1 0x72 JUMPDEST PUSH1 0xFF AND PUSH2 0xA02 JUMP JUMPDEST PUSH2 0xA02 DUP3 PUSH2 0xEB0 JUMP JUMPDEST SWAP1 POP DUP4 PUSH2 0x4071 ADD DUP2 DUP7 ADD GT ISZERO PUSH2 0xA20 JUMPI PUSH2 0x7FFF SWAP5 POP PUSH1 0x0 SWAP2 POP PUSH2 0xAB3 JUMP JUMPDEST DUP4 DUP2 DUP7 ADD PUSH2 0x3FFC ADD LT ISZERO PUSH2 0xA3B JUMPI PUSH1 0x0 SWAP5 POP PUSH1 0x0 SWAP2 POP PUSH2 0xAB3 JUMP JUMPDEST DUP4 DUP2 DUP7 ADD PUSH2 0x3F8C ADD LT ISZERO PUSH2 0xA88 JUMPI DUP4 DUP6 PUSH2 0x3FFC ADD GT ISZERO PUSH2 0xA66 JUMPI DUP4 DUP6 PUSH2 0x3FFC ADD SUB DUP3 SWAP1 SHL SWAP2 POP PUSH2 0xA7F JUMP JUMPDEST DUP4 DUP6 PUSH2 0x3FFC ADD LT ISZERO PUSH2 0xA7F JUMPI PUSH2 0x3FFC DUP6 DUP6 SUB SUB DUP3 SWAP1 SHR SWAP2 POP JUMPDEST PUSH1 0x0 SWAP5 POP PUSH2 0xAB3 JUMP JUMPDEST PUSH1 0x70 DUP2 GT ISZERO PUSH2 0xA9B JUMPI PUSH1 0x70 DUP2 SUB DUP3 SWAP1 SHR SWAP2 POP JUMPDEST PUSH1 0x1 PUSH1 0x1 PUSH1 0x70 SHL SUB DUP3 AND SWAP2 POP DUP4 DUP2 DUP7 ADD PUSH2 0x3F8D ADD SUB SWAP5 POP JUMPDEST DUP2 PUSH1 0x70 DUP7 SWAP1 SHL DUP9 DUP11 XOR PUSH1 0x1 PUSH1 0x7F SHL PUSH1 0x80 SHL AND PUSH1 0x80 SHR PUSH1 0x1 PUSH1 0x1 PUSH1 0x80 SHL SUB AND OR OR PUSH1 0x80 SHL SWAP6 POP POP POP POP POP POP JUMPDEST SWAP3 SWAP2 POP POP JUMP JUMPDEST PUSH1 0x0 PUSH2 0x7FFF PUSH1 0xF0 DUP5 DUP2 SHR DUP3 AND SWAP2 SWAP1 DUP5 SWAP1 SHR DUP2 AND SWAP1 DUP3 EQ ISZERO PUSH2 0xB83 JUMPI DUP1 PUSH2 0x7FFF EQ ISZERO PUSH2 0xB62 JUMPI PUSH1 0x1 PUSH1 0x1 PUSH1 0x80 SHL SUB NOT DUP6 DUP2 AND SWAP1 DUP6 AND EQ ISZERO PUSH2 0xB2F JUMPI POP POP POP PUSH1 0x1 PUSH1 0xFF SHL DUP2 AND DUP3 XOR PUSH2 0xADE JUMP JUMPDEST PUSH1 0x1 PUSH1 0xFF SHL PUSH1 0x1 PUSH1 0x1 PUSH1 0x80 SHL SUB NOT DUP7 DUP7 XOR AND EQ ISZERO PUSH2 0xB52 JUMPI POP POP POP DUP2 DUP2 OR PUSH2 0xADE JUMP JUMPDEST POP PUSH2 0xFFFF PUSH1 0xEF SHL SWAP2 POP PUSH2 0xADE SWAP1 POP JUMP JUMPDEST PUSH1 0x1 PUSH1 0x80 SHL PUSH1 0x1 PUSH1 0xFF SHL SUB DUP5 AND PUSH2 0x85F JUMPI POP PUSH2 0xFFFF PUSH1 0xEF SHL SWAP2 POP PUSH2 0xADE SWAP1 POP JUMP JUMPDEST DUP1 PUSH2 0x7FFF EQ ISZERO PUSH2 0xBBF JUMPI PUSH1 0x1 PUSH1 0x80 SHL PUSH1 0x1 PUSH1 0xFF SHL SUB DUP6 AND PUSH2 0xBAE JUMPI POP PUSH2 0xFFFF PUSH1 0xEF SHL SWAP2 POP PUSH2 0xADE SWAP1 POP JUMP JUMPDEST POP POP POP PUSH1 0x1 PUSH1 0xFF SHL DUP3 AND DUP2 XOR PUSH2 0xADE JUMP JUMPDEST PUSH1 0x1 PUSH1 0x1 PUSH1 0x70 SHL SUB PUSH1 0x80 DUP7 SWAP1 SHR AND DUP3 PUSH2 0xBDB JUMPI PUSH1 0x1 SWAP3 POP PUSH2 0xBE2 JUMP JUMPDEST PUSH1 0x1 PUSH1 0x70 SHL OR JUMPDEST PUSH1 0x1 PUSH1 0x1 PUSH1 0x70 SHL SUB PUSH1 0x80 DUP7 SWAP1 SHR AND DUP3 PUSH2 0xBFE JUMPI PUSH1 0x1 SWAP3 POP PUSH2 0xC05 JUMP JUMPDEST PUSH1 0x1 PUSH1 0x70 SHL OR JUMPDEST SWAP1 DUP2 MUL SWAP1 DUP2 PUSH2 0xC22 JUMPI PUSH1 0x1 PUSH1 0xFF SHL DUP8 DUP8 XOR AND PUSH2 0x995 JUMPI PUSH1 0x0 PUSH2 0x99B JUMP JUMPDEST SWAP3 DUP3 ADD SWAP3 PUSH1 0x0 PUSH1 0x1 PUSH1 0xE1 SHL DUP4 LT ISZERO PUSH2 0xC55 JUMPI PUSH1 0x1 PUSH1 0xE0 SHL DUP4 LT ISZERO PUSH2 0xC4E JUMPI PUSH2 0xC49 DUP4 PUSH2 0xEB0 JUMP JUMPDEST PUSH2 0xC58 JUMP JUMPDEST PUSH1 0xE0 PUSH2 0xC58 JUMP JUMPDEST PUSH1 0xE1 JUMPDEST SWAP1 POP PUSH2 0x4070 DUP2 DUP7 ADD LT ISZERO PUSH2 0xC73 JUMPI PUSH1 0x0 SWAP5 POP PUSH1 0x0 SWAP3 POP PUSH2 0xD10 JUMP JUMPDEST PUSH2 0x40E0 DUP2 DUP7 ADD LT ISZERO PUSH2 0xCB6 JUMPI PUSH2 0x4070 DUP6 LT ISZERO PUSH2 0xC98 JUMPI DUP5 PUSH2 0x4070 SUB DUP4 SWAP1 SHR SWAP3 POP PUSH2 0xCAD JUMP JUMPDEST PUSH2 0x4070 DUP6 GT ISZERO PUSH2 0xCAD JUMPI PUSH2 0x4070 DUP6 SUB DUP4 SWAP1 SHL SWAP3 POP JUMPDEST PUSH1 0x0 SWAP5 POP PUSH2 0xD10 JUMP JUMPDEST PUSH2 0xC0DD DUP2 DUP7 ADD GT ISZERO PUSH2 0xCD0 JUMPI PUSH2 0x7FFF SWAP5 POP PUSH1 0x0 SWAP3 POP PUSH2 0xD10 JUMP JUMPDEST PUSH1 0x70 DUP2 GT ISZERO PUSH2 0xCE7 JUMPI PUSH1 0x70 DUP2 SUB DUP4 SWAP1 SHR SWAP3 POP PUSH2 0xCFA JUMP JUMPDEST PUSH1 0x70 DUP2 LT ISZERO PUSH2 0xCFA JUMPI DUP1 PUSH1 0x70 SUB DUP4 SWAP1 SHL SWAP3 POP JUMPDEST PUSH1 0x1 PUSH1 0x1 PUSH1 0x70 SHL SUB DUP4 AND SWAP3 POP PUSH2 0x40DF DUP2 DUP7 ADD SUB SWAP5 POP JUMPDEST DUP3 PUSH1 0x70 DUP7 SWAP1 SHL DUP9 DUP11 XOR PUSH1 0x1 PUSH1 0x7F SHL PUSH1 0x80 SHL AND PUSH1 0x80 SHR PUSH1 0x1 PUSH1 0x1 PUSH1 0x80 SHL SUB AND OR OR PUSH1 0x80 SHL SWAP6 POP POP POP POP POP POP PUSH2 0xADE JUMP JUMPDEST PUSH1 0x0 PUSH2 0x7FFF PUSH1 0xF0 DUP4 SWAP1 SHR AND PUSH2 0x3FFF DUP2 LT ISZERO PUSH2 0xD5D JUMPI POP PUSH1 0x0 SWAP3 SWAP2 POP POP JUMP JUMPDEST PUSH1 0x1 PUSH1 0x7F SHL PUSH1 0x80 DUP5 SWAP1 SHR LT PUSH2 0xD71 JUMPI PUSH1 0x0 DUP1 REVERT JUMPDEST PUSH2 0x40FE DUP2 GT ISZERO PUSH2 0xD80 JUMPI PUSH1 0x0 DUP1 REVERT JUMPDEST PUSH1 0x1 PUSH1 0x70 SHL PUSH1 0x1 PUSH1 0x1 PUSH1 0x70 SHL SUB PUSH1 0x80 DUP6 SWAP1 SHR AND OR PUSH2 0x406F DUP3 LT ISZERO PUSH2 0xDAA JUMPI PUSH2 0x406F DUP3 SWAP1 SUB SHR PUSH2 0xDBC JUMP JUMPDEST PUSH2 0x406F DUP3 GT ISZERO PUSH2 0xDBC JUMPI PUSH2 0x406E NOT DUP3 ADD SHL JUMPDEST SWAP4 SWAP3 POP POP POP JUMP JUMPDEST PUSH4 0x1E13380 PUSH2 0xDD0 PUSH2 0x1ED JUMP JUMPDEST PUSH2 0xDDA SWAP2 SWAP1 PUSH2 0x1013 JUMP JUMPDEST PUSH1 0x3 SSTORE PUSH1 0x0 JUMPDEST PUSH1 0x4 SLOAD DUP2 LT ISZERO PUSH2 0x562 JUMPI PUSH1 0x0 PUSH1 0x4 PUSH1 0x0 ADD DUP3 DUP2 SLOAD DUP2 LT PUSH2 0xE02 JUMPI PUSH2 0xE02 PUSH2 0x10EC JUMP JUMPDEST PUSH1 0x0 SWAP2 DUP3 MSTORE PUSH1 0x20 DUP1 DUP4 KECCAK256 SWAP1 SWAP2 ADD SLOAD PUSH1 0x1 PUSH1 0x1 PUSH1 0xA0 SHL SUB AND DUP1 DUP4 MSTORE PUSH1 0x5 SWAP1 SWAP2 MSTORE PUSH1 0x40 SWAP1 SWAP2 KECCAK256 SLOAD SWAP1 SWAP2 POP PUSH1 0xFF AND ISZERO PUSH2 0xE9D JUMPI PUSH1 0x0 SLOAD PUSH1 0x3 SLOAD PUSH1 0x40 MLOAD PUSH4 0x13957027 PUSH1 0xE0 SHL DUP2 MSTORE PUSH1 0x1 PUSH1 0x1 PUSH1 0xA0 SHL SUB SWAP3 DUP4 AND PUSH1 0x4 DUP3 ADD MSTORE PUSH1 0x24 DUP2 ADD SWAP2 SWAP1 SWAP2 MSTORE SWAP1 DUP3 AND SWAP1 PUSH4 0x13957027 SWAP1 PUSH1 0x44 ADD PUSH1 0x0 PUSH1 0x40 MLOAD DUP1 DUP4 SUB DUP2 PUSH1 0x0 DUP8 DUP1 EXTCODESIZE ISZERO DUP1 ISZERO PUSH2 0xE84 JUMPI PUSH1 0x0 DUP1 REVERT JUMPDEST POP GAS CALL ISZERO DUP1 ISZERO PUSH2 0xE98 JUMPI RETURNDATASIZE PUSH1 0x0 DUP1 RETURNDATACOPY RETURNDATASIZE PUSH1 0x0 REVERT JUMPDEST POP POP POP POP JUMPDEST POP DUP1 PUSH2 0xEA8 DUP2 PUSH2 0x1102 JUMP JUMPDEST SWAP2 POP POP PUSH2 0xDE0 JUMP JUMPDEST PUSH1 0x0 DUP1 DUP3 GT PUSH2 0xEBE JUMPI PUSH1 0x0 DUP1 REVERT JUMPDEST PUSH1 0x0 PUSH1 0x1 PUSH1 0x80 SHL DUP4 LT PUSH2 0xED3 JUMPI PUSH1 0x80 SWAP3 DUP4 SHR SWAP3 ADD JUMPDEST PUSH9 0x10000000000000000 DUP4 LT PUSH2 0xEEB JUMPI PUSH1 0x40 SWAP3 DUP4 SHR SWAP3 ADD JUMPDEST PUSH5 0x100000000 DUP4 LT PUSH2 0xEFF JUMPI PUSH1 0x20 SWAP3 DUP4 SHR SWAP3 ADD JUMPDEST PUSH3 0x10000 DUP4 LT PUSH2 0xF11 JUMPI PUSH1 0x10 SWAP3 DUP4 SHR SWAP3 ADD JUMPDEST PUSH2 0x100 DUP4 LT PUSH2 0xF22 JUMPI PUSH1 0x8 SWAP3 DUP4 SHR SWAP3 ADD JUMPDEST PUSH1 0x10 DUP4 LT PUSH2 0xF32 JUMPI PUSH1 0x4 SWAP3 DUP4 SHR SWAP3 ADD JUMPDEST PUSH1 0x4 DUP4 LT PUSH2 0xF42 JUMPI PUSH1 0x2 SWAP3 DUP4 SHR SWAP3 ADD JUMPDEST PUSH1 0x2 DUP4 LT PUSH2 0xADE JUMPI PUSH1 0x1 ADD SWAP3 SWAP2 POP POP JUMP JUMPDEST DUP1 CALLDATALOAD PUSH1 0x1 PUSH1 0x1 PUSH1 0xA0 SHL SUB DUP2 AND DUP2 EQ PUSH2 0x825 JUMPI PUSH1 0x0 DUP1 REVERT JUMPDEST PUSH1 0x0 DUP1 PUSH1 0x40 DUP4 DUP6 SUB SLT ISZERO PUSH2 0xF7D JUMPI PUSH1 0x0 DUP1 REVERT JUMPDEST PUSH2 0xF86 DUP4 PUSH2 0xF53 JUMP JUMPDEST SWAP5 PUSH1 0x20 SWAP4 SWAP1 SWAP4 ADD CALLDATALOAD SWAP4 POP POP POP JUMP JUMPDEST PUSH1 0x0 PUSH1 0x20 DUP3 DUP5 SUB SLT ISZERO PUSH2 0xFA6 JUMPI PUSH1 0x0 DUP1 REVERT JUMPDEST PUSH2 0xDBC DUP3 PUSH2 0xF53 JUMP JUMPDEST PUSH1 0x0 PUSH1 0x20 DUP3 DUP5 SUB SLT ISZERO PUSH2 0xFC1 JUMPI PUSH1 0x0 DUP1 REVERT JUMPDEST POP CALLDATALOAD SWAP2 SWAP1 POP JUMP JUMPDEST PUSH4 0x4E487B71 PUSH1 0xE0 SHL PUSH1 0x0 MSTORE PUSH1 0x11 PUSH1 0x4 MSTORE PUSH1 0x24 PUSH1 0x0 REVERT JUMPDEST PUSH1 0x0 DUP2 PUSH1 0x0 NOT DIV DUP4 GT DUP3 ISZERO ISZERO AND ISZERO PUSH2 0xFF8 JUMPI PUSH2 0xFF8 PUSH2 0xFC8 JUMP JUMPDEST POP MUL SWAP1 JUMP JUMPDEST PUSH4 0x4E487B71 PUSH1 0xE0 SHL PUSH1 0x0 MSTORE PUSH1 0x12 PUSH1 0x4 MSTORE PUSH1 0x24 PUSH1 0x0 REVERT JUMPDEST PUSH1 0x0 DUP3 PUSH2 0x1030 JUMPI PUSH4 0x4E487B71 PUSH1 0xE0 SHL PUSH1 0x0 MSTORE PUSH1 0x12 PUSH1 0x4 MSTORE PUSH1 0x24 PUSH1 0x0 REVERT JUMPDEST POP DIV SWAP1 JUMP JUMPDEST PUSH1 0x0 DUP3 DUP3 LT ISZERO PUSH2 0x1047 JUMPI PUSH2 0x1047 PUSH2 0xFC8 JUMP JUMPDEST POP SUB SWAP1 JUMP JUMPDEST PUSH1 0x0 DUP3 NOT DUP3 GT ISZERO PUSH2 0x105F JUMPI PUSH2 0x105F PUSH2 0xFC8 JUMP JUMPDEST POP ADD SWAP1 JUMP JUMPDEST PUSH1 0x0 PUSH1 0x20 DUP3 DUP5 SUB SLT ISZERO PUSH2 0x1076 JUMPI PUSH1 0x0 DUP1 REVERT JUMPDEST POP MLOAD SWAP2 SWAP1 POP JUMP JUMPDEST PUSH1 0x20 DUP1 DUP3 MSTORE PUSH1 0x1A SWAP1 DUP3 ADD MSTORE PUSH32 0x506F6F6C2068617320696E73756666696369656E742066756E64000000000000 PUSH1 0x40 DUP3 ADD MSTORE PUSH1 0x60 ADD SWAP1 JUMP JUMPDEST PUSH1 0x0 PUSH1 0x20 DUP3 DUP5 SUB SLT ISZERO PUSH2 0x10C6 JUMPI PUSH1 0x0 DUP1 REVERT JUMPDEST DUP2 MLOAD DUP1 ISZERO ISZERO DUP2 EQ PUSH2 0xDBC JUMPI PUSH1 0x0 DUP1 REVERT JUMPDEST PUSH4 0x4E487B71 PUSH1 0xE0 SHL PUSH1 0x0 MSTORE PUSH1 0x1 PUSH1 0x4 MSTORE PUSH1 0x24 PUSH1 0x0 REVERT JUMPDEST PUSH4 0x4E487B71 PUSH1 0xE0 SHL PUSH1 0x0 MSTORE PUSH1 0x32 PUSH1 0x4 MSTORE PUSH1 0x24 PUSH1 0x0 REVERT JUMPDEST PUSH1 0x0 PUSH1 0x0 NOT DUP3 EQ ISZERO PUSH2 0x1116 JUMPI PUSH2 0x1116 PUSH2 0xFC8 JUMP JUMPDEST POP PUSH1 0x1 ADD SWAP1 JUMP INVALID LOG2 PUSH5 0x6970667358 0x22 SLT KECCAK256 RETURNDATACOPY SGT PUSH15 0xBA7904E73A41EC4BD86AF5939CD099 0xB9 0xB1 CALLER EXTCODESIZE OR PUSH24 0x6ED69C6BDD283E9E64736F6C634300080B00336080604052 CALLVALUE DUP1 ISZERO PUSH3 0x11 JUMPI PUSH1 0x0 DUP1 REVERT JUMPDEST POP PUSH1 0x40 MLOAD PUSH3 0x2A2D CODESIZE SUB DUP1 PUSH3 0x2A2D DUP4 CODECOPY DUP2 ADD PUSH1 0x40 DUP2 SWAP1 MSTORE PUSH3 0x34 SWAP2 PUSH3 0x5A JUMP JUMPDEST PUSH1 0x0 DUP1 SLOAD PUSH1 0x1 PUSH1 0x1 PUSH1 0xA0 SHL SUB NOT AND PUSH1 0x1 PUSH1 0x1 PUSH1 0xA0 SHL SUB SWAP3 SWAP1 SWAP3 AND SWAP2 SWAP1 SWAP2 OR SWAP1 SSTORE PUSH3 0x8C JUMP JUMPDEST PUSH1 0x0 PUSH1 0x20 DUP3 DUP5 SUB SLT ISZERO PUSH3 0x6D JUMPI PUSH1 0x0 DUP1 REVERT JUMPDEST DUP2 MLOAD PUSH1 0x1 PUSH1 0x1 PUSH1 0xA0 SHL SUB DUP2 AND DUP2 EQ PUSH3 0x85 JUMPI PUSH1 0x0 DUP1 REVERT JUMPDEST SWAP4 SWAP3 POP POP POP JUMP JUMPDEST PUSH2 0x2991 DUP1 PUSH3 0x9C PUSH1 0x0 CODECOPY PUSH1 0x0 RETURN INVALID PUSH1 0x80 PUSH1 0x40 MSTORE CALLVALUE DUP1 ISZERO PUSH2 0x10 JUMPI PUSH1 0x0 DUP1 REVERT JUMPDEST POP PUSH1 0x4 CALLDATASIZE LT PUSH2 0x88 JUMPI PUSH1 0x0 CALLDATALOAD PUSH1 0xE0 SHR DUP1 PUSH4 0xCEBC743D GT PUSH2 0x5B JUMPI DUP1 PUSH4 0xCEBC743D EQ PUSH2 0xDB JUMPI DUP1 PUSH4 0xE4128FB3 EQ PUSH2 0xEE JUMPI DUP1 PUSH4 0xEEDC966A EQ PUSH2 0x11E JUMPI DUP1 PUSH4 0xF3984804 EQ PUSH2 0x159 JUMPI PUSH1 0x0 DUP1 REVERT JUMPDEST DUP1 PUSH4 0xB56FD49 EQ PUSH2 0x8D JUMPI DUP1 PUSH4 0xE19AE76 EQ PUSH2 0xA2 JUMPI DUP1 PUSH4 0x13957027 EQ PUSH2 0xB5 JUMPI DUP1 PUSH4 0x7DA7D3F1 EQ PUSH2 0xC8 JUMPI JUMPDEST PUSH1 0x0 DUP1 REVERT JUMPDEST PUSH2 0xA0 PUSH2 0x9B CALLDATASIZE PUSH1 0x4 PUSH2 0x2779 JUMP JUMPDEST PUSH2 0x198 JUMP JUMPDEST STOP JUMPDEST PUSH2 0xA0 PUSH2 0xB0 CALLDATASIZE PUSH1 0x4 PUSH2 0x27A3 JUMP JUMPDEST PUSH2 0x2E2 JUMP JUMPDEST PUSH2 0xA0 PUSH2 0xC3 CALLDATASIZE PUSH1 0x4 PUSH2 0x2779 JUMP JUMPDEST PUSH2 0x3D3 JUMP JUMPDEST PUSH2 0xA0 PUSH2 0xD6 CALLDATASIZE PUSH1 0x4 PUSH2 0x2779 JUMP JUMPDEST PUSH2 0x42D JUMP JUMPDEST PUSH2 0xA0 PUSH2 0xE9 CALLDATASIZE PUSH1 0x4 PUSH2 0x27A3 JUMP JUMPDEST PUSH2 0x56E JUMP JUMPDEST PUSH1 0x0 SLOAD PUSH2 0x101 SWAP1 PUSH1 0x1 PUSH1 0x1 PUSH1 0xA0 SHL SUB AND DUP2 JUMP JUMPDEST PUSH1 0x40 MLOAD PUSH1 0x1 PUSH1 0x1 PUSH1 0xA0 SHL SUB SWAP1 SWAP2 AND DUP2 MSTORE PUSH1 0x20 ADD JUMPDEST PUSH1 0x40 MLOAD DUP1 SWAP2 SUB SWAP1 RETURN JUMPDEST PUSH2 0x14B PUSH2 0x12C CALLDATASIZE PUSH1 0x4 PUSH2 0x27D6 JUMP JUMPDEST PUSH1 0x1 PUSH1 0x1 PUSH1 0xA0 SHL SUB AND PUSH1 0x0 SWAP1 DUP2 MSTORE PUSH1 0x1 PUSH1 0x20 DUP2 SWAP1 MSTORE PUSH1 0x40 SWAP1 SWAP2 KECCAK256 ADD SLOAD SWAP1 JUMP JUMPDEST PUSH1 0x40 MLOAD SWAP1 DUP2 MSTORE PUSH1 0x20 ADD PUSH2 0x115 JUMP JUMPDEST PUSH2 0x188 PUSH2 0x167 CALLDATASIZE PUSH1 0x4 PUSH2 0x27D6 JUMP JUMPDEST PUSH1 0x1 PUSH1 0x1 PUSH1 0xA0 SHL SUB AND PUSH1 0x0 SWAP1 DUP2 MSTORE PUSH1 0x1 PUSH1 0x20 MSTORE PUSH1 0x40 SWAP1 KECCAK256 PUSH1 0x3 ADD SLOAD PUSH1 0xFF AND SWAP1 JUMP JUMPDEST PUSH1 0x40 MLOAD SWAP1 ISZERO ISZERO DUP2 MSTORE PUSH1 0x20 ADD PUSH2 0x115 JUMP JUMPDEST PUSH1 0x0 DUP2 SGT PUSH2 0x1C1 JUMPI PUSH1 0x40 MLOAD PUSH3 0x461BCD PUSH1 0xE5 SHL DUP2 MSTORE PUSH1 0x4 ADD PUSH2 0x1B8 SWAP1 PUSH2 0x27F1 JUMP JUMPDEST PUSH1 0x40 MLOAD DUP1 SWAP2 SUB SWAP1 REVERT JUMPDEST PUSH1 0x1 PUSH1 0x1 PUSH1 0xA0 SHL SUB DUP3 AND PUSH1 0x0 SWAP1 DUP2 MSTORE PUSH1 0x1 PUSH1 0x20 MSTORE PUSH1 0x40 SWAP1 KECCAK256 PUSH1 0x3 DUP2 ADD SLOAD PUSH1 0xFF AND PUSH2 0x1FD JUMPI PUSH1 0x40 MLOAD PUSH3 0x461BCD PUSH1 0xE5 SHL DUP2 MSTORE PUSH1 0x4 ADD PUSH2 0x1B8 SWAP1 PUSH2 0x281D JUMP JUMPDEST PUSH1 0x0 DUP2 PUSH1 0x1 ADD SLOAD SLT PUSH2 0x251 JUMPI PUSH1 0x40 MLOAD PUSH3 0x461BCD PUSH1 0xE5 SHL DUP2 MSTORE PUSH1 0x20 PUSH1 0x4 DUP3 ADD DUP2 SWAP1 MSTORE PUSH1 0x24 DUP3 ADD MSTORE PUSH32 0x596F7520646F6E2774206F776520616E7920666F72207468697320746F6B656E PUSH1 0x44 DUP3 ADD MSTORE PUSH1 0x64 ADD PUSH2 0x1B8 JUMP JUMPDEST DUP1 PUSH1 0x1 ADD SLOAD PUSH2 0x25F SWAP1 PUSH2 0x287B JUMP JUMPDEST DUP3 SGT ISZERO PUSH2 0x2BA JUMPI PUSH1 0x40 MLOAD PUSH3 0x461BCD PUSH1 0xE5 SHL DUP2 MSTORE PUSH1 0x20 PUSH1 0x4 DUP3 ADD MSTORE PUSH1 0x23 PUSH1 0x24 DUP3 ADD MSTORE PUSH32 0x596F7520617265206F766572706179696E6720666F72207768617420796F7520 PUSH1 0x44 DUP3 ADD MSTORE PUSH3 0x6F7765 PUSH1 0xE8 SHL PUSH1 0x64 DUP3 ADD MSTORE PUSH1 0x84 ADD PUSH2 0x1B8 JUMP JUMPDEST DUP2 DUP2 PUSH1 0x1 ADD PUSH1 0x0 DUP3 DUP3 SLOAD PUSH2 0x2CE SWAP2 SWAP1 PUSH2 0x2898 JUMP JUMPDEST SWAP1 SWAP2 SSTORE POP PUSH2 0x2DD SWAP1 POP DUP4 PUSH2 0x66C JUMP JUMPDEST POP POP POP JUMP JUMPDEST PUSH1 0x0 DUP3 SGT PUSH2 0x302 JUMPI PUSH1 0x40 MLOAD PUSH3 0x461BCD PUSH1 0xE5 SHL DUP2 MSTORE PUSH1 0x4 ADD PUSH2 0x1B8 SWAP1 PUSH2 0x27F1 JUMP JUMPDEST PUSH1 0x1 PUSH1 0x1 PUSH1 0xA0 SHL SUB DUP4 AND PUSH1 0x0 SWAP1 DUP2 MSTORE PUSH1 0x1 PUSH1 0x20 MSTORE PUSH1 0x40 SWAP1 KECCAK256 PUSH1 0x3 DUP2 ADD SLOAD PUSH1 0xFF AND ISZERO PUSH2 0x346 JUMPI DUP3 DUP2 PUSH1 0x1 ADD PUSH1 0x0 DUP3 DUP3 SLOAD PUSH2 0x33B SWAP2 SWAP1 PUSH2 0x2898 JUMP JUMPDEST SWAP1 SWAP2 SSTORE POP PUSH2 0x3CD SWAP1 POP JUMP JUMPDEST PUSH1 0x40 DUP1 MLOAD PUSH1 0xA0 DUP2 ADD DUP3 MSTORE PUSH1 0x1 PUSH1 0x1 PUSH1 0xA0 SHL SUB DUP7 DUP2 AND DUP1 DUP4 MSTORE PUSH1 0x20 DUP1 DUP5 ADD DUP9 DUP2 MSTORE DUP5 DUP7 ADD DUP9 DUP2 MSTORE PUSH1 0x1 PUSH1 0x60 DUP8 ADD DUP2 DUP2 MSTORE TIMESTAMP PUSH1 0x80 DUP10 ADD SWAP1 DUP2 MSTORE PUSH1 0x0 SWAP7 DUP8 MSTORE SWAP5 DUP3 SWAP1 MSTORE SWAP8 SWAP1 SWAP5 KECCAK256 SWAP6 MLOAD DUP7 SLOAD PUSH1 0x1 PUSH1 0x1 PUSH1 0xA0 SHL SUB NOT AND SWAP6 AND SWAP5 SWAP1 SWAP5 OR DUP6 SSTORE MLOAD SWAP2 DUP5 ADD SWAP2 SWAP1 SWAP2 SSTORE SWAP1 MLOAD PUSH1 0x2 DUP4 ADD SSTORE SWAP2 MLOAD PUSH1 0x3 DUP3 ADD DUP1 SLOAD PUSH1 0xFF NOT AND SWAP2 ISZERO ISZERO SWAP2 SWAP1 SWAP2 OR SWAP1 SSTORE SWAP1 MLOAD PUSH1 0x4 SWAP1 SWAP2 ADD SSTORE JUMPDEST POP POP POP POP JUMP JUMPDEST PUSH1 0x1 PUSH1 0x1 PUSH1 0xA0 SHL SUB DUP3 AND PUSH1 0x0 SWAP1 DUP2 MSTORE PUSH1 0x1 PUSH1 0x20 MSTORE PUSH1 0x40 SWAP1 KECCAK256 PUSH1 0x3 DUP2 ADD SLOAD TIMESTAMP SWAP1 PUSH1 0xFF AND ISZERO PUSH2 0x3CD JUMPI PUSH2 0x41C DUP3 PUSH1 0x1 ADD SLOAD DUP4 PUSH1 0x2 ADD SLOAD DUP5 PUSH1 0x4 ADD SLOAD DUP5 PUSH2 0x417 SWAP2 SWAP1 PUSH2 0x28D9 JUMP JUMPDEST PUSH2 0x6D1 JUMP JUMPDEST PUSH1 0x1 DUP4 ADD SSTORE PUSH1 0x4 DUP3 ADD SSTORE PUSH1 0x2 ADD SSTORE POP JUMP JUMPDEST PUSH1 0x0 DUP2 SGT PUSH2 0x44D JUMPI PUSH1 0x40 MLOAD PUSH3 0x461BCD PUSH1 0xE5 SHL DUP2 MSTORE PUSH1 0x4 ADD PUSH2 0x1B8 SWAP1 PUSH2 0x27F1 JUMP JUMPDEST PUSH1 0x1 PUSH1 0x1 PUSH1 0xA0 SHL SUB DUP3 AND PUSH1 0x0 SWAP1 DUP2 MSTORE PUSH1 0x1 PUSH1 0x20 MSTORE PUSH1 0x40 SWAP1 KECCAK256 PUSH1 0x3 DUP2 ADD SLOAD PUSH1 0xFF AND PUSH2 0x489 JUMPI PUSH1 0x40 MLOAD PUSH3 0x461BCD PUSH1 0xE5 SHL DUP2 MSTORE PUSH1 0x4 ADD PUSH2 0x1B8 SWAP1 PUSH2 0x281D JUMP JUMPDEST PUSH1 0x0 DUP2 PUSH1 0x1 ADD SLOAD SGT PUSH2 0x4F1 JUMPI PUSH1 0x40 MLOAD PUSH3 0x461BCD PUSH1 0xE5 SHL DUP2 MSTORE PUSH1 0x20 PUSH1 0x4 DUP3 ADD MSTORE PUSH1 0x2B PUSH1 0x24 DUP3 ADD MSTORE PUSH32 0x596F75722062616C616E636520666F72207468697320746F6B656E206973206E PUSH1 0x44 DUP3 ADD MSTORE PUSH11 0x6F7420706F736974697665 PUSH1 0xA8 SHL PUSH1 0x64 DUP3 ADD MSTORE PUSH1 0x84 ADD PUSH2 0x1B8 JUMP JUMPDEST DUP1 PUSH1 0x1 ADD SLOAD DUP3 SGT ISZERO PUSH2 0x55A JUMPI PUSH1 0x40 MLOAD PUSH3 0x461BCD PUSH1 0xE5 SHL DUP2 MSTORE PUSH1 0x20 PUSH1 0x4 DUP3 ADD MSTORE PUSH1 0x2C PUSH1 0x24 DUP3 ADD MSTORE PUSH32 0x596F75206861766520696E73756666696369656E742062616C616E636520666F PUSH1 0x44 DUP3 ADD MSTORE PUSH12 0x39103A3434B9903A37B5B2B7 PUSH1 0xA1 SHL PUSH1 0x64 DUP3 ADD MSTORE PUSH1 0x84 ADD PUSH2 0x1B8 JUMP JUMPDEST DUP2 DUP2 PUSH1 0x1 ADD PUSH1 0x0 DUP3 DUP3 SLOAD PUSH2 0x2CE SWAP2 SWAP1 PUSH2 0x28F0 JUMP JUMPDEST PUSH1 0x0 DUP3 SGT PUSH2 0x58E JUMPI PUSH1 0x40 MLOAD PUSH3 0x461BCD PUSH1 0xE5 SHL DUP2 MSTORE PUSH1 0x4 ADD PUSH2 0x1B8 SWAP1 PUSH2 0x27F1 JUMP JUMPDEST PUSH1 0x1 PUSH1 0x1 PUSH1 0xA0 SHL SUB DUP4 AND PUSH1 0x0 SWAP1 DUP2 MSTORE PUSH1 0x1 PUSH1 0x20 MSTORE PUSH1 0x40 SWAP1 KECCAK256 PUSH1 0x3 DUP2 ADD SLOAD PUSH1 0xFF AND ISZERO PUSH2 0x5C7 JUMPI DUP3 DUP2 PUSH1 0x1 ADD PUSH1 0x0 DUP3 DUP3 SLOAD PUSH2 0x33B SWAP2 SWAP1 PUSH2 0x28F0 JUMP JUMPDEST PUSH1 0x40 MLOAD DUP1 PUSH1 0xA0 ADD PUSH1 0x40 MSTORE DUP1 DUP6 PUSH1 0x1 PUSH1 0x1 PUSH1 0xA0 SHL SUB AND DUP2 MSTORE PUSH1 0x20 ADD DUP5 PUSH2 0x5EB SWAP1 PUSH2 0x287B JUMP JUMPDEST DUP2 MSTORE PUSH1 0x20 DUP1 DUP3 ADD SWAP5 SWAP1 SWAP5 MSTORE PUSH1 0x1 PUSH1 0x40 DUP1 DUP4 ADD DUP3 SWAP1 MSTORE TIMESTAMP PUSH1 0x60 SWAP4 DUP5 ADD MSTORE PUSH1 0x1 PUSH1 0x1 PUSH1 0xA0 SHL SUB SWAP8 DUP9 AND PUSH1 0x0 SWAP1 DUP2 MSTORE DUP3 DUP8 MSTORE DUP2 SWAP1 KECCAK256 DUP5 MLOAD DUP2 SLOAD PUSH1 0x1 PUSH1 0x1 PUSH1 0xA0 SHL SUB NOT AND SWAP10 AND SWAP9 SWAP1 SWAP9 OR DUP9 SSTORE SWAP5 DUP4 ADD MLOAD SWAP1 DUP8 ADD SSTORE SWAP3 DUP2 ADD MLOAD PUSH1 0x2 DUP7 ADD SSTORE SWAP2 DUP3 ADD MLOAD PUSH1 0x3 DUP6 ADD DUP1 SLOAD PUSH1 0xFF NOT AND SWAP2 ISZERO ISZERO SWAP2 SWAP1 SWAP2 OR SWAP1 SSTORE POP PUSH1 0x80 ADD MLOAD PUSH1 0x4 SWAP1 SWAP3 ADD SWAP2 SWAP1 SWAP2 SSTORE POP JUMP JUMPDEST PUSH1 0x1 PUSH1 0x1 PUSH1 0xA0 SHL SUB DUP2 AND PUSH1 0x0 SWAP1 DUP2 MSTORE PUSH1 0x1 PUSH1 0x20 MSTORE PUSH1 0x40 SWAP1 KECCAK256 PUSH1 0x3 DUP2 ADD SLOAD PUSH1 0xFF AND DUP1 ISZERO PUSH2 0x69C JUMPI POP PUSH1 0x5 DUP2 PUSH1 0x1 ADD SLOAD SLT JUMPDEST DUP1 ISZERO PUSH2 0x6B4 JUMPI POP PUSH2 0x6AD PUSH1 0x5 PUSH2 0x287B JUMP JUMPDEST DUP2 PUSH1 0x1 ADD SLOAD SGT JUMPDEST ISZERO PUSH2 0x6CD JUMPI PUSH1 0x0 PUSH1 0x1 DUP3 ADD SSTORE PUSH1 0x3 DUP2 ADD DUP1 SLOAD PUSH1 0xFF NOT AND SWAP1 SSTORE JUMPDEST POP POP JUMP JUMPDEST PUSH1 0x0 PUSH2 0x73C PUSH2 0x737 PUSH2 0x6E2 DUP7 PUSH2 0x744 JUMP JUMPDEST PUSH2 0x72D PUSH2 0x732 PUSH2 0x6F1 DUP8 PUSH2 0x7D7 JUMP JUMPDEST PUSH2 0x72D PUSH2 0x728 PUSH2 0x701 PUSH1 0x1 PUSH2 0x7D7 JUMP JUMPDEST PUSH2 0x723 PUSH2 0x70D DUP14 PUSH2 0x7D7 JUMP JUMPDEST PUSH2 0x71E PUSH8 0xDE0B6B3A7640000 PUSH2 0x7D7 JUMP JUMPDEST PUSH2 0x83B JUMP JUMPDEST PUSH2 0xAF5 JUMP JUMPDEST PUSH2 0xEC5 JUMP JUMPDEST PUSH2 0x1078 JUMP JUMPDEST PUSH2 0x12C3 JUMP JUMPDEST PUSH2 0x2616 JUMP JUMPDEST SWAP5 SWAP4 POP POP POP POP JUMP JUMPDEST PUSH1 0x0 DUP2 PUSH2 0x753 JUMPI POP PUSH1 0x0 SWAP2 SWAP1 POP JUMP JUMPDEST PUSH1 0x0 DUP1 DUP4 SGT PUSH2 0x765 JUMPI DUP3 PUSH1 0x0 SUB PUSH2 0x767 JUMP JUMPDEST DUP3 JUMPDEST SWAP1 POP PUSH1 0x0 PUSH2 0x774 DUP3 PUSH2 0x26C4 JUMP JUMPDEST SWAP1 POP PUSH1 0x70 DUP2 LT ISZERO PUSH2 0x78D JUMPI DUP1 PUSH1 0x70 SUB DUP3 SWAP1 SHL SWAP2 POP PUSH2 0x7A0 JUMP JUMPDEST PUSH1 0x70 DUP2 GT ISZERO PUSH2 0x7A0 JUMPI PUSH1 0x70 DUP2 SUB DUP3 SWAP1 SHR SWAP2 POP JUMPDEST PUSH1 0x1 PUSH1 0x1 PUSH1 0x70 SHL SUB SWAP1 SWAP2 AND PUSH2 0x3FFF DUP3 ADD PUSH1 0x70 SHL OR SWAP1 PUSH1 0x0 DUP5 SLT ISZERO PUSH2 0x7C8 JUMPI PUSH1 0x1 PUSH1 0x7F SHL DUP3 OR SWAP2 POP JUMPDEST POP PUSH1 0x80 SHL SWAP3 SWAP2 POP POP JUMP JUMPDEST SWAP2 SWAP1 POP JUMP JUMPDEST PUSH1 0x0 DUP2 PUSH2 0x7E6 JUMPI POP PUSH1 0x0 SWAP2 SWAP1 POP JUMP JUMPDEST DUP2 PUSH1 0x0 PUSH2 0x7F2 DUP3 PUSH2 0x26C4 JUMP JUMPDEST SWAP1 POP PUSH1 0x70 DUP2 LT ISZERO PUSH2 0x80B JUMPI DUP1 PUSH1 0x70 SUB DUP3 SWAP1 SHL SWAP2 POP PUSH2 0x81E JUMP JUMPDEST PUSH1 0x70 DUP2 GT ISZERO PUSH2 0x81E JUMPI PUSH1 0x70 DUP2 SUB DUP3 SWAP1 SHR SWAP2 POP JUMPDEST PUSH2 0x3FFF ADD PUSH1 0x70 SHL PUSH1 0x1 PUSH1 0x1 PUSH1 0x70 SHL SUB SWAP2 SWAP1 SWAP2 AND OR PUSH1 0x80 SHL SWAP3 SWAP2 POP POP JUMP JUMPDEST PUSH1 0x0 PUSH2 0x7FFF PUSH1 0xF0 DUP5 DUP2 SHR DUP3 AND SWAP2 SWAP1 DUP5 SWAP1 SHR DUP2 AND SWAP1 DUP3 EQ ISZERO PUSH2 0x881 JUMPI DUP1 PUSH2 0x7FFF EQ ISZERO PUSH2 0x870 JUMPI POP PUSH2 0xFFFF PUSH1 0xEF SHL SWAP2 POP PUSH2 0xAEF SWAP1 POP JUMP JUMPDEST POP POP POP PUSH1 0x1 PUSH1 0xFF SHL DUP2 AND DUP3 XOR PUSH2 0xAEF JUMP JUMPDEST DUP1 PUSH2 0x7FFF EQ ISZERO PUSH2 0x8C5 JUMPI PUSH14 0xFFFFFFFFFFFFFFFFFFFFFFFFFFFF PUSH1 0x80 SHL DUP5 AND ISZERO PUSH2 0x8B4 JUMPI POP PUSH2 0xFFFF PUSH1 0xEF SHL SWAP2 POP PUSH2 0xAEF SWAP1 POP JUMP JUMPDEST POP POP POP DUP1 DUP3 XOR PUSH1 0x1 PUSH1 0xFF SHL AND PUSH2 0xAEF JUMP JUMPDEST PUSH1 0x1 PUSH1 0x80 SHL PUSH1 0x1 PUSH1 0xFF SHL SUB DUP5 AND PUSH2 0x90F JUMPI PUSH1 0x1 PUSH1 0x80 SHL PUSH1 0x1 PUSH1 0xFF SHL SUB DUP6 AND PUSH2 0x8F7 JUMPI POP PUSH2 0xFFFF PUSH1 0xEF SHL SWAP2 POP PUSH2 0xAEF SWAP1 POP JUMP JUMPDEST POP POP POP DUP1 DUP3 XOR PUSH1 0x1 PUSH1 0xFF SHL AND PUSH2 0x7FFF PUSH1 0xF0 SHL OR PUSH2 0xAEF JUMP JUMPDEST PUSH1 0x1 PUSH1 0x1 PUSH1 0x70 SHL SUB PUSH1 0x80 DUP6 SWAP1 SHR AND DUP2 PUSH2 0x92B JUMPI PUSH1 0x1 SWAP2 POP PUSH2 0x932 JUMP JUMPDEST PUSH1 0x1 PUSH1 0x70 SHL OR JUMPDEST PUSH1 0x1 PUSH1 0x1 PUSH1 0x70 SHL SUB PUSH1 0x80 DUP8 SWAP1 SHR AND DUP4 PUSH2 0x971 JUMPI DUP1 ISZERO PUSH2 0x96C JUMPI PUSH1 0x0 PUSH2 0x956 DUP3 PUSH2 0x26C4 JUMP JUMPDEST PUSH1 0x1 SWAP6 POP PUSH1 0xE2 SUB SWAP4 DUP5 ADD PUSH1 0x71 NOT ADD SWAP4 SWAP2 SWAP1 SWAP2 SHL SWAP1 POP JUMPDEST PUSH2 0x97B JUMP JUMPDEST PUSH1 0x1 PUSH1 0x70 SHL OR PUSH1 0x72 SHL JUMPDEST DUP2 DUP2 DUP2 PUSH2 0x98A JUMPI PUSH2 0x98A PUSH2 0x292F JUMP JUMPDEST DIV SWAP1 POP DUP1 PUSH2 0x9B7 JUMPI PUSH1 0x1 PUSH1 0xFF SHL DUP8 DUP8 XOR AND PUSH2 0x9A6 JUMPI PUSH1 0x0 PUSH2 0x9AC JUMP JUMPDEST PUSH1 0x1 PUSH1 0xFF SHL JUMPDEST SWAP5 POP POP POP POP POP PUSH2 0xAEF JUMP JUMPDEST PUSH1 0x1 PUSH1 0x6C SHL DUP2 LT ISZERO PUSH2 0x9CB JUMPI PUSH2 0x9CB PUSH2 0x2945 JUMP JUMPDEST PUSH1 0x0 PUSH1 0x1 PUSH1 0x73 SHL DUP3 LT ISZERO PUSH2 0xA0A JUMPI PUSH1 0x1 PUSH1 0x72 SHL DUP3 LT ISZERO PUSH2 0x9FF JUMPI PUSH1 0x1 PUSH1 0x71 SHL DUP3 LT ISZERO PUSH2 0x9F8 JUMPI PUSH1 0x70 PUSH2 0xA02 JUMP JUMPDEST PUSH1 0x71 PUSH2 0xA02 JUMP JUMPDEST PUSH1 0x72 JUMPDEST PUSH1 0xFF AND PUSH2 0xA13 JUMP JUMPDEST PUSH2 0xA13 DUP3 PUSH2 0x26C4 JUMP JUMPDEST SWAP1 POP DUP4 PUSH2 0x4071 ADD DUP2 DUP7 ADD GT ISZERO PUSH2 0xA31 JUMPI PUSH2 0x7FFF SWAP5 POP PUSH1 0x0 SWAP2 POP PUSH2 0xAC4 JUMP JUMPDEST DUP4 DUP2 DUP7 ADD PUSH2 0x3FFC ADD LT ISZERO PUSH2 0xA4C JUMPI PUSH1 0x0 SWAP5 POP PUSH1 0x0 SWAP2 POP PUSH2 0xAC4 JUMP JUMPDEST DUP4 DUP2 DUP7 ADD PUSH2 0x3F8C ADD LT ISZERO PUSH2 0xA99 JUMPI DUP4 DUP6 PUSH2 0x3FFC ADD GT ISZERO PUSH2 0xA77 JUMPI DUP4 DUP6 PUSH2 0x3FFC ADD SUB DUP3 SWAP1 SHL SWAP2 POP PUSH2 0xA90 JUMP JUMPDEST DUP4 DUP6 PUSH2 0x3FFC ADD LT ISZERO PUSH2 0xA90 JUMPI PUSH2 0x3FFC DUP6 DUP6 SUB SUB DUP3 SWAP1 SHR SWAP2 POP JUMPDEST PUSH1 0x0 SWAP5 POP PUSH2 0xAC4 JUMP JUMPDEST PUSH1 0x70 DUP2 GT ISZERO PUSH2 0xAAC JUMPI PUSH1 0x70 DUP2 SUB DUP3 SWAP1 SHR SWAP2 POP JUMPDEST PUSH1 0x1 PUSH1 0x1 PUSH1 0x70 SHL SUB DUP3 AND SWAP2 POP DUP4 DUP2 DUP7 ADD PUSH2 0x3F8D ADD SUB SWAP5 POP JUMPDEST DUP2 PUSH1 0x70 DUP7 SWAP1 SHL DUP9 DUP11 XOR PUSH1 0x1 PUSH1 0x7F SHL PUSH1 0x80 SHL AND PUSH1 0x80 SHR PUSH1 0x1 PUSH1 0x1 PUSH1 0x80 SHL SUB AND OR OR PUSH1 0x80 SHL SWAP6 POP POP POP POP POP POP JUMPDEST SWAP3 SWAP2 POP POP JUMP JUMPDEST PUSH1 0x0 PUSH2 0x7FFF PUSH1 0xF0 DUP5 DUP2 SHR DUP3 AND SWAP2 SWAP1 DUP5 SWAP1 SHR DUP2 AND SWAP1 DUP3 EQ ISZERO PUSH2 0xB53 JUMPI DUP1 PUSH2 0x7FFF EQ ISZERO PUSH2 0xB49 JUMPI PUSH1 0x1 PUSH1 0x1 PUSH1 0x80 SHL SUB NOT DUP6 DUP2 AND SWAP1 DUP6 AND EQ ISZERO PUSH2 0xB39 JUMPI DUP5 SWAP3 POP POP POP PUSH2 0xAEF JUMP JUMPDEST POP PUSH2 0xFFFF PUSH1 0xEF SHL SWAP2 POP PUSH2 0xAEF SWAP1 POP JUMP JUMPDEST DUP5 SWAP3 POP POP POP PUSH2 0xAEF JUMP JUMPDEST DUP1 PUSH2 0x7FFF EQ ISZERO PUSH2 0xB67 JUMPI DUP4 SWAP3 POP POP POP PUSH2 0xAEF JUMP JUMPDEST PUSH1 0x1 PUSH1 0x7F SHL PUSH1 0x80 DUP7 SWAP1 SHR SWAP1 DUP2 LT ISZERO SWAP1 PUSH1 0x1 PUSH1 0x1 PUSH1 0x70 SHL SUB AND DUP4 PUSH2 0xB8D JUMPI PUSH1 0x1 SWAP4 POP PUSH2 0xB94 JUMP JUMPDEST PUSH1 0x1 PUSH1 0x70 SHL OR JUMPDEST PUSH1 0x1 PUSH1 0x7F SHL PUSH1 0x80 DUP8 SWAP1 SHR SWAP1 DUP2 LT ISZERO SWAP1 PUSH1 0x1 PUSH1 0x1 PUSH1 0x70 SHL SUB AND DUP5 PUSH2 0xBBA JUMPI PUSH1 0x1 SWAP5 POP PUSH2 0xBC1 JUMP JUMPDEST PUSH1 0x1 PUSH1 0x70 SHL OR JUMPDEST DUP3 PUSH2 0xBF1 JUMPI PUSH1 0x1 PUSH1 0x1 PUSH1 0x80 SHL SUB NOT DUP9 AND PUSH1 0x1 PUSH1 0xFF SHL EQ PUSH2 0xBE1 JUMPI DUP8 PUSH2 0xBE4 JUMP JUMPDEST PUSH1 0x0 JUMPDEST SWAP7 POP POP POP POP POP POP POP PUSH2 0xAEF JUMP JUMPDEST DUP1 PUSH2 0xC11 JUMPI PUSH1 0x1 PUSH1 0x1 PUSH1 0x80 SHL SUB NOT DUP10 AND PUSH1 0x1 PUSH1 0xFF SHL EQ PUSH2 0xBE1 JUMPI DUP9 PUSH2 0xBE4 JUMP JUMPDEST DUP5 DUP7 SUB DUP5 ISZERO ISZERO DUP4 ISZERO ISZERO EQ ISZERO PUSH2 0xD1C JUMPI PUSH1 0x70 DUP2 SGT ISZERO PUSH2 0xC38 JUMPI DUP10 SWAP8 POP POP POP POP POP POP POP POP PUSH2 0xAEF JUMP JUMPDEST PUSH1 0x0 DUP2 SGT ISZERO PUSH2 0xC4A JUMPI SWAP1 DUP2 SHR SWAP1 PUSH2 0xC79 JUMP JUMPDEST PUSH1 0x6F NOT DUP2 SLT ISZERO PUSH2 0xC63 JUMPI DUP9 SWAP8 POP POP POP POP POP POP POP POP PUSH2 0xAEF JUMP JUMPDEST PUSH1 0x0 DUP2 SLT ISZERO PUSH2 0xC79 JUMPI DUP1 PUSH1 0x0 SUB DUP5 SWAP1 SHR SWAP4 POP DUP6 SWAP7 POP JUMPDEST SWAP3 DUP2 ADD SWAP3 PUSH1 0x1 PUSH1 0x71 SHL DUP5 LT PUSH2 0xC94 JUMPI PUSH1 0x1 SWAP7 DUP8 ADD SWAP7 SWAP4 SWAP1 SWAP4 SHR SWAP3 JUMPDEST DUP7 PUSH2 0x7FFF EQ ISZERO PUSH2 0xCC6 JUMPI DUP5 PUSH2 0xCAE JUMPI PUSH2 0x7FFF PUSH1 0xF0 SHL PUSH2 0xCB8 JUMP JUMPDEST PUSH1 0x1 PUSH1 0x1 PUSH1 0xF0 SHL SUB NOT JUMPDEST SWAP8 POP POP POP POP POP POP POP POP PUSH2 0xAEF JUMP JUMPDEST PUSH1 0x1 PUSH1 0x70 SHL DUP5 LT ISZERO PUSH2 0xCDB JUMPI PUSH1 0x0 SWAP7 POP PUSH2 0xCE8 JUMP JUMPDEST PUSH1 0x1 PUSH1 0x1 PUSH1 0x70 SHL SUB DUP5 AND SWAP4 POP JUMPDEST DUP4 PUSH1 0x70 DUP9 SWAP1 SHL DUP7 PUSH2 0xCFA JUMPI PUSH1 0x0 PUSH2 0xD00 JUMP JUMPDEST PUSH1 0x1 PUSH1 0x7F SHL JUMPDEST PUSH1 0x1 PUSH1 0x1 PUSH1 0x80 SHL SUB AND OR OR PUSH1 0x80 SHL SWAP8 POP POP POP POP POP POP POP POP PUSH2 0xAEF JUMP JUMPDEST PUSH1 0x0 DUP2 SGT ISZERO PUSH2 0xD37 JUMPI PUSH1 0x1 DUP5 SWAP1 SHL SWAP4 POP PUSH1 0x1 DUP8 SUB SWAP7 POP PUSH2 0xD4E JUMP JUMPDEST PUSH1 0x0 DUP2 SLT ISZERO PUSH2 0xD4E JUMPI PUSH1 0x1 DUP3 SWAP1 SHL SWAP2 POP PUSH1 0x1 DUP7 SUB SWAP7 POP JUMPDEST PUSH1 0x70 DUP2 SGT ISZERO PUSH2 0xD60 JUMPI PUSH1 0x1 SWAP2 POP PUSH2 0xDAD JUMP JUMPDEST PUSH1 0x1 DUP2 SGT ISZERO PUSH2 0xD7D JUMPI PUSH1 0x1 DUP2 SUB PUSH1 0x1 DUP4 SUB SWAP1 SHR PUSH1 0x1 ADD SWAP2 POP PUSH2 0xDAD JUMP JUMPDEST PUSH1 0x6F NOT DUP2 SLT ISZERO PUSH2 0xD90 JUMPI PUSH1 0x1 SWAP4 POP PUSH2 0xDAD JUMP JUMPDEST PUSH1 0x0 NOT DUP2 SLT ISZERO PUSH2 0xDAD JUMPI PUSH1 0x1 DUP2 PUSH1 0x0 SUB SUB PUSH1 0x1 DUP6 SUB SWAP1 SHR PUSH1 0x1 ADD SWAP4 POP JUMPDEST DUP2 DUP5 LT PUSH2 0xDBE JUMPI DUP2 DUP5 SUB SWAP4 POP PUSH2 0xDC7 JUMP JUMPDEST DUP4 DUP3 SUB SWAP4 POP DUP3 SWAP5 POP JUMPDEST DUP4 PUSH2 0xDDD JUMPI POP PUSH1 0x0 SWAP7 POP PUSH2 0xAEF SWAP6 POP POP POP POP POP POP JUMP JUMPDEST PUSH1 0x0 PUSH2 0xDE8 DUP6 PUSH2 0x26C4 JUMP JUMPDEST SWAP1 POP DUP1 PUSH1 0x71 EQ ISZERO PUSH2 0xE0E JUMPI PUSH1 0x1 DUP6 SWAP1 SHR PUSH1 0x1 PUSH1 0x1 PUSH1 0x70 SHL SUB AND SWAP5 POP PUSH1 0x1 DUP9 ADD SWAP8 POP PUSH2 0xE5D JUMP JUMPDEST PUSH1 0x70 DUP2 LT ISZERO PUSH2 0xE50 JUMPI PUSH1 0x70 DUP2 SWAP1 SUB DUP1 DUP10 GT ISZERO PUSH2 0xE3D JUMPI DUP1 DUP7 SWAP1 SHL PUSH1 0x1 PUSH1 0x1 PUSH1 0x70 SHL SUB AND SWAP6 POP DUP1 DUP10 SUB SWAP9 POP PUSH2 0xE4A JUMP JUMPDEST PUSH1 0x0 SWAP9 PUSH1 0x0 NOT ADD SWAP6 SWAP1 SWAP6 SHL SWAP5 JUMPDEST POP PUSH2 0xE5D JUMP JUMPDEST PUSH1 0x1 PUSH1 0x1 PUSH1 0x70 SHL SUB DUP6 AND SWAP5 POP JUMPDEST DUP8 PUSH2 0x7FFF EQ ISZERO PUSH2 0xE90 JUMPI DUP6 PUSH2 0xE77 JUMPI PUSH2 0x7FFF PUSH1 0xF0 SHL PUSH2 0xE81 JUMP JUMPDEST PUSH1 0x1 PUSH1 0x1 PUSH1 0xF0 SHL SUB NOT JUMPDEST SWAP9 POP POP POP POP POP POP POP POP POP PUSH2 0xAEF JUMP JUMPDEST DUP5 PUSH1 0x70 DUP10 SWAP1 SHL DUP8 PUSH2 0xEA2 JUMPI PUSH1 0x0 PUSH2 0xEA8 JUMP JUMPDEST PUSH1 0x1 PUSH1 0x7F SHL JUMPDEST PUSH1 0x1 PUSH1 0x1 PUSH1 0x80 SHL SUB AND OR OR PUSH1 0x80 SHL SWAP9 POP POP POP POP POP POP POP POP POP PUSH2 0xAEF JUMP JUMPDEST PUSH1 0x0 PUSH1 0x1 PUSH1 0x7F SHL PUSH1 0x80 DUP4 SWAP1 SHR GT ISZERO PUSH2 0xEE3 JUMPI POP PUSH2 0xFFFF PUSH1 0xEF SHL SWAP2 SWAP1 POP JUMP JUMPDEST PUSH2 0x3FFF PUSH1 0xF0 SHL PUSH1 0x1 PUSH1 0x1 PUSH1 0x80 SHL SUB NOT DUP4 AND EQ ISZERO PUSH2 0xF02 JUMPI POP PUSH1 0x0 SWAP2 SWAP1 POP JUMP JUMPDEST PUSH2 0x7FFF PUSH1 0xF0 DUP4 SWAP1 SHR DUP2 AND SWAP1 DUP2 EQ ISZERO PUSH2 0xF1B JUMPI POP SWAP1 SWAP2 SWAP1 POP JUMP JUMPDEST PUSH1 0x1 PUSH1 0x1 PUSH1 0x70 SHL SUB PUSH1 0x80 DUP5 SWAP1 SHR AND DUP2 PUSH2 0xF37 JUMPI PUSH1 0x1 SWAP2 POP PUSH2 0xF3E JUMP JUMPDEST PUSH1 0x1 PUSH1 0x70 SHL OR JUMPDEST DUP1 PUSH2 0xF54 JUMPI POP PUSH1 0x1 PUSH1 0x1 PUSH1 0xF0 SHL SUB NOT SWAP4 SWAP3 POP POP POP JUMP JUMPDEST PUSH1 0x0 PUSH2 0x406F DUP2 PUSH2 0x3FFF DUP6 LT PUSH2 0xF7A JUMPI POP PUSH1 0xF SWAP3 SWAP1 SWAP3 SHL SWAP2 PUSH1 0x0 SWAP2 POP PUSH2 0x3FFE NOT DUP5 ADD PUSH2 0xFB9 JUMP JUMPDEST PUSH1 0x1 SWAP3 POP PUSH1 0x1 PUSH1 0x70 SHL DUP5 LT PUSH2 0xF9C JUMPI DUP5 PUSH2 0x3FFE SUB SWAP1 POP PUSH1 0xF DUP5 SWAP1 SHL SWAP4 POP PUSH2 0xFB9 JUMP JUMPDEST PUSH1 0x0 PUSH2 0xFA7 DUP6 PUSH2 0x26C4 JUMP JUMPDEST PUSH1 0x7F DUP2 SWAP1 SUB SWAP6 SWAP1 SWAP6 SHL SWAP5 PUSH2 0x406D SUB SWAP2 POP POP JUMPDEST DUP4 PUSH1 0x1 PUSH1 0x7F SHL EQ ISZERO PUSH2 0xFF0 JUMPI DUP3 ISZERO PUSH2 0xFCF JUMPI PUSH1 0x1 ADD JUMPDEST PUSH1 0x0 PUSH2 0xFDA DUP3 PUSH2 0x26C4 JUMP JUMPDEST PUSH1 0x70 SUB SWAP1 POP DUP1 DUP3 SWAP1 SHL SWAP2 POP DUP1 DUP4 SUB SWAP3 POP POP PUSH2 0x103E JUMP JUMPDEST PUSH1 0x0 DUP4 PUSH2 0xFFE JUMPI PUSH1 0x0 PUSH2 0x1001 JUMP JUMPDEST PUSH1 0x1 JUMPDEST PUSH1 0xFF AND SWAP1 POP JUMPDEST PUSH1 0x1 PUSH1 0x70 SHL DUP3 LT ISZERO PUSH2 0x103C JUMPI SWAP4 DUP1 MUL PUSH1 0xFF DUP2 SWAP1 SHR PUSH1 0x7F DUP2 ADD SWAP2 SWAP1 SWAP2 SHR SWAP5 PUSH1 0x0 NOT SWAP4 SWAP1 SWAP4 ADD SWAP3 PUSH1 0x1 SWAP3 SWAP1 SWAP3 SHL SWAP1 DUP3 XOR ADD SWAP1 PUSH2 0x1007 JUMP JUMPDEST POP JUMPDEST DUP1 PUSH1 0x1 PUSH1 0x1 PUSH1 0x70 SHL SUB AND PUSH1 0x70 DUP4 SWAP1 SHL DUP5 PUSH2 0x1059 JUMPI PUSH1 0x0 PUSH2 0x105F JUMP JUMPDEST PUSH1 0x1 PUSH1 0x7F SHL JUMPDEST PUSH1 0x1 PUSH1 0x1 PUSH1 0x80 SHL SUB AND OR OR PUSH1 0x80 SHL SWAP8 SWAP7 POP POP POP POP POP POP POP JUMP JUMPDEST PUSH1 0x0 PUSH2 0x7FFF PUSH1 0xF0 DUP5 DUP2 SHR DUP3 AND SWAP2 SWAP1 DUP5 SWAP1 SHR DUP2 AND SWAP1 DUP3 EQ ISZERO PUSH2 0x1107 JUMPI DUP1 PUSH2 0x7FFF EQ ISZERO PUSH2 0x10E6 JUMPI PUSH1 0x1 PUSH1 0x1 PUSH1 0x80 SHL SUB NOT DUP6 DUP2 AND SWAP1 DUP6 AND EQ ISZERO PUSH2 0x10C3 JUMPI POP POP POP PUSH1 0x1 PUSH1 0xFF SHL DUP2 AND DUP3 XOR PUSH2 0xAEF JUMP JUMPDEST PUSH1 0x1 PUSH1 0xFF SHL PUSH1 0x1 PUSH1 0x1 PUSH1 0x80 SHL SUB NOT DUP7 DUP7 XOR AND EQ ISZERO PUSH2 0xB39 JUMPI POP POP POP DUP2 DUP2 OR PUSH2 0xAEF JUMP JUMPDEST PUSH1 0x1 PUSH1 0x80 SHL PUSH1 0x1 PUSH1 0xFF SHL SUB DUP5 AND PUSH2 0x870 JUMPI POP PUSH2 0xFFFF PUSH1 0xEF SHL SWAP2 POP PUSH2 0xAEF SWAP1 POP JUMP JUMPDEST DUP1 PUSH2 0x7FFF EQ ISZERO PUSH2 0x1143 JUMPI PUSH1 0x1 PUSH1 0x80 SHL PUSH1 0x1 PUSH1 0xFF SHL SUB DUP6 AND PUSH2 0x1132 JUMPI POP PUSH2 0xFFFF PUSH1 0xEF SHL SWAP2 POP PUSH2 0xAEF SWAP1 POP JUMP JUMPDEST POP POP POP PUSH1 0x1 PUSH1 0xFF SHL DUP3 AND DUP2 XOR PUSH2 0xAEF JUMP JUMPDEST PUSH1 0x1 PUSH1 0x1 PUSH1 0x70 SHL SUB PUSH1 0x80 DUP7 SWAP1 SHR AND DUP3 PUSH2 0x115F JUMPI PUSH1 0x1 SWAP3 POP PUSH2 0x1166 JUMP JUMPDEST PUSH1 0x1 PUSH1 0x70 SHL OR JUMPDEST PUSH1 0x1 PUSH1 0x1 PUSH1 0x70 SHL SUB PUSH1 0x80 DUP7 SWAP1 SHR AND DUP3 PUSH2 0x1182 JUMPI PUSH1 0x1 SWAP3 POP PUSH2 0x1189 JUMP JUMPDEST PUSH1 0x1 PUSH1 0x70 SHL OR JUMPDEST SWAP1 DUP2 MUL SWAP1 DUP2 PUSH2 0x11A6 JUMPI PUSH1 0x1 PUSH1 0xFF SHL DUP8 DUP8 XOR AND PUSH2 0x9A6 JUMPI PUSH1 0x0 PUSH2 0x9AC JUMP JUMPDEST SWAP3 DUP3 ADD SWAP3 PUSH1 0x0 PUSH1 0x1 PUSH1 0xE1 SHL DUP4 LT ISZERO PUSH2 0x11D9 JUMPI PUSH1 0x1 PUSH1 0xE0 SHL DUP4 LT ISZERO PUSH2 0x11D2 JUMPI PUSH2 0x11CD DUP4 PUSH2 0x26C4 JUMP JUMPDEST PUSH2 0x11DC JUMP JUMPDEST PUSH1 0xE0 PUSH2 0x11DC JUMP JUMPDEST PUSH1 0xE1 JUMPDEST SWAP1 POP PUSH2 0x4070 DUP2 DUP7 ADD LT ISZERO PUSH2 0x11F7 JUMPI PUSH1 0x0 SWAP5 POP PUSH1 0x0 SWAP3 POP PUSH2 0x1294 JUMP JUMPDEST PUSH2 0x40E0 DUP2 DUP7 ADD LT ISZERO PUSH2 0x123A JUMPI PUSH2 0x4070 DUP6 LT ISZERO PUSH2 0x121C JUMPI DUP5 PUSH2 0x4070 SUB DUP4 SWAP1 SHR SWAP3 POP PUSH2 0x1231 JUMP JUMPDEST PUSH2 0x4070 DUP6 GT ISZERO PUSH2 0x1231 JUMPI PUSH2 0x4070 DUP6 SUB DUP4 SWAP1 SHL SWAP3 POP JUMPDEST PUSH1 0x0 SWAP5 POP PUSH2 0x1294 JUMP JUMPDEST PUSH2 0xC0DD DUP2 DUP7 ADD GT ISZERO PUSH2 0x1254 JUMPI PUSH2 0x7FFF SWAP5 POP PUSH1 0x0 SWAP3 POP PUSH2 0x1294 JUMP JUMPDEST PUSH1 0x70 DUP2 GT ISZERO PUSH2 0x126B JUMPI PUSH1 0x70 DUP2 SUB DUP4 SWAP1 SHR SWAP3 POP PUSH2 0x127E JUMP JUMPDEST PUSH1 0x70 DUP2 LT ISZERO PUSH2 0x127E JUMPI DUP1 PUSH1 0x70 SUB DUP4 SWAP1 SHL SWAP3 POP JUMPDEST PUSH1 0x1 PUSH1 0x1 PUSH1 0x70 SHL SUB DUP4 AND SWAP3 POP PUSH2 0x40DF DUP2 DUP7 ADD SUB SWAP5 POP JUMPDEST DUP3 PUSH1 0x70 DUP7 SWAP1 SHL DUP9 DUP11 XOR PUSH1 0x1 PUSH1 0x7F SHL PUSH1 0x80 SHL AND PUSH1 0x80 SHR PUSH1 0x1 PUSH1 0x1 PUSH1 0x80 SHL SUB AND OR OR PUSH1 0x80 SHL SWAP6 POP POP POP POP POP POP PUSH2 0xAEF JUMP JUMPDEST PUSH1 0x0 PUSH1 0x1 PUSH1 0x7F SHL PUSH1 0x80 DUP4 SWAP1 SHR SWAP1 DUP2 GT SWAP1 PUSH2 0x7FFF PUSH1 0xF0 DUP6 SWAP1 SHR DUP2 AND SWAP2 PUSH1 0x1 PUSH1 0x1 PUSH1 0x70 SHL SUB AND SWAP1 DUP3 EQ DUP1 ISZERO PUSH2 0x12F5 JUMPI POP DUP1 ISZERO ISZERO JUMPDEST ISZERO PUSH2 0x1309 JUMPI POP PUSH2 0xFFFF PUSH1 0xEF SHL SWAP5 SWAP4 POP POP POP POP JUMP JUMPDEST PUSH2 0x400D DUP3 GT ISZERO PUSH2 0x132F JUMPI DUP3 PUSH2 0x1323 JUMPI PUSH2 0x7FFF PUSH1 0xF0 SHL PUSH2 0x1326 JUMP JUMPDEST PUSH1 0x0 JUMPDEST SWAP6 SWAP5 POP POP POP POP POP JUMP JUMPDEST PUSH2 0x3F7F DUP3 LT ISZERO PUSH2 0x1348 JUMPI POP PUSH2 0x3FFF PUSH1 0xF0 SHL SWAP5 SWAP4 POP POP POP POP JUMP JUMPDEST DUP2 PUSH2 0x1356 JUMPI PUSH1 0x1 SWAP2 POP PUSH2 0x135D JUMP JUMPDEST PUSH1 0x1 PUSH1 0x70 SHL OR JUMPDEST PUSH2 0x3FEF DUP3 GT ISZERO PUSH2 0x1373 JUMPI PUSH2 0x3FEE NOT DUP3 ADD SHL PUSH2 0x1385 JUMP JUMPDEST PUSH2 0x3FEF DUP3 LT ISZERO PUSH2 0x1385 JUMPI PUSH2 0x3FEF DUP3 SWAP1 SUB SHR JUMPDEST DUP3 DUP1 ISZERO PUSH2 0x1396 JUMPI POP PUSH2 0x2037 PUSH1 0x81 SHL DUP2 GT JUMPDEST ISZERO PUSH2 0x13A6 JUMPI POP PUSH1 0x0 SWAP5 SWAP4 POP POP POP POP JUMP JUMPDEST DUP3 ISZERO DUP1 ISZERO PUSH2 0x13C5 JUMPI POP PUSH18 0x3FFFFFFFFFFFFFFFFFFFFFFFFFFFFFFFFFFF DUP2 GT JUMPDEST ISZERO PUSH2 0x13D9 JUMPI POP PUSH2 0x7FFF PUSH1 0xF0 SHL SWAP5 SWAP4 POP POP POP POP JUMP JUMPDEST PUSH1 0x1 PUSH1 0x1 PUSH1 0x80 SHL SUB DUP2 AND SWAP1 PUSH1 0x80 SHR DUP4 DUP1 ISZERO PUSH2 0x13F3 JUMPI POP DUP2 ISZERO ISZERO JUMPDEST ISZERO PUSH2 0x13FF JUMPI SWAP1 NOT SWAP1 PUSH1 0x1 ADD JUMPDEST PUSH1 0x1 PUSH1 0x7F SHL DUP3 DUP2 AND ISZERO PUSH2 0x1423 JUMPI PUSH17 0x16A09E667F3BCC908B2FB1366EA957D3E MUL PUSH1 0x80 SHR JUMPDEST PUSH1 0x1 PUSH1 0x7E SHL DUP4 AND ISZERO PUSH2 0x1446 JUMPI PUSH17 0x1306FE0A31B7152DE8D5A46305C85EDEC MUL PUSH1 0x80 SHR JUMPDEST PUSH1 0x1 PUSH1 0x7D SHL DUP4 AND ISZERO PUSH2 0x1469 JUMPI PUSH17 0x1172B83C7D517ADCDF7C8C50EB14A791F MUL PUSH1 0x80 SHR JUMPDEST PUSH1 0x1 PUSH1 0x7C SHL DUP4 AND ISZERO PUSH2 0x148C JUMPI PUSH17 0x10B5586CF9890F6298B92B71842A98363 MUL PUSH1 0x80 SHR JUMPDEST PUSH1 0x1 PUSH1 0x7B SHL DUP4 AND ISZERO PUSH2 0x14AF JUMPI PUSH17 0x1059B0D31585743AE7C548EB68CA417FD MUL PUSH1 0x80 SHR JUMPDEST PUSH1 0x1 PUSH1 0x7A SHL DUP4 AND ISZERO PUSH2 0x14D2 JUMPI PUSH17 0x102C9A3E778060EE6F7CACA4F7A29BDE8 MUL PUSH1 0x80 SHR JUMPDEST PUSH1 0x1 PUSH1 0x79 SHL DUP4 AND ISZERO PUSH2 0x14F5 JUMPI PUSH17 0x10163DA9FB33356D84A66AE336DCDFA3F MUL PUSH1 0x80 SHR JUMPDEST PUSH1 0x1 PUSH1 0x78 SHL DUP4 AND ISZERO PUSH2 0x1518 JUMPI PUSH17 0x100B1AFA5ABCBED6129AB13EC11DC9543 MUL PUSH1 0x80 SHR JUMPDEST PUSH1 0x1 PUSH1 0x77 SHL DUP4 AND ISZERO PUSH2 0x153B JUMPI PUSH17 0x10058C86DA1C09EA1FF19D294CF2F679B MUL PUSH1 0x80 SHR JUMPDEST PUSH1 0x1 PUSH1 0x76 SHL DUP4 AND ISZERO PUSH2 0x155E JUMPI PUSH17 0x1002C605E2E8CEC506D21BFC89A23A00F MUL PUSH1 0x80 SHR JUMPDEST PUSH1 0x1 PUSH1 0x75 SHL DUP4 AND ISZERO PUSH2 0x1581 JUMPI PUSH17 0x100162F3904051FA128BCA9C55C31E5DF MUL PUSH1 0x80 SHR JUMPDEST PUSH1 0x1 PUSH1 0x74 SHL DUP4 AND ISZERO PUSH2 0x15A4 JUMPI PUSH17 0x1000B175EFFDC76BA38E31671CA939725 MUL PUSH1 0x80 SHR JUMPDEST PUSH1 0x1 PUSH1 0x73 SHL DUP4 AND ISZERO PUSH2 0x15C7 JUMPI PUSH17 0x100058BA01FB9F96D6CACD4B180917C3D MUL PUSH1 0x80 SHR JUMPDEST PUSH1 0x1 PUSH1 0x72 SHL DUP4 AND ISZERO PUSH2 0x15EA JUMPI PUSH17 0x10002C5CC37DA9491D0985C348C68E7B3 MUL PUSH1 0x80 SHR JUMPDEST PUSH1 0x1 PUSH1 0x71 SHL DUP4 AND ISZERO PUSH2 0x160D JUMPI PUSH17 0x1000162E525EE054754457D5995292026 MUL PUSH1 0x80 SHR JUMPDEST PUSH1 0x1 PUSH1 0x70 SHL DUP4 AND ISZERO PUSH2 0x1630 JUMPI PUSH17 0x10000B17255775C040618BF4A4ADE83FC MUL PUSH1 0x80 SHR JUMPDEST PUSH1 0x1 PUSH1 0x6F SHL DUP4 AND ISZERO PUSH2 0x1653 JUMPI PUSH17 0x1000058B91B5BC9AE2EED81E9B7D4CFAB MUL PUSH1 0x80 SHR JUMPDEST PUSH1 0x1 PUSH1 0x6E SHL DUP4 AND ISZERO PUSH2 0x1676 JUMPI PUSH17 0x100002C5C89D5EC6CA4D7C8ACC017B7C9 MUL PUSH1 0x80 SHR JUMPDEST PUSH1 0x1 PUSH1 0x6D SHL DUP4 AND ISZERO PUSH2 0x1699 JUMPI PUSH17 0x10000162E43F4F831060E02D839A9D16D MUL PUSH1 0x80 SHR JUMPDEST PUSH1 0x1 PUSH1 0x6C SHL DUP4 AND ISZERO PUSH2 0x16BC JUMPI PUSH17 0x100000B1721BCFC99D9F890EA06911763 MUL PUSH1 0x80 SHR JUMPDEST PUSH1 0x1 PUSH1 0x6B SHL DUP4 AND ISZERO PUSH2 0x16DF JUMPI PUSH17 0x10000058B90CF1E6D97F9CA14DBCC1628 MUL PUSH1 0x80 SHR JUMPDEST PUSH1 0x1 PUSH1 0x6A SHL DUP4 AND ISZERO PUSH2 0x1702 JUMPI PUSH17 0x1000002C5C863B73F016468F6BAC5CA2B MUL PUSH1 0x80 SHR JUMPDEST PUSH1 0x1 PUSH1 0x69 SHL DUP4 AND ISZERO PUSH2 0x1725 JUMPI PUSH17 0x100000162E430E5A18F6119E3C02282A5 MUL PUSH1 0x80 SHR JUMPDEST PUSH1 0x1 PUSH1 0x68 SHL DUP4 AND ISZERO PUSH2 0x1748 JUMPI PUSH17 0x1000000B1721835514B86E6D96EFD1BFE MUL PUSH1 0x80 SHR JUMPDEST PUSH1 0x1 PUSH1 0x67 SHL DUP4 AND ISZERO PUSH2 0x176B JUMPI PUSH17 0x100000058B90C0B48C6BE5DF846C5B2EF MUL PUSH1 0x80 SHR JUMPDEST PUSH1 0x1 PUSH1 0x66 SHL DUP4 AND ISZERO PUSH2 0x178E JUMPI PUSH17 0x10000002C5C8601CC6B9E94213C72737A MUL PUSH1 0x80 SHR JUMPDEST PUSH1 0x1 PUSH1 0x65 SHL DUP4 AND ISZERO PUSH2 0x17B1 JUMPI PUSH17 0x1000000162E42FFF037DF38AA2B219F06 MUL PUSH1 0x80 SHR JUMPDEST PUSH1 0x1 PUSH1 0x64 SHL DUP4 AND ISZERO PUSH2 0x17D4 JUMPI PUSH17 0x10000000B17217FBA9C739AA5819F44F9 MUL PUSH1 0x80 SHR JUMPDEST PUSH1 0x1 PUSH1 0x63 SHL DUP4 AND ISZERO PUSH2 0x17F7 JUMPI PUSH17 0x1000000058B90BFCDEE5ACD3C1CEDC823 MUL PUSH1 0x80 SHR JUMPDEST PUSH1 0x1 PUSH1 0x62 SHL DUP4 AND ISZERO PUSH2 0x181A JUMPI PUSH17 0x100000002C5C85FE31F35A6A30DA1BE50 MUL PUSH1 0x80 SHR JUMPDEST PUSH1 0x1 PUSH1 0x61 SHL DUP4 AND ISZERO PUSH2 0x183D JUMPI PUSH17 0x10000000162E42FF0999CE3541B9FFFCF MUL PUSH1 0x80 SHR JUMPDEST PUSH1 0x1 PUSH1 0x60 SHL DUP4 AND ISZERO PUSH2 0x1860 JUMPI PUSH17 0x100000000B17217F80F4EF5AADDA45554 MUL PUSH1 0x80 SHR JUMPDEST PUSH1 0x1 PUSH1 0x5F SHL DUP4 AND ISZERO PUSH2 0x1883 JUMPI PUSH17 0x10000000058B90BFBF8479BD5A81B51AD MUL PUSH1 0x80 SHR JUMPDEST PUSH1 0x1 PUSH1 0x5E SHL DUP4 AND ISZERO PUSH2 0x18A6 JUMPI PUSH17 0x1000000002C5C85FDF84BD62AE30A74CC MUL PUSH1 0x80 SHR JUMPDEST PUSH1 0x1 PUSH1 0x5D SHL DUP4 AND ISZERO PUSH2 0x18C9 JUMPI PUSH17 0x100000000162E42FEFB2FED257559BDAA MUL PUSH1 0x80 SHR JUMPDEST PUSH1 0x1 PUSH1 0x5C SHL DUP4 AND ISZERO PUSH2 0x18EC JUMPI PUSH17 0x1000000000B17217F7D5A7716BBA4A9AE MUL PUSH1 0x80 SHR JUMPDEST PUSH1 0x1 PUSH1 0x5B SHL DUP4 AND ISZERO PUSH2 0x190F JUMPI PUSH17 0x100000000058B90BFBE9DDBAC5E109CCE MUL PUSH1 0x80 SHR JUMPDEST PUSH1 0x1 PUSH1 0x5A SHL DUP4 AND ISZERO PUSH2 0x1932 JUMPI PUSH17 0x10000000002C5C85FDF4B15DE6F17EB0D MUL PUSH1 0x80 SHR JUMPDEST PUSH1 0x1 PUSH1 0x59 SHL DUP4 AND ISZERO PUSH2 0x1955 JUMPI PUSH17 0x1000000000162E42FEFA494F1478FDE05 MUL PUSH1 0x80 SHR JUMPDEST PUSH1 0x1 PUSH1 0x58 SHL DUP4 AND ISZERO PUSH2 0x1978 JUMPI PUSH17 0x10000000000B17217F7D20CF927C8E94C MUL PUSH1 0x80 SHR JUMPDEST PUSH1 0x1 PUSH1 0x57 SHL DUP4 AND ISZERO PUSH2 0x199B JUMPI PUSH17 0x1000000000058B90BFBE8F71CB4E4B33D MUL PUSH1 0x80 SHR JUMPDEST PUSH1 0x1 PUSH1 0x56 SHL DUP4 AND ISZERO PUSH2 0x19BE JUMPI PUSH17 0x100000000002C5C85FDF477B662B26945 MUL PUSH1 0x80 SHR JUMPDEST PUSH1 0x1 PUSH1 0x55 SHL DUP4 AND ISZERO PUSH2 0x19E1 JUMPI PUSH17 0x10000000000162E42FEFA3AE53369388C MUL PUSH1 0x80 SHR JUMPDEST PUSH1 0x1 PUSH1 0x54 SHL DUP4 AND ISZERO PUSH2 0x1A04 JUMPI PUSH17 0x100000000000B17217F7D1D351A389D40 MUL PUSH1 0x80 SHR JUMPDEST PUSH1 0x1 PUSH1 0x53 SHL DUP4 AND ISZERO PUSH2 0x1A27 JUMPI PUSH17 0x10000000000058B90BFBE8E8B2D3D4EDE MUL PUSH1 0x80 SHR JUMPDEST PUSH1 0x1 PUSH1 0x52 SHL DUP4 AND ISZERO PUSH2 0x1A4A JUMPI PUSH17 0x1000000000002C5C85FDF4741BEA6E77E MUL PUSH1 0x80 SHR JUMPDEST PUSH1 0x1 PUSH1 0x51 SHL DUP4 AND ISZERO PUSH2 0x1A6D JUMPI PUSH17 0x100000000000162E42FEFA39FE95583C2 MUL PUSH1 0x80 SHR JUMPDEST PUSH1 0x1 PUSH1 0x50 SHL DUP4 AND ISZERO PUSH2 0x1A90 JUMPI PUSH17 0x1000000000000B17217F7D1CFB72B45E1 MUL PUSH1 0x80 SHR JUMPDEST PUSH10 0x80000000000000000000 DUP4 AND ISZERO PUSH2 0x1AB9 JUMPI PUSH17 0x100000000000058B90BFBE8E7CC35C3F0 MUL PUSH1 0x80 SHR JUMPDEST PUSH10 0x40000000000000000000 DUP4 AND ISZERO PUSH2 0x1AE2 JUMPI PUSH17 0x10000000000002C5C85FDF473E242EA38 MUL PUSH1 0x80 SHR JUMPDEST PUSH10 0x20000000000000000000 DUP4 AND ISZERO PUSH2 0x1B0B JUMPI PUSH17 0x1000000000000162E42FEFA39F02B772C MUL PUSH1 0x80 SHR JUMPDEST PUSH10 0x10000000000000000000 DUP4 AND ISZERO PUSH2 0x1B34 JUMPI PUSH17 0x10000000000000B17217F7D1CF7D83C1A MUL PUSH1 0x80 SHR JUMPDEST PUSH10 0x8000000000000000000 DUP4 AND ISZERO PUSH2 0x1B5D JUMPI PUSH17 0x1000000000000058B90BFBE8E7BDCBE2E MUL PUSH1 0x80 SHR JUMPDEST PUSH10 0x4000000000000000000 DUP4 AND ISZERO PUSH2 0x1B86 JUMPI PUSH17 0x100000000000002C5C85FDF473DEA871F MUL PUSH1 0x80 SHR JUMPDEST PUSH10 0x2000000000000000000 DUP4 AND ISZERO PUSH2 0x1BAF JUMPI PUSH17 0x10000000000000162E42FEFA39EF44D91 MUL PUSH1 0x80 SHR JUMPDEST PUSH10 0x1000000000000000000 DUP4 AND ISZERO PUSH2 0x1BD8 JUMPI PUSH17 0x100000000000000B17217F7D1CF79E949 MUL PUSH1 0x80 SHR JUMPDEST PUSH9 0x800000000000000000 DUP4 AND ISZERO PUSH2 0x1C00 JUMPI PUSH17 0x10000000000000058B90BFBE8E7BCE544 MUL PUSH1 0x80 SHR JUMPDEST PUSH9 0x400000000000000000 DUP4 AND ISZERO PUSH2 0x1C28 JUMPI PUSH17 0x1000000000000002C5C85FDF473DE6ECA MUL PUSH1 0x80 SHR JUMPDEST PUSH9 0x200000000000000000 DUP4 AND ISZERO PUSH2 0x1C50 JUMPI PUSH17 0x100000000000000162E42FEFA39EF366F MUL PUSH1 0x80 SHR JUMPDEST PUSH9 0x100000000000000000 DUP4 AND ISZERO PUSH2 0x1C78 JUMPI PUSH17 0x1000000000000000B17217F7D1CF79AFA MUL PUSH1 0x80 SHR JUMPDEST PUSH9 0x80000000000000000 DUP4 AND ISZERO PUSH2 0x1CA0 JUMPI PUSH17 0x100000000000000058B90BFBE8E7BCD6D MUL PUSH1 0x80 SHR JUMPDEST PUSH9 0x40000000000000000 DUP4 AND ISZERO PUSH2 0x1CC8 JUMPI PUSH17 0x10000000000000002C5C85FDF473DE6B2 MUL PUSH1 0x80 SHR JUMPDEST PUSH9 0x20000000000000000 DUP4 AND ISZERO PUSH2 0x1CF0 JUMPI PUSH17 0x1000000000000000162E42FEFA39EF358 MUL PUSH1 0x80 SHR JUMPDEST PUSH1 0x1 PUSH1 0x40 SHL DUP4 AND ISZERO PUSH2 0x1D13 JUMPI PUSH17 0x10000000000000000B17217F7D1CF79AB MUL PUSH1 0x80 SHR JUMPDEST PUSH8 0x8000000000000000 DUP4 AND ISZERO PUSH2 0x1D3A JUMPI PUSH17 0x1000000000000000058B90BFBE8E7BCD5 MUL PUSH1 0x80 SHR JUMPDEST PUSH8 0x4000000000000000 DUP4 AND ISZERO PUSH2 0x1D61 JUMPI PUSH17 0x100000000000000002C5C85FDF473DE6A MUL PUSH1 0x80 SHR JUMPDEST PUSH8 0x2000000000000000 DUP4 AND ISZERO PUSH2 0x1D88 JUMPI PUSH17 0x10000000000000000162E42FEFA39EF34 MUL PUSH1 0x80 SHR JUMPDEST PUSH8 0x1000000000000000 DUP4 AND ISZERO PUSH2 0x1DAF JUMPI PUSH17 0x100000000000000000B17217F7D1CF799 MUL PUSH1 0x80 SHR JUMPDEST PUSH8 0x800000000000000 DUP4 AND ISZERO PUSH2 0x1DD6 JUMPI PUSH17 0x10000000000000000058B90BFBE8E7BCC MUL PUSH1 0x80 SHR JUMPDEST PUSH8 0x400000000000000 DUP4 AND ISZERO PUSH2 0x1DFD JUMPI PUSH17 0x1000000000000000002C5C85FDF473DE5 MUL PUSH1 0x80 SHR JUMPDEST PUSH8 0x200000000000000 DUP4 AND ISZERO PUSH2 0x1E24 JUMPI PUSH17 0x100000000000000000162E42FEFA39EF2 MUL PUSH1 0x80 SHR JUMPDEST PUSH8 0x100000000000000 DUP4 AND ISZERO PUSH2 0x1E4B JUMPI PUSH17 0x1000000000000000000B17217F7D1CF78 MUL PUSH1 0x80 SHR JUMPDEST PUSH7 0x80000000000000 DUP4 AND ISZERO PUSH2 0x1E71 JUMPI PUSH17 0x100000000000000000058B90BFBE8E7BB MUL PUSH1 0x80 SHR JUMPDEST PUSH7 0x40000000000000 DUP4 AND ISZERO PUSH2 0x1E97 JUMPI PUSH17 0x10000000000000000002C5C85FDF473DD MUL PUSH1 0x80 SHR JUMPDEST PUSH7 0x20000000000000 DUP4 AND ISZERO PUSH2 0x1EBD JUMPI PUSH17 0x1000000000000000000162E42FEFA39EE MUL PUSH1 0x80 SHR JUMPDEST PUSH7 0x10000000000000 DUP4 AND ISZERO PUSH2 0x1EE3 JUMPI PUSH17 0x10000000000000000000B17217F7D1CF6 MUL PUSH1 0x80 SHR JUMPDEST PUSH7 0x8000000000000 DUP4 AND ISZERO PUSH2 0x1F09 JUMPI PUSH17 0x1000000000000000000058B90BFBE8E7A MUL PUSH1 0x80 SHR JUMPDEST PUSH7 0x4000000000000 DUP4 AND ISZERO PUSH2 0x1F2F JUMPI PUSH17 0x100000000000000000002C5C85FDF473C MUL PUSH1 0x80 SHR JUMPDEST PUSH7 0x2000000000000 DUP4 AND ISZERO PUSH2 0x1F55 JUMPI PUSH17 0x10000000000000000000162E42FEFA39D MUL PUSH1 0x80 SHR JUMPDEST PUSH7 0x1000000000000 DUP4 AND ISZERO PUSH2 0x1F7B JUMPI PUSH17 0x100000000000000000000B17217F7D1CE MUL PUSH1 0x80 SHR JUMPDEST PUSH6 0x800000000000 DUP4 AND ISZERO PUSH2 0x1FA0 JUMPI PUSH17 0x10000000000000000000058B90BFBE8E6 MUL PUSH1 0x80 SHR JUMPDEST PUSH6 0x400000000000 DUP4 AND ISZERO PUSH2 0x1FC5 JUMPI PUSH17 0x1000000000000000000002C5C85FDF472 MUL PUSH1 0x80 SHR JUMPDEST PUSH6 0x200000000000 DUP4 AND ISZERO PUSH2 0x1FEA JUMPI PUSH17 0x100000000000000000000162E42FEFA38 MUL PUSH1 0x80 SHR JUMPDEST PUSH6 0x100000000000 DUP4 AND ISZERO PUSH2 0x200F JUMPI PUSH17 0x1000000000000000000000B17217F7D1B MUL PUSH1 0x80 SHR JUMPDEST PUSH6 0x80000000000 DUP4 AND ISZERO PUSH2 0x2034 JUMPI PUSH17 0x100000000000000000000058B90BFBE8D MUL PUSH1 0x80 SHR JUMPDEST PUSH6 0x40000000000 DUP4 AND ISZERO PUSH2 0x2059 JUMPI PUSH17 0x10000000000000000000002C5C85FDF46 MUL PUSH1 0x80 SHR JUMPDEST PUSH6 0x20000000000 DUP4 AND ISZERO PUSH2 0x207E JUMPI PUSH17 0x1000000000000000000000162E42FEFA2 MUL PUSH1 0x80 SHR JUMPDEST PUSH6 0x10000000000 DUP4 AND ISZERO PUSH2 0x20A3 JUMPI PUSH17 0x10000000000000000000000B17217F7D0 MUL PUSH1 0x80 SHR JUMPDEST PUSH5 0x8000000000 DUP4 AND ISZERO PUSH2 0x20C7 JUMPI PUSH17 0x1000000000000000000000058B90BFBE7 MUL PUSH1 0x80 SHR JUMPDEST PUSH5 0x4000000000 DUP4 AND ISZERO PUSH2 0x20EB JUMPI PUSH17 0x100000000000000000000002C5C85FDF3 MUL PUSH1 0x80 SHR JUMPDEST PUSH5 0x2000000000 DUP4 AND ISZERO PUSH2 0x210F JUMPI PUSH17 0x10000000000000000000000162E42FEF9 MUL PUSH1 0x80 SHR JUMPDEST PUSH5 0x1000000000 DUP4 AND ISZERO PUSH2 0x2133 JUMPI PUSH17 0x100000000000000000000000B17217F7C MUL PUSH1 0x80 SHR JUMPDEST PUSH5 0x800000000 DUP4 AND ISZERO PUSH2 0x2157 JUMPI PUSH17 0x10000000000000000000000058B90BFBD MUL PUSH1 0x80 SHR JUMPDEST PUSH5 0x400000000 DUP4 AND ISZERO PUSH2 0x217B JUMPI PUSH17 0x1000000000000000000000002C5C85FDE MUL PUSH1 0x80 SHR JUMPDEST PUSH5 0x200000000 DUP4 AND ISZERO PUSH2 0x219F JUMPI PUSH17 0x100000000000000000000000162E42FEE MUL PUSH1 0x80 SHR JUMPDEST PUSH5 0x100000000 DUP4 AND ISZERO PUSH2 0x21C3 JUMPI PUSH17 0x1000000000000000000000000B17217F6 MUL PUSH1 0x80 SHR JUMPDEST PUSH4 0x80000000 DUP4 AND ISZERO PUSH2 0x21E6 JUMPI PUSH17 0x100000000000000000000000058B90BFA MUL PUSH1 0x80 SHR JUMPDEST PUSH4 0x40000000 DUP4 AND ISZERO PUSH2 0x2209 JUMPI PUSH17 0x10000000000000000000000002C5C85FC MUL PUSH1 0x80 SHR JUMPDEST PUSH4 0x20000000 DUP4 AND ISZERO PUSH2 0x222C JUMPI PUSH17 0x1000000000000000000000000162E42FD MUL PUSH1 0x80 SHR JUMPDEST PUSH4 0x10000000 DUP4 AND ISZERO PUSH2 0x224F JUMPI PUSH17 0x10000000000000000000000000B17217E MUL PUSH1 0x80 SHR JUMPDEST PUSH4 0x8000000 DUP4 AND ISZERO PUSH2 0x2272 JUMPI PUSH17 0x1000000000000000000000000058B90BE MUL PUSH1 0x80 SHR JUMPDEST PUSH4 0x4000000 DUP4 AND ISZERO PUSH2 0x2295 JUMPI PUSH17 0x100000000000000000000000002C5C85E MUL PUSH1 0x80 SHR JUMPDEST PUSH4 0x2000000 DUP4 AND ISZERO PUSH2 0x22B8 JUMPI PUSH17 0x10000000000000000000000000162E42E MUL PUSH1 0x80 SHR JUMPDEST PUSH4 0x1000000 DUP4 AND ISZERO PUSH2 0x22DB JUMPI PUSH17 0x100000000000000000000000000B17216 MUL PUSH1 0x80 SHR JUMPDEST PUSH3 0x800000 DUP4 AND ISZERO PUSH2 0x22FD JUMPI PUSH17 0x10000000000000000000000000058B90A MUL PUSH1 0x80 SHR JUMPDEST PUSH3 0x400000 DUP4 AND ISZERO PUSH2 0x231F JUMPI PUSH17 0x1000000000000000000000000002C5C84 MUL PUSH1 0x80 SHR JUMPDEST PUSH3 0x200000 DUP4 AND ISZERO PUSH2 0x2341 JUMPI PUSH17 0x100000000000000000000000000162E41 MUL PUSH1 0x80 SHR JUMPDEST PUSH3 0x100000 DUP4 AND ISZERO PUSH2 0x2363 JUMPI PUSH17 0x1000000000000000000000000000B1720 MUL PUSH1 0x80 SHR JUMPDEST PUSH3 0x80000 DUP4 AND ISZERO PUSH2 0x2385 JUMPI PUSH17 0x100000000000000000000000000058B8F MUL PUSH1 0x80 SHR JUMPDEST PUSH3 0x40000 DUP4 AND ISZERO PUSH2 0x23A7 JUMPI PUSH17 0x10000000000000000000000000002C5C7 MUL PUSH1 0x80 SHR JUMPDEST PUSH3 0x20000 DUP4 AND ISZERO PUSH2 0x23C9 JUMPI PUSH17 0x1000000000000000000000000000162E3 MUL PUSH1 0x80 SHR JUMPDEST PUSH3 0x10000 DUP4 AND ISZERO PUSH2 0x23EB JUMPI PUSH17 0x10000000000000000000000000000B171 MUL PUSH1 0x80 SHR JUMPDEST PUSH2 0x8000 DUP4 AND ISZERO PUSH2 0x240C JUMPI PUSH17 0x1000000000000000000000000000058B8 MUL PUSH1 0x80 SHR JUMPDEST PUSH2 0x4000 DUP4 AND ISZERO PUSH2 0x242D JUMPI PUSH17 0x100000000000000000000000000002C5B MUL PUSH1 0x80 SHR JUMPDEST PUSH2 0x2000 DUP4 AND ISZERO PUSH2 0x244E JUMPI PUSH17 0x10000000000000000000000000000162D MUL PUSH1 0x80 SHR JUMPDEST PUSH2 0x1000 DUP4 AND ISZERO PUSH2 0x246F JUMPI PUSH17 0x100000000000000000000000000000B16 MUL PUSH1 0x80 SHR JUMPDEST PUSH2 0x800 DUP4 AND ISZERO PUSH2 0x2490 JUMPI PUSH17 0x10000000000000000000000000000058A MUL PUSH1 0x80 SHR JUMPDEST PUSH2 0x400 DUP4 AND ISZERO PUSH2 0x24B1 JUMPI PUSH17 0x1000000000000000000000000000002C4 MUL PUSH1 0x80 SHR JUMPDEST PUSH2 0x200 DUP4 AND ISZERO PUSH2 0x24D2 JUMPI PUSH17 0x100000000000000000000000000000161 MUL PUSH1 0x80 SHR JUMPDEST PUSH2 0x100 DUP4 AND ISZERO PUSH2 0x24F3 JUMPI PUSH17 0x1000000000000000000000000000000B0 MUL PUSH1 0x80 SHR JUMPDEST PUSH1 0x80 DUP4 AND ISZERO PUSH2 0x2513 JUMPI PUSH17 0x100000000000000000000000000000057 MUL PUSH1 0x80 SHR JUMPDEST PUSH1 0x40 DUP4 AND ISZERO PUSH2 0x2533 JUMPI PUSH17 0x10000000000000000000000000000002B MUL PUSH1 0x80 SHR JUMPDEST PUSH1 0x20 DUP4 AND ISZERO PUSH2 0x2553 JUMPI PUSH17 0x100000000000000000000000000000015 MUL PUSH1 0x80 SHR JUMPDEST PUSH1 0x10 DUP4 AND ISZERO PUSH2 0x2573 JUMPI PUSH17 0x10000000000000000000000000000000A MUL PUSH1 0x80 SHR JUMPDEST PUSH1 0x8 DUP4 AND ISZERO PUSH2 0x2593 JUMPI PUSH17 0x100000000000000000000000000000004 MUL PUSH1 0x80 SHR JUMPDEST PUSH1 0x4 DUP4 AND ISZERO PUSH2 0x25B3 JUMPI PUSH17 0x100000000000000000000000000000001 MUL PUSH1 0x80 SHR JUMPDEST DUP5 PUSH2 0x25D4 JUMPI PUSH1 0xF DUP2 SWAP1 SHR PUSH1 0x1 PUSH1 0x1 PUSH1 0x70 SHL SUB AND SWAP1 POP PUSH2 0x3FFF DUP3 ADD SWAP2 POP PUSH2 0x2603 JUMP JUMPDEST PUSH2 0x3FFE DUP3 GT PUSH2 0x25F9 JUMPI PUSH1 0xF DUP2 SWAP1 SHR PUSH1 0x1 PUSH1 0x1 PUSH1 0x70 SHL SUB AND SWAP1 POP DUP2 PUSH2 0x3FFF SUB SWAP2 POP PUSH2 0x2603 JUMP JUMPDEST PUSH1 0x0 SWAP2 PUSH2 0x3FEE NOT ADD SHR JUMPDEST PUSH1 0x70 SWAP2 SWAP1 SWAP2 SHL OR PUSH1 0x80 SHL SWAP6 SWAP5 POP POP POP POP POP JUMP JUMPDEST PUSH1 0x0 PUSH2 0x7FFF PUSH1 0xF0 DUP4 SWAP1 SHR AND PUSH2 0x40FE DUP2 GT ISZERO PUSH2 0x2630 JUMPI PUSH1 0x0 DUP1 REVERT JUMPDEST PUSH2 0x3FFF DUP2 LT ISZERO PUSH2 0x2643 JUMPI POP PUSH1 0x0 SWAP3 SWAP2 POP POP JUMP JUMPDEST PUSH1 0x1 PUSH1 0x70 SHL PUSH1 0x1 PUSH1 0x1 PUSH1 0x70 SHL SUB PUSH1 0x80 DUP6 SWAP1 SHR AND OR PUSH2 0x406F DUP3 LT ISZERO PUSH2 0x266D JUMPI PUSH2 0x406F DUP3 SWAP1 SUB SHR PUSH2 0x267F JUMP JUMPDEST PUSH2 0x406F DUP3 GT ISZERO PUSH2 0x267F JUMPI PUSH2 0x406E NOT DUP3 ADD SHL JUMPDEST PUSH1 0x1 PUSH1 0x7F SHL PUSH1 0x80 DUP6 SWAP1 SHR LT PUSH2 0x26A9 JUMPI PUSH1 0x1 PUSH1 0xFF SHL DUP2 GT ISZERO PUSH2 0x269F JUMPI PUSH1 0x0 DUP1 REVERT JUMPDEST PUSH1 0x0 SUB SWAP4 SWAP3 POP POP POP JUMP JUMPDEST PUSH1 0x1 PUSH1 0x1 PUSH1 0xFF SHL SUB DUP2 GT ISZERO PUSH2 0x26BD JUMPI PUSH1 0x0 DUP1 REVERT JUMPDEST SWAP4 SWAP3 POP POP POP JUMP JUMPDEST PUSH1 0x0 DUP1 DUP3 GT PUSH2 0x26D2 JUMPI PUSH1 0x0 DUP1 REVERT JUMPDEST PUSH1 0x0 PUSH1 0x1 PUSH1 0x80 SHL DUP4 LT PUSH2 0x26E7 JUMPI PUSH1 0x80 SWAP3 DUP4 SHR SWAP3 ADD JUMPDEST PUSH1 0x1 PUSH1 0x40 SHL DUP4 LT PUSH2 0x26FA JUMPI PUSH1 0x40 SWAP3 DUP4 SHR SWAP3 ADD JUMPDEST PUSH5 0x100000000 DUP4 LT PUSH2 0x270E JUMPI PUSH1 0x20 SWAP3 DUP4 SHR SWAP3 ADD JUMPDEST PUSH3 0x10000 DUP4 LT PUSH2 0x2720 JUMPI PUSH1 0x10 SWAP3 DUP4 SHR SWAP3 ADD JUMPDEST PUSH2 0x100 DUP4 LT PUSH2 0x2731 JUMPI PUSH1 0x8 SWAP3 DUP4 SHR SWAP3 ADD JUMPDEST PUSH1 0x10 DUP4 LT PUSH2 0x2741 JUMPI PUSH1 0x4 SWAP3 DUP4 SHR SWAP3 ADD JUMPDEST PUSH1 0x4 DUP4 LT PUSH2 0x2751 JUMPI PUSH1 0x2 SWAP3 DUP4 SHR SWAP3 ADD JUMPDEST PUSH1 0x2 DUP4 LT PUSH2 0xAEF JUMPI PUSH1 0x1 ADD SWAP3 SWAP2 POP POP JUMP JUMPDEST DUP1 CALLDATALOAD PUSH1 0x1 PUSH1 0x1 PUSH1 0xA0 SHL SUB DUP2 AND DUP2 EQ PUSH2 0x7D2 JUMPI PUSH1 0x0 DUP1 REVERT JUMPDEST PUSH1 0x0 DUP1 PUSH1 0x40 DUP4 DUP6 SUB SLT ISZERO PUSH2 0x278C JUMPI PUSH1 0x0 DUP1 REVERT JUMPDEST PUSH2 0x2795 DUP4 PUSH2 0x2762 JUMP JUMPDEST SWAP5 PUSH1 0x20 SWAP4 SWAP1 SWAP4 ADD CALLDATALOAD SWAP4 POP POP POP JUMP JUMPDEST PUSH1 0x0 DUP1 PUSH1 0x0 PUSH1 0x60 DUP5 DUP7 SUB SLT ISZERO PUSH2 0x27B8 JUMPI PUSH1 0x0 DUP1 REVERT JUMPDEST PUSH2 0x27C1 DUP5 PUSH2 0x2762 JUMP JUMPDEST SWAP6 PUSH1 0x20 DUP6 ADD CALLDATALOAD SWAP6 POP PUSH1 0x40 SWAP1 SWAP5 ADD CALLDATALOAD SWAP4 SWAP3 POP POP POP JUMP JUMPDEST PUSH1 0x0 PUSH1 0x20 DUP3 DUP5 SUB SLT ISZERO PUSH2 0x27E8 JUMPI PUSH1 0x0 DUP1 REVERT JUMPDEST PUSH2 0x26BD DUP3 PUSH2 0x2762 JUMP JUMPDEST PUSH1 0x20 DUP1 DUP3 MSTORE PUSH1 0x12 SWAP1 DUP3 ADD MSTORE PUSH18 0x416D6F756E74206D757374206265203E203 PUSH1 0x74 SHL PUSH1 0x40 DUP3 ADD MSTORE PUSH1 0x60 ADD SWAP1 JUMP JUMPDEST PUSH1 0x20 DUP1 DUP3 MSTORE PUSH1 0x28 SWAP1 DUP3 ADD MSTORE PUSH32 0x596F7572204C6F616E206163636F756E7420646F65736E277420686176652074 PUSH1 0x40 DUP3 ADD MSTORE PUSH8 0x3434B99031B7B4B7 PUSH1 0xC1 SHL PUSH1 0x60 DUP3 ADD MSTORE PUSH1 0x80 ADD SWAP1 JUMP JUMPDEST PUSH4 0x4E487B71 PUSH1 0xE0 SHL PUSH1 0x0 MSTORE PUSH1 0x11 PUSH1 0x4 MSTORE PUSH1 0x24 PUSH1 0x0 REVERT JUMPDEST PUSH1 0x0 PUSH1 0x1 PUSH1 0xFF SHL DUP3 EQ ISZERO PUSH2 0x2891 JUMPI PUSH2 0x2891 PUSH2 0x2865 JUMP JUMPDEST POP PUSH1 0x0 SUB SWAP1 JUMP JUMPDEST PUSH1 0x0 DUP1 DUP3 SLT DUP1 ISZERO PUSH1 0x1 PUSH1 0x1 PUSH1 0xFF SHL SUB DUP5 SWAP1 SUB DUP6 SGT AND ISZERO PUSH2 0x28BA JUMPI PUSH2 0x28BA PUSH2 0x2865 JUMP JUMPDEST PUSH1 0x1 PUSH1 0xFF SHL DUP4 SWAP1 SUB DUP5 SLT DUP2 AND ISZERO PUSH2 0x28D3 JUMPI PUSH2 0x28D3 PUSH2 0x2865 JUMP JUMPDEST POP POP ADD SWAP1 JUMP JUMPDEST PUSH1 0x0 DUP3 DUP3 LT ISZERO PUSH2 0x28EB JUMPI PUSH2 0x28EB PUSH2 0x2865 JUMP JUMPDEST POP SUB SWAP1 JUMP JUMPDEST PUSH1 0x0 DUP1 DUP4 SLT DUP1 ISZERO PUSH1 0x1 PUSH1 0xFF SHL DUP6 ADD DUP5 SLT AND ISZERO PUSH2 0x290E JUMPI PUSH2 0x290E PUSH2 0x2865 JUMP JUMPDEST PUSH1 0x1 PUSH1 0x1 PUSH1 0xFF SHL SUB DUP5 ADD DUP4 SGT DUP2 AND ISZERO PUSH2 0x2929 JUMPI PUSH2 0x2929 PUSH2 0x2865 JUMP JUMPDEST POP POP SUB SWAP1 JUMP JUMPDEST PUSH4 0x4E487B71 PUSH1 0xE0 SHL PUSH1 0x0 MSTORE PUSH1 0x12 PUSH1 0x4 MSTORE PUSH1 0x24 PUSH1 0x0 REVERT JUMPDEST PUSH4 0x4E487B71 PUSH1 0xE0 SHL PUSH1 0x0 MSTORE PUSH1 0x1 PUSH1 0x4 MSTORE PUSH1 0x24 PUSH1 0x0 REVERT INVALID LOG2 PUSH5 0x6970667358 0x22 SLT KECCAK256 PUSH20 0xBC6E07294D254C9907F482916B7BD86EB7443DA0 PUSH8 0xCB7686FCEA87D0D CALLER 0x5C PUSH5 0x736F6C6343 STOP ADDMOD SIGNEXTEND STOP CALLER LOG2 PUSH5 0x6970667358 0x22 SLT KECCAK256 0xBF 0xF CALLCODE MSTORE8 DUP16 0xED 0xBB 0xD6 CODECOPY SLT 0xAB SWAP3 0xA5 0xC4 0xFB BYTE CODESIZE RETURNDATASIZE SLT PUSH18 0xAC4513EED20FAD789377E9C664736F6C6343 STOP ADDMOD SIGNEXTEND STOP CALLER ","sha1":"20135550513b61ab5ef6d2471823045f61c46404","source":"// SPDX-License-Identifier: MIT\npragma solidity ^0.8.0;\n\nimport \"./LoanAccount.sol\";\nimport \"./LoanPool.sol\";\n\nimport \"./IERC20.sol\";\n\ncontract PotamusLoan {\n    mapping(uint256 => uint256) public testMap;\n    uint256 public testValue = 13;\n    address public testAddress = address(this);\n    int256 public testNegValue = -4;\n\n    address[] public getTokenAddressList = [address(this), address(this)];\n    uint256[] public getTokenBalanceList = [4, 5];\n\n    function trialA(uint256 _index) public view returns (address) {\n        return getTokenAddressList[_index];\n    }\n\n    function trialB(uint256 _index) public view returns (uint256) {\n        return getTokenBalanceList[_index];\n    }\n\n    struct SearchableLoanAccount {\n        bool isExist;\n        address loanAccountAddress; //Address of LoanAccount\n    }\n\n    struct SearchableLoanPool {\n        bool isExist;\n        address loanPoolAddress; //Address of LoanPool\n    }\n\n    uint256 public reserve;\n    //UserAccount Address => Address of LoanAccount\n    mapping(address => SearchableLoanAccount) public loanAccountMap;\n    //Token Address => Address of LoanPool\n    mapping(address => SearchableLoanPool) public loanPoolMap;\n\n    constructor() public {\n        testMap[1] = 4;\n    }\n\n    modifier onlyPoolExist(address _token) {\n        require(\n            loanPoolMap[_token].isExist,\n            \"Pool of this token doesn't exist\"\n        );\n        _;\n    }\n\n    modifier onlyAccountExist(address _userAddress) {\n        require(\n            loanAccountMap[_userAddress].isExist,\n            \"Account of this user doesn't exist in the system\"\n        );\n        _;\n    }\n\n    modifier onlyPoolSufficientFund(address _token, uint256 _amount) {\n        require(\n            _amount <\n                LoanPool(loanPoolMap[_token].loanPoolAddress).availableFund(),\n            \"Pool of this token doesn't have sufficient available fund for this operation\"\n        );\n        _;\n    }\n\n    modifier onlyAccountSufficientFund(\n        address _userAddress,\n        address _token,\n        uint256 _amount\n    ) {\n        require(\n            //TODO: Come back at this ugly conversion again\n            int256(_amount) <\n                LoanAccount(loanAccountMap[_userAddress].loanAccountAddress)\n                    .tokenBalance(_token),\n            \"Pool of this token doesn't have sufficient available fund for this operation\"\n        );\n        _;\n    }\n\n    function deposit(address _token, uint256 _amount) public {\n        //Require checks\n        require(\n            IERC20(_token).allowance(msg.sender, address(this)) >= _amount,\n            \"User approved amount is insufficient\"\n        );\n        //TODO: There are a lot of requirement check missing here\n\n        //Creating LoanPool or Loan Account if they don't exist yet\n        if (!loanPoolMap[_token].isExist) {\n            loanPoolMap[_token] = SearchableLoanPool(\n                true,\n                address(new LoanPool(_token))\n            );\n        }\n        if (!loanAccountMap[msg.sender].isExist) {\n            loanAccountMap[msg.sender] = SearchableLoanAccount(\n                true,\n                address(new LoanAccount(msg.sender))\n            );\n        }\n        LoanPool loanPool = LoanPool(loanPoolMap[_token].loanPoolAddress);\n        LoanAccount loanAccount = LoanAccount(\n            loanAccountMap[msg.sender].loanAccountAddress\n        );\n\n        //Transferring money from user account to loan pool account\n        require(\n            IERC20(_token).transferFrom(msg.sender, address(loanPool), _amount),\n            \"Transfer of token failed\"\n        );\n\n        //Update Loan Pool\n        loanPool.deposit(_amount);\n        loanPool.addLoanAccount(address(loanAccount));\n\n        //Update Loan Account\n        loanAccount.deposit(\n            _token,\n            int256(_amount),\n            loanPool.fSecondInterestRate()\n        );\n    }\n\n    function withdraw(address _token, uint256 _amount)\n        public\n        onlyAccountExist(msg.sender)\n        onlyPoolExist(_token)\n        onlyAccountSufficientFund(msg.sender, _token, _amount)\n        onlyPoolSufficientFund(_token, _amount)\n    {\n        //TODO: Some other requirements\n        //TODO: Need to check from Oracle how much you can withdraw\n        LoanPool loanPool = LoanPool(loanPoolMap[_token].loanPoolAddress);\n        LoanAccount loanAccount = LoanAccount(\n            loanAccountMap[msg.sender].loanAccountAddress\n        );\n        //Do the actual fund transfer to Pool, this is done within the pool since the pool own that fund\n        loanPool.withdraw(msg.sender, _amount);\n        loanAccount.withdraw(_token, int256(_amount));\n\n        //If user withdraw all, remove LoanAccount from corresponding pool's watch list\n        if (!loanAccount.hasDepositOrLoan(_token)) {\n            loanPool.removeLoanAccount(address(loanAccount));\n        }\n    }\n\n    function loan(address _token, uint256 _amount)\n        public\n        onlyAccountExist(msg.sender)\n        onlyPoolExist(_token)\n        onlyPoolSufficientFund(_token, _amount)\n    {\n        LoanPool loanPool = LoanPool(loanPoolMap[_token].loanPoolAddress);\n        LoanAccount loanAccount = LoanAccount(\n            loanAccountMap[msg.sender].loanAccountAddress\n        );\n\n        //TODO: Some other requirements\n\n        //Do the actual fund transfer to Pool\n        loanPool.loan(msg.sender, _amount);\n\n        loanAccount.loan(\n            _token,\n            int256(_amount),\n            loanPool.fSecondInterestRate() //Get the most udpated interest rate\n        );\n\n        //Add the loan account into loan pool watch list\n        loanPool.addLoanAccount(address(loanAccount));\n    }\n\n    function payback(address _token, uint256 _amount)\n        public\n        onlyAccountExist(msg.sender)\n        onlyPoolExist(_token)\n    {\n        //TODO: Some other requirement here, like it should fail if the user\n        //overpay for what they owe\n\n        LoanPool loanPool = LoanPool(loanPoolMap[_token].loanPoolAddress);\n        LoanAccount loanAccount = LoanAccount(\n            loanAccountMap[msg.sender].loanAccountAddress\n        );\n\n        //Transferring money from user account to loan pool account\n        require(\n            IERC20(_token).transferFrom(msg.sender, address(loanPool), _amount),\n            \"Transfer of token failed\"\n        );\n\n        //Update Loan Pool\n        loanPool.payback(_amount);\n\n        //Update Loan Account\n        loanAccount.payback(_token, int256(_amount));\n\n        //If user paid back all, remove LoanAccount from corresponding pool\n        if (!loanAccount.hasDepositOrLoan(_token)) {\n            loanPool.removeLoanAccount(address(loanAccount));\n        }\n    }\n}\n","sourcePath":"contracts/PotamusLoan.sol","type":"contract","deployment":{"address":"0x47c4a7cD18F27c9965E9E49eB7166A99F16A4211","chainid":"42","blockHeight":29190141}}