{"bytecode":"608060405234801561001057600080fd5b50612c80806100206000396000f3fe60806040523480156200001157600080fd5b5060043610620000b75760003560e01c806347e7ef24116200007a57806347e7ef2414620001e1578063a1748e9f14620001f8578063ab1fa471146200021e578063cd3293de1462000254578063e4b262e8146200025e578063f3fef3a3146200026757600080fd5b80631500db3f14620000bc578063185cc75114620001165780632f380b35146200012f57806335ed8ab814620001795780633683ef571462000190575b600080fd5b620000f2620000cd366004620014d7565b60016020526000908152604090205460ff81169061010090046001600160a01b031682565b6040805192151583526001600160a01b039091166020830152015b60405180910390f35b6200012d62000127366004620014f7565b6200027e565b005b620001466200014036600462001526565b62000577565b604080516001600160a01b0390961686526020860194909452928401919091526060830152608082015260a0016200010d565b6200012d6200018a366004620014f7565b62000752565b620001a7620001a1366004620014f7565b62000a50565b604080516001600160a01b03909716875260208701959095529385019290925260608401526080830152151560a082015260c0016200010d565b6200012d620001f2366004620014f7565b62000b23565b6200020f62000209366004620014d7565b62001058565b6040519081526020016200010d565b620000f26200022f366004620014d7565b60026020526000908152604090205460ff81169061010090046001600160a01b031682565b6200020f60005481565b6003546200020f565b6200012d62000278366004620014f7565b6200110c565b3360008181526001602052604090205460ff16620002b95760405162461bcd60e51b8152600401620002b09062001540565b60405180910390fd5b6001600160a01b038316600090815260026020526040902054839060ff16620002f65760405162461bcd60e51b8152600401620002b09062001590565b6001600160a01b0380851660009081526002602090815260409182902054825163d0cb3cd160e01b8152925188948894610100909304169263d0cb3cd192600480820193918290030181865afa15801562000355573d6000803e3d6000fd5b505050506040513d601f19601f820116820180604052508101906200037b9190620015c5565b81106200039c5760405162461bcd60e51b8152600401620002b090620015df565b6001600160a01b038681166000908152600260209081526040808320543380855260019093529281902054905163185cc75160e01b81526004810192909252602482018990526101009283900484169392900490911690829063185cc75190604401600060405180830381600087803b1580156200041957600080fd5b505af11580156200042e573d6000803e3d6000fd5b50505050806001600160a01b031663cebc743d8989856001600160a01b03166388adcac16040518163ffffffff1660e01b8152600401602060405180830381865afa15801562000482573d6000803e3d6000fd5b505050506040513d601f19601f82011682018060405250810190620004a89190620015c5565b6040516001600160e01b031960e086901b1681526001600160a01b03909316600484015260248301919091526044820152606401600060405180830381600087803b158015620004f757600080fd5b505af11580156200050c573d6000803e3d6000fd5b50506040516334b3c50f60e01b81526001600160a01b038481166004830152851692506334b3c50f9150602401600060405180830381600087803b1580156200055457600080fd5b505af115801562000569573d6000803e3d6000fd5b505050505050505050505050565b6000806000806000806003878154811062000596576200059662001651565b60009182526020918290200154604080516313aedd4b60e31b815290516001600160a01b0390921693508392639d76ea58926004808401938290030181865afa158015620005e8573d6000803e3d6000fd5b505050506040513d601f19601f820116820180604052508101906200060e919062001667565b816001600160a01b031663d6c3d9946040518163ffffffff1660e01b8152600401602060405180830381865afa1580156200064d573d6000803e3d6000fd5b505050506040513d601f19601f82011682018060405250810190620006739190620015c5565b6012836001600160a01b03166361bc1a496040518163ffffffff1660e01b8152600401602060405180830381865afa158015620006b4573d6000803e3d6000fd5b505050506040513d601f19601f82011682018060405250810190620006da9190620015c5565b846001600160a01b0316631bf055796040518163ffffffff1660e01b8152600401602060405180830381865afa15801562000719573d6000803e3d6000fd5b505050506040513d601f19601f820116820180604052508101906200073f9190620015c5565b939b929a50909850965090945092505050565b3360008181526001602052604090205460ff16620007845760405162461bcd60e51b8152600401620002b09062001540565b6001600160a01b038316600090815260026020526040902054839060ff16620007c15760405162461bcd60e51b8152600401620002b09062001590565b6001600160a01b03848116600081815260026020908152604080832054338085526001909352928190205490516323b872dd60e01b8152600481019290925261010092839004851660248301819052604483018990529492900490911691906323b872dd906064016020604051808303816000875af115801562000849573d6000803e3d6000fd5b505050506040513d601f19601f820116820180604052508101906200086f919062001698565b620008b85760405162461bcd60e51b8152602060048201526018602482015277151c985b9cd9995c881bd9881d1bdad95b8819985a5b195960421b6044820152606401620002b0565b60405163a846c2fd60e01b8152600481018690526001600160a01b0383169063a846c2fd90602401600060405180830381600087803b158015620008fb57600080fd5b505af115801562000910573d6000803e3d6000fd5b5050604051630b56fd4960e01b81526001600160a01b0389811660048301526024820189905284169250630b56fd499150604401600060405180830381600087803b1580156200095f57600080fd5b505af115801562000974573d6000803e3d6000fd5b5050604051633ce6120160e21b81526001600160a01b0389811660048301528416925063f39848049150602401602060405180830381865afa158015620009bf573d6000803e3d6000fd5b505050506040513d601f19601f82011682018060405250810190620009e5919062001698565b62000a485760405163d9ed268560e01b81526001600160a01b03828116600483015283169063d9ed268590602401600060405180830381600087803b15801562000a2e57600080fd5b505af115801562000a43573d6000803e3d6000fd5b505050505b505050505050565b6001600160a01b0382166000908152600160205260408120548190819081908190819060ff161562000b19576001600160a01b0388811660008181526001602052604090819020549051633683ef5760e01b81526004810192909252602482018a90526101009004909116908190633683ef579060440160c060405180830381865afa15801562000ae5573d6000803e3d6000fd5b505050506040513d601f19601f8201168201806040525081019062000b0b9190620016b6565b965096509650965096509650505b9295509295509295565b604051636eb1769f60e11b815233600482015230602482015281906001600160a01b0384169063dd62ed3e90604401602060405180830381865afa15801562000b70573d6000803e3d6000fd5b505050506040513d601f19601f8201168201806040525081019062000b969190620015c5565b101562000bf25760405162461bcd60e51b8152602060048201526024808201527f5573657220617070726f76656420616d6f756e7420697320696e7375666669636044820152631a595b9d60e21b6064820152608401620002b0565b6001600160a01b03821660009081526002602052604090205460ff1662000d055760405180604001604052806001151581526020018360405162000c3690620014a2565b6001600160a01b039091168152602001604051809103906000f08015801562000c63573d6000803e3d6000fd5b506001600160a01b03908116909152838116600090815260026020908152604082208451815495909201516001600160a81b0319909516911515610100600160a81b03191691909117610100948416850217908190556003805460018101825592527fc2575a0e9e593c00f959f8c92f12db2869c3395a3b0502d05e2516446f71f85b9091018054939091049091166001600160a01b03199092169190911790555b3360009081526001602052604090205460ff1662000dc45760405180604001604052806001151581526020013360405162000d4090620014b0565b6001600160a01b039091168152602001604051809103906000f08015801562000d6d573d6000803e3d6000fd5b506001600160a01b039081169091523360009081526001602090815260409091208351815494909201516001600160a81b0319909416911515610100600160a81b0319169190911761010093909216929092021790555b6001600160a01b03828116600081815260026020908152604080832054338085526001909352928190205490516323b872dd60e01b8152600481019290925261010092839004851660248301819052604483018790529492900490911691906323b872dd906064016020604051808303816000875af115801562000e4c573d6000803e3d6000fd5b505050506040513d601f19601f8201168201806040525081019062000e72919062001698565b62000ebb5760405162461bcd60e51b8152602060048201526018602482015277151c985b9cd9995c881bd9881d1bdad95b8819985a5b195960421b6044820152606401620002b0565b60405163b6b55f2560e01b8152600481018490526001600160a01b0383169063b6b55f2590602401600060405180830381600087803b15801562000efe57600080fd5b505af115801562000f13573d6000803e3d6000fd5b50506040516334b3c50f60e01b81526001600160a01b038481166004830152851692506334b3c50f9150602401600060405180830381600087803b15801562000f5b57600080fd5b505af115801562000f70573d6000803e3d6000fd5b50505050806001600160a01b0316630e19ae768585856001600160a01b03166388adcac16040518163ffffffff1660e01b8152600401602060405180830381865afa15801562000fc4573d6000803e3d6000fd5b505050506040513d601f19601f8201168201806040525081019062000fea9190620015c5565b6040516001600160e01b031960e086901b1681526001600160a01b03909316600484015260248301919091526044820152606401600060405180830381600087803b1580156200103957600080fd5b505af11580156200104e573d6000803e3d6000fd5b5050505050505050565b6001600160a01b03811660009081526001602052604081205460ff161562001107576001600160a01b03808316600090815260016020908152604091829020548251632b8cee9160e11b81529251610100909104909316928392635719dd229260048083019391928290030181865afa158015620010da573d6000803e3d6000fd5b505050506040513d601f19601f82011682018060405250810190620011009190620015c5565b9392505050565b919050565b3360008181526001602052604090205460ff166200113e5760405162461bcd60e51b8152600401620002b09062001540565b6001600160a01b038316600090815260026020526040902054839060ff166200117b5760405162461bcd60e51b8152600401620002b09062001590565b336000818152600160205260409081902054905163776e4b3560e11b81526001600160a01b038781166004830152879287926101009091049091169063eedc966a90602401602060405180830381865afa158015620011de573d6000803e3d6000fd5b505050506040513d601f19601f82011682018060405250810190620012049190620015c5565b8112620012255760405162461bcd60e51b8152600401620002b090620015df565b6001600160a01b0380881660009081526002602090815260409182902054825163d0cb3cd160e01b815292518b948b94610100909304169263d0cb3cd192600480820193918290030181865afa15801562001284573d6000803e3d6000fd5b505050506040513d601f19601f82011682018060405250810190620012aa9190620015c5565b8110620012cb5760405162461bcd60e51b8152600401620002b090620015df565b6001600160a01b038981166000908152600260209081526040808320543380855260019093529281902054905163f3fef3a360e01b81526004810192909252602482018c90526101009283900484169392900490911690829063f3fef3a390604401600060405180830381600087803b1580156200134857600080fd5b505af11580156200135d573d6000803e3d6000fd5b5050604051637da7d3f160e01b81526001600160a01b038e81166004830152602482018e905284169250637da7d3f19150604401600060405180830381600087803b158015620013ac57600080fd5b505af1158015620013c1573d6000803e3d6000fd5b5050604051633ce6120160e21b81526001600160a01b038e811660048301528416925063f39848049150602401602060405180830381865afa1580156200140c573d6000803e3d6000fd5b505050506040513d601f19601f8201168201806040525081019062001432919062001698565b620014955760405163d9ed268560e01b81526001600160a01b03828116600483015283169063d9ed268590602401600060405180830381600087803b1580156200147b57600080fd5b505af115801562001490573d6000803e3d6000fd5b505050505b5050505050505050505050565b6109bd806200171883390190565b610b7680620020d583390190565b6001600160a01b0381168114620014d457600080fd5b50565b600060208284031215620014ea57600080fd5b81356200110081620014be565b600080604083850312156200150b57600080fd5b82356200151881620014be565b946020939093013593505050565b6000602082840312156200153957600080fd5b5035919050565b60208082526030908201527f4163636f756e74206f662074686973207573657220646f65736e27742065786960408201526f737420696e207468652073797374656d60801b606082015260800190565b6020808252818101527f506f6f6c206f66207468697320746f6b656e20646f65736e2774206578697374604082015260600190565b600060208284031215620015d857600080fd5b5051919050565b6020808252604c908201527f506f6f6c206f66207468697320746f6b656e20646f65736e277420686176652060408201527f73756666696369656e7420617661696c61626c652066756e6420666f7220746860608201526b34b99037b832b930ba34b7b760a11b608082015260a00190565b634e487b7160e01b600052603260045260246000fd5b6000602082840312156200167a57600080fd5b81516200110081620014be565b805180151581146200110757600080fd5b600060208284031215620016ab57600080fd5b620011008262001687565b60008060008060008060c08789031215620016d057600080fd5b8651620016dd81620014be565b80965050602087015194506040870151935060608701519250608087015191506200170b60a0880162001687565b9050929550929550929556fe6080604052600a6200001360128262000204565b6200002090600262000219565b6200002c91906200023b565b600055600a6200003e60128262000204565b6200004b90601462000219565b6200005791906200023b565b600155600a6200006960128262000204565b6200007690600862000219565b6200008291906200023b565b6002556000600455600060055560006006556000600755348015620000a657600080fd5b50604051620009bd380380620009bd833981016040819052620000c9916200025e565b600380546001600160a01b0319166001600160a01b039290921691909117905562000289565b634e487b7160e01b600052601160045260246000fd5b600181815b80851115620001465781600019048211156200012a576200012a620000ef565b808516156200013857918102915b93841c93908002906200010a565b509250929050565b6000826200015f57506001620001fe565b816200016e57506000620001fe565b81600181146200018757600281146200019257620001b2565b6001915050620001fe565b60ff841115620001a657620001a6620000ef565b50506001821b620001fe565b5060208310610133831016604e8410600b8410161715620001d7575081810a620001fe565b620001e3838362000105565b8060001904821115620001fa57620001fa620000ef565b0290505b92915050565b60006200021283836200014e565b9392505050565b6000816000190483118215151615620002365762000236620000ef565b500290565b6000826200025957634e487b7160e01b600052601260045260246000fd5b500490565b6000602082840312156200027157600080fd5b81516001600160a01b03811681146200021257600080fd5b61072480620002996000396000f3fe608060405234801561001057600080fd5b50600436106100cf5760003560e01c80639d76ea581161008c578063d0cb3cd111610066578063d0cb3cd1146101b7578063d6c3d994146101bf578063d9ed2685146101c8578063f3fef3a3146101db57600080fd5b80639d76ea5814610166578063a846c2fd14610191578063b6b55f25146101a457600080fd5b8063185cc751146100d45780631bf05579146100e957806334b3c50f1461010557806361bc1a49146101185780637c7dc0941461012157806388adcac11461015d575b600080fd5b6100e76100e23660046105d8565b6101ee565b005b6100f260055481565b6040519081526020015b60405180910390f35b6100e7610113366004610602565b610212565b6100f260045481565b61014d61012f366004610602565b6001600160a01b031660009081526009602052604090205460ff1690565b60405190151581526020016100fc565b6100f260065481565b600354610179906001600160a01b031681565b6040516001600160a01b0390911681526020016100fc565b6100e761019f366004610624565b6102e5565b6100e76101b2366004610624565b610305565b6100f2610317565b6100f260075481565b6100e76101d6366004610602565b61032e565b6100e76101e93660046105d8565b6103bc565b80600560008282546102009190610653565b9091555061020e90506103ce565b5050565b604051631f1f702560e21b81526001600160a01b03821660048201523090637c7dc09490602401602060405180830381865afa158015610256573d6000803e3d6000fd5b505050506040513d601f19601f8201168201806040525081019061027a919061066b565b6102e2576008805460018082019092557ff3f7a9fe364faab93b216da50a3214154f22a0a2b415b23a84c8169e8b636ee30180546001600160a01b0319166001600160a01b0384169081179091556000908152600960205260409020805460ff191690911790555b50565b80600560008282546102f7919061068d565b909155506102e290506103ce565b80600460008282546102f79190610653565b6000600554600454610329919061068d565b905090565b604051631f1f702560e21b81526001600160a01b03821660048201523090637c7dc09490602401602060405180830381865afa158015610372573d6000803e3d6000fd5b505050506040513d601f19601f82011682018060405250810190610396919061066b565b156102e2576001600160a01b03166000908152600960205260409020805460ff19169055565b8060046000828254610200919061068d565b60055460048054600254600054600154604051636bed508b60e11b815294850195909552602484019290925260448301526064820152608481019190915273__PotamusUtils__________________________9063d7daa1169060a401602060405180830381865af4158015610448573d6000803e3d6000fd5b505050506040513d601f19601f8201168201806040525081019061046c91906106a4565b60078190556040516311bb7e4960e31b8152600481019190915273__PotamusUtils__________________________90638ddbf24890602401602060405180830381865af41580156104c2573d6000803e3d6000fd5b505050506040513d601f19601f820116820180604052508101906104e691906106a4565b60065560005b6008548110156102e25760006008600001828154811061050e5761050e6106bd565b60009182526020808320909101546001600160a01b0316808352600990915260409091205490915060ff16156105a957600354600654604051631395702760e01b81526001600160a01b039283166004820152602481019190915290821690631395702790604401600060405180830381600087803b15801561059057600080fd5b505af11580156105a4573d6000803e3d6000fd5b505050505b50806105b4816106d3565b9150506104ec565b80356001600160a01b03811681146105d357600080fd5b919050565b600080604083850312156105eb57600080fd5b6105f4836105bc565b946020939093013593505050565b60006020828403121561061457600080fd5b61061d826105bc565b9392505050565b60006020828403121561063657600080fd5b5035919050565b634e487b7160e01b600052601160045260246000fd5b600082198211156106665761066661063d565b500190565b60006020828403121561067d57600080fd5b8151801515811461061d57600080fd5b60008282101561069f5761069f61063d565b500390565b6000602082840312156106b657600080fd5b5051919050565b634e487b7160e01b600052603260045260246000fd5b60006000198214156106e7576106e761063d565b506001019056fea26469706673582212201c9974a5f2ceabdc7aac3725a14f736887e9f701c78a4e19ceb5e7a65d3032e964736f6c634300080b0033608060405234801561001057600080fd5b50604051610b76380380610b7683398101604081905261002f91610054565b600080546001600160a01b0319166001600160a01b0392909216919091179055610084565b60006020828403121561006657600080fd5b81516001600160a01b038116811461007d57600080fd5b9392505050565b610ae3806100936000396000f3fe608060405234801561001057600080fd5b506004361061009e5760003560e01c80637da7d3f1116100665780637da7d3f114610141578063cebc743d14610154578063e4128fb314610167578063eedc966a14610192578063f3984804146101bf57600080fd5b80630b56fd49146100a35780630e19ae76146100b857806313957027146100cb5780633683ef57146100de5780635719dd221461012f575b600080fd5b6100b66100b13660046108c1565b6101fe565b005b6100b66100c63660046108eb565b610348565b6100b66100d93660046108c1565b610475565b6100f16100ec3660046108c1565b61054e565b604080516001600160a01b03909716875260208701959095529385019290925260608401526080830152151560a082015260c0015b60405180910390f35b6002545b604051908152602001610126565b6100b661014f3660046108c1565b6105c2565b6100b66101623660046108eb565b610703565b60005461017a906001600160a01b031681565b6040516001600160a01b039091168152602001610126565b6101336101a036600461091e565b6001600160a01b03166000908152600160208190526040909120015490565b6101ee6101cd36600461091e565b6001600160a01b031660009081526001602052604090206003015460ff1690565b6040519015158152602001610126565b600081136102275760405162461bcd60e51b815260040161021e90610940565b60405180910390fd5b6001600160a01b0382166000908152600160205260409020600381015460ff166102635760405162461bcd60e51b815260040161021e9061096c565b60008160010154126102b75760405162461bcd60e51b815260206004820181905260248201527f596f7520646f6e2774206f776520616e7920666f72207468697320746f6b656e604482015260640161021e565b80600101546102c5906109ca565b8213156103205760405162461bcd60e51b815260206004820152602360248201527f596f7520617265206f766572706179696e6720666f72207768617420796f75206044820152626f776560e81b606482015260840161021e565b8181600101600082825461033491906109e7565b90915550610343905083610840565b505050565b600082136103685760405162461bcd60e51b815260040161021e90610940565b6001600160a01b0383166000908152600160205260409020600381015460ff16156103ac57828160010160008282546103a191906109e7565b9091555061046f9050565b6040805160a0810182526001600160a01b03808716808352602080840188815284860188815260016060870181815242608089019081526000878152958390529885209751885497166001600160a01b03199788161788559251878201559051600280880191909155915160038701805491151560ff19909216919091179055955160049095019490945583549485018455929092527f405787fa12a823e0f2b7631cc41b3ba8828b3321ca811111fa75cd3aa3bb5ace90920180549092161790555b50505050565b6001600160a01b03821660009081526001602052604090206003810154429060ff161561046f5773__PotamusUtils__________________________63e24a9e6e836001015484600201548560040154856104d09190610a28565b6040516001600160e01b031960e086901b168152600481019390935260248301919091526044820152606401602060405180830381865af4158015610519573d6000803e3d6000fd5b505050506040513d601f19601f8201168201806040525081019061053d9190610a3f565b600183015560048201556002015550565b60008060008060008060006002888154811061056c5761056c610a58565b6000918252602080832091909101546001600160a01b031680835260019182905260409092209081015460028201546004830154600390930154939d919c509a506012995090975060ff90911695509350505050565b600081136105e25760405162461bcd60e51b815260040161021e90610940565b6001600160a01b0382166000908152600160205260409020600381015460ff1661061e5760405162461bcd60e51b815260040161021e9061096c565b60008160010154136106865760405162461bcd60e51b815260206004820152602b60248201527f596f75722062616c616e636520666f72207468697320746f6b656e206973206e60448201526a6f7420706f73697469766560a81b606482015260840161021e565b80600101548213156106ef5760405162461bcd60e51b815260206004820152602c60248201527f596f75206861766520696e73756666696369656e742062616c616e636520666f60448201526b39103a3434b9903a37b5b2b760a11b606482015260840161021e565b818160010160008282546103349190610a6e565b600082136107235760405162461bcd60e51b815260040161021e90610940565b6001600160a01b0383166000908152600160205260409020600381015460ff161561075c57828160010160008282546103a19190610a6e565b6040518060a00160405280856001600160a01b0316815260200184610780906109ca565b815260208082019490945260016040808301829052426060938401526001600160a01b039788166000818152838852828120865181546001600160a01b031990811691909c161781559786015188850155918501516002808901919091559385015160038801805460ff19169115159190911790556080909401516004909601959095558154908101825593527f405787fa12a823e0f2b7631cc41b3ba8828b3321ca811111fa75cd3aa3bb5ace90920180549094169091179092555050565b6001600160a01b0381166000908152600160205260409020600381015460ff168015610870575060058160010154125b8015610888575061088160056109ca565b8160010154135b156108a1576000600182015560038101805460ff191690555b5050565b80356001600160a01b03811681146108bc57600080fd5b919050565b600080604083850312156108d457600080fd5b6108dd836108a5565b946020939093013593505050565b60008060006060848603121561090057600080fd5b610909846108a5565b95602085013595506040909401359392505050565b60006020828403121561093057600080fd5b610939826108a5565b9392505050565b6020808252601290820152710416d6f756e74206d757374206265203e20360741b604082015260600190565b60208082526028908201527f596f7572204c6f616e206163636f756e7420646f65736e2774206861766520746040820152673434b99031b7b4b760c11b606082015260800190565b634e487b7160e01b600052601160045260246000fd5b6000600160ff1b8214156109e0576109e06109b4565b5060000390565b600080821280156001600160ff1b0384900385131615610a0957610a096109b4565b600160ff1b8390038412811615610a2257610a226109b4565b50500190565b600082821015610a3a57610a3a6109b4565b500390565b600060208284031215610a5157600080fd5b5051919050565b634e487b7160e01b600052603260045260246000fd5b60008083128015600160ff1b850184121615610a8c57610a8c6109b4565b6001600160ff1b0384018313811615610aa757610aa76109b4565b5050039056fea26469706673582212204c0b9e1ee2ed5e592ddbd089183a92ddeb6698a34034899a86612a8417e02c5464736f6c634300080b0033a264697066735822122035e1adcc698a1d50f483255269314f5f6aa6c0a344a1c5355da79570f436f0df64736f6c634300080b0033","bytecodeSha1":"ccf513fab2d2daecff756a62569bd3ebcf96eaa1","type":"contract","abi":[{"inputs":[{"internalType":"address","name":"_token","type":"address"},{"internalType":"uint256","name":"_amount","type":"uint256"}],"name":"deposit","outputs":[],"stateMutability":"nonpayable","type":"function"},{"inputs":[],"name":"getNumPool","outputs":[{"internalType":"uint256","name":"","type":"uint256"}],"stateMutability":"view","type":"function"},{"inputs":[{"internalType":"uint256","name":"_index","type":"uint256"}],"name":"getPoolInfo","outputs":[{"internalType":"address","name":"_tokenAddress","type":"address"},{"internalType":"uint256","name":"_fAnnualInterestRate","type":"uint256"},{"internalType":"uint256","name":"_floatDecimals","type":"uint256"},{"internalType":"uint256","name":"_depositBalance","type":"uint256"},{"internalType":"uint256","name":"_loanBalance","type":"uint256"}],"stateMutability":"view","type":"function"},{"inputs":[{"internalType":"address","name":"_userAddress","type":"address"},{"internalType":"uint256","name":"_index","type":"uint256"}],"name":"getTokenBalanceInfo","outputs":[{"internalType":"address","name":"_tokenAddress","type":"address"},{"internalType":"int256","name":"_balance","type":"int256"},{"internalType":"uint256","name":"_fSecondRate","type":"uint256"},{"internalType":"uint256","name":"_secondRateDecimals","type":"uint256"},{"internalType":"uint256","name":"lastUpdated","type":"uint256"},{"internalType":"bool","name":"_isExist","type":"bool"}],"stateMutability":"view","type":"function"},{"inputs":[{"internalType":"address","name":"_userAddress","type":"address"}],"name":"getTokenListLength","outputs":[{"internalType":"uint256","name":"","type":"uint256"}],"stateMutability":"view","type":"function"},{"inputs":[{"internalType":"address","name":"_token","type":"address"},{"internalType":"uint256","name":"_amount","type":"uint256"}],"name":"loan","outputs":[],"stateMutability":"nonpayable","type":"function"},{"inputs":[{"internalType":"address","name":"","type":"address"}],"name":"loanAccountMap","outputs":[{"internalType":"bool","name":"isExist","type":"bool"},{"internalType":"address","name":"loanAccountAddress","type":"address"}],"stateMutability":"view","type":"function"},{"inputs":[{"internalType":"address","name":"","type":"address"}],"name":"loanPoolMap","outputs":[{"internalType":"bool","name":"isExist","type":"bool"},{"internalType":"address","name":"loanPoolAddress","type":"address"}],"stateMutability":"view","type":"function"},{"inputs":[{"internalType":"address","name":"_token","type":"address"},{"internalType":"uint256","name":"_amount","type":"uint256"}],"name":"payback","outputs":[],"stateMutability":"nonpayable","type":"function"},{"inputs":[],"name":"reserve","outputs":[{"internalType":"uint256","name":"","type":"uint256"}],"stateMutability":"view","type":"function"},{"inputs":[{"internalType":"address","name":"_token","type":"address"},{"internalType":"uint256","name":"_amount","type":"uint256"}],"name":"withdraw","outputs":[],"stateMutability":"nonpayable","type":"function"}],"compiler":{"version":"0.8.11+commit.d7f03943","evm_version":"istanbul","optimizer":{"enabled":true,"runs":200}},"contractName":"PotamusLoan","deployedBytecode":"60806040523480156200001157600080fd5b5060043610620000b75760003560e01c806347e7ef24116200007a57806347e7ef2414620001e1578063a1748e9f14620001f8578063ab1fa471146200021e578063cd3293de1462000254578063e4b262e8146200025e578063f3fef3a3146200026757600080fd5b80631500db3f14620000bc578063185cc75114620001165780632f380b35146200012f57806335ed8ab814620001795780633683ef571462000190575b600080fd5b620000f2620000cd366004620014d7565b60016020526000908152604090205460ff81169061010090046001600160a01b031682565b6040805192151583526001600160a01b039091166020830152015b60405180910390f35b6200012d62000127366004620014f7565b6200027e565b005b620001466200014036600462001526565b62000577565b604080516001600160a01b0390961686526020860194909452928401919091526060830152608082015260a0016200010d565b6200012d6200018a366004620014f7565b62000752565b620001a7620001a1366004620014f7565b62000a50565b604080516001600160a01b03909716875260208701959095529385019290925260608401526080830152151560a082015260c0016200010d565b6200012d620001f2366004620014f7565b62000b23565b6200020f62000209366004620014d7565b62001058565b6040519081526020016200010d565b620000f26200022f366004620014d7565b60026020526000908152604090205460ff81169061010090046001600160a01b031682565b6200020f60005481565b6003546200020f565b6200012d62000278366004620014f7565b6200110c565b3360008181526001602052604090205460ff16620002b95760405162461bcd60e51b8152600401620002b09062001540565b60405180910390fd5b6001600160a01b038316600090815260026020526040902054839060ff16620002f65760405162461bcd60e51b8152600401620002b09062001590565b6001600160a01b0380851660009081526002602090815260409182902054825163d0cb3cd160e01b8152925188948894610100909304169263d0cb3cd192600480820193918290030181865afa15801562000355573d6000803e3d6000fd5b505050506040513d601f19601f820116820180604052508101906200037b9190620015c5565b81106200039c5760405162461bcd60e51b8152600401620002b090620015df565b6001600160a01b038681166000908152600260209081526040808320543380855260019093529281902054905163185cc75160e01b81526004810192909252602482018990526101009283900484169392900490911690829063185cc75190604401600060405180830381600087803b1580156200041957600080fd5b505af11580156200042e573d6000803e3d6000fd5b50505050806001600160a01b031663cebc743d8989856001600160a01b03166388adcac16040518163ffffffff1660e01b8152600401602060405180830381865afa15801562000482573d6000803e3d6000fd5b505050506040513d601f19601f82011682018060405250810190620004a89190620015c5565b6040516001600160e01b031960e086901b1681526001600160a01b03909316600484015260248301919091526044820152606401600060405180830381600087803b158015620004f757600080fd5b505af11580156200050c573d6000803e3d6000fd5b50506040516334b3c50f60e01b81526001600160a01b038481166004830152851692506334b3c50f9150602401600060405180830381600087803b1580156200055457600080fd5b505af115801562000569573d6000803e3d6000fd5b505050505050505050505050565b6000806000806000806003878154811062000596576200059662001651565b60009182526020918290200154604080516313aedd4b60e31b815290516001600160a01b0390921693508392639d76ea58926004808401938290030181865afa158015620005e8573d6000803e3d6000fd5b505050506040513d601f19601f820116820180604052508101906200060e919062001667565b816001600160a01b031663d6c3d9946040518163ffffffff1660e01b8152600401602060405180830381865afa1580156200064d573d6000803e3d6000fd5b505050506040513d601f19601f82011682018060405250810190620006739190620015c5565b6012836001600160a01b03166361bc1a496040518163ffffffff1660e01b8152600401602060405180830381865afa158015620006b4573d6000803e3d6000fd5b505050506040513d601f19601f82011682018060405250810190620006da9190620015c5565b846001600160a01b0316631bf055796040518163ffffffff1660e01b8152600401602060405180830381865afa15801562000719573d6000803e3d6000fd5b505050506040513d601f19601f820116820180604052508101906200073f9190620015c5565b939b929a50909850965090945092505050565b3360008181526001602052604090205460ff16620007845760405162461bcd60e51b8152600401620002b09062001540565b6001600160a01b038316600090815260026020526040902054839060ff16620007c15760405162461bcd60e51b8152600401620002b09062001590565b6001600160a01b03848116600081815260026020908152604080832054338085526001909352928190205490516323b872dd60e01b8152600481019290925261010092839004851660248301819052604483018990529492900490911691906323b872dd906064016020604051808303816000875af115801562000849573d6000803e3d6000fd5b505050506040513d601f19601f820116820180604052508101906200086f919062001698565b620008b85760405162461bcd60e51b8152602060048201526018602482015277151c985b9cd9995c881bd9881d1bdad95b8819985a5b195960421b6044820152606401620002b0565b60405163a846c2fd60e01b8152600481018690526001600160a01b0383169063a846c2fd90602401600060405180830381600087803b158015620008fb57600080fd5b505af115801562000910573d6000803e3d6000fd5b5050604051630b56fd4960e01b81526001600160a01b0389811660048301526024820189905284169250630b56fd499150604401600060405180830381600087803b1580156200095f57600080fd5b505af115801562000974573d6000803e3d6000fd5b5050604051633ce6120160e21b81526001600160a01b0389811660048301528416925063f39848049150602401602060405180830381865afa158015620009bf573d6000803e3d6000fd5b505050506040513d601f19601f82011682018060405250810190620009e5919062001698565b62000a485760405163d9ed268560e01b81526001600160a01b03828116600483015283169063d9ed268590602401600060405180830381600087803b15801562000a2e57600080fd5b505af115801562000a43573d6000803e3d6000fd5b505050505b505050505050565b6001600160a01b0382166000908152600160205260408120548190819081908190819060ff161562000b19576001600160a01b0388811660008181526001602052604090819020549051633683ef5760e01b81526004810192909252602482018a90526101009004909116908190633683ef579060440160c060405180830381865afa15801562000ae5573d6000803e3d6000fd5b505050506040513d601f19601f8201168201806040525081019062000b0b9190620016b6565b965096509650965096509650505b9295509295509295565b604051636eb1769f60e11b815233600482015230602482015281906001600160a01b0384169063dd62ed3e90604401602060405180830381865afa15801562000b70573d6000803e3d6000fd5b505050506040513d601f19601f8201168201806040525081019062000b969190620015c5565b101562000bf25760405162461bcd60e51b8152602060048201526024808201527f5573657220617070726f76656420616d6f756e7420697320696e7375666669636044820152631a595b9d60e21b6064820152608401620002b0565b6001600160a01b03821660009081526002602052604090205460ff1662000d055760405180604001604052806001151581526020018360405162000c3690620014a2565b6001600160a01b039091168152602001604051809103906000f08015801562000c63573d6000803e3d6000fd5b506001600160a01b03908116909152838116600090815260026020908152604082208451815495909201516001600160a81b0319909516911515610100600160a81b03191691909117610100948416850217908190556003805460018101825592527fc2575a0e9e593c00f959f8c92f12db2869c3395a3b0502d05e2516446f71f85b9091018054939091049091166001600160a01b03199092169190911790555b3360009081526001602052604090205460ff1662000dc45760405180604001604052806001151581526020013360405162000d4090620014b0565b6001600160a01b039091168152602001604051809103906000f08015801562000d6d573d6000803e3d6000fd5b506001600160a01b039081169091523360009081526001602090815260409091208351815494909201516001600160a81b0319909416911515610100600160a81b0319169190911761010093909216929092021790555b6001600160a01b03828116600081815260026020908152604080832054338085526001909352928190205490516323b872dd60e01b8152600481019290925261010092839004851660248301819052604483018790529492900490911691906323b872dd906064016020604051808303816000875af115801562000e4c573d6000803e3d6000fd5b505050506040513d601f19601f8201168201806040525081019062000e72919062001698565b62000ebb5760405162461bcd60e51b8152602060048201526018602482015277151c985b9cd9995c881bd9881d1bdad95b8819985a5b195960421b6044820152606401620002b0565b60405163b6b55f2560e01b8152600481018490526001600160a01b0383169063b6b55f2590602401600060405180830381600087803b15801562000efe57600080fd5b505af115801562000f13573d6000803e3d6000fd5b50506040516334b3c50f60e01b81526001600160a01b038481166004830152851692506334b3c50f9150602401600060405180830381600087803b15801562000f5b57600080fd5b505af115801562000f70573d6000803e3d6000fd5b50505050806001600160a01b0316630e19ae768585856001600160a01b03166388adcac16040518163ffffffff1660e01b8152600401602060405180830381865afa15801562000fc4573d6000803e3d6000fd5b505050506040513d601f19601f8201168201806040525081019062000fea9190620015c5565b6040516001600160e01b031960e086901b1681526001600160a01b03909316600484015260248301919091526044820152606401600060405180830381600087803b1580156200103957600080fd5b505af11580156200104e573d6000803e3d6000fd5b5050505050505050565b6001600160a01b03811660009081526001602052604081205460ff161562001107576001600160a01b03808316600090815260016020908152604091829020548251632b8cee9160e11b81529251610100909104909316928392635719dd229260048083019391928290030181865afa158015620010da573d6000803e3d6000fd5b505050506040513d601f19601f82011682018060405250810190620011009190620015c5565b9392505050565b919050565b3360008181526001602052604090205460ff166200113e5760405162461bcd60e51b8152600401620002b09062001540565b6001600160a01b038316600090815260026020526040902054839060ff166200117b5760405162461bcd60e51b8152600401620002b09062001590565b336000818152600160205260409081902054905163776e4b3560e11b81526001600160a01b038781166004830152879287926101009091049091169063eedc966a90602401602060405180830381865afa158015620011de573d6000803e3d6000fd5b505050506040513d601f19601f82011682018060405250810190620012049190620015c5565b8112620012255760405162461bcd60e51b8152600401620002b090620015df565b6001600160a01b0380881660009081526002602090815260409182902054825163d0cb3cd160e01b815292518b948b94610100909304169263d0cb3cd192600480820193918290030181865afa15801562001284573d6000803e3d6000fd5b505050506040513d601f19601f82011682018060405250810190620012aa9190620015c5565b8110620012cb5760405162461bcd60e51b8152600401620002b090620015df565b6001600160a01b038981166000908152600260209081526040808320543380855260019093529281902054905163f3fef3a360e01b81526004810192909252602482018c90526101009283900484169392900490911690829063f3fef3a390604401600060405180830381600087803b1580156200134857600080fd5b505af11580156200135d573d6000803e3d6000fd5b5050604051637da7d3f160e01b81526001600160a01b038e81166004830152602482018e905284169250637da7d3f19150604401600060405180830381600087803b158015620013ac57600080fd5b505af1158015620013c1573d6000803e3d6000fd5b5050604051633ce6120160e21b81526001600160a01b038e811660048301528416925063f39848049150602401602060405180830381865afa1580156200140c573d6000803e3d6000fd5b505050506040513d601f19601f8201168201806040525081019062001432919062001698565b620014955760405163d9ed268560e01b81526001600160a01b03828116600483015283169063d9ed268590602401600060405180830381600087803b1580156200147b57600080fd5b505af115801562001490573d6000803e3d6000fd5b505050505b5050505050505050505050565b6109bd806200171883390190565b610b7680620020d583390190565b6001600160a01b0381168114620014d457600080fd5b50565b600060208284031215620014ea57600080fd5b81356200110081620014be565b600080604083850312156200150b57600080fd5b82356200151881620014be565b946020939093013593505050565b6000602082840312156200153957600080fd5b5035919050565b60208082526030908201527f4163636f756e74206f662074686973207573657220646f65736e27742065786960408201526f737420696e207468652073797374656d60801b606082015260800190565b6020808252818101527f506f6f6c206f66207468697320746f6b656e20646f65736e2774206578697374604082015260600190565b600060208284031215620015d857600080fd5b5051919050565b6020808252604c908201527f506f6f6c206f66207468697320746f6b656e20646f65736e277420686176652060408201527f73756666696369656e7420617661696c61626c652066756e6420666f7220746860608201526b34b99037b832b930ba34b7b760a11b608082015260a00190565b634e487b7160e01b600052603260045260246000fd5b6000602082840312156200167a57600080fd5b81516200110081620014be565b805180151581146200110757600080fd5b600060208284031215620016ab57600080fd5b620011008262001687565b60008060008060008060c08789031215620016d057600080fd5b8651620016dd81620014be565b80965050602087015194506040870151935060608701519250608087015191506200170b60a0880162001687565b9050929550929550929556fe6080604052600a6200001360128262000204565b6200002090600262000219565b6200002c91906200023b565b600055600a6200003e60128262000204565b6200004b90601462000219565b6200005791906200023b565b600155600a6200006960128262000204565b6200007690600862000219565b6200008291906200023b565b6002556000600455600060055560006006556000600755348015620000a657600080fd5b50604051620009bd380380620009bd833981016040819052620000c9916200025e565b600380546001600160a01b0319166001600160a01b039290921691909117905562000289565b634e487b7160e01b600052601160045260246000fd5b600181815b80851115620001465781600019048211156200012a576200012a620000ef565b808516156200013857918102915b93841c93908002906200010a565b509250929050565b6000826200015f57506001620001fe565b816200016e57506000620001fe565b81600181146200018757600281146200019257620001b2565b6001915050620001fe565b60ff841115620001a657620001a6620000ef565b50506001821b620001fe565b5060208310610133831016604e8410600b8410161715620001d7575081810a620001fe565b620001e3838362000105565b8060001904821115620001fa57620001fa620000ef565b0290505b92915050565b60006200021283836200014e565b9392505050565b6000816000190483118215151615620002365762000236620000ef565b500290565b6000826200025957634e487b7160e01b600052601260045260246000fd5b500490565b6000602082840312156200027157600080fd5b81516001600160a01b03811681146200021257600080fd5b61072480620002996000396000f3fe608060405234801561001057600080fd5b50600436106100cf5760003560e01c80639d76ea581161008c578063d0cb3cd111610066578063d0cb3cd1146101b7578063d6c3d994146101bf578063d9ed2685146101c8578063f3fef3a3146101db57600080fd5b80639d76ea5814610166578063a846c2fd14610191578063b6b55f25146101a457600080fd5b8063185cc751146100d45780631bf05579146100e957806334b3c50f1461010557806361bc1a49146101185780637c7dc0941461012157806388adcac11461015d575b600080fd5b6100e76100e23660046105d8565b6101ee565b005b6100f260055481565b6040519081526020015b60405180910390f35b6100e7610113366004610602565b610212565b6100f260045481565b61014d61012f366004610602565b6001600160a01b031660009081526009602052604090205460ff1690565b60405190151581526020016100fc565b6100f260065481565b600354610179906001600160a01b031681565b6040516001600160a01b0390911681526020016100fc565b6100e761019f366004610624565b6102e5565b6100e76101b2366004610624565b610305565b6100f2610317565b6100f260075481565b6100e76101d6366004610602565b61032e565b6100e76101e93660046105d8565b6103bc565b80600560008282546102009190610653565b9091555061020e90506103ce565b5050565b604051631f1f702560e21b81526001600160a01b03821660048201523090637c7dc09490602401602060405180830381865afa158015610256573d6000803e3d6000fd5b505050506040513d601f19601f8201168201806040525081019061027a919061066b565b6102e2576008805460018082019092557ff3f7a9fe364faab93b216da50a3214154f22a0a2b415b23a84c8169e8b636ee30180546001600160a01b0319166001600160a01b0384169081179091556000908152600960205260409020805460ff191690911790555b50565b80600560008282546102f7919061068d565b909155506102e290506103ce565b80600460008282546102f79190610653565b6000600554600454610329919061068d565b905090565b604051631f1f702560e21b81526001600160a01b03821660048201523090637c7dc09490602401602060405180830381865afa158015610372573d6000803e3d6000fd5b505050506040513d601f19601f82011682018060405250810190610396919061066b565b156102e2576001600160a01b03166000908152600960205260409020805460ff19169055565b8060046000828254610200919061068d565b60055460048054600254600054600154604051636bed508b60e11b815294850195909552602484019290925260448301526064820152608481019190915273__$399c488f34e53de4c155d62f7f1a443bc7$__9063d7daa1169060a401602060405180830381865af4158015610448573d6000803e3d6000fd5b505050506040513d601f19601f8201168201806040525081019061046c91906106a4565b60078190556040516311bb7e4960e31b8152600481019190915273__$399c488f34e53de4c155d62f7f1a443bc7$__90638ddbf24890602401602060405180830381865af41580156104c2573d6000803e3d6000fd5b505050506040513d601f19601f820116820180604052508101906104e691906106a4565b60065560005b6008548110156102e25760006008600001828154811061050e5761050e6106bd565b60009182526020808320909101546001600160a01b0316808352600990915260409091205490915060ff16156105a957600354600654604051631395702760e01b81526001600160a01b039283166004820152602481019190915290821690631395702790604401600060405180830381600087803b15801561059057600080fd5b505af11580156105a4573d6000803e3d6000fd5b505050505b50806105b4816106d3565b9150506104ec565b80356001600160a01b03811681146105d357600080fd5b919050565b600080604083850312156105eb57600080fd5b6105f4836105bc565b946020939093013593505050565b60006020828403121561061457600080fd5b61061d826105bc565b9392505050565b60006020828403121561063657600080fd5b5035919050565b634e487b7160e01b600052601160045260246000fd5b600082198211156106665761066661063d565b500190565b60006020828403121561067d57600080fd5b8151801515811461061d57600080fd5b60008282101561069f5761069f61063d565b500390565b6000602082840312156106b657600080fd5b5051919050565b634e487b7160e01b600052603260045260246000fd5b60006000198214156106e7576106e761063d565b506001019056fea26469706673582212201c9974a5f2ceabdc7aac3725a14f736887e9f701c78a4e19ceb5e7a65d3032e964736f6c634300080b0033608060405234801561001057600080fd5b50604051610b76380380610b7683398101604081905261002f91610054565b600080546001600160a01b0319166001600160a01b0392909216919091179055610084565b60006020828403121561006657600080fd5b81516001600160a01b038116811461007d57600080fd5b9392505050565b610ae3806100936000396000f3fe608060405234801561001057600080fd5b506004361061009e5760003560e01c80637da7d3f1116100665780637da7d3f114610141578063cebc743d14610154578063e4128fb314610167578063eedc966a14610192578063f3984804146101bf57600080fd5b80630b56fd49146100a35780630e19ae76146100b857806313957027146100cb5780633683ef57146100de5780635719dd221461012f575b600080fd5b6100b66100b13660046108c1565b6101fe565b005b6100b66100c63660046108eb565b610348565b6100b66100d93660046108c1565b610475565b6100f16100ec3660046108c1565b61054e565b604080516001600160a01b03909716875260208701959095529385019290925260608401526080830152151560a082015260c0015b60405180910390f35b6002545b604051908152602001610126565b6100b661014f3660046108c1565b6105c2565b6100b66101623660046108eb565b610703565b60005461017a906001600160a01b031681565b6040516001600160a01b039091168152602001610126565b6101336101a036600461091e565b6001600160a01b03166000908152600160208190526040909120015490565b6101ee6101cd36600461091e565b6001600160a01b031660009081526001602052604090206003015460ff1690565b6040519015158152602001610126565b600081136102275760405162461bcd60e51b815260040161021e90610940565b60405180910390fd5b6001600160a01b0382166000908152600160205260409020600381015460ff166102635760405162461bcd60e51b815260040161021e9061096c565b60008160010154126102b75760405162461bcd60e51b815260206004820181905260248201527f596f7520646f6e2774206f776520616e7920666f72207468697320746f6b656e604482015260640161021e565b80600101546102c5906109ca565b8213156103205760405162461bcd60e51b815260206004820152602360248201527f596f7520617265206f766572706179696e6720666f72207768617420796f75206044820152626f776560e81b606482015260840161021e565b8181600101600082825461033491906109e7565b90915550610343905083610840565b505050565b600082136103685760405162461bcd60e51b815260040161021e90610940565b6001600160a01b0383166000908152600160205260409020600381015460ff16156103ac57828160010160008282546103a191906109e7565b9091555061046f9050565b6040805160a0810182526001600160a01b03808716808352602080840188815284860188815260016060870181815242608089019081526000878152958390529885209751885497166001600160a01b03199788161788559251878201559051600280880191909155915160038701805491151560ff19909216919091179055955160049095019490945583549485018455929092527f405787fa12a823e0f2b7631cc41b3ba8828b3321ca811111fa75cd3aa3bb5ace90920180549092161790555b50505050565b6001600160a01b03821660009081526001602052604090206003810154429060ff161561046f5773__$399c488f34e53de4c155d62f7f1a443bc7$__63e24a9e6e836001015484600201548560040154856104d09190610a28565b6040516001600160e01b031960e086901b168152600481019390935260248301919091526044820152606401602060405180830381865af4158015610519573d6000803e3d6000fd5b505050506040513d601f19601f8201168201806040525081019061053d9190610a3f565b600183015560048201556002015550565b60008060008060008060006002888154811061056c5761056c610a58565b6000918252602080832091909101546001600160a01b031680835260019182905260409092209081015460028201546004830154600390930154939d919c509a506012995090975060ff90911695509350505050565b600081136105e25760405162461bcd60e51b815260040161021e90610940565b6001600160a01b0382166000908152600160205260409020600381015460ff1661061e5760405162461bcd60e51b815260040161021e9061096c565b60008160010154136106865760405162461bcd60e51b815260206004820152602b60248201527f596f75722062616c616e636520666f72207468697320746f6b656e206973206e60448201526a6f7420706f73697469766560a81b606482015260840161021e565b80600101548213156106ef5760405162461bcd60e51b815260206004820152602c60248201527f596f75206861766520696e73756666696369656e742062616c616e636520666f60448201526b39103a3434b9903a37b5b2b760a11b606482015260840161021e565b818160010160008282546103349190610a6e565b600082136107235760405162461bcd60e51b815260040161021e90610940565b6001600160a01b0383166000908152600160205260409020600381015460ff161561075c57828160010160008282546103a19190610a6e565b6040518060a00160405280856001600160a01b0316815260200184610780906109ca565b815260208082019490945260016040808301829052426060938401526001600160a01b039788166000818152838852828120865181546001600160a01b031990811691909c161781559786015188850155918501516002808901919091559385015160038801805460ff19169115159190911790556080909401516004909601959095558154908101825593527f405787fa12a823e0f2b7631cc41b3ba8828b3321ca811111fa75cd3aa3bb5ace90920180549094169091179092555050565b6001600160a01b0381166000908152600160205260409020600381015460ff168015610870575060058160010154125b8015610888575061088160056109ca565b8160010154135b156108a1576000600182015560038101805460ff191690555b5050565b80356001600160a01b03811681146108bc57600080fd5b919050565b600080604083850312156108d457600080fd5b6108dd836108a5565b946020939093013593505050565b60008060006060848603121561090057600080fd5b610909846108a5565b95602085013595506040909401359392505050565b60006020828403121561093057600080fd5b610939826108a5565b9392505050565b6020808252601290820152710416d6f756e74206d757374206265203e20360741b604082015260600190565b60208082526028908201527f596f7572204c6f616e206163636f756e7420646f65736e2774206861766520746040820152673434b99031b7b4b760c11b606082015260800190565b634e487b7160e01b600052601160045260246000fd5b6000600160ff1b8214156109e0576109e06109b4565b5060000390565b600080821280156001600160ff1b0384900385131615610a0957610a096109b4565b600160ff1b8390038412811615610a2257610a226109b4565b50500190565b600082821015610a3a57610a3a6109b4565b500390565b600060208284031215610a5157600080fd5b5051919050565b634e487b7160e01b600052603260045260246000fd5b60008083128015600160ff1b850184121615610a8c57610a8c6109b4565b6001600160ff1b0384018313811615610aa757610aa76109b4565b5050039056fea26469706673582212204c0b9e1ee2ed5e592ddbd089183a92ddeb6698a34034899a86612a8417e02c5464736f6c634300080b0033a264697066735822122035e1adcc698a1d50f483255269314f5f6aa6c0a344a1c5355da79570f436f0df64736f6c634300080b0033","language":"Solidity","natspec":{"methods":{},"kind":"dev","version":1},"opcodes":"PUSH1 0x80 PUSH1 0x40 MSTORE CALLVALUE DUP1 ISZERO PUSH3 0x11 JUMPI PUSH1 0x0 DUP1 REVERT JUMPDEST POP PUSH1 0x4 CALLDATASIZE LT PUSH3 0xB7 JUMPI PUSH1 0x0 CALLDATALOAD PUSH1 0xE0 SHR DUP1 PUSH4 0x47E7EF24 GT PUSH3 0x7A JUMPI DUP1 PUSH4 0x47E7EF24 EQ PUSH3 0x1E1 JUMPI DUP1 PUSH4 0xA1748E9F EQ PUSH3 0x1F8 JUMPI DUP1 PUSH4 0xAB1FA471 EQ PUSH3 0x21E JUMPI DUP1 PUSH4 0xCD3293DE EQ PUSH3 0x254 JUMPI DUP1 PUSH4 0xE4B262E8 EQ PUSH3 0x25E JUMPI DUP1 PUSH4 0xF3FEF3A3 EQ PUSH3 0x267 JUMPI PUSH1 0x0 DUP1 REVERT JUMPDEST DUP1 PUSH4 0x1500DB3F EQ PUSH3 0xBC JUMPI DUP1 PUSH4 0x185CC751 EQ PUSH3 0x116 JUMPI DUP1 PUSH4 0x2F380B35 EQ PUSH3 0x12F JUMPI DUP1 PUSH4 0x35ED8AB8 EQ PUSH3 0x179 JUMPI DUP1 PUSH4 0x3683EF57 EQ PUSH3 0x190 JUMPI JUMPDEST PUSH1 0x0 DUP1 REVERT JUMPDEST PUSH3 0xF2 PUSH3 0xCD CALLDATASIZE PUSH1 0x4 PUSH3 0x14D7 JUMP JUMPDEST PUSH1 0x1 PUSH1 0x20 MSTORE PUSH1 0x0 SWAP1 DUP2 MSTORE PUSH1 0x40 SWAP1 KECCAK256 SLOAD PUSH1 0xFF DUP2 AND SWAP1 PUSH2 0x100 SWAP1 DIV PUSH1 0x1 PUSH1 0x1 PUSH1 0xA0 SHL SUB AND DUP3 JUMP JUMPDEST PUSH1 0x40 DUP1 MLOAD SWAP3 ISZERO ISZERO DUP4 MSTORE PUSH1 0x1 PUSH1 0x1 PUSH1 0xA0 SHL SUB SWAP1 SWAP2 AND PUSH1 0x20 DUP4 ADD MSTORE ADD JUMPDEST PUSH1 0x40 MLOAD DUP1 SWAP2 SUB SWAP1 RETURN JUMPDEST PUSH3 0x12D PUSH3 0x127 CALLDATASIZE PUSH1 0x4 PUSH3 0x14F7 JUMP JUMPDEST PUSH3 0x27E JUMP JUMPDEST STOP JUMPDEST PUSH3 0x146 PUSH3 0x140 CALLDATASIZE PUSH1 0x4 PUSH3 0x1526 JUMP JUMPDEST PUSH3 0x577 JUMP JUMPDEST PUSH1 0x40 DUP1 MLOAD PUSH1 0x1 PUSH1 0x1 PUSH1 0xA0 SHL SUB SWAP1 SWAP7 AND DUP7 MSTORE PUSH1 0x20 DUP7 ADD SWAP5 SWAP1 SWAP5 MSTORE SWAP3 DUP5 ADD SWAP2 SWAP1 SWAP2 MSTORE PUSH1 0x60 DUP4 ADD MSTORE PUSH1 0x80 DUP3 ADD MSTORE PUSH1 0xA0 ADD PUSH3 0x10D JUMP JUMPDEST PUSH3 0x12D PUSH3 0x18A CALLDATASIZE PUSH1 0x4 PUSH3 0x14F7 JUMP JUMPDEST PUSH3 0x752 JUMP JUMPDEST PUSH3 0x1A7 PUSH3 0x1A1 CALLDATASIZE PUSH1 0x4 PUSH3 0x14F7 JUMP JUMPDEST PUSH3 0xA50 JUMP JUMPDEST PUSH1 0x40 DUP1 MLOAD PUSH1 0x1 PUSH1 0x1 PUSH1 0xA0 SHL SUB SWAP1 SWAP8 AND DUP8 MSTORE PUSH1 0x20 DUP8 ADD SWAP6 SWAP1 SWAP6 MSTORE SWAP4 DUP6 ADD SWAP3 SWAP1 SWAP3 MSTORE PUSH1 0x60 DUP5 ADD MSTORE PUSH1 0x80 DUP4 ADD MSTORE ISZERO ISZERO PUSH1 0xA0 DUP3 ADD MSTORE PUSH1 0xC0 ADD PUSH3 0x10D JUMP JUMPDEST PUSH3 0x12D PUSH3 0x1F2 CALLDATASIZE PUSH1 0x4 PUSH3 0x14F7 JUMP JUMPDEST PUSH3 0xB23 JUMP JUMPDEST PUSH3 0x20F PUSH3 0x209 CALLDATASIZE PUSH1 0x4 PUSH3 0x14D7 JUMP JUMPDEST PUSH3 0x1058 JUMP JUMPDEST PUSH1 0x40 MLOAD SWAP1 DUP2 MSTORE PUSH1 0x20 ADD PUSH3 0x10D JUMP JUMPDEST PUSH3 0xF2 PUSH3 0x22F CALLDATASIZE PUSH1 0x4 PUSH3 0x14D7 JUMP JUMPDEST PUSH1 0x2 PUSH1 0x20 MSTORE PUSH1 0x0 SWAP1 DUP2 MSTORE PUSH1 0x40 SWAP1 KECCAK256 SLOAD PUSH1 0xFF DUP2 AND SWAP1 PUSH2 0x100 SWAP1 DIV PUSH1 0x1 PUSH1 0x1 PUSH1 0xA0 SHL SUB AND DUP3 JUMP JUMPDEST PUSH3 0x20F PUSH1 0x0 SLOAD DUP2 JUMP JUMPDEST PUSH1 0x3 SLOAD PUSH3 0x20F JUMP JUMPDEST PUSH3 0x12D PUSH3 0x278 CALLDATASIZE PUSH1 0x4 PUSH3 0x14F7 JUMP JUMPDEST PUSH3 0x110C JUMP JUMPDEST CALLER PUSH1 0x0 DUP2 DUP2 MSTORE PUSH1 0x1 PUSH1 0x20 MSTORE PUSH1 0x40 SWAP1 KECCAK256 SLOAD PUSH1 0xFF AND PUSH3 0x2B9 JUMPI PUSH1 0x40 MLOAD PUSH3 0x461BCD PUSH1 0xE5 SHL DUP2 MSTORE PUSH1 0x4 ADD PUSH3 0x2B0 SWAP1 PUSH3 0x1540 JUMP JUMPDEST PUSH1 0x40 MLOAD DUP1 SWAP2 SUB SWAP1 REVERT JUMPDEST PUSH1 0x1 PUSH1 0x1 PUSH1 0xA0 SHL SUB DUP4 AND PUSH1 0x0 SWAP1 DUP2 MSTORE PUSH1 0x2 PUSH1 0x20 MSTORE PUSH1 0x40 SWAP1 KECCAK256 SLOAD DUP4 SWAP1 PUSH1 0xFF AND PUSH3 0x2F6 JUMPI PUSH1 0x40 MLOAD PUSH3 0x461BCD PUSH1 0xE5 SHL DUP2 MSTORE PUSH1 0x4 ADD PUSH3 0x2B0 SWAP1 PUSH3 0x1590 JUMP JUMPDEST PUSH1 0x1 PUSH1 0x1 PUSH1 0xA0 SHL SUB DUP1 DUP6 AND PUSH1 0x0 SWAP1 DUP2 MSTORE PUSH1 0x2 PUSH1 0x20 SWAP1 DUP2 MSTORE PUSH1 0x40 SWAP2 DUP3 SWAP1 KECCAK256 SLOAD DUP3 MLOAD PUSH4 0xD0CB3CD1 PUSH1 0xE0 SHL DUP2 MSTORE SWAP3 MLOAD DUP9 SWAP5 DUP9 SWAP5 PUSH2 0x100 SWAP1 SWAP4 DIV AND SWAP3 PUSH4 0xD0CB3CD1 SWAP3 PUSH1 0x4 DUP1 DUP3 ADD SWAP4 SWAP2 DUP3 SWAP1 SUB ADD DUP2 DUP7 GAS STATICCALL ISZERO DUP1 ISZERO PUSH3 0x355 JUMPI RETURNDATASIZE PUSH1 0x0 DUP1 RETURNDATACOPY RETURNDATASIZE PUSH1 0x0 REVERT JUMPDEST POP POP POP POP PUSH1 0x40 MLOAD RETURNDATASIZE PUSH1 0x1F NOT PUSH1 0x1F DUP3 ADD AND DUP3 ADD DUP1 PUSH1 0x40 MSTORE POP DUP2 ADD SWAP1 PUSH3 0x37B SWAP2 SWAP1 PUSH3 0x15C5 JUMP JUMPDEST DUP2 LT PUSH3 0x39C JUMPI PUSH1 0x40 MLOAD PUSH3 0x461BCD PUSH1 0xE5 SHL DUP2 MSTORE PUSH1 0x4 ADD PUSH3 0x2B0 SWAP1 PUSH3 0x15DF JUMP JUMPDEST PUSH1 0x1 PUSH1 0x1 PUSH1 0xA0 SHL SUB DUP7 DUP2 AND PUSH1 0x0 SWAP1 DUP2 MSTORE PUSH1 0x2 PUSH1 0x20 SWAP1 DUP2 MSTORE PUSH1 0x40 DUP1 DUP4 KECCAK256 SLOAD CALLER DUP1 DUP6 MSTORE PUSH1 0x1 SWAP1 SWAP4 MSTORE SWAP3 DUP2 SWAP1 KECCAK256 SLOAD SWAP1 MLOAD PUSH4 0x185CC751 PUSH1 0xE0 SHL DUP2 MSTORE PUSH1 0x4 DUP2 ADD SWAP3 SWAP1 SWAP3 MSTORE PUSH1 0x24 DUP3 ADD DUP10 SWAP1 MSTORE PUSH2 0x100 SWAP3 DUP4 SWAP1 DIV DUP5 AND SWAP4 SWAP3 SWAP1 DIV SWAP1 SWAP2 AND SWAP1 DUP3 SWAP1 PUSH4 0x185CC751 SWAP1 PUSH1 0x44 ADD PUSH1 0x0 PUSH1 0x40 MLOAD DUP1 DUP4 SUB DUP2 PUSH1 0x0 DUP8 DUP1 EXTCODESIZE ISZERO DUP1 ISZERO PUSH3 0x419 JUMPI PUSH1 0x0 DUP1 REVERT JUMPDEST POP GAS CALL ISZERO DUP1 ISZERO PUSH3 0x42E JUMPI RETURNDATASIZE PUSH1 0x0 DUP1 RETURNDATACOPY RETURNDATASIZE PUSH1 0x0 REVERT JUMPDEST POP POP POP POP DUP1 PUSH1 0x1 PUSH1 0x1 PUSH1 0xA0 SHL SUB AND PUSH4 0xCEBC743D DUP10 DUP10 DUP6 PUSH1 0x1 PUSH1 0x1 PUSH1 0xA0 SHL SUB AND PUSH4 0x88ADCAC1 PUSH1 0x40 MLOAD DUP2 PUSH4 0xFFFFFFFF AND PUSH1 0xE0 SHL DUP2 MSTORE PUSH1 0x4 ADD PUSH1 0x20 PUSH1 0x40 MLOAD DUP1 DUP4 SUB DUP2 DUP7 GAS STATICCALL ISZERO DUP1 ISZERO PUSH3 0x482 JUMPI RETURNDATASIZE PUSH1 0x0 DUP1 RETURNDATACOPY RETURNDATASIZE PUSH1 0x0 REVERT JUMPDEST POP POP POP POP PUSH1 0x40 MLOAD RETURNDATASIZE PUSH1 0x1F NOT PUSH1 0x1F DUP3 ADD AND DUP3 ADD DUP1 PUSH1 0x40 MSTORE POP DUP2 ADD SWAP1 PUSH3 0x4A8 SWAP2 SWAP1 PUSH3 0x15C5 JUMP JUMPDEST PUSH1 0x40 MLOAD PUSH1 0x1 PUSH1 0x1 PUSH1 0xE0 SHL SUB NOT PUSH1 0xE0 DUP7 SWAP1 SHL AND DUP2 MSTORE PUSH1 0x1 PUSH1 0x1 PUSH1 0xA0 SHL SUB SWAP1 SWAP4 AND PUSH1 0x4 DUP5 ADD MSTORE PUSH1 0x24 DUP4 ADD SWAP2 SWAP1 SWAP2 MSTORE PUSH1 0x44 DUP3 ADD MSTORE PUSH1 0x64 ADD PUSH1 0x0 PUSH1 0x40 MLOAD DUP1 DUP4 SUB DUP2 PUSH1 0x0 DUP8 DUP1 EXTCODESIZE ISZERO DUP1 ISZERO PUSH3 0x4F7 JUMPI PUSH1 0x0 DUP1 REVERT JUMPDEST POP GAS CALL ISZERO DUP1 ISZERO PUSH3 0x50C JUMPI RETURNDATASIZE PUSH1 0x0 DUP1 RETURNDATACOPY RETURNDATASIZE PUSH1 0x0 REVERT JUMPDEST POP POP PUSH1 0x40 MLOAD PUSH4 0x34B3C50F PUSH1 0xE0 SHL DUP2 MSTORE PUSH1 0x1 PUSH1 0x1 PUSH1 0xA0 SHL SUB DUP5 DUP2 AND PUSH1 0x4 DUP4 ADD MSTORE DUP6 AND SWAP3 POP PUSH4 0x34B3C50F SWAP2 POP PUSH1 0x24 ADD PUSH1 0x0 PUSH1 0x40 MLOAD DUP1 DUP4 SUB DUP2 PUSH1 0x0 DUP8 DUP1 EXTCODESIZE ISZERO DUP1 ISZERO PUSH3 0x554 JUMPI PUSH1 0x0 DUP1 REVERT JUMPDEST POP GAS CALL ISZERO DUP1 ISZERO PUSH3 0x569 JUMPI RETURNDATASIZE PUSH1 0x0 DUP1 RETURNDATACOPY RETURNDATASIZE PUSH1 0x0 REVERT JUMPDEST POP POP POP POP POP POP POP POP POP POP POP POP JUMP JUMPDEST PUSH1 0x0 DUP1 PUSH1 0x0 DUP1 PUSH1 0x0 DUP1 PUSH1 0x3 DUP8 DUP2 SLOAD DUP2 LT PUSH3 0x596 JUMPI PUSH3 0x596 PUSH3 0x1651 JUMP JUMPDEST PUSH1 0x0 SWAP2 DUP3 MSTORE PUSH1 0x20 SWAP2 DUP3 SWAP1 KECCAK256 ADD SLOAD PUSH1 0x40 DUP1 MLOAD PUSH4 0x13AEDD4B PUSH1 0xE3 SHL DUP2 MSTORE SWAP1 MLOAD PUSH1 0x1 PUSH1 0x1 PUSH1 0xA0 SHL SUB SWAP1 SWAP3 AND SWAP4 POP DUP4 SWAP3 PUSH4 0x9D76EA58 SWAP3 PUSH1 0x4 DUP1 DUP5 ADD SWAP4 DUP3 SWAP1 SUB ADD DUP2 DUP7 GAS STATICCALL ISZERO DUP1 ISZERO PUSH3 0x5E8 JUMPI RETURNDATASIZE PUSH1 0x0 DUP1 RETURNDATACOPY RETURNDATASIZE PUSH1 0x0 REVERT JUMPDEST POP POP POP POP PUSH1 0x40 MLOAD RETURNDATASIZE PUSH1 0x1F NOT PUSH1 0x1F DUP3 ADD AND DUP3 ADD DUP1 PUSH1 0x40 MSTORE POP DUP2 ADD SWAP1 PUSH3 0x60E SWAP2 SWAP1 PUSH3 0x1667 JUMP JUMPDEST DUP2 PUSH1 0x1 PUSH1 0x1 PUSH1 0xA0 SHL SUB AND PUSH4 0xD6C3D994 PUSH1 0x40 MLOAD DUP2 PUSH4 0xFFFFFFFF AND PUSH1 0xE0 SHL DUP2 MSTORE PUSH1 0x4 ADD PUSH1 0x20 PUSH1 0x40 MLOAD DUP1 DUP4 SUB DUP2 DUP7 GAS STATICCALL ISZERO DUP1 ISZERO PUSH3 0x64D JUMPI RETURNDATASIZE PUSH1 0x0 DUP1 RETURNDATACOPY RETURNDATASIZE PUSH1 0x0 REVERT JUMPDEST POP POP POP POP PUSH1 0x40 MLOAD RETURNDATASIZE PUSH1 0x1F NOT PUSH1 0x1F DUP3 ADD AND DUP3 ADD DUP1 PUSH1 0x40 MSTORE POP DUP2 ADD SWAP1 PUSH3 0x673 SWAP2 SWAP1 PUSH3 0x15C5 JUMP JUMPDEST PUSH1 0x12 DUP4 PUSH1 0x1 PUSH1 0x1 PUSH1 0xA0 SHL SUB AND PUSH4 0x61BC1A49 PUSH1 0x40 MLOAD DUP2 PUSH4 0xFFFFFFFF AND PUSH1 0xE0 SHL DUP2 MSTORE PUSH1 0x4 ADD PUSH1 0x20 PUSH1 0x40 MLOAD DUP1 DUP4 SUB DUP2 DUP7 GAS STATICCALL ISZERO DUP1 ISZERO PUSH3 0x6B4 JUMPI RETURNDATASIZE PUSH1 0x0 DUP1 RETURNDATACOPY RETURNDATASIZE PUSH1 0x0 REVERT JUMPDEST POP POP POP POP PUSH1 0x40 MLOAD RETURNDATASIZE PUSH1 0x1F NOT PUSH1 0x1F DUP3 ADD AND DUP3 ADD DUP1 PUSH1 0x40 MSTORE POP DUP2 ADD SWAP1 PUSH3 0x6DA SWAP2 SWAP1 PUSH3 0x15C5 JUMP JUMPDEST DUP5 PUSH1 0x1 PUSH1 0x1 PUSH1 0xA0 SHL SUB AND PUSH4 0x1BF05579 PUSH1 0x40 MLOAD DUP2 PUSH4 0xFFFFFFFF AND PUSH1 0xE0 SHL DUP2 MSTORE PUSH1 0x4 ADD PUSH1 0x20 PUSH1 0x40 MLOAD DUP1 DUP4 SUB DUP2 DUP7 GAS STATICCALL ISZERO DUP1 ISZERO PUSH3 0x719 JUMPI RETURNDATASIZE PUSH1 0x0 DUP1 RETURNDATACOPY RETURNDATASIZE PUSH1 0x0 REVERT JUMPDEST POP POP POP POP PUSH1 0x40 MLOAD RETURNDATASIZE PUSH1 0x1F NOT PUSH1 0x1F DUP3 ADD AND DUP3 ADD DUP1 PUSH1 0x40 MSTORE POP DUP2 ADD SWAP1 PUSH3 0x73F SWAP2 SWAP1 PUSH3 0x15C5 JUMP JUMPDEST SWAP4 SWAP12 SWAP3 SWAP11 POP SWAP1 SWAP9 POP SWAP7 POP SWAP1 SWAP5 POP SWAP3 POP POP POP JUMP JUMPDEST CALLER PUSH1 0x0 DUP2 DUP2 MSTORE PUSH1 0x1 PUSH1 0x20 MSTORE PUSH1 0x40 SWAP1 KECCAK256 SLOAD PUSH1 0xFF AND PUSH3 0x784 JUMPI PUSH1 0x40 MLOAD PUSH3 0x461BCD PUSH1 0xE5 SHL DUP2 MSTORE PUSH1 0x4 ADD PUSH3 0x2B0 SWAP1 PUSH3 0x1540 JUMP JUMPDEST PUSH1 0x1 PUSH1 0x1 PUSH1 0xA0 SHL SUB DUP4 AND PUSH1 0x0 SWAP1 DUP2 MSTORE PUSH1 0x2 PUSH1 0x20 MSTORE PUSH1 0x40 SWAP1 KECCAK256 SLOAD DUP4 SWAP1 PUSH1 0xFF AND PUSH3 0x7C1 JUMPI PUSH1 0x40 MLOAD PUSH3 0x461BCD PUSH1 0xE5 SHL DUP2 MSTORE PUSH1 0x4 ADD PUSH3 0x2B0 SWAP1 PUSH3 0x1590 JUMP JUMPDEST PUSH1 0x1 PUSH1 0x1 PUSH1 0xA0 SHL SUB DUP5 DUP2 AND PUSH1 0x0 DUP2 DUP2 MSTORE PUSH1 0x2 PUSH1 0x20 SWAP1 DUP2 MSTORE PUSH1 0x40 DUP1 DUP4 KECCAK256 SLOAD CALLER DUP1 DUP6 MSTORE PUSH1 0x1 SWAP1 SWAP4 MSTORE SWAP3 DUP2 SWAP1 KECCAK256 SLOAD SWAP1 MLOAD PUSH4 0x23B872DD PUSH1 0xE0 SHL DUP2 MSTORE PUSH1 0x4 DUP2 ADD SWAP3 SWAP1 SWAP3 MSTORE PUSH2 0x100 SWAP3 DUP4 SWAP1 DIV DUP6 AND PUSH1 0x24 DUP4 ADD DUP2 SWAP1 MSTORE PUSH1 0x44 DUP4 ADD DUP10 SWAP1 MSTORE SWAP5 SWAP3 SWAP1 DIV SWAP1 SWAP2 AND SWAP2 SWAP1 PUSH4 0x23B872DD SWAP1 PUSH1 0x64 ADD PUSH1 0x20 PUSH1 0x40 MLOAD DUP1 DUP4 SUB DUP2 PUSH1 0x0 DUP8 GAS CALL ISZERO DUP1 ISZERO PUSH3 0x849 JUMPI RETURNDATASIZE PUSH1 0x0 DUP1 RETURNDATACOPY RETURNDATASIZE PUSH1 0x0 REVERT JUMPDEST POP POP POP POP PUSH1 0x40 MLOAD RETURNDATASIZE PUSH1 0x1F NOT PUSH1 0x1F DUP3 ADD AND DUP3 ADD DUP1 PUSH1 0x40 MSTORE POP DUP2 ADD SWAP1 PUSH3 0x86F SWAP2 SWAP1 PUSH3 0x1698 JUMP JUMPDEST PUSH3 0x8B8 JUMPI PUSH1 0x40 MLOAD PUSH3 0x461BCD PUSH1 0xE5 SHL DUP2 MSTORE PUSH1 0x20 PUSH1 0x4 DUP3 ADD MSTORE PUSH1 0x18 PUSH1 0x24 DUP3 ADD MSTORE PUSH24 0x151C985B9CD9995C881BD9881D1BDAD95B8819985A5B1959 PUSH1 0x42 SHL PUSH1 0x44 DUP3 ADD MSTORE PUSH1 0x64 ADD PUSH3 0x2B0 JUMP JUMPDEST PUSH1 0x40 MLOAD PUSH4 0xA846C2FD PUSH1 0xE0 SHL DUP2 MSTORE PUSH1 0x4 DUP2 ADD DUP7 SWAP1 MSTORE PUSH1 0x1 PUSH1 0x1 PUSH1 0xA0 SHL SUB DUP4 AND SWAP1 PUSH4 0xA846C2FD SWAP1 PUSH1 0x24 ADD PUSH1 0x0 PUSH1 0x40 MLOAD DUP1 DUP4 SUB DUP2 PUSH1 0x0 DUP8 DUP1 EXTCODESIZE ISZERO DUP1 ISZERO PUSH3 0x8FB JUMPI PUSH1 0x0 DUP1 REVERT JUMPDEST POP GAS CALL ISZERO DUP1 ISZERO PUSH3 0x910 JUMPI RETURNDATASIZE PUSH1 0x0 DUP1 RETURNDATACOPY RETURNDATASIZE PUSH1 0x0 REVERT JUMPDEST POP POP PUSH1 0x40 MLOAD PUSH4 0xB56FD49 PUSH1 0xE0 SHL DUP2 MSTORE PUSH1 0x1 PUSH1 0x1 PUSH1 0xA0 SHL SUB DUP10 DUP2 AND PUSH1 0x4 DUP4 ADD MSTORE PUSH1 0x24 DUP3 ADD DUP10 SWAP1 MSTORE DUP5 AND SWAP3 POP PUSH4 0xB56FD49 SWAP2 POP PUSH1 0x44 ADD PUSH1 0x0 PUSH1 0x40 MLOAD DUP1 DUP4 SUB DUP2 PUSH1 0x0 DUP8 DUP1 EXTCODESIZE ISZERO DUP1 ISZERO PUSH3 0x95F JUMPI PUSH1 0x0 DUP1 REVERT JUMPDEST POP GAS CALL ISZERO DUP1 ISZERO PUSH3 0x974 JUMPI RETURNDATASIZE PUSH1 0x0 DUP1 RETURNDATACOPY RETURNDATASIZE PUSH1 0x0 REVERT JUMPDEST POP POP PUSH1 0x40 MLOAD PUSH4 0x3CE61201 PUSH1 0xE2 SHL DUP2 MSTORE PUSH1 0x1 PUSH1 0x1 PUSH1 0xA0 SHL SUB DUP10 DUP2 AND PUSH1 0x4 DUP4 ADD MSTORE DUP5 AND SWAP3 POP PUSH4 0xF3984804 SWAP2 POP PUSH1 0x24 ADD PUSH1 0x20 PUSH1 0x40 MLOAD DUP1 DUP4 SUB DUP2 DUP7 GAS STATICCALL ISZERO DUP1 ISZERO PUSH3 0x9BF JUMPI RETURNDATASIZE PUSH1 0x0 DUP1 RETURNDATACOPY RETURNDATASIZE PUSH1 0x0 REVERT JUMPDEST POP POP POP POP PUSH1 0x40 MLOAD RETURNDATASIZE PUSH1 0x1F NOT PUSH1 0x1F DUP3 ADD AND DUP3 ADD DUP1 PUSH1 0x40 MSTORE POP DUP2 ADD SWAP1 PUSH3 0x9E5 SWAP2 SWAP1 PUSH3 0x1698 JUMP JUMPDEST PUSH3 0xA48 JUMPI PUSH1 0x40 MLOAD PUSH4 0xD9ED2685 PUSH1 0xE0 SHL DUP2 MSTORE PUSH1 0x1 PUSH1 0x1 PUSH1 0xA0 SHL SUB DUP3 DUP2 AND PUSH1 0x4 DUP4 ADD MSTORE DUP4 AND SWAP1 PUSH4 0xD9ED2685 SWAP1 PUSH1 0x24 ADD PUSH1 0x0 PUSH1 0x40 MLOAD DUP1 DUP4 SUB DUP2 PUSH1 0x0 DUP8 DUP1 EXTCODESIZE ISZERO DUP1 ISZERO PUSH3 0xA2E JUMPI PUSH1 0x0 DUP1 REVERT JUMPDEST POP GAS CALL ISZERO DUP1 ISZERO PUSH3 0xA43 JUMPI RETURNDATASIZE PUSH1 0x0 DUP1 RETURNDATACOPY RETURNDATASIZE PUSH1 0x0 REVERT JUMPDEST POP POP POP POP JUMPDEST POP POP POP POP POP POP JUMP JUMPDEST PUSH1 0x1 PUSH1 0x1 PUSH1 0xA0 SHL SUB DUP3 AND PUSH1 0x0 SWAP1 DUP2 MSTORE PUSH1 0x1 PUSH1 0x20 MSTORE PUSH1 0x40 DUP2 KECCAK256 SLOAD DUP2 SWAP1 DUP2 SWAP1 DUP2 SWAP1 DUP2 SWAP1 DUP2 SWAP1 PUSH1 0xFF AND ISZERO PUSH3 0xB19 JUMPI PUSH1 0x1 PUSH1 0x1 PUSH1 0xA0 SHL SUB DUP9 DUP2 AND PUSH1 0x0 DUP2 DUP2 MSTORE PUSH1 0x1 PUSH1 0x20 MSTORE PUSH1 0x40 SWAP1 DUP2 SWAP1 KECCAK256 SLOAD SWAP1 MLOAD PUSH4 0x3683EF57 PUSH1 0xE0 SHL DUP2 MSTORE PUSH1 0x4 DUP2 ADD SWAP3 SWAP1 SWAP3 MSTORE PUSH1 0x24 DUP3 ADD DUP11 SWAP1 MSTORE PUSH2 0x100 SWAP1 DIV SWAP1 SWAP2 AND SWAP1 DUP2 SWAP1 PUSH4 0x3683EF57 SWAP1 PUSH1 0x44 ADD PUSH1 0xC0 PUSH1 0x40 MLOAD DUP1 DUP4 SUB DUP2 DUP7 GAS STATICCALL ISZERO DUP1 ISZERO PUSH3 0xAE5 JUMPI RETURNDATASIZE PUSH1 0x0 DUP1 RETURNDATACOPY RETURNDATASIZE PUSH1 0x0 REVERT JUMPDEST POP POP POP POP PUSH1 0x40 MLOAD RETURNDATASIZE PUSH1 0x1F NOT PUSH1 0x1F DUP3 ADD AND DUP3 ADD DUP1 PUSH1 0x40 MSTORE POP DUP2 ADD SWAP1 PUSH3 0xB0B SWAP2 SWAP1 PUSH3 0x16B6 JUMP JUMPDEST SWAP7 POP SWAP7 POP SWAP7 POP SWAP7 POP SWAP7 POP SWAP7 POP POP JUMPDEST SWAP3 SWAP6 POP SWAP3 SWAP6 POP SWAP3 SWAP6 JUMP JUMPDEST PUSH1 0x40 MLOAD PUSH4 0x6EB1769F PUSH1 0xE1 SHL DUP2 MSTORE CALLER PUSH1 0x4 DUP3 ADD MSTORE ADDRESS PUSH1 0x24 DUP3 ADD MSTORE DUP2 SWAP1 PUSH1 0x1 PUSH1 0x1 PUSH1 0xA0 SHL SUB DUP5 AND SWAP1 PUSH4 0xDD62ED3E SWAP1 PUSH1 0x44 ADD PUSH1 0x20 PUSH1 0x40 MLOAD DUP1 DUP4 SUB DUP2 DUP7 GAS STATICCALL ISZERO DUP1 ISZERO PUSH3 0xB70 JUMPI RETURNDATASIZE PUSH1 0x0 DUP1 RETURNDATACOPY RETURNDATASIZE PUSH1 0x0 REVERT JUMPDEST POP POP POP POP PUSH1 0x40 MLOAD RETURNDATASIZE PUSH1 0x1F NOT PUSH1 0x1F DUP3 ADD AND DUP3 ADD DUP1 PUSH1 0x40 MSTORE POP DUP2 ADD SWAP1 PUSH3 0xB96 SWAP2 SWAP1 PUSH3 0x15C5 JUMP JUMPDEST LT ISZERO PUSH3 0xBF2 JUMPI PUSH1 0x40 MLOAD PUSH3 0x461BCD PUSH1 0xE5 SHL DUP2 MSTORE PUSH1 0x20 PUSH1 0x4 DUP3 ADD MSTORE PUSH1 0x24 DUP1 DUP3 ADD MSTORE PUSH32 0x5573657220617070726F76656420616D6F756E7420697320696E737566666963 PUSH1 0x44 DUP3 ADD MSTORE PUSH4 0x1A595B9D PUSH1 0xE2 SHL PUSH1 0x64 DUP3 ADD MSTORE PUSH1 0x84 ADD PUSH3 0x2B0 JUMP JUMPDEST PUSH1 0x1 PUSH1 0x1 PUSH1 0xA0 SHL SUB DUP3 AND PUSH1 0x0 SWAP1 DUP2 MSTORE PUSH1 0x2 PUSH1 0x20 MSTORE PUSH1 0x40 SWAP1 KECCAK256 SLOAD PUSH1 0xFF AND PUSH3 0xD05 JUMPI PUSH1 0x40 MLOAD DUP1 PUSH1 0x40 ADD PUSH1 0x40 MSTORE DUP1 PUSH1 0x1 ISZERO ISZERO DUP2 MSTORE PUSH1 0x20 ADD DUP4 PUSH1 0x40 MLOAD PUSH3 0xC36 SWAP1 PUSH3 0x14A2 JUMP JUMPDEST PUSH1 0x1 PUSH1 0x1 PUSH1 0xA0 SHL SUB SWAP1 SWAP2 AND DUP2 MSTORE PUSH1 0x20 ADD PUSH1 0x40 MLOAD DUP1 SWAP2 SUB SWAP1 PUSH1 0x0 CREATE DUP1 ISZERO DUP1 ISZERO PUSH3 0xC63 JUMPI RETURNDATASIZE PUSH1 0x0 DUP1 RETURNDATACOPY RETURNDATASIZE PUSH1 0x0 REVERT JUMPDEST POP PUSH1 0x1 PUSH1 0x1 PUSH1 0xA0 SHL SUB SWAP1 DUP2 AND SWAP1 SWAP2 MSTORE DUP4 DUP2 AND PUSH1 0x0 SWAP1 DUP2 MSTORE PUSH1 0x2 PUSH1 0x20 SWAP1 DUP2 MSTORE PUSH1 0x40 DUP3 KECCAK256 DUP5 MLOAD DUP2 SLOAD SWAP6 SWAP1 SWAP3 ADD MLOAD PUSH1 0x1 PUSH1 0x1 PUSH1 0xA8 SHL SUB NOT SWAP1 SWAP6 AND SWAP2 ISZERO ISZERO PUSH2 0x100 PUSH1 0x1 PUSH1 0xA8 SHL SUB NOT AND SWAP2 SWAP1 SWAP2 OR PUSH2 0x100 SWAP5 DUP5 AND DUP6 MUL OR SWAP1 DUP2 SWAP1 SSTORE PUSH1 0x3 DUP1 SLOAD PUSH1 0x1 DUP2 ADD DUP3 SSTORE SWAP3 MSTORE PUSH32 0xC2575A0E9E593C00F959F8C92F12DB2869C3395A3B0502D05E2516446F71F85B SWAP1 SWAP2 ADD DUP1 SLOAD SWAP4 SWAP1 SWAP2 DIV SWAP1 SWAP2 AND PUSH1 0x1 PUSH1 0x1 PUSH1 0xA0 SHL SUB NOT SWAP1 SWAP3 AND SWAP2 SWAP1 SWAP2 OR SWAP1 SSTORE JUMPDEST CALLER PUSH1 0x0 SWAP1 DUP2 MSTORE PUSH1 0x1 PUSH1 0x20 MSTORE PUSH1 0x40 SWAP1 KECCAK256 SLOAD PUSH1 0xFF AND PUSH3 0xDC4 JUMPI PUSH1 0x40 MLOAD DUP1 PUSH1 0x40 ADD PUSH1 0x40 MSTORE DUP1 PUSH1 0x1 ISZERO ISZERO DUP2 MSTORE PUSH1 0x20 ADD CALLER PUSH1 0x40 MLOAD PUSH3 0xD40 SWAP1 PUSH3 0x14B0 JUMP JUMPDEST PUSH1 0x1 PUSH1 0x1 PUSH1 0xA0 SHL SUB SWAP1 SWAP2 AND DUP2 MSTORE PUSH1 0x20 ADD PUSH1 0x40 MLOAD DUP1 SWAP2 SUB SWAP1 PUSH1 0x0 CREATE DUP1 ISZERO DUP1 ISZERO PUSH3 0xD6D JUMPI RETURNDATASIZE PUSH1 0x0 DUP1 RETURNDATACOPY RETURNDATASIZE PUSH1 0x0 REVERT JUMPDEST POP PUSH1 0x1 PUSH1 0x1 PUSH1 0xA0 SHL SUB SWAP1 DUP2 AND SWAP1 SWAP2 MSTORE CALLER PUSH1 0x0 SWAP1 DUP2 MSTORE PUSH1 0x1 PUSH1 0x20 SWAP1 DUP2 MSTORE PUSH1 0x40 SWAP1 SWAP2 KECCAK256 DUP4 MLOAD DUP2 SLOAD SWAP5 SWAP1 SWAP3 ADD MLOAD PUSH1 0x1 PUSH1 0x1 PUSH1 0xA8 SHL SUB NOT SWAP1 SWAP5 AND SWAP2 ISZERO ISZERO PUSH2 0x100 PUSH1 0x1 PUSH1 0xA8 SHL SUB NOT AND SWAP2 SWAP1 SWAP2 OR PUSH2 0x100 SWAP4 SWAP1 SWAP3 AND SWAP3 SWAP1 SWAP3 MUL OR SWAP1 SSTORE JUMPDEST PUSH1 0x1 PUSH1 0x1 PUSH1 0xA0 SHL SUB DUP3 DUP2 AND PUSH1 0x0 DUP2 DUP2 MSTORE PUSH1 0x2 PUSH1 0x20 SWAP1 DUP2 MSTORE PUSH1 0x40 DUP1 DUP4 KECCAK256 SLOAD CALLER DUP1 DUP6 MSTORE PUSH1 0x1 SWAP1 SWAP4 MSTORE SWAP3 DUP2 SWAP1 KECCAK256 SLOAD SWAP1 MLOAD PUSH4 0x23B872DD PUSH1 0xE0 SHL DUP2 MSTORE PUSH1 0x4 DUP2 ADD SWAP3 SWAP1 SWAP3 MSTORE PUSH2 0x100 SWAP3 DUP4 SWAP1 DIV DUP6 AND PUSH1 0x24 DUP4 ADD DUP2 SWAP1 MSTORE PUSH1 0x44 DUP4 ADD DUP8 SWAP1 MSTORE SWAP5 SWAP3 SWAP1 DIV SWAP1 SWAP2 AND SWAP2 SWAP1 PUSH4 0x23B872DD SWAP1 PUSH1 0x64 ADD PUSH1 0x20 PUSH1 0x40 MLOAD DUP1 DUP4 SUB DUP2 PUSH1 0x0 DUP8 GAS CALL ISZERO DUP1 ISZERO PUSH3 0xE4C JUMPI RETURNDATASIZE PUSH1 0x0 DUP1 RETURNDATACOPY RETURNDATASIZE PUSH1 0x0 REVERT JUMPDEST POP POP POP POP PUSH1 0x40 MLOAD RETURNDATASIZE PUSH1 0x1F NOT PUSH1 0x1F DUP3 ADD AND DUP3 ADD DUP1 PUSH1 0x40 MSTORE POP DUP2 ADD SWAP1 PUSH3 0xE72 SWAP2 SWAP1 PUSH3 0x1698 JUMP JUMPDEST PUSH3 0xEBB JUMPI PUSH1 0x40 MLOAD PUSH3 0x461BCD PUSH1 0xE5 SHL DUP2 MSTORE PUSH1 0x20 PUSH1 0x4 DUP3 ADD MSTORE PUSH1 0x18 PUSH1 0x24 DUP3 ADD MSTORE PUSH24 0x151C985B9CD9995C881BD9881D1BDAD95B8819985A5B1959 PUSH1 0x42 SHL PUSH1 0x44 DUP3 ADD MSTORE PUSH1 0x64 ADD PUSH3 0x2B0 JUMP JUMPDEST PUSH1 0x40 MLOAD PUSH4 0xB6B55F25 PUSH1 0xE0 SHL DUP2 MSTORE PUSH1 0x4 DUP2 ADD DUP5 SWAP1 MSTORE PUSH1 0x1 PUSH1 0x1 PUSH1 0xA0 SHL SUB DUP4 AND SWAP1 PUSH4 0xB6B55F25 SWAP1 PUSH1 0x24 ADD PUSH1 0x0 PUSH1 0x40 MLOAD DUP1 DUP4 SUB DUP2 PUSH1 0x0 DUP8 DUP1 EXTCODESIZE ISZERO DUP1 ISZERO PUSH3 0xEFE JUMPI PUSH1 0x0 DUP1 REVERT JUMPDEST POP GAS CALL ISZERO DUP1 ISZERO PUSH3 0xF13 JUMPI RETURNDATASIZE PUSH1 0x0 DUP1 RETURNDATACOPY RETURNDATASIZE PUSH1 0x0 REVERT JUMPDEST POP POP PUSH1 0x40 MLOAD PUSH4 0x34B3C50F PUSH1 0xE0 SHL DUP2 MSTORE PUSH1 0x1 PUSH1 0x1 PUSH1 0xA0 SHL SUB DUP5 DUP2 AND PUSH1 0x4 DUP4 ADD MSTORE DUP6 AND SWAP3 POP PUSH4 0x34B3C50F SWAP2 POP PUSH1 0x24 ADD PUSH1 0x0 PUSH1 0x40 MLOAD DUP1 DUP4 SUB DUP2 PUSH1 0x0 DUP8 DUP1 EXTCODESIZE ISZERO DUP1 ISZERO PUSH3 0xF5B JUMPI PUSH1 0x0 DUP1 REVERT JUMPDEST POP GAS CALL ISZERO DUP1 ISZERO PUSH3 0xF70 JUMPI RETURNDATASIZE PUSH1 0x0 DUP1 RETURNDATACOPY RETURNDATASIZE PUSH1 0x0 REVERT JUMPDEST POP POP POP POP DUP1 PUSH1 0x1 PUSH1 0x1 PUSH1 0xA0 SHL SUB AND PUSH4 0xE19AE76 DUP6 DUP6 DUP6 PUSH1 0x1 PUSH1 0x1 PUSH1 0xA0 SHL SUB AND PUSH4 0x88ADCAC1 PUSH1 0x40 MLOAD DUP2 PUSH4 0xFFFFFFFF AND PUSH1 0xE0 SHL DUP2 MSTORE PUSH1 0x4 ADD PUSH1 0x20 PUSH1 0x40 MLOAD DUP1 DUP4 SUB DUP2 DUP7 GAS STATICCALL ISZERO DUP1 ISZERO PUSH3 0xFC4 JUMPI RETURNDATASIZE PUSH1 0x0 DUP1 RETURNDATACOPY RETURNDATASIZE PUSH1 0x0 REVERT JUMPDEST POP POP POP POP PUSH1 0x40 MLOAD RETURNDATASIZE PUSH1 0x1F NOT PUSH1 0x1F DUP3 ADD AND DUP3 ADD DUP1 PUSH1 0x40 MSTORE POP DUP2 ADD SWAP1 PUSH3 0xFEA SWAP2 SWAP1 PUSH3 0x15C5 JUMP JUMPDEST PUSH1 0x40 MLOAD PUSH1 0x1 PUSH1 0x1 PUSH1 0xE0 SHL SUB NOT PUSH1 0xE0 DUP7 SWAP1 SHL AND DUP2 MSTORE PUSH1 0x1 PUSH1 0x1 PUSH1 0xA0 SHL SUB SWAP1 SWAP4 AND PUSH1 0x4 DUP5 ADD MSTORE PUSH1 0x24 DUP4 ADD SWAP2 SWAP1 SWAP2 MSTORE PUSH1 0x44 DUP3 ADD MSTORE PUSH1 0x64 ADD PUSH1 0x0 PUSH1 0x40 MLOAD DUP1 DUP4 SUB DUP2 PUSH1 0x0 DUP8 DUP1 EXTCODESIZE ISZERO DUP1 ISZERO PUSH3 0x1039 JUMPI PUSH1 0x0 DUP1 REVERT JUMPDEST POP GAS CALL ISZERO DUP1 ISZERO PUSH3 0x104E JUMPI RETURNDATASIZE PUSH1 0x0 DUP1 RETURNDATACOPY RETURNDATASIZE PUSH1 0x0 REVERT JUMPDEST POP POP POP POP POP POP POP POP JUMP JUMPDEST PUSH1 0x1 PUSH1 0x1 PUSH1 0xA0 SHL SUB DUP2 AND PUSH1 0x0 SWAP1 DUP2 MSTORE PUSH1 0x1 PUSH1 0x20 MSTORE PUSH1 0x40 DUP2 KECCAK256 SLOAD PUSH1 0xFF AND ISZERO PUSH3 0x1107 JUMPI PUSH1 0x1 PUSH1 0x1 PUSH1 0xA0 SHL SUB DUP1 DUP4 AND PUSH1 0x0 SWAP1 DUP2 MSTORE PUSH1 0x1 PUSH1 0x20 SWAP1 DUP2 MSTORE PUSH1 0x40 SWAP2 DUP3 SWAP1 KECCAK256 SLOAD DUP3 MLOAD PUSH4 0x2B8CEE91 PUSH1 0xE1 SHL DUP2 MSTORE SWAP3 MLOAD PUSH2 0x100 SWAP1 SWAP2 DIV SWAP1 SWAP4 AND SWAP3 DUP4 SWAP3 PUSH4 0x5719DD22 SWAP3 PUSH1 0x4 DUP1 DUP4 ADD SWAP4 SWAP2 SWAP3 DUP3 SWAP1 SUB ADD DUP2 DUP7 GAS STATICCALL ISZERO DUP1 ISZERO PUSH3 0x10DA JUMPI RETURNDATASIZE PUSH1 0x0 DUP1 RETURNDATACOPY RETURNDATASIZE PUSH1 0x0 REVERT JUMPDEST POP POP POP POP PUSH1 0x40 MLOAD RETURNDATASIZE PUSH1 0x1F NOT PUSH1 0x1F DUP3 ADD AND DUP3 ADD DUP1 PUSH1 0x40 MSTORE POP DUP2 ADD SWAP1 PUSH3 0x1100 SWAP2 SWAP1 PUSH3 0x15C5 JUMP JUMPDEST SWAP4 SWAP3 POP POP POP JUMP JUMPDEST SWAP2 SWAP1 POP JUMP JUMPDEST CALLER PUSH1 0x0 DUP2 DUP2 MSTORE PUSH1 0x1 PUSH1 0x20 MSTORE PUSH1 0x40 SWAP1 KECCAK256 SLOAD PUSH1 0xFF AND PUSH3 0x113E JUMPI PUSH1 0x40 MLOAD PUSH3 0x461BCD PUSH1 0xE5 SHL DUP2 MSTORE PUSH1 0x4 ADD PUSH3 0x2B0 SWAP1 PUSH3 0x1540 JUMP JUMPDEST PUSH1 0x1 PUSH1 0x1 PUSH1 0xA0 SHL SUB DUP4 AND PUSH1 0x0 SWAP1 DUP2 MSTORE PUSH1 0x2 PUSH1 0x20 MSTORE PUSH1 0x40 SWAP1 KECCAK256 SLOAD DUP4 SWAP1 PUSH1 0xFF AND PUSH3 0x117B JUMPI PUSH1 0x40 MLOAD PUSH3 0x461BCD PUSH1 0xE5 SHL DUP2 MSTORE PUSH1 0x4 ADD PUSH3 0x2B0 SWAP1 PUSH3 0x1590 JUMP JUMPDEST CALLER PUSH1 0x0 DUP2 DUP2 MSTORE PUSH1 0x1 PUSH1 0x20 MSTORE PUSH1 0x40 SWAP1 DUP2 SWAP1 KECCAK256 SLOAD SWAP1 MLOAD PUSH4 0x776E4B35 PUSH1 0xE1 SHL DUP2 MSTORE PUSH1 0x1 PUSH1 0x1 PUSH1 0xA0 SHL SUB DUP8 DUP2 AND PUSH1 0x4 DUP4 ADD MSTORE DUP8 SWAP3 DUP8 SWAP3 PUSH2 0x100 SWAP1 SWAP2 DIV SWAP1 SWAP2 AND SWAP1 PUSH4 0xEEDC966A SWAP1 PUSH1 0x24 ADD PUSH1 0x20 PUSH1 0x40 MLOAD DUP1 DUP4 SUB DUP2 DUP7 GAS STATICCALL ISZERO DUP1 ISZERO PUSH3 0x11DE JUMPI RETURNDATASIZE PUSH1 0x0 DUP1 RETURNDATACOPY RETURNDATASIZE PUSH1 0x0 REVERT JUMPDEST POP POP POP POP PUSH1 0x40 MLOAD RETURNDATASIZE PUSH1 0x1F NOT PUSH1 0x1F DUP3 ADD AND DUP3 ADD DUP1 PUSH1 0x40 MSTORE POP DUP2 ADD SWAP1 PUSH3 0x1204 SWAP2 SWAP1 PUSH3 0x15C5 JUMP JUMPDEST DUP2 SLT PUSH3 0x1225 JUMPI PUSH1 0x40 MLOAD PUSH3 0x461BCD PUSH1 0xE5 SHL DUP2 MSTORE PUSH1 0x4 ADD PUSH3 0x2B0 SWAP1 PUSH3 0x15DF JUMP JUMPDEST PUSH1 0x1 PUSH1 0x1 PUSH1 0xA0 SHL SUB DUP1 DUP9 AND PUSH1 0x0 SWAP1 DUP2 MSTORE PUSH1 0x2 PUSH1 0x20 SWAP1 DUP2 MSTORE PUSH1 0x40 SWAP2 DUP3 SWAP1 KECCAK256 SLOAD DUP3 MLOAD PUSH4 0xD0CB3CD1 PUSH1 0xE0 SHL DUP2 MSTORE SWAP3 MLOAD DUP12 SWAP5 DUP12 SWAP5 PUSH2 0x100 SWAP1 SWAP4 DIV AND SWAP3 PUSH4 0xD0CB3CD1 SWAP3 PUSH1 0x4 DUP1 DUP3 ADD SWAP4 SWAP2 DUP3 SWAP1 SUB ADD DUP2 DUP7 GAS STATICCALL ISZERO DUP1 ISZERO PUSH3 0x1284 JUMPI RETURNDATASIZE PUSH1 0x0 DUP1 RETURNDATACOPY RETURNDATASIZE PUSH1 0x0 REVERT JUMPDEST POP POP POP POP PUSH1 0x40 MLOAD RETURNDATASIZE PUSH1 0x1F NOT PUSH1 0x1F DUP3 ADD AND DUP3 ADD DUP1 PUSH1 0x40 MSTORE POP DUP2 ADD SWAP1 PUSH3 0x12AA SWAP2 SWAP1 PUSH3 0x15C5 JUMP JUMPDEST DUP2 LT PUSH3 0x12CB JUMPI PUSH1 0x40 MLOAD PUSH3 0x461BCD PUSH1 0xE5 SHL DUP2 MSTORE PUSH1 0x4 ADD PUSH3 0x2B0 SWAP1 PUSH3 0x15DF JUMP JUMPDEST PUSH1 0x1 PUSH1 0x1 PUSH1 0xA0 SHL SUB DUP10 DUP2 AND PUSH1 0x0 SWAP1 DUP2 MSTORE PUSH1 0x2 PUSH1 0x20 SWAP1 DUP2 MSTORE PUSH1 0x40 DUP1 DUP4 KECCAK256 SLOAD CALLER DUP1 DUP6 MSTORE PUSH1 0x1 SWAP1 SWAP4 MSTORE SWAP3 DUP2 SWAP1 KECCAK256 SLOAD SWAP1 MLOAD PUSH4 0xF3FEF3A3 PUSH1 0xE0 SHL DUP2 MSTORE PUSH1 0x4 DUP2 ADD SWAP3 SWAP1 SWAP3 MSTORE PUSH1 0x24 DUP3 ADD DUP13 SWAP1 MSTORE PUSH2 0x100 SWAP3 DUP4 SWAP1 DIV DUP5 AND SWAP4 SWAP3 SWAP1 DIV SWAP1 SWAP2 AND SWAP1 DUP3 SWAP1 PUSH4 0xF3FEF3A3 SWAP1 PUSH1 0x44 ADD PUSH1 0x0 PUSH1 0x40 MLOAD DUP1 DUP4 SUB DUP2 PUSH1 0x0 DUP8 DUP1 EXTCODESIZE ISZERO DUP1 ISZERO PUSH3 0x1348 JUMPI PUSH1 0x0 DUP1 REVERT JUMPDEST POP GAS CALL ISZERO DUP1 ISZERO PUSH3 0x135D JUMPI RETURNDATASIZE PUSH1 0x0 DUP1 RETURNDATACOPY RETURNDATASIZE PUSH1 0x0 REVERT JUMPDEST POP POP PUSH1 0x40 MLOAD PUSH4 0x7DA7D3F1 PUSH1 0xE0 SHL DUP2 MSTORE PUSH1 0x1 PUSH1 0x1 PUSH1 0xA0 SHL SUB DUP15 DUP2 AND PUSH1 0x4 DUP4 ADD MSTORE PUSH1 0x24 DUP3 ADD DUP15 SWAP1 MSTORE DUP5 AND SWAP3 POP PUSH4 0x7DA7D3F1 SWAP2 POP PUSH1 0x44 ADD PUSH1 0x0 PUSH1 0x40 MLOAD DUP1 DUP4 SUB DUP2 PUSH1 0x0 DUP8 DUP1 EXTCODESIZE ISZERO DUP1 ISZERO PUSH3 0x13AC JUMPI PUSH1 0x0 DUP1 REVERT JUMPDEST POP GAS CALL ISZERO DUP1 ISZERO PUSH3 0x13C1 JUMPI RETURNDATASIZE PUSH1 0x0 DUP1 RETURNDATACOPY RETURNDATASIZE PUSH1 0x0 REVERT JUMPDEST POP POP PUSH1 0x40 MLOAD PUSH4 0x3CE61201 PUSH1 0xE2 SHL DUP2 MSTORE PUSH1 0x1 PUSH1 0x1 PUSH1 0xA0 SHL SUB DUP15 DUP2 AND PUSH1 0x4 DUP4 ADD MSTORE DUP5 AND SWAP3 POP PUSH4 0xF3984804 SWAP2 POP PUSH1 0x24 ADD PUSH1 0x20 PUSH1 0x40 MLOAD DUP1 DUP4 SUB DUP2 DUP7 GAS STATICCALL ISZERO DUP1 ISZERO PUSH3 0x140C JUMPI RETURNDATASIZE PUSH1 0x0 DUP1 RETURNDATACOPY RETURNDATASIZE PUSH1 0x0 REVERT JUMPDEST POP POP POP POP PUSH1 0x40 MLOAD RETURNDATASIZE PUSH1 0x1F NOT PUSH1 0x1F DUP3 ADD AND DUP3 ADD DUP1 PUSH1 0x40 MSTORE POP DUP2 ADD SWAP1 PUSH3 0x1432 SWAP2 SWAP1 PUSH3 0x1698 JUMP JUMPDEST PUSH3 0x1495 JUMPI PUSH1 0x40 MLOAD PUSH4 0xD9ED2685 PUSH1 0xE0 SHL DUP2 MSTORE PUSH1 0x1 PUSH1 0x1 PUSH1 0xA0 SHL SUB DUP3 DUP2 AND PUSH1 0x4 DUP4 ADD MSTORE DUP4 AND SWAP1 PUSH4 0xD9ED2685 SWAP1 PUSH1 0x24 ADD PUSH1 0x0 PUSH1 0x40 MLOAD DUP1 DUP4 SUB DUP2 PUSH1 0x0 DUP8 DUP1 EXTCODESIZE ISZERO DUP1 ISZERO PUSH3 0x147B JUMPI PUSH1 0x0 DUP1 REVERT JUMPDEST POP GAS CALL ISZERO DUP1 ISZERO PUSH3 0x1490 JUMPI RETURNDATASIZE PUSH1 0x0 DUP1 RETURNDATACOPY RETURNDATASIZE PUSH1 0x0 REVERT JUMPDEST POP POP POP POP JUMPDEST POP POP POP POP POP POP POP POP POP POP POP JUMP JUMPDEST PUSH2 0x9BD DUP1 PUSH3 0x1718 DUP4 CODECOPY ADD SWAP1 JUMP JUMPDEST PUSH2 0xB76 DUP1 PUSH3 0x20D5 DUP4 CODECOPY ADD SWAP1 JUMP JUMPDEST PUSH1 0x1 PUSH1 0x1 PUSH1 0xA0 SHL SUB DUP2 AND DUP2 EQ PUSH3 0x14D4 JUMPI PUSH1 0x0 DUP1 REVERT JUMPDEST POP JUMP JUMPDEST PUSH1 0x0 PUSH1 0x20 DUP3 DUP5 SUB SLT ISZERO PUSH3 0x14EA JUMPI PUSH1 0x0 DUP1 REVERT JUMPDEST DUP2 CALLDATALOAD PUSH3 0x1100 DUP2 PUSH3 0x14BE JUMP JUMPDEST PUSH1 0x0 DUP1 PUSH1 0x40 DUP4 DUP6 SUB SLT ISZERO PUSH3 0x150B JUMPI PUSH1 0x0 DUP1 REVERT JUMPDEST DUP3 CALLDATALOAD PUSH3 0x1518 DUP2 PUSH3 0x14BE JUMP JUMPDEST SWAP5 PUSH1 0x20 SWAP4 SWAP1 SWAP4 ADD CALLDATALOAD SWAP4 POP POP POP JUMP JUMPDEST PUSH1 0x0 PUSH1 0x20 DUP3 DUP5 SUB SLT ISZERO PUSH3 0x1539 JUMPI PUSH1 0x0 DUP1 REVERT JUMPDEST POP CALLDATALOAD SWAP2 SWAP1 POP JUMP JUMPDEST PUSH1 0x20 DUP1 DUP3 MSTORE PUSH1 0x30 SWAP1 DUP3 ADD MSTORE PUSH32 0x4163636F756E74206F662074686973207573657220646F65736E277420657869 PUSH1 0x40 DUP3 ADD MSTORE PUSH16 0x737420696E207468652073797374656D PUSH1 0x80 SHL PUSH1 0x60 DUP3 ADD MSTORE PUSH1 0x80 ADD SWAP1 JUMP JUMPDEST PUSH1 0x20 DUP1 DUP3 MSTORE DUP2 DUP2 ADD MSTORE PUSH32 0x506F6F6C206F66207468697320746F6B656E20646F65736E2774206578697374 PUSH1 0x40 DUP3 ADD MSTORE PUSH1 0x60 ADD SWAP1 JUMP JUMPDEST PUSH1 0x0 PUSH1 0x20 DUP3 DUP5 SUB SLT ISZERO PUSH3 0x15D8 JUMPI PUSH1 0x0 DUP1 REVERT JUMPDEST POP MLOAD SWAP2 SWAP1 POP JUMP JUMPDEST PUSH1 0x20 DUP1 DUP3 MSTORE PUSH1 0x4C SWAP1 DUP3 ADD MSTORE PUSH32 0x506F6F6C206F66207468697320746F6B656E20646F65736E2774206861766520 PUSH1 0x40 DUP3 ADD MSTORE PUSH32 0x73756666696369656E7420617661696C61626C652066756E6420666F72207468 PUSH1 0x60 DUP3 ADD MSTORE PUSH12 0x34B99037B832B930BA34B7B7 PUSH1 0xA1 SHL PUSH1 0x80 DUP3 ADD MSTORE PUSH1 0xA0 ADD SWAP1 JUMP JUMPDEST PUSH4 0x4E487B71 PUSH1 0xE0 SHL PUSH1 0x0 MSTORE PUSH1 0x32 PUSH1 0x4 MSTORE PUSH1 0x24 PUSH1 0x0 REVERT JUMPDEST PUSH1 0x0 PUSH1 0x20 DUP3 DUP5 SUB SLT ISZERO PUSH3 0x167A JUMPI PUSH1 0x0 DUP1 REVERT JUMPDEST DUP2 MLOAD PUSH3 0x1100 DUP2 PUSH3 0x14BE JUMP JUMPDEST DUP1 MLOAD DUP1 ISZERO ISZERO DUP2 EQ PUSH3 0x1107 JUMPI PUSH1 0x0 DUP1 REVERT JUMPDEST PUSH1 0x0 PUSH1 0x20 DUP3 DUP5 SUB SLT ISZERO PUSH3 0x16AB JUMPI PUSH1 0x0 DUP1 REVERT JUMPDEST PUSH3 0x1100 DUP3 PUSH3 0x1687 JUMP JUMPDEST PUSH1 0x0 DUP1 PUSH1 0x0 DUP1 PUSH1 0x0 DUP1 PUSH1 0xC0 DUP8 DUP10 SUB SLT ISZERO PUSH3 0x16D0 JUMPI PUSH1 0x0 DUP1 REVERT JUMPDEST DUP7 MLOAD PUSH3 0x16DD DUP2 PUSH3 0x14BE JUMP JUMPDEST DUP1 SWAP7 POP POP PUSH1 0x20 DUP8 ADD MLOAD SWAP5 POP PUSH1 0x40 DUP8 ADD MLOAD SWAP4 POP PUSH1 0x60 DUP8 ADD MLOAD SWAP3 POP PUSH1 0x80 DUP8 ADD MLOAD SWAP2 POP PUSH3 0x170B PUSH1 0xA0 DUP9 ADD PUSH3 0x1687 JUMP JUMPDEST SWAP1 POP SWAP3 SWAP6 POP SWAP3 SWAP6 POP SWAP3 SWAP6 JUMP INVALID PUSH1 0x80 PUSH1 0x40 MSTORE PUSH1 0xA PUSH3 0x13 PUSH1 0x12 DUP3 PUSH3 0x204 JUMP JUMPDEST PUSH3 0x20 SWAP1 PUSH1 0x2 PUSH3 0x219 JUMP JUMPDEST PUSH3 0x2C SWAP2 SWAP1 PUSH3 0x23B JUMP JUMPDEST PUSH1 0x0 SSTORE PUSH1 0xA PUSH3 0x3E PUSH1 0x12 DUP3 PUSH3 0x204 JUMP JUMPDEST PUSH3 0x4B SWAP1 PUSH1 0x14 PUSH3 0x219 JUMP JUMPDEST PUSH3 0x57 SWAP2 SWAP1 PUSH3 0x23B JUMP JUMPDEST PUSH1 0x1 SSTORE PUSH1 0xA PUSH3 0x69 PUSH1 0x12 DUP3 PUSH3 0x204 JUMP JUMPDEST PUSH3 0x76 SWAP1 PUSH1 0x8 PUSH3 0x219 JUMP JUMPDEST PUSH3 0x82 SWAP2 SWAP1 PUSH3 0x23B JUMP JUMPDEST PUSH1 0x2 SSTORE PUSH1 0x0 PUSH1 0x4 SSTORE PUSH1 0x0 PUSH1 0x5 SSTORE PUSH1 0x0 PUSH1 0x6 SSTORE PUSH1 0x0 PUSH1 0x7 SSTORE CALLVALUE DUP1 ISZERO PUSH3 0xA6 JUMPI PUSH1 0x0 DUP1 REVERT JUMPDEST POP PUSH1 0x40 MLOAD PUSH3 0x9BD CODESIZE SUB DUP1 PUSH3 0x9BD DUP4 CODECOPY DUP2 ADD PUSH1 0x40 DUP2 SWAP1 MSTORE PUSH3 0xC9 SWAP2 PUSH3 0x25E JUMP JUMPDEST PUSH1 0x3 DUP1 SLOAD PUSH1 0x1 PUSH1 0x1 PUSH1 0xA0 SHL SUB NOT AND PUSH1 0x1 PUSH1 0x1 PUSH1 0xA0 SHL SUB SWAP3 SWAP1 SWAP3 AND SWAP2 SWAP1 SWAP2 OR SWAP1 SSTORE PUSH3 0x289 JUMP JUMPDEST PUSH4 0x4E487B71 PUSH1 0xE0 SHL PUSH1 0x0 MSTORE PUSH1 0x11 PUSH1 0x4 MSTORE PUSH1 0x24 PUSH1 0x0 REVERT JUMPDEST PUSH1 0x1 DUP2 DUP2 JUMPDEST DUP1 DUP6 GT ISZERO PUSH3 0x146 JUMPI DUP2 PUSH1 0x0 NOT DIV DUP3 GT ISZERO PUSH3 0x12A JUMPI PUSH3 0x12A PUSH3 0xEF JUMP JUMPDEST DUP1 DUP6 AND ISZERO PUSH3 0x138 JUMPI SWAP2 DUP2 MUL SWAP2 JUMPDEST SWAP4 DUP5 SHR SWAP4 SWAP1 DUP1 MUL SWAP1 PUSH3 0x10A JUMP JUMPDEST POP SWAP3 POP SWAP3 SWAP1 POP JUMP JUMPDEST PUSH1 0x0 DUP3 PUSH3 0x15F JUMPI POP PUSH1 0x1 PUSH3 0x1FE JUMP JUMPDEST DUP2 PUSH3 0x16E JUMPI POP PUSH1 0x0 PUSH3 0x1FE JUMP JUMPDEST DUP2 PUSH1 0x1 DUP2 EQ PUSH3 0x187 JUMPI PUSH1 0x2 DUP2 EQ PUSH3 0x192 JUMPI PUSH3 0x1B2 JUMP JUMPDEST PUSH1 0x1 SWAP2 POP POP PUSH3 0x1FE JUMP JUMPDEST PUSH1 0xFF DUP5 GT ISZERO PUSH3 0x1A6 JUMPI PUSH3 0x1A6 PUSH3 0xEF JUMP JUMPDEST POP POP PUSH1 0x1 DUP3 SHL PUSH3 0x1FE JUMP JUMPDEST POP PUSH1 0x20 DUP4 LT PUSH2 0x133 DUP4 LT AND PUSH1 0x4E DUP5 LT PUSH1 0xB DUP5 LT AND OR ISZERO PUSH3 0x1D7 JUMPI POP DUP2 DUP2 EXP PUSH3 0x1FE JUMP JUMPDEST PUSH3 0x1E3 DUP4 DUP4 PUSH3 0x105 JUMP JUMPDEST DUP1 PUSH1 0x0 NOT DIV DUP3 GT ISZERO PUSH3 0x1FA JUMPI PUSH3 0x1FA PUSH3 0xEF JUMP JUMPDEST MUL SWAP1 POP JUMPDEST SWAP3 SWAP2 POP POP JUMP JUMPDEST PUSH1 0x0 PUSH3 0x212 DUP4 DUP4 PUSH3 0x14E JUMP JUMPDEST SWAP4 SWAP3 POP POP POP JUMP JUMPDEST PUSH1 0x0 DUP2 PUSH1 0x0 NOT DIV DUP4 GT DUP3 ISZERO ISZERO AND ISZERO PUSH3 0x236 JUMPI PUSH3 0x236 PUSH3 0xEF JUMP JUMPDEST POP MUL SWAP1 JUMP JUMPDEST PUSH1 0x0 DUP3 PUSH3 0x259 JUMPI PUSH4 0x4E487B71 PUSH1 0xE0 SHL PUSH1 0x0 MSTORE PUSH1 0x12 PUSH1 0x4 MSTORE PUSH1 0x24 PUSH1 0x0 REVERT JUMPDEST POP DIV SWAP1 JUMP JUMPDEST PUSH1 0x0 PUSH1 0x20 DUP3 DUP5 SUB SLT ISZERO PUSH3 0x271 JUMPI PUSH1 0x0 DUP1 REVERT JUMPDEST DUP2 MLOAD PUSH1 0x1 PUSH1 0x1 PUSH1 0xA0 SHL SUB DUP2 AND DUP2 EQ PUSH3 0x212 JUMPI PUSH1 0x0 DUP1 REVERT JUMPDEST PUSH2 0x724 DUP1 PUSH3 0x299 PUSH1 0x0 CODECOPY PUSH1 0x0 RETURN INVALID PUSH1 0x80 PUSH1 0x40 MSTORE CALLVALUE DUP1 ISZERO PUSH2 0x10 JUMPI PUSH1 0x0 DUP1 REVERT JUMPDEST POP PUSH1 0x4 CALLDATASIZE LT PUSH2 0xCF JUMPI PUSH1 0x0 CALLDATALOAD PUSH1 0xE0 SHR DUP1 PUSH4 0x9D76EA58 GT PUSH2 0x8C JUMPI DUP1 PUSH4 0xD0CB3CD1 GT PUSH2 0x66 JUMPI DUP1 PUSH4 0xD0CB3CD1 EQ PUSH2 0x1B7 JUMPI DUP1 PUSH4 0xD6C3D994 EQ PUSH2 0x1BF JUMPI DUP1 PUSH4 0xD9ED2685 EQ PUSH2 0x1C8 JUMPI DUP1 PUSH4 0xF3FEF3A3 EQ PUSH2 0x1DB JUMPI PUSH1 0x0 DUP1 REVERT JUMPDEST DUP1 PUSH4 0x9D76EA58 EQ PUSH2 0x166 JUMPI DUP1 PUSH4 0xA846C2FD EQ PUSH2 0x191 JUMPI DUP1 PUSH4 0xB6B55F25 EQ PUSH2 0x1A4 JUMPI PUSH1 0x0 DUP1 REVERT JUMPDEST DUP1 PUSH4 0x185CC751 EQ PUSH2 0xD4 JUMPI DUP1 PUSH4 0x1BF05579 EQ PUSH2 0xE9 JUMPI DUP1 PUSH4 0x34B3C50F EQ PUSH2 0x105 JUMPI DUP1 PUSH4 0x61BC1A49 EQ PUSH2 0x118 JUMPI DUP1 PUSH4 0x7C7DC094 EQ PUSH2 0x121 JUMPI DUP1 PUSH4 0x88ADCAC1 EQ PUSH2 0x15D JUMPI JUMPDEST PUSH1 0x0 DUP1 REVERT JUMPDEST PUSH2 0xE7 PUSH2 0xE2 CALLDATASIZE PUSH1 0x4 PUSH2 0x5D8 JUMP JUMPDEST PUSH2 0x1EE JUMP JUMPDEST STOP JUMPDEST PUSH2 0xF2 PUSH1 0x5 SLOAD DUP2 JUMP JUMPDEST PUSH1 0x40 MLOAD SWAP1 DUP2 MSTORE PUSH1 0x20 ADD JUMPDEST PUSH1 0x40 MLOAD DUP1 SWAP2 SUB SWAP1 RETURN JUMPDEST PUSH2 0xE7 PUSH2 0x113 CALLDATASIZE PUSH1 0x4 PUSH2 0x602 JUMP JUMPDEST PUSH2 0x212 JUMP JUMPDEST PUSH2 0xF2 PUSH1 0x4 SLOAD DUP2 JUMP JUMPDEST PUSH2 0x14D PUSH2 0x12F CALLDATASIZE PUSH1 0x4 PUSH2 0x602 JUMP JUMPDEST PUSH1 0x1 PUSH1 0x1 PUSH1 0xA0 SHL SUB AND PUSH1 0x0 SWAP1 DUP2 MSTORE PUSH1 0x9 PUSH1 0x20 MSTORE PUSH1 0x40 SWAP1 KECCAK256 SLOAD PUSH1 0xFF AND SWAP1 JUMP JUMPDEST PUSH1 0x40 MLOAD SWAP1 ISZERO ISZERO DUP2 MSTORE PUSH1 0x20 ADD PUSH2 0xFC JUMP JUMPDEST PUSH2 0xF2 PUSH1 0x6 SLOAD DUP2 JUMP JUMPDEST PUSH1 0x3 SLOAD PUSH2 0x179 SWAP1 PUSH1 0x1 PUSH1 0x1 PUSH1 0xA0 SHL SUB AND DUP2 JUMP JUMPDEST PUSH1 0x40 MLOAD PUSH1 0x1 PUSH1 0x1 PUSH1 0xA0 SHL SUB SWAP1 SWAP2 AND DUP2 MSTORE PUSH1 0x20 ADD PUSH2 0xFC JUMP JUMPDEST PUSH2 0xE7 PUSH2 0x19F CALLDATASIZE PUSH1 0x4 PUSH2 0x624 JUMP JUMPDEST PUSH2 0x2E5 JUMP JUMPDEST PUSH2 0xE7 PUSH2 0x1B2 CALLDATASIZE PUSH1 0x4 PUSH2 0x624 JUMP JUMPDEST PUSH2 0x305 JUMP JUMPDEST PUSH2 0xF2 PUSH2 0x317 JUMP JUMPDEST PUSH2 0xF2 PUSH1 0x7 SLOAD DUP2 JUMP JUMPDEST PUSH2 0xE7 PUSH2 0x1D6 CALLDATASIZE PUSH1 0x4 PUSH2 0x602 JUMP JUMPDEST PUSH2 0x32E JUMP JUMPDEST PUSH2 0xE7 PUSH2 0x1E9 CALLDATASIZE PUSH1 0x4 PUSH2 0x5D8 JUMP JUMPDEST PUSH2 0x3BC JUMP JUMPDEST DUP1 PUSH1 0x5 PUSH1 0x0 DUP3 DUP3 SLOAD PUSH2 0x200 SWAP2 SWAP1 PUSH2 0x653 JUMP JUMPDEST SWAP1 SWAP2 SSTORE POP PUSH2 0x20E SWAP1 POP PUSH2 0x3CE JUMP JUMPDEST POP POP JUMP JUMPDEST PUSH1 0x40 MLOAD PUSH4 0x1F1F7025 PUSH1 0xE2 SHL DUP2 MSTORE PUSH1 0x1 PUSH1 0x1 PUSH1 0xA0 SHL SUB DUP3 AND PUSH1 0x4 DUP3 ADD MSTORE ADDRESS SWAP1 PUSH4 0x7C7DC094 SWAP1 PUSH1 0x24 ADD PUSH1 0x20 PUSH1 0x40 MLOAD DUP1 DUP4 SUB DUP2 DUP7 GAS STATICCALL ISZERO DUP1 ISZERO PUSH2 0x256 JUMPI RETURNDATASIZE PUSH1 0x0 DUP1 RETURNDATACOPY RETURNDATASIZE PUSH1 0x0 REVERT JUMPDEST POP POP POP POP PUSH1 0x40 MLOAD RETURNDATASIZE PUSH1 0x1F NOT PUSH1 0x1F DUP3 ADD AND DUP3 ADD DUP1 PUSH1 0x40 MSTORE POP DUP2 ADD SWAP1 PUSH2 0x27A SWAP2 SWAP1 PUSH2 0x66B JUMP JUMPDEST PUSH2 0x2E2 JUMPI PUSH1 0x8 DUP1 SLOAD PUSH1 0x1 DUP1 DUP3 ADD SWAP1 SWAP3 SSTORE PUSH32 0xF3F7A9FE364FAAB93B216DA50A3214154F22A0A2B415B23A84C8169E8B636EE3 ADD DUP1 SLOAD PUSH1 0x1 PUSH1 0x1 PUSH1 0xA0 SHL SUB NOT AND PUSH1 0x1 PUSH1 0x1 PUSH1 0xA0 SHL SUB DUP5 AND SWAP1 DUP2 OR SWAP1 SWAP2 SSTORE PUSH1 0x0 SWAP1 DUP2 MSTORE PUSH1 0x9 PUSH1 0x20 MSTORE PUSH1 0x40 SWAP1 KECCAK256 DUP1 SLOAD PUSH1 0xFF NOT AND SWAP1 SWAP2 OR SWAP1 SSTORE JUMPDEST POP JUMP JUMPDEST DUP1 PUSH1 0x5 PUSH1 0x0 DUP3 DUP3 SLOAD PUSH2 0x2F7 SWAP2 SWAP1 PUSH2 0x68D JUMP JUMPDEST SWAP1 SWAP2 SSTORE POP PUSH2 0x2E2 SWAP1 POP PUSH2 0x3CE JUMP JUMPDEST DUP1 PUSH1 0x4 PUSH1 0x0 DUP3 DUP3 SLOAD PUSH2 0x2F7 SWAP2 SWAP1 PUSH2 0x653 JUMP JUMPDEST PUSH1 0x0 PUSH1 0x5 SLOAD PUSH1 0x4 SLOAD PUSH2 0x329 SWAP2 SWAP1 PUSH2 0x68D JUMP JUMPDEST SWAP1 POP SWAP1 JUMP JUMPDEST PUSH1 0x40 MLOAD PUSH4 0x1F1F7025 PUSH1 0xE2 SHL DUP2 MSTORE PUSH1 0x1 PUSH1 0x1 PUSH1 0xA0 SHL SUB DUP3 AND PUSH1 0x4 DUP3 ADD MSTORE ADDRESS SWAP1 PUSH4 0x7C7DC094 SWAP1 PUSH1 0x24 ADD PUSH1 0x20 PUSH1 0x40 MLOAD DUP1 DUP4 SUB DUP2 DUP7 GAS STATICCALL ISZERO DUP1 ISZERO PUSH2 0x372 JUMPI RETURNDATASIZE PUSH1 0x0 DUP1 RETURNDATACOPY RETURNDATASIZE PUSH1 0x0 REVERT JUMPDEST POP POP POP POP PUSH1 0x40 MLOAD RETURNDATASIZE PUSH1 0x1F NOT PUSH1 0x1F DUP3 ADD AND DUP3 ADD DUP1 PUSH1 0x40 MSTORE POP DUP2 ADD SWAP1 PUSH2 0x396 SWAP2 SWAP1 PUSH2 0x66B JUMP JUMPDEST ISZERO PUSH2 0x2E2 JUMPI PUSH1 0x1 PUSH1 0x1 PUSH1 0xA0 SHL SUB AND PUSH1 0x0 SWAP1 DUP2 MSTORE PUSH1 0x9 PUSH1 0x20 MSTORE PUSH1 0x40 SWAP1 KECCAK256 DUP1 SLOAD PUSH1 0xFF NOT AND SWAP1 SSTORE JUMP JUMPDEST DUP1 PUSH1 0x4 PUSH1 0x0 DUP3 DUP3 SLOAD PUSH2 0x200 SWAP2 SWAP1 PUSH2 0x68D JUMP JUMPDEST PUSH1 0x5 SLOAD PUSH1 0x4 DUP1 SLOAD PUSH1 0x2 SLOAD PUSH1 0x0 SLOAD PUSH1 0x1 SLOAD PUSH1 0x40 MLOAD PUSH4 0x6BED508B PUSH1 0xE1 SHL DUP2 MSTORE SWAP5 DUP6 ADD SWAP6 SWAP1 SWAP6 MSTORE PUSH1 0x24 DUP5 ADD SWAP3 SWAP1 SWAP3 MSTORE PUSH1 0x44 DUP4 ADD MSTORE PUSH1 0x64 DUP3 ADD MSTORE PUSH1 0x84 DUP2 ADD SWAP2 SWAP1 SWAP2 MSTORE PUSH20 0x0 SWAP1 PUSH4 0xD7DAA116 SWAP1 PUSH1 0xA4 ADD PUSH1 0x20 PUSH1 0x40 MLOAD DUP1 DUP4 SUB DUP2 DUP7 GAS DELEGATECALL ISZERO DUP1 ISZERO PUSH2 0x448 JUMPI RETURNDATASIZE PUSH1 0x0 DUP1 RETURNDATACOPY RETURNDATASIZE PUSH1 0x0 REVERT JUMPDEST POP POP POP POP PUSH1 0x40 MLOAD RETURNDATASIZE PUSH1 0x1F NOT PUSH1 0x1F DUP3 ADD AND DUP3 ADD DUP1 PUSH1 0x40 MSTORE POP DUP2 ADD SWAP1 PUSH2 0x46C SWAP2 SWAP1 PUSH2 0x6A4 JUMP JUMPDEST PUSH1 0x7 DUP2 SWAP1 SSTORE PUSH1 0x40 MLOAD PUSH4 0x11BB7E49 PUSH1 0xE3 SHL DUP2 MSTORE PUSH1 0x4 DUP2 ADD SWAP2 SWAP1 SWAP2 MSTORE PUSH20 0x0 SWAP1 PUSH4 0x8DDBF248 SWAP1 PUSH1 0x24 ADD PUSH1 0x20 PUSH1 0x40 MLOAD DUP1 DUP4 SUB DUP2 DUP7 GAS DELEGATECALL ISZERO DUP1 ISZERO PUSH2 0x4C2 JUMPI RETURNDATASIZE PUSH1 0x0 DUP1 RETURNDATACOPY RETURNDATASIZE PUSH1 0x0 REVERT JUMPDEST POP POP POP POP PUSH1 0x40 MLOAD RETURNDATASIZE PUSH1 0x1F NOT PUSH1 0x1F DUP3 ADD AND DUP3 ADD DUP1 PUSH1 0x40 MSTORE POP DUP2 ADD SWAP1 PUSH2 0x4E6 SWAP2 SWAP1 PUSH2 0x6A4 JUMP JUMPDEST PUSH1 0x6 SSTORE PUSH1 0x0 JUMPDEST PUSH1 0x8 SLOAD DUP2 LT ISZERO PUSH2 0x2E2 JUMPI PUSH1 0x0 PUSH1 0x8 PUSH1 0x0 ADD DUP3 DUP2 SLOAD DUP2 LT PUSH2 0x50E JUMPI PUSH2 0x50E PUSH2 0x6BD JUMP JUMPDEST PUSH1 0x0 SWAP2 DUP3 MSTORE PUSH1 0x20 DUP1 DUP4 KECCAK256 SWAP1 SWAP2 ADD SLOAD PUSH1 0x1 PUSH1 0x1 PUSH1 0xA0 SHL SUB AND DUP1 DUP4 MSTORE PUSH1 0x9 SWAP1 SWAP2 MSTORE PUSH1 0x40 SWAP1 SWAP2 KECCAK256 SLOAD SWAP1 SWAP2 POP PUSH1 0xFF AND ISZERO PUSH2 0x5A9 JUMPI PUSH1 0x3 SLOAD PUSH1 0x6 SLOAD PUSH1 0x40 MLOAD PUSH4 0x13957027 PUSH1 0xE0 SHL DUP2 MSTORE PUSH1 0x1 PUSH1 0x1 PUSH1 0xA0 SHL SUB SWAP3 DUP4 AND PUSH1 0x4 DUP3 ADD MSTORE PUSH1 0x24 DUP2 ADD SWAP2 SWAP1 SWAP2 MSTORE SWAP1 DUP3 AND SWAP1 PUSH4 0x13957027 SWAP1 PUSH1 0x44 ADD PUSH1 0x0 PUSH1 0x40 MLOAD DUP1 DUP4 SUB DUP2 PUSH1 0x0 DUP8 DUP1 EXTCODESIZE ISZERO DUP1 ISZERO PUSH2 0x590 JUMPI PUSH1 0x0 DUP1 REVERT JUMPDEST POP GAS CALL ISZERO DUP1 ISZERO PUSH2 0x5A4 JUMPI RETURNDATASIZE PUSH1 0x0 DUP1 RETURNDATACOPY RETURNDATASIZE PUSH1 0x0 REVERT JUMPDEST POP POP POP POP JUMPDEST POP DUP1 PUSH2 0x5B4 DUP2 PUSH2 0x6D3 JUMP JUMPDEST SWAP2 POP POP PUSH2 0x4EC JUMP JUMPDEST DUP1 CALLDATALOAD PUSH1 0x1 PUSH1 0x1 PUSH1 0xA0 SHL SUB DUP2 AND DUP2 EQ PUSH2 0x5D3 JUMPI PUSH1 0x0 DUP1 REVERT JUMPDEST SWAP2 SWAP1 POP JUMP JUMPDEST PUSH1 0x0 DUP1 PUSH1 0x40 DUP4 DUP6 SUB SLT ISZERO PUSH2 0x5EB JUMPI PUSH1 0x0 DUP1 REVERT JUMPDEST PUSH2 0x5F4 DUP4 PUSH2 0x5BC JUMP JUMPDEST SWAP5 PUSH1 0x20 SWAP4 SWAP1 SWAP4 ADD CALLDATALOAD SWAP4 POP POP POP JUMP JUMPDEST PUSH1 0x0 PUSH1 0x20 DUP3 DUP5 SUB SLT ISZERO PUSH2 0x614 JUMPI PUSH1 0x0 DUP1 REVERT JUMPDEST PUSH2 0x61D DUP3 PUSH2 0x5BC JUMP JUMPDEST SWAP4 SWAP3 POP POP POP JUMP JUMPDEST PUSH1 0x0 PUSH1 0x20 DUP3 DUP5 SUB SLT ISZERO PUSH2 0x636 JUMPI PUSH1 0x0 DUP1 REVERT JUMPDEST POP CALLDATALOAD SWAP2 SWAP1 POP JUMP JUMPDEST PUSH4 0x4E487B71 PUSH1 0xE0 SHL PUSH1 0x0 MSTORE PUSH1 0x11 PUSH1 0x4 MSTORE PUSH1 0x24 PUSH1 0x0 REVERT JUMPDEST PUSH1 0x0 DUP3 NOT DUP3 GT ISZERO PUSH2 0x666 JUMPI PUSH2 0x666 PUSH2 0x63D JUMP JUMPDEST POP ADD SWAP1 JUMP JUMPDEST PUSH1 0x0 PUSH1 0x20 DUP3 DUP5 SUB SLT ISZERO PUSH2 0x67D JUMPI PUSH1 0x0 DUP1 REVERT JUMPDEST DUP2 MLOAD DUP1 ISZERO ISZERO DUP2 EQ PUSH2 0x61D JUMPI PUSH1 0x0 DUP1 REVERT JUMPDEST PUSH1 0x0 DUP3 DUP3 LT ISZERO PUSH2 0x69F JUMPI PUSH2 0x69F PUSH2 0x63D JUMP JUMPDEST POP SUB SWAP1 JUMP JUMPDEST PUSH1 0x0 PUSH1 0x20 DUP3 DUP5 SUB SLT ISZERO PUSH2 0x6B6 JUMPI PUSH1 0x0 DUP1 REVERT JUMPDEST POP MLOAD SWAP2 SWAP1 POP JUMP JUMPDEST PUSH4 0x4E487B71 PUSH1 0xE0 SHL PUSH1 0x0 MSTORE PUSH1 0x32 PUSH1 0x4 MSTORE PUSH1 0x24 PUSH1 0x0 REVERT JUMPDEST PUSH1 0x0 PUSH1 0x0 NOT DUP3 EQ ISZERO PUSH2 0x6E7 JUMPI PUSH2 0x6E7 PUSH2 0x63D JUMP JUMPDEST POP PUSH1 0x1 ADD SWAP1 JUMP INVALID LOG2 PUSH5 0x6970667358 0x22 SLT KECCAK256 SHR SWAP10 PUSH21 0xA5F2CEABDC7AAC3725A14F736887E9F701C78A4E19 0xCE 0xB5 0xE7 0xA6 0x5D ADDRESS ORIGIN 0xE9 PUSH5 0x736F6C6343 STOP ADDMOD SIGNEXTEND STOP CALLER PUSH1 0x80 PUSH1 0x40 MSTORE CALLVALUE DUP1 ISZERO PUSH2 0x10 JUMPI PUSH1 0x0 DUP1 REVERT JUMPDEST POP PUSH1 0x40 MLOAD PUSH2 0xB76 CODESIZE SUB DUP1 PUSH2 0xB76 DUP4 CODECOPY DUP2 ADD PUSH1 0x40 DUP2 SWAP1 MSTORE PUSH2 0x2F SWAP2 PUSH2 0x54 JUMP JUMPDEST PUSH1 0x0 DUP1 SLOAD PUSH1 0x1 PUSH1 0x1 PUSH1 0xA0 SHL SUB NOT AND PUSH1 0x1 PUSH1 0x1 PUSH1 0xA0 SHL SUB SWAP3 SWAP1 SWAP3 AND SWAP2 SWAP1 SWAP2 OR SWAP1 SSTORE PUSH2 0x84 JUMP JUMPDEST PUSH1 0x0 PUSH1 0x20 DUP3 DUP5 SUB SLT ISZERO PUSH2 0x66 JUMPI PUSH1 0x0 DUP1 REVERT JUMPDEST DUP2 MLOAD PUSH1 0x1 PUSH1 0x1 PUSH1 0xA0 SHL SUB DUP2 AND DUP2 EQ PUSH2 0x7D JUMPI PUSH1 0x0 DUP1 REVERT JUMPDEST SWAP4 SWAP3 POP POP POP JUMP JUMPDEST PUSH2 0xAE3 DUP1 PUSH2 0x93 PUSH1 0x0 CODECOPY PUSH1 0x0 RETURN INVALID PUSH1 0x80 PUSH1 0x40 MSTORE CALLVALUE DUP1 ISZERO PUSH2 0x10 JUMPI PUSH1 0x0 DUP1 REVERT JUMPDEST POP PUSH1 0x4 CALLDATASIZE LT PUSH2 0x9E JUMPI PUSH1 0x0 CALLDATALOAD PUSH1 0xE0 SHR DUP1 PUSH4 0x7DA7D3F1 GT PUSH2 0x66 JUMPI DUP1 PUSH4 0x7DA7D3F1 EQ PUSH2 0x141 JUMPI DUP1 PUSH4 0xCEBC743D EQ PUSH2 0x154 JUMPI DUP1 PUSH4 0xE4128FB3 EQ PUSH2 0x167 JUMPI DUP1 PUSH4 0xEEDC966A EQ PUSH2 0x192 JUMPI DUP1 PUSH4 0xF3984804 EQ PUSH2 0x1BF JUMPI PUSH1 0x0 DUP1 REVERT JUMPDEST DUP1 PUSH4 0xB56FD49 EQ PUSH2 0xA3 JUMPI DUP1 PUSH4 0xE19AE76 EQ PUSH2 0xB8 JUMPI DUP1 PUSH4 0x13957027 EQ PUSH2 0xCB JUMPI DUP1 PUSH4 0x3683EF57 EQ PUSH2 0xDE JUMPI DUP1 PUSH4 0x5719DD22 EQ PUSH2 0x12F JUMPI JUMPDEST PUSH1 0x0 DUP1 REVERT JUMPDEST PUSH2 0xB6 PUSH2 0xB1 CALLDATASIZE PUSH1 0x4 PUSH2 0x8C1 JUMP JUMPDEST PUSH2 0x1FE JUMP JUMPDEST STOP JUMPDEST PUSH2 0xB6 PUSH2 0xC6 CALLDATASIZE PUSH1 0x4 PUSH2 0x8EB JUMP JUMPDEST PUSH2 0x348 JUMP JUMPDEST PUSH2 0xB6 PUSH2 0xD9 CALLDATASIZE PUSH1 0x4 PUSH2 0x8C1 JUMP JUMPDEST PUSH2 0x475 JUMP JUMPDEST PUSH2 0xF1 PUSH2 0xEC CALLDATASIZE PUSH1 0x4 PUSH2 0x8C1 JUMP JUMPDEST PUSH2 0x54E JUMP JUMPDEST PUSH1 0x40 DUP1 MLOAD PUSH1 0x1 PUSH1 0x1 PUSH1 0xA0 SHL SUB SWAP1 SWAP8 AND DUP8 MSTORE PUSH1 0x20 DUP8 ADD SWAP6 SWAP1 SWAP6 MSTORE SWAP4 DUP6 ADD SWAP3 SWAP1 SWAP3 MSTORE PUSH1 0x60 DUP5 ADD MSTORE PUSH1 0x80 DUP4 ADD MSTORE ISZERO ISZERO PUSH1 0xA0 DUP3 ADD MSTORE PUSH1 0xC0 ADD JUMPDEST PUSH1 0x40 MLOAD DUP1 SWAP2 SUB SWAP1 RETURN JUMPDEST PUSH1 0x2 SLOAD JUMPDEST PUSH1 0x40 MLOAD SWAP1 DUP2 MSTORE PUSH1 0x20 ADD PUSH2 0x126 JUMP JUMPDEST PUSH2 0xB6 PUSH2 0x14F CALLDATASIZE PUSH1 0x4 PUSH2 0x8C1 JUMP JUMPDEST PUSH2 0x5C2 JUMP JUMPDEST PUSH2 0xB6 PUSH2 0x162 CALLDATASIZE PUSH1 0x4 PUSH2 0x8EB JUMP JUMPDEST PUSH2 0x703 JUMP JUMPDEST PUSH1 0x0 SLOAD PUSH2 0x17A SWAP1 PUSH1 0x1 PUSH1 0x1 PUSH1 0xA0 SHL SUB AND DUP2 JUMP JUMPDEST PUSH1 0x40 MLOAD PUSH1 0x1 PUSH1 0x1 PUSH1 0xA0 SHL SUB SWAP1 SWAP2 AND DUP2 MSTORE PUSH1 0x20 ADD PUSH2 0x126 JUMP JUMPDEST PUSH2 0x133 PUSH2 0x1A0 CALLDATASIZE PUSH1 0x4 PUSH2 0x91E JUMP JUMPDEST PUSH1 0x1 PUSH1 0x1 PUSH1 0xA0 SHL SUB AND PUSH1 0x0 SWAP1 DUP2 MSTORE PUSH1 0x1 PUSH1 0x20 DUP2 SWAP1 MSTORE PUSH1 0x40 SWAP1 SWAP2 KECCAK256 ADD SLOAD SWAP1 JUMP JUMPDEST PUSH2 0x1EE PUSH2 0x1CD CALLDATASIZE PUSH1 0x4 PUSH2 0x91E JUMP JUMPDEST PUSH1 0x1 PUSH1 0x1 PUSH1 0xA0 SHL SUB AND PUSH1 0x0 SWAP1 DUP2 MSTORE PUSH1 0x1 PUSH1 0x20 MSTORE PUSH1 0x40 SWAP1 KECCAK256 PUSH1 0x3 ADD SLOAD PUSH1 0xFF AND SWAP1 JUMP JUMPDEST PUSH1 0x40 MLOAD SWAP1 ISZERO ISZERO DUP2 MSTORE PUSH1 0x20 ADD PUSH2 0x126 JUMP JUMPDEST PUSH1 0x0 DUP2 SGT PUSH2 0x227 JUMPI PUSH1 0x40 MLOAD PUSH3 0x461BCD PUSH1 0xE5 SHL DUP2 MSTORE PUSH1 0x4 ADD PUSH2 0x21E SWAP1 PUSH2 0x940 JUMP JUMPDEST PUSH1 0x40 MLOAD DUP1 SWAP2 SUB SWAP1 REVERT JUMPDEST PUSH1 0x1 PUSH1 0x1 PUSH1 0xA0 SHL SUB DUP3 AND PUSH1 0x0 SWAP1 DUP2 MSTORE PUSH1 0x1 PUSH1 0x20 MSTORE PUSH1 0x40 SWAP1 KECCAK256 PUSH1 0x3 DUP2 ADD SLOAD PUSH1 0xFF AND PUSH2 0x263 JUMPI PUSH1 0x40 MLOAD PUSH3 0x461BCD PUSH1 0xE5 SHL DUP2 MSTORE PUSH1 0x4 ADD PUSH2 0x21E SWAP1 PUSH2 0x96C JUMP JUMPDEST PUSH1 0x0 DUP2 PUSH1 0x1 ADD SLOAD SLT PUSH2 0x2B7 JUMPI PUSH1 0x40 MLOAD PUSH3 0x461BCD PUSH1 0xE5 SHL DUP2 MSTORE PUSH1 0x20 PUSH1 0x4 DUP3 ADD DUP2 SWAP1 MSTORE PUSH1 0x24 DUP3 ADD MSTORE PUSH32 0x596F7520646F6E2774206F776520616E7920666F72207468697320746F6B656E PUSH1 0x44 DUP3 ADD MSTORE PUSH1 0x64 ADD PUSH2 0x21E JUMP JUMPDEST DUP1 PUSH1 0x1 ADD SLOAD PUSH2 0x2C5 SWAP1 PUSH2 0x9CA JUMP JUMPDEST DUP3 SGT ISZERO PUSH2 0x320 JUMPI PUSH1 0x40 MLOAD PUSH3 0x461BCD PUSH1 0xE5 SHL DUP2 MSTORE PUSH1 0x20 PUSH1 0x4 DUP3 ADD MSTORE PUSH1 0x23 PUSH1 0x24 DUP3 ADD MSTORE PUSH32 0x596F7520617265206F766572706179696E6720666F72207768617420796F7520 PUSH1 0x44 DUP3 ADD MSTORE PUSH3 0x6F7765 PUSH1 0xE8 SHL PUSH1 0x64 DUP3 ADD MSTORE PUSH1 0x84 ADD PUSH2 0x21E JUMP JUMPDEST DUP2 DUP2 PUSH1 0x1 ADD PUSH1 0x0 DUP3 DUP3 SLOAD PUSH2 0x334 SWAP2 SWAP1 PUSH2 0x9E7 JUMP JUMPDEST SWAP1 SWAP2 SSTORE POP PUSH2 0x343 SWAP1 POP DUP4 PUSH2 0x840 JUMP JUMPDEST POP POP POP JUMP JUMPDEST PUSH1 0x0 DUP3 SGT PUSH2 0x368 JUMPI PUSH1 0x40 MLOAD PUSH3 0x461BCD PUSH1 0xE5 SHL DUP2 MSTORE PUSH1 0x4 ADD PUSH2 0x21E SWAP1 PUSH2 0x940 JUMP JUMPDEST PUSH1 0x1 PUSH1 0x1 PUSH1 0xA0 SHL SUB DUP4 AND PUSH1 0x0 SWAP1 DUP2 MSTORE PUSH1 0x1 PUSH1 0x20 MSTORE PUSH1 0x40 SWAP1 KECCAK256 PUSH1 0x3 DUP2 ADD SLOAD PUSH1 0xFF AND ISZERO PUSH2 0x3AC JUMPI DUP3 DUP2 PUSH1 0x1 ADD PUSH1 0x0 DUP3 DUP3 SLOAD PUSH2 0x3A1 SWAP2 SWAP1 PUSH2 0x9E7 JUMP JUMPDEST SWAP1 SWAP2 SSTORE POP PUSH2 0x46F SWAP1 POP JUMP JUMPDEST PUSH1 0x40 DUP1 MLOAD PUSH1 0xA0 DUP2 ADD DUP3 MSTORE PUSH1 0x1 PUSH1 0x1 PUSH1 0xA0 SHL SUB DUP1 DUP8 AND DUP1 DUP4 MSTORE PUSH1 0x20 DUP1 DUP5 ADD DUP9 DUP2 MSTORE DUP5 DUP7 ADD DUP9 DUP2 MSTORE PUSH1 0x1 PUSH1 0x60 DUP8 ADD DUP2 DUP2 MSTORE TIMESTAMP PUSH1 0x80 DUP10 ADD SWAP1 DUP2 MSTORE PUSH1 0x0 DUP8 DUP2 MSTORE SWAP6 DUP4 SWAP1 MSTORE SWAP9 DUP6 KECCAK256 SWAP8 MLOAD DUP9 SLOAD SWAP8 AND PUSH1 0x1 PUSH1 0x1 PUSH1 0xA0 SHL SUB NOT SWAP8 DUP9 AND OR DUP9 SSTORE SWAP3 MLOAD DUP8 DUP3 ADD SSTORE SWAP1 MLOAD PUSH1 0x2 DUP1 DUP9 ADD SWAP2 SWAP1 SWAP2 SSTORE SWAP2 MLOAD PUSH1 0x3 DUP8 ADD DUP1 SLOAD SWAP2 ISZERO ISZERO PUSH1 0xFF NOT SWAP1 SWAP3 AND SWAP2 SWAP1 SWAP2 OR SWAP1 SSTORE SWAP6 MLOAD PUSH1 0x4 SWAP1 SWAP6 ADD SWAP5 SWAP1 SWAP5 SSTORE DUP4 SLOAD SWAP5 DUP6 ADD DUP5 SSTORE SWAP3 SWAP1 SWAP3 MSTORE PUSH32 0x405787FA12A823E0F2B7631CC41B3BA8828B3321CA811111FA75CD3AA3BB5ACE SWAP1 SWAP3 ADD DUP1 SLOAD SWAP1 SWAP3 AND OR SWAP1 SSTORE JUMPDEST POP POP POP POP JUMP JUMPDEST PUSH1 0x1 PUSH1 0x1 PUSH1 0xA0 SHL SUB DUP3 AND PUSH1 0x0 SWAP1 DUP2 MSTORE PUSH1 0x1 PUSH1 0x20 MSTORE PUSH1 0x40 SWAP1 KECCAK256 PUSH1 0x3 DUP2 ADD SLOAD TIMESTAMP SWAP1 PUSH1 0xFF AND ISZERO PUSH2 0x46F JUMPI PUSH20 0x0 PUSH4 0xE24A9E6E DUP4 PUSH1 0x1 ADD SLOAD DUP5 PUSH1 0x2 ADD SLOAD DUP6 PUSH1 0x4 ADD SLOAD DUP6 PUSH2 0x4D0 SWAP2 SWAP1 PUSH2 0xA28 JUMP JUMPDEST PUSH1 0x40 MLOAD PUSH1 0x1 PUSH1 0x1 PUSH1 0xE0 SHL SUB NOT PUSH1 0xE0 DUP7 SWAP1 SHL AND DUP2 MSTORE PUSH1 0x4 DUP2 ADD SWAP4 SWAP1 SWAP4 MSTORE PUSH1 0x24 DUP4 ADD SWAP2 SWAP1 SWAP2 MSTORE PUSH1 0x44 DUP3 ADD MSTORE PUSH1 0x64 ADD PUSH1 0x20 PUSH1 0x40 MLOAD DUP1 DUP4 SUB DUP2 DUP7 GAS DELEGATECALL ISZERO DUP1 ISZERO PUSH2 0x519 JUMPI RETURNDATASIZE PUSH1 0x0 DUP1 RETURNDATACOPY RETURNDATASIZE PUSH1 0x0 REVERT JUMPDEST POP POP POP POP PUSH1 0x40 MLOAD RETURNDATASIZE PUSH1 0x1F NOT PUSH1 0x1F DUP3 ADD AND DUP3 ADD DUP1 PUSH1 0x40 MSTORE POP DUP2 ADD SWAP1 PUSH2 0x53D SWAP2 SWAP1 PUSH2 0xA3F JUMP JUMPDEST PUSH1 0x1 DUP4 ADD SSTORE PUSH1 0x4 DUP3 ADD SSTORE PUSH1 0x2 ADD SSTORE POP JUMP JUMPDEST PUSH1 0x0 DUP1 PUSH1 0x0 DUP1 PUSH1 0x0 DUP1 PUSH1 0x0 PUSH1 0x2 DUP9 DUP2 SLOAD DUP2 LT PUSH2 0x56C JUMPI PUSH2 0x56C PUSH2 0xA58 JUMP JUMPDEST PUSH1 0x0 SWAP2 DUP3 MSTORE PUSH1 0x20 DUP1 DUP4 KECCAK256 SWAP2 SWAP1 SWAP2 ADD SLOAD PUSH1 0x1 PUSH1 0x1 PUSH1 0xA0 SHL SUB AND DUP1 DUP4 MSTORE PUSH1 0x1 SWAP2 DUP3 SWAP1 MSTORE PUSH1 0x40 SWAP1 SWAP3 KECCAK256 SWAP1 DUP2 ADD SLOAD PUSH1 0x2 DUP3 ADD SLOAD PUSH1 0x4 DUP4 ADD SLOAD PUSH1 0x3 SWAP1 SWAP4 ADD SLOAD SWAP4 SWAP14 SWAP2 SWAP13 POP SWAP11 POP PUSH1 0x12 SWAP10 POP SWAP1 SWAP8 POP PUSH1 0xFF SWAP1 SWAP2 AND SWAP6 POP SWAP4 POP POP POP POP JUMP JUMPDEST PUSH1 0x0 DUP2 SGT PUSH2 0x5E2 JUMPI PUSH1 0x40 MLOAD PUSH3 0x461BCD PUSH1 0xE5 SHL DUP2 MSTORE PUSH1 0x4 ADD PUSH2 0x21E SWAP1 PUSH2 0x940 JUMP JUMPDEST PUSH1 0x1 PUSH1 0x1 PUSH1 0xA0 SHL SUB DUP3 AND PUSH1 0x0 SWAP1 DUP2 MSTORE PUSH1 0x1 PUSH1 0x20 MSTORE PUSH1 0x40 SWAP1 KECCAK256 PUSH1 0x3 DUP2 ADD SLOAD PUSH1 0xFF AND PUSH2 0x61E JUMPI PUSH1 0x40 MLOAD PUSH3 0x461BCD PUSH1 0xE5 SHL DUP2 MSTORE PUSH1 0x4 ADD PUSH2 0x21E SWAP1 PUSH2 0x96C JUMP JUMPDEST PUSH1 0x0 DUP2 PUSH1 0x1 ADD SLOAD SGT PUSH2 0x686 JUMPI PUSH1 0x40 MLOAD PUSH3 0x461BCD PUSH1 0xE5 SHL DUP2 MSTORE PUSH1 0x20 PUSH1 0x4 DUP3 ADD MSTORE PUSH1 0x2B PUSH1 0x24 DUP3 ADD MSTORE PUSH32 0x596F75722062616C616E636520666F72207468697320746F6B656E206973206E PUSH1 0x44 DUP3 ADD MSTORE PUSH11 0x6F7420706F736974697665 PUSH1 0xA8 SHL PUSH1 0x64 DUP3 ADD MSTORE PUSH1 0x84 ADD PUSH2 0x21E JUMP JUMPDEST DUP1 PUSH1 0x1 ADD SLOAD DUP3 SGT ISZERO PUSH2 0x6EF JUMPI PUSH1 0x40 MLOAD PUSH3 0x461BCD PUSH1 0xE5 SHL DUP2 MSTORE PUSH1 0x20 PUSH1 0x4 DUP3 ADD MSTORE PUSH1 0x2C PUSH1 0x24 DUP3 ADD MSTORE PUSH32 0x596F75206861766520696E73756666696369656E742062616C616E636520666F PUSH1 0x44 DUP3 ADD MSTORE PUSH12 0x39103A3434B9903A37B5B2B7 PUSH1 0xA1 SHL PUSH1 0x64 DUP3 ADD MSTORE PUSH1 0x84 ADD PUSH2 0x21E JUMP JUMPDEST DUP2 DUP2 PUSH1 0x1 ADD PUSH1 0x0 DUP3 DUP3 SLOAD PUSH2 0x334 SWAP2 SWAP1 PUSH2 0xA6E JUMP JUMPDEST PUSH1 0x0 DUP3 SGT PUSH2 0x723 JUMPI PUSH1 0x40 MLOAD PUSH3 0x461BCD PUSH1 0xE5 SHL DUP2 MSTORE PUSH1 0x4 ADD PUSH2 0x21E SWAP1 PUSH2 0x940 JUMP JUMPDEST PUSH1 0x1 PUSH1 0x1 PUSH1 0xA0 SHL SUB DUP4 AND PUSH1 0x0 SWAP1 DUP2 MSTORE PUSH1 0x1 PUSH1 0x20 MSTORE PUSH1 0x40 SWAP1 KECCAK256 PUSH1 0x3 DUP2 ADD SLOAD PUSH1 0xFF AND ISZERO PUSH2 0x75C JUMPI DUP3 DUP2 PUSH1 0x1 ADD PUSH1 0x0 DUP3 DUP3 SLOAD PUSH2 0x3A1 SWAP2 SWAP1 PUSH2 0xA6E JUMP JUMPDEST PUSH1 0x40 MLOAD DUP1 PUSH1 0xA0 ADD PUSH1 0x40 MSTORE DUP1 DUP6 PUSH1 0x1 PUSH1 0x1 PUSH1 0xA0 SHL SUB AND DUP2 MSTORE PUSH1 0x20 ADD DUP5 PUSH2 0x780 SWAP1 PUSH2 0x9CA JUMP JUMPDEST DUP2 MSTORE PUSH1 0x20 DUP1 DUP3 ADD SWAP5 SWAP1 SWAP5 MSTORE PUSH1 0x1 PUSH1 0x40 DUP1 DUP4 ADD DUP3 SWAP1 MSTORE TIMESTAMP PUSH1 0x60 SWAP4 DUP5 ADD MSTORE PUSH1 0x1 PUSH1 0x1 PUSH1 0xA0 SHL SUB SWAP8 DUP9 AND PUSH1 0x0 DUP2 DUP2 MSTORE DUP4 DUP9 MSTORE DUP3 DUP2 KECCAK256 DUP7 MLOAD DUP2 SLOAD PUSH1 0x1 PUSH1 0x1 PUSH1 0xA0 SHL SUB NOT SWAP1 DUP2 AND SWAP2 SWAP1 SWAP13 AND OR DUP2 SSTORE SWAP8 DUP7 ADD MLOAD DUP9 DUP6 ADD SSTORE SWAP2 DUP6 ADD MLOAD PUSH1 0x2 DUP1 DUP10 ADD SWAP2 SWAP1 SWAP2 SSTORE SWAP4 DUP6 ADD MLOAD PUSH1 0x3 DUP9 ADD DUP1 SLOAD PUSH1 0xFF NOT AND SWAP2 ISZERO ISZERO SWAP2 SWAP1 SWAP2 OR SWAP1 SSTORE PUSH1 0x80 SWAP1 SWAP5 ADD MLOAD PUSH1 0x4 SWAP1 SWAP7 ADD SWAP6 SWAP1 SWAP6 SSTORE DUP2 SLOAD SWAP1 DUP2 ADD DUP3 SSTORE SWAP4 MSTORE PUSH32 0x405787FA12A823E0F2B7631CC41B3BA8828B3321CA811111FA75CD3AA3BB5ACE SWAP1 SWAP3 ADD DUP1 SLOAD SWAP1 SWAP5 AND SWAP1 SWAP2 OR SWAP1 SWAP3 SSTORE POP POP JUMP JUMPDEST PUSH1 0x1 PUSH1 0x1 PUSH1 0xA0 SHL SUB DUP2 AND PUSH1 0x0 SWAP1 DUP2 MSTORE PUSH1 0x1 PUSH1 0x20 MSTORE PUSH1 0x40 SWAP1 KECCAK256 PUSH1 0x3 DUP2 ADD SLOAD PUSH1 0xFF AND DUP1 ISZERO PUSH2 0x870 JUMPI POP PUSH1 0x5 DUP2 PUSH1 0x1 ADD SLOAD SLT JUMPDEST DUP1 ISZERO PUSH2 0x888 JUMPI POP PUSH2 0x881 PUSH1 0x5 PUSH2 0x9CA JUMP JUMPDEST DUP2 PUSH1 0x1 ADD SLOAD SGT JUMPDEST ISZERO PUSH2 0x8A1 JUMPI PUSH1 0x0 PUSH1 0x1 DUP3 ADD SSTORE PUSH1 0x3 DUP2 ADD DUP1 SLOAD PUSH1 0xFF NOT AND SWAP1 SSTORE JUMPDEST POP POP JUMP JUMPDEST DUP1 CALLDATALOAD PUSH1 0x1 PUSH1 0x1 PUSH1 0xA0 SHL SUB DUP2 AND DUP2 EQ PUSH2 0x8BC JUMPI PUSH1 0x0 DUP1 REVERT JUMPDEST SWAP2 SWAP1 POP JUMP JUMPDEST PUSH1 0x0 DUP1 PUSH1 0x40 DUP4 DUP6 SUB SLT ISZERO PUSH2 0x8D4 JUMPI PUSH1 0x0 DUP1 REVERT JUMPDEST PUSH2 0x8DD DUP4 PUSH2 0x8A5 JUMP JUMPDEST SWAP5 PUSH1 0x20 SWAP4 SWAP1 SWAP4 ADD CALLDATALOAD SWAP4 POP POP POP JUMP JUMPDEST PUSH1 0x0 DUP1 PUSH1 0x0 PUSH1 0x60 DUP5 DUP7 SUB SLT ISZERO PUSH2 0x900 JUMPI PUSH1 0x0 DUP1 REVERT JUMPDEST PUSH2 0x909 DUP5 PUSH2 0x8A5 JUMP JUMPDEST SWAP6 PUSH1 0x20 DUP6 ADD CALLDATALOAD SWAP6 POP PUSH1 0x40 SWAP1 SWAP5 ADD CALLDATALOAD SWAP4 SWAP3 POP POP POP JUMP JUMPDEST PUSH1 0x0 PUSH1 0x20 DUP3 DUP5 SUB SLT ISZERO PUSH2 0x930 JUMPI PUSH1 0x0 DUP1 REVERT JUMPDEST PUSH2 0x939 DUP3 PUSH2 0x8A5 JUMP JUMPDEST SWAP4 SWAP3 POP POP POP JUMP JUMPDEST PUSH1 0x20 DUP1 DUP3 MSTORE PUSH1 0x12 SWAP1 DUP3 ADD MSTORE PUSH18 0x416D6F756E74206D757374206265203E203 PUSH1 0x74 SHL PUSH1 0x40 DUP3 ADD MSTORE PUSH1 0x60 ADD SWAP1 JUMP JUMPDEST PUSH1 0x20 DUP1 DUP3 MSTORE PUSH1 0x28 SWAP1 DUP3 ADD MSTORE PUSH32 0x596F7572204C6F616E206163636F756E7420646F65736E277420686176652074 PUSH1 0x40 DUP3 ADD MSTORE PUSH8 0x3434B99031B7B4B7 PUSH1 0xC1 SHL PUSH1 0x60 DUP3 ADD MSTORE PUSH1 0x80 ADD SWAP1 JUMP JUMPDEST PUSH4 0x4E487B71 PUSH1 0xE0 SHL PUSH1 0x0 MSTORE PUSH1 0x11 PUSH1 0x4 MSTORE PUSH1 0x24 PUSH1 0x0 REVERT JUMPDEST PUSH1 0x0 PUSH1 0x1 PUSH1 0xFF SHL DUP3 EQ ISZERO PUSH2 0x9E0 JUMPI PUSH2 0x9E0 PUSH2 0x9B4 JUMP JUMPDEST POP PUSH1 0x0 SUB SWAP1 JUMP JUMPDEST PUSH1 0x0 DUP1 DUP3 SLT DUP1 ISZERO PUSH1 0x1 PUSH1 0x1 PUSH1 0xFF SHL SUB DUP5 SWAP1 SUB DUP6 SGT AND ISZERO PUSH2 0xA09 JUMPI PUSH2 0xA09 PUSH2 0x9B4 JUMP JUMPDEST PUSH1 0x1 PUSH1 0xFF SHL DUP4 SWAP1 SUB DUP5 SLT DUP2 AND ISZERO PUSH2 0xA22 JUMPI PUSH2 0xA22 PUSH2 0x9B4 JUMP JUMPDEST POP POP ADD SWAP1 JUMP JUMPDEST PUSH1 0x0 DUP3 DUP3 LT ISZERO PUSH2 0xA3A JUMPI PUSH2 0xA3A PUSH2 0x9B4 JUMP JUMPDEST POP SUB SWAP1 JUMP JUMPDEST PUSH1 0x0 PUSH1 0x20 DUP3 DUP5 SUB SLT ISZERO PUSH2 0xA51 JUMPI PUSH1 0x0 DUP1 REVERT JUMPDEST POP MLOAD SWAP2 SWAP1 POP JUMP JUMPDEST PUSH4 0x4E487B71 PUSH1 0xE0 SHL PUSH1 0x0 MSTORE PUSH1 0x32 PUSH1 0x4 MSTORE PUSH1 0x24 PUSH1 0x0 REVERT JUMPDEST PUSH1 0x0 DUP1 DUP4 SLT DUP1 ISZERO PUSH1 0x1 PUSH1 0xFF SHL DUP6 ADD DUP5 SLT AND ISZERO PUSH2 0xA8C JUMPI PUSH2 0xA8C PUSH2 0x9B4 JUMP JUMPDEST PUSH1 0x1 PUSH1 0x1 PUSH1 0xFF SHL SUB DUP5 ADD DUP4 SGT DUP2 AND ISZERO PUSH2 0xAA7 JUMPI PUSH2 0xAA7 PUSH2 0x9B4 JUMP JUMPDEST POP POP SUB SWAP1 JUMP INVALID LOG2 PUSH5 0x6970667358 0x22 SLT KECCAK256 0x4C SIGNEXTEND SWAP15 0x1E 0xE2 0xED 0x5E MSIZE 0x2D 0xDB 0xD0 DUP10 XOR GASPRICE SWAP3 0xDD 0xEB PUSH7 0x98A34034899A86 PUSH2 0x2A84 OR 0xE0 0x2C SLOAD PUSH5 0x736F6C6343 STOP ADDMOD SIGNEXTEND STOP CALLER LOG2 PUSH5 0x6970667358 0x22 SLT KECCAK256 CALLDATALOAD 0xE1 0xAD 0xCC PUSH10 0x8A1D50F483255269314F 0x5F PUSH11 0xA6C0A344A1C5355DA79570 DELEGATECALL CALLDATASIZE CREATE 0xDF PUSH5 0x736F6C6343 STOP ADDMOD SIGNEXTEND STOP CALLER ","sha1":"7b34b36f39c6a6906ddcb79b4cfeb9bd9910c471","source":"// SPDX-License-Identifier: MIT\npragma solidity ^0.8.0;\n\nimport \"./LoanAccount.sol\";\nimport \"./LoanPool.sol\";\nimport \"./PotamusUtils.sol\";\nimport \"./IERC20.sol\";\n\ncontract PotamusLoan {\n    struct SearchableLoanAccount {\n        bool isExist;\n        address loanAccountAddress; //Address of LoanAccount\n    }\n\n    struct SearchableLoanPool {\n        bool isExist;\n        address loanPoolAddress; //Address of LoanPool\n    }\n\n    uint256 public reserve;\n    //UserAccount Address => Address of LoanAccount\n    mapping(address => SearchableLoanAccount) public loanAccountMap;\n    //Token Address => Address of LoanPool\n    mapping(address => SearchableLoanPool) public loanPoolMap;\n    //List of available pool address\n    address[] poolAddressList;\n\n    //Wrapper function for LoanAccount\n    function getTokenListLength(address _userAddress)\n        public\n        view\n        returns (uint256)\n    {\n        if (loanAccountMap[_userAddress].isExist) {\n            LoanAccount loanAccount = LoanAccount(\n                loanAccountMap[_userAddress].loanAccountAddress\n            );\n            return loanAccount.getTokenListLength();\n        }\n    }\n\n    function getTokenBalanceInfo(address _userAddress, uint256 _index)\n        public\n        view\n        returns (\n            address _tokenAddress,\n            int256 _balance,\n            uint256 _fSecondRate,\n            uint256 _secondRateDecimals,\n            uint256 lastUpdated,\n            bool _isExist\n        )\n    {\n        if (loanAccountMap[_userAddress].isExist) {\n            LoanAccount loanAccount = LoanAccount(\n                loanAccountMap[_userAddress].loanAccountAddress\n            );\n            return loanAccount.getTokenBalanceInfo(_userAddress, _index);\n        }\n    }\n\n    //End of wrapper function for LoanAccount\n\n    //Wrapper function for LoanAccount\n    function getNumPool() public view returns (uint256) {\n        return poolAddressList.length;\n    }\n\n    function getPoolInfo(uint256 _index)\n        public\n        view\n        returns (\n            address _tokenAddress,\n            uint256 _fAnnualInterestRate,\n            uint256 _floatDecimals,\n            uint256 _depositBalance,\n            uint256 _loanBalance\n        )\n    {\n        LoanPool loanPool = LoanPool(poolAddressList[_index]);\n        return (\n            loanPool.tokenAddress(),\n            loanPool.fAnnualInteretRate(),\n            PotamusUtils.FLOAT_DECIMALS,\n            loanPool.depositBalance(),\n            loanPool.loanBalance()\n        );\n    }\n\n    //End of wrapper function for LoanAccount\n\n    function deposit(address _token, uint256 _amount) public {\n        //Require checks\n        require(\n            IERC20(_token).allowance(msg.sender, address(this)) >= _amount,\n            \"User approved amount is insufficient\"\n        );\n        //TODO: There are a lot of requirement check missing here\n\n        //Creating LoanPool or Loan Account if they don't exist yet\n        if (!loanPoolMap[_token].isExist) {\n            loanPoolMap[_token] = SearchableLoanPool(\n                true,\n                address(new LoanPool(_token))\n            );\n            //Adding Pool to list of pool\n            poolAddressList.push(loanPoolMap[_token].loanPoolAddress);\n        }\n        if (!loanAccountMap[msg.sender].isExist) {\n            loanAccountMap[msg.sender] = SearchableLoanAccount(\n                true,\n                address(new LoanAccount(msg.sender))\n            );\n        }\n        LoanPool loanPool = LoanPool(loanPoolMap[_token].loanPoolAddress);\n        LoanAccount loanAccount = LoanAccount(\n            loanAccountMap[msg.sender].loanAccountAddress\n        );\n\n        //Transferring money from user account to loan pool account\n        require(\n            IERC20(_token).transferFrom(msg.sender, address(loanPool), _amount),\n            \"Transfer of token failed\"\n        );\n\n        //Update Loan Pool\n        loanPool.deposit(_amount);\n        loanPool.addLoanAccount(address(loanAccount));\n\n        //Update Loan Account\n        loanAccount.deposit(\n            _token,\n            int256(_amount),\n            loanPool.fSecondInterestRate()\n        );\n    }\n\n    function withdraw(address _token, uint256 _amount)\n        public\n        onlyAccountExist(msg.sender)\n        onlyPoolExist(_token)\n        onlyAccountSufficientFund(msg.sender, _token, _amount)\n        onlyPoolSufficientFund(_token, _amount)\n    {\n        //TODO: Some other requirements\n        //TODO: Need to check from Oracle how much you can withdraw\n        LoanPool loanPool = LoanPool(loanPoolMap[_token].loanPoolAddress);\n        LoanAccount loanAccount = LoanAccount(\n            loanAccountMap[msg.sender].loanAccountAddress\n        );\n        //Do the actual fund transfer to Pool, this is done within the pool since the pool own that fund\n        loanPool.withdraw(msg.sender, _amount);\n        loanAccount.withdraw(_token, int256(_amount));\n\n        //If user withdraw all, remove LoanAccount from corresponding pool's watch list\n        if (!loanAccount.hasDepositOrLoan(_token)) {\n            loanPool.removeLoanAccount(address(loanAccount));\n        }\n    }\n\n    function loan(address _token, uint256 _amount)\n        public\n        onlyAccountExist(msg.sender)\n        onlyPoolExist(_token)\n        onlyPoolSufficientFund(_token, _amount)\n    {\n        LoanPool loanPool = LoanPool(loanPoolMap[_token].loanPoolAddress);\n        LoanAccount loanAccount = LoanAccount(\n            loanAccountMap[msg.sender].loanAccountAddress\n        );\n\n        //TODO: Some other requirements\n\n        //Do the actual fund transfer to Pool\n        loanPool.loan(msg.sender, _amount);\n\n        loanAccount.loan(\n            _token,\n            int256(_amount),\n            loanPool.fSecondInterestRate() //Get the most udpated interest rate\n        );\n\n        //Add the loan account into loan pool watch list\n        loanPool.addLoanAccount(address(loanAccount));\n    }\n\n    function payback(address _token, uint256 _amount)\n        public\n        onlyAccountExist(msg.sender)\n        onlyPoolExist(_token)\n    {\n        //TODO: Some other requirement here, like it should fail if the user\n        //overpay for what they owe\n\n        LoanPool loanPool = LoanPool(loanPoolMap[_token].loanPoolAddress);\n        LoanAccount loanAccount = LoanAccount(\n            loanAccountMap[msg.sender].loanAccountAddress\n        );\n\n        //Transferring money from user account to loan pool account\n        require(\n            IERC20(_token).transferFrom(msg.sender, address(loanPool), _amount),\n            \"Transfer of token failed\"\n        );\n\n        //Update Loan Pool\n        loanPool.payback(_amount);\n\n        //Update Loan Account\n        loanAccount.payback(_token, int256(_amount));\n\n        //If user paid back all, remove LoanAccount from corresponding pool\n        if (!loanAccount.hasDepositOrLoan(_token)) {\n            loanPool.removeLoanAccount(address(loanAccount));\n        }\n    }\n\n    modifier onlyPoolExist(address _token) {\n        require(\n            loanPoolMap[_token].isExist,\n            \"Pool of this token doesn't exist\"\n        );\n        _;\n    }\n\n    modifier onlyAccountExist(address _userAddress) {\n        require(\n            loanAccountMap[_userAddress].isExist,\n            \"Account of this user doesn't exist in the system\"\n        );\n        _;\n    }\n\n    modifier onlyPoolSufficientFund(address _token, uint256 _amount) {\n        require(\n            _amount <\n                LoanPool(loanPoolMap[_token].loanPoolAddress).availableFund(),\n            \"Pool of this token doesn't have sufficient available fund for this operation\"\n        );\n        _;\n    }\n\n    modifier onlyAccountSufficientFund(\n        address _userAddress,\n        address _token,\n        uint256 _amount\n    ) {\n        require(\n            //TODO: Come back at this ugly conversion again\n            int256(_amount) <\n                LoanAccount(loanAccountMap[_userAddress].loanAccountAddress)\n                    .tokenBalance(_token),\n            \"Pool of this token doesn't have sufficient available fund for this operation\"\n        );\n        _;\n    }\n}\n","sourcePath":"contracts/PotamusLoan.sol","deployment":{"address":"0xa9289978a4DA7Ee186AE0776062EE3fcB4A6c1b2","chainid":"42","blockHeight":29227142}}