{"abi":[{"inputs":[],"name":"FLOAT_DECIMALS","outputs":[{"internalType":"uint256","name":"","type":"uint256"}],"stateMutability":"view","type":"function"},{"inputs":[{"internalType":"uint256","name":"_loanBalance","type":"uint256"},{"internalType":"uint256","name":"_depositBalance","type":"uint256"},{"internalType":"uint256","name":"_fCRITICAL_UTIL_RATE","type":"uint256"},{"internalType":"uint256","name":"_fFIRST_ANNUAL_INTEREST_RATE","type":"uint256"},{"internalType":"uint256","name":"_fSECOND_ANNUAL_INTEREST_RATE","type":"uint256"}],"name":"getAnnualInterestRate","outputs":[{"internalType":"uint256","name":"fInterestRate","type":"uint256"}],"stateMutability":"pure","type":"function"},{"inputs":[{"internalType":"uint256","name":"_annualRate","type":"uint256"}],"name":"getEquivalentSecRate","outputs":[{"internalType":"uint256","name":"","type":"uint256"}],"stateMutability":"pure","type":"function"},{"inputs":[{"internalType":"int256","name":"_oldBalance","type":"int256"},{"internalType":"uint256","name":"_fRatePerSecond","type":"uint256"},{"internalType":"uint256","name":"_secondInterval","type":"uint256"}],"name":"getNewBalance","outputs":[{"internalType":"int256","name":"","type":"int256"}],"stateMutability":"pure","type":"function"}],"bytecode":"61256561003a600b82828239805160001a60731461002d57634e487b7160e01b600052600060045260246000fd5b30600052607381538281f3fe73000000000000000000000000000000000000000030146080604052600436106100565760003560e01c80638ddbf2481461005b57806398be96ac14610080578063d7daa11614610088578063e24a9e6e1461009b575b600080fd5b61006e61006936600461230d565b6100ae565b60405190815260200160405180910390f35b61006e601281565b61006e610096366004612326565b610149565b61006e6100a9366004612361565b610208565b600061014361013e61012a61011b6101166101096101046100f56100d18a610262565b6100f06100e06012600a612487565b6100eb906001612493565b610262565b6102c6565b6100ff6001610262565b61057e565b61094e565b6100f06301e13380610262565b610b01565b6101256001610262565b611e53565b6101396100e06012600a612487565b611e6c565b6120b7565b92915050565b600080858761015a6012600a612487565b6101649190612493565b61016e91906124c8565b9050848110156101a45761019c61013e61019361018a84610262565b6100f089610262565b61013987610262565b9150506101ff565b8481106101fd576101f361013e6101e66101c16100eb89866124ea565b6100f0896101d16012600a612487565b6101dc906001612493565b6100eb91906124ea565b6101396100eb88886124ea565b61019c9085612501565b505b95945050505050565b600061025a6102556102198661213a565b61013961011661022887610262565b6101396101046102386001610262565b6100ff6102448d610262565b6100f0670de0b6b3a7640000610262565b6121c8565b949350505050565b60008161027157506000919050565b81600061027d8261226f565b90506070811015610296578060700382901b91506102a9565b60708111156102a9576070810382901c91505b613fff0160701b6001600160701b03919091161760801b92915050565b6000617fff60f084811c8216919084901c81169082141561030c5780617fff14156102fb575061ffff60ef1b91506101439050565b505050600160ff1b81168218610143565b80617fff1415610350576dffffffffffffffffffffffffffff60801b84161561033f575061ffff60ef1b91506101439050565b505050808218600160ff1b16610143565b600160801b600160ff1b03841661039a57600160801b600160ff1b038516610382575061ffff60ef1b91506101439050565b505050808218600160ff1b16617fff60f01b17610143565b6001600160701b03608085901c16816103b657600191506103bd565b600160701b175b6001600160701b03608087901c16836103fc5780156103f75760006103e18261226f565b6001955060e20393840160711901939190911b90505b610406565b600160701b1760721b5b818181610415576104156124b2565b0490508061044257600160ff1b87871816610431576000610437565b600160ff1b5b945050505050610143565b6001606c1b81101561045657610456612519565b6000600160731b82101561049557600160721b82101561048a57600160711b82101561048357607061048d565b607161048d565b60725b60ff1661049e565b61049e8261226f565b9050836140710181860111156104bc57617fff94506000915061054f565b83818601613ffc0110156104d757600094506000915061054f565b83818601613f8c011015610524578385613ffc011115610502578385613ffc010382901b915061051b565b8385613ffc01101561051b57613ffc8585030382901c91505b6000945061054f565b6070811115610537576070810382901c91505b6001600160701b038216915083818601613f8d010394505b81607086901b888a186001607f1b60801b1660801c6001600160801b0316171760801b95505050505050610143565b6000617fff60f084811c8216919084901c8116908214156105dc5780617fff14156105d2576001600160801b031985811690851614156105c2578492505050610143565b5061ffff60ef1b91506101439050565b8492505050610143565b80617fff14156105f0578392505050610143565b6001607f1b608086901c90811015906001600160701b031683610616576001935061061d565b600160701b175b6001607f1b608087901c90811015906001600160701b031684610643576001945061064a565b600160701b175b8261067a576001600160801b03198816600160ff1b1461066a578761066d565b60005b9650505050505050610143565b8061069a576001600160801b03198916600160ff1b1461066a578861066d565b84860384151583151514156107a55760708113156106c15789975050505050505050610143565b60008113156106d35790811c90610702565b606f198112156106ec5788975050505050505050610143565b6000811215610702578060000384901c93508596505b92810192600160711b841061071d576001968701969390931c925b86617fff141561074f578461073757617fff60f01b610741565b6001600160f01b03195b975050505050505050610143565b600160701b8410156107645760009650610771565b6001600160701b03841693505b83607088901b86610783576000610789565b6001607f1b5b6001600160801b0316171760801b975050505050505050610143565b60008113156107c057600184901b93506001870396506107d7565b60008112156107d757600182901b91506001860396505b60708113156107e95760019150610836565b6001811315610806576001810360018303901c6001019150610836565b606f198112156108195760019350610836565b600019811215610836576001816000030360018503901c60010193505b818410610847578184039350610850565b83820393508294505b8361086657506000965061014395505050505050565b60006108718561226f565b9050806071141561089757600185901c6001600160701b031694506001880197506108e6565b60708110156108d9576070819003808911156108c6578086901b6001600160701b0316955080890398506108d3565b600098600019019590951b945b506108e6565b6001600160701b03851694505b87617fff1415610919578561090057617fff60f01b61090a565b6001600160f01b03195b98505050505050505050610143565b84607089901b8761092b576000610931565b6001607f1b5b6001600160801b0316171760801b98505050505050505050610143565b60006001607f1b608083901c111561096c575061ffff60ef1b919050565b613fff60f01b6001600160801b03198316141561098b57506000919050565b617fff60f083901c8116908114156109a4575090919050565b6001600160701b03608084901c16816109c057600191506109c7565b600160701b175b806109dd57506001600160f01b03199392505050565b600061406f81613fff8510610a035750600f9290921b9160009150613ffe198401610a42565b60019250600160701b8410610a255784613ffe039050600f84901b9350610a42565b6000610a308561226f565b607f8190039590951b9461406d039150505b836001607f1b1415610a79578215610a58576001015b6000610a638261226f565b60700390508082901b9150808303925050610ac7565b600083610a87576000610a8a565b60015b60ff1690505b600160701b821015610ac55793800260ff81901c607f81019190911c94600019939093019260019290921b9082180190610a90565b505b806001600160701b0316607083901b84610ae2576000610ae8565b6001607f1b5b6001600160801b0316171760801b979650505050505050565b60006001607f1b608083901c90811190617fff60f085901c8116916001600160701b03169082148015610b3357508015155b15610b47575061ffff60ef1b949350505050565b61400d821115610b6c5782610b6157617fff60f01b6101ff565b600095945050505050565b613f7f821015610b855750613fff60f01b949350505050565b81610b935760019150610b9a565b600160701b175b613fef821115610bb057613fee1982011b610bc2565b613fef821015610bc257613fef8290031c5b828015610bd3575061203760811b81115b15610be357506000949350505050565b82158015610c025750713fffffffffffffffffffffffffffffffffff81115b15610c165750617fff60f01b949350505050565b6001600160801b0381169060801c838015610c3057508115155b15610c3c579019906001015b6001607f1b82811615610c605770016a09e667f3bcc908b2fb1366ea957d3e0260801c5b6001607e1b831615610c83577001306fe0a31b7152de8d5a46305c85edec0260801c5b6001607d1b831615610ca6577001172b83c7d517adcdf7c8c50eb14a791f0260801c5b6001607c1b831615610cc95770010b5586cf9890f6298b92b71842a983630260801c5b6001607b1b831615610cec577001059b0d31585743ae7c548eb68ca417fd0260801c5b6001607a1b831615610d0f57700102c9a3e778060ee6f7caca4f7a29bde80260801c5b600160791b831615610d325770010163da9fb33356d84a66ae336dcdfa3f0260801c5b600160781b831615610d5557700100b1afa5abcbed6129ab13ec11dc95430260801c5b600160771b831615610d785770010058c86da1c09ea1ff19d294cf2f679b0260801c5b600160761b831615610d9b577001002c605e2e8cec506d21bfc89a23a00f0260801c5b600160751b831615610dbe57700100162f3904051fa128bca9c55c31e5df0260801c5b600160741b831615610de1577001000b175effdc76ba38e31671ca9397250260801c5b600160731b831615610e0457700100058ba01fb9f96d6cacd4b180917c3d0260801c5b600160721b831615610e275770010002c5cc37da9491d0985c348c68e7b30260801c5b600160711b831615610e4a577001000162e525ee054754457d59952920260260801c5b600160701b831615610e6d5770010000b17255775c040618bf4a4ade83fc0260801c5b6001606f1b831615610e90577001000058b91b5bc9ae2eed81e9b7d4cfab0260801c5b6001606e1b831615610eb357700100002c5c89d5ec6ca4d7c8acc017b7c90260801c5b6001606d1b831615610ed65770010000162e43f4f831060e02d839a9d16d0260801c5b6001606c1b831615610ef957700100000b1721bcfc99d9f890ea069117630260801c5b6001606b1b831615610f1c5770010000058b90cf1e6d97f9ca14dbcc16280260801c5b6001606a1b831615610f3f577001000002c5c863b73f016468f6bac5ca2b0260801c5b600160691b831615610f6257700100000162e430e5a18f6119e3c02282a50260801c5b600160681b831615610f85577001000000b1721835514b86e6d96efd1bfe0260801c5b600160671b831615610fa857700100000058b90c0b48c6be5df846c5b2ef0260801c5b600160661b831615610fcb5770010000002c5c8601cc6b9e94213c72737a0260801c5b600160651b831615610fee577001000000162e42fff037df38aa2b219f060260801c5b600160641b8316156110115770010000000b17217fba9c739aa5819f44f90260801c5b600160631b831615611034577001000000058b90bfcdee5acd3c1cedc8230260801c5b600160621b83161561105757700100000002c5c85fe31f35a6a30da1be500260801c5b600160611b83161561107a5770010000000162e42ff0999ce3541b9fffcf0260801c5b600160601b83161561109d57700100000000b17217f80f4ef5aadda455540260801c5b6001605f1b8316156110c05770010000000058b90bfbf8479bd5a81b51ad0260801c5b6001605e1b8316156110e3577001000000002c5c85fdf84bd62ae30a74cc0260801c5b6001605d1b83161561110657700100000000162e42fefb2fed257559bdaa0260801c5b6001605c1b831615611129577001000000000b17217f7d5a7716bba4a9ae0260801c5b6001605b1b83161561114c57700100000000058b90bfbe9ddbac5e109cce0260801c5b6001605a1b83161561116f5770010000000002c5c85fdf4b15de6f17eb0d0260801c5b600160591b831615611192577001000000000162e42fefa494f1478fde050260801c5b600160581b8316156111b55770010000000000b17217f7d20cf927c8e94c0260801c5b600160571b8316156111d8577001000000000058b90bfbe8f71cb4e4b33d0260801c5b600160561b8316156111fb57700100000000002c5c85fdf477b662b269450260801c5b600160551b83161561121e5770010000000000162e42fefa3ae53369388c0260801c5b600160541b83161561124157700100000000000b17217f7d1d351a389d400260801c5b600160531b8316156112645770010000000000058b90bfbe8e8b2d3d4ede0260801c5b600160521b831615611287577001000000000002c5c85fdf4741bea6e77e0260801c5b600160511b8316156112aa57700100000000000162e42fefa39fe95583c20260801c5b600160501b8316156112cd577001000000000000b17217f7d1cfb72b45e10260801c5b69800000000000000000008316156112f657700100000000000058b90bfbe8e7cc35c3f00260801c5b694000000000000000000083161561131f5770010000000000002c5c85fdf473e242ea380260801c5b6920000000000000000000831615611348577001000000000000162e42fefa39f02b772c0260801c5b69100000000000000000008316156113715770010000000000000b17217f7d1cf7d83c1a0260801c5b690800000000000000000083161561139a577001000000000000058b90bfbe8e7bdcbe2e0260801c5b69040000000000000000008316156113c357700100000000000002c5c85fdf473dea871f0260801c5b69020000000000000000008316156113ec5770010000000000000162e42fefa39ef44d910260801c5b690100000000000000000083161561141557700100000000000000b17217f7d1cf79e9490260801c5b6880000000000000000083161561143d5770010000000000000058b90bfbe8e7bce5440260801c5b68400000000000000000831615611465577001000000000000002c5c85fdf473de6eca0260801c5b6820000000000000000083161561148d57700100000000000000162e42fefa39ef366f0260801c5b681000000000000000008316156114b5577001000000000000000b17217f7d1cf79afa0260801c5b680800000000000000008316156114dd57700100000000000000058b90bfbe8e7bcd6d0260801c5b680400000000000000008316156115055770010000000000000002c5c85fdf473de6b20260801c5b6802000000000000000083161561152d577001000000000000000162e42fefa39ef3580260801c5b600160401b8316156115505770010000000000000000b17217f7d1cf79ab0260801c5b678000000000000000831615611577577001000000000000000058b90bfbe8e7bcd50260801c5b67400000000000000083161561159e57700100000000000000002c5c85fdf473de6a0260801c5b6720000000000000008316156115c55770010000000000000000162e42fefa39ef340260801c5b6710000000000000008316156115ec57700100000000000000000b17217f7d1cf7990260801c5b6708000000000000008316156116135770010000000000000000058b90bfbe8e7bcc0260801c5b67040000000000000083161561163a577001000000000000000002c5c85fdf473de50260801c5b67020000000000000083161561166157700100000000000000000162e42fefa39ef20260801c5b670100000000000000831615611688577001000000000000000000b17217f7d1cf780260801c5b66800000000000008316156116ae57700100000000000000000058b90bfbe8e7bb0260801c5b66400000000000008316156116d45770010000000000000000002c5c85fdf473dd0260801c5b66200000000000008316156116fa577001000000000000000000162e42fefa39ee0260801c5b66100000000000008316156117205770010000000000000000000b17217f7d1cf60260801c5b6608000000000000831615611746577001000000000000000000058b90bfbe8e7a0260801c5b660400000000000083161561176c57700100000000000000000002c5c85fdf473c0260801c5b66020000000000008316156117925770010000000000000000000162e42fefa39d0260801c5b66010000000000008316156117b857700100000000000000000000b17217f7d1ce0260801c5b658000000000008316156117dd5770010000000000000000000058b90bfbe8e60260801c5b65400000000000831615611802577001000000000000000000002c5c85fdf4720260801c5b6520000000000083161561182757700100000000000000000000162e42fefa380260801c5b6510000000000083161561184c577001000000000000000000000b17217f7d1b0260801c5b6508000000000083161561187157700100000000000000000000058b90bfbe8d0260801c5b650400000000008316156118965770010000000000000000000002c5c85fdf460260801c5b650200000000008316156118bb577001000000000000000000000162e42fefa20260801c5b650100000000008316156118e05770010000000000000000000000b17217f7d00260801c5b648000000000831615611904577001000000000000000000000058b90bfbe70260801c5b64400000000083161561192857700100000000000000000000002c5c85fdf30260801c5b64200000000083161561194c5770010000000000000000000000162e42fef90260801c5b64100000000083161561197057700100000000000000000000000b17217f7c0260801c5b6408000000008316156119945770010000000000000000000000058b90bfbd0260801c5b6404000000008316156119b8577001000000000000000000000002c5c85fde0260801c5b6402000000008316156119dc57700100000000000000000000000162e42fee0260801c5b640100000000831615611a00577001000000000000000000000000b17217f60260801c5b6380000000831615611a2357700100000000000000000000000058b90bfa0260801c5b6340000000831615611a465770010000000000000000000000002c5c85fc0260801c5b6320000000831615611a69577001000000000000000000000000162e42fd0260801c5b6310000000831615611a8c5770010000000000000000000000000b17217e0260801c5b6308000000831615611aaf577001000000000000000000000000058b90be0260801c5b6304000000831615611ad257700100000000000000000000000002c5c85e0260801c5b6302000000831615611af55770010000000000000000000000000162e42e0260801c5b6301000000831615611b1857700100000000000000000000000000b172160260801c5b62800000831615611b3a5770010000000000000000000000000058b90a0260801c5b62400000831615611b5c577001000000000000000000000000002c5c840260801c5b62200000831615611b7e57700100000000000000000000000000162e410260801c5b62100000831615611ba0577001000000000000000000000000000b17200260801c5b62080000831615611bc257700100000000000000000000000000058b8f0260801c5b62040000831615611be45770010000000000000000000000000002c5c70260801c5b62020000831615611c06577001000000000000000000000000000162e30260801c5b62010000831615611c285770010000000000000000000000000000b1710260801c5b618000831615611c49577001000000000000000000000000000058b80260801c5b614000831615611c6a57700100000000000000000000000000002c5b0260801c5b612000831615611c8b5770010000000000000000000000000000162d0260801c5b611000831615611cac57700100000000000000000000000000000b160260801c5b610800831615611ccd5770010000000000000000000000000000058a0260801c5b610400831615611cee577001000000000000000000000000000002c40260801c5b610200831615611d0f577001000000000000000000000000000001610260801c5b610100831615611d30577001000000000000000000000000000000b00260801c5b6080831615611d50577001000000000000000000000000000000570260801c5b6040831615611d705770010000000000000000000000000000002b0260801c5b6020831615611d90577001000000000000000000000000000000150260801c5b6010831615611db05770010000000000000000000000000000000a0260801c5b6008831615611dd0577001000000000000000000000000000000040260801c5b6004831615611df0577001000000000000000000000000000000010260801c5b84611e1157600f81901c6001600160701b03169050613fff82019150611e40565b613ffe8211611e3657600f81901c6001600160701b0316905081613fff039150611e40565b600091613fee19011c5b60709190911b1760801b95945050505050565b6000611e6583600160ff1b841861057e565b9392505050565b6000617fff60f084811c8216919084901c811690821415611efb5780617fff1415611eda576001600160801b03198581169085161415611eb757505050600160ff1b81168218610143565b600160ff1b6001600160801b03198686181614156105c257505050818117610143565b600160801b600160ff1b0384166102fb575061ffff60ef1b91506101439050565b80617fff1415611f3757600160801b600160ff1b038516611f26575061ffff60ef1b91506101439050565b505050600160ff1b82168118610143565b6001600160701b03608086901c1682611f535760019250611f5a565b600160701b175b6001600160701b03608086901c1682611f765760019250611f7d565b600160701b175b9081029081611f9a57600160ff1b87871816610431576000610437565b928201926000600160e11b831015611fcd57600160e01b831015611fc657611fc18361226f565b611fd0565b60e0611fd0565b60e15b90506140708186011015611feb576000945060009250612088565b6140e0818601101561202e5761407085101561201057846140700383901c9250612025565b61407085111561202557614070850383901b92505b60009450612088565b61c0dd818601111561204857617fff945060009250612088565b607081111561205f576070810383901c9250612072565b6070811015612072578060700383901b92505b6001600160701b03831692506140df8186010394505b82607086901b888a186001607f1b60801b1660801c6001600160801b0316171760801b95505050505050610143565b6000617fff60f083901c16613fff8110156120d55750600092915050565b6001607f1b608084901c106120e957600080fd5b6140fe8111156120f857600080fd5b600160701b6001600160701b03608085901c161761406f8210156121225761406f8290031c611e65565b61406f821115611e655761406e1982011b9392505050565b60008161214957506000919050565b600080831361215b578260000361215d565b825b9050600061216a8261226f565b90506070811015612183578060700382901b9150612196565b6070811115612196576070810382901c91505b6001600160701b03909116613fff820160701b179060008412156121be576001607f1b821791505b5060801b92915050565b6000617fff60f083901c166140fe8111156121e257600080fd5b613fff8110156121f55750600092915050565b600160701b6001600160701b03608085901c161761406f82101561221f5761406f8290031c612231565b61406f8211156122315761406e1982011b5b6001607f1b608085901c1061225b57600160ff1b81111561225157600080fd5b6000039392505050565b6001600160ff1b03811115611e6557600080fd5b600080821161227d57600080fd5b6000600160801b831061229257608092831c92015b600160401b83106122a557604092831c92015b64010000000083106122b957602092831c92015b6201000083106122cb57601092831c92015b61010083106122dc57600892831c92015b601083106122ec57600492831c92015b600483106122fc57600292831c92015b600283106101435760010192915050565b60006020828403121561231f57600080fd5b5035919050565b600080600080600060a0868803121561233e57600080fd5b505083359560208501359550604085013594606081013594506080013592509050565b60008060006060848603121561237657600080fd5b505081359360208301359350604090920135919050565b634e487b7160e01b600052601160045260246000fd5b600181815b808511156123de5781600019048211156123c4576123c461238d565b808516156123d157918102915b93841c93908002906123a8565b509250929050565b6000826123f557506001610143565b8161240257506000610143565b816001811461241857600281146124225761243e565b6001915050610143565b60ff8411156124335761243361238d565b50506001821b610143565b5060208310610133831016604e8410600b8410161715612461575081810a610143565b61246b83836123a3565b806000190482111561247f5761247f61238d565b029392505050565b6000611e6583836123e6565b60008160001904831182151516156124ad576124ad61238d565b500290565b634e487b7160e01b600052601260045260246000fd5b6000826124e557634e487b7160e01b600052601260045260246000fd5b500490565b6000828210156124fc576124fc61238d565b500390565b600082198211156125145761251461238d565b500190565b634e487b7160e01b600052600160045260246000fdfea264697066735822122039e003958591420441134992e408a02ae78d2de87e2107b5c74759ad0ac416be64736f6c634300080b0033","bytecodeSha1":"f7709aeb04e2eea626d13b4cc9d27e02417475f8","compiler":{"evm_version":"istanbul","optimizer":{"enabled":true,"runs":200},"version":"0.8.11+commit.d7f03943"},"contractName":"PotamusUtils","language":"Solidity","natspec":{"kind":"dev","methods":{},"version":1},"opcodes":"PUSH20 0x0 ADDRESS EQ PUSH1 0x80 PUSH1 0x40 MSTORE PUSH1 0x4 CALLDATASIZE LT PUSH2 0x56 JUMPI PUSH1 0x0 CALLDATALOAD PUSH1 0xE0 SHR DUP1 PUSH4 0x8DDBF248 EQ PUSH2 0x5B JUMPI DUP1 PUSH4 0x98BE96AC EQ PUSH2 0x80 JUMPI DUP1 PUSH4 0xD7DAA116 EQ PUSH2 0x88 JUMPI DUP1 PUSH4 0xE24A9E6E EQ PUSH2 0x9B JUMPI JUMPDEST PUSH1 0x0 DUP1 REVERT JUMPDEST PUSH2 0x6E PUSH2 0x69 CALLDATASIZE PUSH1 0x4 PUSH2 0x230D JUMP JUMPDEST PUSH2 0xAE JUMP JUMPDEST PUSH1 0x40 MLOAD SWAP1 DUP2 MSTORE PUSH1 0x20 ADD PUSH1 0x40 MLOAD DUP1 SWAP2 SUB SWAP1 RETURN JUMPDEST PUSH2 0x6E PUSH1 0x12 DUP2 JUMP JUMPDEST PUSH2 0x6E PUSH2 0x96 CALLDATASIZE PUSH1 0x4 PUSH2 0x2326 JUMP JUMPDEST PUSH2 0x149 JUMP JUMPDEST PUSH2 0x6E PUSH2 0xA9 CALLDATASIZE PUSH1 0x4 PUSH2 0x2361 JUMP JUMPDEST PUSH2 0x208 JUMP JUMPDEST PUSH1 0x0 PUSH2 0x143 PUSH2 0x13E PUSH2 0x12A PUSH2 0x11B PUSH2 0x116 PUSH2 0x109 PUSH2 0x104 PUSH2 0xF5 PUSH2 0xD1 DUP11 PUSH2 0x262 JUMP JUMPDEST PUSH2 0xF0 PUSH2 0xE0 PUSH1 0x12 PUSH1 0xA PUSH2 0x2487 JUMP JUMPDEST PUSH2 0xEB SWAP1 PUSH1 0x1 PUSH2 0x2493 JUMP JUMPDEST PUSH2 0x262 JUMP JUMPDEST PUSH2 0x2C6 JUMP JUMPDEST PUSH2 0xFF PUSH1 0x1 PUSH2 0x262 JUMP JUMPDEST PUSH2 0x57E JUMP JUMPDEST PUSH2 0x94E JUMP JUMPDEST PUSH2 0xF0 PUSH4 0x1E13380 PUSH2 0x262 JUMP JUMPDEST PUSH2 0xB01 JUMP JUMPDEST PUSH2 0x125 PUSH1 0x1 PUSH2 0x262 JUMP JUMPDEST PUSH2 0x1E53 JUMP JUMPDEST PUSH2 0x139 PUSH2 0xE0 PUSH1 0x12 PUSH1 0xA PUSH2 0x2487 JUMP JUMPDEST PUSH2 0x1E6C JUMP JUMPDEST PUSH2 0x20B7 JUMP JUMPDEST SWAP3 SWAP2 POP POP JUMP JUMPDEST PUSH1 0x0 DUP1 DUP6 DUP8 PUSH2 0x15A PUSH1 0x12 PUSH1 0xA PUSH2 0x2487 JUMP JUMPDEST PUSH2 0x164 SWAP2 SWAP1 PUSH2 0x2493 JUMP JUMPDEST PUSH2 0x16E SWAP2 SWAP1 PUSH2 0x24C8 JUMP JUMPDEST SWAP1 POP DUP5 DUP2 LT ISZERO PUSH2 0x1A4 JUMPI PUSH2 0x19C PUSH2 0x13E PUSH2 0x193 PUSH2 0x18A DUP5 PUSH2 0x262 JUMP JUMPDEST PUSH2 0xF0 DUP10 PUSH2 0x262 JUMP JUMPDEST PUSH2 0x139 DUP8 PUSH2 0x262 JUMP JUMPDEST SWAP2 POP POP PUSH2 0x1FF JUMP JUMPDEST DUP5 DUP2 LT PUSH2 0x1FD JUMPI PUSH2 0x1F3 PUSH2 0x13E PUSH2 0x1E6 PUSH2 0x1C1 PUSH2 0xEB DUP10 DUP7 PUSH2 0x24EA JUMP JUMPDEST PUSH2 0xF0 DUP10 PUSH2 0x1D1 PUSH1 0x12 PUSH1 0xA PUSH2 0x2487 JUMP JUMPDEST PUSH2 0x1DC SWAP1 PUSH1 0x1 PUSH2 0x2493 JUMP JUMPDEST PUSH2 0xEB SWAP2 SWAP1 PUSH2 0x24EA JUMP JUMPDEST PUSH2 0x139 PUSH2 0xEB DUP9 DUP9 PUSH2 0x24EA JUMP JUMPDEST PUSH2 0x19C SWAP1 DUP6 PUSH2 0x2501 JUMP JUMPDEST POP JUMPDEST SWAP6 SWAP5 POP POP POP POP POP JUMP JUMPDEST PUSH1 0x0 PUSH2 0x25A PUSH2 0x255 PUSH2 0x219 DUP7 PUSH2 0x213A JUMP JUMPDEST PUSH2 0x139 PUSH2 0x116 PUSH2 0x228 DUP8 PUSH2 0x262 JUMP JUMPDEST PUSH2 0x139 PUSH2 0x104 PUSH2 0x238 PUSH1 0x1 PUSH2 0x262 JUMP JUMPDEST PUSH2 0xFF PUSH2 0x244 DUP14 PUSH2 0x262 JUMP JUMPDEST PUSH2 0xF0 PUSH8 0xDE0B6B3A7640000 PUSH2 0x262 JUMP JUMPDEST PUSH2 0x21C8 JUMP JUMPDEST SWAP5 SWAP4 POP POP POP POP JUMP JUMPDEST PUSH1 0x0 DUP2 PUSH2 0x271 JUMPI POP PUSH1 0x0 SWAP2 SWAP1 POP JUMP JUMPDEST DUP2 PUSH1 0x0 PUSH2 0x27D DUP3 PUSH2 0x226F JUMP JUMPDEST SWAP1 POP PUSH1 0x70 DUP2 LT ISZERO PUSH2 0x296 JUMPI DUP1 PUSH1 0x70 SUB DUP3 SWAP1 SHL SWAP2 POP PUSH2 0x2A9 JUMP JUMPDEST PUSH1 0x70 DUP2 GT ISZERO PUSH2 0x2A9 JUMPI PUSH1 0x70 DUP2 SUB DUP3 SWAP1 SHR SWAP2 POP JUMPDEST PUSH2 0x3FFF ADD PUSH1 0x70 SHL PUSH1 0x1 PUSH1 0x1 PUSH1 0x70 SHL SUB SWAP2 SWAP1 SWAP2 AND OR PUSH1 0x80 SHL SWAP3 SWAP2 POP POP JUMP JUMPDEST PUSH1 0x0 PUSH2 0x7FFF PUSH1 0xF0 DUP5 DUP2 SHR DUP3 AND SWAP2 SWAP1 DUP5 SWAP1 SHR DUP2 AND SWAP1 DUP3 EQ ISZERO PUSH2 0x30C JUMPI DUP1 PUSH2 0x7FFF EQ ISZERO PUSH2 0x2FB JUMPI POP PUSH2 0xFFFF PUSH1 0xEF SHL SWAP2 POP PUSH2 0x143 SWAP1 POP JUMP JUMPDEST POP POP POP PUSH1 0x1 PUSH1 0xFF SHL DUP2 AND DUP3 XOR PUSH2 0x143 JUMP JUMPDEST DUP1 PUSH2 0x7FFF EQ ISZERO PUSH2 0x350 JUMPI PUSH14 0xFFFFFFFFFFFFFFFFFFFFFFFFFFFF PUSH1 0x80 SHL DUP5 AND ISZERO PUSH2 0x33F JUMPI POP PUSH2 0xFFFF PUSH1 0xEF SHL SWAP2 POP PUSH2 0x143 SWAP1 POP JUMP JUMPDEST POP POP POP DUP1 DUP3 XOR PUSH1 0x1 PUSH1 0xFF SHL AND PUSH2 0x143 JUMP JUMPDEST PUSH1 0x1 PUSH1 0x80 SHL PUSH1 0x1 PUSH1 0xFF SHL SUB DUP5 AND PUSH2 0x39A JUMPI PUSH1 0x1 PUSH1 0x80 SHL PUSH1 0x1 PUSH1 0xFF SHL SUB DUP6 AND PUSH2 0x382 JUMPI POP PUSH2 0xFFFF PUSH1 0xEF SHL SWAP2 POP PUSH2 0x143 SWAP1 POP JUMP JUMPDEST POP POP POP DUP1 DUP3 XOR PUSH1 0x1 PUSH1 0xFF SHL AND PUSH2 0x7FFF PUSH1 0xF0 SHL OR PUSH2 0x143 JUMP JUMPDEST PUSH1 0x1 PUSH1 0x1 PUSH1 0x70 SHL SUB PUSH1 0x80 DUP6 SWAP1 SHR AND DUP2 PUSH2 0x3B6 JUMPI PUSH1 0x1 SWAP2 POP PUSH2 0x3BD JUMP JUMPDEST PUSH1 0x1 PUSH1 0x70 SHL OR JUMPDEST PUSH1 0x1 PUSH1 0x1 PUSH1 0x70 SHL SUB PUSH1 0x80 DUP8 SWAP1 SHR AND DUP4 PUSH2 0x3FC JUMPI DUP1 ISZERO PUSH2 0x3F7 JUMPI PUSH1 0x0 PUSH2 0x3E1 DUP3 PUSH2 0x226F JUMP JUMPDEST PUSH1 0x1 SWAP6 POP PUSH1 0xE2 SUB SWAP4 DUP5 ADD PUSH1 0x71 NOT ADD SWAP4 SWAP2 SWAP1 SWAP2 SHL SWAP1 POP JUMPDEST PUSH2 0x406 JUMP JUMPDEST PUSH1 0x1 PUSH1 0x70 SHL OR PUSH1 0x72 SHL JUMPDEST DUP2 DUP2 DUP2 PUSH2 0x415 JUMPI PUSH2 0x415 PUSH2 0x24B2 JUMP JUMPDEST DIV SWAP1 POP DUP1 PUSH2 0x442 JUMPI PUSH1 0x1 PUSH1 0xFF SHL DUP8 DUP8 XOR AND PUSH2 0x431 JUMPI PUSH1 0x0 PUSH2 0x437 JUMP JUMPDEST PUSH1 0x1 PUSH1 0xFF SHL JUMPDEST SWAP5 POP POP POP POP POP PUSH2 0x143 JUMP JUMPDEST PUSH1 0x1 PUSH1 0x6C SHL DUP2 LT ISZERO PUSH2 0x456 JUMPI PUSH2 0x456 PUSH2 0x2519 JUMP JUMPDEST PUSH1 0x0 PUSH1 0x1 PUSH1 0x73 SHL DUP3 LT ISZERO PUSH2 0x495 JUMPI PUSH1 0x1 PUSH1 0x72 SHL DUP3 LT ISZERO PUSH2 0x48A JUMPI PUSH1 0x1 PUSH1 0x71 SHL DUP3 LT ISZERO PUSH2 0x483 JUMPI PUSH1 0x70 PUSH2 0x48D JUMP JUMPDEST PUSH1 0x71 PUSH2 0x48D JUMP JUMPDEST PUSH1 0x72 JUMPDEST PUSH1 0xFF AND PUSH2 0x49E JUMP JUMPDEST PUSH2 0x49E DUP3 PUSH2 0x226F JUMP JUMPDEST SWAP1 POP DUP4 PUSH2 0x4071 ADD DUP2 DUP7 ADD GT ISZERO PUSH2 0x4BC JUMPI PUSH2 0x7FFF SWAP5 POP PUSH1 0x0 SWAP2 POP PUSH2 0x54F JUMP JUMPDEST DUP4 DUP2 DUP7 ADD PUSH2 0x3FFC ADD LT ISZERO PUSH2 0x4D7 JUMPI PUSH1 0x0 SWAP5 POP PUSH1 0x0 SWAP2 POP PUSH2 0x54F JUMP JUMPDEST DUP4 DUP2 DUP7 ADD PUSH2 0x3F8C ADD LT ISZERO PUSH2 0x524 JUMPI DUP4 DUP6 PUSH2 0x3FFC ADD GT ISZERO PUSH2 0x502 JUMPI DUP4 DUP6 PUSH2 0x3FFC ADD SUB DUP3 SWAP1 SHL SWAP2 POP PUSH2 0x51B JUMP JUMPDEST DUP4 DUP6 PUSH2 0x3FFC ADD LT ISZERO PUSH2 0x51B JUMPI PUSH2 0x3FFC DUP6 DUP6 SUB SUB DUP3 SWAP1 SHR SWAP2 POP JUMPDEST PUSH1 0x0 SWAP5 POP PUSH2 0x54F JUMP JUMPDEST PUSH1 0x70 DUP2 GT ISZERO PUSH2 0x537 JUMPI PUSH1 0x70 DUP2 SUB DUP3 SWAP1 SHR SWAP2 POP JUMPDEST PUSH1 0x1 PUSH1 0x1 PUSH1 0x70 SHL SUB DUP3 AND SWAP2 POP DUP4 DUP2 DUP7 ADD PUSH2 0x3F8D ADD SUB SWAP5 POP JUMPDEST DUP2 PUSH1 0x70 DUP7 SWAP1 SHL DUP9 DUP11 XOR PUSH1 0x1 PUSH1 0x7F SHL PUSH1 0x80 SHL AND PUSH1 0x80 SHR PUSH1 0x1 PUSH1 0x1 PUSH1 0x80 SHL SUB AND OR OR PUSH1 0x80 SHL SWAP6 POP POP POP POP POP POP PUSH2 0x143 JUMP JUMPDEST PUSH1 0x0 PUSH2 0x7FFF PUSH1 0xF0 DUP5 DUP2 SHR DUP3 AND SWAP2 SWAP1 DUP5 SWAP1 SHR DUP2 AND SWAP1 DUP3 EQ ISZERO PUSH2 0x5DC JUMPI DUP1 PUSH2 0x7FFF EQ ISZERO PUSH2 0x5D2 JUMPI PUSH1 0x1 PUSH1 0x1 PUSH1 0x80 SHL SUB NOT DUP6 DUP2 AND SWAP1 DUP6 AND EQ ISZERO PUSH2 0x5C2 JUMPI DUP5 SWAP3 POP POP POP PUSH2 0x143 JUMP JUMPDEST POP PUSH2 0xFFFF PUSH1 0xEF SHL SWAP2 POP PUSH2 0x143 SWAP1 POP JUMP JUMPDEST DUP5 SWAP3 POP POP POP PUSH2 0x143 JUMP JUMPDEST DUP1 PUSH2 0x7FFF EQ ISZERO PUSH2 0x5F0 JUMPI DUP4 SWAP3 POP POP POP PUSH2 0x143 JUMP JUMPDEST PUSH1 0x1 PUSH1 0x7F SHL PUSH1 0x80 DUP7 SWAP1 SHR SWAP1 DUP2 LT ISZERO SWAP1 PUSH1 0x1 PUSH1 0x1 PUSH1 0x70 SHL SUB AND DUP4 PUSH2 0x616 JUMPI PUSH1 0x1 SWAP4 POP PUSH2 0x61D JUMP JUMPDEST PUSH1 0x1 PUSH1 0x70 SHL OR JUMPDEST PUSH1 0x1 PUSH1 0x7F SHL PUSH1 0x80 DUP8 SWAP1 SHR SWAP1 DUP2 LT ISZERO SWAP1 PUSH1 0x1 PUSH1 0x1 PUSH1 0x70 SHL SUB AND DUP5 PUSH2 0x643 JUMPI PUSH1 0x1 SWAP5 POP PUSH2 0x64A JUMP JUMPDEST PUSH1 0x1 PUSH1 0x70 SHL OR JUMPDEST DUP3 PUSH2 0x67A JUMPI PUSH1 0x1 PUSH1 0x1 PUSH1 0x80 SHL SUB NOT DUP9 AND PUSH1 0x1 PUSH1 0xFF SHL EQ PUSH2 0x66A JUMPI DUP8 PUSH2 0x66D JUMP JUMPDEST PUSH1 0x0 JUMPDEST SWAP7 POP POP POP POP POP POP POP PUSH2 0x143 JUMP JUMPDEST DUP1 PUSH2 0x69A JUMPI PUSH1 0x1 PUSH1 0x1 PUSH1 0x80 SHL SUB NOT DUP10 AND PUSH1 0x1 PUSH1 0xFF SHL EQ PUSH2 0x66A JUMPI DUP9 PUSH2 0x66D JUMP JUMPDEST DUP5 DUP7 SUB DUP5 ISZERO ISZERO DUP4 ISZERO ISZERO EQ ISZERO PUSH2 0x7A5 JUMPI PUSH1 0x70 DUP2 SGT ISZERO PUSH2 0x6C1 JUMPI DUP10 SWAP8 POP POP POP POP POP POP POP POP PUSH2 0x143 JUMP JUMPDEST PUSH1 0x0 DUP2 SGT ISZERO PUSH2 0x6D3 JUMPI SWAP1 DUP2 SHR SWAP1 PUSH2 0x702 JUMP JUMPDEST PUSH1 0x6F NOT DUP2 SLT ISZERO PUSH2 0x6EC JUMPI DUP9 SWAP8 POP POP POP POP POP POP POP POP PUSH2 0x143 JUMP JUMPDEST PUSH1 0x0 DUP2 SLT ISZERO PUSH2 0x702 JUMPI DUP1 PUSH1 0x0 SUB DUP5 SWAP1 SHR SWAP4 POP DUP6 SWAP7 POP JUMPDEST SWAP3 DUP2 ADD SWAP3 PUSH1 0x1 PUSH1 0x71 SHL DUP5 LT PUSH2 0x71D JUMPI PUSH1 0x1 SWAP7 DUP8 ADD SWAP7 SWAP4 SWAP1 SWAP4 SHR SWAP3 JUMPDEST DUP7 PUSH2 0x7FFF EQ ISZERO PUSH2 0x74F JUMPI DUP5 PUSH2 0x737 JUMPI PUSH2 0x7FFF PUSH1 0xF0 SHL PUSH2 0x741 JUMP JUMPDEST PUSH1 0x1 PUSH1 0x1 PUSH1 0xF0 SHL SUB NOT JUMPDEST SWAP8 POP POP POP POP POP POP POP POP PUSH2 0x143 JUMP JUMPDEST PUSH1 0x1 PUSH1 0x70 SHL DUP5 LT ISZERO PUSH2 0x764 JUMPI PUSH1 0x0 SWAP7 POP PUSH2 0x771 JUMP JUMPDEST PUSH1 0x1 PUSH1 0x1 PUSH1 0x70 SHL SUB DUP5 AND SWAP4 POP JUMPDEST DUP4 PUSH1 0x70 DUP9 SWAP1 SHL DUP7 PUSH2 0x783 JUMPI PUSH1 0x0 PUSH2 0x789 JUMP JUMPDEST PUSH1 0x1 PUSH1 0x7F SHL JUMPDEST PUSH1 0x1 PUSH1 0x1 PUSH1 0x80 SHL SUB AND OR OR PUSH1 0x80 SHL SWAP8 POP POP POP POP POP POP POP POP PUSH2 0x143 JUMP JUMPDEST PUSH1 0x0 DUP2 SGT ISZERO PUSH2 0x7C0 JUMPI PUSH1 0x1 DUP5 SWAP1 SHL SWAP4 POP PUSH1 0x1 DUP8 SUB SWAP7 POP PUSH2 0x7D7 JUMP JUMPDEST PUSH1 0x0 DUP2 SLT ISZERO PUSH2 0x7D7 JUMPI PUSH1 0x1 DUP3 SWAP1 SHL SWAP2 POP PUSH1 0x1 DUP7 SUB SWAP7 POP JUMPDEST PUSH1 0x70 DUP2 SGT ISZERO PUSH2 0x7E9 JUMPI PUSH1 0x1 SWAP2 POP PUSH2 0x836 JUMP JUMPDEST PUSH1 0x1 DUP2 SGT ISZERO PUSH2 0x806 JUMPI PUSH1 0x1 DUP2 SUB PUSH1 0x1 DUP4 SUB SWAP1 SHR PUSH1 0x1 ADD SWAP2 POP PUSH2 0x836 JUMP JUMPDEST PUSH1 0x6F NOT DUP2 SLT ISZERO PUSH2 0x819 JUMPI PUSH1 0x1 SWAP4 POP PUSH2 0x836 JUMP JUMPDEST PUSH1 0x0 NOT DUP2 SLT ISZERO PUSH2 0x836 JUMPI PUSH1 0x1 DUP2 PUSH1 0x0 SUB SUB PUSH1 0x1 DUP6 SUB SWAP1 SHR PUSH1 0x1 ADD SWAP4 POP JUMPDEST DUP2 DUP5 LT PUSH2 0x847 JUMPI DUP2 DUP5 SUB SWAP4 POP PUSH2 0x850 JUMP JUMPDEST DUP4 DUP3 SUB SWAP4 POP DUP3 SWAP5 POP JUMPDEST DUP4 PUSH2 0x866 JUMPI POP PUSH1 0x0 SWAP7 POP PUSH2 0x143 SWAP6 POP POP POP POP POP POP JUMP JUMPDEST PUSH1 0x0 PUSH2 0x871 DUP6 PUSH2 0x226F JUMP JUMPDEST SWAP1 POP DUP1 PUSH1 0x71 EQ ISZERO PUSH2 0x897 JUMPI PUSH1 0x1 DUP6 SWAP1 SHR PUSH1 0x1 PUSH1 0x1 PUSH1 0x70 SHL SUB AND SWAP5 POP PUSH1 0x1 DUP9 ADD SWAP8 POP PUSH2 0x8E6 JUMP JUMPDEST PUSH1 0x70 DUP2 LT ISZERO PUSH2 0x8D9 JUMPI PUSH1 0x70 DUP2 SWAP1 SUB DUP1 DUP10 GT ISZERO PUSH2 0x8C6 JUMPI DUP1 DUP7 SWAP1 SHL PUSH1 0x1 PUSH1 0x1 PUSH1 0x70 SHL SUB AND SWAP6 POP DUP1 DUP10 SUB SWAP9 POP PUSH2 0x8D3 JUMP JUMPDEST PUSH1 0x0 SWAP9 PUSH1 0x0 NOT ADD SWAP6 SWAP1 SWAP6 SHL SWAP5 JUMPDEST POP PUSH2 0x8E6 JUMP JUMPDEST PUSH1 0x1 PUSH1 0x1 PUSH1 0x70 SHL SUB DUP6 AND SWAP5 POP JUMPDEST DUP8 PUSH2 0x7FFF EQ ISZERO PUSH2 0x919 JUMPI DUP6 PUSH2 0x900 JUMPI PUSH2 0x7FFF PUSH1 0xF0 SHL PUSH2 0x90A JUMP JUMPDEST PUSH1 0x1 PUSH1 0x1 PUSH1 0xF0 SHL SUB NOT JUMPDEST SWAP9 POP POP POP POP POP POP POP POP POP PUSH2 0x143 JUMP JUMPDEST DUP5 PUSH1 0x70 DUP10 SWAP1 SHL DUP8 PUSH2 0x92B JUMPI PUSH1 0x0 PUSH2 0x931 JUMP JUMPDEST PUSH1 0x1 PUSH1 0x7F SHL JUMPDEST PUSH1 0x1 PUSH1 0x1 PUSH1 0x80 SHL SUB AND OR OR PUSH1 0x80 SHL SWAP9 POP POP POP POP POP POP POP POP POP PUSH2 0x143 JUMP JUMPDEST PUSH1 0x0 PUSH1 0x1 PUSH1 0x7F SHL PUSH1 0x80 DUP4 SWAP1 SHR GT ISZERO PUSH2 0x96C JUMPI POP PUSH2 0xFFFF PUSH1 0xEF SHL SWAP2 SWAP1 POP JUMP JUMPDEST PUSH2 0x3FFF PUSH1 0xF0 SHL PUSH1 0x1 PUSH1 0x1 PUSH1 0x80 SHL SUB NOT DUP4 AND EQ ISZERO PUSH2 0x98B JUMPI POP PUSH1 0x0 SWAP2 SWAP1 POP JUMP JUMPDEST PUSH2 0x7FFF PUSH1 0xF0 DUP4 SWAP1 SHR DUP2 AND SWAP1 DUP2 EQ ISZERO PUSH2 0x9A4 JUMPI POP SWAP1 SWAP2 SWAP1 POP JUMP JUMPDEST PUSH1 0x1 PUSH1 0x1 PUSH1 0x70 SHL SUB PUSH1 0x80 DUP5 SWAP1 SHR AND DUP2 PUSH2 0x9C0 JUMPI PUSH1 0x1 SWAP2 POP PUSH2 0x9C7 JUMP JUMPDEST PUSH1 0x1 PUSH1 0x70 SHL OR JUMPDEST DUP1 PUSH2 0x9DD JUMPI POP PUSH1 0x1 PUSH1 0x1 PUSH1 0xF0 SHL SUB NOT SWAP4 SWAP3 POP POP POP JUMP JUMPDEST PUSH1 0x0 PUSH2 0x406F DUP2 PUSH2 0x3FFF DUP6 LT PUSH2 0xA03 JUMPI POP PUSH1 0xF SWAP3 SWAP1 SWAP3 SHL SWAP2 PUSH1 0x0 SWAP2 POP PUSH2 0x3FFE NOT DUP5 ADD PUSH2 0xA42 JUMP JUMPDEST PUSH1 0x1 SWAP3 POP PUSH1 0x1 PUSH1 0x70 SHL DUP5 LT PUSH2 0xA25 JUMPI DUP5 PUSH2 0x3FFE SUB SWAP1 POP PUSH1 0xF DUP5 SWAP1 SHL SWAP4 POP PUSH2 0xA42 JUMP JUMPDEST PUSH1 0x0 PUSH2 0xA30 DUP6 PUSH2 0x226F JUMP JUMPDEST PUSH1 0x7F DUP2 SWAP1 SUB SWAP6 SWAP1 SWAP6 SHL SWAP5 PUSH2 0x406D SUB SWAP2 POP POP JUMPDEST DUP4 PUSH1 0x1 PUSH1 0x7F SHL EQ ISZERO PUSH2 0xA79 JUMPI DUP3 ISZERO PUSH2 0xA58 JUMPI PUSH1 0x1 ADD JUMPDEST PUSH1 0x0 PUSH2 0xA63 DUP3 PUSH2 0x226F JUMP JUMPDEST PUSH1 0x70 SUB SWAP1 POP DUP1 DUP3 SWAP1 SHL SWAP2 POP DUP1 DUP4 SUB SWAP3 POP POP PUSH2 0xAC7 JUMP JUMPDEST PUSH1 0x0 DUP4 PUSH2 0xA87 JUMPI PUSH1 0x0 PUSH2 0xA8A JUMP JUMPDEST PUSH1 0x1 JUMPDEST PUSH1 0xFF AND SWAP1 POP JUMPDEST PUSH1 0x1 PUSH1 0x70 SHL DUP3 LT ISZERO PUSH2 0xAC5 JUMPI SWAP4 DUP1 MUL PUSH1 0xFF DUP2 SWAP1 SHR PUSH1 0x7F DUP2 ADD SWAP2 SWAP1 SWAP2 SHR SWAP5 PUSH1 0x0 NOT SWAP4 SWAP1 SWAP4 ADD SWAP3 PUSH1 0x1 SWAP3 SWAP1 SWAP3 SHL SWAP1 DUP3 XOR ADD SWAP1 PUSH2 0xA90 JUMP JUMPDEST POP JUMPDEST DUP1 PUSH1 0x1 PUSH1 0x1 PUSH1 0x70 SHL SUB AND PUSH1 0x70 DUP4 SWAP1 SHL DUP5 PUSH2 0xAE2 JUMPI PUSH1 0x0 PUSH2 0xAE8 JUMP JUMPDEST PUSH1 0x1 PUSH1 0x7F SHL JUMPDEST PUSH1 0x1 PUSH1 0x1 PUSH1 0x80 SHL SUB AND OR OR PUSH1 0x80 SHL SWAP8 SWAP7 POP POP POP POP POP POP POP JUMP JUMPDEST PUSH1 0x0 PUSH1 0x1 PUSH1 0x7F SHL PUSH1 0x80 DUP4 SWAP1 SHR SWAP1 DUP2 GT SWAP1 PUSH2 0x7FFF PUSH1 0xF0 DUP6 SWAP1 SHR DUP2 AND SWAP2 PUSH1 0x1 PUSH1 0x1 PUSH1 0x70 SHL SUB AND SWAP1 DUP3 EQ DUP1 ISZERO PUSH2 0xB33 JUMPI POP DUP1 ISZERO ISZERO JUMPDEST ISZERO PUSH2 0xB47 JUMPI POP PUSH2 0xFFFF PUSH1 0xEF SHL SWAP5 SWAP4 POP POP POP POP JUMP JUMPDEST PUSH2 0x400D DUP3 GT ISZERO PUSH2 0xB6C JUMPI DUP3 PUSH2 0xB61 JUMPI PUSH2 0x7FFF PUSH1 0xF0 SHL PUSH2 0x1FF JUMP JUMPDEST PUSH1 0x0 SWAP6 SWAP5 POP POP POP POP POP JUMP JUMPDEST PUSH2 0x3F7F DUP3 LT ISZERO PUSH2 0xB85 JUMPI POP PUSH2 0x3FFF PUSH1 0xF0 SHL SWAP5 SWAP4 POP POP POP POP JUMP JUMPDEST DUP2 PUSH2 0xB93 JUMPI PUSH1 0x1 SWAP2 POP PUSH2 0xB9A JUMP JUMPDEST PUSH1 0x1 PUSH1 0x70 SHL OR JUMPDEST PUSH2 0x3FEF DUP3 GT ISZERO PUSH2 0xBB0 JUMPI PUSH2 0x3FEE NOT DUP3 ADD SHL PUSH2 0xBC2 JUMP JUMPDEST PUSH2 0x3FEF DUP3 LT ISZERO PUSH2 0xBC2 JUMPI PUSH2 0x3FEF DUP3 SWAP1 SUB SHR JUMPDEST DUP3 DUP1 ISZERO PUSH2 0xBD3 JUMPI POP PUSH2 0x2037 PUSH1 0x81 SHL DUP2 GT JUMPDEST ISZERO PUSH2 0xBE3 JUMPI POP PUSH1 0x0 SWAP5 SWAP4 POP POP POP POP JUMP JUMPDEST DUP3 ISZERO DUP1 ISZERO PUSH2 0xC02 JUMPI POP PUSH18 0x3FFFFFFFFFFFFFFFFFFFFFFFFFFFFFFFFFFF DUP2 GT JUMPDEST ISZERO PUSH2 0xC16 JUMPI POP PUSH2 0x7FFF PUSH1 0xF0 SHL SWAP5 SWAP4 POP POP POP POP JUMP JUMPDEST PUSH1 0x1 PUSH1 0x1 PUSH1 0x80 SHL SUB DUP2 AND SWAP1 PUSH1 0x80 SHR DUP4 DUP1 ISZERO PUSH2 0xC30 JUMPI POP DUP2 ISZERO ISZERO JUMPDEST ISZERO PUSH2 0xC3C JUMPI SWAP1 NOT SWAP1 PUSH1 0x1 ADD JUMPDEST PUSH1 0x1 PUSH1 0x7F SHL DUP3 DUP2 AND ISZERO PUSH2 0xC60 JUMPI PUSH17 0x16A09E667F3BCC908B2FB1366EA957D3E MUL PUSH1 0x80 SHR JUMPDEST PUSH1 0x1 PUSH1 0x7E SHL DUP4 AND ISZERO PUSH2 0xC83 JUMPI PUSH17 0x1306FE0A31B7152DE8D5A46305C85EDEC MUL PUSH1 0x80 SHR JUMPDEST PUSH1 0x1 PUSH1 0x7D SHL DUP4 AND ISZERO PUSH2 0xCA6 JUMPI PUSH17 0x1172B83C7D517ADCDF7C8C50EB14A791F MUL PUSH1 0x80 SHR JUMPDEST PUSH1 0x1 PUSH1 0x7C SHL DUP4 AND ISZERO PUSH2 0xCC9 JUMPI PUSH17 0x10B5586CF9890F6298B92B71842A98363 MUL PUSH1 0x80 SHR JUMPDEST PUSH1 0x1 PUSH1 0x7B SHL DUP4 AND ISZERO PUSH2 0xCEC JUMPI PUSH17 0x1059B0D31585743AE7C548EB68CA417FD MUL PUSH1 0x80 SHR JUMPDEST PUSH1 0x1 PUSH1 0x7A SHL DUP4 AND ISZERO PUSH2 0xD0F JUMPI PUSH17 0x102C9A3E778060EE6F7CACA4F7A29BDE8 MUL PUSH1 0x80 SHR JUMPDEST PUSH1 0x1 PUSH1 0x79 SHL DUP4 AND ISZERO PUSH2 0xD32 JUMPI PUSH17 0x10163DA9FB33356D84A66AE336DCDFA3F MUL PUSH1 0x80 SHR JUMPDEST PUSH1 0x1 PUSH1 0x78 SHL DUP4 AND ISZERO PUSH2 0xD55 JUMPI PUSH17 0x100B1AFA5ABCBED6129AB13EC11DC9543 MUL PUSH1 0x80 SHR JUMPDEST PUSH1 0x1 PUSH1 0x77 SHL DUP4 AND ISZERO PUSH2 0xD78 JUMPI PUSH17 0x10058C86DA1C09EA1FF19D294CF2F679B MUL PUSH1 0x80 SHR JUMPDEST PUSH1 0x1 PUSH1 0x76 SHL DUP4 AND ISZERO PUSH2 0xD9B JUMPI PUSH17 0x1002C605E2E8CEC506D21BFC89A23A00F MUL PUSH1 0x80 SHR JUMPDEST PUSH1 0x1 PUSH1 0x75 SHL DUP4 AND ISZERO PUSH2 0xDBE JUMPI PUSH17 0x100162F3904051FA128BCA9C55C31E5DF MUL PUSH1 0x80 SHR JUMPDEST PUSH1 0x1 PUSH1 0x74 SHL DUP4 AND ISZERO PUSH2 0xDE1 JUMPI PUSH17 0x1000B175EFFDC76BA38E31671CA939725 MUL PUSH1 0x80 SHR JUMPDEST PUSH1 0x1 PUSH1 0x73 SHL DUP4 AND ISZERO PUSH2 0xE04 JUMPI PUSH17 0x100058BA01FB9F96D6CACD4B180917C3D MUL PUSH1 0x80 SHR JUMPDEST PUSH1 0x1 PUSH1 0x72 SHL DUP4 AND ISZERO PUSH2 0xE27 JUMPI PUSH17 0x10002C5CC37DA9491D0985C348C68E7B3 MUL PUSH1 0x80 SHR JUMPDEST PUSH1 0x1 PUSH1 0x71 SHL DUP4 AND ISZERO PUSH2 0xE4A JUMPI PUSH17 0x1000162E525EE054754457D5995292026 MUL PUSH1 0x80 SHR JUMPDEST PUSH1 0x1 PUSH1 0x70 SHL DUP4 AND ISZERO PUSH2 0xE6D JUMPI PUSH17 0x10000B17255775C040618BF4A4ADE83FC MUL PUSH1 0x80 SHR JUMPDEST PUSH1 0x1 PUSH1 0x6F SHL DUP4 AND ISZERO PUSH2 0xE90 JUMPI PUSH17 0x1000058B91B5BC9AE2EED81E9B7D4CFAB MUL PUSH1 0x80 SHR JUMPDEST PUSH1 0x1 PUSH1 0x6E SHL DUP4 AND ISZERO PUSH2 0xEB3 JUMPI PUSH17 0x100002C5C89D5EC6CA4D7C8ACC017B7C9 MUL PUSH1 0x80 SHR JUMPDEST PUSH1 0x1 PUSH1 0x6D SHL DUP4 AND ISZERO PUSH2 0xED6 JUMPI PUSH17 0x10000162E43F4F831060E02D839A9D16D MUL PUSH1 0x80 SHR JUMPDEST PUSH1 0x1 PUSH1 0x6C SHL DUP4 AND ISZERO PUSH2 0xEF9 JUMPI PUSH17 0x100000B1721BCFC99D9F890EA06911763 MUL PUSH1 0x80 SHR JUMPDEST PUSH1 0x1 PUSH1 0x6B SHL DUP4 AND ISZERO PUSH2 0xF1C JUMPI PUSH17 0x10000058B90CF1E6D97F9CA14DBCC1628 MUL PUSH1 0x80 SHR JUMPDEST PUSH1 0x1 PUSH1 0x6A SHL DUP4 AND ISZERO PUSH2 0xF3F JUMPI PUSH17 0x1000002C5C863B73F016468F6BAC5CA2B MUL PUSH1 0x80 SHR JUMPDEST PUSH1 0x1 PUSH1 0x69 SHL DUP4 AND ISZERO PUSH2 0xF62 JUMPI PUSH17 0x100000162E430E5A18F6119E3C02282A5 MUL PUSH1 0x80 SHR JUMPDEST PUSH1 0x1 PUSH1 0x68 SHL DUP4 AND ISZERO PUSH2 0xF85 JUMPI PUSH17 0x1000000B1721835514B86E6D96EFD1BFE MUL PUSH1 0x80 SHR JUMPDEST PUSH1 0x1 PUSH1 0x67 SHL DUP4 AND ISZERO PUSH2 0xFA8 JUMPI PUSH17 0x100000058B90C0B48C6BE5DF846C5B2EF MUL PUSH1 0x80 SHR JUMPDEST PUSH1 0x1 PUSH1 0x66 SHL DUP4 AND ISZERO PUSH2 0xFCB JUMPI PUSH17 0x10000002C5C8601CC6B9E94213C72737A MUL PUSH1 0x80 SHR JUMPDEST PUSH1 0x1 PUSH1 0x65 SHL DUP4 AND ISZERO PUSH2 0xFEE JUMPI PUSH17 0x1000000162E42FFF037DF38AA2B219F06 MUL PUSH1 0x80 SHR JUMPDEST PUSH1 0x1 PUSH1 0x64 SHL DUP4 AND ISZERO PUSH2 0x1011 JUMPI PUSH17 0x10000000B17217FBA9C739AA5819F44F9 MUL PUSH1 0x80 SHR JUMPDEST PUSH1 0x1 PUSH1 0x63 SHL DUP4 AND ISZERO PUSH2 0x1034 JUMPI PUSH17 0x1000000058B90BFCDEE5ACD3C1CEDC823 MUL PUSH1 0x80 SHR JUMPDEST PUSH1 0x1 PUSH1 0x62 SHL DUP4 AND ISZERO PUSH2 0x1057 JUMPI PUSH17 0x100000002C5C85FE31F35A6A30DA1BE50 MUL PUSH1 0x80 SHR JUMPDEST PUSH1 0x1 PUSH1 0x61 SHL DUP4 AND ISZERO PUSH2 0x107A JUMPI PUSH17 0x10000000162E42FF0999CE3541B9FFFCF MUL PUSH1 0x80 SHR JUMPDEST PUSH1 0x1 PUSH1 0x60 SHL DUP4 AND ISZERO PUSH2 0x109D JUMPI PUSH17 0x100000000B17217F80F4EF5AADDA45554 MUL PUSH1 0x80 SHR JUMPDEST PUSH1 0x1 PUSH1 0x5F SHL DUP4 AND ISZERO PUSH2 0x10C0 JUMPI PUSH17 0x10000000058B90BFBF8479BD5A81B51AD MUL PUSH1 0x80 SHR JUMPDEST PUSH1 0x1 PUSH1 0x5E SHL DUP4 AND ISZERO PUSH2 0x10E3 JUMPI PUSH17 0x1000000002C5C85FDF84BD62AE30A74CC MUL PUSH1 0x80 SHR JUMPDEST PUSH1 0x1 PUSH1 0x5D SHL DUP4 AND ISZERO PUSH2 0x1106 JUMPI PUSH17 0x100000000162E42FEFB2FED257559BDAA MUL PUSH1 0x80 SHR JUMPDEST PUSH1 0x1 PUSH1 0x5C SHL DUP4 AND ISZERO PUSH2 0x1129 JUMPI PUSH17 0x1000000000B17217F7D5A7716BBA4A9AE MUL PUSH1 0x80 SHR JUMPDEST PUSH1 0x1 PUSH1 0x5B SHL DUP4 AND ISZERO PUSH2 0x114C JUMPI PUSH17 0x100000000058B90BFBE9DDBAC5E109CCE MUL PUSH1 0x80 SHR JUMPDEST PUSH1 0x1 PUSH1 0x5A SHL DUP4 AND ISZERO PUSH2 0x116F JUMPI PUSH17 0x10000000002C5C85FDF4B15DE6F17EB0D MUL PUSH1 0x80 SHR JUMPDEST PUSH1 0x1 PUSH1 0x59 SHL DUP4 AND ISZERO PUSH2 0x1192 JUMPI PUSH17 0x1000000000162E42FEFA494F1478FDE05 MUL PUSH1 0x80 SHR JUMPDEST PUSH1 0x1 PUSH1 0x58 SHL DUP4 AND ISZERO PUSH2 0x11B5 JUMPI PUSH17 0x10000000000B17217F7D20CF927C8E94C MUL PUSH1 0x80 SHR JUMPDEST PUSH1 0x1 PUSH1 0x57 SHL DUP4 AND ISZERO PUSH2 0x11D8 JUMPI PUSH17 0x1000000000058B90BFBE8F71CB4E4B33D MUL PUSH1 0x80 SHR JUMPDEST PUSH1 0x1 PUSH1 0x56 SHL DUP4 AND ISZERO PUSH2 0x11FB JUMPI PUSH17 0x100000000002C5C85FDF477B662B26945 MUL PUSH1 0x80 SHR JUMPDEST PUSH1 0x1 PUSH1 0x55 SHL DUP4 AND ISZERO PUSH2 0x121E JUMPI PUSH17 0x10000000000162E42FEFA3AE53369388C MUL PUSH1 0x80 SHR JUMPDEST PUSH1 0x1 PUSH1 0x54 SHL DUP4 AND ISZERO PUSH2 0x1241 JUMPI PUSH17 0x100000000000B17217F7D1D351A389D40 MUL PUSH1 0x80 SHR JUMPDEST PUSH1 0x1 PUSH1 0x53 SHL DUP4 AND ISZERO PUSH2 0x1264 JUMPI PUSH17 0x10000000000058B90BFBE8E8B2D3D4EDE MUL PUSH1 0x80 SHR JUMPDEST PUSH1 0x1 PUSH1 0x52 SHL DUP4 AND ISZERO PUSH2 0x1287 JUMPI PUSH17 0x1000000000002C5C85FDF4741BEA6E77E MUL PUSH1 0x80 SHR JUMPDEST PUSH1 0x1 PUSH1 0x51 SHL DUP4 AND ISZERO PUSH2 0x12AA JUMPI PUSH17 0x100000000000162E42FEFA39FE95583C2 MUL PUSH1 0x80 SHR JUMPDEST PUSH1 0x1 PUSH1 0x50 SHL DUP4 AND ISZERO PUSH2 0x12CD JUMPI PUSH17 0x1000000000000B17217F7D1CFB72B45E1 MUL PUSH1 0x80 SHR JUMPDEST PUSH10 0x80000000000000000000 DUP4 AND ISZERO PUSH2 0x12F6 JUMPI PUSH17 0x100000000000058B90BFBE8E7CC35C3F0 MUL PUSH1 0x80 SHR JUMPDEST PUSH10 0x40000000000000000000 DUP4 AND ISZERO PUSH2 0x131F JUMPI PUSH17 0x10000000000002C5C85FDF473E242EA38 MUL PUSH1 0x80 SHR JUMPDEST PUSH10 0x20000000000000000000 DUP4 AND ISZERO PUSH2 0x1348 JUMPI PUSH17 0x1000000000000162E42FEFA39F02B772C MUL PUSH1 0x80 SHR JUMPDEST PUSH10 0x10000000000000000000 DUP4 AND ISZERO PUSH2 0x1371 JUMPI PUSH17 0x10000000000000B17217F7D1CF7D83C1A MUL PUSH1 0x80 SHR JUMPDEST PUSH10 0x8000000000000000000 DUP4 AND ISZERO PUSH2 0x139A JUMPI PUSH17 0x1000000000000058B90BFBE8E7BDCBE2E MUL PUSH1 0x80 SHR JUMPDEST PUSH10 0x4000000000000000000 DUP4 AND ISZERO PUSH2 0x13C3 JUMPI PUSH17 0x100000000000002C5C85FDF473DEA871F MUL PUSH1 0x80 SHR JUMPDEST PUSH10 0x2000000000000000000 DUP4 AND ISZERO PUSH2 0x13EC JUMPI PUSH17 0x10000000000000162E42FEFA39EF44D91 MUL PUSH1 0x80 SHR JUMPDEST PUSH10 0x1000000000000000000 DUP4 AND ISZERO PUSH2 0x1415 JUMPI PUSH17 0x100000000000000B17217F7D1CF79E949 MUL PUSH1 0x80 SHR JUMPDEST PUSH9 0x800000000000000000 DUP4 AND ISZERO PUSH2 0x143D JUMPI PUSH17 0x10000000000000058B90BFBE8E7BCE544 MUL PUSH1 0x80 SHR JUMPDEST PUSH9 0x400000000000000000 DUP4 AND ISZERO PUSH2 0x1465 JUMPI PUSH17 0x1000000000000002C5C85FDF473DE6ECA MUL PUSH1 0x80 SHR JUMPDEST PUSH9 0x200000000000000000 DUP4 AND ISZERO PUSH2 0x148D JUMPI PUSH17 0x100000000000000162E42FEFA39EF366F MUL PUSH1 0x80 SHR JUMPDEST PUSH9 0x100000000000000000 DUP4 AND ISZERO PUSH2 0x14B5 JUMPI PUSH17 0x1000000000000000B17217F7D1CF79AFA MUL PUSH1 0x80 SHR JUMPDEST PUSH9 0x80000000000000000 DUP4 AND ISZERO PUSH2 0x14DD JUMPI PUSH17 0x100000000000000058B90BFBE8E7BCD6D MUL PUSH1 0x80 SHR JUMPDEST PUSH9 0x40000000000000000 DUP4 AND ISZERO PUSH2 0x1505 JUMPI PUSH17 0x10000000000000002C5C85FDF473DE6B2 MUL PUSH1 0x80 SHR JUMPDEST PUSH9 0x20000000000000000 DUP4 AND ISZERO PUSH2 0x152D JUMPI PUSH17 0x1000000000000000162E42FEFA39EF358 MUL PUSH1 0x80 SHR JUMPDEST PUSH1 0x1 PUSH1 0x40 SHL DUP4 AND ISZERO PUSH2 0x1550 JUMPI PUSH17 0x10000000000000000B17217F7D1CF79AB MUL PUSH1 0x80 SHR JUMPDEST PUSH8 0x8000000000000000 DUP4 AND ISZERO PUSH2 0x1577 JUMPI PUSH17 0x1000000000000000058B90BFBE8E7BCD5 MUL PUSH1 0x80 SHR JUMPDEST PUSH8 0x4000000000000000 DUP4 AND ISZERO PUSH2 0x159E JUMPI PUSH17 0x100000000000000002C5C85FDF473DE6A MUL PUSH1 0x80 SHR JUMPDEST PUSH8 0x2000000000000000 DUP4 AND ISZERO PUSH2 0x15C5 JUMPI PUSH17 0x10000000000000000162E42FEFA39EF34 MUL PUSH1 0x80 SHR JUMPDEST PUSH8 0x1000000000000000 DUP4 AND ISZERO PUSH2 0x15EC JUMPI PUSH17 0x100000000000000000B17217F7D1CF799 MUL PUSH1 0x80 SHR JUMPDEST PUSH8 0x800000000000000 DUP4 AND ISZERO PUSH2 0x1613 JUMPI PUSH17 0x10000000000000000058B90BFBE8E7BCC MUL PUSH1 0x80 SHR JUMPDEST PUSH8 0x400000000000000 DUP4 AND ISZERO PUSH2 0x163A JUMPI PUSH17 0x1000000000000000002C5C85FDF473DE5 MUL PUSH1 0x80 SHR JUMPDEST PUSH8 0x200000000000000 DUP4 AND ISZERO PUSH2 0x1661 JUMPI PUSH17 0x100000000000000000162E42FEFA39EF2 MUL PUSH1 0x80 SHR JUMPDEST PUSH8 0x100000000000000 DUP4 AND ISZERO PUSH2 0x1688 JUMPI PUSH17 0x1000000000000000000B17217F7D1CF78 MUL PUSH1 0x80 SHR JUMPDEST PUSH7 0x80000000000000 DUP4 AND ISZERO PUSH2 0x16AE JUMPI PUSH17 0x100000000000000000058B90BFBE8E7BB MUL PUSH1 0x80 SHR JUMPDEST PUSH7 0x40000000000000 DUP4 AND ISZERO PUSH2 0x16D4 JUMPI PUSH17 0x10000000000000000002C5C85FDF473DD MUL PUSH1 0x80 SHR JUMPDEST PUSH7 0x20000000000000 DUP4 AND ISZERO PUSH2 0x16FA JUMPI PUSH17 0x1000000000000000000162E42FEFA39EE MUL PUSH1 0x80 SHR JUMPDEST PUSH7 0x10000000000000 DUP4 AND ISZERO PUSH2 0x1720 JUMPI PUSH17 0x10000000000000000000B17217F7D1CF6 MUL PUSH1 0x80 SHR JUMPDEST PUSH7 0x8000000000000 DUP4 AND ISZERO PUSH2 0x1746 JUMPI PUSH17 0x1000000000000000000058B90BFBE8E7A MUL PUSH1 0x80 SHR JUMPDEST PUSH7 0x4000000000000 DUP4 AND ISZERO PUSH2 0x176C JUMPI PUSH17 0x100000000000000000002C5C85FDF473C MUL PUSH1 0x80 SHR JUMPDEST PUSH7 0x2000000000000 DUP4 AND ISZERO PUSH2 0x1792 JUMPI PUSH17 0x10000000000000000000162E42FEFA39D MUL PUSH1 0x80 SHR JUMPDEST PUSH7 0x1000000000000 DUP4 AND ISZERO PUSH2 0x17B8 JUMPI PUSH17 0x100000000000000000000B17217F7D1CE MUL PUSH1 0x80 SHR JUMPDEST PUSH6 0x800000000000 DUP4 AND ISZERO PUSH2 0x17DD JUMPI PUSH17 0x10000000000000000000058B90BFBE8E6 MUL PUSH1 0x80 SHR JUMPDEST PUSH6 0x400000000000 DUP4 AND ISZERO PUSH2 0x1802 JUMPI PUSH17 0x1000000000000000000002C5C85FDF472 MUL PUSH1 0x80 SHR JUMPDEST PUSH6 0x200000000000 DUP4 AND ISZERO PUSH2 0x1827 JUMPI PUSH17 0x100000000000000000000162E42FEFA38 MUL PUSH1 0x80 SHR JUMPDEST PUSH6 0x100000000000 DUP4 AND ISZERO PUSH2 0x184C JUMPI PUSH17 0x1000000000000000000000B17217F7D1B MUL PUSH1 0x80 SHR JUMPDEST PUSH6 0x80000000000 DUP4 AND ISZERO PUSH2 0x1871 JUMPI PUSH17 0x100000000000000000000058B90BFBE8D MUL PUSH1 0x80 SHR JUMPDEST PUSH6 0x40000000000 DUP4 AND ISZERO PUSH2 0x1896 JUMPI PUSH17 0x10000000000000000000002C5C85FDF46 MUL PUSH1 0x80 SHR JUMPDEST PUSH6 0x20000000000 DUP4 AND ISZERO PUSH2 0x18BB JUMPI PUSH17 0x1000000000000000000000162E42FEFA2 MUL PUSH1 0x80 SHR JUMPDEST PUSH6 0x10000000000 DUP4 AND ISZERO PUSH2 0x18E0 JUMPI PUSH17 0x10000000000000000000000B17217F7D0 MUL PUSH1 0x80 SHR JUMPDEST PUSH5 0x8000000000 DUP4 AND ISZERO PUSH2 0x1904 JUMPI PUSH17 0x1000000000000000000000058B90BFBE7 MUL PUSH1 0x80 SHR JUMPDEST PUSH5 0x4000000000 DUP4 AND ISZERO PUSH2 0x1928 JUMPI PUSH17 0x100000000000000000000002C5C85FDF3 MUL PUSH1 0x80 SHR JUMPDEST PUSH5 0x2000000000 DUP4 AND ISZERO PUSH2 0x194C JUMPI PUSH17 0x10000000000000000000000162E42FEF9 MUL PUSH1 0x80 SHR JUMPDEST PUSH5 0x1000000000 DUP4 AND ISZERO PUSH2 0x1970 JUMPI PUSH17 0x100000000000000000000000B17217F7C MUL PUSH1 0x80 SHR JUMPDEST PUSH5 0x800000000 DUP4 AND ISZERO PUSH2 0x1994 JUMPI PUSH17 0x10000000000000000000000058B90BFBD MUL PUSH1 0x80 SHR JUMPDEST PUSH5 0x400000000 DUP4 AND ISZERO PUSH2 0x19B8 JUMPI PUSH17 0x1000000000000000000000002C5C85FDE MUL PUSH1 0x80 SHR JUMPDEST PUSH5 0x200000000 DUP4 AND ISZERO PUSH2 0x19DC JUMPI PUSH17 0x100000000000000000000000162E42FEE MUL PUSH1 0x80 SHR JUMPDEST PUSH5 0x100000000 DUP4 AND ISZERO PUSH2 0x1A00 JUMPI PUSH17 0x1000000000000000000000000B17217F6 MUL PUSH1 0x80 SHR JUMPDEST PUSH4 0x80000000 DUP4 AND ISZERO PUSH2 0x1A23 JUMPI PUSH17 0x100000000000000000000000058B90BFA MUL PUSH1 0x80 SHR JUMPDEST PUSH4 0x40000000 DUP4 AND ISZERO PUSH2 0x1A46 JUMPI PUSH17 0x10000000000000000000000002C5C85FC MUL PUSH1 0x80 SHR JUMPDEST PUSH4 0x20000000 DUP4 AND ISZERO PUSH2 0x1A69 JUMPI PUSH17 0x1000000000000000000000000162E42FD MUL PUSH1 0x80 SHR JUMPDEST PUSH4 0x10000000 DUP4 AND ISZERO PUSH2 0x1A8C JUMPI PUSH17 0x10000000000000000000000000B17217E MUL PUSH1 0x80 SHR JUMPDEST PUSH4 0x8000000 DUP4 AND ISZERO PUSH2 0x1AAF JUMPI PUSH17 0x1000000000000000000000000058B90BE MUL PUSH1 0x80 SHR JUMPDEST PUSH4 0x4000000 DUP4 AND ISZERO PUSH2 0x1AD2 JUMPI PUSH17 0x100000000000000000000000002C5C85E MUL PUSH1 0x80 SHR JUMPDEST PUSH4 0x2000000 DUP4 AND ISZERO PUSH2 0x1AF5 JUMPI PUSH17 0x10000000000000000000000000162E42E MUL PUSH1 0x80 SHR JUMPDEST PUSH4 0x1000000 DUP4 AND ISZERO PUSH2 0x1B18 JUMPI PUSH17 0x100000000000000000000000000B17216 MUL PUSH1 0x80 SHR JUMPDEST PUSH3 0x800000 DUP4 AND ISZERO PUSH2 0x1B3A JUMPI PUSH17 0x10000000000000000000000000058B90A MUL PUSH1 0x80 SHR JUMPDEST PUSH3 0x400000 DUP4 AND ISZERO PUSH2 0x1B5C JUMPI PUSH17 0x1000000000000000000000000002C5C84 MUL PUSH1 0x80 SHR JUMPDEST PUSH3 0x200000 DUP4 AND ISZERO PUSH2 0x1B7E JUMPI PUSH17 0x100000000000000000000000000162E41 MUL PUSH1 0x80 SHR JUMPDEST PUSH3 0x100000 DUP4 AND ISZERO PUSH2 0x1BA0 JUMPI PUSH17 0x1000000000000000000000000000B1720 MUL PUSH1 0x80 SHR JUMPDEST PUSH3 0x80000 DUP4 AND ISZERO PUSH2 0x1BC2 JUMPI PUSH17 0x100000000000000000000000000058B8F MUL PUSH1 0x80 SHR JUMPDEST PUSH3 0x40000 DUP4 AND ISZERO PUSH2 0x1BE4 JUMPI PUSH17 0x10000000000000000000000000002C5C7 MUL PUSH1 0x80 SHR JUMPDEST PUSH3 0x20000 DUP4 AND ISZERO PUSH2 0x1C06 JUMPI PUSH17 0x1000000000000000000000000000162E3 MUL PUSH1 0x80 SHR JUMPDEST PUSH3 0x10000 DUP4 AND ISZERO PUSH2 0x1C28 JUMPI PUSH17 0x10000000000000000000000000000B171 MUL PUSH1 0x80 SHR JUMPDEST PUSH2 0x8000 DUP4 AND ISZERO PUSH2 0x1C49 JUMPI PUSH17 0x1000000000000000000000000000058B8 MUL PUSH1 0x80 SHR JUMPDEST PUSH2 0x4000 DUP4 AND ISZERO PUSH2 0x1C6A JUMPI PUSH17 0x100000000000000000000000000002C5B MUL PUSH1 0x80 SHR JUMPDEST PUSH2 0x2000 DUP4 AND ISZERO PUSH2 0x1C8B JUMPI PUSH17 0x10000000000000000000000000000162D MUL PUSH1 0x80 SHR JUMPDEST PUSH2 0x1000 DUP4 AND ISZERO PUSH2 0x1CAC JUMPI PUSH17 0x100000000000000000000000000000B16 MUL PUSH1 0x80 SHR JUMPDEST PUSH2 0x800 DUP4 AND ISZERO PUSH2 0x1CCD JUMPI PUSH17 0x10000000000000000000000000000058A MUL PUSH1 0x80 SHR JUMPDEST PUSH2 0x400 DUP4 AND ISZERO PUSH2 0x1CEE JUMPI PUSH17 0x1000000000000000000000000000002C4 MUL PUSH1 0x80 SHR JUMPDEST PUSH2 0x200 DUP4 AND ISZERO PUSH2 0x1D0F JUMPI PUSH17 0x100000000000000000000000000000161 MUL PUSH1 0x80 SHR JUMPDEST PUSH2 0x100 DUP4 AND ISZERO PUSH2 0x1D30 JUMPI PUSH17 0x1000000000000000000000000000000B0 MUL PUSH1 0x80 SHR JUMPDEST PUSH1 0x80 DUP4 AND ISZERO PUSH2 0x1D50 JUMPI PUSH17 0x100000000000000000000000000000057 MUL PUSH1 0x80 SHR JUMPDEST PUSH1 0x40 DUP4 AND ISZERO PUSH2 0x1D70 JUMPI PUSH17 0x10000000000000000000000000000002B MUL PUSH1 0x80 SHR JUMPDEST PUSH1 0x20 DUP4 AND ISZERO PUSH2 0x1D90 JUMPI PUSH17 0x100000000000000000000000000000015 MUL PUSH1 0x80 SHR JUMPDEST PUSH1 0x10 DUP4 AND ISZERO PUSH2 0x1DB0 JUMPI PUSH17 0x10000000000000000000000000000000A MUL PUSH1 0x80 SHR JUMPDEST PUSH1 0x8 DUP4 AND ISZERO PUSH2 0x1DD0 JUMPI PUSH17 0x100000000000000000000000000000004 MUL PUSH1 0x80 SHR JUMPDEST PUSH1 0x4 DUP4 AND ISZERO PUSH2 0x1DF0 JUMPI PUSH17 0x100000000000000000000000000000001 MUL PUSH1 0x80 SHR JUMPDEST DUP5 PUSH2 0x1E11 JUMPI PUSH1 0xF DUP2 SWAP1 SHR PUSH1 0x1 PUSH1 0x1 PUSH1 0x70 SHL SUB AND SWAP1 POP PUSH2 0x3FFF DUP3 ADD SWAP2 POP PUSH2 0x1E40 JUMP JUMPDEST PUSH2 0x3FFE DUP3 GT PUSH2 0x1E36 JUMPI PUSH1 0xF DUP2 SWAP1 SHR PUSH1 0x1 PUSH1 0x1 PUSH1 0x70 SHL SUB AND SWAP1 POP DUP2 PUSH2 0x3FFF SUB SWAP2 POP PUSH2 0x1E40 JUMP JUMPDEST PUSH1 0x0 SWAP2 PUSH2 0x3FEE NOT ADD SHR JUMPDEST PUSH1 0x70 SWAP2 SWAP1 SWAP2 SHL OR PUSH1 0x80 SHL SWAP6 SWAP5 POP POP POP POP POP JUMP JUMPDEST PUSH1 0x0 PUSH2 0x1E65 DUP4 PUSH1 0x1 PUSH1 0xFF SHL DUP5 XOR PUSH2 0x57E JUMP JUMPDEST SWAP4 SWAP3 POP POP POP JUMP JUMPDEST PUSH1 0x0 PUSH2 0x7FFF PUSH1 0xF0 DUP5 DUP2 SHR DUP3 AND SWAP2 SWAP1 DUP5 SWAP1 SHR DUP2 AND SWAP1 DUP3 EQ ISZERO PUSH2 0x1EFB JUMPI DUP1 PUSH2 0x7FFF EQ ISZERO PUSH2 0x1EDA JUMPI PUSH1 0x1 PUSH1 0x1 PUSH1 0x80 SHL SUB NOT DUP6 DUP2 AND SWAP1 DUP6 AND EQ ISZERO PUSH2 0x1EB7 JUMPI POP POP POP PUSH1 0x1 PUSH1 0xFF SHL DUP2 AND DUP3 XOR PUSH2 0x143 JUMP JUMPDEST PUSH1 0x1 PUSH1 0xFF SHL PUSH1 0x1 PUSH1 0x1 PUSH1 0x80 SHL SUB NOT DUP7 DUP7 XOR AND EQ ISZERO PUSH2 0x5C2 JUMPI POP POP POP DUP2 DUP2 OR PUSH2 0x143 JUMP JUMPDEST PUSH1 0x1 PUSH1 0x80 SHL PUSH1 0x1 PUSH1 0xFF SHL SUB DUP5 AND PUSH2 0x2FB JUMPI POP PUSH2 0xFFFF PUSH1 0xEF SHL SWAP2 POP PUSH2 0x143 SWAP1 POP JUMP JUMPDEST DUP1 PUSH2 0x7FFF EQ ISZERO PUSH2 0x1F37 JUMPI PUSH1 0x1 PUSH1 0x80 SHL PUSH1 0x1 PUSH1 0xFF SHL SUB DUP6 AND PUSH2 0x1F26 JUMPI POP PUSH2 0xFFFF PUSH1 0xEF SHL SWAP2 POP PUSH2 0x143 SWAP1 POP JUMP JUMPDEST POP POP POP PUSH1 0x1 PUSH1 0xFF SHL DUP3 AND DUP2 XOR PUSH2 0x143 JUMP JUMPDEST PUSH1 0x1 PUSH1 0x1 PUSH1 0x70 SHL SUB PUSH1 0x80 DUP7 SWAP1 SHR AND DUP3 PUSH2 0x1F53 JUMPI PUSH1 0x1 SWAP3 POP PUSH2 0x1F5A JUMP JUMPDEST PUSH1 0x1 PUSH1 0x70 SHL OR JUMPDEST PUSH1 0x1 PUSH1 0x1 PUSH1 0x70 SHL SUB PUSH1 0x80 DUP7 SWAP1 SHR AND DUP3 PUSH2 0x1F76 JUMPI PUSH1 0x1 SWAP3 POP PUSH2 0x1F7D JUMP JUMPDEST PUSH1 0x1 PUSH1 0x70 SHL OR JUMPDEST SWAP1 DUP2 MUL SWAP1 DUP2 PUSH2 0x1F9A JUMPI PUSH1 0x1 PUSH1 0xFF SHL DUP8 DUP8 XOR AND PUSH2 0x431 JUMPI PUSH1 0x0 PUSH2 0x437 JUMP JUMPDEST SWAP3 DUP3 ADD SWAP3 PUSH1 0x0 PUSH1 0x1 PUSH1 0xE1 SHL DUP4 LT ISZERO PUSH2 0x1FCD JUMPI PUSH1 0x1 PUSH1 0xE0 SHL DUP4 LT ISZERO PUSH2 0x1FC6 JUMPI PUSH2 0x1FC1 DUP4 PUSH2 0x226F JUMP JUMPDEST PUSH2 0x1FD0 JUMP JUMPDEST PUSH1 0xE0 PUSH2 0x1FD0 JUMP JUMPDEST PUSH1 0xE1 JUMPDEST SWAP1 POP PUSH2 0x4070 DUP2 DUP7 ADD LT ISZERO PUSH2 0x1FEB JUMPI PUSH1 0x0 SWAP5 POP PUSH1 0x0 SWAP3 POP PUSH2 0x2088 JUMP JUMPDEST PUSH2 0x40E0 DUP2 DUP7 ADD LT ISZERO PUSH2 0x202E JUMPI PUSH2 0x4070 DUP6 LT ISZERO PUSH2 0x2010 JUMPI DUP5 PUSH2 0x4070 SUB DUP4 SWAP1 SHR SWAP3 POP PUSH2 0x2025 JUMP JUMPDEST PUSH2 0x4070 DUP6 GT ISZERO PUSH2 0x2025 JUMPI PUSH2 0x4070 DUP6 SUB DUP4 SWAP1 SHL SWAP3 POP JUMPDEST PUSH1 0x0 SWAP5 POP PUSH2 0x2088 JUMP JUMPDEST PUSH2 0xC0DD DUP2 DUP7 ADD GT ISZERO PUSH2 0x2048 JUMPI PUSH2 0x7FFF SWAP5 POP PUSH1 0x0 SWAP3 POP PUSH2 0x2088 JUMP JUMPDEST PUSH1 0x70 DUP2 GT ISZERO PUSH2 0x205F JUMPI PUSH1 0x70 DUP2 SUB DUP4 SWAP1 SHR SWAP3 POP PUSH2 0x2072 JUMP JUMPDEST PUSH1 0x70 DUP2 LT ISZERO PUSH2 0x2072 JUMPI DUP1 PUSH1 0x70 SUB DUP4 SWAP1 SHL SWAP3 POP JUMPDEST PUSH1 0x1 PUSH1 0x1 PUSH1 0x70 SHL SUB DUP4 AND SWAP3 POP PUSH2 0x40DF DUP2 DUP7 ADD SUB SWAP5 POP JUMPDEST DUP3 PUSH1 0x70 DUP7 SWAP1 SHL DUP9 DUP11 XOR PUSH1 0x1 PUSH1 0x7F SHL PUSH1 0x80 SHL AND PUSH1 0x80 SHR PUSH1 0x1 PUSH1 0x1 PUSH1 0x80 SHL SUB AND OR OR PUSH1 0x80 SHL SWAP6 POP POP POP POP POP POP PUSH2 0x143 JUMP JUMPDEST PUSH1 0x0 PUSH2 0x7FFF PUSH1 0xF0 DUP4 SWAP1 SHR AND PUSH2 0x3FFF DUP2 LT ISZERO PUSH2 0x20D5 JUMPI POP PUSH1 0x0 SWAP3 SWAP2 POP POP JUMP JUMPDEST PUSH1 0x1 PUSH1 0x7F SHL PUSH1 0x80 DUP5 SWAP1 SHR LT PUSH2 0x20E9 JUMPI PUSH1 0x0 DUP1 REVERT JUMPDEST PUSH2 0x40FE DUP2 GT ISZERO PUSH2 0x20F8 JUMPI PUSH1 0x0 DUP1 REVERT JUMPDEST PUSH1 0x1 PUSH1 0x70 SHL PUSH1 0x1 PUSH1 0x1 PUSH1 0x70 SHL SUB PUSH1 0x80 DUP6 SWAP1 SHR AND OR PUSH2 0x406F DUP3 LT ISZERO PUSH2 0x2122 JUMPI PUSH2 0x406F DUP3 SWAP1 SUB SHR PUSH2 0x1E65 JUMP JUMPDEST PUSH2 0x406F DUP3 GT ISZERO PUSH2 0x1E65 JUMPI PUSH2 0x406E NOT DUP3 ADD SHL SWAP4 SWAP3 POP POP POP JUMP JUMPDEST PUSH1 0x0 DUP2 PUSH2 0x2149 JUMPI POP PUSH1 0x0 SWAP2 SWAP1 POP JUMP JUMPDEST PUSH1 0x0 DUP1 DUP4 SGT PUSH2 0x215B JUMPI DUP3 PUSH1 0x0 SUB PUSH2 0x215D JUMP JUMPDEST DUP3 JUMPDEST SWAP1 POP PUSH1 0x0 PUSH2 0x216A DUP3 PUSH2 0x226F JUMP JUMPDEST SWAP1 POP PUSH1 0x70 DUP2 LT ISZERO PUSH2 0x2183 JUMPI DUP1 PUSH1 0x70 SUB DUP3 SWAP1 SHL SWAP2 POP PUSH2 0x2196 JUMP JUMPDEST PUSH1 0x70 DUP2 GT ISZERO PUSH2 0x2196 JUMPI PUSH1 0x70 DUP2 SUB DUP3 SWAP1 SHR SWAP2 POP JUMPDEST PUSH1 0x1 PUSH1 0x1 PUSH1 0x70 SHL SUB SWAP1 SWAP2 AND PUSH2 0x3FFF DUP3 ADD PUSH1 0x70 SHL OR SWAP1 PUSH1 0x0 DUP5 SLT ISZERO PUSH2 0x21BE JUMPI PUSH1 0x1 PUSH1 0x7F SHL DUP3 OR SWAP2 POP JUMPDEST POP PUSH1 0x80 SHL SWAP3 SWAP2 POP POP JUMP JUMPDEST PUSH1 0x0 PUSH2 0x7FFF PUSH1 0xF0 DUP4 SWAP1 SHR AND PUSH2 0x40FE DUP2 GT ISZERO PUSH2 0x21E2 JUMPI PUSH1 0x0 DUP1 REVERT JUMPDEST PUSH2 0x3FFF DUP2 LT ISZERO PUSH2 0x21F5 JUMPI POP PUSH1 0x0 SWAP3 SWAP2 POP POP JUMP JUMPDEST PUSH1 0x1 PUSH1 0x70 SHL PUSH1 0x1 PUSH1 0x1 PUSH1 0x70 SHL SUB PUSH1 0x80 DUP6 SWAP1 SHR AND OR PUSH2 0x406F DUP3 LT ISZERO PUSH2 0x221F JUMPI PUSH2 0x406F DUP3 SWAP1 SUB SHR PUSH2 0x2231 JUMP JUMPDEST PUSH2 0x406F DUP3 GT ISZERO PUSH2 0x2231 JUMPI PUSH2 0x406E NOT DUP3 ADD SHL JUMPDEST PUSH1 0x1 PUSH1 0x7F SHL PUSH1 0x80 DUP6 SWAP1 SHR LT PUSH2 0x225B JUMPI PUSH1 0x1 PUSH1 0xFF SHL DUP2 GT ISZERO PUSH2 0x2251 JUMPI PUSH1 0x0 DUP1 REVERT JUMPDEST PUSH1 0x0 SUB SWAP4 SWAP3 POP POP POP JUMP JUMPDEST PUSH1 0x1 PUSH1 0x1 PUSH1 0xFF SHL SUB DUP2 GT ISZERO PUSH2 0x1E65 JUMPI PUSH1 0x0 DUP1 REVERT JUMPDEST PUSH1 0x0 DUP1 DUP3 GT PUSH2 0x227D JUMPI PUSH1 0x0 DUP1 REVERT JUMPDEST PUSH1 0x0 PUSH1 0x1 PUSH1 0x80 SHL DUP4 LT PUSH2 0x2292 JUMPI PUSH1 0x80 SWAP3 DUP4 SHR SWAP3 ADD JUMPDEST PUSH1 0x1 PUSH1 0x40 SHL DUP4 LT PUSH2 0x22A5 JUMPI PUSH1 0x40 SWAP3 DUP4 SHR SWAP3 ADD JUMPDEST PUSH5 0x100000000 DUP4 LT PUSH2 0x22B9 JUMPI PUSH1 0x20 SWAP3 DUP4 SHR SWAP3 ADD JUMPDEST PUSH3 0x10000 DUP4 LT PUSH2 0x22CB JUMPI PUSH1 0x10 SWAP3 DUP4 SHR SWAP3 ADD JUMPDEST PUSH2 0x100 DUP4 LT PUSH2 0x22DC JUMPI PUSH1 0x8 SWAP3 DUP4 SHR SWAP3 ADD JUMPDEST PUSH1 0x10 DUP4 LT PUSH2 0x22EC JUMPI PUSH1 0x4 SWAP3 DUP4 SHR SWAP3 ADD JUMPDEST PUSH1 0x4 DUP4 LT PUSH2 0x22FC JUMPI PUSH1 0x2 SWAP3 DUP4 SHR SWAP3 ADD JUMPDEST PUSH1 0x2 DUP4 LT PUSH2 0x143 JUMPI PUSH1 0x1 ADD SWAP3 SWAP2 POP POP JUMP JUMPDEST PUSH1 0x0 PUSH1 0x20 DUP3 DUP5 SUB SLT ISZERO PUSH2 0x231F JUMPI PUSH1 0x0 DUP1 REVERT JUMPDEST POP CALLDATALOAD SWAP2 SWAP1 POP JUMP JUMPDEST PUSH1 0x0 DUP1 PUSH1 0x0 DUP1 PUSH1 0x0 PUSH1 0xA0 DUP7 DUP9 SUB SLT ISZERO PUSH2 0x233E JUMPI PUSH1 0x0 DUP1 REVERT JUMPDEST POP POP DUP4 CALLDATALOAD SWAP6 PUSH1 0x20 DUP6 ADD CALLDATALOAD SWAP6 POP PUSH1 0x40 DUP6 ADD CALLDATALOAD SWAP5 PUSH1 0x60 DUP2 ADD CALLDATALOAD SWAP5 POP PUSH1 0x80 ADD CALLDATALOAD SWAP3 POP SWAP1 POP JUMP JUMPDEST PUSH1 0x0 DUP1 PUSH1 0x0 PUSH1 0x60 DUP5 DUP7 SUB SLT ISZERO PUSH2 0x2376 JUMPI PUSH1 0x0 DUP1 REVERT JUMPDEST POP POP DUP2 CALLDATALOAD SWAP4 PUSH1 0x20 DUP4 ADD CALLDATALOAD SWAP4 POP PUSH1 0x40 SWAP1 SWAP3 ADD CALLDATALOAD SWAP2 SWAP1 POP JUMP JUMPDEST PUSH4 0x4E487B71 PUSH1 0xE0 SHL PUSH1 0x0 MSTORE PUSH1 0x11 PUSH1 0x4 MSTORE PUSH1 0x24 PUSH1 0x0 REVERT JUMPDEST PUSH1 0x1 DUP2 DUP2 JUMPDEST DUP1 DUP6 GT ISZERO PUSH2 0x23DE JUMPI DUP2 PUSH1 0x0 NOT DIV DUP3 GT ISZERO PUSH2 0x23C4 JUMPI PUSH2 0x23C4 PUSH2 0x238D JUMP JUMPDEST DUP1 DUP6 AND ISZERO PUSH2 0x23D1 JUMPI SWAP2 DUP2 MUL SWAP2 JUMPDEST SWAP4 DUP5 SHR SWAP4 SWAP1 DUP1 MUL SWAP1 PUSH2 0x23A8 JUMP JUMPDEST POP SWAP3 POP SWAP3 SWAP1 POP JUMP JUMPDEST PUSH1 0x0 DUP3 PUSH2 0x23F5 JUMPI POP PUSH1 0x1 PUSH2 0x143 JUMP JUMPDEST DUP2 PUSH2 0x2402 JUMPI POP PUSH1 0x0 PUSH2 0x143 JUMP JUMPDEST DUP2 PUSH1 0x1 DUP2 EQ PUSH2 0x2418 JUMPI PUSH1 0x2 DUP2 EQ PUSH2 0x2422 JUMPI PUSH2 0x243E JUMP JUMPDEST PUSH1 0x1 SWAP2 POP POP PUSH2 0x143 JUMP JUMPDEST PUSH1 0xFF DUP5 GT ISZERO PUSH2 0x2433 JUMPI PUSH2 0x2433 PUSH2 0x238D JUMP JUMPDEST POP POP PUSH1 0x1 DUP3 SHL PUSH2 0x143 JUMP JUMPDEST POP PUSH1 0x20 DUP4 LT PUSH2 0x133 DUP4 LT AND PUSH1 0x4E DUP5 LT PUSH1 0xB DUP5 LT AND OR ISZERO PUSH2 0x2461 JUMPI POP DUP2 DUP2 EXP PUSH2 0x143 JUMP JUMPDEST PUSH2 0x246B DUP4 DUP4 PUSH2 0x23A3 JUMP JUMPDEST DUP1 PUSH1 0x0 NOT DIV DUP3 GT ISZERO PUSH2 0x247F JUMPI PUSH2 0x247F PUSH2 0x238D JUMP JUMPDEST MUL SWAP4 SWAP3 POP POP POP JUMP JUMPDEST PUSH1 0x0 PUSH2 0x1E65 DUP4 DUP4 PUSH2 0x23E6 JUMP JUMPDEST PUSH1 0x0 DUP2 PUSH1 0x0 NOT DIV DUP4 GT DUP3 ISZERO ISZERO AND ISZERO PUSH2 0x24AD JUMPI PUSH2 0x24AD PUSH2 0x238D JUMP JUMPDEST POP MUL SWAP1 JUMP JUMPDEST PUSH4 0x4E487B71 PUSH1 0xE0 SHL PUSH1 0x0 MSTORE PUSH1 0x12 PUSH1 0x4 MSTORE PUSH1 0x24 PUSH1 0x0 REVERT JUMPDEST PUSH1 0x0 DUP3 PUSH2 0x24E5 JUMPI PUSH4 0x4E487B71 PUSH1 0xE0 SHL PUSH1 0x0 MSTORE PUSH1 0x12 PUSH1 0x4 MSTORE PUSH1 0x24 PUSH1 0x0 REVERT JUMPDEST POP DIV SWAP1 JUMP JUMPDEST PUSH1 0x0 DUP3 DUP3 LT ISZERO PUSH2 0x24FC JUMPI PUSH2 0x24FC PUSH2 0x238D JUMP JUMPDEST POP SUB SWAP1 JUMP JUMPDEST PUSH1 0x0 DUP3 NOT DUP3 GT ISZERO PUSH2 0x2514 JUMPI PUSH2 0x2514 PUSH2 0x238D JUMP JUMPDEST POP ADD SWAP1 JUMP JUMPDEST PUSH4 0x4E487B71 PUSH1 0xE0 SHL PUSH1 0x0 MSTORE PUSH1 0x1 PUSH1 0x4 MSTORE PUSH1 0x24 PUSH1 0x0 REVERT INVALID LOG2 PUSH5 0x6970667358 0x22 SLT KECCAK256 CODECOPY 0xE0 SUB SWAP6 DUP6 SWAP2 TIMESTAMP DIV COINBASE SGT 0x49 SWAP3 0xE4 ADDMOD LOG0 0x2A 0xE7 DUP14 0x2D 0xE8 PUSH31 0x2107B5C74759AD0AC416BE64736F6C634300080B0033000000000000000000 ","sha1":"5cee60ff5f2d7cf394ca3fc10086647b8547efb8","source":"// SPDX-License-Identifier: MIT\npragma solidity ^0.8.0;\n\nimport \"./ABDKMathQuad.sol\";\n\n//TODO: Make another library called PotamusRequirement\n//to house all the requirements as function\nlibrary PotamusUtils {\n    uint256 public constant FLOAT_DECIMALS = 18;\n\n    //Calculate new balance with interest rate compounded per sec\n    function getNewBalance(\n        int256 _oldBalance,\n        uint256 _fRatePerSecond,\n        uint256 _secondInterval\n    ) public pure returns (int256) {\n        //TODO: We have the below ugly implementation cos ABDKMathQuad doesn't have\n        //function to calculate x^n given x and n\n        //ABDKMath64x64 has support for that, but I used ABDKMathQuad in LoanPool so just\n        //wanna keep the same library. We should do gas optimization here if possible by changing\n        //library.\n        //The math trick used below: (1+rate)^(interval) = 2^(interval.log_2(1+rate))\n        return\n            ABDKMathQuad.toInt(\n                ABDKMathQuad.mul(\n                    ABDKMathQuad.fromInt(_oldBalance),\n                    ABDKMathQuad.pow_2(\n                        ABDKMathQuad.mul(\n                            //interval\n                            ABDKMathQuad.fromUInt(_secondInterval),\n                            //log_2^(1+rate)\n                            ABDKMathQuad.log_2(\n                                ABDKMathQuad.add(\n                                    ABDKMathQuad.fromUInt(1),\n                                    ABDKMathQuad.div(\n                                        ABDKMathQuad.fromUInt(_fRatePerSecond),\n                                        ABDKMathQuad.fromUInt(10**18)\n                                    )\n                                )\n                            )\n                        )\n                    )\n                )\n            );\n    }\n\n    //Convert annually compounded interest into equivalent secondly compounded rate\n    function getEquivalentSecRate(uint256 _annualRate)\n        public\n        pure\n        returns (uint256)\n    {\n        return\n            ABDKMathQuad.toUInt(\n                ABDKMathQuad.mul(\n                    ABDKMathQuad.sub(\n                        ABDKMathQuad.pow_2(\n                            ABDKMathQuad.div(\n                                ABDKMathQuad.log_2(\n                                    ABDKMathQuad.add(\n                                        ABDKMathQuad.div(\n                                            ABDKMathQuad.fromUInt(_annualRate),\n                                            ABDKMathQuad.fromUInt(\n                                                1 * 10**FLOAT_DECIMALS\n                                            )\n                                        ),\n                                        ABDKMathQuad.fromUInt(1)\n                                    )\n                                ),\n                                ABDKMathQuad.fromUInt(365 * 1 days)\n                            )\n                        ),\n                        ABDKMathQuad.fromUInt(1)\n                    ),\n                    ABDKMathQuad.fromUInt(1 * 10**FLOAT_DECIMALS)\n                )\n            );\n    }\n\n    //TODO: Write test for this function\n    function getAnnualInterestRate(\n        uint256 _loanBalance,\n        uint256 _depositBalance,\n        uint256 _fCRITICAL_UTIL_RATE,\n        uint256 _fFIRST_ANNUAL_INTEREST_RATE,\n        uint256 _fSECOND_ANNUAL_INTEREST_RATE\n    ) public pure returns (uint256 fInterestRate) {\n        uint256 fUtilRate = (10**FLOAT_DECIMALS * _loanBalance) /\n            _depositBalance;\n\n        if (fUtilRate < _fCRITICAL_UTIL_RATE) {\n            return\n                ABDKMathQuad.toUInt(\n                    ABDKMathQuad.mul(\n                        ABDKMathQuad.div(\n                            ABDKMathQuad.fromUInt(fUtilRate),\n                            ABDKMathQuad.fromUInt(_fCRITICAL_UTIL_RATE)\n                        ),\n                        ABDKMathQuad.fromUInt(_fFIRST_ANNUAL_INTEREST_RATE)\n                    )\n                );\n        } else if (fUtilRate >= _fCRITICAL_UTIL_RATE) {\n            return\n                _fFIRST_ANNUAL_INTEREST_RATE +\n                ABDKMathQuad.toUInt(\n                    ABDKMathQuad.mul(\n                        ABDKMathQuad.div(\n                            ABDKMathQuad.fromUInt(\n                                fUtilRate - _fCRITICAL_UTIL_RATE\n                            ),\n                            ABDKMathQuad.fromUInt(\n                                1 * 10**FLOAT_DECIMALS - _fCRITICAL_UTIL_RATE\n                            )\n                        ),\n                        ABDKMathQuad.fromUInt(\n                            _fSECOND_ANNUAL_INTEREST_RATE -\n                                _fFIRST_ANNUAL_INTEREST_RATE\n                        )\n                    )\n                );\n        }\n    }\n}\n","sourcePath":"contracts/PotamusUtils.sol","type":"library","deployment":{"address":"0xC1531B4eB31cB9195616e7a968a19DF2902C84FE","chainid":"42","blockHeight":29226985}}