{"bytecode":"61246461003a600b82828239805160001a60731461002d57634e487b7160e01b600052600060045260246000fd5b30600052607381538281f3fe73000000000000000000000000000000000000000030146080604052600436106100565760003560e01c80638ddbf2481461005b57806398be96ac14610080578063d7daa11614610088578063e24a9e6e146100a9575b600080fd5b61006e61006936600461225d565b6100bc565b60405190815260200160405180910390f35b61006e601281565b61006e610096366004612276565b680ad78ebc5ac620000095945050505050565b61006e6100b73660046122b1565b610157565b600061015161014c6101386101296101246101176101126101036100df8a6101b1565b6100fe6100ee6012600a6123d7565b6100f99060016123e3565b6101b1565b610215565b61010d60016101b1565b6104cd565b61089d565b6100fe6301e133806101b1565b610a50565b61013360016101b1565b611da3565b6101476100ee6012600a6123d7565b611dbc565b612007565b92915050565b60006101a96101a46101688661208a565b610147610124610177876101b1565b61014761011261018760016101b1565b61010d6101938d6101b1565b6100fe670de0b6b3a76400006101b1565b612118565b949350505050565b6000816101c057506000919050565b8160006101cc826121bf565b905060708110156101e5578060700382901b91506101f8565b60708111156101f8576070810382901c91505b613fff0160701b6001600160701b03919091161760801b92915050565b6000617fff60f084811c8216919084901c81169082141561025b5780617fff141561024a575061ffff60ef1b91506101519050565b505050600160ff1b81168218610151565b80617fff141561029f576dffffffffffffffffffffffffffff60801b84161561028e575061ffff60ef1b91506101519050565b505050808218600160ff1b16610151565b600160801b600160ff1b0384166102e957600160801b600160ff1b0385166102d1575061ffff60ef1b91506101519050565b505050808218600160ff1b16617fff60f01b17610151565b6001600160701b03608085901c1681610305576001915061030c565b600160701b175b6001600160701b03608087901c168361034b578015610346576000610330826121bf565b6001955060e20393840160711901939190911b90505b610355565b600160701b1760721b5b81818161036457610364612402565b0490508061039157600160ff1b87871816610380576000610386565b600160ff1b5b945050505050610151565b6001606c1b8110156103a5576103a5612418565b6000600160731b8210156103e457600160721b8210156103d957600160711b8210156103d25760706103dc565b60716103dc565b60725b60ff166103ed565b6103ed826121bf565b90508361407101818601111561040b57617fff94506000915061049e565b83818601613ffc01101561042657600094506000915061049e565b83818601613f8c011015610473578385613ffc011115610451578385613ffc010382901b915061046a565b8385613ffc01101561046a57613ffc8585030382901c91505b6000945061049e565b6070811115610486576070810382901c91505b6001600160701b038216915083818601613f8d010394505b81607086901b888a186001607f1b60801b1660801c6001600160801b0316171760801b95505050505050610151565b6000617fff60f084811c8216919084901c81169082141561052b5780617fff1415610521576001600160801b03198581169085161415610511578492505050610151565b5061ffff60ef1b91506101519050565b8492505050610151565b80617fff141561053f578392505050610151565b6001607f1b608086901c90811015906001600160701b031683610565576001935061056c565b600160701b175b6001607f1b608087901c90811015906001600160701b0316846105925760019450610599565b600160701b175b826105c9576001600160801b03198816600160ff1b146105b957876105bc565b60005b9650505050505050610151565b806105e9576001600160801b03198916600160ff1b146105b957886105bc565b84860384151583151514156106f45760708113156106105789975050505050505050610151565b60008113156106225790811c90610651565b606f1981121561063b5788975050505050505050610151565b6000811215610651578060000384901c93508596505b92810192600160711b841061066c576001968701969390931c925b86617fff141561069e578461068657617fff60f01b610690565b6001600160f01b03195b975050505050505050610151565b600160701b8410156106b357600096506106c0565b6001600160701b03841693505b83607088901b866106d25760006106d8565b6001607f1b5b6001600160801b0316171760801b975050505050505050610151565b600081131561070f57600184901b9350600187039650610726565b600081121561072657600182901b91506001860396505b60708113156107385760019150610785565b6001811315610755576001810360018303901c6001019150610785565b606f198112156107685760019350610785565b600019811215610785576001816000030360018503901c60010193505b81841061079657818403935061079f565b83820393508294505b836107b557506000965061015195505050505050565b60006107c0856121bf565b905080607114156107e657600185901c6001600160701b03169450600188019750610835565b607081101561082857607081900380891115610815578086901b6001600160701b031695508089039850610822565b600098600019019590951b945b50610835565b6001600160701b03851694505b87617fff1415610868578561084f57617fff60f01b610859565b6001600160f01b03195b98505050505050505050610151565b84607089901b8761087a576000610880565b6001607f1b5b6001600160801b0316171760801b98505050505050505050610151565b60006001607f1b608083901c11156108bb575061ffff60ef1b919050565b613fff60f01b6001600160801b0319831614156108da57506000919050565b617fff60f083901c8116908114156108f3575090919050565b6001600160701b03608084901c168161090f5760019150610916565b600160701b175b8061092c57506001600160f01b03199392505050565b600061406f81613fff85106109525750600f9290921b9160009150613ffe198401610991565b60019250600160701b84106109745784613ffe039050600f84901b9350610991565b600061097f856121bf565b607f8190039590951b9461406d039150505b836001607f1b14156109c85782156109a7576001015b60006109b2826121bf565b60700390508082901b9150808303925050610a16565b6000836109d65760006109d9565b60015b60ff1690505b600160701b821015610a145793800260ff81901c607f81019190911c94600019939093019260019290921b90821801906109df565b505b806001600160701b0316607083901b84610a31576000610a37565b6001607f1b5b6001600160801b0316171760801b979650505050505050565b60006001607f1b608083901c90811190617fff60f085901c8116916001600160701b03169082148015610a8257508015155b15610a96575061ffff60ef1b949350505050565b61400d821115610abc5782610ab057617fff60f01b610ab3565b60005b95945050505050565b613f7f821015610ad55750613fff60f01b949350505050565b81610ae35760019150610aea565b600160701b175b613fef821115610b0057613fee1982011b610b12565b613fef821015610b1257613fef8290031c5b828015610b23575061203760811b81115b15610b3357506000949350505050565b82158015610b525750713fffffffffffffffffffffffffffffffffff81115b15610b665750617fff60f01b949350505050565b6001600160801b0381169060801c838015610b8057508115155b15610b8c579019906001015b6001607f1b82811615610bb05770016a09e667f3bcc908b2fb1366ea957d3e0260801c5b6001607e1b831615610bd3577001306fe0a31b7152de8d5a46305c85edec0260801c5b6001607d1b831615610bf6577001172b83c7d517adcdf7c8c50eb14a791f0260801c5b6001607c1b831615610c195770010b5586cf9890f6298b92b71842a983630260801c5b6001607b1b831615610c3c577001059b0d31585743ae7c548eb68ca417fd0260801c5b6001607a1b831615610c5f57700102c9a3e778060ee6f7caca4f7a29bde80260801c5b600160791b831615610c825770010163da9fb33356d84a66ae336dcdfa3f0260801c5b600160781b831615610ca557700100b1afa5abcbed6129ab13ec11dc95430260801c5b600160771b831615610cc85770010058c86da1c09ea1ff19d294cf2f679b0260801c5b600160761b831615610ceb577001002c605e2e8cec506d21bfc89a23a00f0260801c5b600160751b831615610d0e57700100162f3904051fa128bca9c55c31e5df0260801c5b600160741b831615610d31577001000b175effdc76ba38e31671ca9397250260801c5b600160731b831615610d5457700100058ba01fb9f96d6cacd4b180917c3d0260801c5b600160721b831615610d775770010002c5cc37da9491d0985c348c68e7b30260801c5b600160711b831615610d9a577001000162e525ee054754457d59952920260260801c5b600160701b831615610dbd5770010000b17255775c040618bf4a4ade83fc0260801c5b6001606f1b831615610de0577001000058b91b5bc9ae2eed81e9b7d4cfab0260801c5b6001606e1b831615610e0357700100002c5c89d5ec6ca4d7c8acc017b7c90260801c5b6001606d1b831615610e265770010000162e43f4f831060e02d839a9d16d0260801c5b6001606c1b831615610e4957700100000b1721bcfc99d9f890ea069117630260801c5b6001606b1b831615610e6c5770010000058b90cf1e6d97f9ca14dbcc16280260801c5b6001606a1b831615610e8f577001000002c5c863b73f016468f6bac5ca2b0260801c5b600160691b831615610eb257700100000162e430e5a18f6119e3c02282a50260801c5b600160681b831615610ed5577001000000b1721835514b86e6d96efd1bfe0260801c5b600160671b831615610ef857700100000058b90c0b48c6be5df846c5b2ef0260801c5b600160661b831615610f1b5770010000002c5c8601cc6b9e94213c72737a0260801c5b600160651b831615610f3e577001000000162e42fff037df38aa2b219f060260801c5b600160641b831615610f615770010000000b17217fba9c739aa5819f44f90260801c5b600160631b831615610f84577001000000058b90bfcdee5acd3c1cedc8230260801c5b600160621b831615610fa757700100000002c5c85fe31f35a6a30da1be500260801c5b600160611b831615610fca5770010000000162e42ff0999ce3541b9fffcf0260801c5b600160601b831615610fed57700100000000b17217f80f4ef5aadda455540260801c5b6001605f1b8316156110105770010000000058b90bfbf8479bd5a81b51ad0260801c5b6001605e1b831615611033577001000000002c5c85fdf84bd62ae30a74cc0260801c5b6001605d1b83161561105657700100000000162e42fefb2fed257559bdaa0260801c5b6001605c1b831615611079577001000000000b17217f7d5a7716bba4a9ae0260801c5b6001605b1b83161561109c57700100000000058b90bfbe9ddbac5e109cce0260801c5b6001605a1b8316156110bf5770010000000002c5c85fdf4b15de6f17eb0d0260801c5b600160591b8316156110e2577001000000000162e42fefa494f1478fde050260801c5b600160581b8316156111055770010000000000b17217f7d20cf927c8e94c0260801c5b600160571b831615611128577001000000000058b90bfbe8f71cb4e4b33d0260801c5b600160561b83161561114b57700100000000002c5c85fdf477b662b269450260801c5b600160551b83161561116e5770010000000000162e42fefa3ae53369388c0260801c5b600160541b83161561119157700100000000000b17217f7d1d351a389d400260801c5b600160531b8316156111b45770010000000000058b90bfbe8e8b2d3d4ede0260801c5b600160521b8316156111d7577001000000000002c5c85fdf4741bea6e77e0260801c5b600160511b8316156111fa57700100000000000162e42fefa39fe95583c20260801c5b600160501b83161561121d577001000000000000b17217f7d1cfb72b45e10260801c5b698000000000000000000083161561124657700100000000000058b90bfbe8e7cc35c3f00260801c5b694000000000000000000083161561126f5770010000000000002c5c85fdf473e242ea380260801c5b6920000000000000000000831615611298577001000000000000162e42fefa39f02b772c0260801c5b69100000000000000000008316156112c15770010000000000000b17217f7d1cf7d83c1a0260801c5b69080000000000000000008316156112ea577001000000000000058b90bfbe8e7bdcbe2e0260801c5b690400000000000000000083161561131357700100000000000002c5c85fdf473dea871f0260801c5b690200000000000000000083161561133c5770010000000000000162e42fefa39ef44d910260801c5b690100000000000000000083161561136557700100000000000000b17217f7d1cf79e9490260801c5b6880000000000000000083161561138d5770010000000000000058b90bfbe8e7bce5440260801c5b684000000000000000008316156113b5577001000000000000002c5c85fdf473de6eca0260801c5b682000000000000000008316156113dd57700100000000000000162e42fefa39ef366f0260801c5b68100000000000000000831615611405577001000000000000000b17217f7d1cf79afa0260801c5b6808000000000000000083161561142d57700100000000000000058b90bfbe8e7bcd6d0260801c5b680400000000000000008316156114555770010000000000000002c5c85fdf473de6b20260801c5b6802000000000000000083161561147d577001000000000000000162e42fefa39ef3580260801c5b600160401b8316156114a05770010000000000000000b17217f7d1cf79ab0260801c5b6780000000000000008316156114c7577001000000000000000058b90bfbe8e7bcd50260801c5b6740000000000000008316156114ee57700100000000000000002c5c85fdf473de6a0260801c5b6720000000000000008316156115155770010000000000000000162e42fefa39ef340260801c5b67100000000000000083161561153c57700100000000000000000b17217f7d1cf7990260801c5b6708000000000000008316156115635770010000000000000000058b90bfbe8e7bcc0260801c5b67040000000000000083161561158a577001000000000000000002c5c85fdf473de50260801c5b6702000000000000008316156115b157700100000000000000000162e42fefa39ef20260801c5b6701000000000000008316156115d8577001000000000000000000b17217f7d1cf780260801c5b66800000000000008316156115fe57700100000000000000000058b90bfbe8e7bb0260801c5b66400000000000008316156116245770010000000000000000002c5c85fdf473dd0260801c5b662000000000000083161561164a577001000000000000000000162e42fefa39ee0260801c5b66100000000000008316156116705770010000000000000000000b17217f7d1cf60260801c5b6608000000000000831615611696577001000000000000000000058b90bfbe8e7a0260801c5b66040000000000008316156116bc57700100000000000000000002c5c85fdf473c0260801c5b66020000000000008316156116e25770010000000000000000000162e42fefa39d0260801c5b660100000000000083161561170857700100000000000000000000b17217f7d1ce0260801c5b6580000000000083161561172d5770010000000000000000000058b90bfbe8e60260801c5b65400000000000831615611752577001000000000000000000002c5c85fdf4720260801c5b6520000000000083161561177757700100000000000000000000162e42fefa380260801c5b6510000000000083161561179c577001000000000000000000000b17217f7d1b0260801c5b650800000000008316156117c157700100000000000000000000058b90bfbe8d0260801c5b650400000000008316156117e65770010000000000000000000002c5c85fdf460260801c5b6502000000000083161561180b577001000000000000000000000162e42fefa20260801c5b650100000000008316156118305770010000000000000000000000b17217f7d00260801c5b648000000000831615611854577001000000000000000000000058b90bfbe70260801c5b64400000000083161561187857700100000000000000000000002c5c85fdf30260801c5b64200000000083161561189c5770010000000000000000000000162e42fef90260801c5b6410000000008316156118c057700100000000000000000000000b17217f7c0260801c5b6408000000008316156118e45770010000000000000000000000058b90bfbd0260801c5b640400000000831615611908577001000000000000000000000002c5c85fde0260801c5b64020000000083161561192c57700100000000000000000000000162e42fee0260801c5b640100000000831615611950577001000000000000000000000000b17217f60260801c5b638000000083161561197357700100000000000000000000000058b90bfa0260801c5b63400000008316156119965770010000000000000000000000002c5c85fc0260801c5b63200000008316156119b9577001000000000000000000000000162e42fd0260801c5b63100000008316156119dc5770010000000000000000000000000b17217e0260801c5b63080000008316156119ff577001000000000000000000000000058b90be0260801c5b6304000000831615611a2257700100000000000000000000000002c5c85e0260801c5b6302000000831615611a455770010000000000000000000000000162e42e0260801c5b6301000000831615611a6857700100000000000000000000000000b172160260801c5b62800000831615611a8a5770010000000000000000000000000058b90a0260801c5b62400000831615611aac577001000000000000000000000000002c5c840260801c5b62200000831615611ace57700100000000000000000000000000162e410260801c5b62100000831615611af0577001000000000000000000000000000b17200260801c5b62080000831615611b1257700100000000000000000000000000058b8f0260801c5b62040000831615611b345770010000000000000000000000000002c5c70260801c5b62020000831615611b56577001000000000000000000000000000162e30260801c5b62010000831615611b785770010000000000000000000000000000b1710260801c5b618000831615611b99577001000000000000000000000000000058b80260801c5b614000831615611bba57700100000000000000000000000000002c5b0260801c5b612000831615611bdb5770010000000000000000000000000000162d0260801c5b611000831615611bfc57700100000000000000000000000000000b160260801c5b610800831615611c1d5770010000000000000000000000000000058a0260801c5b610400831615611c3e577001000000000000000000000000000002c40260801c5b610200831615611c5f577001000000000000000000000000000001610260801c5b610100831615611c80577001000000000000000000000000000000b00260801c5b6080831615611ca0577001000000000000000000000000000000570260801c5b6040831615611cc05770010000000000000000000000000000002b0260801c5b6020831615611ce0577001000000000000000000000000000000150260801c5b6010831615611d005770010000000000000000000000000000000a0260801c5b6008831615611d20577001000000000000000000000000000000040260801c5b6004831615611d40577001000000000000000000000000000000010260801c5b84611d6157600f81901c6001600160701b03169050613fff82019150611d90565b613ffe8211611d8657600f81901c6001600160701b0316905081613fff039150611d90565b600091613fee19011c5b60709190911b1760801b95945050505050565b6000611db583600160ff1b84186104cd565b9392505050565b6000617fff60f084811c8216919084901c811690821415611e4b5780617fff1415611e2a576001600160801b03198581169085161415611e0757505050600160ff1b81168218610151565b600160ff1b6001600160801b031986861816141561051157505050818117610151565b600160801b600160ff1b03841661024a575061ffff60ef1b91506101519050565b80617fff1415611e8757600160801b600160ff1b038516611e76575061ffff60ef1b91506101519050565b505050600160ff1b82168118610151565b6001600160701b03608086901c1682611ea35760019250611eaa565b600160701b175b6001600160701b03608086901c1682611ec65760019250611ecd565b600160701b175b9081029081611eea57600160ff1b87871816610380576000610386565b928201926000600160e11b831015611f1d57600160e01b831015611f1657611f11836121bf565b611f20565b60e0611f20565b60e15b90506140708186011015611f3b576000945060009250611fd8565b6140e08186011015611f7e57614070851015611f6057846140700383901c9250611f75565b614070851115611f7557614070850383901b92505b60009450611fd8565b61c0dd8186011115611f9857617fff945060009250611fd8565b6070811115611faf576070810383901c9250611fc2565b6070811015611fc2578060700383901b92505b6001600160701b03831692506140df8186010394505b82607086901b888a186001607f1b60801b1660801c6001600160801b0316171760801b95505050505050610151565b6000617fff60f083901c16613fff8110156120255750600092915050565b6001607f1b608084901c1061203957600080fd5b6140fe81111561204857600080fd5b600160701b6001600160701b03608085901c161761406f8210156120725761406f8290031c611db5565b61406f821115611db55761406e1982011b9392505050565b60008161209957506000919050565b60008083136120ab57826000036120ad565b825b905060006120ba826121bf565b905060708110156120d3578060700382901b91506120e6565b60708111156120e6576070810382901c91505b6001600160701b03909116613fff820160701b1790600084121561210e576001607f1b821791505b5060801b92915050565b6000617fff60f083901c166140fe81111561213257600080fd5b613fff8110156121455750600092915050565b600160701b6001600160701b03608085901c161761406f82101561216f5761406f8290031c612181565b61406f8211156121815761406e1982011b5b6001607f1b608085901c106121ab57600160ff1b8111156121a157600080fd5b6000039392505050565b6001600160ff1b03811115611db557600080fd5b60008082116121cd57600080fd5b6000600160801b83106121e257608092831c92015b600160401b83106121f557604092831c92015b640100000000831061220957602092831c92015b62010000831061221b57601092831c92015b610100831061222c57600892831c92015b6010831061223c57600492831c92015b6004831061224c57600292831c92015b600283106101515760010192915050565b60006020828403121561226f57600080fd5b5035919050565b600080600080600060a0868803121561228e57600080fd5b505083359560208501359550604085013594606081013594506080013592509050565b6000806000606084860312156122c657600080fd5b505081359360208301359350604090920135919050565b634e487b7160e01b600052601160045260246000fd5b600181815b8085111561232e578160001904821115612314576123146122dd565b8085161561232157918102915b93841c93908002906122f8565b509250929050565b60008261234557506001610151565b8161235257506000610151565b816001811461236857600281146123725761238e565b6001915050610151565b60ff841115612383576123836122dd565b50506001821b610151565b5060208310610133831016604e8410600b84101617156123b1575081810a610151565b6123bb83836122f3565b80600019048211156123cf576123cf6122dd565b029392505050565b6000611db58383612336565b60008160001904831182151516156123fd576123fd6122dd565b500290565b634e487b7160e01b600052601260045260246000fd5b634e487b7160e01b600052600160045260246000fdfea2646970667358221220abb71ef4e8e08c4234ded645222ed909b7c80866323ff921d3fada8c65da2f5e64736f6c634300080b0033","bytecodeSha1":"84f9a2971214ac098f9bd7d501cd64346a438627","type":"library","abi":[{"inputs":[],"name":"FLOAT_DECIMALS","outputs":[{"internalType":"uint256","name":"","type":"uint256"}],"stateMutability":"view","type":"function"},{"inputs":[{"internalType":"uint256","name":"_loanBalance","type":"uint256"},{"internalType":"uint256","name":"_depositBalance","type":"uint256"},{"internalType":"uint256","name":"_fCRITICAL_UTIL_RATE","type":"uint256"},{"internalType":"uint256","name":"_fFIRST_ANNUAL_INTEREST_RATE","type":"uint256"},{"internalType":"uint256","name":"_fSECOND_ANNUAL_INTEREST_RATE","type":"uint256"}],"name":"getAnnualInterestRate","outputs":[{"internalType":"uint256","name":"fInterestRate","type":"uint256"}],"stateMutability":"pure","type":"function"},{"inputs":[{"internalType":"uint256","name":"_annualRate","type":"uint256"}],"name":"getEquivalentSecRate","outputs":[{"internalType":"uint256","name":"","type":"uint256"}],"stateMutability":"pure","type":"function"},{"inputs":[{"internalType":"int256","name":"_oldBalance","type":"int256"},{"internalType":"uint256","name":"_fRatePerSecond","type":"uint256"},{"internalType":"uint256","name":"_secondInterval","type":"uint256"}],"name":"getNewBalance","outputs":[{"internalType":"int256","name":"","type":"int256"}],"stateMutability":"pure","type":"function"}],"compiler":{"version":"0.8.11+commit.d7f03943","evm_version":"istanbul","optimizer":{"enabled":true,"runs":200}},"contractName":"PotamusUtils","language":"Solidity","natspec":{"methods":{},"kind":"dev","version":1},"opcodes":"PUSH20 0x0 ADDRESS EQ PUSH1 0x80 PUSH1 0x40 MSTORE PUSH1 0x4 CALLDATASIZE LT PUSH2 0x56 JUMPI PUSH1 0x0 CALLDATALOAD PUSH1 0xE0 SHR DUP1 PUSH4 0x8DDBF248 EQ PUSH2 0x5B JUMPI DUP1 PUSH4 0x98BE96AC EQ PUSH2 0x80 JUMPI DUP1 PUSH4 0xD7DAA116 EQ PUSH2 0x88 JUMPI DUP1 PUSH4 0xE24A9E6E EQ PUSH2 0xA9 JUMPI JUMPDEST PUSH1 0x0 DUP1 REVERT JUMPDEST PUSH2 0x6E PUSH2 0x69 CALLDATASIZE PUSH1 0x4 PUSH2 0x225D JUMP JUMPDEST PUSH2 0xBC JUMP JUMPDEST PUSH1 0x40 MLOAD SWAP1 DUP2 MSTORE PUSH1 0x20 ADD PUSH1 0x40 MLOAD DUP1 SWAP2 SUB SWAP1 RETURN JUMPDEST PUSH2 0x6E PUSH1 0x12 DUP2 JUMP JUMPDEST PUSH2 0x6E PUSH2 0x96 CALLDATASIZE PUSH1 0x4 PUSH2 0x2276 JUMP JUMPDEST PUSH9 0xAD78EBC5AC6200000 SWAP6 SWAP5 POP POP POP POP POP JUMP JUMPDEST PUSH2 0x6E PUSH2 0xB7 CALLDATASIZE PUSH1 0x4 PUSH2 0x22B1 JUMP JUMPDEST PUSH2 0x157 JUMP JUMPDEST PUSH1 0x0 PUSH2 0x151 PUSH2 0x14C PUSH2 0x138 PUSH2 0x129 PUSH2 0x124 PUSH2 0x117 PUSH2 0x112 PUSH2 0x103 PUSH2 0xDF DUP11 PUSH2 0x1B1 JUMP JUMPDEST PUSH2 0xFE PUSH2 0xEE PUSH1 0x12 PUSH1 0xA PUSH2 0x23D7 JUMP JUMPDEST PUSH2 0xF9 SWAP1 PUSH1 0x1 PUSH2 0x23E3 JUMP JUMPDEST PUSH2 0x1B1 JUMP JUMPDEST PUSH2 0x215 JUMP JUMPDEST PUSH2 0x10D PUSH1 0x1 PUSH2 0x1B1 JUMP JUMPDEST PUSH2 0x4CD JUMP JUMPDEST PUSH2 0x89D JUMP JUMPDEST PUSH2 0xFE PUSH4 0x1E13380 PUSH2 0x1B1 JUMP JUMPDEST PUSH2 0xA50 JUMP JUMPDEST PUSH2 0x133 PUSH1 0x1 PUSH2 0x1B1 JUMP JUMPDEST PUSH2 0x1DA3 JUMP JUMPDEST PUSH2 0x147 PUSH2 0xEE PUSH1 0x12 PUSH1 0xA PUSH2 0x23D7 JUMP JUMPDEST PUSH2 0x1DBC JUMP JUMPDEST PUSH2 0x2007 JUMP JUMPDEST SWAP3 SWAP2 POP POP JUMP JUMPDEST PUSH1 0x0 PUSH2 0x1A9 PUSH2 0x1A4 PUSH2 0x168 DUP7 PUSH2 0x208A JUMP JUMPDEST PUSH2 0x147 PUSH2 0x124 PUSH2 0x177 DUP8 PUSH2 0x1B1 JUMP JUMPDEST PUSH2 0x147 PUSH2 0x112 PUSH2 0x187 PUSH1 0x1 PUSH2 0x1B1 JUMP JUMPDEST PUSH2 0x10D PUSH2 0x193 DUP14 PUSH2 0x1B1 JUMP JUMPDEST PUSH2 0xFE PUSH8 0xDE0B6B3A7640000 PUSH2 0x1B1 JUMP JUMPDEST PUSH2 0x2118 JUMP JUMPDEST SWAP5 SWAP4 POP POP POP POP JUMP JUMPDEST PUSH1 0x0 DUP2 PUSH2 0x1C0 JUMPI POP PUSH1 0x0 SWAP2 SWAP1 POP JUMP JUMPDEST DUP2 PUSH1 0x0 PUSH2 0x1CC DUP3 PUSH2 0x21BF JUMP JUMPDEST SWAP1 POP PUSH1 0x70 DUP2 LT ISZERO PUSH2 0x1E5 JUMPI DUP1 PUSH1 0x70 SUB DUP3 SWAP1 SHL SWAP2 POP PUSH2 0x1F8 JUMP JUMPDEST PUSH1 0x70 DUP2 GT ISZERO PUSH2 0x1F8 JUMPI PUSH1 0x70 DUP2 SUB DUP3 SWAP1 SHR SWAP2 POP JUMPDEST PUSH2 0x3FFF ADD PUSH1 0x70 SHL PUSH1 0x1 PUSH1 0x1 PUSH1 0x70 SHL SUB SWAP2 SWAP1 SWAP2 AND OR PUSH1 0x80 SHL SWAP3 SWAP2 POP POP JUMP JUMPDEST PUSH1 0x0 PUSH2 0x7FFF PUSH1 0xF0 DUP5 DUP2 SHR DUP3 AND SWAP2 SWAP1 DUP5 SWAP1 SHR DUP2 AND SWAP1 DUP3 EQ ISZERO PUSH2 0x25B JUMPI DUP1 PUSH2 0x7FFF EQ ISZERO PUSH2 0x24A JUMPI POP PUSH2 0xFFFF PUSH1 0xEF SHL SWAP2 POP PUSH2 0x151 SWAP1 POP JUMP JUMPDEST POP POP POP PUSH1 0x1 PUSH1 0xFF SHL DUP2 AND DUP3 XOR PUSH2 0x151 JUMP JUMPDEST DUP1 PUSH2 0x7FFF EQ ISZERO PUSH2 0x29F JUMPI PUSH14 0xFFFFFFFFFFFFFFFFFFFFFFFFFFFF PUSH1 0x80 SHL DUP5 AND ISZERO PUSH2 0x28E JUMPI POP PUSH2 0xFFFF PUSH1 0xEF SHL SWAP2 POP PUSH2 0x151 SWAP1 POP JUMP JUMPDEST POP POP POP DUP1 DUP3 XOR PUSH1 0x1 PUSH1 0xFF SHL AND PUSH2 0x151 JUMP JUMPDEST PUSH1 0x1 PUSH1 0x80 SHL PUSH1 0x1 PUSH1 0xFF SHL SUB DUP5 AND PUSH2 0x2E9 JUMPI PUSH1 0x1 PUSH1 0x80 SHL PUSH1 0x1 PUSH1 0xFF SHL SUB DUP6 AND PUSH2 0x2D1 JUMPI POP PUSH2 0xFFFF PUSH1 0xEF SHL SWAP2 POP PUSH2 0x151 SWAP1 POP JUMP JUMPDEST POP POP POP DUP1 DUP3 XOR PUSH1 0x1 PUSH1 0xFF SHL AND PUSH2 0x7FFF PUSH1 0xF0 SHL OR PUSH2 0x151 JUMP JUMPDEST PUSH1 0x1 PUSH1 0x1 PUSH1 0x70 SHL SUB PUSH1 0x80 DUP6 SWAP1 SHR AND DUP2 PUSH2 0x305 JUMPI PUSH1 0x1 SWAP2 POP PUSH2 0x30C JUMP JUMPDEST PUSH1 0x1 PUSH1 0x70 SHL OR JUMPDEST PUSH1 0x1 PUSH1 0x1 PUSH1 0x70 SHL SUB PUSH1 0x80 DUP8 SWAP1 SHR AND DUP4 PUSH2 0x34B JUMPI DUP1 ISZERO PUSH2 0x346 JUMPI PUSH1 0x0 PUSH2 0x330 DUP3 PUSH2 0x21BF JUMP JUMPDEST PUSH1 0x1 SWAP6 POP PUSH1 0xE2 SUB SWAP4 DUP5 ADD PUSH1 0x71 NOT ADD SWAP4 SWAP2 SWAP1 SWAP2 SHL SWAP1 POP JUMPDEST PUSH2 0x355 JUMP JUMPDEST PUSH1 0x1 PUSH1 0x70 SHL OR PUSH1 0x72 SHL JUMPDEST DUP2 DUP2 DUP2 PUSH2 0x364 JUMPI PUSH2 0x364 PUSH2 0x2402 JUMP JUMPDEST DIV SWAP1 POP DUP1 PUSH2 0x391 JUMPI PUSH1 0x1 PUSH1 0xFF SHL DUP8 DUP8 XOR AND PUSH2 0x380 JUMPI PUSH1 0x0 PUSH2 0x386 JUMP JUMPDEST PUSH1 0x1 PUSH1 0xFF SHL JUMPDEST SWAP5 POP POP POP POP POP PUSH2 0x151 JUMP JUMPDEST PUSH1 0x1 PUSH1 0x6C SHL DUP2 LT ISZERO PUSH2 0x3A5 JUMPI PUSH2 0x3A5 PUSH2 0x2418 JUMP JUMPDEST PUSH1 0x0 PUSH1 0x1 PUSH1 0x73 SHL DUP3 LT ISZERO PUSH2 0x3E4 JUMPI PUSH1 0x1 PUSH1 0x72 SHL DUP3 LT ISZERO PUSH2 0x3D9 JUMPI PUSH1 0x1 PUSH1 0x71 SHL DUP3 LT ISZERO PUSH2 0x3D2 JUMPI PUSH1 0x70 PUSH2 0x3DC JUMP JUMPDEST PUSH1 0x71 PUSH2 0x3DC JUMP JUMPDEST PUSH1 0x72 JUMPDEST PUSH1 0xFF AND PUSH2 0x3ED JUMP JUMPDEST PUSH2 0x3ED DUP3 PUSH2 0x21BF JUMP JUMPDEST SWAP1 POP DUP4 PUSH2 0x4071 ADD DUP2 DUP7 ADD GT ISZERO PUSH2 0x40B JUMPI PUSH2 0x7FFF SWAP5 POP PUSH1 0x0 SWAP2 POP PUSH2 0x49E JUMP JUMPDEST DUP4 DUP2 DUP7 ADD PUSH2 0x3FFC ADD LT ISZERO PUSH2 0x426 JUMPI PUSH1 0x0 SWAP5 POP PUSH1 0x0 SWAP2 POP PUSH2 0x49E JUMP JUMPDEST DUP4 DUP2 DUP7 ADD PUSH2 0x3F8C ADD LT ISZERO PUSH2 0x473 JUMPI DUP4 DUP6 PUSH2 0x3FFC ADD GT ISZERO PUSH2 0x451 JUMPI DUP4 DUP6 PUSH2 0x3FFC ADD SUB DUP3 SWAP1 SHL SWAP2 POP PUSH2 0x46A JUMP JUMPDEST DUP4 DUP6 PUSH2 0x3FFC ADD LT ISZERO PUSH2 0x46A JUMPI PUSH2 0x3FFC DUP6 DUP6 SUB SUB DUP3 SWAP1 SHR SWAP2 POP JUMPDEST PUSH1 0x0 SWAP5 POP PUSH2 0x49E JUMP JUMPDEST PUSH1 0x70 DUP2 GT ISZERO PUSH2 0x486 JUMPI PUSH1 0x70 DUP2 SUB DUP3 SWAP1 SHR SWAP2 POP JUMPDEST PUSH1 0x1 PUSH1 0x1 PUSH1 0x70 SHL SUB DUP3 AND SWAP2 POP DUP4 DUP2 DUP7 ADD PUSH2 0x3F8D ADD SUB SWAP5 POP JUMPDEST DUP2 PUSH1 0x70 DUP7 SWAP1 SHL DUP9 DUP11 XOR PUSH1 0x1 PUSH1 0x7F SHL PUSH1 0x80 SHL AND PUSH1 0x80 SHR PUSH1 0x1 PUSH1 0x1 PUSH1 0x80 SHL SUB AND OR OR PUSH1 0x80 SHL SWAP6 POP POP POP POP POP POP PUSH2 0x151 JUMP JUMPDEST PUSH1 0x0 PUSH2 0x7FFF PUSH1 0xF0 DUP5 DUP2 SHR DUP3 AND SWAP2 SWAP1 DUP5 SWAP1 SHR DUP2 AND SWAP1 DUP3 EQ ISZERO PUSH2 0x52B JUMPI DUP1 PUSH2 0x7FFF EQ ISZERO PUSH2 0x521 JUMPI PUSH1 0x1 PUSH1 0x1 PUSH1 0x80 SHL SUB NOT DUP6 DUP2 AND SWAP1 DUP6 AND EQ ISZERO PUSH2 0x511 JUMPI DUP5 SWAP3 POP POP POP PUSH2 0x151 JUMP JUMPDEST POP PUSH2 0xFFFF PUSH1 0xEF SHL SWAP2 POP PUSH2 0x151 SWAP1 POP JUMP JUMPDEST DUP5 SWAP3 POP POP POP PUSH2 0x151 JUMP JUMPDEST DUP1 PUSH2 0x7FFF EQ ISZERO PUSH2 0x53F JUMPI DUP4 SWAP3 POP POP POP PUSH2 0x151 JUMP JUMPDEST PUSH1 0x1 PUSH1 0x7F SHL PUSH1 0x80 DUP7 SWAP1 SHR SWAP1 DUP2 LT ISZERO SWAP1 PUSH1 0x1 PUSH1 0x1 PUSH1 0x70 SHL SUB AND DUP4 PUSH2 0x565 JUMPI PUSH1 0x1 SWAP4 POP PUSH2 0x56C JUMP JUMPDEST PUSH1 0x1 PUSH1 0x70 SHL OR JUMPDEST PUSH1 0x1 PUSH1 0x7F SHL PUSH1 0x80 DUP8 SWAP1 SHR SWAP1 DUP2 LT ISZERO SWAP1 PUSH1 0x1 PUSH1 0x1 PUSH1 0x70 SHL SUB AND DUP5 PUSH2 0x592 JUMPI PUSH1 0x1 SWAP5 POP PUSH2 0x599 JUMP JUMPDEST PUSH1 0x1 PUSH1 0x70 SHL OR JUMPDEST DUP3 PUSH2 0x5C9 JUMPI PUSH1 0x1 PUSH1 0x1 PUSH1 0x80 SHL SUB NOT DUP9 AND PUSH1 0x1 PUSH1 0xFF SHL EQ PUSH2 0x5B9 JUMPI DUP8 PUSH2 0x5BC JUMP JUMPDEST PUSH1 0x0 JUMPDEST SWAP7 POP POP POP POP POP POP POP PUSH2 0x151 JUMP JUMPDEST DUP1 PUSH2 0x5E9 JUMPI PUSH1 0x1 PUSH1 0x1 PUSH1 0x80 SHL SUB NOT DUP10 AND PUSH1 0x1 PUSH1 0xFF SHL EQ PUSH2 0x5B9 JUMPI DUP9 PUSH2 0x5BC JUMP JUMPDEST DUP5 DUP7 SUB DUP5 ISZERO ISZERO DUP4 ISZERO ISZERO EQ ISZERO PUSH2 0x6F4 JUMPI PUSH1 0x70 DUP2 SGT ISZERO PUSH2 0x610 JUMPI DUP10 SWAP8 POP POP POP POP POP POP POP POP PUSH2 0x151 JUMP JUMPDEST PUSH1 0x0 DUP2 SGT ISZERO PUSH2 0x622 JUMPI SWAP1 DUP2 SHR SWAP1 PUSH2 0x651 JUMP JUMPDEST PUSH1 0x6F NOT DUP2 SLT ISZERO PUSH2 0x63B JUMPI DUP9 SWAP8 POP POP POP POP POP POP POP POP PUSH2 0x151 JUMP JUMPDEST PUSH1 0x0 DUP2 SLT ISZERO PUSH2 0x651 JUMPI DUP1 PUSH1 0x0 SUB DUP5 SWAP1 SHR SWAP4 POP DUP6 SWAP7 POP JUMPDEST SWAP3 DUP2 ADD SWAP3 PUSH1 0x1 PUSH1 0x71 SHL DUP5 LT PUSH2 0x66C JUMPI PUSH1 0x1 SWAP7 DUP8 ADD SWAP7 SWAP4 SWAP1 SWAP4 SHR SWAP3 JUMPDEST DUP7 PUSH2 0x7FFF EQ ISZERO PUSH2 0x69E JUMPI DUP5 PUSH2 0x686 JUMPI PUSH2 0x7FFF PUSH1 0xF0 SHL PUSH2 0x690 JUMP JUMPDEST PUSH1 0x1 PUSH1 0x1 PUSH1 0xF0 SHL SUB NOT JUMPDEST SWAP8 POP POP POP POP POP POP POP POP PUSH2 0x151 JUMP JUMPDEST PUSH1 0x1 PUSH1 0x70 SHL DUP5 LT ISZERO PUSH2 0x6B3 JUMPI PUSH1 0x0 SWAP7 POP PUSH2 0x6C0 JUMP JUMPDEST PUSH1 0x1 PUSH1 0x1 PUSH1 0x70 SHL SUB DUP5 AND SWAP4 POP JUMPDEST DUP4 PUSH1 0x70 DUP9 SWAP1 SHL DUP7 PUSH2 0x6D2 JUMPI PUSH1 0x0 PUSH2 0x6D8 JUMP JUMPDEST PUSH1 0x1 PUSH1 0x7F SHL JUMPDEST PUSH1 0x1 PUSH1 0x1 PUSH1 0x80 SHL SUB AND OR OR PUSH1 0x80 SHL SWAP8 POP POP POP POP POP POP POP POP PUSH2 0x151 JUMP JUMPDEST PUSH1 0x0 DUP2 SGT ISZERO PUSH2 0x70F JUMPI PUSH1 0x1 DUP5 SWAP1 SHL SWAP4 POP PUSH1 0x1 DUP8 SUB SWAP7 POP PUSH2 0x726 JUMP JUMPDEST PUSH1 0x0 DUP2 SLT ISZERO PUSH2 0x726 JUMPI PUSH1 0x1 DUP3 SWAP1 SHL SWAP2 POP PUSH1 0x1 DUP7 SUB SWAP7 POP JUMPDEST PUSH1 0x70 DUP2 SGT ISZERO PUSH2 0x738 JUMPI PUSH1 0x1 SWAP2 POP PUSH2 0x785 JUMP JUMPDEST PUSH1 0x1 DUP2 SGT ISZERO PUSH2 0x755 JUMPI PUSH1 0x1 DUP2 SUB PUSH1 0x1 DUP4 SUB SWAP1 SHR PUSH1 0x1 ADD SWAP2 POP PUSH2 0x785 JUMP JUMPDEST PUSH1 0x6F NOT DUP2 SLT ISZERO PUSH2 0x768 JUMPI PUSH1 0x1 SWAP4 POP PUSH2 0x785 JUMP JUMPDEST PUSH1 0x0 NOT DUP2 SLT ISZERO PUSH2 0x785 JUMPI PUSH1 0x1 DUP2 PUSH1 0x0 SUB SUB PUSH1 0x1 DUP6 SUB SWAP1 SHR PUSH1 0x1 ADD SWAP4 POP JUMPDEST DUP2 DUP5 LT PUSH2 0x796 JUMPI DUP2 DUP5 SUB SWAP4 POP PUSH2 0x79F JUMP JUMPDEST DUP4 DUP3 SUB SWAP4 POP DUP3 SWAP5 POP JUMPDEST DUP4 PUSH2 0x7B5 JUMPI POP PUSH1 0x0 SWAP7 POP PUSH2 0x151 SWAP6 POP POP POP POP POP POP JUMP JUMPDEST PUSH1 0x0 PUSH2 0x7C0 DUP6 PUSH2 0x21BF JUMP JUMPDEST SWAP1 POP DUP1 PUSH1 0x71 EQ ISZERO PUSH2 0x7E6 JUMPI PUSH1 0x1 DUP6 SWAP1 SHR PUSH1 0x1 PUSH1 0x1 PUSH1 0x70 SHL SUB AND SWAP5 POP PUSH1 0x1 DUP9 ADD SWAP8 POP PUSH2 0x835 JUMP JUMPDEST PUSH1 0x70 DUP2 LT ISZERO PUSH2 0x828 JUMPI PUSH1 0x70 DUP2 SWAP1 SUB DUP1 DUP10 GT ISZERO PUSH2 0x815 JUMPI DUP1 DUP7 SWAP1 SHL PUSH1 0x1 PUSH1 0x1 PUSH1 0x70 SHL SUB AND SWAP6 POP DUP1 DUP10 SUB SWAP9 POP PUSH2 0x822 JUMP JUMPDEST PUSH1 0x0 SWAP9 PUSH1 0x0 NOT ADD SWAP6 SWAP1 SWAP6 SHL SWAP5 JUMPDEST POP PUSH2 0x835 JUMP JUMPDEST PUSH1 0x1 PUSH1 0x1 PUSH1 0x70 SHL SUB DUP6 AND SWAP5 POP JUMPDEST DUP8 PUSH2 0x7FFF EQ ISZERO PUSH2 0x868 JUMPI DUP6 PUSH2 0x84F JUMPI PUSH2 0x7FFF PUSH1 0xF0 SHL PUSH2 0x859 JUMP JUMPDEST PUSH1 0x1 PUSH1 0x1 PUSH1 0xF0 SHL SUB NOT JUMPDEST SWAP9 POP POP POP POP POP POP POP POP POP PUSH2 0x151 JUMP JUMPDEST DUP5 PUSH1 0x70 DUP10 SWAP1 SHL DUP8 PUSH2 0x87A JUMPI PUSH1 0x0 PUSH2 0x880 JUMP JUMPDEST PUSH1 0x1 PUSH1 0x7F SHL JUMPDEST PUSH1 0x1 PUSH1 0x1 PUSH1 0x80 SHL SUB AND OR OR PUSH1 0x80 SHL SWAP9 POP POP POP POP POP POP POP POP POP PUSH2 0x151 JUMP JUMPDEST PUSH1 0x0 PUSH1 0x1 PUSH1 0x7F SHL PUSH1 0x80 DUP4 SWAP1 SHR GT ISZERO PUSH2 0x8BB JUMPI POP PUSH2 0xFFFF PUSH1 0xEF SHL SWAP2 SWAP1 POP JUMP JUMPDEST PUSH2 0x3FFF PUSH1 0xF0 SHL PUSH1 0x1 PUSH1 0x1 PUSH1 0x80 SHL SUB NOT DUP4 AND EQ ISZERO PUSH2 0x8DA JUMPI POP PUSH1 0x0 SWAP2 SWAP1 POP JUMP JUMPDEST PUSH2 0x7FFF PUSH1 0xF0 DUP4 SWAP1 SHR DUP2 AND SWAP1 DUP2 EQ ISZERO PUSH2 0x8F3 JUMPI POP SWAP1 SWAP2 SWAP1 POP JUMP JUMPDEST PUSH1 0x1 PUSH1 0x1 PUSH1 0x70 SHL SUB PUSH1 0x80 DUP5 SWAP1 SHR AND DUP2 PUSH2 0x90F JUMPI PUSH1 0x1 SWAP2 POP PUSH2 0x916 JUMP JUMPDEST PUSH1 0x1 PUSH1 0x70 SHL OR JUMPDEST DUP1 PUSH2 0x92C JUMPI POP PUSH1 0x1 PUSH1 0x1 PUSH1 0xF0 SHL SUB NOT SWAP4 SWAP3 POP POP POP JUMP JUMPDEST PUSH1 0x0 PUSH2 0x406F DUP2 PUSH2 0x3FFF DUP6 LT PUSH2 0x952 JUMPI POP PUSH1 0xF SWAP3 SWAP1 SWAP3 SHL SWAP2 PUSH1 0x0 SWAP2 POP PUSH2 0x3FFE NOT DUP5 ADD PUSH2 0x991 JUMP JUMPDEST PUSH1 0x1 SWAP3 POP PUSH1 0x1 PUSH1 0x70 SHL DUP5 LT PUSH2 0x974 JUMPI DUP5 PUSH2 0x3FFE SUB SWAP1 POP PUSH1 0xF DUP5 SWAP1 SHL SWAP4 POP PUSH2 0x991 JUMP JUMPDEST PUSH1 0x0 PUSH2 0x97F DUP6 PUSH2 0x21BF JUMP JUMPDEST PUSH1 0x7F DUP2 SWAP1 SUB SWAP6 SWAP1 SWAP6 SHL SWAP5 PUSH2 0x406D SUB SWAP2 POP POP JUMPDEST DUP4 PUSH1 0x1 PUSH1 0x7F SHL EQ ISZERO PUSH2 0x9C8 JUMPI DUP3 ISZERO PUSH2 0x9A7 JUMPI PUSH1 0x1 ADD JUMPDEST PUSH1 0x0 PUSH2 0x9B2 DUP3 PUSH2 0x21BF JUMP JUMPDEST PUSH1 0x70 SUB SWAP1 POP DUP1 DUP3 SWAP1 SHL SWAP2 POP DUP1 DUP4 SUB SWAP3 POP POP PUSH2 0xA16 JUMP JUMPDEST PUSH1 0x0 DUP4 PUSH2 0x9D6 JUMPI PUSH1 0x0 PUSH2 0x9D9 JUMP JUMPDEST PUSH1 0x1 JUMPDEST PUSH1 0xFF AND SWAP1 POP JUMPDEST PUSH1 0x1 PUSH1 0x70 SHL DUP3 LT ISZERO PUSH2 0xA14 JUMPI SWAP4 DUP1 MUL PUSH1 0xFF DUP2 SWAP1 SHR PUSH1 0x7F DUP2 ADD SWAP2 SWAP1 SWAP2 SHR SWAP5 PUSH1 0x0 NOT SWAP4 SWAP1 SWAP4 ADD SWAP3 PUSH1 0x1 SWAP3 SWAP1 SWAP3 SHL SWAP1 DUP3 XOR ADD SWAP1 PUSH2 0x9DF JUMP JUMPDEST POP JUMPDEST DUP1 PUSH1 0x1 PUSH1 0x1 PUSH1 0x70 SHL SUB AND PUSH1 0x70 DUP4 SWAP1 SHL DUP5 PUSH2 0xA31 JUMPI PUSH1 0x0 PUSH2 0xA37 JUMP JUMPDEST PUSH1 0x1 PUSH1 0x7F SHL JUMPDEST PUSH1 0x1 PUSH1 0x1 PUSH1 0x80 SHL SUB AND OR OR PUSH1 0x80 SHL SWAP8 SWAP7 POP POP POP POP POP POP POP JUMP JUMPDEST PUSH1 0x0 PUSH1 0x1 PUSH1 0x7F SHL PUSH1 0x80 DUP4 SWAP1 SHR SWAP1 DUP2 GT SWAP1 PUSH2 0x7FFF PUSH1 0xF0 DUP6 SWAP1 SHR DUP2 AND SWAP2 PUSH1 0x1 PUSH1 0x1 PUSH1 0x70 SHL SUB AND SWAP1 DUP3 EQ DUP1 ISZERO PUSH2 0xA82 JUMPI POP DUP1 ISZERO ISZERO JUMPDEST ISZERO PUSH2 0xA96 JUMPI POP PUSH2 0xFFFF PUSH1 0xEF SHL SWAP5 SWAP4 POP POP POP POP JUMP JUMPDEST PUSH2 0x400D DUP3 GT ISZERO PUSH2 0xABC JUMPI DUP3 PUSH2 0xAB0 JUMPI PUSH2 0x7FFF PUSH1 0xF0 SHL PUSH2 0xAB3 JUMP JUMPDEST PUSH1 0x0 JUMPDEST SWAP6 SWAP5 POP POP POP POP POP JUMP JUMPDEST PUSH2 0x3F7F DUP3 LT ISZERO PUSH2 0xAD5 JUMPI POP PUSH2 0x3FFF PUSH1 0xF0 SHL SWAP5 SWAP4 POP POP POP POP JUMP JUMPDEST DUP2 PUSH2 0xAE3 JUMPI PUSH1 0x1 SWAP2 POP PUSH2 0xAEA JUMP JUMPDEST PUSH1 0x1 PUSH1 0x70 SHL OR JUMPDEST PUSH2 0x3FEF DUP3 GT ISZERO PUSH2 0xB00 JUMPI PUSH2 0x3FEE NOT DUP3 ADD SHL PUSH2 0xB12 JUMP JUMPDEST PUSH2 0x3FEF DUP3 LT ISZERO PUSH2 0xB12 JUMPI PUSH2 0x3FEF DUP3 SWAP1 SUB SHR JUMPDEST DUP3 DUP1 ISZERO PUSH2 0xB23 JUMPI POP PUSH2 0x2037 PUSH1 0x81 SHL DUP2 GT JUMPDEST ISZERO PUSH2 0xB33 JUMPI POP PUSH1 0x0 SWAP5 SWAP4 POP POP POP POP JUMP JUMPDEST DUP3 ISZERO DUP1 ISZERO PUSH2 0xB52 JUMPI POP PUSH18 0x3FFFFFFFFFFFFFFFFFFFFFFFFFFFFFFFFFFF DUP2 GT JUMPDEST ISZERO PUSH2 0xB66 JUMPI POP PUSH2 0x7FFF PUSH1 0xF0 SHL SWAP5 SWAP4 POP POP POP POP JUMP JUMPDEST PUSH1 0x1 PUSH1 0x1 PUSH1 0x80 SHL SUB DUP2 AND SWAP1 PUSH1 0x80 SHR DUP4 DUP1 ISZERO PUSH2 0xB80 JUMPI POP DUP2 ISZERO ISZERO JUMPDEST ISZERO PUSH2 0xB8C JUMPI SWAP1 NOT SWAP1 PUSH1 0x1 ADD JUMPDEST PUSH1 0x1 PUSH1 0x7F SHL DUP3 DUP2 AND ISZERO PUSH2 0xBB0 JUMPI PUSH17 0x16A09E667F3BCC908B2FB1366EA957D3E MUL PUSH1 0x80 SHR JUMPDEST PUSH1 0x1 PUSH1 0x7E SHL DUP4 AND ISZERO PUSH2 0xBD3 JUMPI PUSH17 0x1306FE0A31B7152DE8D5A46305C85EDEC MUL PUSH1 0x80 SHR JUMPDEST PUSH1 0x1 PUSH1 0x7D SHL DUP4 AND ISZERO PUSH2 0xBF6 JUMPI PUSH17 0x1172B83C7D517ADCDF7C8C50EB14A791F MUL PUSH1 0x80 SHR JUMPDEST PUSH1 0x1 PUSH1 0x7C SHL DUP4 AND ISZERO PUSH2 0xC19 JUMPI PUSH17 0x10B5586CF9890F6298B92B71842A98363 MUL PUSH1 0x80 SHR JUMPDEST PUSH1 0x1 PUSH1 0x7B SHL DUP4 AND ISZERO PUSH2 0xC3C JUMPI PUSH17 0x1059B0D31585743AE7C548EB68CA417FD MUL PUSH1 0x80 SHR JUMPDEST PUSH1 0x1 PUSH1 0x7A SHL DUP4 AND ISZERO PUSH2 0xC5F JUMPI PUSH17 0x102C9A3E778060EE6F7CACA4F7A29BDE8 MUL PUSH1 0x80 SHR JUMPDEST PUSH1 0x1 PUSH1 0x79 SHL DUP4 AND ISZERO PUSH2 0xC82 JUMPI PUSH17 0x10163DA9FB33356D84A66AE336DCDFA3F MUL PUSH1 0x80 SHR JUMPDEST PUSH1 0x1 PUSH1 0x78 SHL DUP4 AND ISZERO PUSH2 0xCA5 JUMPI PUSH17 0x100B1AFA5ABCBED6129AB13EC11DC9543 MUL PUSH1 0x80 SHR JUMPDEST PUSH1 0x1 PUSH1 0x77 SHL DUP4 AND ISZERO PUSH2 0xCC8 JUMPI PUSH17 0x10058C86DA1C09EA1FF19D294CF2F679B MUL PUSH1 0x80 SHR JUMPDEST PUSH1 0x1 PUSH1 0x76 SHL DUP4 AND ISZERO PUSH2 0xCEB JUMPI PUSH17 0x1002C605E2E8CEC506D21BFC89A23A00F MUL PUSH1 0x80 SHR JUMPDEST PUSH1 0x1 PUSH1 0x75 SHL DUP4 AND ISZERO PUSH2 0xD0E JUMPI PUSH17 0x100162F3904051FA128BCA9C55C31E5DF MUL PUSH1 0x80 SHR JUMPDEST PUSH1 0x1 PUSH1 0x74 SHL DUP4 AND ISZERO PUSH2 0xD31 JUMPI PUSH17 0x1000B175EFFDC76BA38E31671CA939725 MUL PUSH1 0x80 SHR JUMPDEST PUSH1 0x1 PUSH1 0x73 SHL DUP4 AND ISZERO PUSH2 0xD54 JUMPI PUSH17 0x100058BA01FB9F96D6CACD4B180917C3D MUL PUSH1 0x80 SHR JUMPDEST PUSH1 0x1 PUSH1 0x72 SHL DUP4 AND ISZERO PUSH2 0xD77 JUMPI PUSH17 0x10002C5CC37DA9491D0985C348C68E7B3 MUL PUSH1 0x80 SHR JUMPDEST PUSH1 0x1 PUSH1 0x71 SHL DUP4 AND ISZERO PUSH2 0xD9A JUMPI PUSH17 0x1000162E525EE054754457D5995292026 MUL PUSH1 0x80 SHR JUMPDEST PUSH1 0x1 PUSH1 0x70 SHL DUP4 AND ISZERO PUSH2 0xDBD JUMPI PUSH17 0x10000B17255775C040618BF4A4ADE83FC MUL PUSH1 0x80 SHR JUMPDEST PUSH1 0x1 PUSH1 0x6F SHL DUP4 AND ISZERO PUSH2 0xDE0 JUMPI PUSH17 0x1000058B91B5BC9AE2EED81E9B7D4CFAB MUL PUSH1 0x80 SHR JUMPDEST PUSH1 0x1 PUSH1 0x6E SHL DUP4 AND ISZERO PUSH2 0xE03 JUMPI PUSH17 0x100002C5C89D5EC6CA4D7C8ACC017B7C9 MUL PUSH1 0x80 SHR JUMPDEST PUSH1 0x1 PUSH1 0x6D SHL DUP4 AND ISZERO PUSH2 0xE26 JUMPI PUSH17 0x10000162E43F4F831060E02D839A9D16D MUL PUSH1 0x80 SHR JUMPDEST PUSH1 0x1 PUSH1 0x6C SHL DUP4 AND ISZERO PUSH2 0xE49 JUMPI PUSH17 0x100000B1721BCFC99D9F890EA06911763 MUL PUSH1 0x80 SHR JUMPDEST PUSH1 0x1 PUSH1 0x6B SHL DUP4 AND ISZERO PUSH2 0xE6C JUMPI PUSH17 0x10000058B90CF1E6D97F9CA14DBCC1628 MUL PUSH1 0x80 SHR JUMPDEST PUSH1 0x1 PUSH1 0x6A SHL DUP4 AND ISZERO PUSH2 0xE8F JUMPI PUSH17 0x1000002C5C863B73F016468F6BAC5CA2B MUL PUSH1 0x80 SHR JUMPDEST PUSH1 0x1 PUSH1 0x69 SHL DUP4 AND ISZERO PUSH2 0xEB2 JUMPI PUSH17 0x100000162E430E5A18F6119E3C02282A5 MUL PUSH1 0x80 SHR JUMPDEST PUSH1 0x1 PUSH1 0x68 SHL DUP4 AND ISZERO PUSH2 0xED5 JUMPI PUSH17 0x1000000B1721835514B86E6D96EFD1BFE MUL PUSH1 0x80 SHR JUMPDEST PUSH1 0x1 PUSH1 0x67 SHL DUP4 AND ISZERO PUSH2 0xEF8 JUMPI PUSH17 0x100000058B90C0B48C6BE5DF846C5B2EF MUL PUSH1 0x80 SHR JUMPDEST PUSH1 0x1 PUSH1 0x66 SHL DUP4 AND ISZERO PUSH2 0xF1B JUMPI PUSH17 0x10000002C5C8601CC6B9E94213C72737A MUL PUSH1 0x80 SHR JUMPDEST PUSH1 0x1 PUSH1 0x65 SHL DUP4 AND ISZERO PUSH2 0xF3E JUMPI PUSH17 0x1000000162E42FFF037DF38AA2B219F06 MUL PUSH1 0x80 SHR JUMPDEST PUSH1 0x1 PUSH1 0x64 SHL DUP4 AND ISZERO PUSH2 0xF61 JUMPI PUSH17 0x10000000B17217FBA9C739AA5819F44F9 MUL PUSH1 0x80 SHR JUMPDEST PUSH1 0x1 PUSH1 0x63 SHL DUP4 AND ISZERO PUSH2 0xF84 JUMPI PUSH17 0x1000000058B90BFCDEE5ACD3C1CEDC823 MUL PUSH1 0x80 SHR JUMPDEST PUSH1 0x1 PUSH1 0x62 SHL DUP4 AND ISZERO PUSH2 0xFA7 JUMPI PUSH17 0x100000002C5C85FE31F35A6A30DA1BE50 MUL PUSH1 0x80 SHR JUMPDEST PUSH1 0x1 PUSH1 0x61 SHL DUP4 AND ISZERO PUSH2 0xFCA JUMPI PUSH17 0x10000000162E42FF0999CE3541B9FFFCF MUL PUSH1 0x80 SHR JUMPDEST PUSH1 0x1 PUSH1 0x60 SHL DUP4 AND ISZERO PUSH2 0xFED JUMPI PUSH17 0x100000000B17217F80F4EF5AADDA45554 MUL PUSH1 0x80 SHR JUMPDEST PUSH1 0x1 PUSH1 0x5F SHL DUP4 AND ISZERO PUSH2 0x1010 JUMPI PUSH17 0x10000000058B90BFBF8479BD5A81B51AD MUL PUSH1 0x80 SHR JUMPDEST PUSH1 0x1 PUSH1 0x5E SHL DUP4 AND ISZERO PUSH2 0x1033 JUMPI PUSH17 0x1000000002C5C85FDF84BD62AE30A74CC MUL PUSH1 0x80 SHR JUMPDEST PUSH1 0x1 PUSH1 0x5D SHL DUP4 AND ISZERO PUSH2 0x1056 JUMPI PUSH17 0x100000000162E42FEFB2FED257559BDAA MUL PUSH1 0x80 SHR JUMPDEST PUSH1 0x1 PUSH1 0x5C SHL DUP4 AND ISZERO PUSH2 0x1079 JUMPI PUSH17 0x1000000000B17217F7D5A7716BBA4A9AE MUL PUSH1 0x80 SHR JUMPDEST PUSH1 0x1 PUSH1 0x5B SHL DUP4 AND ISZERO PUSH2 0x109C JUMPI PUSH17 0x100000000058B90BFBE9DDBAC5E109CCE MUL PUSH1 0x80 SHR JUMPDEST PUSH1 0x1 PUSH1 0x5A SHL DUP4 AND ISZERO PUSH2 0x10BF JUMPI PUSH17 0x10000000002C5C85FDF4B15DE6F17EB0D MUL PUSH1 0x80 SHR JUMPDEST PUSH1 0x1 PUSH1 0x59 SHL DUP4 AND ISZERO PUSH2 0x10E2 JUMPI PUSH17 0x1000000000162E42FEFA494F1478FDE05 MUL PUSH1 0x80 SHR JUMPDEST PUSH1 0x1 PUSH1 0x58 SHL DUP4 AND ISZERO PUSH2 0x1105 JUMPI PUSH17 0x10000000000B17217F7D20CF927C8E94C MUL PUSH1 0x80 SHR JUMPDEST PUSH1 0x1 PUSH1 0x57 SHL DUP4 AND ISZERO PUSH2 0x1128 JUMPI PUSH17 0x1000000000058B90BFBE8F71CB4E4B33D MUL PUSH1 0x80 SHR JUMPDEST PUSH1 0x1 PUSH1 0x56 SHL DUP4 AND ISZERO PUSH2 0x114B JUMPI PUSH17 0x100000000002C5C85FDF477B662B26945 MUL PUSH1 0x80 SHR JUMPDEST PUSH1 0x1 PUSH1 0x55 SHL DUP4 AND ISZERO PUSH2 0x116E JUMPI PUSH17 0x10000000000162E42FEFA3AE53369388C MUL PUSH1 0x80 SHR JUMPDEST PUSH1 0x1 PUSH1 0x54 SHL DUP4 AND ISZERO PUSH2 0x1191 JUMPI PUSH17 0x100000000000B17217F7D1D351A389D40 MUL PUSH1 0x80 SHR JUMPDEST PUSH1 0x1 PUSH1 0x53 SHL DUP4 AND ISZERO PUSH2 0x11B4 JUMPI PUSH17 0x10000000000058B90BFBE8E8B2D3D4EDE MUL PUSH1 0x80 SHR JUMPDEST PUSH1 0x1 PUSH1 0x52 SHL DUP4 AND ISZERO PUSH2 0x11D7 JUMPI PUSH17 0x1000000000002C5C85FDF4741BEA6E77E MUL PUSH1 0x80 SHR JUMPDEST PUSH1 0x1 PUSH1 0x51 SHL DUP4 AND ISZERO PUSH2 0x11FA JUMPI PUSH17 0x100000000000162E42FEFA39FE95583C2 MUL PUSH1 0x80 SHR JUMPDEST PUSH1 0x1 PUSH1 0x50 SHL DUP4 AND ISZERO PUSH2 0x121D JUMPI PUSH17 0x1000000000000B17217F7D1CFB72B45E1 MUL PUSH1 0x80 SHR JUMPDEST PUSH10 0x80000000000000000000 DUP4 AND ISZERO PUSH2 0x1246 JUMPI PUSH17 0x100000000000058B90BFBE8E7CC35C3F0 MUL PUSH1 0x80 SHR JUMPDEST PUSH10 0x40000000000000000000 DUP4 AND ISZERO PUSH2 0x126F JUMPI PUSH17 0x10000000000002C5C85FDF473E242EA38 MUL PUSH1 0x80 SHR JUMPDEST PUSH10 0x20000000000000000000 DUP4 AND ISZERO PUSH2 0x1298 JUMPI PUSH17 0x1000000000000162E42FEFA39F02B772C MUL PUSH1 0x80 SHR JUMPDEST PUSH10 0x10000000000000000000 DUP4 AND ISZERO PUSH2 0x12C1 JUMPI PUSH17 0x10000000000000B17217F7D1CF7D83C1A MUL PUSH1 0x80 SHR JUMPDEST PUSH10 0x8000000000000000000 DUP4 AND ISZERO PUSH2 0x12EA JUMPI PUSH17 0x1000000000000058B90BFBE8E7BDCBE2E MUL PUSH1 0x80 SHR JUMPDEST PUSH10 0x4000000000000000000 DUP4 AND ISZERO PUSH2 0x1313 JUMPI PUSH17 0x100000000000002C5C85FDF473DEA871F MUL PUSH1 0x80 SHR JUMPDEST PUSH10 0x2000000000000000000 DUP4 AND ISZERO PUSH2 0x133C JUMPI PUSH17 0x10000000000000162E42FEFA39EF44D91 MUL PUSH1 0x80 SHR JUMPDEST PUSH10 0x1000000000000000000 DUP4 AND ISZERO PUSH2 0x1365 JUMPI PUSH17 0x100000000000000B17217F7D1CF79E949 MUL PUSH1 0x80 SHR JUMPDEST PUSH9 0x800000000000000000 DUP4 AND ISZERO PUSH2 0x138D JUMPI PUSH17 0x10000000000000058B90BFBE8E7BCE544 MUL PUSH1 0x80 SHR JUMPDEST PUSH9 0x400000000000000000 DUP4 AND ISZERO PUSH2 0x13B5 JUMPI PUSH17 0x1000000000000002C5C85FDF473DE6ECA MUL PUSH1 0x80 SHR JUMPDEST PUSH9 0x200000000000000000 DUP4 AND ISZERO PUSH2 0x13DD JUMPI PUSH17 0x100000000000000162E42FEFA39EF366F MUL PUSH1 0x80 SHR JUMPDEST PUSH9 0x100000000000000000 DUP4 AND ISZERO PUSH2 0x1405 JUMPI PUSH17 0x1000000000000000B17217F7D1CF79AFA MUL PUSH1 0x80 SHR JUMPDEST PUSH9 0x80000000000000000 DUP4 AND ISZERO PUSH2 0x142D JUMPI PUSH17 0x100000000000000058B90BFBE8E7BCD6D MUL PUSH1 0x80 SHR JUMPDEST PUSH9 0x40000000000000000 DUP4 AND ISZERO PUSH2 0x1455 JUMPI PUSH17 0x10000000000000002C5C85FDF473DE6B2 MUL PUSH1 0x80 SHR JUMPDEST PUSH9 0x20000000000000000 DUP4 AND ISZERO PUSH2 0x147D JUMPI PUSH17 0x1000000000000000162E42FEFA39EF358 MUL PUSH1 0x80 SHR JUMPDEST PUSH1 0x1 PUSH1 0x40 SHL DUP4 AND ISZERO PUSH2 0x14A0 JUMPI PUSH17 0x10000000000000000B17217F7D1CF79AB MUL PUSH1 0x80 SHR JUMPDEST PUSH8 0x8000000000000000 DUP4 AND ISZERO PUSH2 0x14C7 JUMPI PUSH17 0x1000000000000000058B90BFBE8E7BCD5 MUL PUSH1 0x80 SHR JUMPDEST PUSH8 0x4000000000000000 DUP4 AND ISZERO PUSH2 0x14EE JUMPI PUSH17 0x100000000000000002C5C85FDF473DE6A MUL PUSH1 0x80 SHR JUMPDEST PUSH8 0x2000000000000000 DUP4 AND ISZERO PUSH2 0x1515 JUMPI PUSH17 0x10000000000000000162E42FEFA39EF34 MUL PUSH1 0x80 SHR JUMPDEST PUSH8 0x1000000000000000 DUP4 AND ISZERO PUSH2 0x153C JUMPI PUSH17 0x100000000000000000B17217F7D1CF799 MUL PUSH1 0x80 SHR JUMPDEST PUSH8 0x800000000000000 DUP4 AND ISZERO PUSH2 0x1563 JUMPI PUSH17 0x10000000000000000058B90BFBE8E7BCC MUL PUSH1 0x80 SHR JUMPDEST PUSH8 0x400000000000000 DUP4 AND ISZERO PUSH2 0x158A JUMPI PUSH17 0x1000000000000000002C5C85FDF473DE5 MUL PUSH1 0x80 SHR JUMPDEST PUSH8 0x200000000000000 DUP4 AND ISZERO PUSH2 0x15B1 JUMPI PUSH17 0x100000000000000000162E42FEFA39EF2 MUL PUSH1 0x80 SHR JUMPDEST PUSH8 0x100000000000000 DUP4 AND ISZERO PUSH2 0x15D8 JUMPI PUSH17 0x1000000000000000000B17217F7D1CF78 MUL PUSH1 0x80 SHR JUMPDEST PUSH7 0x80000000000000 DUP4 AND ISZERO PUSH2 0x15FE JUMPI PUSH17 0x100000000000000000058B90BFBE8E7BB MUL PUSH1 0x80 SHR JUMPDEST PUSH7 0x40000000000000 DUP4 AND ISZERO PUSH2 0x1624 JUMPI PUSH17 0x10000000000000000002C5C85FDF473DD MUL PUSH1 0x80 SHR JUMPDEST PUSH7 0x20000000000000 DUP4 AND ISZERO PUSH2 0x164A JUMPI PUSH17 0x1000000000000000000162E42FEFA39EE MUL PUSH1 0x80 SHR JUMPDEST PUSH7 0x10000000000000 DUP4 AND ISZERO PUSH2 0x1670 JUMPI PUSH17 0x10000000000000000000B17217F7D1CF6 MUL PUSH1 0x80 SHR JUMPDEST PUSH7 0x8000000000000 DUP4 AND ISZERO PUSH2 0x1696 JUMPI PUSH17 0x1000000000000000000058B90BFBE8E7A MUL PUSH1 0x80 SHR JUMPDEST PUSH7 0x4000000000000 DUP4 AND ISZERO PUSH2 0x16BC JUMPI PUSH17 0x100000000000000000002C5C85FDF473C MUL PUSH1 0x80 SHR JUMPDEST PUSH7 0x2000000000000 DUP4 AND ISZERO PUSH2 0x16E2 JUMPI PUSH17 0x10000000000000000000162E42FEFA39D MUL PUSH1 0x80 SHR JUMPDEST PUSH7 0x1000000000000 DUP4 AND ISZERO PUSH2 0x1708 JUMPI PUSH17 0x100000000000000000000B17217F7D1CE MUL PUSH1 0x80 SHR JUMPDEST PUSH6 0x800000000000 DUP4 AND ISZERO PUSH2 0x172D JUMPI PUSH17 0x10000000000000000000058B90BFBE8E6 MUL PUSH1 0x80 SHR JUMPDEST PUSH6 0x400000000000 DUP4 AND ISZERO PUSH2 0x1752 JUMPI PUSH17 0x1000000000000000000002C5C85FDF472 MUL PUSH1 0x80 SHR JUMPDEST PUSH6 0x200000000000 DUP4 AND ISZERO PUSH2 0x1777 JUMPI PUSH17 0x100000000000000000000162E42FEFA38 MUL PUSH1 0x80 SHR JUMPDEST PUSH6 0x100000000000 DUP4 AND ISZERO PUSH2 0x179C JUMPI PUSH17 0x1000000000000000000000B17217F7D1B MUL PUSH1 0x80 SHR JUMPDEST PUSH6 0x80000000000 DUP4 AND ISZERO PUSH2 0x17C1 JUMPI PUSH17 0x100000000000000000000058B90BFBE8D MUL PUSH1 0x80 SHR JUMPDEST PUSH6 0x40000000000 DUP4 AND ISZERO PUSH2 0x17E6 JUMPI PUSH17 0x10000000000000000000002C5C85FDF46 MUL PUSH1 0x80 SHR JUMPDEST PUSH6 0x20000000000 DUP4 AND ISZERO PUSH2 0x180B JUMPI PUSH17 0x1000000000000000000000162E42FEFA2 MUL PUSH1 0x80 SHR JUMPDEST PUSH6 0x10000000000 DUP4 AND ISZERO PUSH2 0x1830 JUMPI PUSH17 0x10000000000000000000000B17217F7D0 MUL PUSH1 0x80 SHR JUMPDEST PUSH5 0x8000000000 DUP4 AND ISZERO PUSH2 0x1854 JUMPI PUSH17 0x1000000000000000000000058B90BFBE7 MUL PUSH1 0x80 SHR JUMPDEST PUSH5 0x4000000000 DUP4 AND ISZERO PUSH2 0x1878 JUMPI PUSH17 0x100000000000000000000002C5C85FDF3 MUL PUSH1 0x80 SHR JUMPDEST PUSH5 0x2000000000 DUP4 AND ISZERO PUSH2 0x189C JUMPI PUSH17 0x10000000000000000000000162E42FEF9 MUL PUSH1 0x80 SHR JUMPDEST PUSH5 0x1000000000 DUP4 AND ISZERO PUSH2 0x18C0 JUMPI PUSH17 0x100000000000000000000000B17217F7C MUL PUSH1 0x80 SHR JUMPDEST PUSH5 0x800000000 DUP4 AND ISZERO PUSH2 0x18E4 JUMPI PUSH17 0x10000000000000000000000058B90BFBD MUL PUSH1 0x80 SHR JUMPDEST PUSH5 0x400000000 DUP4 AND ISZERO PUSH2 0x1908 JUMPI PUSH17 0x1000000000000000000000002C5C85FDE MUL PUSH1 0x80 SHR JUMPDEST PUSH5 0x200000000 DUP4 AND ISZERO PUSH2 0x192C JUMPI PUSH17 0x100000000000000000000000162E42FEE MUL PUSH1 0x80 SHR JUMPDEST PUSH5 0x100000000 DUP4 AND ISZERO PUSH2 0x1950 JUMPI PUSH17 0x1000000000000000000000000B17217F6 MUL PUSH1 0x80 SHR JUMPDEST PUSH4 0x80000000 DUP4 AND ISZERO PUSH2 0x1973 JUMPI PUSH17 0x100000000000000000000000058B90BFA MUL PUSH1 0x80 SHR JUMPDEST PUSH4 0x40000000 DUP4 AND ISZERO PUSH2 0x1996 JUMPI PUSH17 0x10000000000000000000000002C5C85FC MUL PUSH1 0x80 SHR JUMPDEST PUSH4 0x20000000 DUP4 AND ISZERO PUSH2 0x19B9 JUMPI PUSH17 0x1000000000000000000000000162E42FD MUL PUSH1 0x80 SHR JUMPDEST PUSH4 0x10000000 DUP4 AND ISZERO PUSH2 0x19DC JUMPI PUSH17 0x10000000000000000000000000B17217E MUL PUSH1 0x80 SHR JUMPDEST PUSH4 0x8000000 DUP4 AND ISZERO PUSH2 0x19FF JUMPI PUSH17 0x1000000000000000000000000058B90BE MUL PUSH1 0x80 SHR JUMPDEST PUSH4 0x4000000 DUP4 AND ISZERO PUSH2 0x1A22 JUMPI PUSH17 0x100000000000000000000000002C5C85E MUL PUSH1 0x80 SHR JUMPDEST PUSH4 0x2000000 DUP4 AND ISZERO PUSH2 0x1A45 JUMPI PUSH17 0x10000000000000000000000000162E42E MUL PUSH1 0x80 SHR JUMPDEST PUSH4 0x1000000 DUP4 AND ISZERO PUSH2 0x1A68 JUMPI PUSH17 0x100000000000000000000000000B17216 MUL PUSH1 0x80 SHR JUMPDEST PUSH3 0x800000 DUP4 AND ISZERO PUSH2 0x1A8A JUMPI PUSH17 0x10000000000000000000000000058B90A MUL PUSH1 0x80 SHR JUMPDEST PUSH3 0x400000 DUP4 AND ISZERO PUSH2 0x1AAC JUMPI PUSH17 0x1000000000000000000000000002C5C84 MUL PUSH1 0x80 SHR JUMPDEST PUSH3 0x200000 DUP4 AND ISZERO PUSH2 0x1ACE JUMPI PUSH17 0x100000000000000000000000000162E41 MUL PUSH1 0x80 SHR JUMPDEST PUSH3 0x100000 DUP4 AND ISZERO PUSH2 0x1AF0 JUMPI PUSH17 0x1000000000000000000000000000B1720 MUL PUSH1 0x80 SHR JUMPDEST PUSH3 0x80000 DUP4 AND ISZERO PUSH2 0x1B12 JUMPI PUSH17 0x100000000000000000000000000058B8F MUL PUSH1 0x80 SHR JUMPDEST PUSH3 0x40000 DUP4 AND ISZERO PUSH2 0x1B34 JUMPI PUSH17 0x10000000000000000000000000002C5C7 MUL PUSH1 0x80 SHR JUMPDEST PUSH3 0x20000 DUP4 AND ISZERO PUSH2 0x1B56 JUMPI PUSH17 0x1000000000000000000000000000162E3 MUL PUSH1 0x80 SHR JUMPDEST PUSH3 0x10000 DUP4 AND ISZERO PUSH2 0x1B78 JUMPI PUSH17 0x10000000000000000000000000000B171 MUL PUSH1 0x80 SHR JUMPDEST PUSH2 0x8000 DUP4 AND ISZERO PUSH2 0x1B99 JUMPI PUSH17 0x1000000000000000000000000000058B8 MUL PUSH1 0x80 SHR JUMPDEST PUSH2 0x4000 DUP4 AND ISZERO PUSH2 0x1BBA JUMPI PUSH17 0x100000000000000000000000000002C5B MUL PUSH1 0x80 SHR JUMPDEST PUSH2 0x2000 DUP4 AND ISZERO PUSH2 0x1BDB JUMPI PUSH17 0x10000000000000000000000000000162D MUL PUSH1 0x80 SHR JUMPDEST PUSH2 0x1000 DUP4 AND ISZERO PUSH2 0x1BFC JUMPI PUSH17 0x100000000000000000000000000000B16 MUL PUSH1 0x80 SHR JUMPDEST PUSH2 0x800 DUP4 AND ISZERO PUSH2 0x1C1D JUMPI PUSH17 0x10000000000000000000000000000058A MUL PUSH1 0x80 SHR JUMPDEST PUSH2 0x400 DUP4 AND ISZERO PUSH2 0x1C3E JUMPI PUSH17 0x1000000000000000000000000000002C4 MUL PUSH1 0x80 SHR JUMPDEST PUSH2 0x200 DUP4 AND ISZERO PUSH2 0x1C5F JUMPI PUSH17 0x100000000000000000000000000000161 MUL PUSH1 0x80 SHR JUMPDEST PUSH2 0x100 DUP4 AND ISZERO PUSH2 0x1C80 JUMPI PUSH17 0x1000000000000000000000000000000B0 MUL PUSH1 0x80 SHR JUMPDEST PUSH1 0x80 DUP4 AND ISZERO PUSH2 0x1CA0 JUMPI PUSH17 0x100000000000000000000000000000057 MUL PUSH1 0x80 SHR JUMPDEST PUSH1 0x40 DUP4 AND ISZERO PUSH2 0x1CC0 JUMPI PUSH17 0x10000000000000000000000000000002B MUL PUSH1 0x80 SHR JUMPDEST PUSH1 0x20 DUP4 AND ISZERO PUSH2 0x1CE0 JUMPI PUSH17 0x100000000000000000000000000000015 MUL PUSH1 0x80 SHR JUMPDEST PUSH1 0x10 DUP4 AND ISZERO PUSH2 0x1D00 JUMPI PUSH17 0x10000000000000000000000000000000A MUL PUSH1 0x80 SHR JUMPDEST PUSH1 0x8 DUP4 AND ISZERO PUSH2 0x1D20 JUMPI PUSH17 0x100000000000000000000000000000004 MUL PUSH1 0x80 SHR JUMPDEST PUSH1 0x4 DUP4 AND ISZERO PUSH2 0x1D40 JUMPI PUSH17 0x100000000000000000000000000000001 MUL PUSH1 0x80 SHR JUMPDEST DUP5 PUSH2 0x1D61 JUMPI PUSH1 0xF DUP2 SWAP1 SHR PUSH1 0x1 PUSH1 0x1 PUSH1 0x70 SHL SUB AND SWAP1 POP PUSH2 0x3FFF DUP3 ADD SWAP2 POP PUSH2 0x1D90 JUMP JUMPDEST PUSH2 0x3FFE DUP3 GT PUSH2 0x1D86 JUMPI PUSH1 0xF DUP2 SWAP1 SHR PUSH1 0x1 PUSH1 0x1 PUSH1 0x70 SHL SUB AND SWAP1 POP DUP2 PUSH2 0x3FFF SUB SWAP2 POP PUSH2 0x1D90 JUMP JUMPDEST PUSH1 0x0 SWAP2 PUSH2 0x3FEE NOT ADD SHR JUMPDEST PUSH1 0x70 SWAP2 SWAP1 SWAP2 SHL OR PUSH1 0x80 SHL SWAP6 SWAP5 POP POP POP POP POP JUMP JUMPDEST PUSH1 0x0 PUSH2 0x1DB5 DUP4 PUSH1 0x1 PUSH1 0xFF SHL DUP5 XOR PUSH2 0x4CD JUMP JUMPDEST SWAP4 SWAP3 POP POP POP JUMP JUMPDEST PUSH1 0x0 PUSH2 0x7FFF PUSH1 0xF0 DUP5 DUP2 SHR DUP3 AND SWAP2 SWAP1 DUP5 SWAP1 SHR DUP2 AND SWAP1 DUP3 EQ ISZERO PUSH2 0x1E4B JUMPI DUP1 PUSH2 0x7FFF EQ ISZERO PUSH2 0x1E2A JUMPI PUSH1 0x1 PUSH1 0x1 PUSH1 0x80 SHL SUB NOT DUP6 DUP2 AND SWAP1 DUP6 AND EQ ISZERO PUSH2 0x1E07 JUMPI POP POP POP PUSH1 0x1 PUSH1 0xFF SHL DUP2 AND DUP3 XOR PUSH2 0x151 JUMP JUMPDEST PUSH1 0x1 PUSH1 0xFF SHL PUSH1 0x1 PUSH1 0x1 PUSH1 0x80 SHL SUB NOT DUP7 DUP7 XOR AND EQ ISZERO PUSH2 0x511 JUMPI POP POP POP DUP2 DUP2 OR PUSH2 0x151 JUMP JUMPDEST PUSH1 0x1 PUSH1 0x80 SHL PUSH1 0x1 PUSH1 0xFF SHL SUB DUP5 AND PUSH2 0x24A JUMPI POP PUSH2 0xFFFF PUSH1 0xEF SHL SWAP2 POP PUSH2 0x151 SWAP1 POP JUMP JUMPDEST DUP1 PUSH2 0x7FFF EQ ISZERO PUSH2 0x1E87 JUMPI PUSH1 0x1 PUSH1 0x80 SHL PUSH1 0x1 PUSH1 0xFF SHL SUB DUP6 AND PUSH2 0x1E76 JUMPI POP PUSH2 0xFFFF PUSH1 0xEF SHL SWAP2 POP PUSH2 0x151 SWAP1 POP JUMP JUMPDEST POP POP POP PUSH1 0x1 PUSH1 0xFF SHL DUP3 AND DUP2 XOR PUSH2 0x151 JUMP JUMPDEST PUSH1 0x1 PUSH1 0x1 PUSH1 0x70 SHL SUB PUSH1 0x80 DUP7 SWAP1 SHR AND DUP3 PUSH2 0x1EA3 JUMPI PUSH1 0x1 SWAP3 POP PUSH2 0x1EAA JUMP JUMPDEST PUSH1 0x1 PUSH1 0x70 SHL OR JUMPDEST PUSH1 0x1 PUSH1 0x1 PUSH1 0x70 SHL SUB PUSH1 0x80 DUP7 SWAP1 SHR AND DUP3 PUSH2 0x1EC6 JUMPI PUSH1 0x1 SWAP3 POP PUSH2 0x1ECD JUMP JUMPDEST PUSH1 0x1 PUSH1 0x70 SHL OR JUMPDEST SWAP1 DUP2 MUL SWAP1 DUP2 PUSH2 0x1EEA JUMPI PUSH1 0x1 PUSH1 0xFF SHL DUP8 DUP8 XOR AND PUSH2 0x380 JUMPI PUSH1 0x0 PUSH2 0x386 JUMP JUMPDEST SWAP3 DUP3 ADD SWAP3 PUSH1 0x0 PUSH1 0x1 PUSH1 0xE1 SHL DUP4 LT ISZERO PUSH2 0x1F1D JUMPI PUSH1 0x1 PUSH1 0xE0 SHL DUP4 LT ISZERO PUSH2 0x1F16 JUMPI PUSH2 0x1F11 DUP4 PUSH2 0x21BF JUMP JUMPDEST PUSH2 0x1F20 JUMP JUMPDEST PUSH1 0xE0 PUSH2 0x1F20 JUMP JUMPDEST PUSH1 0xE1 JUMPDEST SWAP1 POP PUSH2 0x4070 DUP2 DUP7 ADD LT ISZERO PUSH2 0x1F3B JUMPI PUSH1 0x0 SWAP5 POP PUSH1 0x0 SWAP3 POP PUSH2 0x1FD8 JUMP JUMPDEST PUSH2 0x40E0 DUP2 DUP7 ADD LT ISZERO PUSH2 0x1F7E JUMPI PUSH2 0x4070 DUP6 LT ISZERO PUSH2 0x1F60 JUMPI DUP5 PUSH2 0x4070 SUB DUP4 SWAP1 SHR SWAP3 POP PUSH2 0x1F75 JUMP JUMPDEST PUSH2 0x4070 DUP6 GT ISZERO PUSH2 0x1F75 JUMPI PUSH2 0x4070 DUP6 SUB DUP4 SWAP1 SHL SWAP3 POP JUMPDEST PUSH1 0x0 SWAP5 POP PUSH2 0x1FD8 JUMP JUMPDEST PUSH2 0xC0DD DUP2 DUP7 ADD GT ISZERO PUSH2 0x1F98 JUMPI PUSH2 0x7FFF SWAP5 POP PUSH1 0x0 SWAP3 POP PUSH2 0x1FD8 JUMP JUMPDEST PUSH1 0x70 DUP2 GT ISZERO PUSH2 0x1FAF JUMPI PUSH1 0x70 DUP2 SUB DUP4 SWAP1 SHR SWAP3 POP PUSH2 0x1FC2 JUMP JUMPDEST PUSH1 0x70 DUP2 LT ISZERO PUSH2 0x1FC2 JUMPI DUP1 PUSH1 0x70 SUB DUP4 SWAP1 SHL SWAP3 POP JUMPDEST PUSH1 0x1 PUSH1 0x1 PUSH1 0x70 SHL SUB DUP4 AND SWAP3 POP PUSH2 0x40DF DUP2 DUP7 ADD SUB SWAP5 POP JUMPDEST DUP3 PUSH1 0x70 DUP7 SWAP1 SHL DUP9 DUP11 XOR PUSH1 0x1 PUSH1 0x7F SHL PUSH1 0x80 SHL AND PUSH1 0x80 SHR PUSH1 0x1 PUSH1 0x1 PUSH1 0x80 SHL SUB AND OR OR PUSH1 0x80 SHL SWAP6 POP POP POP POP POP POP PUSH2 0x151 JUMP JUMPDEST PUSH1 0x0 PUSH2 0x7FFF PUSH1 0xF0 DUP4 SWAP1 SHR AND PUSH2 0x3FFF DUP2 LT ISZERO PUSH2 0x2025 JUMPI POP PUSH1 0x0 SWAP3 SWAP2 POP POP JUMP JUMPDEST PUSH1 0x1 PUSH1 0x7F SHL PUSH1 0x80 DUP5 SWAP1 SHR LT PUSH2 0x2039 JUMPI PUSH1 0x0 DUP1 REVERT JUMPDEST PUSH2 0x40FE DUP2 GT ISZERO PUSH2 0x2048 JUMPI PUSH1 0x0 DUP1 REVERT JUMPDEST PUSH1 0x1 PUSH1 0x70 SHL PUSH1 0x1 PUSH1 0x1 PUSH1 0x70 SHL SUB PUSH1 0x80 DUP6 SWAP1 SHR AND OR PUSH2 0x406F DUP3 LT ISZERO PUSH2 0x2072 JUMPI PUSH2 0x406F DUP3 SWAP1 SUB SHR PUSH2 0x1DB5 JUMP JUMPDEST PUSH2 0x406F DUP3 GT ISZERO PUSH2 0x1DB5 JUMPI PUSH2 0x406E NOT DUP3 ADD SHL SWAP4 SWAP3 POP POP POP JUMP JUMPDEST PUSH1 0x0 DUP2 PUSH2 0x2099 JUMPI POP PUSH1 0x0 SWAP2 SWAP1 POP JUMP JUMPDEST PUSH1 0x0 DUP1 DUP4 SGT PUSH2 0x20AB JUMPI DUP3 PUSH1 0x0 SUB PUSH2 0x20AD JUMP JUMPDEST DUP3 JUMPDEST SWAP1 POP PUSH1 0x0 PUSH2 0x20BA DUP3 PUSH2 0x21BF JUMP JUMPDEST SWAP1 POP PUSH1 0x70 DUP2 LT ISZERO PUSH2 0x20D3 JUMPI DUP1 PUSH1 0x70 SUB DUP3 SWAP1 SHL SWAP2 POP PUSH2 0x20E6 JUMP JUMPDEST PUSH1 0x70 DUP2 GT ISZERO PUSH2 0x20E6 JUMPI PUSH1 0x70 DUP2 SUB DUP3 SWAP1 SHR SWAP2 POP JUMPDEST PUSH1 0x1 PUSH1 0x1 PUSH1 0x70 SHL SUB SWAP1 SWAP2 AND PUSH2 0x3FFF DUP3 ADD PUSH1 0x70 SHL OR SWAP1 PUSH1 0x0 DUP5 SLT ISZERO PUSH2 0x210E JUMPI PUSH1 0x1 PUSH1 0x7F SHL DUP3 OR SWAP2 POP JUMPDEST POP PUSH1 0x80 SHL SWAP3 SWAP2 POP POP JUMP JUMPDEST PUSH1 0x0 PUSH2 0x7FFF PUSH1 0xF0 DUP4 SWAP1 SHR AND PUSH2 0x40FE DUP2 GT ISZERO PUSH2 0x2132 JUMPI PUSH1 0x0 DUP1 REVERT JUMPDEST PUSH2 0x3FFF DUP2 LT ISZERO PUSH2 0x2145 JUMPI POP PUSH1 0x0 SWAP3 SWAP2 POP POP JUMP JUMPDEST PUSH1 0x1 PUSH1 0x70 SHL PUSH1 0x1 PUSH1 0x1 PUSH1 0x70 SHL SUB PUSH1 0x80 DUP6 SWAP1 SHR AND OR PUSH2 0x406F DUP3 LT ISZERO PUSH2 0x216F JUMPI PUSH2 0x406F DUP3 SWAP1 SUB SHR PUSH2 0x2181 JUMP JUMPDEST PUSH2 0x406F DUP3 GT ISZERO PUSH2 0x2181 JUMPI PUSH2 0x406E NOT DUP3 ADD SHL JUMPDEST PUSH1 0x1 PUSH1 0x7F SHL PUSH1 0x80 DUP6 SWAP1 SHR LT PUSH2 0x21AB JUMPI PUSH1 0x1 PUSH1 0xFF SHL DUP2 GT ISZERO PUSH2 0x21A1 JUMPI PUSH1 0x0 DUP1 REVERT JUMPDEST PUSH1 0x0 SUB SWAP4 SWAP3 POP POP POP JUMP JUMPDEST PUSH1 0x1 PUSH1 0x1 PUSH1 0xFF SHL SUB DUP2 GT ISZERO PUSH2 0x1DB5 JUMPI PUSH1 0x0 DUP1 REVERT JUMPDEST PUSH1 0x0 DUP1 DUP3 GT PUSH2 0x21CD JUMPI PUSH1 0x0 DUP1 REVERT JUMPDEST PUSH1 0x0 PUSH1 0x1 PUSH1 0x80 SHL DUP4 LT PUSH2 0x21E2 JUMPI PUSH1 0x80 SWAP3 DUP4 SHR SWAP3 ADD JUMPDEST PUSH1 0x1 PUSH1 0x40 SHL DUP4 LT PUSH2 0x21F5 JUMPI PUSH1 0x40 SWAP3 DUP4 SHR SWAP3 ADD JUMPDEST PUSH5 0x100000000 DUP4 LT PUSH2 0x2209 JUMPI PUSH1 0x20 SWAP3 DUP4 SHR SWAP3 ADD JUMPDEST PUSH3 0x10000 DUP4 LT PUSH2 0x221B JUMPI PUSH1 0x10 SWAP3 DUP4 SHR SWAP3 ADD JUMPDEST PUSH2 0x100 DUP4 LT PUSH2 0x222C JUMPI PUSH1 0x8 SWAP3 DUP4 SHR SWAP3 ADD JUMPDEST PUSH1 0x10 DUP4 LT PUSH2 0x223C JUMPI PUSH1 0x4 SWAP3 DUP4 SHR SWAP3 ADD JUMPDEST PUSH1 0x4 DUP4 LT PUSH2 0x224C JUMPI PUSH1 0x2 SWAP3 DUP4 SHR SWAP3 ADD JUMPDEST PUSH1 0x2 DUP4 LT PUSH2 0x151 JUMPI PUSH1 0x1 ADD SWAP3 SWAP2 POP POP JUMP JUMPDEST PUSH1 0x0 PUSH1 0x20 DUP3 DUP5 SUB SLT ISZERO PUSH2 0x226F JUMPI PUSH1 0x0 DUP1 REVERT JUMPDEST POP CALLDATALOAD SWAP2 SWAP1 POP JUMP JUMPDEST PUSH1 0x0 DUP1 PUSH1 0x0 DUP1 PUSH1 0x0 PUSH1 0xA0 DUP7 DUP9 SUB SLT ISZERO PUSH2 0x228E JUMPI PUSH1 0x0 DUP1 REVERT JUMPDEST POP POP DUP4 CALLDATALOAD SWAP6 PUSH1 0x20 DUP6 ADD CALLDATALOAD SWAP6 POP PUSH1 0x40 DUP6 ADD CALLDATALOAD SWAP5 PUSH1 0x60 DUP2 ADD CALLDATALOAD SWAP5 POP PUSH1 0x80 ADD CALLDATALOAD SWAP3 POP SWAP1 POP JUMP JUMPDEST PUSH1 0x0 DUP1 PUSH1 0x0 PUSH1 0x60 DUP5 DUP7 SUB SLT ISZERO PUSH2 0x22C6 JUMPI PUSH1 0x0 DUP1 REVERT JUMPDEST POP POP DUP2 CALLDATALOAD SWAP4 PUSH1 0x20 DUP4 ADD CALLDATALOAD SWAP4 POP PUSH1 0x40 SWAP1 SWAP3 ADD CALLDATALOAD SWAP2 SWAP1 POP JUMP JUMPDEST PUSH4 0x4E487B71 PUSH1 0xE0 SHL PUSH1 0x0 MSTORE PUSH1 0x11 PUSH1 0x4 MSTORE PUSH1 0x24 PUSH1 0x0 REVERT JUMPDEST PUSH1 0x1 DUP2 DUP2 JUMPDEST DUP1 DUP6 GT ISZERO PUSH2 0x232E JUMPI DUP2 PUSH1 0x0 NOT DIV DUP3 GT ISZERO PUSH2 0x2314 JUMPI PUSH2 0x2314 PUSH2 0x22DD JUMP JUMPDEST DUP1 DUP6 AND ISZERO PUSH2 0x2321 JUMPI SWAP2 DUP2 MUL SWAP2 JUMPDEST SWAP4 DUP5 SHR SWAP4 SWAP1 DUP1 MUL SWAP1 PUSH2 0x22F8 JUMP JUMPDEST POP SWAP3 POP SWAP3 SWAP1 POP JUMP JUMPDEST PUSH1 0x0 DUP3 PUSH2 0x2345 JUMPI POP PUSH1 0x1 PUSH2 0x151 JUMP JUMPDEST DUP2 PUSH2 0x2352 JUMPI POP PUSH1 0x0 PUSH2 0x151 JUMP JUMPDEST DUP2 PUSH1 0x1 DUP2 EQ PUSH2 0x2368 JUMPI PUSH1 0x2 DUP2 EQ PUSH2 0x2372 JUMPI PUSH2 0x238E JUMP JUMPDEST PUSH1 0x1 SWAP2 POP POP PUSH2 0x151 JUMP JUMPDEST PUSH1 0xFF DUP5 GT ISZERO PUSH2 0x2383 JUMPI PUSH2 0x2383 PUSH2 0x22DD JUMP JUMPDEST POP POP PUSH1 0x1 DUP3 SHL PUSH2 0x151 JUMP JUMPDEST POP PUSH1 0x20 DUP4 LT PUSH2 0x133 DUP4 LT AND PUSH1 0x4E DUP5 LT PUSH1 0xB DUP5 LT AND OR ISZERO PUSH2 0x23B1 JUMPI POP DUP2 DUP2 EXP PUSH2 0x151 JUMP JUMPDEST PUSH2 0x23BB DUP4 DUP4 PUSH2 0x22F3 JUMP JUMPDEST DUP1 PUSH1 0x0 NOT DIV DUP3 GT ISZERO PUSH2 0x23CF JUMPI PUSH2 0x23CF PUSH2 0x22DD JUMP JUMPDEST MUL SWAP4 SWAP3 POP POP POP JUMP JUMPDEST PUSH1 0x0 PUSH2 0x1DB5 DUP4 DUP4 PUSH2 0x2336 JUMP JUMPDEST PUSH1 0x0 DUP2 PUSH1 0x0 NOT DIV DUP4 GT DUP3 ISZERO ISZERO AND ISZERO PUSH2 0x23FD JUMPI PUSH2 0x23FD PUSH2 0x22DD JUMP JUMPDEST POP MUL SWAP1 JUMP JUMPDEST PUSH4 0x4E487B71 PUSH1 0xE0 SHL PUSH1 0x0 MSTORE PUSH1 0x12 PUSH1 0x4 MSTORE PUSH1 0x24 PUSH1 0x0 REVERT JUMPDEST PUSH4 0x4E487B71 PUSH1 0xE0 SHL PUSH1 0x0 MSTORE PUSH1 0x1 PUSH1 0x4 MSTORE PUSH1 0x24 PUSH1 0x0 REVERT INVALID LOG2 PUSH5 0x6970667358 0x22 SLT KECCAK256 0xAB 0xB7 0x1E DELEGATECALL 0xE8 0xE0 DUP13 TIMESTAMP CALLVALUE 0xDE 0xD6 GASLIMIT 0x22 0x2E 0xD9 MULMOD 0xB7 0xC8 ADDMOD PUSH7 0x323FF921D3FADA DUP13 PUSH6 0xDA2F5E64736F PUSH13 0x634300080B0033000000000000 ","sha1":"2a797d9771597406871ad62b5289be1ab5bf5ef8","source":"// SPDX-License-Identifier: MIT\npragma solidity ^0.8.0;\n\nimport \"./ABDKMathQuad.sol\";\n\n//TODO: Make another library called PotamusRequirement\n//to house all the requirements as function\nlibrary PotamusUtils {\n    uint256 public constant FLOAT_DECIMALS = 18;\n\n    //Calculate new balance with interest rate compounded per sec\n    function getNewBalance(\n        int256 _oldBalance,\n        uint256 _fRatePerSecond,\n        uint256 _secondInterval\n    ) public pure returns (int256) {\n        //TODO: We have the below ugly implementation cos ABDKMathQuad doesn't have\n        //function to calculate x^n given x and n\n        //ABDKMath64x64 has support for that, but I used ABDKMathQuad in LoanPool so just\n        //wanna keep the same library. We should do gas optimization here if possible by changing\n        //library.\n        //The math trick used below: (1+rate)^(interval) = 2^(interval.log_2(1+rate))\n        return\n            ABDKMathQuad.toInt(\n                ABDKMathQuad.mul(\n                    ABDKMathQuad.fromInt(_oldBalance),\n                    ABDKMathQuad.pow_2(\n                        ABDKMathQuad.mul(\n                            //interval\n                            ABDKMathQuad.fromUInt(_secondInterval),\n                            //log_2^(1+rate)\n                            ABDKMathQuad.log_2(\n                                ABDKMathQuad.add(\n                                    ABDKMathQuad.fromUInt(1),\n                                    ABDKMathQuad.div(\n                                        ABDKMathQuad.fromUInt(_fRatePerSecond),\n                                        ABDKMathQuad.fromUInt(10**18)\n                                    )\n                                )\n                            )\n                        )\n                    )\n                )\n            );\n    }\n\n    //Convert annually compounded interest into equivalent secondly compounded rate\n    function getEquivalentSecRate(uint256 _annualRate)\n        public\n        pure\n        returns (uint256)\n    {\n        return\n            ABDKMathQuad.toUInt(\n                ABDKMathQuad.mul(\n                    ABDKMathQuad.sub(\n                        ABDKMathQuad.pow_2(\n                            ABDKMathQuad.div(\n                                ABDKMathQuad.log_2(\n                                    ABDKMathQuad.add(\n                                        ABDKMathQuad.div(\n                                            ABDKMathQuad.fromUInt(_annualRate),\n                                            ABDKMathQuad.fromUInt(\n                                                1 * 10**FLOAT_DECIMALS\n                                            )\n                                        ),\n                                        ABDKMathQuad.fromUInt(1)\n                                    )\n                                ),\n                                ABDKMathQuad.fromUInt(365 * 1 days)\n                            )\n                        ),\n                        ABDKMathQuad.fromUInt(1)\n                    ),\n                    ABDKMathQuad.fromUInt(1 * 10**FLOAT_DECIMALS)\n                )\n            );\n    }\n\n    //TODO: Write test for this function\n    function getAnnualInterestRate(\n        uint256 _loanBalance,\n        uint256 _depositBalance,\n        uint256 _fCRITICAL_UTIL_RATE,\n        uint256 _fFIRST_ANNUAL_INTEREST_RATE,\n        uint256 _fSECOND_ANNUAL_INTEREST_RATE\n    ) public pure returns (uint256 fInterestRate) {\n        return 200_000_000_000_000_000_000;\n\n        // uint256 fUtilRate = (10**FLOAT_DECIMALS * _loanBalance) /\n        //     _depositBalance;\n\n        // if (fUtilRate < _fCRITICAL_UTIL_RATE) {\n        //     return\n        //         ABDKMathQuad.toUInt(\n        //             ABDKMathQuad.mul(\n        //                 ABDKMathQuad.div(\n        //                     ABDKMathQuad.fromUInt(fUtilRate),\n        //                     ABDKMathQuad.fromUInt(_fCRITICAL_UTIL_RATE)\n        //                 ),\n        //                 ABDKMathQuad.fromUInt(_fFIRST_ANNUAL_INTEREST_RATE)\n        //             )\n        //         );\n        // } else if (fUtilRate >= _fCRITICAL_UTIL_RATE) {\n        //     return\n        //         _fFIRST_ANNUAL_INTEREST_RATE +\n        //         ABDKMathQuad.toUInt(\n        //             ABDKMathQuad.mul(\n        //                 ABDKMathQuad.div(\n        //                     ABDKMathQuad.fromUInt(\n        //                         fUtilRate - _fCRITICAL_UTIL_RATE\n        //                     ),\n        //                     ABDKMathQuad.fromUInt(\n        //                         1 * 10**FLOAT_DECIMALS - _fCRITICAL_UTIL_RATE\n        //                     )\n        //                 ),\n        //                 ABDKMathQuad.fromUInt(\n        //                     _fSECOND_ANNUAL_INTEREST_RATE -\n        //                         _fFIRST_ANNUAL_INTEREST_RATE\n        //                 )\n        //             )\n        //         );\n        // }\n    }\n}\n","sourcePath":"contracts/PotamusUtils.sol","deployment":{"address":"0xCE87c9cA43b739FeC04F8Eb0cfe4e2F1560f5b52","chainid":"42","blockHeight":29227138}}