{
  "abi": [
    {
      "inputs": [
        {
          "internalType": "address",
          "name": "_token",
          "type": "address"
        }
      ],
      "stateMutability": "nonpayable",
      "type": "constructor"
    },
    {
      "inputs": [
        {
          "internalType": "address",
          "name": "_loanAccountAddress",
          "type": "address"
        }
      ],
      "name": "addLoanAccount",
      "outputs": [],
      "stateMutability": "nonpayable",
      "type": "function"
    },
    {
      "inputs": [],
      "name": "availableFund",
      "outputs": [
        {
          "internalType": "uint256",
          "name": "",
          "type": "uint256"
        }
      ],
      "stateMutability": "view",
      "type": "function"
    },
    {
      "inputs": [
        {
          "internalType": "uint256",
          "name": "_amount",
          "type": "uint256"
        }
      ],
      "name": "deposit",
      "outputs": [],
      "stateMutability": "nonpayable",
      "type": "function"
    },
    {
      "inputs": [],
      "name": "depositBalance",
      "outputs": [
        {
          "internalType": "uint256",
          "name": "",
          "type": "uint256"
        }
      ],
      "stateMutability": "view",
      "type": "function"
    },
    {
      "inputs": [],
      "name": "fAnnualInteretRate",
      "outputs": [
        {
          "internalType": "uint256",
          "name": "",
          "type": "uint256"
        }
      ],
      "stateMutability": "view",
      "type": "function"
    },
    {
      "inputs": [],
      "name": "fSecondInterestRate",
      "outputs": [
        {
          "internalType": "uint256",
          "name": "",
          "type": "uint256"
        }
      ],
      "stateMutability": "view",
      "type": "function"
    },
    {
      "inputs": [
        {
          "internalType": "address",
          "name": "_loanAccountAddress",
          "type": "address"
        }
      ],
      "name": "isContain",
      "outputs": [
        {
          "internalType": "bool",
          "name": "",
          "type": "bool"
        }
      ],
      "stateMutability": "view",
      "type": "function"
    },
    {
      "inputs": [
        {
          "internalType": "address",
          "name": "_userAddress",
          "type": "address"
        },
        {
          "internalType": "uint256",
          "name": "_amount",
          "type": "uint256"
        }
      ],
      "name": "loan",
      "outputs": [],
      "stateMutability": "nonpayable",
      "type": "function"
    },
    {
      "inputs": [],
      "name": "loanBalance",
      "outputs": [
        {
          "internalType": "uint256",
          "name": "",
          "type": "uint256"
        }
      ],
      "stateMutability": "view",
      "type": "function"
    },
    {
      "inputs": [
        {
          "internalType": "uint256",
          "name": "_amount",
          "type": "uint256"
        }
      ],
      "name": "payback",
      "outputs": [],
      "stateMutability": "nonpayable",
      "type": "function"
    },
    {
      "inputs": [
        {
          "internalType": "address",
          "name": "_loanAccountAddress",
          "type": "address"
        }
      ],
      "name": "removeLoanAccount",
      "outputs": [],
      "stateMutability": "nonpayable",
      "type": "function"
    },
    {
      "inputs": [],
      "name": "tokenAddress",
      "outputs": [
        {
          "internalType": "address",
          "name": "",
          "type": "address"
        }
      ],
      "stateMutability": "view",
      "type": "function"
    },
    {
      "inputs": [
        {
          "internalType": "address",
          "name": "_userAddress",
          "type": "address"
        },
        {
          "internalType": "uint256",
          "name": "_amount",
          "type": "uint256"
        }
      ],
      "name": "withdraw",
      "outputs": [],
      "stateMutability": "nonpayable",
      "type": "function"
    }
  ],
  "bytecode": "6080604052600a6200001360128262000204565b6200002090600262000219565b6200002c91906200023b565b600055600a6200003e60128262000204565b6200004b90601462000219565b6200005791906200023b565b600155600a6200006960128262000204565b6200007690600862000219565b6200008291906200023b565b6002556000600455600060055560006006556000600755348015620000a657600080fd5b50604051620009bd380380620009bd833981016040819052620000c9916200025e565b600380546001600160a01b0319166001600160a01b039290921691909117905562000289565b634e487b7160e01b600052601160045260246000fd5b600181815b80851115620001465781600019048211156200012a576200012a620000ef565b808516156200013857918102915b93841c93908002906200010a565b509250929050565b6000826200015f57506001620001fe565b816200016e57506000620001fe565b81600181146200018757600281146200019257620001b2565b6001915050620001fe565b60ff841115620001a657620001a6620000ef565b50506001821b620001fe565b5060208310610133831016604e8410600b8410161715620001d7575081810a620001fe565b620001e3838362000105565b8060001904821115620001fa57620001fa620000ef565b0290505b92915050565b60006200021283836200014e565b9392505050565b6000816000190483118215151615620002365762000236620000ef565b500290565b6000826200025957634e487b7160e01b600052601260045260246000fd5b500490565b6000602082840312156200027157600080fd5b81516001600160a01b03811681146200021257600080fd5b61072480620002996000396000f3fe608060405234801561001057600080fd5b50600436106100cf5760003560e01c80639d76ea581161008c578063d0cb3cd111610066578063d0cb3cd1146101b7578063d6c3d994146101bf578063d9ed2685146101c8578063f3fef3a3146101db57600080fd5b80639d76ea5814610166578063a846c2fd14610191578063b6b55f25146101a457600080fd5b8063185cc751146100d45780631bf05579146100e957806334b3c50f1461010557806361bc1a49146101185780637c7dc0941461012157806388adcac11461015d575b600080fd5b6100e76100e23660046105d8565b6101ee565b005b6100f260055481565b6040519081526020015b60405180910390f35b6100e7610113366004610602565b610212565b6100f260045481565b61014d61012f366004610602565b6001600160a01b031660009081526009602052604090205460ff1690565b60405190151581526020016100fc565b6100f260065481565b600354610179906001600160a01b031681565b6040516001600160a01b0390911681526020016100fc565b6100e761019f366004610624565b6102e5565b6100e76101b2366004610624565b610305565b6100f2610317565b6100f260075481565b6100e76101d6366004610602565b61032e565b6100e76101e93660046105d8565b6103bc565b80600560008282546102009190610653565b9091555061020e90506103ce565b5050565b604051631f1f702560e21b81526001600160a01b03821660048201523090637c7dc09490602401602060405180830381865afa158015610256573d6000803e3d6000fd5b505050506040513d601f19601f8201168201806040525081019061027a919061066b565b6102e2576008805460018082019092557ff3f7a9fe364faab93b216da50a3214154f22a0a2b415b23a84c8169e8b636ee30180546001600160a01b0319166001600160a01b0384169081179091556000908152600960205260409020805460ff191690911790555b50565b80600560008282546102f7919061068d565b909155506102e290506103ce565b80600460008282546102f79190610653565b6000600554600454610329919061068d565b905090565b604051631f1f702560e21b81526001600160a01b03821660048201523090637c7dc09490602401602060405180830381865afa158015610372573d6000803e3d6000fd5b505050506040513d601f19601f82011682018060405250810190610396919061066b565b156102e2576001600160a01b03166000908152600960205260409020805460ff19169055565b8060046000828254610200919061068d565b60055460048054600254600054600154604051636bed508b60e11b815294850195909552602484019290925260448301526064820152608481019190915273__PotamusUtils__________________________9063d7daa1169060a401602060405180830381865af4158015610448573d6000803e3d6000fd5b505050506040513d601f19601f8201168201806040525081019061046c91906106a4565b60078190556040516311bb7e4960e31b8152600481019190915273__PotamusUtils__________________________90638ddbf24890602401602060405180830381865af41580156104c2573d6000803e3d6000fd5b505050506040513d601f19601f820116820180604052508101906104e691906106a4565b60065560005b6008548110156102e25760006008600001828154811061050e5761050e6106bd565b60009182526020808320909101546001600160a01b0316808352600990915260409091205490915060ff16156105a957600354600654604051631395702760e01b81526001600160a01b039283166004820152602481019190915290821690631395702790604401600060405180830381600087803b15801561059057600080fd5b505af11580156105a4573d6000803e3d6000fd5b505050505b50806105b4816106d3565b9150506104ec565b80356001600160a01b03811681146105d357600080fd5b919050565b600080604083850312156105eb57600080fd5b6105f4836105bc565b946020939093013593505050565b60006020828403121561061457600080fd5b61061d826105bc565b9392505050565b60006020828403121561063657600080fd5b5035919050565b634e487b7160e01b600052601160045260246000fd5b600082198211156106665761066661063d565b500190565b60006020828403121561067d57600080fd5b8151801515811461061d57600080fd5b60008282101561069f5761069f61063d565b500390565b6000602082840312156106b657600080fd5b5051919050565b634e487b7160e01b600052603260045260246000fd5b60006000198214156106e7576106e761063d565b506001019056fea2646970667358221220dbc280a65ad0f07b00a2e88b94d287b98ce3b3941220cd6017b135d4fb02579964736f6c634300080b0033",
  "bytecodeSha1": "54c38de8229bffe6eaba52b4d80ba0fb64f2f288",
  "compiler": {
    "evm_version": "istanbul",
    "optimizer": {
      "enabled": true,
      "runs": 200
    },
    "version": "0.8.11+commit.d7f03943"
  },
  "contractName": "LoanPool",
  "deployedBytecode": "608060405234801561001057600080fd5b50600436106100cf5760003560e01c80639d76ea581161008c578063d0cb3cd111610066578063d0cb3cd1146101b7578063d6c3d994146101bf578063d9ed2685146101c8578063f3fef3a3146101db57600080fd5b80639d76ea5814610166578063a846c2fd14610191578063b6b55f25146101a457600080fd5b8063185cc751146100d45780631bf05579146100e957806334b3c50f1461010557806361bc1a49146101185780637c7dc0941461012157806388adcac11461015d575b600080fd5b6100e76100e23660046105d8565b6101ee565b005b6100f260055481565b6040519081526020015b60405180910390f35b6100e7610113366004610602565b610212565b6100f260045481565b61014d61012f366004610602565b6001600160a01b031660009081526009602052604090205460ff1690565b60405190151581526020016100fc565b6100f260065481565b600354610179906001600160a01b031681565b6040516001600160a01b0390911681526020016100fc565b6100e761019f366004610624565b6102e5565b6100e76101b2366004610624565b610305565b6100f2610317565b6100f260075481565b6100e76101d6366004610602565b61032e565b6100e76101e93660046105d8565b6103bc565b80600560008282546102009190610653565b9091555061020e90506103ce565b5050565b604051631f1f702560e21b81526001600160a01b03821660048201523090637c7dc09490602401602060405180830381865afa158015610256573d6000803e3d6000fd5b505050506040513d601f19601f8201168201806040525081019061027a919061066b565b6102e2576008805460018082019092557ff3f7a9fe364faab93b216da50a3214154f22a0a2b415b23a84c8169e8b636ee30180546001600160a01b0319166001600160a01b0384169081179091556000908152600960205260409020805460ff191690911790555b50565b80600560008282546102f7919061068d565b909155506102e290506103ce565b80600460008282546102f79190610653565b6000600554600454610329919061068d565b905090565b604051631f1f702560e21b81526001600160a01b03821660048201523090637c7dc09490602401602060405180830381865afa158015610372573d6000803e3d6000fd5b505050506040513d601f19601f82011682018060405250810190610396919061066b565b156102e2576001600160a01b03166000908152600960205260409020805460ff19169055565b8060046000828254610200919061068d565b60055460048054600254600054600154604051636bed508b60e11b815294850195909552602484019290925260448301526064820152608481019190915273__$399c488f34e53de4c155d62f7f1a443bc7$__9063d7daa1169060a401602060405180830381865af4158015610448573d6000803e3d6000fd5b505050506040513d601f19601f8201168201806040525081019061046c91906106a4565b60078190556040516311bb7e4960e31b8152600481019190915273__$399c488f34e53de4c155d62f7f1a443bc7$__90638ddbf24890602401602060405180830381865af41580156104c2573d6000803e3d6000fd5b505050506040513d601f19601f820116820180604052508101906104e691906106a4565b60065560005b6008548110156102e25760006008600001828154811061050e5761050e6106bd565b60009182526020808320909101546001600160a01b0316808352600990915260409091205490915060ff16156105a957600354600654604051631395702760e01b81526001600160a01b039283166004820152602481019190915290821690631395702790604401600060405180830381600087803b15801561059057600080fd5b505af11580156105a4573d6000803e3d6000fd5b505050505b50806105b4816106d3565b9150506104ec565b80356001600160a01b03811681146105d357600080fd5b919050565b600080604083850312156105eb57600080fd5b6105f4836105bc565b946020939093013593505050565b60006020828403121561061457600080fd5b61061d826105bc565b9392505050565b60006020828403121561063657600080fd5b5035919050565b634e487b7160e01b600052601160045260246000fd5b600082198211156106665761066661063d565b500190565b60006020828403121561067d57600080fd5b8151801515811461061d57600080fd5b60008282101561069f5761069f61063d565b500390565b6000602082840312156106b657600080fd5b5051919050565b634e487b7160e01b600052603260045260246000fd5b60006000198214156106e7576106e761063d565b506001019056fea2646970667358221220dbc280a65ad0f07b00a2e88b94d287b98ce3b3941220cd6017b135d4fb02579964736f6c634300080b0033",
  "language": "Solidity",
  "natspec": {
    "kind": "dev",
    "methods": {},
    "version": 1
  },
  "opcodes": "PUSH1 0x80 PUSH1 0x40 MSTORE CALLVALUE DUP1 ISZERO PUSH2 0x10 JUMPI PUSH1 0x0 DUP1 REVERT JUMPDEST POP PUSH1 0x4 CALLDATASIZE LT PUSH2 0xCF JUMPI PUSH1 0x0 CALLDATALOAD PUSH1 0xE0 SHR DUP1 PUSH4 0x9D76EA58 GT PUSH2 0x8C JUMPI DUP1 PUSH4 0xD0CB3CD1 GT PUSH2 0x66 JUMPI DUP1 PUSH4 0xD0CB3CD1 EQ PUSH2 0x1B7 JUMPI DUP1 PUSH4 0xD6C3D994 EQ PUSH2 0x1BF JUMPI DUP1 PUSH4 0xD9ED2685 EQ PUSH2 0x1C8 JUMPI DUP1 PUSH4 0xF3FEF3A3 EQ PUSH2 0x1DB JUMPI PUSH1 0x0 DUP1 REVERT JUMPDEST DUP1 PUSH4 0x9D76EA58 EQ PUSH2 0x166 JUMPI DUP1 PUSH4 0xA846C2FD EQ PUSH2 0x191 JUMPI DUP1 PUSH4 0xB6B55F25 EQ PUSH2 0x1A4 JUMPI PUSH1 0x0 DUP1 REVERT JUMPDEST DUP1 PUSH4 0x185CC751 EQ PUSH2 0xD4 JUMPI DUP1 PUSH4 0x1BF05579 EQ PUSH2 0xE9 JUMPI DUP1 PUSH4 0x34B3C50F EQ PUSH2 0x105 JUMPI DUP1 PUSH4 0x61BC1A49 EQ PUSH2 0x118 JUMPI DUP1 PUSH4 0x7C7DC094 EQ PUSH2 0x121 JUMPI DUP1 PUSH4 0x88ADCAC1 EQ PUSH2 0x15D JUMPI JUMPDEST PUSH1 0x0 DUP1 REVERT JUMPDEST PUSH2 0xE7 PUSH2 0xE2 CALLDATASIZE PUSH1 0x4 PUSH2 0x5D8 JUMP JUMPDEST PUSH2 0x1EE JUMP JUMPDEST STOP JUMPDEST PUSH2 0xF2 PUSH1 0x5 SLOAD DUP2 JUMP JUMPDEST PUSH1 0x40 MLOAD SWAP1 DUP2 MSTORE PUSH1 0x20 ADD JUMPDEST PUSH1 0x40 MLOAD DUP1 SWAP2 SUB SWAP1 RETURN JUMPDEST PUSH2 0xE7 PUSH2 0x113 CALLDATASIZE PUSH1 0x4 PUSH2 0x602 JUMP JUMPDEST PUSH2 0x212 JUMP JUMPDEST PUSH2 0xF2 PUSH1 0x4 SLOAD DUP2 JUMP JUMPDEST PUSH2 0x14D PUSH2 0x12F CALLDATASIZE PUSH1 0x4 PUSH2 0x602 JUMP JUMPDEST PUSH1 0x1 PUSH1 0x1 PUSH1 0xA0 SHL SUB AND PUSH1 0x0 SWAP1 DUP2 MSTORE PUSH1 0x9 PUSH1 0x20 MSTORE PUSH1 0x40 SWAP1 KECCAK256 SLOAD PUSH1 0xFF AND SWAP1 JUMP JUMPDEST PUSH1 0x40 MLOAD SWAP1 ISZERO ISZERO DUP2 MSTORE PUSH1 0x20 ADD PUSH2 0xFC JUMP JUMPDEST PUSH2 0xF2 PUSH1 0x6 SLOAD DUP2 JUMP JUMPDEST PUSH1 0x3 SLOAD PUSH2 0x179 SWAP1 PUSH1 0x1 PUSH1 0x1 PUSH1 0xA0 SHL SUB AND DUP2 JUMP JUMPDEST PUSH1 0x40 MLOAD PUSH1 0x1 PUSH1 0x1 PUSH1 0xA0 SHL SUB SWAP1 SWAP2 AND DUP2 MSTORE PUSH1 0x20 ADD PUSH2 0xFC JUMP JUMPDEST PUSH2 0xE7 PUSH2 0x19F CALLDATASIZE PUSH1 0x4 PUSH2 0x624 JUMP JUMPDEST PUSH2 0x2E5 JUMP JUMPDEST PUSH2 0xE7 PUSH2 0x1B2 CALLDATASIZE PUSH1 0x4 PUSH2 0x624 JUMP JUMPDEST PUSH2 0x305 JUMP JUMPDEST PUSH2 0xF2 PUSH2 0x317 JUMP JUMPDEST PUSH2 0xF2 PUSH1 0x7 SLOAD DUP2 JUMP JUMPDEST PUSH2 0xE7 PUSH2 0x1D6 CALLDATASIZE PUSH1 0x4 PUSH2 0x602 JUMP JUMPDEST PUSH2 0x32E JUMP JUMPDEST PUSH2 0xE7 PUSH2 0x1E9 CALLDATASIZE PUSH1 0x4 PUSH2 0x5D8 JUMP JUMPDEST PUSH2 0x3BC JUMP JUMPDEST DUP1 PUSH1 0x5 PUSH1 0x0 DUP3 DUP3 SLOAD PUSH2 0x200 SWAP2 SWAP1 PUSH2 0x653 JUMP JUMPDEST SWAP1 SWAP2 SSTORE POP PUSH2 0x20E SWAP1 POP PUSH2 0x3CE JUMP JUMPDEST POP POP JUMP JUMPDEST PUSH1 0x40 MLOAD PUSH4 0x1F1F7025 PUSH1 0xE2 SHL DUP2 MSTORE PUSH1 0x1 PUSH1 0x1 PUSH1 0xA0 SHL SUB DUP3 AND PUSH1 0x4 DUP3 ADD MSTORE ADDRESS SWAP1 PUSH4 0x7C7DC094 SWAP1 PUSH1 0x24 ADD PUSH1 0x20 PUSH1 0x40 MLOAD DUP1 DUP4 SUB DUP2 DUP7 GAS STATICCALL ISZERO DUP1 ISZERO PUSH2 0x256 JUMPI RETURNDATASIZE PUSH1 0x0 DUP1 RETURNDATACOPY RETURNDATASIZE PUSH1 0x0 REVERT JUMPDEST POP POP POP POP PUSH1 0x40 MLOAD RETURNDATASIZE PUSH1 0x1F NOT PUSH1 0x1F DUP3 ADD AND DUP3 ADD DUP1 PUSH1 0x40 MSTORE POP DUP2 ADD SWAP1 PUSH2 0x27A SWAP2 SWAP1 PUSH2 0x66B JUMP JUMPDEST PUSH2 0x2E2 JUMPI PUSH1 0x8 DUP1 SLOAD PUSH1 0x1 DUP1 DUP3 ADD SWAP1 SWAP3 SSTORE PUSH32 0xF3F7A9FE364FAAB93B216DA50A3214154F22A0A2B415B23A84C8169E8B636EE3 ADD DUP1 SLOAD PUSH1 0x1 PUSH1 0x1 PUSH1 0xA0 SHL SUB NOT AND PUSH1 0x1 PUSH1 0x1 PUSH1 0xA0 SHL SUB DUP5 AND SWAP1 DUP2 OR SWAP1 SWAP2 SSTORE PUSH1 0x0 SWAP1 DUP2 MSTORE PUSH1 0x9 PUSH1 0x20 MSTORE PUSH1 0x40 SWAP1 KECCAK256 DUP1 SLOAD PUSH1 0xFF NOT AND SWAP1 SWAP2 OR SWAP1 SSTORE JUMPDEST POP JUMP JUMPDEST DUP1 PUSH1 0x5 PUSH1 0x0 DUP3 DUP3 SLOAD PUSH2 0x2F7 SWAP2 SWAP1 PUSH2 0x68D JUMP JUMPDEST SWAP1 SWAP2 SSTORE POP PUSH2 0x2E2 SWAP1 POP PUSH2 0x3CE JUMP JUMPDEST DUP1 PUSH1 0x4 PUSH1 0x0 DUP3 DUP3 SLOAD PUSH2 0x2F7 SWAP2 SWAP1 PUSH2 0x653 JUMP JUMPDEST PUSH1 0x0 PUSH1 0x5 SLOAD PUSH1 0x4 SLOAD PUSH2 0x329 SWAP2 SWAP1 PUSH2 0x68D JUMP JUMPDEST SWAP1 POP SWAP1 JUMP JUMPDEST PUSH1 0x40 MLOAD PUSH4 0x1F1F7025 PUSH1 0xE2 SHL DUP2 MSTORE PUSH1 0x1 PUSH1 0x1 PUSH1 0xA0 SHL SUB DUP3 AND PUSH1 0x4 DUP3 ADD MSTORE ADDRESS SWAP1 PUSH4 0x7C7DC094 SWAP1 PUSH1 0x24 ADD PUSH1 0x20 PUSH1 0x40 MLOAD DUP1 DUP4 SUB DUP2 DUP7 GAS STATICCALL ISZERO DUP1 ISZERO PUSH2 0x372 JUMPI RETURNDATASIZE PUSH1 0x0 DUP1 RETURNDATACOPY RETURNDATASIZE PUSH1 0x0 REVERT JUMPDEST POP POP POP POP PUSH1 0x40 MLOAD RETURNDATASIZE PUSH1 0x1F NOT PUSH1 0x1F DUP3 ADD AND DUP3 ADD DUP1 PUSH1 0x40 MSTORE POP DUP2 ADD SWAP1 PUSH2 0x396 SWAP2 SWAP1 PUSH2 0x66B JUMP JUMPDEST ISZERO PUSH2 0x2E2 JUMPI PUSH1 0x1 PUSH1 0x1 PUSH1 0xA0 SHL SUB AND PUSH1 0x0 SWAP1 DUP2 MSTORE PUSH1 0x9 PUSH1 0x20 MSTORE PUSH1 0x40 SWAP1 KECCAK256 DUP1 SLOAD PUSH1 0xFF NOT AND SWAP1 SSTORE JUMP JUMPDEST DUP1 PUSH1 0x4 PUSH1 0x0 DUP3 DUP3 SLOAD PUSH2 0x200 SWAP2 SWAP1 PUSH2 0x68D JUMP JUMPDEST PUSH1 0x5 SLOAD PUSH1 0x4 DUP1 SLOAD PUSH1 0x2 SLOAD PUSH1 0x0 SLOAD PUSH1 0x1 SLOAD PUSH1 0x40 MLOAD PUSH4 0x6BED508B PUSH1 0xE1 SHL DUP2 MSTORE SWAP5 DUP6 ADD SWAP6 SWAP1 SWAP6 MSTORE PUSH1 0x24 DUP5 ADD SWAP3 SWAP1 SWAP3 MSTORE PUSH1 0x44 DUP4 ADD MSTORE PUSH1 0x64 DUP3 ADD MSTORE PUSH1 0x84 DUP2 ADD SWAP2 SWAP1 SWAP2 MSTORE PUSH20 0x0 SWAP1 PUSH4 0xD7DAA116 SWAP1 PUSH1 0xA4 ADD PUSH1 0x20 PUSH1 0x40 MLOAD DUP1 DUP4 SUB DUP2 DUP7 GAS DELEGATECALL ISZERO DUP1 ISZERO PUSH2 0x448 JUMPI RETURNDATASIZE PUSH1 0x0 DUP1 RETURNDATACOPY RETURNDATASIZE PUSH1 0x0 REVERT JUMPDEST POP POP POP POP PUSH1 0x40 MLOAD RETURNDATASIZE PUSH1 0x1F NOT PUSH1 0x1F DUP3 ADD AND DUP3 ADD DUP1 PUSH1 0x40 MSTORE POP DUP2 ADD SWAP1 PUSH2 0x46C SWAP2 SWAP1 PUSH2 0x6A4 JUMP JUMPDEST PUSH1 0x7 DUP2 SWAP1 SSTORE PUSH1 0x40 MLOAD PUSH4 0x11BB7E49 PUSH1 0xE3 SHL DUP2 MSTORE PUSH1 0x4 DUP2 ADD SWAP2 SWAP1 SWAP2 MSTORE PUSH20 0x0 SWAP1 PUSH4 0x8DDBF248 SWAP1 PUSH1 0x24 ADD PUSH1 0x20 PUSH1 0x40 MLOAD DUP1 DUP4 SUB DUP2 DUP7 GAS DELEGATECALL ISZERO DUP1 ISZERO PUSH2 0x4C2 JUMPI RETURNDATASIZE PUSH1 0x0 DUP1 RETURNDATACOPY RETURNDATASIZE PUSH1 0x0 REVERT JUMPDEST POP POP POP POP PUSH1 0x40 MLOAD RETURNDATASIZE PUSH1 0x1F NOT PUSH1 0x1F DUP3 ADD AND DUP3 ADD DUP1 PUSH1 0x40 MSTORE POP DUP2 ADD SWAP1 PUSH2 0x4E6 SWAP2 SWAP1 PUSH2 0x6A4 JUMP JUMPDEST PUSH1 0x6 SSTORE PUSH1 0x0 JUMPDEST PUSH1 0x8 SLOAD DUP2 LT ISZERO PUSH2 0x2E2 JUMPI PUSH1 0x0 PUSH1 0x8 PUSH1 0x0 ADD DUP3 DUP2 SLOAD DUP2 LT PUSH2 0x50E JUMPI PUSH2 0x50E PUSH2 0x6BD JUMP JUMPDEST PUSH1 0x0 SWAP2 DUP3 MSTORE PUSH1 0x20 DUP1 DUP4 KECCAK256 SWAP1 SWAP2 ADD SLOAD PUSH1 0x1 PUSH1 0x1 PUSH1 0xA0 SHL SUB AND DUP1 DUP4 MSTORE PUSH1 0x9 SWAP1 SWAP2 MSTORE PUSH1 0x40 SWAP1 SWAP2 KECCAK256 SLOAD SWAP1 SWAP2 POP PUSH1 0xFF AND ISZERO PUSH2 0x5A9 JUMPI PUSH1 0x3 SLOAD PUSH1 0x6 SLOAD PUSH1 0x40 MLOAD PUSH4 0x13957027 PUSH1 0xE0 SHL DUP2 MSTORE PUSH1 0x1 PUSH1 0x1 PUSH1 0xA0 SHL SUB SWAP3 DUP4 AND PUSH1 0x4 DUP3 ADD MSTORE PUSH1 0x24 DUP2 ADD SWAP2 SWAP1 SWAP2 MSTORE SWAP1 DUP3 AND SWAP1 PUSH4 0x13957027 SWAP1 PUSH1 0x44 ADD PUSH1 0x0 PUSH1 0x40 MLOAD DUP1 DUP4 SUB DUP2 PUSH1 0x0 DUP8 DUP1 EXTCODESIZE ISZERO DUP1 ISZERO PUSH2 0x590 JUMPI PUSH1 0x0 DUP1 REVERT JUMPDEST POP GAS CALL ISZERO DUP1 ISZERO PUSH2 0x5A4 JUMPI RETURNDATASIZE PUSH1 0x0 DUP1 RETURNDATACOPY RETURNDATASIZE PUSH1 0x0 REVERT JUMPDEST POP POP POP POP JUMPDEST POP DUP1 PUSH2 0x5B4 DUP2 PUSH2 0x6D3 JUMP JUMPDEST SWAP2 POP POP PUSH2 0x4EC JUMP JUMPDEST DUP1 CALLDATALOAD PUSH1 0x1 PUSH1 0x1 PUSH1 0xA0 SHL SUB DUP2 AND DUP2 EQ PUSH2 0x5D3 JUMPI PUSH1 0x0 DUP1 REVERT JUMPDEST SWAP2 SWAP1 POP JUMP JUMPDEST PUSH1 0x0 DUP1 PUSH1 0x40 DUP4 DUP6 SUB SLT ISZERO PUSH2 0x5EB JUMPI PUSH1 0x0 DUP1 REVERT JUMPDEST PUSH2 0x5F4 DUP4 PUSH2 0x5BC JUMP JUMPDEST SWAP5 PUSH1 0x20 SWAP4 SWAP1 SWAP4 ADD CALLDATALOAD SWAP4 POP POP POP JUMP JUMPDEST PUSH1 0x0 PUSH1 0x20 DUP3 DUP5 SUB SLT ISZERO PUSH2 0x614 JUMPI PUSH1 0x0 DUP1 REVERT JUMPDEST PUSH2 0x61D DUP3 PUSH2 0x5BC JUMP JUMPDEST SWAP4 SWAP3 POP POP POP JUMP JUMPDEST PUSH1 0x0 PUSH1 0x20 DUP3 DUP5 SUB SLT ISZERO PUSH2 0x636 JUMPI PUSH1 0x0 DUP1 REVERT JUMPDEST POP CALLDATALOAD SWAP2 SWAP1 POP JUMP JUMPDEST PUSH4 0x4E487B71 PUSH1 0xE0 SHL PUSH1 0x0 MSTORE PUSH1 0x11 PUSH1 0x4 MSTORE PUSH1 0x24 PUSH1 0x0 REVERT JUMPDEST PUSH1 0x0 DUP3 NOT DUP3 GT ISZERO PUSH2 0x666 JUMPI PUSH2 0x666 PUSH2 0x63D JUMP JUMPDEST POP ADD SWAP1 JUMP JUMPDEST PUSH1 0x0 PUSH1 0x20 DUP3 DUP5 SUB SLT ISZERO PUSH2 0x67D JUMPI PUSH1 0x0 DUP1 REVERT JUMPDEST DUP2 MLOAD DUP1 ISZERO ISZERO DUP2 EQ PUSH2 0x61D JUMPI PUSH1 0x0 DUP1 REVERT JUMPDEST PUSH1 0x0 DUP3 DUP3 LT ISZERO PUSH2 0x69F JUMPI PUSH2 0x69F PUSH2 0x63D JUMP JUMPDEST POP SUB SWAP1 JUMP JUMPDEST PUSH1 0x0 PUSH1 0x20 DUP3 DUP5 SUB SLT ISZERO PUSH2 0x6B6 JUMPI PUSH1 0x0 DUP1 REVERT JUMPDEST POP MLOAD SWAP2 SWAP1 POP JUMP JUMPDEST PUSH4 0x4E487B71 PUSH1 0xE0 SHL PUSH1 0x0 MSTORE PUSH1 0x32 PUSH1 0x4 MSTORE PUSH1 0x24 PUSH1 0x0 REVERT JUMPDEST PUSH1 0x0 PUSH1 0x0 NOT DUP3 EQ ISZERO PUSH2 0x6E7 JUMPI PUSH2 0x6E7 PUSH2 0x63D JUMP JUMPDEST POP PUSH1 0x1 ADD SWAP1 JUMP INVALID LOG2 PUSH5 0x6970667358 0x22 SLT KECCAK256 0xDB 0xC2 DUP1 0xA6 GAS 0xD0 CREATE PUSH28 0xA2E88B94D287B98CE3B3941220CD6017B135D4FB02579964736F6C PUSH4 0x4300080B STOP CALLER ",
  "sha1": "d2ea9bbb39dbcc27dd2e9cb8f028860ea7d59817",
  "source": "// SPDX-License-Identifier: MIT\npragma solidity ^0.8.0;\n\nimport \"./LoanAccount.sol\";\nimport \"./ABDKMathQuad.sol\";\nimport \"./PotamusUtils.sol\";\n\nimport \"./IERC20.sol\";\n\n//LoanPool is the one holding the actual money\ncontract LoanPool {\n    //TODO: Fixed interest rate function for now\n    //can extends to account for different interest rate function\n    //with different kink value and slopes\n    //TODO: Right now all floating point are hard coded with `PotamusUtils.FLOAT_DECIMALS` decimal place after the dot\n    //The float-like variable representing ratios will be marked as fCamelCase\n    //So if you see 0.2 * 10 ** 18 (0.2x10^18, this represents 0.2)\n    //Can consider to use external libraries or something to be more readable\n    //Oh also, It's compounded secondly\n\n    //Note that all these rate are per anual basis\n    uint256 fFIRST_ANNUAL_INTEREST_RATE =\n        (2 * 10**PotamusUtils.FLOAT_DECIMALS) / 10; //0.2\n    uint256 fSECOND_ANNUAL_INTEREST_RATE =\n        (20 * 10**PotamusUtils.FLOAT_DECIMALS) / 10; // 2\n    uint256 fCRITICAL_UTIL_RATE = (8 * 10**PotamusUtils.FLOAT_DECIMALS) / 10; //0.8\n\n    address public tokenAddress;\n    uint256 public depositBalance = 0;\n    uint256 public loanBalance = 0;\n    uint256 public fSecondInterestRate = 0;\n    uint256 public fAnnualInteretRate = 0;\n\n    //The combination of both of these will give a data structure\n    //Operation     Time complexity\n    //Contains            O(1)\n    //Insert              O(1)\n    //Delete              O(1)\n    //List                O(k) with k >= n\n    struct ListableAccountMap {\n        address[] loanAccountAddressList;\n        //LoanAccount address to corresponding bool\n        mapping(address => bool) boolMap;\n    }\n\n    ListableAccountMap accountMap;\n\n    constructor(address _token) {\n        tokenAddress = _token;\n    }\n\n    function isContain(address _loanAccountAddress) public view returns (bool) {\n        return accountMap.boolMap[_loanAccountAddress];\n    }\n\n    function addLoanAccount(address _loanAccountAddress) public {\n        if (!this.isContain(_loanAccountAddress)) {\n            accountMap.loanAccountAddressList.push(_loanAccountAddress);\n            accountMap.boolMap[_loanAccountAddress] = true;\n        }\n    }\n\n    function removeLoanAccount(address _loanAccountAddress) public {\n        if (this.isContain(_loanAccountAddress)) {\n            accountMap.boolMap[_loanAccountAddress] = false;\n        }\n    }\n\n    function availableFund() public view returns (uint256) {\n        return depositBalance - loanBalance;\n    }\n\n    //TODO: remember to trigger recalculation for both deposit and loan function\n    function deposit(uint256 _amount) public {\n        depositBalance += _amount;\n        updateAccountListBalance();\n    }\n\n    // //Returns if this money transfer is successful\n    // modifier onlyMoneyOut(address _userAddress, uint256 _amount) {\n    //     //Make sure that the pool has sufficient ERC20\n    //     require(\n    //         IERC20(tokenAddress).balanceOf(address(this)) >= _amount,\n    //         \"Pool has insufficient fund\"\n    //     );\n    //     require(availableFund() >= _amount, \"Pool has insufficient fund\");\n    //     //Make the transfer\n    //     require(\n    //         IERC20(tokenAddress).transfer(_userAddress, _amount),\n    //         \"Transfer of token failed\"\n    //     );\n    //     _;\n    // }\n\n    function withdraw(address _userAddress, uint256 _amount)\n        public\n    // onlyMoneyOut(_userAddress, _amount)\n    {\n        //If transfer is succesful, update the pool balance\n        depositBalance -= _amount;\n        updateAccountListBalance();\n    }\n\n    //Have check to make sure the amount loan out doesn't cause more loan amount than deposit\n    function loan(address _userAddress, uint256 _amount)\n        public\n    // onlyMoneyOut(_userAddress, _amount)\n    {\n        //If transfer is succesful, update the pool balance\n        loanBalance += _amount;\n        updateAccountListBalance();\n    }\n\n    function payback(uint256 _amount) public {\n        loanBalance -= _amount;\n        updateAccountListBalance();\n    }\n\n    function updateAccountListBalance() private {\n        fAnnualInteretRate = PotamusUtils.getAnnualInterestRate(\n            loanBalance,\n            depositBalance,\n            fCRITICAL_UTIL_RATE,\n            fFIRST_ANNUAL_INTEREST_RATE,\n            fSECOND_ANNUAL_INTEREST_RATE\n        );\n        fSecondInterestRate = PotamusUtils.getEquivalentSecRate(\n            fAnnualInteretRate\n        );\n        for (uint256 i = 0; i < accountMap.loanAccountAddressList.length; i++) {\n            address loanAccountAddress = accountMap.loanAccountAddressList[i];\n            if (accountMap.boolMap[loanAccountAddress]) {\n                LoanAccount(loanAccountAddress).recalculateBalance(\n                    tokenAddress,\n                    fSecondInterestRate\n                );\n            }\n        }\n    }\n}\n",
  "sourcePath": "contracts/LoanPool.sol",
  "type": "contract"
}