{
  "abi": [
    {
      "inputs": [
        {
          "internalType": "address",
          "name": "_userAddress",
          "type": "address"
        }
      ],
      "stateMutability": "nonpayable",
      "type": "constructor"
    },
    {
      "inputs": [
        {
          "internalType": "address",
          "name": "_token",
          "type": "address"
        },
        {
          "internalType": "int256",
          "name": "_amount",
          "type": "int256"
        },
        {
          "internalType": "uint256",
          "name": "_fUpdatedSecondInterestRate",
          "type": "uint256"
        }
      ],
      "name": "deposit",
      "outputs": [],
      "stateMutability": "nonpayable",
      "type": "function"
    },
    {
      "inputs": [
        {
          "internalType": "address",
          "name": "_userAddress",
          "type": "address"
        },
        {
          "internalType": "uint256",
          "name": "_index",
          "type": "uint256"
        }
      ],
      "name": "getTokenAddressAndBalance",
      "outputs": [
        {
          "internalType": "address",
          "name": "_tokenAddress",
          "type": "address"
        },
        {
          "internalType": "int256",
          "name": "_balance",
          "type": "int256"
        },
        {
          "internalType": "bool",
          "name": "_isExist",
          "type": "bool"
        }
      ],
      "stateMutability": "view",
      "type": "function"
    },
    {
      "inputs": [],
      "name": "getTokenListLength",
      "outputs": [
        {
          "internalType": "uint256",
          "name": "",
          "type": "uint256"
        }
      ],
      "stateMutability": "view",
      "type": "function"
    },
    {
      "inputs": [
        {
          "internalType": "address",
          "name": "_token",
          "type": "address"
        }
      ],
      "name": "hasDepositOrLoan",
      "outputs": [
        {
          "internalType": "bool",
          "name": "",
          "type": "bool"
        }
      ],
      "stateMutability": "view",
      "type": "function"
    },
    {
      "inputs": [
        {
          "internalType": "address",
          "name": "_token",
          "type": "address"
        },
        {
          "internalType": "int256",
          "name": "_amount",
          "type": "int256"
        },
        {
          "internalType": "uint256",
          "name": "_fUpdatedSecondInterestRate",
          "type": "uint256"
        }
      ],
      "name": "loan",
      "outputs": [],
      "stateMutability": "nonpayable",
      "type": "function"
    },
    {
      "inputs": [
        {
          "internalType": "address",
          "name": "_token",
          "type": "address"
        },
        {
          "internalType": "int256",
          "name": "_amount",
          "type": "int256"
        }
      ],
      "name": "payback",
      "outputs": [],
      "stateMutability": "nonpayable",
      "type": "function"
    },
    {
      "inputs": [
        {
          "internalType": "address",
          "name": "_token",
          "type": "address"
        },
        {
          "internalType": "uint256",
          "name": "_fSecondInterestRate",
          "type": "uint256"
        }
      ],
      "name": "recalculateBalance",
      "outputs": [],
      "stateMutability": "nonpayable",
      "type": "function"
    },
    {
      "inputs": [
        {
          "internalType": "address",
          "name": "_token",
          "type": "address"
        }
      ],
      "name": "tokenBalance",
      "outputs": [
        {
          "internalType": "int256",
          "name": "",
          "type": "int256"
        }
      ],
      "stateMutability": "view",
      "type": "function"
    },
    {
      "inputs": [],
      "name": "userAddress",
      "outputs": [
        {
          "internalType": "address",
          "name": "",
          "type": "address"
        }
      ],
      "stateMutability": "view",
      "type": "function"
    },
    {
      "inputs": [
        {
          "internalType": "address",
          "name": "_token",
          "type": "address"
        },
        {
          "internalType": "int256",
          "name": "_amount",
          "type": "int256"
        }
      ],
      "name": "withdraw",
      "outputs": [],
      "stateMutability": "nonpayable",
      "type": "function"
    }
  ],
  "bytecode": "60806040523480156200001157600080fd5b5060405162002b6c38038062002b6c83398101604081905262000034916200005a565b600080546001600160a01b0319166001600160a01b03929092169190911790556200008c565b6000602082840312156200006d57600080fd5b81516001600160a01b03811681146200008557600080fd5b9392505050565b612ad0806200009c6000396000f3fe608060405234801561001057600080fd5b506004361061009e5760003560e01c80638ac477b0116100665780638ac477b014610108578063cebc743d14610142578063e4128fb314610155578063eedc966a14610180578063f3984804146101ad57600080fd5b80630b56fd49146100a35780630e19ae76146100b857806313957027146100cb5780635719dd22146100de5780637da7d3f1146100f5575b600080fd5b6100b66100b13660046128a2565b6101ec565b005b6100b66100c63660046128cc565b610336565b6100b66100d93660046128a2565b610463565b6002545b6040519081526020015b60405180910390f35b6100b66101033660046128a2565b6104bd565b61011b6101163660046128a2565b6105fe565b604080516001600160a01b03909416845260208401929092521515908201526060016100ec565b6100b66101503660046128cc565b610658565b600054610168906001600160a01b031681565b6040516001600160a01b0390911681526020016100ec565b6100e261018e3660046128ff565b6001600160a01b03166000908152600160208190526040909120015490565b6101dc6101bb3660046128ff565b6001600160a01b031660009081526001602052604090206003015460ff1690565b60405190151581526020016100ec565b600081136102155760405162461bcd60e51b815260040161020c9061291a565b60405180910390fd5b6001600160a01b0382166000908152600160205260409020600381015460ff166102515760405162461bcd60e51b815260040161020c90612946565b60008160010154126102a55760405162461bcd60e51b815260206004820181905260248201527f596f7520646f6e2774206f776520616e7920666f72207468697320746f6b656e604482015260640161020c565b80600101546102b3906129a4565b82131561030e5760405162461bcd60e51b815260206004820152602360248201527f596f7520617265206f766572706179696e6720666f72207768617420796f75206044820152626f776560e81b606482015260840161020c565b8181600101600082825461032291906129c1565b90915550610331905083610795565b505050565b600082136103565760405162461bcd60e51b815260040161020c9061291a565b6001600160a01b0383166000908152600160205260409020600381015460ff161561039a578281600101600082825461038f91906129c1565b9091555061045d9050565b6040805160a0810182526001600160a01b03808716808352602080840188815284860188815260016060870181815242608089019081526000878152958390529885209751885497166001600160a01b03199788161788559251878201559051600280880191909155915160038701805491151560ff19909216919091179055955160049095019490945583549485018455929092527f405787fa12a823e0f2b7631cc41b3ba8828b3321ca811111fa75cd3aa3bb5ace90920180549092161790555b50505050565b6001600160a01b03821660009081526001602052604090206003810154429060ff161561045d576104ac826001015483600201548460040154846104a79190612a02565b6107fa565b600183015560048201556002015550565b600081136104dd5760405162461bcd60e51b815260040161020c9061291a565b6001600160a01b0382166000908152600160205260409020600381015460ff166105195760405162461bcd60e51b815260040161020c90612946565b60008160010154136105815760405162461bcd60e51b815260206004820152602b60248201527f596f75722062616c616e636520666f72207468697320746f6b656e206973206e60448201526a6f7420706f73697469766560a81b606482015260840161020c565b80600101548213156105ea5760405162461bcd60e51b815260206004820152602c60248201527f596f75206861766520696e73756666696369656e742062616c616e636520666f60448201526b39103a3434b9903a37b5b2b760a11b606482015260840161020c565b818160010160008282546103229190612a19565b6000806000806002858154811061061757610617612a58565b60009182526020808320909101546001600160a01b0316808352600191829052604090922090810154600390910154919550935060ff169150509250925092565b600082136106785760405162461bcd60e51b815260040161020c9061291a565b6001600160a01b0383166000908152600160205260409020600381015460ff16156106b1578281600101600082825461038f9190612a19565b6040518060a00160405280856001600160a01b03168152602001846106d5906129a4565b815260208082019490945260016040808301829052426060938401526001600160a01b039788166000818152838852828120865181546001600160a01b031990811691909c161781559786015188850155918501516002808901919091559385015160038801805460ff19169115159190911790556080909401516004909601959095558154908101825593527f405787fa12a823e0f2b7631cc41b3ba8828b3321ca811111fa75cd3aa3bb5ace90920180549094169091179092555050565b6001600160a01b0381166000908152600160205260409020600381015460ff1680156107c5575060058160010154125b80156107dd57506107d660056129a4565b8160010154135b156107f6576000600182015560038101805460ff191690555b5050565b600061086561086061080b8661086d565b61085661085b61081a87610900565b61085661085161082a6001610900565b61084c6108368d610900565b610847670de0b6b3a7640000610900565b610964565b610c1e565b610fee565b6111a1565b6113ec565b61273f565b949350505050565b60008161087c57506000919050565b600080831361088e5782600003610890565b825b9050600061089d826127ed565b905060708110156108b6578060700382901b91506108c9565b60708111156108c9576070810382901c91505b6001600160701b03909116613fff820160701b179060008412156108f1576001607f1b821791505b5060801b92915050565b919050565b60008161090f57506000919050565b81600061091b826127ed565b90506070811015610934578060700382901b9150610947565b6070811115610947576070810382901c91505b613fff0160701b6001600160701b03919091161760801b92915050565b6000617fff60f084811c8216919084901c8116908214156109aa5780617fff1415610999575061ffff60ef1b9150610c189050565b505050600160ff1b81168218610c18565b80617fff14156109ee576dffffffffffffffffffffffffffff60801b8416156109dd575061ffff60ef1b9150610c189050565b505050808218600160ff1b16610c18565b600160801b600160ff1b038416610a3857600160801b600160ff1b038516610a20575061ffff60ef1b9150610c189050565b505050808218600160ff1b16617fff60f01b17610c18565b6001600160701b03608085901c1681610a545760019150610a5b565b600160701b175b6001600160701b03608087901c1683610a9a578015610a95576000610a7f826127ed565b6001955060e20393840160711901939190911b90505b610aa4565b600160701b1760721b5b818181610ab357610ab3612a6e565b04905080610ae057600160ff1b87871816610acf576000610ad5565b600160ff1b5b945050505050610c18565b6001606c1b811015610af457610af4612a84565b6000600160731b821015610b3357600160721b821015610b2857600160711b821015610b21576070610b2b565b6071610b2b565b60725b60ff16610b3c565b610b3c826127ed565b905083614071018186011115610b5a57617fff945060009150610bed565b83818601613ffc011015610b75576000945060009150610bed565b83818601613f8c011015610bc2578385613ffc011115610ba0578385613ffc010382901b9150610bb9565b8385613ffc011015610bb957613ffc8585030382901c91505b60009450610bed565b6070811115610bd5576070810382901c91505b6001600160701b038216915083818601613f8d010394505b81607086901b888a186001607f1b60801b1660801c6001600160801b0316171760801b955050505050505b92915050565b6000617fff60f084811c8216919084901c811690821415610c7c5780617fff1415610c72576001600160801b03198581169085161415610c62578492505050610c18565b5061ffff60ef1b9150610c189050565b8492505050610c18565b80617fff1415610c90578392505050610c18565b6001607f1b608086901c90811015906001600160701b031683610cb65760019350610cbd565b600160701b175b6001607f1b608087901c90811015906001600160701b031684610ce35760019450610cea565b600160701b175b82610d1a576001600160801b03198816600160ff1b14610d0a5787610d0d565b60005b9650505050505050610c18565b80610d3a576001600160801b03198916600160ff1b14610d0a5788610d0d565b8486038415158315151415610e45576070811315610d615789975050505050505050610c18565b6000811315610d735790811c90610da2565b606f19811215610d8c5788975050505050505050610c18565b6000811215610da2578060000384901c93508596505b92810192600160711b8410610dbd576001968701969390931c925b86617fff1415610def5784610dd757617fff60f01b610de1565b6001600160f01b03195b975050505050505050610c18565b600160701b841015610e045760009650610e11565b6001600160701b03841693505b83607088901b86610e23576000610e29565b6001607f1b5b6001600160801b0316171760801b975050505050505050610c18565b6000811315610e6057600184901b9350600187039650610e77565b6000811215610e7757600182901b91506001860396505b6070811315610e895760019150610ed6565b6001811315610ea6576001810360018303901c6001019150610ed6565b606f19811215610eb95760019350610ed6565b600019811215610ed6576001816000030360018503901c60010193505b818410610ee7578184039350610ef0565b83820393508294505b83610f06575060009650610c1895505050505050565b6000610f11856127ed565b90508060711415610f3757600185901c6001600160701b03169450600188019750610f86565b6070811015610f7957607081900380891115610f66578086901b6001600160701b031695508089039850610f73565b600098600019019590951b945b50610f86565b6001600160701b03851694505b87617fff1415610fb95785610fa057617fff60f01b610faa565b6001600160f01b03195b98505050505050505050610c18565b84607089901b87610fcb576000610fd1565b6001607f1b5b6001600160801b0316171760801b98505050505050505050610c18565b60006001607f1b608083901c111561100c575061ffff60ef1b919050565b613fff60f01b6001600160801b03198316141561102b57506000919050565b617fff60f083901c811690811415611044575090919050565b6001600160701b03608084901c16816110605760019150611067565b600160701b175b8061107d57506001600160f01b03199392505050565b600061406f81613fff85106110a35750600f9290921b9160009150613ffe1984016110e2565b60019250600160701b84106110c55784613ffe039050600f84901b93506110e2565b60006110d0856127ed565b607f8190039590951b9461406d039150505b836001607f1b14156111195782156110f8576001015b6000611103826127ed565b60700390508082901b9150808303925050611167565b60008361112757600061112a565b60015b60ff1690505b600160701b8210156111655793800260ff81901c607f81019190911c94600019939093019260019290921b9082180190611130565b505b806001600160701b0316607083901b84611182576000611188565b6001607f1b5b6001600160801b0316171760801b979650505050505050565b6000617fff60f084811c8216919084901c8116908214156112305780617fff141561120f576001600160801b031985811690851614156111ec57505050600160ff1b81168218610c18565b600160ff1b6001600160801b0319868618161415610c6257505050818117610c18565b600160801b600160ff1b038416610999575061ffff60ef1b9150610c189050565b80617fff141561126c57600160801b600160ff1b03851661125b575061ffff60ef1b9150610c189050565b505050600160ff1b82168118610c18565b6001600160701b03608086901c1682611288576001925061128f565b600160701b175b6001600160701b03608086901c16826112ab57600192506112b2565b600160701b175b90810290816112cf57600160ff1b87871816610acf576000610ad5565b928201926000600160e11b83101561130257600160e01b8310156112fb576112f6836127ed565b611305565b60e0611305565b60e15b905061407081860110156113205760009450600092506113bd565b6140e081860110156113635761407085101561134557846140700383901c925061135a565b61407085111561135a57614070850383901b92505b600094506113bd565b61c0dd818601111561137d57617fff9450600092506113bd565b6070811115611394576070810383901c92506113a7565b60708110156113a7578060700383901b92505b6001600160701b03831692506140df8186010394505b82607086901b888a186001607f1b60801b1660801c6001600160801b0316171760801b95505050505050610c18565b60006001607f1b608083901c90811190617fff60f085901c8116916001600160701b0316908214801561141e57508015155b15611432575061ffff60ef1b949350505050565b61400d821115611458578261144c57617fff60f01b61144f565b60005b95945050505050565b613f7f8210156114715750613fff60f01b949350505050565b8161147f5760019150611486565b600160701b175b613fef82111561149c57613fee1982011b6114ae565b613fef8210156114ae57613fef8290031c5b8280156114bf575061203760811b81115b156114cf57506000949350505050565b821580156114ee5750713fffffffffffffffffffffffffffffffffff81115b156115025750617fff60f01b949350505050565b6001600160801b0381169060801c83801561151c57508115155b15611528579019906001015b6001607f1b8281161561154c5770016a09e667f3bcc908b2fb1366ea957d3e0260801c5b6001607e1b83161561156f577001306fe0a31b7152de8d5a46305c85edec0260801c5b6001607d1b831615611592577001172b83c7d517adcdf7c8c50eb14a791f0260801c5b6001607c1b8316156115b55770010b5586cf9890f6298b92b71842a983630260801c5b6001607b1b8316156115d8577001059b0d31585743ae7c548eb68ca417fd0260801c5b6001607a1b8316156115fb57700102c9a3e778060ee6f7caca4f7a29bde80260801c5b600160791b83161561161e5770010163da9fb33356d84a66ae336dcdfa3f0260801c5b600160781b83161561164157700100b1afa5abcbed6129ab13ec11dc95430260801c5b600160771b8316156116645770010058c86da1c09ea1ff19d294cf2f679b0260801c5b600160761b831615611687577001002c605e2e8cec506d21bfc89a23a00f0260801c5b600160751b8316156116aa57700100162f3904051fa128bca9c55c31e5df0260801c5b600160741b8316156116cd577001000b175effdc76ba38e31671ca9397250260801c5b600160731b8316156116f057700100058ba01fb9f96d6cacd4b180917c3d0260801c5b600160721b8316156117135770010002c5cc37da9491d0985c348c68e7b30260801c5b600160711b831615611736577001000162e525ee054754457d59952920260260801c5b600160701b8316156117595770010000b17255775c040618bf4a4ade83fc0260801c5b6001606f1b83161561177c577001000058b91b5bc9ae2eed81e9b7d4cfab0260801c5b6001606e1b83161561179f57700100002c5c89d5ec6ca4d7c8acc017b7c90260801c5b6001606d1b8316156117c25770010000162e43f4f831060e02d839a9d16d0260801c5b6001606c1b8316156117e557700100000b1721bcfc99d9f890ea069117630260801c5b6001606b1b8316156118085770010000058b90cf1e6d97f9ca14dbcc16280260801c5b6001606a1b83161561182b577001000002c5c863b73f016468f6bac5ca2b0260801c5b600160691b83161561184e57700100000162e430e5a18f6119e3c02282a50260801c5b600160681b831615611871577001000000b1721835514b86e6d96efd1bfe0260801c5b600160671b83161561189457700100000058b90c0b48c6be5df846c5b2ef0260801c5b600160661b8316156118b75770010000002c5c8601cc6b9e94213c72737a0260801c5b600160651b8316156118da577001000000162e42fff037df38aa2b219f060260801c5b600160641b8316156118fd5770010000000b17217fba9c739aa5819f44f90260801c5b600160631b831615611920577001000000058b90bfcdee5acd3c1cedc8230260801c5b600160621b83161561194357700100000002c5c85fe31f35a6a30da1be500260801c5b600160611b8316156119665770010000000162e42ff0999ce3541b9fffcf0260801c5b600160601b83161561198957700100000000b17217f80f4ef5aadda455540260801c5b6001605f1b8316156119ac5770010000000058b90bfbf8479bd5a81b51ad0260801c5b6001605e1b8316156119cf577001000000002c5c85fdf84bd62ae30a74cc0260801c5b6001605d1b8316156119f257700100000000162e42fefb2fed257559bdaa0260801c5b6001605c1b831615611a15577001000000000b17217f7d5a7716bba4a9ae0260801c5b6001605b1b831615611a3857700100000000058b90bfbe9ddbac5e109cce0260801c5b6001605a1b831615611a5b5770010000000002c5c85fdf4b15de6f17eb0d0260801c5b600160591b831615611a7e577001000000000162e42fefa494f1478fde050260801c5b600160581b831615611aa15770010000000000b17217f7d20cf927c8e94c0260801c5b600160571b831615611ac4577001000000000058b90bfbe8f71cb4e4b33d0260801c5b600160561b831615611ae757700100000000002c5c85fdf477b662b269450260801c5b600160551b831615611b0a5770010000000000162e42fefa3ae53369388c0260801c5b600160541b831615611b2d57700100000000000b17217f7d1d351a389d400260801c5b600160531b831615611b505770010000000000058b90bfbe8e8b2d3d4ede0260801c5b600160521b831615611b73577001000000000002c5c85fdf4741bea6e77e0260801c5b600160511b831615611b9657700100000000000162e42fefa39fe95583c20260801c5b600160501b831615611bb9577001000000000000b17217f7d1cfb72b45e10260801c5b6980000000000000000000831615611be257700100000000000058b90bfbe8e7cc35c3f00260801c5b6940000000000000000000831615611c0b5770010000000000002c5c85fdf473e242ea380260801c5b6920000000000000000000831615611c34577001000000000000162e42fefa39f02b772c0260801c5b6910000000000000000000831615611c5d5770010000000000000b17217f7d1cf7d83c1a0260801c5b6908000000000000000000831615611c86577001000000000000058b90bfbe8e7bdcbe2e0260801c5b6904000000000000000000831615611caf57700100000000000002c5c85fdf473dea871f0260801c5b6902000000000000000000831615611cd85770010000000000000162e42fefa39ef44d910260801c5b6901000000000000000000831615611d0157700100000000000000b17217f7d1cf79e9490260801c5b68800000000000000000831615611d295770010000000000000058b90bfbe8e7bce5440260801c5b68400000000000000000831615611d51577001000000000000002c5c85fdf473de6eca0260801c5b68200000000000000000831615611d7957700100000000000000162e42fefa39ef366f0260801c5b68100000000000000000831615611da1577001000000000000000b17217f7d1cf79afa0260801c5b68080000000000000000831615611dc957700100000000000000058b90bfbe8e7bcd6d0260801c5b68040000000000000000831615611df15770010000000000000002c5c85fdf473de6b20260801c5b68020000000000000000831615611e19577001000000000000000162e42fefa39ef3580260801c5b600160401b831615611e3c5770010000000000000000b17217f7d1cf79ab0260801c5b678000000000000000831615611e63577001000000000000000058b90bfbe8e7bcd50260801c5b674000000000000000831615611e8a57700100000000000000002c5c85fdf473de6a0260801c5b672000000000000000831615611eb15770010000000000000000162e42fefa39ef340260801c5b671000000000000000831615611ed857700100000000000000000b17217f7d1cf7990260801c5b670800000000000000831615611eff5770010000000000000000058b90bfbe8e7bcc0260801c5b670400000000000000831615611f26577001000000000000000002c5c85fdf473de50260801c5b670200000000000000831615611f4d57700100000000000000000162e42fefa39ef20260801c5b670100000000000000831615611f74577001000000000000000000b17217f7d1cf780260801c5b6680000000000000831615611f9a57700100000000000000000058b90bfbe8e7bb0260801c5b6640000000000000831615611fc05770010000000000000000002c5c85fdf473dd0260801c5b6620000000000000831615611fe6577001000000000000000000162e42fefa39ee0260801c5b661000000000000083161561200c5770010000000000000000000b17217f7d1cf60260801c5b6608000000000000831615612032577001000000000000000000058b90bfbe8e7a0260801c5b660400000000000083161561205857700100000000000000000002c5c85fdf473c0260801c5b660200000000000083161561207e5770010000000000000000000162e42fefa39d0260801c5b66010000000000008316156120a457700100000000000000000000b17217f7d1ce0260801c5b658000000000008316156120c95770010000000000000000000058b90bfbe8e60260801c5b654000000000008316156120ee577001000000000000000000002c5c85fdf4720260801c5b6520000000000083161561211357700100000000000000000000162e42fefa380260801c5b65100000000000831615612138577001000000000000000000000b17217f7d1b0260801c5b6508000000000083161561215d57700100000000000000000000058b90bfbe8d0260801c5b650400000000008316156121825770010000000000000000000002c5c85fdf460260801c5b650200000000008316156121a7577001000000000000000000000162e42fefa20260801c5b650100000000008316156121cc5770010000000000000000000000b17217f7d00260801c5b6480000000008316156121f0577001000000000000000000000058b90bfbe70260801c5b64400000000083161561221457700100000000000000000000002c5c85fdf30260801c5b6420000000008316156122385770010000000000000000000000162e42fef90260801c5b64100000000083161561225c57700100000000000000000000000b17217f7c0260801c5b6408000000008316156122805770010000000000000000000000058b90bfbd0260801c5b6404000000008316156122a4577001000000000000000000000002c5c85fde0260801c5b6402000000008316156122c857700100000000000000000000000162e42fee0260801c5b6401000000008316156122ec577001000000000000000000000000b17217f60260801c5b638000000083161561230f57700100000000000000000000000058b90bfa0260801c5b63400000008316156123325770010000000000000000000000002c5c85fc0260801c5b6320000000831615612355577001000000000000000000000000162e42fd0260801c5b63100000008316156123785770010000000000000000000000000b17217e0260801c5b630800000083161561239b577001000000000000000000000000058b90be0260801c5b63040000008316156123be57700100000000000000000000000002c5c85e0260801c5b63020000008316156123e15770010000000000000000000000000162e42e0260801c5b630100000083161561240457700100000000000000000000000000b172160260801c5b628000008316156124265770010000000000000000000000000058b90a0260801c5b62400000831615612448577001000000000000000000000000002c5c840260801c5b6220000083161561246a57700100000000000000000000000000162e410260801c5b6210000083161561248c577001000000000000000000000000000b17200260801c5b620800008316156124ae57700100000000000000000000000000058b8f0260801c5b620400008316156124d05770010000000000000000000000000002c5c70260801c5b620200008316156124f2577001000000000000000000000000000162e30260801c5b620100008316156125145770010000000000000000000000000000b1710260801c5b618000831615612535577001000000000000000000000000000058b80260801c5b61400083161561255657700100000000000000000000000000002c5b0260801c5b6120008316156125775770010000000000000000000000000000162d0260801c5b61100083161561259857700100000000000000000000000000000b160260801c5b6108008316156125b95770010000000000000000000000000000058a0260801c5b6104008316156125da577001000000000000000000000000000002c40260801c5b6102008316156125fb577001000000000000000000000000000001610260801c5b61010083161561261c577001000000000000000000000000000000b00260801c5b608083161561263c577001000000000000000000000000000000570260801c5b604083161561265c5770010000000000000000000000000000002b0260801c5b602083161561267c577001000000000000000000000000000000150260801c5b601083161561269c5770010000000000000000000000000000000a0260801c5b60088316156126bc577001000000000000000000000000000000040260801c5b60048316156126dc577001000000000000000000000000000000010260801c5b846126fd57600f81901c6001600160701b03169050613fff8201915061272c565b613ffe821161272257600f81901c6001600160701b0316905081613fff03915061272c565b600091613fee19011c5b60709190911b1760801b95945050505050565b6000617fff60f083901c166140fe81111561275957600080fd5b613fff81101561276c5750600092915050565b600160701b6001600160701b03608085901c161761406f8210156127965761406f8290031c6127a8565b61406f8211156127a85761406e1982011b5b6001607f1b608085901c106127d257600160ff1b8111156127c857600080fd5b6000039392505050565b6001600160ff1b038111156127e657600080fd5b9392505050565b60008082116127fb57600080fd5b6000600160801b831061281057608092831c92015b600160401b831061282357604092831c92015b640100000000831061283757602092831c92015b62010000831061284957601092831c92015b610100831061285a57600892831c92015b6010831061286a57600492831c92015b6004831061287a57600292831c92015b60028310610c185760010192915050565b80356001600160a01b03811681146108fb57600080fd5b600080604083850312156128b557600080fd5b6128be8361288b565b946020939093013593505050565b6000806000606084860312156128e157600080fd5b6128ea8461288b565b95602085013595506040909401359392505050565b60006020828403121561291157600080fd5b6127e68261288b565b6020808252601290820152710416d6f756e74206d757374206265203e20360741b604082015260600190565b60208082526028908201527f596f7572204c6f616e206163636f756e7420646f65736e2774206861766520746040820152673434b99031b7b4b760c11b606082015260800190565b634e487b7160e01b600052601160045260246000fd5b6000600160ff1b8214156129ba576129ba61298e565b5060000390565b600080821280156001600160ff1b03849003851316156129e3576129e361298e565b600160ff1b83900384128116156129fc576129fc61298e565b50500190565b600082821015612a1457612a1461298e565b500390565b60008083128015600160ff1b850184121615612a3757612a3761298e565b6001600160ff1b0384018313811615612a5257612a5261298e565b50500390565b634e487b7160e01b600052603260045260246000fd5b634e487b7160e01b600052601260045260246000fd5b634e487b7160e01b600052600160045260246000fdfea26469706673582212206546b6937d0864df52b51167abe01a74d0b5974b5750d9910b9abcfb910cc69564736f6c634300080b0033",
  "bytecodeSha1": "350fcf55e6fd76a3b6a619917bb924a5e288bb11",
  "compiler": {
    "evm_version": "istanbul",
    "optimizer": {
      "enabled": true,
      "runs": 200
    },
    "version": "0.8.11+commit.d7f03943"
  },
  "contractName": "LoanAccount",
  "language": "Solidity",
  "natspec": {
    "kind": "dev",
    "methods": {},
    "version": 1
  },
  "opcodes": "PUSH1 0x80 PUSH1 0x40 MSTORE CALLVALUE DUP1 ISZERO PUSH2 0x10 JUMPI PUSH1 0x0 DUP1 REVERT JUMPDEST POP PUSH1 0x4 CALLDATASIZE LT PUSH2 0x9E JUMPI PUSH1 0x0 CALLDATALOAD PUSH1 0xE0 SHR DUP1 PUSH4 0x8AC477B0 GT PUSH2 0x66 JUMPI DUP1 PUSH4 0x8AC477B0 EQ PUSH2 0x108 JUMPI DUP1 PUSH4 0xCEBC743D EQ PUSH2 0x142 JUMPI DUP1 PUSH4 0xE4128FB3 EQ PUSH2 0x155 JUMPI DUP1 PUSH4 0xEEDC966A EQ PUSH2 0x180 JUMPI DUP1 PUSH4 0xF3984804 EQ PUSH2 0x1AD JUMPI PUSH1 0x0 DUP1 REVERT JUMPDEST DUP1 PUSH4 0xB56FD49 EQ PUSH2 0xA3 JUMPI DUP1 PUSH4 0xE19AE76 EQ PUSH2 0xB8 JUMPI DUP1 PUSH4 0x13957027 EQ PUSH2 0xCB JUMPI DUP1 PUSH4 0x5719DD22 EQ PUSH2 0xDE JUMPI DUP1 PUSH4 0x7DA7D3F1 EQ PUSH2 0xF5 JUMPI JUMPDEST PUSH1 0x0 DUP1 REVERT JUMPDEST PUSH2 0xB6 PUSH2 0xB1 CALLDATASIZE PUSH1 0x4 PUSH2 0x28A2 JUMP JUMPDEST PUSH2 0x1EC JUMP JUMPDEST STOP JUMPDEST PUSH2 0xB6 PUSH2 0xC6 CALLDATASIZE PUSH1 0x4 PUSH2 0x28CC JUMP JUMPDEST PUSH2 0x336 JUMP JUMPDEST PUSH2 0xB6 PUSH2 0xD9 CALLDATASIZE PUSH1 0x4 PUSH2 0x28A2 JUMP JUMPDEST PUSH2 0x463 JUMP JUMPDEST PUSH1 0x2 SLOAD JUMPDEST PUSH1 0x40 MLOAD SWAP1 DUP2 MSTORE PUSH1 0x20 ADD JUMPDEST PUSH1 0x40 MLOAD DUP1 SWAP2 SUB SWAP1 RETURN JUMPDEST PUSH2 0xB6 PUSH2 0x103 CALLDATASIZE PUSH1 0x4 PUSH2 0x28A2 JUMP JUMPDEST PUSH2 0x4BD JUMP JUMPDEST PUSH2 0x11B PUSH2 0x116 CALLDATASIZE PUSH1 0x4 PUSH2 0x28A2 JUMP JUMPDEST PUSH2 0x5FE JUMP JUMPDEST PUSH1 0x40 DUP1 MLOAD PUSH1 0x1 PUSH1 0x1 PUSH1 0xA0 SHL SUB SWAP1 SWAP5 AND DUP5 MSTORE PUSH1 0x20 DUP5 ADD SWAP3 SWAP1 SWAP3 MSTORE ISZERO ISZERO SWAP1 DUP3 ADD MSTORE PUSH1 0x60 ADD PUSH2 0xEC JUMP JUMPDEST PUSH2 0xB6 PUSH2 0x150 CALLDATASIZE PUSH1 0x4 PUSH2 0x28CC JUMP JUMPDEST PUSH2 0x658 JUMP JUMPDEST PUSH1 0x0 SLOAD PUSH2 0x168 SWAP1 PUSH1 0x1 PUSH1 0x1 PUSH1 0xA0 SHL SUB AND DUP2 JUMP JUMPDEST PUSH1 0x40 MLOAD PUSH1 0x1 PUSH1 0x1 PUSH1 0xA0 SHL SUB SWAP1 SWAP2 AND DUP2 MSTORE PUSH1 0x20 ADD PUSH2 0xEC JUMP JUMPDEST PUSH2 0xE2 PUSH2 0x18E CALLDATASIZE PUSH1 0x4 PUSH2 0x28FF JUMP JUMPDEST PUSH1 0x1 PUSH1 0x1 PUSH1 0xA0 SHL SUB AND PUSH1 0x0 SWAP1 DUP2 MSTORE PUSH1 0x1 PUSH1 0x20 DUP2 SWAP1 MSTORE PUSH1 0x40 SWAP1 SWAP2 KECCAK256 ADD SLOAD SWAP1 JUMP JUMPDEST PUSH2 0x1DC PUSH2 0x1BB CALLDATASIZE PUSH1 0x4 PUSH2 0x28FF JUMP JUMPDEST PUSH1 0x1 PUSH1 0x1 PUSH1 0xA0 SHL SUB AND PUSH1 0x0 SWAP1 DUP2 MSTORE PUSH1 0x1 PUSH1 0x20 MSTORE PUSH1 0x40 SWAP1 KECCAK256 PUSH1 0x3 ADD SLOAD PUSH1 0xFF AND SWAP1 JUMP JUMPDEST PUSH1 0x40 MLOAD SWAP1 ISZERO ISZERO DUP2 MSTORE PUSH1 0x20 ADD PUSH2 0xEC JUMP JUMPDEST PUSH1 0x0 DUP2 SGT PUSH2 0x215 JUMPI PUSH1 0x40 MLOAD PUSH3 0x461BCD PUSH1 0xE5 SHL DUP2 MSTORE PUSH1 0x4 ADD PUSH2 0x20C SWAP1 PUSH2 0x291A JUMP JUMPDEST PUSH1 0x40 MLOAD DUP1 SWAP2 SUB SWAP1 REVERT JUMPDEST PUSH1 0x1 PUSH1 0x1 PUSH1 0xA0 SHL SUB DUP3 AND PUSH1 0x0 SWAP1 DUP2 MSTORE PUSH1 0x1 PUSH1 0x20 MSTORE PUSH1 0x40 SWAP1 KECCAK256 PUSH1 0x3 DUP2 ADD SLOAD PUSH1 0xFF AND PUSH2 0x251 JUMPI PUSH1 0x40 MLOAD PUSH3 0x461BCD PUSH1 0xE5 SHL DUP2 MSTORE PUSH1 0x4 ADD PUSH2 0x20C SWAP1 PUSH2 0x2946 JUMP JUMPDEST PUSH1 0x0 DUP2 PUSH1 0x1 ADD SLOAD SLT PUSH2 0x2A5 JUMPI PUSH1 0x40 MLOAD PUSH3 0x461BCD PUSH1 0xE5 SHL DUP2 MSTORE PUSH1 0x20 PUSH1 0x4 DUP3 ADD DUP2 SWAP1 MSTORE PUSH1 0x24 DUP3 ADD MSTORE PUSH32 0x596F7520646F6E2774206F776520616E7920666F72207468697320746F6B656E PUSH1 0x44 DUP3 ADD MSTORE PUSH1 0x64 ADD PUSH2 0x20C JUMP JUMPDEST DUP1 PUSH1 0x1 ADD SLOAD PUSH2 0x2B3 SWAP1 PUSH2 0x29A4 JUMP JUMPDEST DUP3 SGT ISZERO PUSH2 0x30E JUMPI PUSH1 0x40 MLOAD PUSH3 0x461BCD PUSH1 0xE5 SHL DUP2 MSTORE PUSH1 0x20 PUSH1 0x4 DUP3 ADD MSTORE PUSH1 0x23 PUSH1 0x24 DUP3 ADD MSTORE PUSH32 0x596F7520617265206F766572706179696E6720666F72207768617420796F7520 PUSH1 0x44 DUP3 ADD MSTORE PUSH3 0x6F7765 PUSH1 0xE8 SHL PUSH1 0x64 DUP3 ADD MSTORE PUSH1 0x84 ADD PUSH2 0x20C JUMP JUMPDEST DUP2 DUP2 PUSH1 0x1 ADD PUSH1 0x0 DUP3 DUP3 SLOAD PUSH2 0x322 SWAP2 SWAP1 PUSH2 0x29C1 JUMP JUMPDEST SWAP1 SWAP2 SSTORE POP PUSH2 0x331 SWAP1 POP DUP4 PUSH2 0x795 JUMP JUMPDEST POP POP POP JUMP JUMPDEST PUSH1 0x0 DUP3 SGT PUSH2 0x356 JUMPI PUSH1 0x40 MLOAD PUSH3 0x461BCD PUSH1 0xE5 SHL DUP2 MSTORE PUSH1 0x4 ADD PUSH2 0x20C SWAP1 PUSH2 0x291A JUMP JUMPDEST PUSH1 0x1 PUSH1 0x1 PUSH1 0xA0 SHL SUB DUP4 AND PUSH1 0x0 SWAP1 DUP2 MSTORE PUSH1 0x1 PUSH1 0x20 MSTORE PUSH1 0x40 SWAP1 KECCAK256 PUSH1 0x3 DUP2 ADD SLOAD PUSH1 0xFF AND ISZERO PUSH2 0x39A JUMPI DUP3 DUP2 PUSH1 0x1 ADD PUSH1 0x0 DUP3 DUP3 SLOAD PUSH2 0x38F SWAP2 SWAP1 PUSH2 0x29C1 JUMP JUMPDEST SWAP1 SWAP2 SSTORE POP PUSH2 0x45D SWAP1 POP JUMP JUMPDEST PUSH1 0x40 DUP1 MLOAD PUSH1 0xA0 DUP2 ADD DUP3 MSTORE PUSH1 0x1 PUSH1 0x1 PUSH1 0xA0 SHL SUB DUP1 DUP8 AND DUP1 DUP4 MSTORE PUSH1 0x20 DUP1 DUP5 ADD DUP9 DUP2 MSTORE DUP5 DUP7 ADD DUP9 DUP2 MSTORE PUSH1 0x1 PUSH1 0x60 DUP8 ADD DUP2 DUP2 MSTORE TIMESTAMP PUSH1 0x80 DUP10 ADD SWAP1 DUP2 MSTORE PUSH1 0x0 DUP8 DUP2 MSTORE SWAP6 DUP4 SWAP1 MSTORE SWAP9 DUP6 KECCAK256 SWAP8 MLOAD DUP9 SLOAD SWAP8 AND PUSH1 0x1 PUSH1 0x1 PUSH1 0xA0 SHL SUB NOT SWAP8 DUP9 AND OR DUP9 SSTORE SWAP3 MLOAD DUP8 DUP3 ADD SSTORE SWAP1 MLOAD PUSH1 0x2 DUP1 DUP9 ADD SWAP2 SWAP1 SWAP2 SSTORE SWAP2 MLOAD PUSH1 0x3 DUP8 ADD DUP1 SLOAD SWAP2 ISZERO ISZERO PUSH1 0xFF NOT SWAP1 SWAP3 AND SWAP2 SWAP1 SWAP2 OR SWAP1 SSTORE SWAP6 MLOAD PUSH1 0x4 SWAP1 SWAP6 ADD SWAP5 SWAP1 SWAP5 SSTORE DUP4 SLOAD SWAP5 DUP6 ADD DUP5 SSTORE SWAP3 SWAP1 SWAP3 MSTORE PUSH32 0x405787FA12A823E0F2B7631CC41B3BA8828B3321CA811111FA75CD3AA3BB5ACE SWAP1 SWAP3 ADD DUP1 SLOAD SWAP1 SWAP3 AND OR SWAP1 SSTORE JUMPDEST POP POP POP POP JUMP JUMPDEST PUSH1 0x1 PUSH1 0x1 PUSH1 0xA0 SHL SUB DUP3 AND PUSH1 0x0 SWAP1 DUP2 MSTORE PUSH1 0x1 PUSH1 0x20 MSTORE PUSH1 0x40 SWAP1 KECCAK256 PUSH1 0x3 DUP2 ADD SLOAD TIMESTAMP SWAP1 PUSH1 0xFF AND ISZERO PUSH2 0x45D JUMPI PUSH2 0x4AC DUP3 PUSH1 0x1 ADD SLOAD DUP4 PUSH1 0x2 ADD SLOAD DUP5 PUSH1 0x4 ADD SLOAD DUP5 PUSH2 0x4A7 SWAP2 SWAP1 PUSH2 0x2A02 JUMP JUMPDEST PUSH2 0x7FA JUMP JUMPDEST PUSH1 0x1 DUP4 ADD SSTORE PUSH1 0x4 DUP3 ADD SSTORE PUSH1 0x2 ADD SSTORE POP JUMP JUMPDEST PUSH1 0x0 DUP2 SGT PUSH2 0x4DD JUMPI PUSH1 0x40 MLOAD PUSH3 0x461BCD PUSH1 0xE5 SHL DUP2 MSTORE PUSH1 0x4 ADD PUSH2 0x20C SWAP1 PUSH2 0x291A JUMP JUMPDEST PUSH1 0x1 PUSH1 0x1 PUSH1 0xA0 SHL SUB DUP3 AND PUSH1 0x0 SWAP1 DUP2 MSTORE PUSH1 0x1 PUSH1 0x20 MSTORE PUSH1 0x40 SWAP1 KECCAK256 PUSH1 0x3 DUP2 ADD SLOAD PUSH1 0xFF AND PUSH2 0x519 JUMPI PUSH1 0x40 MLOAD PUSH3 0x461BCD PUSH1 0xE5 SHL DUP2 MSTORE PUSH1 0x4 ADD PUSH2 0x20C SWAP1 PUSH2 0x2946 JUMP JUMPDEST PUSH1 0x0 DUP2 PUSH1 0x1 ADD SLOAD SGT PUSH2 0x581 JUMPI PUSH1 0x40 MLOAD PUSH3 0x461BCD PUSH1 0xE5 SHL DUP2 MSTORE PUSH1 0x20 PUSH1 0x4 DUP3 ADD MSTORE PUSH1 0x2B PUSH1 0x24 DUP3 ADD MSTORE PUSH32 0x596F75722062616C616E636520666F72207468697320746F6B656E206973206E PUSH1 0x44 DUP3 ADD MSTORE PUSH11 0x6F7420706F736974697665 PUSH1 0xA8 SHL PUSH1 0x64 DUP3 ADD MSTORE PUSH1 0x84 ADD PUSH2 0x20C JUMP JUMPDEST DUP1 PUSH1 0x1 ADD SLOAD DUP3 SGT ISZERO PUSH2 0x5EA JUMPI PUSH1 0x40 MLOAD PUSH3 0x461BCD PUSH1 0xE5 SHL DUP2 MSTORE PUSH1 0x20 PUSH1 0x4 DUP3 ADD MSTORE PUSH1 0x2C PUSH1 0x24 DUP3 ADD MSTORE PUSH32 0x596F75206861766520696E73756666696369656E742062616C616E636520666F PUSH1 0x44 DUP3 ADD MSTORE PUSH12 0x39103A3434B9903A37B5B2B7 PUSH1 0xA1 SHL PUSH1 0x64 DUP3 ADD MSTORE PUSH1 0x84 ADD PUSH2 0x20C JUMP JUMPDEST DUP2 DUP2 PUSH1 0x1 ADD PUSH1 0x0 DUP3 DUP3 SLOAD PUSH2 0x322 SWAP2 SWAP1 PUSH2 0x2A19 JUMP JUMPDEST PUSH1 0x0 DUP1 PUSH1 0x0 DUP1 PUSH1 0x2 DUP6 DUP2 SLOAD DUP2 LT PUSH2 0x617 JUMPI PUSH2 0x617 PUSH2 0x2A58 JUMP JUMPDEST PUSH1 0x0 SWAP2 DUP3 MSTORE PUSH1 0x20 DUP1 DUP4 KECCAK256 SWAP1 SWAP2 ADD SLOAD PUSH1 0x1 PUSH1 0x1 PUSH1 0xA0 SHL SUB AND DUP1 DUP4 MSTORE PUSH1 0x1 SWAP2 DUP3 SWAP1 MSTORE PUSH1 0x40 SWAP1 SWAP3 KECCAK256 SWAP1 DUP2 ADD SLOAD PUSH1 0x3 SWAP1 SWAP2 ADD SLOAD SWAP2 SWAP6 POP SWAP4 POP PUSH1 0xFF AND SWAP2 POP POP SWAP3 POP SWAP3 POP SWAP3 JUMP JUMPDEST PUSH1 0x0 DUP3 SGT PUSH2 0x678 JUMPI PUSH1 0x40 MLOAD PUSH3 0x461BCD PUSH1 0xE5 SHL DUP2 MSTORE PUSH1 0x4 ADD PUSH2 0x20C SWAP1 PUSH2 0x291A JUMP JUMPDEST PUSH1 0x1 PUSH1 0x1 PUSH1 0xA0 SHL SUB DUP4 AND PUSH1 0x0 SWAP1 DUP2 MSTORE PUSH1 0x1 PUSH1 0x20 MSTORE PUSH1 0x40 SWAP1 KECCAK256 PUSH1 0x3 DUP2 ADD SLOAD PUSH1 0xFF AND ISZERO PUSH2 0x6B1 JUMPI DUP3 DUP2 PUSH1 0x1 ADD PUSH1 0x0 DUP3 DUP3 SLOAD PUSH2 0x38F SWAP2 SWAP1 PUSH2 0x2A19 JUMP JUMPDEST PUSH1 0x40 MLOAD DUP1 PUSH1 0xA0 ADD PUSH1 0x40 MSTORE DUP1 DUP6 PUSH1 0x1 PUSH1 0x1 PUSH1 0xA0 SHL SUB AND DUP2 MSTORE PUSH1 0x20 ADD DUP5 PUSH2 0x6D5 SWAP1 PUSH2 0x29A4 JUMP JUMPDEST DUP2 MSTORE PUSH1 0x20 DUP1 DUP3 ADD SWAP5 SWAP1 SWAP5 MSTORE PUSH1 0x1 PUSH1 0x40 DUP1 DUP4 ADD DUP3 SWAP1 MSTORE TIMESTAMP PUSH1 0x60 SWAP4 DUP5 ADD MSTORE PUSH1 0x1 PUSH1 0x1 PUSH1 0xA0 SHL SUB SWAP8 DUP9 AND PUSH1 0x0 DUP2 DUP2 MSTORE DUP4 DUP9 MSTORE DUP3 DUP2 KECCAK256 DUP7 MLOAD DUP2 SLOAD PUSH1 0x1 PUSH1 0x1 PUSH1 0xA0 SHL SUB NOT SWAP1 DUP2 AND SWAP2 SWAP1 SWAP13 AND OR DUP2 SSTORE SWAP8 DUP7 ADD MLOAD DUP9 DUP6 ADD SSTORE SWAP2 DUP6 ADD MLOAD PUSH1 0x2 DUP1 DUP10 ADD SWAP2 SWAP1 SWAP2 SSTORE SWAP4 DUP6 ADD MLOAD PUSH1 0x3 DUP9 ADD DUP1 SLOAD PUSH1 0xFF NOT AND SWAP2 ISZERO ISZERO SWAP2 SWAP1 SWAP2 OR SWAP1 SSTORE PUSH1 0x80 SWAP1 SWAP5 ADD MLOAD PUSH1 0x4 SWAP1 SWAP7 ADD SWAP6 SWAP1 SWAP6 SSTORE DUP2 SLOAD SWAP1 DUP2 ADD DUP3 SSTORE SWAP4 MSTORE PUSH32 0x405787FA12A823E0F2B7631CC41B3BA8828B3321CA811111FA75CD3AA3BB5ACE SWAP1 SWAP3 ADD DUP1 SLOAD SWAP1 SWAP5 AND SWAP1 SWAP2 OR SWAP1 SWAP3 SSTORE POP POP JUMP JUMPDEST PUSH1 0x1 PUSH1 0x1 PUSH1 0xA0 SHL SUB DUP2 AND PUSH1 0x0 SWAP1 DUP2 MSTORE PUSH1 0x1 PUSH1 0x20 MSTORE PUSH1 0x40 SWAP1 KECCAK256 PUSH1 0x3 DUP2 ADD SLOAD PUSH1 0xFF AND DUP1 ISZERO PUSH2 0x7C5 JUMPI POP PUSH1 0x5 DUP2 PUSH1 0x1 ADD SLOAD SLT JUMPDEST DUP1 ISZERO PUSH2 0x7DD JUMPI POP PUSH2 0x7D6 PUSH1 0x5 PUSH2 0x29A4 JUMP JUMPDEST DUP2 PUSH1 0x1 ADD SLOAD SGT JUMPDEST ISZERO PUSH2 0x7F6 JUMPI PUSH1 0x0 PUSH1 0x1 DUP3 ADD SSTORE PUSH1 0x3 DUP2 ADD DUP1 SLOAD PUSH1 0xFF NOT AND SWAP1 SSTORE JUMPDEST POP POP JUMP JUMPDEST PUSH1 0x0 PUSH2 0x865 PUSH2 0x860 PUSH2 0x80B DUP7 PUSH2 0x86D JUMP JUMPDEST PUSH2 0x856 PUSH2 0x85B PUSH2 0x81A DUP8 PUSH2 0x900 JUMP JUMPDEST PUSH2 0x856 PUSH2 0x851 PUSH2 0x82A PUSH1 0x1 PUSH2 0x900 JUMP JUMPDEST PUSH2 0x84C PUSH2 0x836 DUP14 PUSH2 0x900 JUMP JUMPDEST PUSH2 0x847 PUSH8 0xDE0B6B3A7640000 PUSH2 0x900 JUMP JUMPDEST PUSH2 0x964 JUMP JUMPDEST PUSH2 0xC1E JUMP JUMPDEST PUSH2 0xFEE JUMP JUMPDEST PUSH2 0x11A1 JUMP JUMPDEST PUSH2 0x13EC JUMP JUMPDEST PUSH2 0x273F JUMP JUMPDEST SWAP5 SWAP4 POP POP POP POP JUMP JUMPDEST PUSH1 0x0 DUP2 PUSH2 0x87C JUMPI POP PUSH1 0x0 SWAP2 SWAP1 POP JUMP JUMPDEST PUSH1 0x0 DUP1 DUP4 SGT PUSH2 0x88E JUMPI DUP3 PUSH1 0x0 SUB PUSH2 0x890 JUMP JUMPDEST DUP3 JUMPDEST SWAP1 POP PUSH1 0x0 PUSH2 0x89D DUP3 PUSH2 0x27ED JUMP JUMPDEST SWAP1 POP PUSH1 0x70 DUP2 LT ISZERO PUSH2 0x8B6 JUMPI DUP1 PUSH1 0x70 SUB DUP3 SWAP1 SHL SWAP2 POP PUSH2 0x8C9 JUMP JUMPDEST PUSH1 0x70 DUP2 GT ISZERO PUSH2 0x8C9 JUMPI PUSH1 0x70 DUP2 SUB DUP3 SWAP1 SHR SWAP2 POP JUMPDEST PUSH1 0x1 PUSH1 0x1 PUSH1 0x70 SHL SUB SWAP1 SWAP2 AND PUSH2 0x3FFF DUP3 ADD PUSH1 0x70 SHL OR SWAP1 PUSH1 0x0 DUP5 SLT ISZERO PUSH2 0x8F1 JUMPI PUSH1 0x1 PUSH1 0x7F SHL DUP3 OR SWAP2 POP JUMPDEST POP PUSH1 0x80 SHL SWAP3 SWAP2 POP POP JUMP JUMPDEST SWAP2 SWAP1 POP JUMP JUMPDEST PUSH1 0x0 DUP2 PUSH2 0x90F JUMPI POP PUSH1 0x0 SWAP2 SWAP1 POP JUMP JUMPDEST DUP2 PUSH1 0x0 PUSH2 0x91B DUP3 PUSH2 0x27ED JUMP JUMPDEST SWAP1 POP PUSH1 0x70 DUP2 LT ISZERO PUSH2 0x934 JUMPI DUP1 PUSH1 0x70 SUB DUP3 SWAP1 SHL SWAP2 POP PUSH2 0x947 JUMP JUMPDEST PUSH1 0x70 DUP2 GT ISZERO PUSH2 0x947 JUMPI PUSH1 0x70 DUP2 SUB DUP3 SWAP1 SHR SWAP2 POP JUMPDEST PUSH2 0x3FFF ADD PUSH1 0x70 SHL PUSH1 0x1 PUSH1 0x1 PUSH1 0x70 SHL SUB SWAP2 SWAP1 SWAP2 AND OR PUSH1 0x80 SHL SWAP3 SWAP2 POP POP JUMP JUMPDEST PUSH1 0x0 PUSH2 0x7FFF PUSH1 0xF0 DUP5 DUP2 SHR DUP3 AND SWAP2 SWAP1 DUP5 SWAP1 SHR DUP2 AND SWAP1 DUP3 EQ ISZERO PUSH2 0x9AA JUMPI DUP1 PUSH2 0x7FFF EQ ISZERO PUSH2 0x999 JUMPI POP PUSH2 0xFFFF PUSH1 0xEF SHL SWAP2 POP PUSH2 0xC18 SWAP1 POP JUMP JUMPDEST POP POP POP PUSH1 0x1 PUSH1 0xFF SHL DUP2 AND DUP3 XOR PUSH2 0xC18 JUMP JUMPDEST DUP1 PUSH2 0x7FFF EQ ISZERO PUSH2 0x9EE JUMPI PUSH14 0xFFFFFFFFFFFFFFFFFFFFFFFFFFFF PUSH1 0x80 SHL DUP5 AND ISZERO PUSH2 0x9DD JUMPI POP PUSH2 0xFFFF PUSH1 0xEF SHL SWAP2 POP PUSH2 0xC18 SWAP1 POP JUMP JUMPDEST POP POP POP DUP1 DUP3 XOR PUSH1 0x1 PUSH1 0xFF SHL AND PUSH2 0xC18 JUMP JUMPDEST PUSH1 0x1 PUSH1 0x80 SHL PUSH1 0x1 PUSH1 0xFF SHL SUB DUP5 AND PUSH2 0xA38 JUMPI PUSH1 0x1 PUSH1 0x80 SHL PUSH1 0x1 PUSH1 0xFF SHL SUB DUP6 AND PUSH2 0xA20 JUMPI POP PUSH2 0xFFFF PUSH1 0xEF SHL SWAP2 POP PUSH2 0xC18 SWAP1 POP JUMP JUMPDEST POP POP POP DUP1 DUP3 XOR PUSH1 0x1 PUSH1 0xFF SHL AND PUSH2 0x7FFF PUSH1 0xF0 SHL OR PUSH2 0xC18 JUMP JUMPDEST PUSH1 0x1 PUSH1 0x1 PUSH1 0x70 SHL SUB PUSH1 0x80 DUP6 SWAP1 SHR AND DUP2 PUSH2 0xA54 JUMPI PUSH1 0x1 SWAP2 POP PUSH2 0xA5B JUMP JUMPDEST PUSH1 0x1 PUSH1 0x70 SHL OR JUMPDEST PUSH1 0x1 PUSH1 0x1 PUSH1 0x70 SHL SUB PUSH1 0x80 DUP8 SWAP1 SHR AND DUP4 PUSH2 0xA9A JUMPI DUP1 ISZERO PUSH2 0xA95 JUMPI PUSH1 0x0 PUSH2 0xA7F DUP3 PUSH2 0x27ED JUMP JUMPDEST PUSH1 0x1 SWAP6 POP PUSH1 0xE2 SUB SWAP4 DUP5 ADD PUSH1 0x71 NOT ADD SWAP4 SWAP2 SWAP1 SWAP2 SHL SWAP1 POP JUMPDEST PUSH2 0xAA4 JUMP JUMPDEST PUSH1 0x1 PUSH1 0x70 SHL OR PUSH1 0x72 SHL JUMPDEST DUP2 DUP2 DUP2 PUSH2 0xAB3 JUMPI PUSH2 0xAB3 PUSH2 0x2A6E JUMP JUMPDEST DIV SWAP1 POP DUP1 PUSH2 0xAE0 JUMPI PUSH1 0x1 PUSH1 0xFF SHL DUP8 DUP8 XOR AND PUSH2 0xACF JUMPI PUSH1 0x0 PUSH2 0xAD5 JUMP JUMPDEST PUSH1 0x1 PUSH1 0xFF SHL JUMPDEST SWAP5 POP POP POP POP POP PUSH2 0xC18 JUMP JUMPDEST PUSH1 0x1 PUSH1 0x6C SHL DUP2 LT ISZERO PUSH2 0xAF4 JUMPI PUSH2 0xAF4 PUSH2 0x2A84 JUMP JUMPDEST PUSH1 0x0 PUSH1 0x1 PUSH1 0x73 SHL DUP3 LT ISZERO PUSH2 0xB33 JUMPI PUSH1 0x1 PUSH1 0x72 SHL DUP3 LT ISZERO PUSH2 0xB28 JUMPI PUSH1 0x1 PUSH1 0x71 SHL DUP3 LT ISZERO PUSH2 0xB21 JUMPI PUSH1 0x70 PUSH2 0xB2B JUMP JUMPDEST PUSH1 0x71 PUSH2 0xB2B JUMP JUMPDEST PUSH1 0x72 JUMPDEST PUSH1 0xFF AND PUSH2 0xB3C JUMP JUMPDEST PUSH2 0xB3C DUP3 PUSH2 0x27ED JUMP JUMPDEST SWAP1 POP DUP4 PUSH2 0x4071 ADD DUP2 DUP7 ADD GT ISZERO PUSH2 0xB5A JUMPI PUSH2 0x7FFF SWAP5 POP PUSH1 0x0 SWAP2 POP PUSH2 0xBED JUMP JUMPDEST DUP4 DUP2 DUP7 ADD PUSH2 0x3FFC ADD LT ISZERO PUSH2 0xB75 JUMPI PUSH1 0x0 SWAP5 POP PUSH1 0x0 SWAP2 POP PUSH2 0xBED JUMP JUMPDEST DUP4 DUP2 DUP7 ADD PUSH2 0x3F8C ADD LT ISZERO PUSH2 0xBC2 JUMPI DUP4 DUP6 PUSH2 0x3FFC ADD GT ISZERO PUSH2 0xBA0 JUMPI DUP4 DUP6 PUSH2 0x3FFC ADD SUB DUP3 SWAP1 SHL SWAP2 POP PUSH2 0xBB9 JUMP JUMPDEST DUP4 DUP6 PUSH2 0x3FFC ADD LT ISZERO PUSH2 0xBB9 JUMPI PUSH2 0x3FFC DUP6 DUP6 SUB SUB DUP3 SWAP1 SHR SWAP2 POP JUMPDEST PUSH1 0x0 SWAP5 POP PUSH2 0xBED JUMP JUMPDEST PUSH1 0x70 DUP2 GT ISZERO PUSH2 0xBD5 JUMPI PUSH1 0x70 DUP2 SUB DUP3 SWAP1 SHR SWAP2 POP JUMPDEST PUSH1 0x1 PUSH1 0x1 PUSH1 0x70 SHL SUB DUP3 AND SWAP2 POP DUP4 DUP2 DUP7 ADD PUSH2 0x3F8D ADD SUB SWAP5 POP JUMPDEST DUP2 PUSH1 0x70 DUP7 SWAP1 SHL DUP9 DUP11 XOR PUSH1 0x1 PUSH1 0x7F SHL PUSH1 0x80 SHL AND PUSH1 0x80 SHR PUSH1 0x1 PUSH1 0x1 PUSH1 0x80 SHL SUB AND OR OR PUSH1 0x80 SHL SWAP6 POP POP POP POP POP POP JUMPDEST SWAP3 SWAP2 POP POP JUMP JUMPDEST PUSH1 0x0 PUSH2 0x7FFF PUSH1 0xF0 DUP5 DUP2 SHR DUP3 AND SWAP2 SWAP1 DUP5 SWAP1 SHR DUP2 AND SWAP1 DUP3 EQ ISZERO PUSH2 0xC7C JUMPI DUP1 PUSH2 0x7FFF EQ ISZERO PUSH2 0xC72 JUMPI PUSH1 0x1 PUSH1 0x1 PUSH1 0x80 SHL SUB NOT DUP6 DUP2 AND SWAP1 DUP6 AND EQ ISZERO PUSH2 0xC62 JUMPI DUP5 SWAP3 POP POP POP PUSH2 0xC18 JUMP JUMPDEST POP PUSH2 0xFFFF PUSH1 0xEF SHL SWAP2 POP PUSH2 0xC18 SWAP1 POP JUMP JUMPDEST DUP5 SWAP3 POP POP POP PUSH2 0xC18 JUMP JUMPDEST DUP1 PUSH2 0x7FFF EQ ISZERO PUSH2 0xC90 JUMPI DUP4 SWAP3 POP POP POP PUSH2 0xC18 JUMP JUMPDEST PUSH1 0x1 PUSH1 0x7F SHL PUSH1 0x80 DUP7 SWAP1 SHR SWAP1 DUP2 LT ISZERO SWAP1 PUSH1 0x1 PUSH1 0x1 PUSH1 0x70 SHL SUB AND DUP4 PUSH2 0xCB6 JUMPI PUSH1 0x1 SWAP4 POP PUSH2 0xCBD JUMP JUMPDEST PUSH1 0x1 PUSH1 0x70 SHL OR JUMPDEST PUSH1 0x1 PUSH1 0x7F SHL PUSH1 0x80 DUP8 SWAP1 SHR SWAP1 DUP2 LT ISZERO SWAP1 PUSH1 0x1 PUSH1 0x1 PUSH1 0x70 SHL SUB AND DUP5 PUSH2 0xCE3 JUMPI PUSH1 0x1 SWAP5 POP PUSH2 0xCEA JUMP JUMPDEST PUSH1 0x1 PUSH1 0x70 SHL OR JUMPDEST DUP3 PUSH2 0xD1A JUMPI PUSH1 0x1 PUSH1 0x1 PUSH1 0x80 SHL SUB NOT DUP9 AND PUSH1 0x1 PUSH1 0xFF SHL EQ PUSH2 0xD0A JUMPI DUP8 PUSH2 0xD0D JUMP JUMPDEST PUSH1 0x0 JUMPDEST SWAP7 POP POP POP POP POP POP POP PUSH2 0xC18 JUMP JUMPDEST DUP1 PUSH2 0xD3A JUMPI PUSH1 0x1 PUSH1 0x1 PUSH1 0x80 SHL SUB NOT DUP10 AND PUSH1 0x1 PUSH1 0xFF SHL EQ PUSH2 0xD0A JUMPI DUP9 PUSH2 0xD0D JUMP JUMPDEST DUP5 DUP7 SUB DUP5 ISZERO ISZERO DUP4 ISZERO ISZERO EQ ISZERO PUSH2 0xE45 JUMPI PUSH1 0x70 DUP2 SGT ISZERO PUSH2 0xD61 JUMPI DUP10 SWAP8 POP POP POP POP POP POP POP POP PUSH2 0xC18 JUMP JUMPDEST PUSH1 0x0 DUP2 SGT ISZERO PUSH2 0xD73 JUMPI SWAP1 DUP2 SHR SWAP1 PUSH2 0xDA2 JUMP JUMPDEST PUSH1 0x6F NOT DUP2 SLT ISZERO PUSH2 0xD8C JUMPI DUP9 SWAP8 POP POP POP POP POP POP POP POP PUSH2 0xC18 JUMP JUMPDEST PUSH1 0x0 DUP2 SLT ISZERO PUSH2 0xDA2 JUMPI DUP1 PUSH1 0x0 SUB DUP5 SWAP1 SHR SWAP4 POP DUP6 SWAP7 POP JUMPDEST SWAP3 DUP2 ADD SWAP3 PUSH1 0x1 PUSH1 0x71 SHL DUP5 LT PUSH2 0xDBD JUMPI PUSH1 0x1 SWAP7 DUP8 ADD SWAP7 SWAP4 SWAP1 SWAP4 SHR SWAP3 JUMPDEST DUP7 PUSH2 0x7FFF EQ ISZERO PUSH2 0xDEF JUMPI DUP5 PUSH2 0xDD7 JUMPI PUSH2 0x7FFF PUSH1 0xF0 SHL PUSH2 0xDE1 JUMP JUMPDEST PUSH1 0x1 PUSH1 0x1 PUSH1 0xF0 SHL SUB NOT JUMPDEST SWAP8 POP POP POP POP POP POP POP POP PUSH2 0xC18 JUMP JUMPDEST PUSH1 0x1 PUSH1 0x70 SHL DUP5 LT ISZERO PUSH2 0xE04 JUMPI PUSH1 0x0 SWAP7 POP PUSH2 0xE11 JUMP JUMPDEST PUSH1 0x1 PUSH1 0x1 PUSH1 0x70 SHL SUB DUP5 AND SWAP4 POP JUMPDEST DUP4 PUSH1 0x70 DUP9 SWAP1 SHL DUP7 PUSH2 0xE23 JUMPI PUSH1 0x0 PUSH2 0xE29 JUMP JUMPDEST PUSH1 0x1 PUSH1 0x7F SHL JUMPDEST PUSH1 0x1 PUSH1 0x1 PUSH1 0x80 SHL SUB AND OR OR PUSH1 0x80 SHL SWAP8 POP POP POP POP POP POP POP POP PUSH2 0xC18 JUMP JUMPDEST PUSH1 0x0 DUP2 SGT ISZERO PUSH2 0xE60 JUMPI PUSH1 0x1 DUP5 SWAP1 SHL SWAP4 POP PUSH1 0x1 DUP8 SUB SWAP7 POP PUSH2 0xE77 JUMP JUMPDEST PUSH1 0x0 DUP2 SLT ISZERO PUSH2 0xE77 JUMPI PUSH1 0x1 DUP3 SWAP1 SHL SWAP2 POP PUSH1 0x1 DUP7 SUB SWAP7 POP JUMPDEST PUSH1 0x70 DUP2 SGT ISZERO PUSH2 0xE89 JUMPI PUSH1 0x1 SWAP2 POP PUSH2 0xED6 JUMP JUMPDEST PUSH1 0x1 DUP2 SGT ISZERO PUSH2 0xEA6 JUMPI PUSH1 0x1 DUP2 SUB PUSH1 0x1 DUP4 SUB SWAP1 SHR PUSH1 0x1 ADD SWAP2 POP PUSH2 0xED6 JUMP JUMPDEST PUSH1 0x6F NOT DUP2 SLT ISZERO PUSH2 0xEB9 JUMPI PUSH1 0x1 SWAP4 POP PUSH2 0xED6 JUMP JUMPDEST PUSH1 0x0 NOT DUP2 SLT ISZERO PUSH2 0xED6 JUMPI PUSH1 0x1 DUP2 PUSH1 0x0 SUB SUB PUSH1 0x1 DUP6 SUB SWAP1 SHR PUSH1 0x1 ADD SWAP4 POP JUMPDEST DUP2 DUP5 LT PUSH2 0xEE7 JUMPI DUP2 DUP5 SUB SWAP4 POP PUSH2 0xEF0 JUMP JUMPDEST DUP4 DUP3 SUB SWAP4 POP DUP3 SWAP5 POP JUMPDEST DUP4 PUSH2 0xF06 JUMPI POP PUSH1 0x0 SWAP7 POP PUSH2 0xC18 SWAP6 POP POP POP POP POP POP JUMP JUMPDEST PUSH1 0x0 PUSH2 0xF11 DUP6 PUSH2 0x27ED JUMP JUMPDEST SWAP1 POP DUP1 PUSH1 0x71 EQ ISZERO PUSH2 0xF37 JUMPI PUSH1 0x1 DUP6 SWAP1 SHR PUSH1 0x1 PUSH1 0x1 PUSH1 0x70 SHL SUB AND SWAP5 POP PUSH1 0x1 DUP9 ADD SWAP8 POP PUSH2 0xF86 JUMP JUMPDEST PUSH1 0x70 DUP2 LT ISZERO PUSH2 0xF79 JUMPI PUSH1 0x70 DUP2 SWAP1 SUB DUP1 DUP10 GT ISZERO PUSH2 0xF66 JUMPI DUP1 DUP7 SWAP1 SHL PUSH1 0x1 PUSH1 0x1 PUSH1 0x70 SHL SUB AND SWAP6 POP DUP1 DUP10 SUB SWAP9 POP PUSH2 0xF73 JUMP JUMPDEST PUSH1 0x0 SWAP9 PUSH1 0x0 NOT ADD SWAP6 SWAP1 SWAP6 SHL SWAP5 JUMPDEST POP PUSH2 0xF86 JUMP JUMPDEST PUSH1 0x1 PUSH1 0x1 PUSH1 0x70 SHL SUB DUP6 AND SWAP5 POP JUMPDEST DUP8 PUSH2 0x7FFF EQ ISZERO PUSH2 0xFB9 JUMPI DUP6 PUSH2 0xFA0 JUMPI PUSH2 0x7FFF PUSH1 0xF0 SHL PUSH2 0xFAA JUMP JUMPDEST PUSH1 0x1 PUSH1 0x1 PUSH1 0xF0 SHL SUB NOT JUMPDEST SWAP9 POP POP POP POP POP POP POP POP POP PUSH2 0xC18 JUMP JUMPDEST DUP5 PUSH1 0x70 DUP10 SWAP1 SHL DUP8 PUSH2 0xFCB JUMPI PUSH1 0x0 PUSH2 0xFD1 JUMP JUMPDEST PUSH1 0x1 PUSH1 0x7F SHL JUMPDEST PUSH1 0x1 PUSH1 0x1 PUSH1 0x80 SHL SUB AND OR OR PUSH1 0x80 SHL SWAP9 POP POP POP POP POP POP POP POP POP PUSH2 0xC18 JUMP JUMPDEST PUSH1 0x0 PUSH1 0x1 PUSH1 0x7F SHL PUSH1 0x80 DUP4 SWAP1 SHR GT ISZERO PUSH2 0x100C JUMPI POP PUSH2 0xFFFF PUSH1 0xEF SHL SWAP2 SWAP1 POP JUMP JUMPDEST PUSH2 0x3FFF PUSH1 0xF0 SHL PUSH1 0x1 PUSH1 0x1 PUSH1 0x80 SHL SUB NOT DUP4 AND EQ ISZERO PUSH2 0x102B JUMPI POP PUSH1 0x0 SWAP2 SWAP1 POP JUMP JUMPDEST PUSH2 0x7FFF PUSH1 0xF0 DUP4 SWAP1 SHR DUP2 AND SWAP1 DUP2 EQ ISZERO PUSH2 0x1044 JUMPI POP SWAP1 SWAP2 SWAP1 POP JUMP JUMPDEST PUSH1 0x1 PUSH1 0x1 PUSH1 0x70 SHL SUB PUSH1 0x80 DUP5 SWAP1 SHR AND DUP2 PUSH2 0x1060 JUMPI PUSH1 0x1 SWAP2 POP PUSH2 0x1067 JUMP JUMPDEST PUSH1 0x1 PUSH1 0x70 SHL OR JUMPDEST DUP1 PUSH2 0x107D JUMPI POP PUSH1 0x1 PUSH1 0x1 PUSH1 0xF0 SHL SUB NOT SWAP4 SWAP3 POP POP POP JUMP JUMPDEST PUSH1 0x0 PUSH2 0x406F DUP2 PUSH2 0x3FFF DUP6 LT PUSH2 0x10A3 JUMPI POP PUSH1 0xF SWAP3 SWAP1 SWAP3 SHL SWAP2 PUSH1 0x0 SWAP2 POP PUSH2 0x3FFE NOT DUP5 ADD PUSH2 0x10E2 JUMP JUMPDEST PUSH1 0x1 SWAP3 POP PUSH1 0x1 PUSH1 0x70 SHL DUP5 LT PUSH2 0x10C5 JUMPI DUP5 PUSH2 0x3FFE SUB SWAP1 POP PUSH1 0xF DUP5 SWAP1 SHL SWAP4 POP PUSH2 0x10E2 JUMP JUMPDEST PUSH1 0x0 PUSH2 0x10D0 DUP6 PUSH2 0x27ED JUMP JUMPDEST PUSH1 0x7F DUP2 SWAP1 SUB SWAP6 SWAP1 SWAP6 SHL SWAP5 PUSH2 0x406D SUB SWAP2 POP POP JUMPDEST DUP4 PUSH1 0x1 PUSH1 0x7F SHL EQ ISZERO PUSH2 0x1119 JUMPI DUP3 ISZERO PUSH2 0x10F8 JUMPI PUSH1 0x1 ADD JUMPDEST PUSH1 0x0 PUSH2 0x1103 DUP3 PUSH2 0x27ED JUMP JUMPDEST PUSH1 0x70 SUB SWAP1 POP DUP1 DUP3 SWAP1 SHL SWAP2 POP DUP1 DUP4 SUB SWAP3 POP POP PUSH2 0x1167 JUMP JUMPDEST PUSH1 0x0 DUP4 PUSH2 0x1127 JUMPI PUSH1 0x0 PUSH2 0x112A JUMP JUMPDEST PUSH1 0x1 JUMPDEST PUSH1 0xFF AND SWAP1 POP JUMPDEST PUSH1 0x1 PUSH1 0x70 SHL DUP3 LT ISZERO PUSH2 0x1165 JUMPI SWAP4 DUP1 MUL PUSH1 0xFF DUP2 SWAP1 SHR PUSH1 0x7F DUP2 ADD SWAP2 SWAP1 SWAP2 SHR SWAP5 PUSH1 0x0 NOT SWAP4 SWAP1 SWAP4 ADD SWAP3 PUSH1 0x1 SWAP3 SWAP1 SWAP3 SHL SWAP1 DUP3 XOR ADD SWAP1 PUSH2 0x1130 JUMP JUMPDEST POP JUMPDEST DUP1 PUSH1 0x1 PUSH1 0x1 PUSH1 0x70 SHL SUB AND PUSH1 0x70 DUP4 SWAP1 SHL DUP5 PUSH2 0x1182 JUMPI PUSH1 0x0 PUSH2 0x1188 JUMP JUMPDEST PUSH1 0x1 PUSH1 0x7F SHL JUMPDEST PUSH1 0x1 PUSH1 0x1 PUSH1 0x80 SHL SUB AND OR OR PUSH1 0x80 SHL SWAP8 SWAP7 POP POP POP POP POP POP POP JUMP JUMPDEST PUSH1 0x0 PUSH2 0x7FFF PUSH1 0xF0 DUP5 DUP2 SHR DUP3 AND SWAP2 SWAP1 DUP5 SWAP1 SHR DUP2 AND SWAP1 DUP3 EQ ISZERO PUSH2 0x1230 JUMPI DUP1 PUSH2 0x7FFF EQ ISZERO PUSH2 0x120F JUMPI PUSH1 0x1 PUSH1 0x1 PUSH1 0x80 SHL SUB NOT DUP6 DUP2 AND SWAP1 DUP6 AND EQ ISZERO PUSH2 0x11EC JUMPI POP POP POP PUSH1 0x1 PUSH1 0xFF SHL DUP2 AND DUP3 XOR PUSH2 0xC18 JUMP JUMPDEST PUSH1 0x1 PUSH1 0xFF SHL PUSH1 0x1 PUSH1 0x1 PUSH1 0x80 SHL SUB NOT DUP7 DUP7 XOR AND EQ ISZERO PUSH2 0xC62 JUMPI POP POP POP DUP2 DUP2 OR PUSH2 0xC18 JUMP JUMPDEST PUSH1 0x1 PUSH1 0x80 SHL PUSH1 0x1 PUSH1 0xFF SHL SUB DUP5 AND PUSH2 0x999 JUMPI POP PUSH2 0xFFFF PUSH1 0xEF SHL SWAP2 POP PUSH2 0xC18 SWAP1 POP JUMP JUMPDEST DUP1 PUSH2 0x7FFF EQ ISZERO PUSH2 0x126C JUMPI PUSH1 0x1 PUSH1 0x80 SHL PUSH1 0x1 PUSH1 0xFF SHL SUB DUP6 AND PUSH2 0x125B JUMPI POP PUSH2 0xFFFF PUSH1 0xEF SHL SWAP2 POP PUSH2 0xC18 SWAP1 POP JUMP JUMPDEST POP POP POP PUSH1 0x1 PUSH1 0xFF SHL DUP3 AND DUP2 XOR PUSH2 0xC18 JUMP JUMPDEST PUSH1 0x1 PUSH1 0x1 PUSH1 0x70 SHL SUB PUSH1 0x80 DUP7 SWAP1 SHR AND DUP3 PUSH2 0x1288 JUMPI PUSH1 0x1 SWAP3 POP PUSH2 0x128F JUMP JUMPDEST PUSH1 0x1 PUSH1 0x70 SHL OR JUMPDEST PUSH1 0x1 PUSH1 0x1 PUSH1 0x70 SHL SUB PUSH1 0x80 DUP7 SWAP1 SHR AND DUP3 PUSH2 0x12AB JUMPI PUSH1 0x1 SWAP3 POP PUSH2 0x12B2 JUMP JUMPDEST PUSH1 0x1 PUSH1 0x70 SHL OR JUMPDEST SWAP1 DUP2 MUL SWAP1 DUP2 PUSH2 0x12CF JUMPI PUSH1 0x1 PUSH1 0xFF SHL DUP8 DUP8 XOR AND PUSH2 0xACF JUMPI PUSH1 0x0 PUSH2 0xAD5 JUMP JUMPDEST SWAP3 DUP3 ADD SWAP3 PUSH1 0x0 PUSH1 0x1 PUSH1 0xE1 SHL DUP4 LT ISZERO PUSH2 0x1302 JUMPI PUSH1 0x1 PUSH1 0xE0 SHL DUP4 LT ISZERO PUSH2 0x12FB JUMPI PUSH2 0x12F6 DUP4 PUSH2 0x27ED JUMP JUMPDEST PUSH2 0x1305 JUMP JUMPDEST PUSH1 0xE0 PUSH2 0x1305 JUMP JUMPDEST PUSH1 0xE1 JUMPDEST SWAP1 POP PUSH2 0x4070 DUP2 DUP7 ADD LT ISZERO PUSH2 0x1320 JUMPI PUSH1 0x0 SWAP5 POP PUSH1 0x0 SWAP3 POP PUSH2 0x13BD JUMP JUMPDEST PUSH2 0x40E0 DUP2 DUP7 ADD LT ISZERO PUSH2 0x1363 JUMPI PUSH2 0x4070 DUP6 LT ISZERO PUSH2 0x1345 JUMPI DUP5 PUSH2 0x4070 SUB DUP4 SWAP1 SHR SWAP3 POP PUSH2 0x135A JUMP JUMPDEST PUSH2 0x4070 DUP6 GT ISZERO PUSH2 0x135A JUMPI PUSH2 0x4070 DUP6 SUB DUP4 SWAP1 SHL SWAP3 POP JUMPDEST PUSH1 0x0 SWAP5 POP PUSH2 0x13BD JUMP JUMPDEST PUSH2 0xC0DD DUP2 DUP7 ADD GT ISZERO PUSH2 0x137D JUMPI PUSH2 0x7FFF SWAP5 POP PUSH1 0x0 SWAP3 POP PUSH2 0x13BD JUMP JUMPDEST PUSH1 0x70 DUP2 GT ISZERO PUSH2 0x1394 JUMPI PUSH1 0x70 DUP2 SUB DUP4 SWAP1 SHR SWAP3 POP PUSH2 0x13A7 JUMP JUMPDEST PUSH1 0x70 DUP2 LT ISZERO PUSH2 0x13A7 JUMPI DUP1 PUSH1 0x70 SUB DUP4 SWAP1 SHL SWAP3 POP JUMPDEST PUSH1 0x1 PUSH1 0x1 PUSH1 0x70 SHL SUB DUP4 AND SWAP3 POP PUSH2 0x40DF DUP2 DUP7 ADD SUB SWAP5 POP JUMPDEST DUP3 PUSH1 0x70 DUP7 SWAP1 SHL DUP9 DUP11 XOR PUSH1 0x1 PUSH1 0x7F SHL PUSH1 0x80 SHL AND PUSH1 0x80 SHR PUSH1 0x1 PUSH1 0x1 PUSH1 0x80 SHL SUB AND OR OR PUSH1 0x80 SHL SWAP6 POP POP POP POP POP POP PUSH2 0xC18 JUMP JUMPDEST PUSH1 0x0 PUSH1 0x1 PUSH1 0x7F SHL PUSH1 0x80 DUP4 SWAP1 SHR SWAP1 DUP2 GT SWAP1 PUSH2 0x7FFF PUSH1 0xF0 DUP6 SWAP1 SHR DUP2 AND SWAP2 PUSH1 0x1 PUSH1 0x1 PUSH1 0x70 SHL SUB AND SWAP1 DUP3 EQ DUP1 ISZERO PUSH2 0x141E JUMPI POP DUP1 ISZERO ISZERO JUMPDEST ISZERO PUSH2 0x1432 JUMPI POP PUSH2 0xFFFF PUSH1 0xEF SHL SWAP5 SWAP4 POP POP POP POP JUMP JUMPDEST PUSH2 0x400D DUP3 GT ISZERO PUSH2 0x1458 JUMPI DUP3 PUSH2 0x144C JUMPI PUSH2 0x7FFF PUSH1 0xF0 SHL PUSH2 0x144F JUMP JUMPDEST PUSH1 0x0 JUMPDEST SWAP6 SWAP5 POP POP POP POP POP JUMP JUMPDEST PUSH2 0x3F7F DUP3 LT ISZERO PUSH2 0x1471 JUMPI POP PUSH2 0x3FFF PUSH1 0xF0 SHL SWAP5 SWAP4 POP POP POP POP JUMP JUMPDEST DUP2 PUSH2 0x147F JUMPI PUSH1 0x1 SWAP2 POP PUSH2 0x1486 JUMP JUMPDEST PUSH1 0x1 PUSH1 0x70 SHL OR JUMPDEST PUSH2 0x3FEF DUP3 GT ISZERO PUSH2 0x149C JUMPI PUSH2 0x3FEE NOT DUP3 ADD SHL PUSH2 0x14AE JUMP JUMPDEST PUSH2 0x3FEF DUP3 LT ISZERO PUSH2 0x14AE JUMPI PUSH2 0x3FEF DUP3 SWAP1 SUB SHR JUMPDEST DUP3 DUP1 ISZERO PUSH2 0x14BF JUMPI POP PUSH2 0x2037 PUSH1 0x81 SHL DUP2 GT JUMPDEST ISZERO PUSH2 0x14CF JUMPI POP PUSH1 0x0 SWAP5 SWAP4 POP POP POP POP JUMP JUMPDEST DUP3 ISZERO DUP1 ISZERO PUSH2 0x14EE JUMPI POP PUSH18 0x3FFFFFFFFFFFFFFFFFFFFFFFFFFFFFFFFFFF DUP2 GT JUMPDEST ISZERO PUSH2 0x1502 JUMPI POP PUSH2 0x7FFF PUSH1 0xF0 SHL SWAP5 SWAP4 POP POP POP POP JUMP JUMPDEST PUSH1 0x1 PUSH1 0x1 PUSH1 0x80 SHL SUB DUP2 AND SWAP1 PUSH1 0x80 SHR DUP4 DUP1 ISZERO PUSH2 0x151C JUMPI POP DUP2 ISZERO ISZERO JUMPDEST ISZERO PUSH2 0x1528 JUMPI SWAP1 NOT SWAP1 PUSH1 0x1 ADD JUMPDEST PUSH1 0x1 PUSH1 0x7F SHL DUP3 DUP2 AND ISZERO PUSH2 0x154C JUMPI PUSH17 0x16A09E667F3BCC908B2FB1366EA957D3E MUL PUSH1 0x80 SHR JUMPDEST PUSH1 0x1 PUSH1 0x7E SHL DUP4 AND ISZERO PUSH2 0x156F JUMPI PUSH17 0x1306FE0A31B7152DE8D5A46305C85EDEC MUL PUSH1 0x80 SHR JUMPDEST PUSH1 0x1 PUSH1 0x7D SHL DUP4 AND ISZERO PUSH2 0x1592 JUMPI PUSH17 0x1172B83C7D517ADCDF7C8C50EB14A791F MUL PUSH1 0x80 SHR JUMPDEST PUSH1 0x1 PUSH1 0x7C SHL DUP4 AND ISZERO PUSH2 0x15B5 JUMPI PUSH17 0x10B5586CF9890F6298B92B71842A98363 MUL PUSH1 0x80 SHR JUMPDEST PUSH1 0x1 PUSH1 0x7B SHL DUP4 AND ISZERO PUSH2 0x15D8 JUMPI PUSH17 0x1059B0D31585743AE7C548EB68CA417FD MUL PUSH1 0x80 SHR JUMPDEST PUSH1 0x1 PUSH1 0x7A SHL DUP4 AND ISZERO PUSH2 0x15FB JUMPI PUSH17 0x102C9A3E778060EE6F7CACA4F7A29BDE8 MUL PUSH1 0x80 SHR JUMPDEST PUSH1 0x1 PUSH1 0x79 SHL DUP4 AND ISZERO PUSH2 0x161E JUMPI PUSH17 0x10163DA9FB33356D84A66AE336DCDFA3F MUL PUSH1 0x80 SHR JUMPDEST PUSH1 0x1 PUSH1 0x78 SHL DUP4 AND ISZERO PUSH2 0x1641 JUMPI PUSH17 0x100B1AFA5ABCBED6129AB13EC11DC9543 MUL PUSH1 0x80 SHR JUMPDEST PUSH1 0x1 PUSH1 0x77 SHL DUP4 AND ISZERO PUSH2 0x1664 JUMPI PUSH17 0x10058C86DA1C09EA1FF19D294CF2F679B MUL PUSH1 0x80 SHR JUMPDEST PUSH1 0x1 PUSH1 0x76 SHL DUP4 AND ISZERO PUSH2 0x1687 JUMPI PUSH17 0x1002C605E2E8CEC506D21BFC89A23A00F MUL PUSH1 0x80 SHR JUMPDEST PUSH1 0x1 PUSH1 0x75 SHL DUP4 AND ISZERO PUSH2 0x16AA JUMPI PUSH17 0x100162F3904051FA128BCA9C55C31E5DF MUL PUSH1 0x80 SHR JUMPDEST PUSH1 0x1 PUSH1 0x74 SHL DUP4 AND ISZERO PUSH2 0x16CD JUMPI PUSH17 0x1000B175EFFDC76BA38E31671CA939725 MUL PUSH1 0x80 SHR JUMPDEST PUSH1 0x1 PUSH1 0x73 SHL DUP4 AND ISZERO PUSH2 0x16F0 JUMPI PUSH17 0x100058BA01FB9F96D6CACD4B180917C3D MUL PUSH1 0x80 SHR JUMPDEST PUSH1 0x1 PUSH1 0x72 SHL DUP4 AND ISZERO PUSH2 0x1713 JUMPI PUSH17 0x10002C5CC37DA9491D0985C348C68E7B3 MUL PUSH1 0x80 SHR JUMPDEST PUSH1 0x1 PUSH1 0x71 SHL DUP4 AND ISZERO PUSH2 0x1736 JUMPI PUSH17 0x1000162E525EE054754457D5995292026 MUL PUSH1 0x80 SHR JUMPDEST PUSH1 0x1 PUSH1 0x70 SHL DUP4 AND ISZERO PUSH2 0x1759 JUMPI PUSH17 0x10000B17255775C040618BF4A4ADE83FC MUL PUSH1 0x80 SHR JUMPDEST PUSH1 0x1 PUSH1 0x6F SHL DUP4 AND ISZERO PUSH2 0x177C JUMPI PUSH17 0x1000058B91B5BC9AE2EED81E9B7D4CFAB MUL PUSH1 0x80 SHR JUMPDEST PUSH1 0x1 PUSH1 0x6E SHL DUP4 AND ISZERO PUSH2 0x179F JUMPI PUSH17 0x100002C5C89D5EC6CA4D7C8ACC017B7C9 MUL PUSH1 0x80 SHR JUMPDEST PUSH1 0x1 PUSH1 0x6D SHL DUP4 AND ISZERO PUSH2 0x17C2 JUMPI PUSH17 0x10000162E43F4F831060E02D839A9D16D MUL PUSH1 0x80 SHR JUMPDEST PUSH1 0x1 PUSH1 0x6C SHL DUP4 AND ISZERO PUSH2 0x17E5 JUMPI PUSH17 0x100000B1721BCFC99D9F890EA06911763 MUL PUSH1 0x80 SHR JUMPDEST PUSH1 0x1 PUSH1 0x6B SHL DUP4 AND ISZERO PUSH2 0x1808 JUMPI PUSH17 0x10000058B90CF1E6D97F9CA14DBCC1628 MUL PUSH1 0x80 SHR JUMPDEST PUSH1 0x1 PUSH1 0x6A SHL DUP4 AND ISZERO PUSH2 0x182B JUMPI PUSH17 0x1000002C5C863B73F016468F6BAC5CA2B MUL PUSH1 0x80 SHR JUMPDEST PUSH1 0x1 PUSH1 0x69 SHL DUP4 AND ISZERO PUSH2 0x184E JUMPI PUSH17 0x100000162E430E5A18F6119E3C02282A5 MUL PUSH1 0x80 SHR JUMPDEST PUSH1 0x1 PUSH1 0x68 SHL DUP4 AND ISZERO PUSH2 0x1871 JUMPI PUSH17 0x1000000B1721835514B86E6D96EFD1BFE MUL PUSH1 0x80 SHR JUMPDEST PUSH1 0x1 PUSH1 0x67 SHL DUP4 AND ISZERO PUSH2 0x1894 JUMPI PUSH17 0x100000058B90C0B48C6BE5DF846C5B2EF MUL PUSH1 0x80 SHR JUMPDEST PUSH1 0x1 PUSH1 0x66 SHL DUP4 AND ISZERO PUSH2 0x18B7 JUMPI PUSH17 0x10000002C5C8601CC6B9E94213C72737A MUL PUSH1 0x80 SHR JUMPDEST PUSH1 0x1 PUSH1 0x65 SHL DUP4 AND ISZERO PUSH2 0x18DA JUMPI PUSH17 0x1000000162E42FFF037DF38AA2B219F06 MUL PUSH1 0x80 SHR JUMPDEST PUSH1 0x1 PUSH1 0x64 SHL DUP4 AND ISZERO PUSH2 0x18FD JUMPI PUSH17 0x10000000B17217FBA9C739AA5819F44F9 MUL PUSH1 0x80 SHR JUMPDEST PUSH1 0x1 PUSH1 0x63 SHL DUP4 AND ISZERO PUSH2 0x1920 JUMPI PUSH17 0x1000000058B90BFCDEE5ACD3C1CEDC823 MUL PUSH1 0x80 SHR JUMPDEST PUSH1 0x1 PUSH1 0x62 SHL DUP4 AND ISZERO PUSH2 0x1943 JUMPI PUSH17 0x100000002C5C85FE31F35A6A30DA1BE50 MUL PUSH1 0x80 SHR JUMPDEST PUSH1 0x1 PUSH1 0x61 SHL DUP4 AND ISZERO PUSH2 0x1966 JUMPI PUSH17 0x10000000162E42FF0999CE3541B9FFFCF MUL PUSH1 0x80 SHR JUMPDEST PUSH1 0x1 PUSH1 0x60 SHL DUP4 AND ISZERO PUSH2 0x1989 JUMPI PUSH17 0x100000000B17217F80F4EF5AADDA45554 MUL PUSH1 0x80 SHR JUMPDEST PUSH1 0x1 PUSH1 0x5F SHL DUP4 AND ISZERO PUSH2 0x19AC JUMPI PUSH17 0x10000000058B90BFBF8479BD5A81B51AD MUL PUSH1 0x80 SHR JUMPDEST PUSH1 0x1 PUSH1 0x5E SHL DUP4 AND ISZERO PUSH2 0x19CF JUMPI PUSH17 0x1000000002C5C85FDF84BD62AE30A74CC MUL PUSH1 0x80 SHR JUMPDEST PUSH1 0x1 PUSH1 0x5D SHL DUP4 AND ISZERO PUSH2 0x19F2 JUMPI PUSH17 0x100000000162E42FEFB2FED257559BDAA MUL PUSH1 0x80 SHR JUMPDEST PUSH1 0x1 PUSH1 0x5C SHL DUP4 AND ISZERO PUSH2 0x1A15 JUMPI PUSH17 0x1000000000B17217F7D5A7716BBA4A9AE MUL PUSH1 0x80 SHR JUMPDEST PUSH1 0x1 PUSH1 0x5B SHL DUP4 AND ISZERO PUSH2 0x1A38 JUMPI PUSH17 0x100000000058B90BFBE9DDBAC5E109CCE MUL PUSH1 0x80 SHR JUMPDEST PUSH1 0x1 PUSH1 0x5A SHL DUP4 AND ISZERO PUSH2 0x1A5B JUMPI PUSH17 0x10000000002C5C85FDF4B15DE6F17EB0D MUL PUSH1 0x80 SHR JUMPDEST PUSH1 0x1 PUSH1 0x59 SHL DUP4 AND ISZERO PUSH2 0x1A7E JUMPI PUSH17 0x1000000000162E42FEFA494F1478FDE05 MUL PUSH1 0x80 SHR JUMPDEST PUSH1 0x1 PUSH1 0x58 SHL DUP4 AND ISZERO PUSH2 0x1AA1 JUMPI PUSH17 0x10000000000B17217F7D20CF927C8E94C MUL PUSH1 0x80 SHR JUMPDEST PUSH1 0x1 PUSH1 0x57 SHL DUP4 AND ISZERO PUSH2 0x1AC4 JUMPI PUSH17 0x1000000000058B90BFBE8F71CB4E4B33D MUL PUSH1 0x80 SHR JUMPDEST PUSH1 0x1 PUSH1 0x56 SHL DUP4 AND ISZERO PUSH2 0x1AE7 JUMPI PUSH17 0x100000000002C5C85FDF477B662B26945 MUL PUSH1 0x80 SHR JUMPDEST PUSH1 0x1 PUSH1 0x55 SHL DUP4 AND ISZERO PUSH2 0x1B0A JUMPI PUSH17 0x10000000000162E42FEFA3AE53369388C MUL PUSH1 0x80 SHR JUMPDEST PUSH1 0x1 PUSH1 0x54 SHL DUP4 AND ISZERO PUSH2 0x1B2D JUMPI PUSH17 0x100000000000B17217F7D1D351A389D40 MUL PUSH1 0x80 SHR JUMPDEST PUSH1 0x1 PUSH1 0x53 SHL DUP4 AND ISZERO PUSH2 0x1B50 JUMPI PUSH17 0x10000000000058B90BFBE8E8B2D3D4EDE MUL PUSH1 0x80 SHR JUMPDEST PUSH1 0x1 PUSH1 0x52 SHL DUP4 AND ISZERO PUSH2 0x1B73 JUMPI PUSH17 0x1000000000002C5C85FDF4741BEA6E77E MUL PUSH1 0x80 SHR JUMPDEST PUSH1 0x1 PUSH1 0x51 SHL DUP4 AND ISZERO PUSH2 0x1B96 JUMPI PUSH17 0x100000000000162E42FEFA39FE95583C2 MUL PUSH1 0x80 SHR JUMPDEST PUSH1 0x1 PUSH1 0x50 SHL DUP4 AND ISZERO PUSH2 0x1BB9 JUMPI PUSH17 0x1000000000000B17217F7D1CFB72B45E1 MUL PUSH1 0x80 SHR JUMPDEST PUSH10 0x80000000000000000000 DUP4 AND ISZERO PUSH2 0x1BE2 JUMPI PUSH17 0x100000000000058B90BFBE8E7CC35C3F0 MUL PUSH1 0x80 SHR JUMPDEST PUSH10 0x40000000000000000000 DUP4 AND ISZERO PUSH2 0x1C0B JUMPI PUSH17 0x10000000000002C5C85FDF473E242EA38 MUL PUSH1 0x80 SHR JUMPDEST PUSH10 0x20000000000000000000 DUP4 AND ISZERO PUSH2 0x1C34 JUMPI PUSH17 0x1000000000000162E42FEFA39F02B772C MUL PUSH1 0x80 SHR JUMPDEST PUSH10 0x10000000000000000000 DUP4 AND ISZERO PUSH2 0x1C5D JUMPI PUSH17 0x10000000000000B17217F7D1CF7D83C1A MUL PUSH1 0x80 SHR JUMPDEST PUSH10 0x8000000000000000000 DUP4 AND ISZERO PUSH2 0x1C86 JUMPI PUSH17 0x1000000000000058B90BFBE8E7BDCBE2E MUL PUSH1 0x80 SHR JUMPDEST PUSH10 0x4000000000000000000 DUP4 AND ISZERO PUSH2 0x1CAF JUMPI PUSH17 0x100000000000002C5C85FDF473DEA871F MUL PUSH1 0x80 SHR JUMPDEST PUSH10 0x2000000000000000000 DUP4 AND ISZERO PUSH2 0x1CD8 JUMPI PUSH17 0x10000000000000162E42FEFA39EF44D91 MUL PUSH1 0x80 SHR JUMPDEST PUSH10 0x1000000000000000000 DUP4 AND ISZERO PUSH2 0x1D01 JUMPI PUSH17 0x100000000000000B17217F7D1CF79E949 MUL PUSH1 0x80 SHR JUMPDEST PUSH9 0x800000000000000000 DUP4 AND ISZERO PUSH2 0x1D29 JUMPI PUSH17 0x10000000000000058B90BFBE8E7BCE544 MUL PUSH1 0x80 SHR JUMPDEST PUSH9 0x400000000000000000 DUP4 AND ISZERO PUSH2 0x1D51 JUMPI PUSH17 0x1000000000000002C5C85FDF473DE6ECA MUL PUSH1 0x80 SHR JUMPDEST PUSH9 0x200000000000000000 DUP4 AND ISZERO PUSH2 0x1D79 JUMPI PUSH17 0x100000000000000162E42FEFA39EF366F MUL PUSH1 0x80 SHR JUMPDEST PUSH9 0x100000000000000000 DUP4 AND ISZERO PUSH2 0x1DA1 JUMPI PUSH17 0x1000000000000000B17217F7D1CF79AFA MUL PUSH1 0x80 SHR JUMPDEST PUSH9 0x80000000000000000 DUP4 AND ISZERO PUSH2 0x1DC9 JUMPI PUSH17 0x100000000000000058B90BFBE8E7BCD6D MUL PUSH1 0x80 SHR JUMPDEST PUSH9 0x40000000000000000 DUP4 AND ISZERO PUSH2 0x1DF1 JUMPI PUSH17 0x10000000000000002C5C85FDF473DE6B2 MUL PUSH1 0x80 SHR JUMPDEST PUSH9 0x20000000000000000 DUP4 AND ISZERO PUSH2 0x1E19 JUMPI PUSH17 0x1000000000000000162E42FEFA39EF358 MUL PUSH1 0x80 SHR JUMPDEST PUSH1 0x1 PUSH1 0x40 SHL DUP4 AND ISZERO PUSH2 0x1E3C JUMPI PUSH17 0x10000000000000000B17217F7D1CF79AB MUL PUSH1 0x80 SHR JUMPDEST PUSH8 0x8000000000000000 DUP4 AND ISZERO PUSH2 0x1E63 JUMPI PUSH17 0x1000000000000000058B90BFBE8E7BCD5 MUL PUSH1 0x80 SHR JUMPDEST PUSH8 0x4000000000000000 DUP4 AND ISZERO PUSH2 0x1E8A JUMPI PUSH17 0x100000000000000002C5C85FDF473DE6A MUL PUSH1 0x80 SHR JUMPDEST PUSH8 0x2000000000000000 DUP4 AND ISZERO PUSH2 0x1EB1 JUMPI PUSH17 0x10000000000000000162E42FEFA39EF34 MUL PUSH1 0x80 SHR JUMPDEST PUSH8 0x1000000000000000 DUP4 AND ISZERO PUSH2 0x1ED8 JUMPI PUSH17 0x100000000000000000B17217F7D1CF799 MUL PUSH1 0x80 SHR JUMPDEST PUSH8 0x800000000000000 DUP4 AND ISZERO PUSH2 0x1EFF JUMPI PUSH17 0x10000000000000000058B90BFBE8E7BCC MUL PUSH1 0x80 SHR JUMPDEST PUSH8 0x400000000000000 DUP4 AND ISZERO PUSH2 0x1F26 JUMPI PUSH17 0x1000000000000000002C5C85FDF473DE5 MUL PUSH1 0x80 SHR JUMPDEST PUSH8 0x200000000000000 DUP4 AND ISZERO PUSH2 0x1F4D JUMPI PUSH17 0x100000000000000000162E42FEFA39EF2 MUL PUSH1 0x80 SHR JUMPDEST PUSH8 0x100000000000000 DUP4 AND ISZERO PUSH2 0x1F74 JUMPI PUSH17 0x1000000000000000000B17217F7D1CF78 MUL PUSH1 0x80 SHR JUMPDEST PUSH7 0x80000000000000 DUP4 AND ISZERO PUSH2 0x1F9A JUMPI PUSH17 0x100000000000000000058B90BFBE8E7BB MUL PUSH1 0x80 SHR JUMPDEST PUSH7 0x40000000000000 DUP4 AND ISZERO PUSH2 0x1FC0 JUMPI PUSH17 0x10000000000000000002C5C85FDF473DD MUL PUSH1 0x80 SHR JUMPDEST PUSH7 0x20000000000000 DUP4 AND ISZERO PUSH2 0x1FE6 JUMPI PUSH17 0x1000000000000000000162E42FEFA39EE MUL PUSH1 0x80 SHR JUMPDEST PUSH7 0x10000000000000 DUP4 AND ISZERO PUSH2 0x200C JUMPI PUSH17 0x10000000000000000000B17217F7D1CF6 MUL PUSH1 0x80 SHR JUMPDEST PUSH7 0x8000000000000 DUP4 AND ISZERO PUSH2 0x2032 JUMPI PUSH17 0x1000000000000000000058B90BFBE8E7A MUL PUSH1 0x80 SHR JUMPDEST PUSH7 0x4000000000000 DUP4 AND ISZERO PUSH2 0x2058 JUMPI PUSH17 0x100000000000000000002C5C85FDF473C MUL PUSH1 0x80 SHR JUMPDEST PUSH7 0x2000000000000 DUP4 AND ISZERO PUSH2 0x207E JUMPI PUSH17 0x10000000000000000000162E42FEFA39D MUL PUSH1 0x80 SHR JUMPDEST PUSH7 0x1000000000000 DUP4 AND ISZERO PUSH2 0x20A4 JUMPI PUSH17 0x100000000000000000000B17217F7D1CE MUL PUSH1 0x80 SHR JUMPDEST PUSH6 0x800000000000 DUP4 AND ISZERO PUSH2 0x20C9 JUMPI PUSH17 0x10000000000000000000058B90BFBE8E6 MUL PUSH1 0x80 SHR JUMPDEST PUSH6 0x400000000000 DUP4 AND ISZERO PUSH2 0x20EE JUMPI PUSH17 0x1000000000000000000002C5C85FDF472 MUL PUSH1 0x80 SHR JUMPDEST PUSH6 0x200000000000 DUP4 AND ISZERO PUSH2 0x2113 JUMPI PUSH17 0x100000000000000000000162E42FEFA38 MUL PUSH1 0x80 SHR JUMPDEST PUSH6 0x100000000000 DUP4 AND ISZERO PUSH2 0x2138 JUMPI PUSH17 0x1000000000000000000000B17217F7D1B MUL PUSH1 0x80 SHR JUMPDEST PUSH6 0x80000000000 DUP4 AND ISZERO PUSH2 0x215D JUMPI PUSH17 0x100000000000000000000058B90BFBE8D MUL PUSH1 0x80 SHR JUMPDEST PUSH6 0x40000000000 DUP4 AND ISZERO PUSH2 0x2182 JUMPI PUSH17 0x10000000000000000000002C5C85FDF46 MUL PUSH1 0x80 SHR JUMPDEST PUSH6 0x20000000000 DUP4 AND ISZERO PUSH2 0x21A7 JUMPI PUSH17 0x1000000000000000000000162E42FEFA2 MUL PUSH1 0x80 SHR JUMPDEST PUSH6 0x10000000000 DUP4 AND ISZERO PUSH2 0x21CC JUMPI PUSH17 0x10000000000000000000000B17217F7D0 MUL PUSH1 0x80 SHR JUMPDEST PUSH5 0x8000000000 DUP4 AND ISZERO PUSH2 0x21F0 JUMPI PUSH17 0x1000000000000000000000058B90BFBE7 MUL PUSH1 0x80 SHR JUMPDEST PUSH5 0x4000000000 DUP4 AND ISZERO PUSH2 0x2214 JUMPI PUSH17 0x100000000000000000000002C5C85FDF3 MUL PUSH1 0x80 SHR JUMPDEST PUSH5 0x2000000000 DUP4 AND ISZERO PUSH2 0x2238 JUMPI PUSH17 0x10000000000000000000000162E42FEF9 MUL PUSH1 0x80 SHR JUMPDEST PUSH5 0x1000000000 DUP4 AND ISZERO PUSH2 0x225C JUMPI PUSH17 0x100000000000000000000000B17217F7C MUL PUSH1 0x80 SHR JUMPDEST PUSH5 0x800000000 DUP4 AND ISZERO PUSH2 0x2280 JUMPI PUSH17 0x10000000000000000000000058B90BFBD MUL PUSH1 0x80 SHR JUMPDEST PUSH5 0x400000000 DUP4 AND ISZERO PUSH2 0x22A4 JUMPI PUSH17 0x1000000000000000000000002C5C85FDE MUL PUSH1 0x80 SHR JUMPDEST PUSH5 0x200000000 DUP4 AND ISZERO PUSH2 0x22C8 JUMPI PUSH17 0x100000000000000000000000162E42FEE MUL PUSH1 0x80 SHR JUMPDEST PUSH5 0x100000000 DUP4 AND ISZERO PUSH2 0x22EC JUMPI PUSH17 0x1000000000000000000000000B17217F6 MUL PUSH1 0x80 SHR JUMPDEST PUSH4 0x80000000 DUP4 AND ISZERO PUSH2 0x230F JUMPI PUSH17 0x100000000000000000000000058B90BFA MUL PUSH1 0x80 SHR JUMPDEST PUSH4 0x40000000 DUP4 AND ISZERO PUSH2 0x2332 JUMPI PUSH17 0x10000000000000000000000002C5C85FC MUL PUSH1 0x80 SHR JUMPDEST PUSH4 0x20000000 DUP4 AND ISZERO PUSH2 0x2355 JUMPI PUSH17 0x1000000000000000000000000162E42FD MUL PUSH1 0x80 SHR JUMPDEST PUSH4 0x10000000 DUP4 AND ISZERO PUSH2 0x2378 JUMPI PUSH17 0x10000000000000000000000000B17217E MUL PUSH1 0x80 SHR JUMPDEST PUSH4 0x8000000 DUP4 AND ISZERO PUSH2 0x239B JUMPI PUSH17 0x1000000000000000000000000058B90BE MUL PUSH1 0x80 SHR JUMPDEST PUSH4 0x4000000 DUP4 AND ISZERO PUSH2 0x23BE JUMPI PUSH17 0x100000000000000000000000002C5C85E MUL PUSH1 0x80 SHR JUMPDEST PUSH4 0x2000000 DUP4 AND ISZERO PUSH2 0x23E1 JUMPI PUSH17 0x10000000000000000000000000162E42E MUL PUSH1 0x80 SHR JUMPDEST PUSH4 0x1000000 DUP4 AND ISZERO PUSH2 0x2404 JUMPI PUSH17 0x100000000000000000000000000B17216 MUL PUSH1 0x80 SHR JUMPDEST PUSH3 0x800000 DUP4 AND ISZERO PUSH2 0x2426 JUMPI PUSH17 0x10000000000000000000000000058B90A MUL PUSH1 0x80 SHR JUMPDEST PUSH3 0x400000 DUP4 AND ISZERO PUSH2 0x2448 JUMPI PUSH17 0x1000000000000000000000000002C5C84 MUL PUSH1 0x80 SHR JUMPDEST PUSH3 0x200000 DUP4 AND ISZERO PUSH2 0x246A JUMPI PUSH17 0x100000000000000000000000000162E41 MUL PUSH1 0x80 SHR JUMPDEST PUSH3 0x100000 DUP4 AND ISZERO PUSH2 0x248C JUMPI PUSH17 0x1000000000000000000000000000B1720 MUL PUSH1 0x80 SHR JUMPDEST PUSH3 0x80000 DUP4 AND ISZERO PUSH2 0x24AE JUMPI PUSH17 0x100000000000000000000000000058B8F MUL PUSH1 0x80 SHR JUMPDEST PUSH3 0x40000 DUP4 AND ISZERO PUSH2 0x24D0 JUMPI PUSH17 0x10000000000000000000000000002C5C7 MUL PUSH1 0x80 SHR JUMPDEST PUSH3 0x20000 DUP4 AND ISZERO PUSH2 0x24F2 JUMPI PUSH17 0x1000000000000000000000000000162E3 MUL PUSH1 0x80 SHR JUMPDEST PUSH3 0x10000 DUP4 AND ISZERO PUSH2 0x2514 JUMPI PUSH17 0x10000000000000000000000000000B171 MUL PUSH1 0x80 SHR JUMPDEST PUSH2 0x8000 DUP4 AND ISZERO PUSH2 0x2535 JUMPI PUSH17 0x1000000000000000000000000000058B8 MUL PUSH1 0x80 SHR JUMPDEST PUSH2 0x4000 DUP4 AND ISZERO PUSH2 0x2556 JUMPI PUSH17 0x100000000000000000000000000002C5B MUL PUSH1 0x80 SHR JUMPDEST PUSH2 0x2000 DUP4 AND ISZERO PUSH2 0x2577 JUMPI PUSH17 0x10000000000000000000000000000162D MUL PUSH1 0x80 SHR JUMPDEST PUSH2 0x1000 DUP4 AND ISZERO PUSH2 0x2598 JUMPI PUSH17 0x100000000000000000000000000000B16 MUL PUSH1 0x80 SHR JUMPDEST PUSH2 0x800 DUP4 AND ISZERO PUSH2 0x25B9 JUMPI PUSH17 0x10000000000000000000000000000058A MUL PUSH1 0x80 SHR JUMPDEST PUSH2 0x400 DUP4 AND ISZERO PUSH2 0x25DA JUMPI PUSH17 0x1000000000000000000000000000002C4 MUL PUSH1 0x80 SHR JUMPDEST PUSH2 0x200 DUP4 AND ISZERO PUSH2 0x25FB JUMPI PUSH17 0x100000000000000000000000000000161 MUL PUSH1 0x80 SHR JUMPDEST PUSH2 0x100 DUP4 AND ISZERO PUSH2 0x261C JUMPI PUSH17 0x1000000000000000000000000000000B0 MUL PUSH1 0x80 SHR JUMPDEST PUSH1 0x80 DUP4 AND ISZERO PUSH2 0x263C JUMPI PUSH17 0x100000000000000000000000000000057 MUL PUSH1 0x80 SHR JUMPDEST PUSH1 0x40 DUP4 AND ISZERO PUSH2 0x265C JUMPI PUSH17 0x10000000000000000000000000000002B MUL PUSH1 0x80 SHR JUMPDEST PUSH1 0x20 DUP4 AND ISZERO PUSH2 0x267C JUMPI PUSH17 0x100000000000000000000000000000015 MUL PUSH1 0x80 SHR JUMPDEST PUSH1 0x10 DUP4 AND ISZERO PUSH2 0x269C JUMPI PUSH17 0x10000000000000000000000000000000A MUL PUSH1 0x80 SHR JUMPDEST PUSH1 0x8 DUP4 AND ISZERO PUSH2 0x26BC JUMPI PUSH17 0x100000000000000000000000000000004 MUL PUSH1 0x80 SHR JUMPDEST PUSH1 0x4 DUP4 AND ISZERO PUSH2 0x26DC JUMPI PUSH17 0x100000000000000000000000000000001 MUL PUSH1 0x80 SHR JUMPDEST DUP5 PUSH2 0x26FD JUMPI PUSH1 0xF DUP2 SWAP1 SHR PUSH1 0x1 PUSH1 0x1 PUSH1 0x70 SHL SUB AND SWAP1 POP PUSH2 0x3FFF DUP3 ADD SWAP2 POP PUSH2 0x272C JUMP JUMPDEST PUSH2 0x3FFE DUP3 GT PUSH2 0x2722 JUMPI PUSH1 0xF DUP2 SWAP1 SHR PUSH1 0x1 PUSH1 0x1 PUSH1 0x70 SHL SUB AND SWAP1 POP DUP2 PUSH2 0x3FFF SUB SWAP2 POP PUSH2 0x272C JUMP JUMPDEST PUSH1 0x0 SWAP2 PUSH2 0x3FEE NOT ADD SHR JUMPDEST PUSH1 0x70 SWAP2 SWAP1 SWAP2 SHL OR PUSH1 0x80 SHL SWAP6 SWAP5 POP POP POP POP POP JUMP JUMPDEST PUSH1 0x0 PUSH2 0x7FFF PUSH1 0xF0 DUP4 SWAP1 SHR AND PUSH2 0x40FE DUP2 GT ISZERO PUSH2 0x2759 JUMPI PUSH1 0x0 DUP1 REVERT JUMPDEST PUSH2 0x3FFF DUP2 LT ISZERO PUSH2 0x276C JUMPI POP PUSH1 0x0 SWAP3 SWAP2 POP POP JUMP JUMPDEST PUSH1 0x1 PUSH1 0x70 SHL PUSH1 0x1 PUSH1 0x1 PUSH1 0x70 SHL SUB PUSH1 0x80 DUP6 SWAP1 SHR AND OR PUSH2 0x406F DUP3 LT ISZERO PUSH2 0x2796 JUMPI PUSH2 0x406F DUP3 SWAP1 SUB SHR PUSH2 0x27A8 JUMP JUMPDEST PUSH2 0x406F DUP3 GT ISZERO PUSH2 0x27A8 JUMPI PUSH2 0x406E NOT DUP3 ADD SHL JUMPDEST PUSH1 0x1 PUSH1 0x7F SHL PUSH1 0x80 DUP6 SWAP1 SHR LT PUSH2 0x27D2 JUMPI PUSH1 0x1 PUSH1 0xFF SHL DUP2 GT ISZERO PUSH2 0x27C8 JUMPI PUSH1 0x0 DUP1 REVERT JUMPDEST PUSH1 0x0 SUB SWAP4 SWAP3 POP POP POP JUMP JUMPDEST PUSH1 0x1 PUSH1 0x1 PUSH1 0xFF SHL SUB DUP2 GT ISZERO PUSH2 0x27E6 JUMPI PUSH1 0x0 DUP1 REVERT JUMPDEST SWAP4 SWAP3 POP POP POP JUMP JUMPDEST PUSH1 0x0 DUP1 DUP3 GT PUSH2 0x27FB JUMPI PUSH1 0x0 DUP1 REVERT JUMPDEST PUSH1 0x0 PUSH1 0x1 PUSH1 0x80 SHL DUP4 LT PUSH2 0x2810 JUMPI PUSH1 0x80 SWAP3 DUP4 SHR SWAP3 ADD JUMPDEST PUSH1 0x1 PUSH1 0x40 SHL DUP4 LT PUSH2 0x2823 JUMPI PUSH1 0x40 SWAP3 DUP4 SHR SWAP3 ADD JUMPDEST PUSH5 0x100000000 DUP4 LT PUSH2 0x2837 JUMPI PUSH1 0x20 SWAP3 DUP4 SHR SWAP3 ADD JUMPDEST PUSH3 0x10000 DUP4 LT PUSH2 0x2849 JUMPI PUSH1 0x10 SWAP3 DUP4 SHR SWAP3 ADD JUMPDEST PUSH2 0x100 DUP4 LT PUSH2 0x285A JUMPI PUSH1 0x8 SWAP3 DUP4 SHR SWAP3 ADD JUMPDEST PUSH1 0x10 DUP4 LT PUSH2 0x286A JUMPI PUSH1 0x4 SWAP3 DUP4 SHR SWAP3 ADD JUMPDEST PUSH1 0x4 DUP4 LT PUSH2 0x287A JUMPI PUSH1 0x2 SWAP3 DUP4 SHR SWAP3 ADD JUMPDEST PUSH1 0x2 DUP4 LT PUSH2 0xC18 JUMPI PUSH1 0x1 ADD SWAP3 SWAP2 POP POP JUMP JUMPDEST DUP1 CALLDATALOAD PUSH1 0x1 PUSH1 0x1 PUSH1 0xA0 SHL SUB DUP2 AND DUP2 EQ PUSH2 0x8FB JUMPI PUSH1 0x0 DUP1 REVERT JUMPDEST PUSH1 0x0 DUP1 PUSH1 0x40 DUP4 DUP6 SUB SLT ISZERO PUSH2 0x28B5 JUMPI PUSH1 0x0 DUP1 REVERT JUMPDEST PUSH2 0x28BE DUP4 PUSH2 0x288B JUMP JUMPDEST SWAP5 PUSH1 0x20 SWAP4 SWAP1 SWAP4 ADD CALLDATALOAD SWAP4 POP POP POP JUMP JUMPDEST PUSH1 0x0 DUP1 PUSH1 0x0 PUSH1 0x60 DUP5 DUP7 SUB SLT ISZERO PUSH2 0x28E1 JUMPI PUSH1 0x0 DUP1 REVERT JUMPDEST PUSH2 0x28EA DUP5 PUSH2 0x288B JUMP JUMPDEST SWAP6 PUSH1 0x20 DUP6 ADD CALLDATALOAD SWAP6 POP PUSH1 0x40 SWAP1 SWAP5 ADD CALLDATALOAD SWAP4 SWAP3 POP POP POP JUMP JUMPDEST PUSH1 0x0 PUSH1 0x20 DUP3 DUP5 SUB SLT ISZERO PUSH2 0x2911 JUMPI PUSH1 0x0 DUP1 REVERT JUMPDEST PUSH2 0x27E6 DUP3 PUSH2 0x288B JUMP JUMPDEST PUSH1 0x20 DUP1 DUP3 MSTORE PUSH1 0x12 SWAP1 DUP3 ADD MSTORE PUSH18 0x416D6F756E74206D757374206265203E203 PUSH1 0x74 SHL PUSH1 0x40 DUP3 ADD MSTORE PUSH1 0x60 ADD SWAP1 JUMP JUMPDEST PUSH1 0x20 DUP1 DUP3 MSTORE PUSH1 0x28 SWAP1 DUP3 ADD MSTORE PUSH32 0x596F7572204C6F616E206163636F756E7420646F65736E277420686176652074 PUSH1 0x40 DUP3 ADD MSTORE PUSH8 0x3434B99031B7B4B7 PUSH1 0xC1 SHL PUSH1 0x60 DUP3 ADD MSTORE PUSH1 0x80 ADD SWAP1 JUMP JUMPDEST PUSH4 0x4E487B71 PUSH1 0xE0 SHL PUSH1 0x0 MSTORE PUSH1 0x11 PUSH1 0x4 MSTORE PUSH1 0x24 PUSH1 0x0 REVERT JUMPDEST PUSH1 0x0 PUSH1 0x1 PUSH1 0xFF SHL DUP3 EQ ISZERO PUSH2 0x29BA JUMPI PUSH2 0x29BA PUSH2 0x298E JUMP JUMPDEST POP PUSH1 0x0 SUB SWAP1 JUMP JUMPDEST PUSH1 0x0 DUP1 DUP3 SLT DUP1 ISZERO PUSH1 0x1 PUSH1 0x1 PUSH1 0xFF SHL SUB DUP5 SWAP1 SUB DUP6 SGT AND ISZERO PUSH2 0x29E3 JUMPI PUSH2 0x29E3 PUSH2 0x298E JUMP JUMPDEST PUSH1 0x1 PUSH1 0xFF SHL DUP4 SWAP1 SUB DUP5 SLT DUP2 AND ISZERO PUSH2 0x29FC JUMPI PUSH2 0x29FC PUSH2 0x298E JUMP JUMPDEST POP POP ADD SWAP1 JUMP JUMPDEST PUSH1 0x0 DUP3 DUP3 LT ISZERO PUSH2 0x2A14 JUMPI PUSH2 0x2A14 PUSH2 0x298E JUMP JUMPDEST POP SUB SWAP1 JUMP JUMPDEST PUSH1 0x0 DUP1 DUP4 SLT DUP1 ISZERO PUSH1 0x1 PUSH1 0xFF SHL DUP6 ADD DUP5 SLT AND ISZERO PUSH2 0x2A37 JUMPI PUSH2 0x2A37 PUSH2 0x298E JUMP JUMPDEST PUSH1 0x1 PUSH1 0x1 PUSH1 0xFF SHL SUB DUP5 ADD DUP4 SGT DUP2 AND ISZERO PUSH2 0x2A52 JUMPI PUSH2 0x2A52 PUSH2 0x298E JUMP JUMPDEST POP POP SUB SWAP1 JUMP JUMPDEST PUSH4 0x4E487B71 PUSH1 0xE0 SHL PUSH1 0x0 MSTORE PUSH1 0x32 PUSH1 0x4 MSTORE PUSH1 0x24 PUSH1 0x0 REVERT JUMPDEST PUSH4 0x4E487B71 PUSH1 0xE0 SHL PUSH1 0x0 MSTORE PUSH1 0x12 PUSH1 0x4 MSTORE PUSH1 0x24 PUSH1 0x0 REVERT JUMPDEST PUSH4 0x4E487B71 PUSH1 0xE0 SHL PUSH1 0x0 MSTORE PUSH1 0x1 PUSH1 0x4 MSTORE PUSH1 0x24 PUSH1 0x0 REVERT INVALID LOG2 PUSH5 0x6970667358 0x22 SLT KECCAK256 PUSH6 0x46B6937D0864 0xDF MSTORE 0xB5 GT PUSH8 0xABE01A74D0B5974B JUMPI POP 0xD9 SWAP2 SIGNEXTEND SWAP11 0xBC 0xFB SWAP2 0xC 0xC6 SWAP6 PUSH5 0x736F6C6343 STOP ADDMOD SIGNEXTEND STOP CALLER ",
  "sha1": "56e4914bfb179bfc0aa8ef3894f1295816947543",
  "source": "// SPDX-License-Identifier: MIT\npragma solidity ^0.8.0;\n\nimport \"./ABDKMathQuad.sol\";\n\ncontract LoanAccount {\n    //If balance is so minute, i.e falls within -epsilon to epsilon\n    //Set the balance to 0\n    int256 constant EPSILON = 5;\n\n    struct Balance {\n        address tokenAddress;\n        int256 balance;\n        uint256 fsecondInterestRate; //interest rate per second\n        bool isExist;\n        uint256 lastInterestRateUpdated;\n    }\n\n    address public userAddress;\n    //Token Address => Balance\n    mapping(address => Balance) balanceMap;\n    //Token Address List\n    address[] tokenAddressList;\n\n    function getTokenListLength() public view returns (uint256) {\n        return tokenAddressList.length;\n    }\n\n    function getTokenAddressAndBalance(address _userAddress, uint256 _index)\n        public\n        view\n        returns (\n            address _tokenAddress,\n            int256 _balance,\n            bool _isExist\n        )\n    {\n        address tokenAddress = tokenAddressList[_index];\n        return (\n            tokenAddress,\n            balanceMap[tokenAddress].balance,\n            balanceMap[tokenAddress].isExist\n        );\n    }\n\n    //TODO: maybe should make sure that only the main PotamusLoan contract\n    //is able to call this function instead of everyone\n    constructor(address _userAddress) {\n        userAddress = _userAddress;\n    }\n\n    //Recalculate Deposit Balance and Loan Balance for that particular token\n    function recalculateBalance(address _token, uint256 _fSecondInterestRate)\n        public\n    {\n        Balance storage balance = balanceMap[_token];\n        uint256 currentTime = block.timestamp;\n        if (balance.isExist) {\n            balance.balance = getNewBalance(\n                balance.balance,\n                balance.fsecondInterestRate, //calculate with the old interest rate\n                currentTime - balance.lastInterestRateUpdated\n            );\n            balance.lastInterestRateUpdated = currentTime;\n            balance.fsecondInterestRate = _fSecondInterestRate;\n        }\n    }\n\n    function tokenBalance(address _token) public view returns (int256) {\n        return balanceMap[_token].balance;\n    }\n\n    function getNewBalance(\n        int256 _oldBalance,\n        uint256 _fRatePerSecond,\n        uint256 _secondInterval\n    ) private pure returns (int256) {\n        //TODO: We have the below ugly implementation cos ABDKMathQuad doesn't have\n        //function to calculate x^n given x and n\n        //ABDKMath64x64 has support for that, but I used ABDKMathQuad in LoanPool so just\n        //wanna keep the same library. We should do gas optimization here if possible by changing\n        //library.\n        //The math trick used below: (1+rate)^(interval) = 2^(interval.log_2(1+rate))\n        return\n            ABDKMathQuad.toInt(\n                ABDKMathQuad.mul(\n                    ABDKMathQuad.fromInt(_oldBalance),\n                    ABDKMathQuad.pow_2(\n                        ABDKMathQuad.mul(\n                            //interval\n                            ABDKMathQuad.fromUInt(_secondInterval),\n                            //log_2^(1+rate)\n                            ABDKMathQuad.log_2(\n                                ABDKMathQuad.add(\n                                    ABDKMathQuad.fromUInt(1),\n                                    ABDKMathQuad.div(\n                                        ABDKMathQuad.fromUInt(_fRatePerSecond),\n                                        ABDKMathQuad.fromUInt(10**18)\n                                    )\n                                )\n                            )\n                        )\n                    )\n                )\n            );\n    }\n\n    function deposit(\n        address _token,\n        int256 _amount,\n        uint256 _fUpdatedSecondInterestRate\n    ) public {\n        require(_amount > 0, \"Amount must be > 0\");\n        //Update the balance\n        Balance storage balance = balanceMap[_token];\n        if (balance.isExist) {\n            balance.balance += _amount;\n        } else {\n            balanceMap[_token] = Balance(\n                _token,\n                _amount,\n                _fUpdatedSecondInterestRate,\n                true,\n                block.timestamp\n            );\n            //Add the address token to list of token\n            tokenAddressList.push(_token);\n        }\n    }\n\n    function withdraw(address _token, int256 _amount) public {\n        require(_amount > 0, \"Amount must be > 0\");\n        //TODO: Oracle: Implement check on how much you can withdraw\n        Balance storage balance = balanceMap[_token];\n        require(balance.isExist, \"Your Loan account doesn't have this coin\");\n        require(\n            balance.balance > 0,\n            \"Your balance for this token is not positive\"\n        );\n        require(\n            _amount <= balance.balance,\n            \"You have insufficient balance for this token\"\n        );\n\n        balance.balance -= _amount;\n\n        //If balance almost zero, remove it\n        removeBalanceIfZero(_token);\n    }\n\n    function loan(\n        address _token,\n        int256 _amount,\n        uint256 _fUpdatedSecondInterestRate\n    ) public {\n        require(_amount > 0, \"Amount must be > 0\");\n        //TODO: Oracle: Implement check on how much you can withdraw\n        Balance storage balance = balanceMap[_token];\n        if (balance.isExist) {\n            balance.balance -= _amount;\n        } else {\n            balanceMap[_token] = Balance(\n                _token,\n                -_amount,\n                _fUpdatedSecondInterestRate,\n                true,\n                block.timestamp\n            );\n            //Add the address token to list of token\n            tokenAddressList.push(_token);\n        }\n    }\n\n    function payback(address _token, int256 _amount) public {\n        require(_amount > 0, \"Amount must be > 0\");\n        Balance storage balance = balanceMap[_token];\n        //TODO: Oracle: Implement check on how much you can withdraw\n        require(balance.isExist, \"Your Loan account doesn't have this coin\");\n        require(balance.balance < 0, \"You don't owe any for this token\");\n        require(\n            _amount <= -balance.balance,\n            \"You are overpaying for what you owe\"\n        );\n        balance.balance += _amount;\n\n        //If balance almost zero, remove it\n        removeBalanceIfZero(_token);\n    }\n\n    function removeBalanceIfZero(address _token) private {\n        Balance storage balance = balanceMap[_token];\n        if (\n            balance.isExist &&\n            balance.balance < EPSILON &&\n            balance.balance > -EPSILON\n        ) {\n            balance.balance = 0;\n            balance.isExist = false;\n        }\n    }\n\n    function hasDepositOrLoan(address _token) public view returns (bool) {\n        //Return trues if the user deposit or loan in this token\n        return balanceMap[_token].isExist;\n    }\n}\n",
  "sourcePath": "contracts/LoanAccount.sol",
  "type": "contract"
}