{
  "abi": [
    {
      "inputs": [
        {
          "internalType": "address",
          "name": "_token",
          "type": "address"
        }
      ],
      "stateMutability": "nonpayable",
      "type": "constructor"
    },
    {
      "inputs": [
        {
          "internalType": "address",
          "name": "_loanAccountAddress",
          "type": "address"
        }
      ],
      "name": "addLoanAccount",
      "outputs": [],
      "stateMutability": "nonpayable",
      "type": "function"
    },
    {
      "inputs": [],
      "name": "availableFund",
      "outputs": [
        {
          "internalType": "uint256",
          "name": "",
          "type": "uint256"
        }
      ],
      "stateMutability": "view",
      "type": "function"
    },
    {
      "inputs": [
        {
          "internalType": "uint256",
          "name": "_amount",
          "type": "uint256"
        }
      ],
      "name": "deposit",
      "outputs": [],
      "stateMutability": "nonpayable",
      "type": "function"
    },
    {
      "inputs": [],
      "name": "depositBalance",
      "outputs": [
        {
          "internalType": "uint256",
          "name": "",
          "type": "uint256"
        }
      ],
      "stateMutability": "view",
      "type": "function"
    },
    {
      "inputs": [],
      "name": "fSecondInterestRate",
      "outputs": [
        {
          "internalType": "uint256",
          "name": "",
          "type": "uint256"
        }
      ],
      "stateMutability": "view",
      "type": "function"
    },
    {
      "inputs": [],
      "name": "getAnnualInterestRate",
      "outputs": [
        {
          "internalType": "uint256",
          "name": "fInterestRate",
          "type": "uint256"
        }
      ],
      "stateMutability": "view",
      "type": "function"
    },
    {
      "inputs": [
        {
          "internalType": "address",
          "name": "_loanAccountAddress",
          "type": "address"
        }
      ],
      "name": "isContain",
      "outputs": [
        {
          "internalType": "bool",
          "name": "",
          "type": "bool"
        }
      ],
      "stateMutability": "view",
      "type": "function"
    },
    {
      "inputs": [
        {
          "internalType": "address",
          "name": "_userAddress",
          "type": "address"
        },
        {
          "internalType": "uint256",
          "name": "_amount",
          "type": "uint256"
        }
      ],
      "name": "loan",
      "outputs": [],
      "stateMutability": "nonpayable",
      "type": "function"
    },
    {
      "inputs": [],
      "name": "loanBalance",
      "outputs": [
        {
          "internalType": "uint256",
          "name": "",
          "type": "uint256"
        }
      ],
      "stateMutability": "view",
      "type": "function"
    },
    {
      "inputs": [
        {
          "internalType": "uint256",
          "name": "_amount",
          "type": "uint256"
        }
      ],
      "name": "payback",
      "outputs": [],
      "stateMutability": "nonpayable",
      "type": "function"
    },
    {
      "inputs": [
        {
          "internalType": "address",
          "name": "_loanAccountAddress",
          "type": "address"
        }
      ],
      "name": "removeLoanAccount",
      "outputs": [],
      "stateMutability": "nonpayable",
      "type": "function"
    },
    {
      "inputs": [],
      "name": "tokenAddress",
      "outputs": [
        {
          "internalType": "address",
          "name": "",
          "type": "address"
        }
      ],
      "stateMutability": "view",
      "type": "function"
    },
    {
      "inputs": [
        {
          "internalType": "address",
          "name": "_userAddress",
          "type": "address"
        },
        {
          "internalType": "uint256",
          "name": "_amount",
          "type": "uint256"
        }
      ],
      "name": "withdraw",
      "outputs": [],
      "stateMutability": "nonpayable",
      "type": "function"
    }
  ],
  "bytecode": "608060405260006001556000600255600060035534801561001f57600080fd5b506040516111f53803806111f583398101604081905261003e91610063565b600080546001600160a01b0319166001600160a01b0392909216919091179055610093565b60006020828403121561007557600080fd5b81516001600160a01b038116811461008c57600080fd5b9392505050565b611153806100a26000396000f3fe608060405234801561001057600080fd5b50600436106100cf5760003560e01c806388adcac11161008c578063b6b55f2511610066578063b6b55f25146101ac578063d0cb3cd1146101bf578063d9ed2685146101c7578063f3fef3a3146101da57600080fd5b806388adcac1146101655780639d76ea581461016e578063a846c2fd1461019957600080fd5b806307cc8f71146100d4578063185cc751146100ef5780631bf055791461010457806334b3c50f1461010d57806361bc1a49146101205780637c7dc09414610129575b600080fd5b6100dc6101ed565b6040519081526020015b60405180910390f35b6101026100fd366004610f6a565b6102f0565b005b6100dc60025481565b61010261011b366004610f94565b610492565b6100dc60015481565b610155610137366004610f94565b6001600160a01b031660009081526005602052604090205460ff1690565b60405190151581526020016100e6565b6100dc60035481565b600054610181906001600160a01b031681565b6040516001600160a01b0390911681526020016100e6565b6101026101a7366004610faf565b610565565b6101026101ba366004610faf565b610585565b6100dc610597565b6101026101d5366004610f94565b6105ae565b6101026101e8366004610f6a565b61063c565b600080600154600254670de0b6b3a76400006102099190610fde565b6102139190611013565b9050670b1a2bc2ec50000081101561026e5761026861026361024d610237846107c1565b610248670b1a2bc2ec5000006107c1565b61082a565b61025e6702c68af0bb1400006107c1565b610ae4565b610d3f565b91505090565b670b1a2bc2ec50000081106102ec576102da6102636102bd6102a061029b670b1a2bc2ec50000086611035565b6107c1565b61024861029b670b1a2bc2ec500000670de0b6b3a7640000611035565b61025e61029b6702c68af0bb140000671bc16d674ec80000611035565b610268906702c68af0bb14000061104c565b5090565b6000546040516370a0823160e01b81523060048201528391839182916001600160a01b0316906370a0823190602401602060405180830381865afa15801561033c573d6000803e3d6000fd5b505050506040513d601f19601f820116820180604052508101906103609190611064565b10156103875760405162461bcd60e51b815260040161037e9061107d565b60405180910390fd5b80610390610597565b10156103ae5760405162461bcd60e51b815260040161037e9061107d565b60005460405163a9059cbb60e01b81526001600160a01b038481166004830152602482018490529091169063a9059cbb906044016020604051808303816000875af1158015610401573d6000803e3d6000fd5b505050506040513d601f19601f8201168201806040525081019061042591906110b4565b61046c5760405162461bcd60e51b8152602060048201526018602482015277151c985b9cd9995c881bd9881d1bdad95b8819985a5b195960421b604482015260640161037e565b826002600082825461047e919061104c565b9091555061048c9050610dc3565b50505050565b604051631f1f702560e21b81526001600160a01b03821660048201523090637c7dc09490602401602060405180830381865afa1580156104d6573d6000803e3d6000fd5b505050506040513d601f19601f820116820180604052508101906104fa91906110b4565b610562576004805460018082019092557f8a35acfbc15ff81a39ae7d344fd709f28e8600b4aa8c65c6b64bfe7fe36bd19b0180546001600160a01b0319166001600160a01b0384169081179091556000908152600560205260409020805460ff191690911790555b50565b80600260008282546105779190611035565b909155506105629050610dc3565b8060016000828254610577919061104c565b60006002546001546105a99190611035565b905090565b604051631f1f702560e21b81526001600160a01b03821660048201523090637c7dc09490602401602060405180830381865afa1580156105f2573d6000803e3d6000fd5b505050506040513d601f19601f8201168201806040525081019061061691906110b4565b15610562576001600160a01b03166000908152600560205260409020805460ff19169055565b6000546040516370a0823160e01b81523060048201528391839182916001600160a01b0316906370a0823190602401602060405180830381865afa158015610688573d6000803e3d6000fd5b505050506040513d601f19601f820116820180604052508101906106ac9190611064565b10156106ca5760405162461bcd60e51b815260040161037e9061107d565b806106d3610597565b10156106f15760405162461bcd60e51b815260040161037e9061107d565b60005460405163a9059cbb60e01b81526001600160a01b038481166004830152602482018490529091169063a9059cbb906044016020604051808303816000875af1158015610744573d6000803e3d6000fd5b505050506040513d601f19601f8201168201806040525081019061076891906110b4565b6107af5760405162461bcd60e51b8152602060048201526018602482015277151c985b9cd9995c881bd9881d1bdad95b8819985a5b195960421b604482015260640161037e565b826001600082825461047e9190611035565b6000816107d057506000919050565b8160006107dc82610eb0565b905060708110156107f5578060700382901b9150610808565b6070811115610808576070810382901c91505b613fff0160701b6001600160701b03919091161760801b92915050565b919050565b6000617fff60f084811c8216919084901c8116908214156108705780617fff141561085f575061ffff60ef1b9150610ade9050565b505050600160ff1b81168218610ade565b80617fff14156108b4576dffffffffffffffffffffffffffff60801b8416156108a3575061ffff60ef1b9150610ade9050565b505050808218600160ff1b16610ade565b600160801b600160ff1b0384166108fe57600160801b600160ff1b0385166108e6575061ffff60ef1b9150610ade9050565b505050808218600160ff1b16617fff60f01b17610ade565b6001600160701b03608085901c168161091a5760019150610921565b600160701b175b6001600160701b03608087901c168361096057801561095b57600061094582610eb0565b6001955060e20393840160711901939190911b90505b61096a565b600160701b1760721b5b81818161097957610979610ffd565b049050806109a657600160ff1b8787181661099557600061099b565b600160ff1b5b945050505050610ade565b6001606c1b8110156109ba576109ba6110d6565b6000600160731b8210156109f957600160721b8210156109ee57600160711b8210156109e75760706109f1565b60716109f1565b60725b60ff16610a02565b610a0282610eb0565b905083614071018186011115610a2057617fff945060009150610ab3565b83818601613ffc011015610a3b576000945060009150610ab3565b83818601613f8c011015610a88578385613ffc011115610a66578385613ffc010382901b9150610a7f565b8385613ffc011015610a7f57613ffc8585030382901c91505b60009450610ab3565b6070811115610a9b576070810382901c91505b6001600160701b038216915083818601613f8d010394505b81607086901b888a186001607f1b60801b1660801c6001600160801b0316171760801b955050505050505b92915050565b6000617fff60f084811c8216919084901c811690821415610b835780617fff1415610b62576001600160801b03198581169085161415610b2f57505050600160ff1b81168218610ade565b600160ff1b6001600160801b0319868618161415610b5257505050818117610ade565b5061ffff60ef1b9150610ade9050565b600160801b600160ff1b03841661085f575061ffff60ef1b9150610ade9050565b80617fff1415610bbf57600160801b600160ff1b038516610bae575061ffff60ef1b9150610ade9050565b505050600160ff1b82168118610ade565b6001600160701b03608086901c1682610bdb5760019250610be2565b600160701b175b6001600160701b03608086901c1682610bfe5760019250610c05565b600160701b175b9081029081610c2257600160ff1b8787181661099557600061099b565b928201926000600160e11b831015610c5557600160e01b831015610c4e57610c4983610eb0565b610c58565b60e0610c58565b60e15b90506140708186011015610c73576000945060009250610d10565b6140e08186011015610cb657614070851015610c9857846140700383901c9250610cad565b614070851115610cad57614070850383901b92505b60009450610d10565b61c0dd8186011115610cd057617fff945060009250610d10565b6070811115610ce7576070810383901c9250610cfa565b6070811015610cfa578060700383901b92505b6001600160701b03831692506140df8186010394505b82607086901b888a186001607f1b60801b1660801c6001600160801b0316171760801b95505050505050610ade565b6000617fff60f083901c16613fff811015610d5d5750600092915050565b6001607f1b608084901c10610d7157600080fd5b6140fe811115610d8057600080fd5b600160701b6001600160701b03608085901c161761406f821015610daa5761406f8290031c610dbc565b61406f821115610dbc5761406e1982011b5b9392505050565b6301e13380610dd06101ed565b610dda9190611013565b60035560005b60045481101561056257600060046000018281548110610e0257610e026110ec565b60009182526020808320909101546001600160a01b0316808352600590915260409091205490915060ff1615610e9d57600054600354604051631395702760e01b81526001600160a01b039283166004820152602481019190915290821690631395702790604401600060405180830381600087803b158015610e8457600080fd5b505af1158015610e98573d6000803e3d6000fd5b505050505b5080610ea881611102565b915050610de0565b6000808211610ebe57600080fd5b6000600160801b8310610ed357608092831c92015b680100000000000000008310610eeb57604092831c92015b6401000000008310610eff57602092831c92015b620100008310610f1157601092831c92015b6101008310610f2257600892831c92015b60108310610f3257600492831c92015b60048310610f4257600292831c92015b60028310610ade5760010192915050565b80356001600160a01b038116811461082557600080fd5b60008060408385031215610f7d57600080fd5b610f8683610f53565b946020939093013593505050565b600060208284031215610fa657600080fd5b610dbc82610f53565b600060208284031215610fc157600080fd5b5035919050565b634e487b7160e01b600052601160045260246000fd5b6000816000190483118215151615610ff857610ff8610fc8565b500290565b634e487b7160e01b600052601260045260246000fd5b60008261103057634e487b7160e01b600052601260045260246000fd5b500490565b60008282101561104757611047610fc8565b500390565b6000821982111561105f5761105f610fc8565b500190565b60006020828403121561107657600080fd5b5051919050565b6020808252601a908201527f506f6f6c2068617320696e73756666696369656e742066756e64000000000000604082015260600190565b6000602082840312156110c657600080fd5b81518015158114610dbc57600080fd5b634e487b7160e01b600052600160045260246000fd5b634e487b7160e01b600052603260045260246000fd5b600060001982141561111657611116610fc8565b506001019056fea2646970667358221220ae632d491f3d0417ac264828dfa9cc6620e8ff3dfe809a6bf02510b9eedba48564736f6c634300080b0033",
  "bytecodeSha1": "fc5ca31ccfaec9c39203848062e4674c891edc25",
  "compiler": {
    "evm_version": "istanbul",
    "optimizer": {
      "enabled": true,
      "runs": 200
    },
    "version": "0.8.11+commit.d7f03943"
  },
  "contractName": "LoanPool",
  "language": "Solidity",
  "natspec": {
    "kind": "dev",
    "methods": {},
    "version": 1
  },
  "opcodes": "PUSH1 0x80 PUSH1 0x40 MSTORE CALLVALUE DUP1 ISZERO PUSH2 0x10 JUMPI PUSH1 0x0 DUP1 REVERT JUMPDEST POP PUSH1 0x4 CALLDATASIZE LT PUSH2 0xCF JUMPI PUSH1 0x0 CALLDATALOAD PUSH1 0xE0 SHR DUP1 PUSH4 0x88ADCAC1 GT PUSH2 0x8C JUMPI DUP1 PUSH4 0xB6B55F25 GT PUSH2 0x66 JUMPI DUP1 PUSH4 0xB6B55F25 EQ PUSH2 0x1AC JUMPI DUP1 PUSH4 0xD0CB3CD1 EQ PUSH2 0x1BF JUMPI DUP1 PUSH4 0xD9ED2685 EQ PUSH2 0x1C7 JUMPI DUP1 PUSH4 0xF3FEF3A3 EQ PUSH2 0x1DA JUMPI PUSH1 0x0 DUP1 REVERT JUMPDEST DUP1 PUSH4 0x88ADCAC1 EQ PUSH2 0x165 JUMPI DUP1 PUSH4 0x9D76EA58 EQ PUSH2 0x16E JUMPI DUP1 PUSH4 0xA846C2FD EQ PUSH2 0x199 JUMPI PUSH1 0x0 DUP1 REVERT JUMPDEST DUP1 PUSH4 0x7CC8F71 EQ PUSH2 0xD4 JUMPI DUP1 PUSH4 0x185CC751 EQ PUSH2 0xEF JUMPI DUP1 PUSH4 0x1BF05579 EQ PUSH2 0x104 JUMPI DUP1 PUSH4 0x34B3C50F EQ PUSH2 0x10D JUMPI DUP1 PUSH4 0x61BC1A49 EQ PUSH2 0x120 JUMPI DUP1 PUSH4 0x7C7DC094 EQ PUSH2 0x129 JUMPI JUMPDEST PUSH1 0x0 DUP1 REVERT JUMPDEST PUSH2 0xDC PUSH2 0x1ED JUMP JUMPDEST PUSH1 0x40 MLOAD SWAP1 DUP2 MSTORE PUSH1 0x20 ADD JUMPDEST PUSH1 0x40 MLOAD DUP1 SWAP2 SUB SWAP1 RETURN JUMPDEST PUSH2 0x102 PUSH2 0xFD CALLDATASIZE PUSH1 0x4 PUSH2 0xF6A JUMP JUMPDEST PUSH2 0x2F0 JUMP JUMPDEST STOP JUMPDEST PUSH2 0xDC PUSH1 0x2 SLOAD DUP2 JUMP JUMPDEST PUSH2 0x102 PUSH2 0x11B CALLDATASIZE PUSH1 0x4 PUSH2 0xF94 JUMP JUMPDEST PUSH2 0x492 JUMP JUMPDEST PUSH2 0xDC PUSH1 0x1 SLOAD DUP2 JUMP JUMPDEST PUSH2 0x155 PUSH2 0x137 CALLDATASIZE PUSH1 0x4 PUSH2 0xF94 JUMP JUMPDEST PUSH1 0x1 PUSH1 0x1 PUSH1 0xA0 SHL SUB AND PUSH1 0x0 SWAP1 DUP2 MSTORE PUSH1 0x5 PUSH1 0x20 MSTORE PUSH1 0x40 SWAP1 KECCAK256 SLOAD PUSH1 0xFF AND SWAP1 JUMP JUMPDEST PUSH1 0x40 MLOAD SWAP1 ISZERO ISZERO DUP2 MSTORE PUSH1 0x20 ADD PUSH2 0xE6 JUMP JUMPDEST PUSH2 0xDC PUSH1 0x3 SLOAD DUP2 JUMP JUMPDEST PUSH1 0x0 SLOAD PUSH2 0x181 SWAP1 PUSH1 0x1 PUSH1 0x1 PUSH1 0xA0 SHL SUB AND DUP2 JUMP JUMPDEST PUSH1 0x40 MLOAD PUSH1 0x1 PUSH1 0x1 PUSH1 0xA0 SHL SUB SWAP1 SWAP2 AND DUP2 MSTORE PUSH1 0x20 ADD PUSH2 0xE6 JUMP JUMPDEST PUSH2 0x102 PUSH2 0x1A7 CALLDATASIZE PUSH1 0x4 PUSH2 0xFAF JUMP JUMPDEST PUSH2 0x565 JUMP JUMPDEST PUSH2 0x102 PUSH2 0x1BA CALLDATASIZE PUSH1 0x4 PUSH2 0xFAF JUMP JUMPDEST PUSH2 0x585 JUMP JUMPDEST PUSH2 0xDC PUSH2 0x597 JUMP JUMPDEST PUSH2 0x102 PUSH2 0x1D5 CALLDATASIZE PUSH1 0x4 PUSH2 0xF94 JUMP JUMPDEST PUSH2 0x5AE JUMP JUMPDEST PUSH2 0x102 PUSH2 0x1E8 CALLDATASIZE PUSH1 0x4 PUSH2 0xF6A JUMP JUMPDEST PUSH2 0x63C JUMP JUMPDEST PUSH1 0x0 DUP1 PUSH1 0x1 SLOAD PUSH1 0x2 SLOAD PUSH8 0xDE0B6B3A7640000 PUSH2 0x209 SWAP2 SWAP1 PUSH2 0xFDE JUMP JUMPDEST PUSH2 0x213 SWAP2 SWAP1 PUSH2 0x1013 JUMP JUMPDEST SWAP1 POP PUSH8 0xB1A2BC2EC500000 DUP2 LT ISZERO PUSH2 0x26E JUMPI PUSH2 0x268 PUSH2 0x263 PUSH2 0x24D PUSH2 0x237 DUP5 PUSH2 0x7C1 JUMP JUMPDEST PUSH2 0x248 PUSH8 0xB1A2BC2EC500000 PUSH2 0x7C1 JUMP JUMPDEST PUSH2 0x82A JUMP JUMPDEST PUSH2 0x25E PUSH8 0x2C68AF0BB140000 PUSH2 0x7C1 JUMP JUMPDEST PUSH2 0xAE4 JUMP JUMPDEST PUSH2 0xD3F JUMP JUMPDEST SWAP2 POP POP SWAP1 JUMP JUMPDEST PUSH8 0xB1A2BC2EC500000 DUP2 LT PUSH2 0x2EC JUMPI PUSH2 0x2DA PUSH2 0x263 PUSH2 0x2BD PUSH2 0x2A0 PUSH2 0x29B PUSH8 0xB1A2BC2EC500000 DUP7 PUSH2 0x1035 JUMP JUMPDEST PUSH2 0x7C1 JUMP JUMPDEST PUSH2 0x248 PUSH2 0x29B PUSH8 0xB1A2BC2EC500000 PUSH8 0xDE0B6B3A7640000 PUSH2 0x1035 JUMP JUMPDEST PUSH2 0x25E PUSH2 0x29B PUSH8 0x2C68AF0BB140000 PUSH8 0x1BC16D674EC80000 PUSH2 0x1035 JUMP JUMPDEST PUSH2 0x268 SWAP1 PUSH8 0x2C68AF0BB140000 PUSH2 0x104C JUMP JUMPDEST POP SWAP1 JUMP JUMPDEST PUSH1 0x0 SLOAD PUSH1 0x40 MLOAD PUSH4 0x70A08231 PUSH1 0xE0 SHL DUP2 MSTORE ADDRESS PUSH1 0x4 DUP3 ADD MSTORE DUP4 SWAP2 DUP4 SWAP2 DUP3 SWAP2 PUSH1 0x1 PUSH1 0x1 PUSH1 0xA0 SHL SUB AND SWAP1 PUSH4 0x70A08231 SWAP1 PUSH1 0x24 ADD PUSH1 0x20 PUSH1 0x40 MLOAD DUP1 DUP4 SUB DUP2 DUP7 GAS STATICCALL ISZERO DUP1 ISZERO PUSH2 0x33C JUMPI RETURNDATASIZE PUSH1 0x0 DUP1 RETURNDATACOPY RETURNDATASIZE PUSH1 0x0 REVERT JUMPDEST POP POP POP POP PUSH1 0x40 MLOAD RETURNDATASIZE PUSH1 0x1F NOT PUSH1 0x1F DUP3 ADD AND DUP3 ADD DUP1 PUSH1 0x40 MSTORE POP DUP2 ADD SWAP1 PUSH2 0x360 SWAP2 SWAP1 PUSH2 0x1064 JUMP JUMPDEST LT ISZERO PUSH2 0x387 JUMPI PUSH1 0x40 MLOAD PUSH3 0x461BCD PUSH1 0xE5 SHL DUP2 MSTORE PUSH1 0x4 ADD PUSH2 0x37E SWAP1 PUSH2 0x107D JUMP JUMPDEST PUSH1 0x40 MLOAD DUP1 SWAP2 SUB SWAP1 REVERT JUMPDEST DUP1 PUSH2 0x390 PUSH2 0x597 JUMP JUMPDEST LT ISZERO PUSH2 0x3AE JUMPI PUSH1 0x40 MLOAD PUSH3 0x461BCD PUSH1 0xE5 SHL DUP2 MSTORE PUSH1 0x4 ADD PUSH2 0x37E SWAP1 PUSH2 0x107D JUMP JUMPDEST PUSH1 0x0 SLOAD PUSH1 0x40 MLOAD PUSH4 0xA9059CBB PUSH1 0xE0 SHL DUP2 MSTORE PUSH1 0x1 PUSH1 0x1 PUSH1 0xA0 SHL SUB DUP5 DUP2 AND PUSH1 0x4 DUP4 ADD MSTORE PUSH1 0x24 DUP3 ADD DUP5 SWAP1 MSTORE SWAP1 SWAP2 AND SWAP1 PUSH4 0xA9059CBB SWAP1 PUSH1 0x44 ADD PUSH1 0x20 PUSH1 0x40 MLOAD DUP1 DUP4 SUB DUP2 PUSH1 0x0 DUP8 GAS CALL ISZERO DUP1 ISZERO PUSH2 0x401 JUMPI RETURNDATASIZE PUSH1 0x0 DUP1 RETURNDATACOPY RETURNDATASIZE PUSH1 0x0 REVERT JUMPDEST POP POP POP POP PUSH1 0x40 MLOAD RETURNDATASIZE PUSH1 0x1F NOT PUSH1 0x1F DUP3 ADD AND DUP3 ADD DUP1 PUSH1 0x40 MSTORE POP DUP2 ADD SWAP1 PUSH2 0x425 SWAP2 SWAP1 PUSH2 0x10B4 JUMP JUMPDEST PUSH2 0x46C JUMPI PUSH1 0x40 MLOAD PUSH3 0x461BCD PUSH1 0xE5 SHL DUP2 MSTORE PUSH1 0x20 PUSH1 0x4 DUP3 ADD MSTORE PUSH1 0x18 PUSH1 0x24 DUP3 ADD MSTORE PUSH24 0x151C985B9CD9995C881BD9881D1BDAD95B8819985A5B1959 PUSH1 0x42 SHL PUSH1 0x44 DUP3 ADD MSTORE PUSH1 0x64 ADD PUSH2 0x37E JUMP JUMPDEST DUP3 PUSH1 0x2 PUSH1 0x0 DUP3 DUP3 SLOAD PUSH2 0x47E SWAP2 SWAP1 PUSH2 0x104C JUMP JUMPDEST SWAP1 SWAP2 SSTORE POP PUSH2 0x48C SWAP1 POP PUSH2 0xDC3 JUMP JUMPDEST POP POP POP POP JUMP JUMPDEST PUSH1 0x40 MLOAD PUSH4 0x1F1F7025 PUSH1 0xE2 SHL DUP2 MSTORE PUSH1 0x1 PUSH1 0x1 PUSH1 0xA0 SHL SUB DUP3 AND PUSH1 0x4 DUP3 ADD MSTORE ADDRESS SWAP1 PUSH4 0x7C7DC094 SWAP1 PUSH1 0x24 ADD PUSH1 0x20 PUSH1 0x40 MLOAD DUP1 DUP4 SUB DUP2 DUP7 GAS STATICCALL ISZERO DUP1 ISZERO PUSH2 0x4D6 JUMPI RETURNDATASIZE PUSH1 0x0 DUP1 RETURNDATACOPY RETURNDATASIZE PUSH1 0x0 REVERT JUMPDEST POP POP POP POP PUSH1 0x40 MLOAD RETURNDATASIZE PUSH1 0x1F NOT PUSH1 0x1F DUP3 ADD AND DUP3 ADD DUP1 PUSH1 0x40 MSTORE POP DUP2 ADD SWAP1 PUSH2 0x4FA SWAP2 SWAP1 PUSH2 0x10B4 JUMP JUMPDEST PUSH2 0x562 JUMPI PUSH1 0x4 DUP1 SLOAD PUSH1 0x1 DUP1 DUP3 ADD SWAP1 SWAP3 SSTORE PUSH32 0x8A35ACFBC15FF81A39AE7D344FD709F28E8600B4AA8C65C6B64BFE7FE36BD19B ADD DUP1 SLOAD PUSH1 0x1 PUSH1 0x1 PUSH1 0xA0 SHL SUB NOT AND PUSH1 0x1 PUSH1 0x1 PUSH1 0xA0 SHL SUB DUP5 AND SWAP1 DUP2 OR SWAP1 SWAP2 SSTORE PUSH1 0x0 SWAP1 DUP2 MSTORE PUSH1 0x5 PUSH1 0x20 MSTORE PUSH1 0x40 SWAP1 KECCAK256 DUP1 SLOAD PUSH1 0xFF NOT AND SWAP1 SWAP2 OR SWAP1 SSTORE JUMPDEST POP JUMP JUMPDEST DUP1 PUSH1 0x2 PUSH1 0x0 DUP3 DUP3 SLOAD PUSH2 0x577 SWAP2 SWAP1 PUSH2 0x1035 JUMP JUMPDEST SWAP1 SWAP2 SSTORE POP PUSH2 0x562 SWAP1 POP PUSH2 0xDC3 JUMP JUMPDEST DUP1 PUSH1 0x1 PUSH1 0x0 DUP3 DUP3 SLOAD PUSH2 0x577 SWAP2 SWAP1 PUSH2 0x104C JUMP JUMPDEST PUSH1 0x0 PUSH1 0x2 SLOAD PUSH1 0x1 SLOAD PUSH2 0x5A9 SWAP2 SWAP1 PUSH2 0x1035 JUMP JUMPDEST SWAP1 POP SWAP1 JUMP JUMPDEST PUSH1 0x40 MLOAD PUSH4 0x1F1F7025 PUSH1 0xE2 SHL DUP2 MSTORE PUSH1 0x1 PUSH1 0x1 PUSH1 0xA0 SHL SUB DUP3 AND PUSH1 0x4 DUP3 ADD MSTORE ADDRESS SWAP1 PUSH4 0x7C7DC094 SWAP1 PUSH1 0x24 ADD PUSH1 0x20 PUSH1 0x40 MLOAD DUP1 DUP4 SUB DUP2 DUP7 GAS STATICCALL ISZERO DUP1 ISZERO PUSH2 0x5F2 JUMPI RETURNDATASIZE PUSH1 0x0 DUP1 RETURNDATACOPY RETURNDATASIZE PUSH1 0x0 REVERT JUMPDEST POP POP POP POP PUSH1 0x40 MLOAD RETURNDATASIZE PUSH1 0x1F NOT PUSH1 0x1F DUP3 ADD AND DUP3 ADD DUP1 PUSH1 0x40 MSTORE POP DUP2 ADD SWAP1 PUSH2 0x616 SWAP2 SWAP1 PUSH2 0x10B4 JUMP JUMPDEST ISZERO PUSH2 0x562 JUMPI PUSH1 0x1 PUSH1 0x1 PUSH1 0xA0 SHL SUB AND PUSH1 0x0 SWAP1 DUP2 MSTORE PUSH1 0x5 PUSH1 0x20 MSTORE PUSH1 0x40 SWAP1 KECCAK256 DUP1 SLOAD PUSH1 0xFF NOT AND SWAP1 SSTORE JUMP JUMPDEST PUSH1 0x0 SLOAD PUSH1 0x40 MLOAD PUSH4 0x70A08231 PUSH1 0xE0 SHL DUP2 MSTORE ADDRESS PUSH1 0x4 DUP3 ADD MSTORE DUP4 SWAP2 DUP4 SWAP2 DUP3 SWAP2 PUSH1 0x1 PUSH1 0x1 PUSH1 0xA0 SHL SUB AND SWAP1 PUSH4 0x70A08231 SWAP1 PUSH1 0x24 ADD PUSH1 0x20 PUSH1 0x40 MLOAD DUP1 DUP4 SUB DUP2 DUP7 GAS STATICCALL ISZERO DUP1 ISZERO PUSH2 0x688 JUMPI RETURNDATASIZE PUSH1 0x0 DUP1 RETURNDATACOPY RETURNDATASIZE PUSH1 0x0 REVERT JUMPDEST POP POP POP POP PUSH1 0x40 MLOAD RETURNDATASIZE PUSH1 0x1F NOT PUSH1 0x1F DUP3 ADD AND DUP3 ADD DUP1 PUSH1 0x40 MSTORE POP DUP2 ADD SWAP1 PUSH2 0x6AC SWAP2 SWAP1 PUSH2 0x1064 JUMP JUMPDEST LT ISZERO PUSH2 0x6CA JUMPI PUSH1 0x40 MLOAD PUSH3 0x461BCD PUSH1 0xE5 SHL DUP2 MSTORE PUSH1 0x4 ADD PUSH2 0x37E SWAP1 PUSH2 0x107D JUMP JUMPDEST DUP1 PUSH2 0x6D3 PUSH2 0x597 JUMP JUMPDEST LT ISZERO PUSH2 0x6F1 JUMPI PUSH1 0x40 MLOAD PUSH3 0x461BCD PUSH1 0xE5 SHL DUP2 MSTORE PUSH1 0x4 ADD PUSH2 0x37E SWAP1 PUSH2 0x107D JUMP JUMPDEST PUSH1 0x0 SLOAD PUSH1 0x40 MLOAD PUSH4 0xA9059CBB PUSH1 0xE0 SHL DUP2 MSTORE PUSH1 0x1 PUSH1 0x1 PUSH1 0xA0 SHL SUB DUP5 DUP2 AND PUSH1 0x4 DUP4 ADD MSTORE PUSH1 0x24 DUP3 ADD DUP5 SWAP1 MSTORE SWAP1 SWAP2 AND SWAP1 PUSH4 0xA9059CBB SWAP1 PUSH1 0x44 ADD PUSH1 0x20 PUSH1 0x40 MLOAD DUP1 DUP4 SUB DUP2 PUSH1 0x0 DUP8 GAS CALL ISZERO DUP1 ISZERO PUSH2 0x744 JUMPI RETURNDATASIZE PUSH1 0x0 DUP1 RETURNDATACOPY RETURNDATASIZE PUSH1 0x0 REVERT JUMPDEST POP POP POP POP PUSH1 0x40 MLOAD RETURNDATASIZE PUSH1 0x1F NOT PUSH1 0x1F DUP3 ADD AND DUP3 ADD DUP1 PUSH1 0x40 MSTORE POP DUP2 ADD SWAP1 PUSH2 0x768 SWAP2 SWAP1 PUSH2 0x10B4 JUMP JUMPDEST PUSH2 0x7AF JUMPI PUSH1 0x40 MLOAD PUSH3 0x461BCD PUSH1 0xE5 SHL DUP2 MSTORE PUSH1 0x20 PUSH1 0x4 DUP3 ADD MSTORE PUSH1 0x18 PUSH1 0x24 DUP3 ADD MSTORE PUSH24 0x151C985B9CD9995C881BD9881D1BDAD95B8819985A5B1959 PUSH1 0x42 SHL PUSH1 0x44 DUP3 ADD MSTORE PUSH1 0x64 ADD PUSH2 0x37E JUMP JUMPDEST DUP3 PUSH1 0x1 PUSH1 0x0 DUP3 DUP3 SLOAD PUSH2 0x47E SWAP2 SWAP1 PUSH2 0x1035 JUMP JUMPDEST PUSH1 0x0 DUP2 PUSH2 0x7D0 JUMPI POP PUSH1 0x0 SWAP2 SWAP1 POP JUMP JUMPDEST DUP2 PUSH1 0x0 PUSH2 0x7DC DUP3 PUSH2 0xEB0 JUMP JUMPDEST SWAP1 POP PUSH1 0x70 DUP2 LT ISZERO PUSH2 0x7F5 JUMPI DUP1 PUSH1 0x70 SUB DUP3 SWAP1 SHL SWAP2 POP PUSH2 0x808 JUMP JUMPDEST PUSH1 0x70 DUP2 GT ISZERO PUSH2 0x808 JUMPI PUSH1 0x70 DUP2 SUB DUP3 SWAP1 SHR SWAP2 POP JUMPDEST PUSH2 0x3FFF ADD PUSH1 0x70 SHL PUSH1 0x1 PUSH1 0x1 PUSH1 0x70 SHL SUB SWAP2 SWAP1 SWAP2 AND OR PUSH1 0x80 SHL SWAP3 SWAP2 POP POP JUMP JUMPDEST SWAP2 SWAP1 POP JUMP JUMPDEST PUSH1 0x0 PUSH2 0x7FFF PUSH1 0xF0 DUP5 DUP2 SHR DUP3 AND SWAP2 SWAP1 DUP5 SWAP1 SHR DUP2 AND SWAP1 DUP3 EQ ISZERO PUSH2 0x870 JUMPI DUP1 PUSH2 0x7FFF EQ ISZERO PUSH2 0x85F JUMPI POP PUSH2 0xFFFF PUSH1 0xEF SHL SWAP2 POP PUSH2 0xADE SWAP1 POP JUMP JUMPDEST POP POP POP PUSH1 0x1 PUSH1 0xFF SHL DUP2 AND DUP3 XOR PUSH2 0xADE JUMP JUMPDEST DUP1 PUSH2 0x7FFF EQ ISZERO PUSH2 0x8B4 JUMPI PUSH14 0xFFFFFFFFFFFFFFFFFFFFFFFFFFFF PUSH1 0x80 SHL DUP5 AND ISZERO PUSH2 0x8A3 JUMPI POP PUSH2 0xFFFF PUSH1 0xEF SHL SWAP2 POP PUSH2 0xADE SWAP1 POP JUMP JUMPDEST POP POP POP DUP1 DUP3 XOR PUSH1 0x1 PUSH1 0xFF SHL AND PUSH2 0xADE JUMP JUMPDEST PUSH1 0x1 PUSH1 0x80 SHL PUSH1 0x1 PUSH1 0xFF SHL SUB DUP5 AND PUSH2 0x8FE JUMPI PUSH1 0x1 PUSH1 0x80 SHL PUSH1 0x1 PUSH1 0xFF SHL SUB DUP6 AND PUSH2 0x8E6 JUMPI POP PUSH2 0xFFFF PUSH1 0xEF SHL SWAP2 POP PUSH2 0xADE SWAP1 POP JUMP JUMPDEST POP POP POP DUP1 DUP3 XOR PUSH1 0x1 PUSH1 0xFF SHL AND PUSH2 0x7FFF PUSH1 0xF0 SHL OR PUSH2 0xADE JUMP JUMPDEST PUSH1 0x1 PUSH1 0x1 PUSH1 0x70 SHL SUB PUSH1 0x80 DUP6 SWAP1 SHR AND DUP2 PUSH2 0x91A JUMPI PUSH1 0x1 SWAP2 POP PUSH2 0x921 JUMP JUMPDEST PUSH1 0x1 PUSH1 0x70 SHL OR JUMPDEST PUSH1 0x1 PUSH1 0x1 PUSH1 0x70 SHL SUB PUSH1 0x80 DUP8 SWAP1 SHR AND DUP4 PUSH2 0x960 JUMPI DUP1 ISZERO PUSH2 0x95B JUMPI PUSH1 0x0 PUSH2 0x945 DUP3 PUSH2 0xEB0 JUMP JUMPDEST PUSH1 0x1 SWAP6 POP PUSH1 0xE2 SUB SWAP4 DUP5 ADD PUSH1 0x71 NOT ADD SWAP4 SWAP2 SWAP1 SWAP2 SHL SWAP1 POP JUMPDEST PUSH2 0x96A JUMP JUMPDEST PUSH1 0x1 PUSH1 0x70 SHL OR PUSH1 0x72 SHL JUMPDEST DUP2 DUP2 DUP2 PUSH2 0x979 JUMPI PUSH2 0x979 PUSH2 0xFFD JUMP JUMPDEST DIV SWAP1 POP DUP1 PUSH2 0x9A6 JUMPI PUSH1 0x1 PUSH1 0xFF SHL DUP8 DUP8 XOR AND PUSH2 0x995 JUMPI PUSH1 0x0 PUSH2 0x99B JUMP JUMPDEST PUSH1 0x1 PUSH1 0xFF SHL JUMPDEST SWAP5 POP POP POP POP POP PUSH2 0xADE JUMP JUMPDEST PUSH1 0x1 PUSH1 0x6C SHL DUP2 LT ISZERO PUSH2 0x9BA JUMPI PUSH2 0x9BA PUSH2 0x10D6 JUMP JUMPDEST PUSH1 0x0 PUSH1 0x1 PUSH1 0x73 SHL DUP3 LT ISZERO PUSH2 0x9F9 JUMPI PUSH1 0x1 PUSH1 0x72 SHL DUP3 LT ISZERO PUSH2 0x9EE JUMPI PUSH1 0x1 PUSH1 0x71 SHL DUP3 LT ISZERO PUSH2 0x9E7 JUMPI PUSH1 0x70 PUSH2 0x9F1 JUMP JUMPDEST PUSH1 0x71 PUSH2 0x9F1 JUMP JUMPDEST PUSH1 0x72 JUMPDEST PUSH1 0xFF AND PUSH2 0xA02 JUMP JUMPDEST PUSH2 0xA02 DUP3 PUSH2 0xEB0 JUMP JUMPDEST SWAP1 POP DUP4 PUSH2 0x4071 ADD DUP2 DUP7 ADD GT ISZERO PUSH2 0xA20 JUMPI PUSH2 0x7FFF SWAP5 POP PUSH1 0x0 SWAP2 POP PUSH2 0xAB3 JUMP JUMPDEST DUP4 DUP2 DUP7 ADD PUSH2 0x3FFC ADD LT ISZERO PUSH2 0xA3B JUMPI PUSH1 0x0 SWAP5 POP PUSH1 0x0 SWAP2 POP PUSH2 0xAB3 JUMP JUMPDEST DUP4 DUP2 DUP7 ADD PUSH2 0x3F8C ADD LT ISZERO PUSH2 0xA88 JUMPI DUP4 DUP6 PUSH2 0x3FFC ADD GT ISZERO PUSH2 0xA66 JUMPI DUP4 DUP6 PUSH2 0x3FFC ADD SUB DUP3 SWAP1 SHL SWAP2 POP PUSH2 0xA7F JUMP JUMPDEST DUP4 DUP6 PUSH2 0x3FFC ADD LT ISZERO PUSH2 0xA7F JUMPI PUSH2 0x3FFC DUP6 DUP6 SUB SUB DUP3 SWAP1 SHR SWAP2 POP JUMPDEST PUSH1 0x0 SWAP5 POP PUSH2 0xAB3 JUMP JUMPDEST PUSH1 0x70 DUP2 GT ISZERO PUSH2 0xA9B JUMPI PUSH1 0x70 DUP2 SUB DUP3 SWAP1 SHR SWAP2 POP JUMPDEST PUSH1 0x1 PUSH1 0x1 PUSH1 0x70 SHL SUB DUP3 AND SWAP2 POP DUP4 DUP2 DUP7 ADD PUSH2 0x3F8D ADD SUB SWAP5 POP JUMPDEST DUP2 PUSH1 0x70 DUP7 SWAP1 SHL DUP9 DUP11 XOR PUSH1 0x1 PUSH1 0x7F SHL PUSH1 0x80 SHL AND PUSH1 0x80 SHR PUSH1 0x1 PUSH1 0x1 PUSH1 0x80 SHL SUB AND OR OR PUSH1 0x80 SHL SWAP6 POP POP POP POP POP POP JUMPDEST SWAP3 SWAP2 POP POP JUMP JUMPDEST PUSH1 0x0 PUSH2 0x7FFF PUSH1 0xF0 DUP5 DUP2 SHR DUP3 AND SWAP2 SWAP1 DUP5 SWAP1 SHR DUP2 AND SWAP1 DUP3 EQ ISZERO PUSH2 0xB83 JUMPI DUP1 PUSH2 0x7FFF EQ ISZERO PUSH2 0xB62 JUMPI PUSH1 0x1 PUSH1 0x1 PUSH1 0x80 SHL SUB NOT DUP6 DUP2 AND SWAP1 DUP6 AND EQ ISZERO PUSH2 0xB2F JUMPI POP POP POP PUSH1 0x1 PUSH1 0xFF SHL DUP2 AND DUP3 XOR PUSH2 0xADE JUMP JUMPDEST PUSH1 0x1 PUSH1 0xFF SHL PUSH1 0x1 PUSH1 0x1 PUSH1 0x80 SHL SUB NOT DUP7 DUP7 XOR AND EQ ISZERO PUSH2 0xB52 JUMPI POP POP POP DUP2 DUP2 OR PUSH2 0xADE JUMP JUMPDEST POP PUSH2 0xFFFF PUSH1 0xEF SHL SWAP2 POP PUSH2 0xADE SWAP1 POP JUMP JUMPDEST PUSH1 0x1 PUSH1 0x80 SHL PUSH1 0x1 PUSH1 0xFF SHL SUB DUP5 AND PUSH2 0x85F JUMPI POP PUSH2 0xFFFF PUSH1 0xEF SHL SWAP2 POP PUSH2 0xADE SWAP1 POP JUMP JUMPDEST DUP1 PUSH2 0x7FFF EQ ISZERO PUSH2 0xBBF JUMPI PUSH1 0x1 PUSH1 0x80 SHL PUSH1 0x1 PUSH1 0xFF SHL SUB DUP6 AND PUSH2 0xBAE JUMPI POP PUSH2 0xFFFF PUSH1 0xEF SHL SWAP2 POP PUSH2 0xADE SWAP1 POP JUMP JUMPDEST POP POP POP PUSH1 0x1 PUSH1 0xFF SHL DUP3 AND DUP2 XOR PUSH2 0xADE JUMP JUMPDEST PUSH1 0x1 PUSH1 0x1 PUSH1 0x70 SHL SUB PUSH1 0x80 DUP7 SWAP1 SHR AND DUP3 PUSH2 0xBDB JUMPI PUSH1 0x1 SWAP3 POP PUSH2 0xBE2 JUMP JUMPDEST PUSH1 0x1 PUSH1 0x70 SHL OR JUMPDEST PUSH1 0x1 PUSH1 0x1 PUSH1 0x70 SHL SUB PUSH1 0x80 DUP7 SWAP1 SHR AND DUP3 PUSH2 0xBFE JUMPI PUSH1 0x1 SWAP3 POP PUSH2 0xC05 JUMP JUMPDEST PUSH1 0x1 PUSH1 0x70 SHL OR JUMPDEST SWAP1 DUP2 MUL SWAP1 DUP2 PUSH2 0xC22 JUMPI PUSH1 0x1 PUSH1 0xFF SHL DUP8 DUP8 XOR AND PUSH2 0x995 JUMPI PUSH1 0x0 PUSH2 0x99B JUMP JUMPDEST SWAP3 DUP3 ADD SWAP3 PUSH1 0x0 PUSH1 0x1 PUSH1 0xE1 SHL DUP4 LT ISZERO PUSH2 0xC55 JUMPI PUSH1 0x1 PUSH1 0xE0 SHL DUP4 LT ISZERO PUSH2 0xC4E JUMPI PUSH2 0xC49 DUP4 PUSH2 0xEB0 JUMP JUMPDEST PUSH2 0xC58 JUMP JUMPDEST PUSH1 0xE0 PUSH2 0xC58 JUMP JUMPDEST PUSH1 0xE1 JUMPDEST SWAP1 POP PUSH2 0x4070 DUP2 DUP7 ADD LT ISZERO PUSH2 0xC73 JUMPI PUSH1 0x0 SWAP5 POP PUSH1 0x0 SWAP3 POP PUSH2 0xD10 JUMP JUMPDEST PUSH2 0x40E0 DUP2 DUP7 ADD LT ISZERO PUSH2 0xCB6 JUMPI PUSH2 0x4070 DUP6 LT ISZERO PUSH2 0xC98 JUMPI DUP5 PUSH2 0x4070 SUB DUP4 SWAP1 SHR SWAP3 POP PUSH2 0xCAD JUMP JUMPDEST PUSH2 0x4070 DUP6 GT ISZERO PUSH2 0xCAD JUMPI PUSH2 0x4070 DUP6 SUB DUP4 SWAP1 SHL SWAP3 POP JUMPDEST PUSH1 0x0 SWAP5 POP PUSH2 0xD10 JUMP JUMPDEST PUSH2 0xC0DD DUP2 DUP7 ADD GT ISZERO PUSH2 0xCD0 JUMPI PUSH2 0x7FFF SWAP5 POP PUSH1 0x0 SWAP3 POP PUSH2 0xD10 JUMP JUMPDEST PUSH1 0x70 DUP2 GT ISZERO PUSH2 0xCE7 JUMPI PUSH1 0x70 DUP2 SUB DUP4 SWAP1 SHR SWAP3 POP PUSH2 0xCFA JUMP JUMPDEST PUSH1 0x70 DUP2 LT ISZERO PUSH2 0xCFA JUMPI DUP1 PUSH1 0x70 SUB DUP4 SWAP1 SHL SWAP3 POP JUMPDEST PUSH1 0x1 PUSH1 0x1 PUSH1 0x70 SHL SUB DUP4 AND SWAP3 POP PUSH2 0x40DF DUP2 DUP7 ADD SUB SWAP5 POP JUMPDEST DUP3 PUSH1 0x70 DUP7 SWAP1 SHL DUP9 DUP11 XOR PUSH1 0x1 PUSH1 0x7F SHL PUSH1 0x80 SHL AND PUSH1 0x80 SHR PUSH1 0x1 PUSH1 0x1 PUSH1 0x80 SHL SUB AND OR OR PUSH1 0x80 SHL SWAP6 POP POP POP POP POP POP PUSH2 0xADE JUMP JUMPDEST PUSH1 0x0 PUSH2 0x7FFF PUSH1 0xF0 DUP4 SWAP1 SHR AND PUSH2 0x3FFF DUP2 LT ISZERO PUSH2 0xD5D JUMPI POP PUSH1 0x0 SWAP3 SWAP2 POP POP JUMP JUMPDEST PUSH1 0x1 PUSH1 0x7F SHL PUSH1 0x80 DUP5 SWAP1 SHR LT PUSH2 0xD71 JUMPI PUSH1 0x0 DUP1 REVERT JUMPDEST PUSH2 0x40FE DUP2 GT ISZERO PUSH2 0xD80 JUMPI PUSH1 0x0 DUP1 REVERT JUMPDEST PUSH1 0x1 PUSH1 0x70 SHL PUSH1 0x1 PUSH1 0x1 PUSH1 0x70 SHL SUB PUSH1 0x80 DUP6 SWAP1 SHR AND OR PUSH2 0x406F DUP3 LT ISZERO PUSH2 0xDAA JUMPI PUSH2 0x406F DUP3 SWAP1 SUB SHR PUSH2 0xDBC JUMP JUMPDEST PUSH2 0x406F DUP3 GT ISZERO PUSH2 0xDBC JUMPI PUSH2 0x406E NOT DUP3 ADD SHL JUMPDEST SWAP4 SWAP3 POP POP POP JUMP JUMPDEST PUSH4 0x1E13380 PUSH2 0xDD0 PUSH2 0x1ED JUMP JUMPDEST PUSH2 0xDDA SWAP2 SWAP1 PUSH2 0x1013 JUMP JUMPDEST PUSH1 0x3 SSTORE PUSH1 0x0 JUMPDEST PUSH1 0x4 SLOAD DUP2 LT ISZERO PUSH2 0x562 JUMPI PUSH1 0x0 PUSH1 0x4 PUSH1 0x0 ADD DUP3 DUP2 SLOAD DUP2 LT PUSH2 0xE02 JUMPI PUSH2 0xE02 PUSH2 0x10EC JUMP JUMPDEST PUSH1 0x0 SWAP2 DUP3 MSTORE PUSH1 0x20 DUP1 DUP4 KECCAK256 SWAP1 SWAP2 ADD SLOAD PUSH1 0x1 PUSH1 0x1 PUSH1 0xA0 SHL SUB AND DUP1 DUP4 MSTORE PUSH1 0x5 SWAP1 SWAP2 MSTORE PUSH1 0x40 SWAP1 SWAP2 KECCAK256 SLOAD SWAP1 SWAP2 POP PUSH1 0xFF AND ISZERO PUSH2 0xE9D JUMPI PUSH1 0x0 SLOAD PUSH1 0x3 SLOAD PUSH1 0x40 MLOAD PUSH4 0x13957027 PUSH1 0xE0 SHL DUP2 MSTORE PUSH1 0x1 PUSH1 0x1 PUSH1 0xA0 SHL SUB SWAP3 DUP4 AND PUSH1 0x4 DUP3 ADD MSTORE PUSH1 0x24 DUP2 ADD SWAP2 SWAP1 SWAP2 MSTORE SWAP1 DUP3 AND SWAP1 PUSH4 0x13957027 SWAP1 PUSH1 0x44 ADD PUSH1 0x0 PUSH1 0x40 MLOAD DUP1 DUP4 SUB DUP2 PUSH1 0x0 DUP8 DUP1 EXTCODESIZE ISZERO DUP1 ISZERO PUSH2 0xE84 JUMPI PUSH1 0x0 DUP1 REVERT JUMPDEST POP GAS CALL ISZERO DUP1 ISZERO PUSH2 0xE98 JUMPI RETURNDATASIZE PUSH1 0x0 DUP1 RETURNDATACOPY RETURNDATASIZE PUSH1 0x0 REVERT JUMPDEST POP POP POP POP JUMPDEST POP DUP1 PUSH2 0xEA8 DUP2 PUSH2 0x1102 JUMP JUMPDEST SWAP2 POP POP PUSH2 0xDE0 JUMP JUMPDEST PUSH1 0x0 DUP1 DUP3 GT PUSH2 0xEBE JUMPI PUSH1 0x0 DUP1 REVERT JUMPDEST PUSH1 0x0 PUSH1 0x1 PUSH1 0x80 SHL DUP4 LT PUSH2 0xED3 JUMPI PUSH1 0x80 SWAP3 DUP4 SHR SWAP3 ADD JUMPDEST PUSH9 0x10000000000000000 DUP4 LT PUSH2 0xEEB JUMPI PUSH1 0x40 SWAP3 DUP4 SHR SWAP3 ADD JUMPDEST PUSH5 0x100000000 DUP4 LT PUSH2 0xEFF JUMPI PUSH1 0x20 SWAP3 DUP4 SHR SWAP3 ADD JUMPDEST PUSH3 0x10000 DUP4 LT PUSH2 0xF11 JUMPI PUSH1 0x10 SWAP3 DUP4 SHR SWAP3 ADD JUMPDEST PUSH2 0x100 DUP4 LT PUSH2 0xF22 JUMPI PUSH1 0x8 SWAP3 DUP4 SHR SWAP3 ADD JUMPDEST PUSH1 0x10 DUP4 LT PUSH2 0xF32 JUMPI PUSH1 0x4 SWAP3 DUP4 SHR SWAP3 ADD JUMPDEST PUSH1 0x4 DUP4 LT PUSH2 0xF42 JUMPI PUSH1 0x2 SWAP3 DUP4 SHR SWAP3 ADD JUMPDEST PUSH1 0x2 DUP4 LT PUSH2 0xADE JUMPI PUSH1 0x1 ADD SWAP3 SWAP2 POP POP JUMP JUMPDEST DUP1 CALLDATALOAD PUSH1 0x1 PUSH1 0x1 PUSH1 0xA0 SHL SUB DUP2 AND DUP2 EQ PUSH2 0x825 JUMPI PUSH1 0x0 DUP1 REVERT JUMPDEST PUSH1 0x0 DUP1 PUSH1 0x40 DUP4 DUP6 SUB SLT ISZERO PUSH2 0xF7D JUMPI PUSH1 0x0 DUP1 REVERT JUMPDEST PUSH2 0xF86 DUP4 PUSH2 0xF53 JUMP JUMPDEST SWAP5 PUSH1 0x20 SWAP4 SWAP1 SWAP4 ADD CALLDATALOAD SWAP4 POP POP POP JUMP JUMPDEST PUSH1 0x0 PUSH1 0x20 DUP3 DUP5 SUB SLT ISZERO PUSH2 0xFA6 JUMPI PUSH1 0x0 DUP1 REVERT JUMPDEST PUSH2 0xDBC DUP3 PUSH2 0xF53 JUMP JUMPDEST PUSH1 0x0 PUSH1 0x20 DUP3 DUP5 SUB SLT ISZERO PUSH2 0xFC1 JUMPI PUSH1 0x0 DUP1 REVERT JUMPDEST POP CALLDATALOAD SWAP2 SWAP1 POP JUMP JUMPDEST PUSH4 0x4E487B71 PUSH1 0xE0 SHL PUSH1 0x0 MSTORE PUSH1 0x11 PUSH1 0x4 MSTORE PUSH1 0x24 PUSH1 0x0 REVERT JUMPDEST PUSH1 0x0 DUP2 PUSH1 0x0 NOT DIV DUP4 GT DUP3 ISZERO ISZERO AND ISZERO PUSH2 0xFF8 JUMPI PUSH2 0xFF8 PUSH2 0xFC8 JUMP JUMPDEST POP MUL SWAP1 JUMP JUMPDEST PUSH4 0x4E487B71 PUSH1 0xE0 SHL PUSH1 0x0 MSTORE PUSH1 0x12 PUSH1 0x4 MSTORE PUSH1 0x24 PUSH1 0x0 REVERT JUMPDEST PUSH1 0x0 DUP3 PUSH2 0x1030 JUMPI PUSH4 0x4E487B71 PUSH1 0xE0 SHL PUSH1 0x0 MSTORE PUSH1 0x12 PUSH1 0x4 MSTORE PUSH1 0x24 PUSH1 0x0 REVERT JUMPDEST POP DIV SWAP1 JUMP JUMPDEST PUSH1 0x0 DUP3 DUP3 LT ISZERO PUSH2 0x1047 JUMPI PUSH2 0x1047 PUSH2 0xFC8 JUMP JUMPDEST POP SUB SWAP1 JUMP JUMPDEST PUSH1 0x0 DUP3 NOT DUP3 GT ISZERO PUSH2 0x105F JUMPI PUSH2 0x105F PUSH2 0xFC8 JUMP JUMPDEST POP ADD SWAP1 JUMP JUMPDEST PUSH1 0x0 PUSH1 0x20 DUP3 DUP5 SUB SLT ISZERO PUSH2 0x1076 JUMPI PUSH1 0x0 DUP1 REVERT JUMPDEST POP MLOAD SWAP2 SWAP1 POP JUMP JUMPDEST PUSH1 0x20 DUP1 DUP3 MSTORE PUSH1 0x1A SWAP1 DUP3 ADD MSTORE PUSH32 0x506F6F6C2068617320696E73756666696369656E742066756E64000000000000 PUSH1 0x40 DUP3 ADD MSTORE PUSH1 0x60 ADD SWAP1 JUMP JUMPDEST PUSH1 0x0 PUSH1 0x20 DUP3 DUP5 SUB SLT ISZERO PUSH2 0x10C6 JUMPI PUSH1 0x0 DUP1 REVERT JUMPDEST DUP2 MLOAD DUP1 ISZERO ISZERO DUP2 EQ PUSH2 0xDBC JUMPI PUSH1 0x0 DUP1 REVERT JUMPDEST PUSH4 0x4E487B71 PUSH1 0xE0 SHL PUSH1 0x0 MSTORE PUSH1 0x1 PUSH1 0x4 MSTORE PUSH1 0x24 PUSH1 0x0 REVERT JUMPDEST PUSH4 0x4E487B71 PUSH1 0xE0 SHL PUSH1 0x0 MSTORE PUSH1 0x32 PUSH1 0x4 MSTORE PUSH1 0x24 PUSH1 0x0 REVERT JUMPDEST PUSH1 0x0 PUSH1 0x0 NOT DUP3 EQ ISZERO PUSH2 0x1116 JUMPI PUSH2 0x1116 PUSH2 0xFC8 JUMP JUMPDEST POP PUSH1 0x1 ADD SWAP1 JUMP INVALID LOG2 PUSH5 0x6970667358 0x22 SLT KECCAK256 0xAE PUSH4 0x2D491F3D DIV OR 0xAC 0x26 BASEFEE 0x28 0xDF 0xA9 0xCC PUSH7 0x20E8FF3DFE809A PUSH12 0xF02510B9EEDBA48564736F6C PUSH4 0x4300080B STOP CALLER ",
  "sha1": "d4e41c233e035e7015d39152df949a6a9107cbd6",
  "source": "// SPDX-License-Identifier: MIT\npragma solidity ^0.8.0;\n\nimport \"./LoanAccount.sol\";\nimport \"./ABDKMathQuad.sol\";\n\nimport \"./IERC20.sol\";\n\n//LoanPool is the one holding the actual money\ncontract LoanPool {\n    //TODO: Fixed interest rate function for now\n    //can extends to account for different interest rate function\n    //with different kink value and slopes\n    //TODO: Right now all floating point are hard coded with 18 decimal place after the dot\n    //The float-like variable representing ratios will be marked as fCamelCase\n    //So if you see 0.2 * 10 ** 18 (0.2x10^18, this represents 0.2)\n    //Can consider to use external libraries or something to be more readable\n    //Oh also, It's compounded secondly\n\n    //Note that all these rate are per anual basis\n    uint256 constant fFIRST_INTEREST_RATE = 0.2 * 10**18;\n    uint256 constant fSECOND_INTEREST_RATE = 2.0 * 10**18;\n    uint256 constant fCRITICAL_UTIL_RATE = 0.8 * 10**18;\n\n    address public tokenAddress;\n    uint256 public depositBalance = 0;\n    uint256 public loanBalance = 0;\n    uint256 public fSecondInterestRate = 0;\n\n    //The combination of both of these will give a data structure\n    //Operation     Time complexity\n    //Contains            O(1)\n    //Insert              O(1)\n    //Delete              O(1)\n    //List                O(k) with k >= n\n    struct ListableAccountMap {\n        address[] loanAccountAddressList;\n        //LoanAccount address to corresponding bool\n        mapping(address => bool) boolMap;\n    }\n\n    ListableAccountMap accountMap;\n\n    constructor(address _token) {\n        tokenAddress = _token;\n    }\n\n    function isContain(address _loanAccountAddress) public view returns (bool) {\n        return accountMap.boolMap[_loanAccountAddress];\n    }\n\n    function addLoanAccount(address _loanAccountAddress) public {\n        if (!this.isContain(_loanAccountAddress)) {\n            accountMap.loanAccountAddressList.push(_loanAccountAddress);\n            accountMap.boolMap[_loanAccountAddress] = true;\n        }\n    }\n\n    function removeLoanAccount(address _loanAccountAddress) public {\n        if (this.isContain(_loanAccountAddress)) {\n            accountMap.boolMap[_loanAccountAddress] = false;\n        }\n    }\n\n    function availableFund() public view returns (uint256) {\n        return depositBalance - loanBalance;\n    }\n\n    //TODO: remember to trigger recalculation for both deposit and loan function\n    function deposit(uint256 _amount) public {\n        depositBalance += _amount;\n        updateAccountListBalance();\n    }\n\n    //Returns if this money transfer is successful\n    modifier onlyMoneyOut(address _userAddress, uint256 _amount) {\n        //Make sure that the pool has sufficient ERC20\n        require(\n            IERC20(tokenAddress).balanceOf(address(this)) >= _amount,\n            \"Pool has insufficient fund\"\n        );\n        require(availableFund() >= _amount, \"Pool has insufficient fund\");\n        //Make the transfer\n        require(\n            IERC20(tokenAddress).transfer(_userAddress, _amount),\n            \"Transfer of token failed\"\n        );\n        _;\n    }\n\n    function withdraw(address _userAddress, uint256 _amount)\n        public\n        onlyMoneyOut(_userAddress, _amount)\n    {\n        //If transfer is succesful, update the pool balance\n        depositBalance -= _amount;\n        updateAccountListBalance();\n    }\n\n    //Have check to make sure the amount loan out doesn't cause more loan amount than deposit\n    function loan(address _userAddress, uint256 _amount)\n        public\n        onlyMoneyOut(_userAddress, _amount)\n    {\n        //If transfer is succesful, update the pool balance\n        loanBalance += _amount;\n        updateAccountListBalance();\n    }\n\n    function payback(uint256 _amount) public {\n        loanBalance -= _amount;\n        updateAccountListBalance();\n    }\n\n    function updateAccountListBalance() private {\n        fSecondInterestRate = getAnnualInterestRate() / (365 * 1 days);\n        for (uint256 i = 0; i < accountMap.loanAccountAddressList.length; i++) {\n            address loanAccountAddress = accountMap.loanAccountAddressList[i];\n            if (accountMap.boolMap[loanAccountAddress]) {\n                LoanAccount(loanAccountAddress).recalculateBalance(\n                    tokenAddress,\n                    fSecondInterestRate\n                );\n            }\n        }\n    }\n\n    //TODO: Write test for this function\n    function getAnnualInterestRate()\n        public\n        view\n        returns (uint256 fInterestRate)\n    {\n        uint256 fUtilRate = (10**18 * loanBalance) / depositBalance;\n\n        if (fUtilRate < fCRITICAL_UTIL_RATE) {\n            return\n                ABDKMathQuad.toUInt(\n                    ABDKMathQuad.mul(\n                        ABDKMathQuad.div(\n                            ABDKMathQuad.fromUInt(fUtilRate),\n                            ABDKMathQuad.fromUInt(fCRITICAL_UTIL_RATE)\n                        ),\n                        ABDKMathQuad.fromUInt(fFIRST_INTEREST_RATE)\n                    )\n                );\n        } else if (fUtilRate >= fCRITICAL_UTIL_RATE) {\n            return\n                fFIRST_INTEREST_RATE +\n                ABDKMathQuad.toUInt(\n                    ABDKMathQuad.mul(\n                        ABDKMathQuad.div(\n                            ABDKMathQuad.fromUInt(\n                                fUtilRate - fCRITICAL_UTIL_RATE\n                            ),\n                            ABDKMathQuad.fromUInt(\n                                1 * 10**18 - fCRITICAL_UTIL_RATE\n                            )\n                        ),\n                        ABDKMathQuad.fromUInt(\n                            fSECOND_INTEREST_RATE - fFIRST_INTEREST_RATE\n                        )\n                    )\n                );\n        }\n    }\n}\n",
  "sourcePath": "contracts/LoanPool.sol",
  "type": "contract"
}