{
  "abi": [
    {
      "inputs": [
        {
          "internalType": "address",
          "name": "_userAddress",
          "type": "address"
        }
      ],
      "stateMutability": "nonpayable",
      "type": "constructor"
    },
    {
      "inputs": [
        {
          "internalType": "address",
          "name": "_token",
          "type": "address"
        },
        {
          "internalType": "int256",
          "name": "_amount",
          "type": "int256"
        },
        {
          "internalType": "uint256",
          "name": "_fUpdatedSecondInterestRate",
          "type": "uint256"
        }
      ],
      "name": "deposit",
      "outputs": [],
      "stateMutability": "nonpayable",
      "type": "function"
    },
    {
      "inputs": [
        {
          "internalType": "address",
          "name": "_token",
          "type": "address"
        }
      ],
      "name": "hasDepositOrLoan",
      "outputs": [
        {
          "internalType": "bool",
          "name": "",
          "type": "bool"
        }
      ],
      "stateMutability": "view",
      "type": "function"
    },
    {
      "inputs": [
        {
          "internalType": "address",
          "name": "_token",
          "type": "address"
        },
        {
          "internalType": "int256",
          "name": "_amount",
          "type": "int256"
        },
        {
          "internalType": "uint256",
          "name": "_fUpdatedSecondInterestRate",
          "type": "uint256"
        }
      ],
      "name": "loan",
      "outputs": [],
      "stateMutability": "nonpayable",
      "type": "function"
    },
    {
      "inputs": [
        {
          "internalType": "address",
          "name": "_token",
          "type": "address"
        },
        {
          "internalType": "int256",
          "name": "_amount",
          "type": "int256"
        }
      ],
      "name": "payback",
      "outputs": [],
      "stateMutability": "nonpayable",
      "type": "function"
    },
    {
      "inputs": [
        {
          "internalType": "address",
          "name": "_token",
          "type": "address"
        },
        {
          "internalType": "uint256",
          "name": "_fSecondInterestRate",
          "type": "uint256"
        }
      ],
      "name": "recalculateBalance",
      "outputs": [],
      "stateMutability": "nonpayable",
      "type": "function"
    },
    {
      "inputs": [
        {
          "internalType": "address",
          "name": "_token",
          "type": "address"
        }
      ],
      "name": "tokenBalance",
      "outputs": [
        {
          "internalType": "int256",
          "name": "",
          "type": "int256"
        }
      ],
      "stateMutability": "view",
      "type": "function"
    },
    {
      "inputs": [],
      "name": "userAddress",
      "outputs": [
        {
          "internalType": "address",
          "name": "",
          "type": "address"
        }
      ],
      "stateMutability": "view",
      "type": "function"
    },
    {
      "inputs": [
        {
          "internalType": "address",
          "name": "_token",
          "type": "address"
        },
        {
          "internalType": "int256",
          "name": "_amount",
          "type": "int256"
        }
      ],
      "name": "withdraw",
      "outputs": [],
      "stateMutability": "nonpayable",
      "type": "function"
    }
  ],
  "bytecode": "60806040523480156200001157600080fd5b5060405162002a2d38038062002a2d83398101604081905262000034916200005a565b600080546001600160a01b0319166001600160a01b03929092169190911790556200008c565b6000602082840312156200006d57600080fd5b81516001600160a01b03811681146200008557600080fd5b9392505050565b612991806200009c6000396000f3fe608060405234801561001057600080fd5b50600436106100885760003560e01c8063cebc743d1161005b578063cebc743d146100db578063e4128fb3146100ee578063eedc966a1461011e578063f39848041461015957600080fd5b80630b56fd491461008d5780630e19ae76146100a257806313957027146100b55780637da7d3f1146100c8575b600080fd5b6100a061009b366004612779565b610198565b005b6100a06100b03660046127a3565b6102e2565b6100a06100c3366004612779565b6103d3565b6100a06100d6366004612779565b61042d565b6100a06100e93660046127a3565b61056e565b600054610101906001600160a01b031681565b6040516001600160a01b0390911681526020015b60405180910390f35b61014b61012c3660046127d6565b6001600160a01b03166000908152600160208190526040909120015490565b604051908152602001610115565b6101886101673660046127d6565b6001600160a01b031660009081526001602052604090206003015460ff1690565b6040519015158152602001610115565b600081136101c15760405162461bcd60e51b81526004016101b8906127f1565b60405180910390fd5b6001600160a01b0382166000908152600160205260409020600381015460ff166101fd5760405162461bcd60e51b81526004016101b89061281d565b60008160010154126102515760405162461bcd60e51b815260206004820181905260248201527f596f7520646f6e2774206f776520616e7920666f72207468697320746f6b656e60448201526064016101b8565b806001015461025f9061287b565b8213156102ba5760405162461bcd60e51b815260206004820152602360248201527f596f7520617265206f766572706179696e6720666f72207768617420796f75206044820152626f776560e81b60648201526084016101b8565b818160010160008282546102ce9190612898565b909155506102dd90508361066c565b505050565b600082136103025760405162461bcd60e51b81526004016101b8906127f1565b6001600160a01b0383166000908152600160205260409020600381015460ff1615610346578281600101600082825461033b9190612898565b909155506103cd9050565b6040805160a0810182526001600160a01b038681168083526020808401888152848601888152600160608701818152426080890190815260009687529482905297909420955186546001600160a01b0319169516949094178555519184019190915590516002830155915160038201805460ff191691151591909117905590516004909101555b50505050565b6001600160a01b03821660009081526001602052604090206003810154429060ff16156103cd5761041c8260010154836002015484600401548461041791906128d9565b6106d1565b600183015560048201556002015550565b6000811361044d5760405162461bcd60e51b81526004016101b8906127f1565b6001600160a01b0382166000908152600160205260409020600381015460ff166104895760405162461bcd60e51b81526004016101b89061281d565b60008160010154136104f15760405162461bcd60e51b815260206004820152602b60248201527f596f75722062616c616e636520666f72207468697320746f6b656e206973206e60448201526a6f7420706f73697469766560a81b60648201526084016101b8565b806001015482131561055a5760405162461bcd60e51b815260206004820152602c60248201527f596f75206861766520696e73756666696369656e742062616c616e636520666f60448201526b39103a3434b9903a37b5b2b760a11b60648201526084016101b8565b818160010160008282546102ce91906128f0565b6000821361058e5760405162461bcd60e51b81526004016101b8906127f1565b6001600160a01b0383166000908152600160205260409020600381015460ff16156105c7578281600101600082825461033b91906128f0565b6040518060a00160405280856001600160a01b03168152602001846105eb9061287b565b815260208082019490945260016040808301829052426060938401526001600160a01b039788166000908152828752819020845181546001600160a01b031916991698909817885594830151908701559281015160028601559182015160038501805460ff1916911515919091179055506080015160049092019190915550565b6001600160a01b0381166000908152600160205260409020600381015460ff16801561069c575060058160010154125b80156106b457506106ad600561287b565b8160010154135b156106cd576000600182015560038101805460ff191690555b5050565b600061073c6107376106e286610744565b61072d6107326106f1876107d7565b61072d61072861070160016107d7565b61072361070d8d6107d7565b61071e670de0b6b3a76400006107d7565b61083b565b610af5565b610ec5565b611078565b6112c3565b612616565b949350505050565b60008161075357506000919050565b60008083136107655782600003610767565b825b90506000610774826126c4565b9050607081101561078d578060700382901b91506107a0565b60708111156107a0576070810382901c91505b6001600160701b03909116613fff820160701b179060008412156107c8576001607f1b821791505b5060801b92915050565b919050565b6000816107e657506000919050565b8160006107f2826126c4565b9050607081101561080b578060700382901b915061081e565b607081111561081e576070810382901c91505b613fff0160701b6001600160701b03919091161760801b92915050565b6000617fff60f084811c8216919084901c8116908214156108815780617fff1415610870575061ffff60ef1b9150610aef9050565b505050600160ff1b81168218610aef565b80617fff14156108c5576dffffffffffffffffffffffffffff60801b8416156108b4575061ffff60ef1b9150610aef9050565b505050808218600160ff1b16610aef565b600160801b600160ff1b03841661090f57600160801b600160ff1b0385166108f7575061ffff60ef1b9150610aef9050565b505050808218600160ff1b16617fff60f01b17610aef565b6001600160701b03608085901c168161092b5760019150610932565b600160701b175b6001600160701b03608087901c168361097157801561096c576000610956826126c4565b6001955060e20393840160711901939190911b90505b61097b565b600160701b1760721b5b81818161098a5761098a61292f565b049050806109b757600160ff1b878718166109a65760006109ac565b600160ff1b5b945050505050610aef565b6001606c1b8110156109cb576109cb612945565b6000600160731b821015610a0a57600160721b8210156109ff57600160711b8210156109f8576070610a02565b6071610a02565b60725b60ff16610a13565b610a13826126c4565b905083614071018186011115610a3157617fff945060009150610ac4565b83818601613ffc011015610a4c576000945060009150610ac4565b83818601613f8c011015610a99578385613ffc011115610a77578385613ffc010382901b9150610a90565b8385613ffc011015610a9057613ffc8585030382901c91505b60009450610ac4565b6070811115610aac576070810382901c91505b6001600160701b038216915083818601613f8d010394505b81607086901b888a186001607f1b60801b1660801c6001600160801b0316171760801b955050505050505b92915050565b6000617fff60f084811c8216919084901c811690821415610b535780617fff1415610b49576001600160801b03198581169085161415610b39578492505050610aef565b5061ffff60ef1b9150610aef9050565b8492505050610aef565b80617fff1415610b67578392505050610aef565b6001607f1b608086901c90811015906001600160701b031683610b8d5760019350610b94565b600160701b175b6001607f1b608087901c90811015906001600160701b031684610bba5760019450610bc1565b600160701b175b82610bf1576001600160801b03198816600160ff1b14610be15787610be4565b60005b9650505050505050610aef565b80610c11576001600160801b03198916600160ff1b14610be15788610be4565b8486038415158315151415610d1c576070811315610c385789975050505050505050610aef565b6000811315610c4a5790811c90610c79565b606f19811215610c635788975050505050505050610aef565b6000811215610c79578060000384901c93508596505b92810192600160711b8410610c94576001968701969390931c925b86617fff1415610cc65784610cae57617fff60f01b610cb8565b6001600160f01b03195b975050505050505050610aef565b600160701b841015610cdb5760009650610ce8565b6001600160701b03841693505b83607088901b86610cfa576000610d00565b6001607f1b5b6001600160801b0316171760801b975050505050505050610aef565b6000811315610d3757600184901b9350600187039650610d4e565b6000811215610d4e57600182901b91506001860396505b6070811315610d605760019150610dad565b6001811315610d7d576001810360018303901c6001019150610dad565b606f19811215610d905760019350610dad565b600019811215610dad576001816000030360018503901c60010193505b818410610dbe578184039350610dc7565b83820393508294505b83610ddd575060009650610aef95505050505050565b6000610de8856126c4565b90508060711415610e0e57600185901c6001600160701b03169450600188019750610e5d565b6070811015610e5057607081900380891115610e3d578086901b6001600160701b031695508089039850610e4a565b600098600019019590951b945b50610e5d565b6001600160701b03851694505b87617fff1415610e905785610e7757617fff60f01b610e81565b6001600160f01b03195b98505050505050505050610aef565b84607089901b87610ea2576000610ea8565b6001607f1b5b6001600160801b0316171760801b98505050505050505050610aef565b60006001607f1b608083901c1115610ee3575061ffff60ef1b919050565b613fff60f01b6001600160801b031983161415610f0257506000919050565b617fff60f083901c811690811415610f1b575090919050565b6001600160701b03608084901c1681610f375760019150610f3e565b600160701b175b80610f5457506001600160f01b03199392505050565b600061406f81613fff8510610f7a5750600f9290921b9160009150613ffe198401610fb9565b60019250600160701b8410610f9c5784613ffe039050600f84901b9350610fb9565b6000610fa7856126c4565b607f8190039590951b9461406d039150505b836001607f1b1415610ff0578215610fcf576001015b6000610fda826126c4565b60700390508082901b915080830392505061103e565b600083610ffe576000611001565b60015b60ff1690505b600160701b82101561103c5793800260ff81901c607f81019190911c94600019939093019260019290921b9082180190611007565b505b806001600160701b0316607083901b8461105957600061105f565b6001607f1b5b6001600160801b0316171760801b979650505050505050565b6000617fff60f084811c8216919084901c8116908214156111075780617fff14156110e6576001600160801b031985811690851614156110c357505050600160ff1b81168218610aef565b600160ff1b6001600160801b0319868618161415610b3957505050818117610aef565b600160801b600160ff1b038416610870575061ffff60ef1b9150610aef9050565b80617fff141561114357600160801b600160ff1b038516611132575061ffff60ef1b9150610aef9050565b505050600160ff1b82168118610aef565b6001600160701b03608086901c168261115f5760019250611166565b600160701b175b6001600160701b03608086901c16826111825760019250611189565b600160701b175b90810290816111a657600160ff1b878718166109a65760006109ac565b928201926000600160e11b8310156111d957600160e01b8310156111d2576111cd836126c4565b6111dc565b60e06111dc565b60e15b905061407081860110156111f7576000945060009250611294565b6140e0818601101561123a5761407085101561121c57846140700383901c9250611231565b61407085111561123157614070850383901b92505b60009450611294565b61c0dd818601111561125457617fff945060009250611294565b607081111561126b576070810383901c925061127e565b607081101561127e578060700383901b92505b6001600160701b03831692506140df8186010394505b82607086901b888a186001607f1b60801b1660801c6001600160801b0316171760801b95505050505050610aef565b60006001607f1b608083901c90811190617fff60f085901c8116916001600160701b031690821480156112f557508015155b15611309575061ffff60ef1b949350505050565b61400d82111561132f578261132357617fff60f01b611326565b60005b95945050505050565b613f7f8210156113485750613fff60f01b949350505050565b81611356576001915061135d565b600160701b175b613fef82111561137357613fee1982011b611385565b613fef82101561138557613fef8290031c5b828015611396575061203760811b81115b156113a657506000949350505050565b821580156113c55750713fffffffffffffffffffffffffffffffffff81115b156113d95750617fff60f01b949350505050565b6001600160801b0381169060801c8380156113f357508115155b156113ff579019906001015b6001607f1b828116156114235770016a09e667f3bcc908b2fb1366ea957d3e0260801c5b6001607e1b831615611446577001306fe0a31b7152de8d5a46305c85edec0260801c5b6001607d1b831615611469577001172b83c7d517adcdf7c8c50eb14a791f0260801c5b6001607c1b83161561148c5770010b5586cf9890f6298b92b71842a983630260801c5b6001607b1b8316156114af577001059b0d31585743ae7c548eb68ca417fd0260801c5b6001607a1b8316156114d257700102c9a3e778060ee6f7caca4f7a29bde80260801c5b600160791b8316156114f55770010163da9fb33356d84a66ae336dcdfa3f0260801c5b600160781b83161561151857700100b1afa5abcbed6129ab13ec11dc95430260801c5b600160771b83161561153b5770010058c86da1c09ea1ff19d294cf2f679b0260801c5b600160761b83161561155e577001002c605e2e8cec506d21bfc89a23a00f0260801c5b600160751b83161561158157700100162f3904051fa128bca9c55c31e5df0260801c5b600160741b8316156115a4577001000b175effdc76ba38e31671ca9397250260801c5b600160731b8316156115c757700100058ba01fb9f96d6cacd4b180917c3d0260801c5b600160721b8316156115ea5770010002c5cc37da9491d0985c348c68e7b30260801c5b600160711b83161561160d577001000162e525ee054754457d59952920260260801c5b600160701b8316156116305770010000b17255775c040618bf4a4ade83fc0260801c5b6001606f1b831615611653577001000058b91b5bc9ae2eed81e9b7d4cfab0260801c5b6001606e1b83161561167657700100002c5c89d5ec6ca4d7c8acc017b7c90260801c5b6001606d1b8316156116995770010000162e43f4f831060e02d839a9d16d0260801c5b6001606c1b8316156116bc57700100000b1721bcfc99d9f890ea069117630260801c5b6001606b1b8316156116df5770010000058b90cf1e6d97f9ca14dbcc16280260801c5b6001606a1b831615611702577001000002c5c863b73f016468f6bac5ca2b0260801c5b600160691b83161561172557700100000162e430e5a18f6119e3c02282a50260801c5b600160681b831615611748577001000000b1721835514b86e6d96efd1bfe0260801c5b600160671b83161561176b57700100000058b90c0b48c6be5df846c5b2ef0260801c5b600160661b83161561178e5770010000002c5c8601cc6b9e94213c72737a0260801c5b600160651b8316156117b1577001000000162e42fff037df38aa2b219f060260801c5b600160641b8316156117d45770010000000b17217fba9c739aa5819f44f90260801c5b600160631b8316156117f7577001000000058b90bfcdee5acd3c1cedc8230260801c5b600160621b83161561181a57700100000002c5c85fe31f35a6a30da1be500260801c5b600160611b83161561183d5770010000000162e42ff0999ce3541b9fffcf0260801c5b600160601b83161561186057700100000000b17217f80f4ef5aadda455540260801c5b6001605f1b8316156118835770010000000058b90bfbf8479bd5a81b51ad0260801c5b6001605e1b8316156118a6577001000000002c5c85fdf84bd62ae30a74cc0260801c5b6001605d1b8316156118c957700100000000162e42fefb2fed257559bdaa0260801c5b6001605c1b8316156118ec577001000000000b17217f7d5a7716bba4a9ae0260801c5b6001605b1b83161561190f57700100000000058b90bfbe9ddbac5e109cce0260801c5b6001605a1b8316156119325770010000000002c5c85fdf4b15de6f17eb0d0260801c5b600160591b831615611955577001000000000162e42fefa494f1478fde050260801c5b600160581b8316156119785770010000000000b17217f7d20cf927c8e94c0260801c5b600160571b83161561199b577001000000000058b90bfbe8f71cb4e4b33d0260801c5b600160561b8316156119be57700100000000002c5c85fdf477b662b269450260801c5b600160551b8316156119e15770010000000000162e42fefa3ae53369388c0260801c5b600160541b831615611a0457700100000000000b17217f7d1d351a389d400260801c5b600160531b831615611a275770010000000000058b90bfbe8e8b2d3d4ede0260801c5b600160521b831615611a4a577001000000000002c5c85fdf4741bea6e77e0260801c5b600160511b831615611a6d57700100000000000162e42fefa39fe95583c20260801c5b600160501b831615611a90577001000000000000b17217f7d1cfb72b45e10260801c5b6980000000000000000000831615611ab957700100000000000058b90bfbe8e7cc35c3f00260801c5b6940000000000000000000831615611ae25770010000000000002c5c85fdf473e242ea380260801c5b6920000000000000000000831615611b0b577001000000000000162e42fefa39f02b772c0260801c5b6910000000000000000000831615611b345770010000000000000b17217f7d1cf7d83c1a0260801c5b6908000000000000000000831615611b5d577001000000000000058b90bfbe8e7bdcbe2e0260801c5b6904000000000000000000831615611b8657700100000000000002c5c85fdf473dea871f0260801c5b6902000000000000000000831615611baf5770010000000000000162e42fefa39ef44d910260801c5b6901000000000000000000831615611bd857700100000000000000b17217f7d1cf79e9490260801c5b68800000000000000000831615611c005770010000000000000058b90bfbe8e7bce5440260801c5b68400000000000000000831615611c28577001000000000000002c5c85fdf473de6eca0260801c5b68200000000000000000831615611c5057700100000000000000162e42fefa39ef366f0260801c5b68100000000000000000831615611c78577001000000000000000b17217f7d1cf79afa0260801c5b68080000000000000000831615611ca057700100000000000000058b90bfbe8e7bcd6d0260801c5b68040000000000000000831615611cc85770010000000000000002c5c85fdf473de6b20260801c5b68020000000000000000831615611cf0577001000000000000000162e42fefa39ef3580260801c5b600160401b831615611d135770010000000000000000b17217f7d1cf79ab0260801c5b678000000000000000831615611d3a577001000000000000000058b90bfbe8e7bcd50260801c5b674000000000000000831615611d6157700100000000000000002c5c85fdf473de6a0260801c5b672000000000000000831615611d885770010000000000000000162e42fefa39ef340260801c5b671000000000000000831615611daf57700100000000000000000b17217f7d1cf7990260801c5b670800000000000000831615611dd65770010000000000000000058b90bfbe8e7bcc0260801c5b670400000000000000831615611dfd577001000000000000000002c5c85fdf473de50260801c5b670200000000000000831615611e2457700100000000000000000162e42fefa39ef20260801c5b670100000000000000831615611e4b577001000000000000000000b17217f7d1cf780260801c5b6680000000000000831615611e7157700100000000000000000058b90bfbe8e7bb0260801c5b6640000000000000831615611e975770010000000000000000002c5c85fdf473dd0260801c5b6620000000000000831615611ebd577001000000000000000000162e42fefa39ee0260801c5b6610000000000000831615611ee35770010000000000000000000b17217f7d1cf60260801c5b6608000000000000831615611f09577001000000000000000000058b90bfbe8e7a0260801c5b6604000000000000831615611f2f57700100000000000000000002c5c85fdf473c0260801c5b6602000000000000831615611f555770010000000000000000000162e42fefa39d0260801c5b6601000000000000831615611f7b57700100000000000000000000b17217f7d1ce0260801c5b65800000000000831615611fa05770010000000000000000000058b90bfbe8e60260801c5b65400000000000831615611fc5577001000000000000000000002c5c85fdf4720260801c5b65200000000000831615611fea57700100000000000000000000162e42fefa380260801c5b6510000000000083161561200f577001000000000000000000000b17217f7d1b0260801c5b6508000000000083161561203457700100000000000000000000058b90bfbe8d0260801c5b650400000000008316156120595770010000000000000000000002c5c85fdf460260801c5b6502000000000083161561207e577001000000000000000000000162e42fefa20260801c5b650100000000008316156120a35770010000000000000000000000b17217f7d00260801c5b6480000000008316156120c7577001000000000000000000000058b90bfbe70260801c5b6440000000008316156120eb57700100000000000000000000002c5c85fdf30260801c5b64200000000083161561210f5770010000000000000000000000162e42fef90260801c5b64100000000083161561213357700100000000000000000000000b17217f7c0260801c5b6408000000008316156121575770010000000000000000000000058b90bfbd0260801c5b64040000000083161561217b577001000000000000000000000002c5c85fde0260801c5b64020000000083161561219f57700100000000000000000000000162e42fee0260801c5b6401000000008316156121c3577001000000000000000000000000b17217f60260801c5b63800000008316156121e657700100000000000000000000000058b90bfa0260801c5b63400000008316156122095770010000000000000000000000002c5c85fc0260801c5b632000000083161561222c577001000000000000000000000000162e42fd0260801c5b631000000083161561224f5770010000000000000000000000000b17217e0260801c5b6308000000831615612272577001000000000000000000000000058b90be0260801c5b630400000083161561229557700100000000000000000000000002c5c85e0260801c5b63020000008316156122b85770010000000000000000000000000162e42e0260801c5b63010000008316156122db57700100000000000000000000000000b172160260801c5b628000008316156122fd5770010000000000000000000000000058b90a0260801c5b6240000083161561231f577001000000000000000000000000002c5c840260801c5b6220000083161561234157700100000000000000000000000000162e410260801c5b62100000831615612363577001000000000000000000000000000b17200260801c5b6208000083161561238557700100000000000000000000000000058b8f0260801c5b620400008316156123a75770010000000000000000000000000002c5c70260801c5b620200008316156123c9577001000000000000000000000000000162e30260801c5b620100008316156123eb5770010000000000000000000000000000b1710260801c5b61800083161561240c577001000000000000000000000000000058b80260801c5b61400083161561242d57700100000000000000000000000000002c5b0260801c5b61200083161561244e5770010000000000000000000000000000162d0260801c5b61100083161561246f57700100000000000000000000000000000b160260801c5b6108008316156124905770010000000000000000000000000000058a0260801c5b6104008316156124b1577001000000000000000000000000000002c40260801c5b6102008316156124d2577001000000000000000000000000000001610260801c5b6101008316156124f3577001000000000000000000000000000000b00260801c5b6080831615612513577001000000000000000000000000000000570260801c5b60408316156125335770010000000000000000000000000000002b0260801c5b6020831615612553577001000000000000000000000000000000150260801c5b60108316156125735770010000000000000000000000000000000a0260801c5b6008831615612593577001000000000000000000000000000000040260801c5b60048316156125b3577001000000000000000000000000000000010260801c5b846125d457600f81901c6001600160701b03169050613fff82019150612603565b613ffe82116125f957600f81901c6001600160701b0316905081613fff039150612603565b600091613fee19011c5b60709190911b1760801b95945050505050565b6000617fff60f083901c166140fe81111561263057600080fd5b613fff8110156126435750600092915050565b600160701b6001600160701b03608085901c161761406f82101561266d5761406f8290031c61267f565b61406f82111561267f5761406e1982011b5b6001607f1b608085901c106126a957600160ff1b81111561269f57600080fd5b6000039392505050565b6001600160ff1b038111156126bd57600080fd5b9392505050565b60008082116126d257600080fd5b6000600160801b83106126e757608092831c92015b600160401b83106126fa57604092831c92015b640100000000831061270e57602092831c92015b62010000831061272057601092831c92015b610100831061273157600892831c92015b6010831061274157600492831c92015b6004831061275157600292831c92015b60028310610aef5760010192915050565b80356001600160a01b03811681146107d257600080fd5b6000806040838503121561278c57600080fd5b61279583612762565b946020939093013593505050565b6000806000606084860312156127b857600080fd5b6127c184612762565b95602085013595506040909401359392505050565b6000602082840312156127e857600080fd5b6126bd82612762565b6020808252601290820152710416d6f756e74206d757374206265203e20360741b604082015260600190565b60208082526028908201527f596f7572204c6f616e206163636f756e7420646f65736e2774206861766520746040820152673434b99031b7b4b760c11b606082015260800190565b634e487b7160e01b600052601160045260246000fd5b6000600160ff1b82141561289157612891612865565b5060000390565b600080821280156001600160ff1b03849003851316156128ba576128ba612865565b600160ff1b83900384128116156128d3576128d3612865565b50500190565b6000828210156128eb576128eb612865565b500390565b60008083128015600160ff1b85018412161561290e5761290e612865565b6001600160ff1b038401831381161561292957612929612865565b50500390565b634e487b7160e01b600052601260045260246000fd5b634e487b7160e01b600052600160045260246000fdfea264697066735822122073bc6e07294d254c9907f482916b7bd86eb7443da0670cb7686fcea87d0d335c64736f6c634300080b0033",
  "bytecodeSha1": "1e2b6c625e09bd8507988fef10bad4f0ecaab6ca",
  "compiler": {
    "evm_version": "istanbul",
    "optimizer": {
      "enabled": true,
      "runs": 200
    },
    "version": "0.8.11+commit.d7f03943"
  },
  "contractName": "LoanAccount",
  "language": "Solidity",
  "natspec": {
    "kind": "dev",
    "methods": {},
    "version": 1
  },
  "opcodes": "PUSH1 0x80 PUSH1 0x40 MSTORE CALLVALUE DUP1 ISZERO PUSH2 0x10 JUMPI PUSH1 0x0 DUP1 REVERT JUMPDEST POP PUSH1 0x4 CALLDATASIZE LT PUSH2 0x88 JUMPI PUSH1 0x0 CALLDATALOAD PUSH1 0xE0 SHR DUP1 PUSH4 0xCEBC743D GT PUSH2 0x5B JUMPI DUP1 PUSH4 0xCEBC743D EQ PUSH2 0xDB JUMPI DUP1 PUSH4 0xE4128FB3 EQ PUSH2 0xEE JUMPI DUP1 PUSH4 0xEEDC966A EQ PUSH2 0x11E JUMPI DUP1 PUSH4 0xF3984804 EQ PUSH2 0x159 JUMPI PUSH1 0x0 DUP1 REVERT JUMPDEST DUP1 PUSH4 0xB56FD49 EQ PUSH2 0x8D JUMPI DUP1 PUSH4 0xE19AE76 EQ PUSH2 0xA2 JUMPI DUP1 PUSH4 0x13957027 EQ PUSH2 0xB5 JUMPI DUP1 PUSH4 0x7DA7D3F1 EQ PUSH2 0xC8 JUMPI JUMPDEST PUSH1 0x0 DUP1 REVERT JUMPDEST PUSH2 0xA0 PUSH2 0x9B CALLDATASIZE PUSH1 0x4 PUSH2 0x2779 JUMP JUMPDEST PUSH2 0x198 JUMP JUMPDEST STOP JUMPDEST PUSH2 0xA0 PUSH2 0xB0 CALLDATASIZE PUSH1 0x4 PUSH2 0x27A3 JUMP JUMPDEST PUSH2 0x2E2 JUMP JUMPDEST PUSH2 0xA0 PUSH2 0xC3 CALLDATASIZE PUSH1 0x4 PUSH2 0x2779 JUMP JUMPDEST PUSH2 0x3D3 JUMP JUMPDEST PUSH2 0xA0 PUSH2 0xD6 CALLDATASIZE PUSH1 0x4 PUSH2 0x2779 JUMP JUMPDEST PUSH2 0x42D JUMP JUMPDEST PUSH2 0xA0 PUSH2 0xE9 CALLDATASIZE PUSH1 0x4 PUSH2 0x27A3 JUMP JUMPDEST PUSH2 0x56E JUMP JUMPDEST PUSH1 0x0 SLOAD PUSH2 0x101 SWAP1 PUSH1 0x1 PUSH1 0x1 PUSH1 0xA0 SHL SUB AND DUP2 JUMP JUMPDEST PUSH1 0x40 MLOAD PUSH1 0x1 PUSH1 0x1 PUSH1 0xA0 SHL SUB SWAP1 SWAP2 AND DUP2 MSTORE PUSH1 0x20 ADD JUMPDEST PUSH1 0x40 MLOAD DUP1 SWAP2 SUB SWAP1 RETURN JUMPDEST PUSH2 0x14B PUSH2 0x12C CALLDATASIZE PUSH1 0x4 PUSH2 0x27D6 JUMP JUMPDEST PUSH1 0x1 PUSH1 0x1 PUSH1 0xA0 SHL SUB AND PUSH1 0x0 SWAP1 DUP2 MSTORE PUSH1 0x1 PUSH1 0x20 DUP2 SWAP1 MSTORE PUSH1 0x40 SWAP1 SWAP2 KECCAK256 ADD SLOAD SWAP1 JUMP JUMPDEST PUSH1 0x40 MLOAD SWAP1 DUP2 MSTORE PUSH1 0x20 ADD PUSH2 0x115 JUMP JUMPDEST PUSH2 0x188 PUSH2 0x167 CALLDATASIZE PUSH1 0x4 PUSH2 0x27D6 JUMP JUMPDEST PUSH1 0x1 PUSH1 0x1 PUSH1 0xA0 SHL SUB AND PUSH1 0x0 SWAP1 DUP2 MSTORE PUSH1 0x1 PUSH1 0x20 MSTORE PUSH1 0x40 SWAP1 KECCAK256 PUSH1 0x3 ADD SLOAD PUSH1 0xFF AND SWAP1 JUMP JUMPDEST PUSH1 0x40 MLOAD SWAP1 ISZERO ISZERO DUP2 MSTORE PUSH1 0x20 ADD PUSH2 0x115 JUMP JUMPDEST PUSH1 0x0 DUP2 SGT PUSH2 0x1C1 JUMPI PUSH1 0x40 MLOAD PUSH3 0x461BCD PUSH1 0xE5 SHL DUP2 MSTORE PUSH1 0x4 ADD PUSH2 0x1B8 SWAP1 PUSH2 0x27F1 JUMP JUMPDEST PUSH1 0x40 MLOAD DUP1 SWAP2 SUB SWAP1 REVERT JUMPDEST PUSH1 0x1 PUSH1 0x1 PUSH1 0xA0 SHL SUB DUP3 AND PUSH1 0x0 SWAP1 DUP2 MSTORE PUSH1 0x1 PUSH1 0x20 MSTORE PUSH1 0x40 SWAP1 KECCAK256 PUSH1 0x3 DUP2 ADD SLOAD PUSH1 0xFF AND PUSH2 0x1FD JUMPI PUSH1 0x40 MLOAD PUSH3 0x461BCD PUSH1 0xE5 SHL DUP2 MSTORE PUSH1 0x4 ADD PUSH2 0x1B8 SWAP1 PUSH2 0x281D JUMP JUMPDEST PUSH1 0x0 DUP2 PUSH1 0x1 ADD SLOAD SLT PUSH2 0x251 JUMPI PUSH1 0x40 MLOAD PUSH3 0x461BCD PUSH1 0xE5 SHL DUP2 MSTORE PUSH1 0x20 PUSH1 0x4 DUP3 ADD DUP2 SWAP1 MSTORE PUSH1 0x24 DUP3 ADD MSTORE PUSH32 0x596F7520646F6E2774206F776520616E7920666F72207468697320746F6B656E PUSH1 0x44 DUP3 ADD MSTORE PUSH1 0x64 ADD PUSH2 0x1B8 JUMP JUMPDEST DUP1 PUSH1 0x1 ADD SLOAD PUSH2 0x25F SWAP1 PUSH2 0x287B JUMP JUMPDEST DUP3 SGT ISZERO PUSH2 0x2BA JUMPI PUSH1 0x40 MLOAD PUSH3 0x461BCD PUSH1 0xE5 SHL DUP2 MSTORE PUSH1 0x20 PUSH1 0x4 DUP3 ADD MSTORE PUSH1 0x23 PUSH1 0x24 DUP3 ADD MSTORE PUSH32 0x596F7520617265206F766572706179696E6720666F72207768617420796F7520 PUSH1 0x44 DUP3 ADD MSTORE PUSH3 0x6F7765 PUSH1 0xE8 SHL PUSH1 0x64 DUP3 ADD MSTORE PUSH1 0x84 ADD PUSH2 0x1B8 JUMP JUMPDEST DUP2 DUP2 PUSH1 0x1 ADD PUSH1 0x0 DUP3 DUP3 SLOAD PUSH2 0x2CE SWAP2 SWAP1 PUSH2 0x2898 JUMP JUMPDEST SWAP1 SWAP2 SSTORE POP PUSH2 0x2DD SWAP1 POP DUP4 PUSH2 0x66C JUMP JUMPDEST POP POP POP JUMP JUMPDEST PUSH1 0x0 DUP3 SGT PUSH2 0x302 JUMPI PUSH1 0x40 MLOAD PUSH3 0x461BCD PUSH1 0xE5 SHL DUP2 MSTORE PUSH1 0x4 ADD PUSH2 0x1B8 SWAP1 PUSH2 0x27F1 JUMP JUMPDEST PUSH1 0x1 PUSH1 0x1 PUSH1 0xA0 SHL SUB DUP4 AND PUSH1 0x0 SWAP1 DUP2 MSTORE PUSH1 0x1 PUSH1 0x20 MSTORE PUSH1 0x40 SWAP1 KECCAK256 PUSH1 0x3 DUP2 ADD SLOAD PUSH1 0xFF AND ISZERO PUSH2 0x346 JUMPI DUP3 DUP2 PUSH1 0x1 ADD PUSH1 0x0 DUP3 DUP3 SLOAD PUSH2 0x33B SWAP2 SWAP1 PUSH2 0x2898 JUMP JUMPDEST SWAP1 SWAP2 SSTORE POP PUSH2 0x3CD SWAP1 POP JUMP JUMPDEST PUSH1 0x40 DUP1 MLOAD PUSH1 0xA0 DUP2 ADD DUP3 MSTORE PUSH1 0x1 PUSH1 0x1 PUSH1 0xA0 SHL SUB DUP7 DUP2 AND DUP1 DUP4 MSTORE PUSH1 0x20 DUP1 DUP5 ADD DUP9 DUP2 MSTORE DUP5 DUP7 ADD DUP9 DUP2 MSTORE PUSH1 0x1 PUSH1 0x60 DUP8 ADD DUP2 DUP2 MSTORE TIMESTAMP PUSH1 0x80 DUP10 ADD SWAP1 DUP2 MSTORE PUSH1 0x0 SWAP7 DUP8 MSTORE SWAP5 DUP3 SWAP1 MSTORE SWAP8 SWAP1 SWAP5 KECCAK256 SWAP6 MLOAD DUP7 SLOAD PUSH1 0x1 PUSH1 0x1 PUSH1 0xA0 SHL SUB NOT AND SWAP6 AND SWAP5 SWAP1 SWAP5 OR DUP6 SSTORE MLOAD SWAP2 DUP5 ADD SWAP2 SWAP1 SWAP2 SSTORE SWAP1 MLOAD PUSH1 0x2 DUP4 ADD SSTORE SWAP2 MLOAD PUSH1 0x3 DUP3 ADD DUP1 SLOAD PUSH1 0xFF NOT AND SWAP2 ISZERO ISZERO SWAP2 SWAP1 SWAP2 OR SWAP1 SSTORE SWAP1 MLOAD PUSH1 0x4 SWAP1 SWAP2 ADD SSTORE JUMPDEST POP POP POP POP JUMP JUMPDEST PUSH1 0x1 PUSH1 0x1 PUSH1 0xA0 SHL SUB DUP3 AND PUSH1 0x0 SWAP1 DUP2 MSTORE PUSH1 0x1 PUSH1 0x20 MSTORE PUSH1 0x40 SWAP1 KECCAK256 PUSH1 0x3 DUP2 ADD SLOAD TIMESTAMP SWAP1 PUSH1 0xFF AND ISZERO PUSH2 0x3CD JUMPI PUSH2 0x41C DUP3 PUSH1 0x1 ADD SLOAD DUP4 PUSH1 0x2 ADD SLOAD DUP5 PUSH1 0x4 ADD SLOAD DUP5 PUSH2 0x417 SWAP2 SWAP1 PUSH2 0x28D9 JUMP JUMPDEST PUSH2 0x6D1 JUMP JUMPDEST PUSH1 0x1 DUP4 ADD SSTORE PUSH1 0x4 DUP3 ADD SSTORE PUSH1 0x2 ADD SSTORE POP JUMP JUMPDEST PUSH1 0x0 DUP2 SGT PUSH2 0x44D JUMPI PUSH1 0x40 MLOAD PUSH3 0x461BCD PUSH1 0xE5 SHL DUP2 MSTORE PUSH1 0x4 ADD PUSH2 0x1B8 SWAP1 PUSH2 0x27F1 JUMP JUMPDEST PUSH1 0x1 PUSH1 0x1 PUSH1 0xA0 SHL SUB DUP3 AND PUSH1 0x0 SWAP1 DUP2 MSTORE PUSH1 0x1 PUSH1 0x20 MSTORE PUSH1 0x40 SWAP1 KECCAK256 PUSH1 0x3 DUP2 ADD SLOAD PUSH1 0xFF AND PUSH2 0x489 JUMPI PUSH1 0x40 MLOAD PUSH3 0x461BCD PUSH1 0xE5 SHL DUP2 MSTORE PUSH1 0x4 ADD PUSH2 0x1B8 SWAP1 PUSH2 0x281D JUMP JUMPDEST PUSH1 0x0 DUP2 PUSH1 0x1 ADD SLOAD SGT PUSH2 0x4F1 JUMPI PUSH1 0x40 MLOAD PUSH3 0x461BCD PUSH1 0xE5 SHL DUP2 MSTORE PUSH1 0x20 PUSH1 0x4 DUP3 ADD MSTORE PUSH1 0x2B PUSH1 0x24 DUP3 ADD MSTORE PUSH32 0x596F75722062616C616E636520666F72207468697320746F6B656E206973206E PUSH1 0x44 DUP3 ADD MSTORE PUSH11 0x6F7420706F736974697665 PUSH1 0xA8 SHL PUSH1 0x64 DUP3 ADD MSTORE PUSH1 0x84 ADD PUSH2 0x1B8 JUMP JUMPDEST DUP1 PUSH1 0x1 ADD SLOAD DUP3 SGT ISZERO PUSH2 0x55A JUMPI PUSH1 0x40 MLOAD PUSH3 0x461BCD PUSH1 0xE5 SHL DUP2 MSTORE PUSH1 0x20 PUSH1 0x4 DUP3 ADD MSTORE PUSH1 0x2C PUSH1 0x24 DUP3 ADD MSTORE PUSH32 0x596F75206861766520696E73756666696369656E742062616C616E636520666F PUSH1 0x44 DUP3 ADD MSTORE PUSH12 0x39103A3434B9903A37B5B2B7 PUSH1 0xA1 SHL PUSH1 0x64 DUP3 ADD MSTORE PUSH1 0x84 ADD PUSH2 0x1B8 JUMP JUMPDEST DUP2 DUP2 PUSH1 0x1 ADD PUSH1 0x0 DUP3 DUP3 SLOAD PUSH2 0x2CE SWAP2 SWAP1 PUSH2 0x28F0 JUMP JUMPDEST PUSH1 0x0 DUP3 SGT PUSH2 0x58E JUMPI PUSH1 0x40 MLOAD PUSH3 0x461BCD PUSH1 0xE5 SHL DUP2 MSTORE PUSH1 0x4 ADD PUSH2 0x1B8 SWAP1 PUSH2 0x27F1 JUMP JUMPDEST PUSH1 0x1 PUSH1 0x1 PUSH1 0xA0 SHL SUB DUP4 AND PUSH1 0x0 SWAP1 DUP2 MSTORE PUSH1 0x1 PUSH1 0x20 MSTORE PUSH1 0x40 SWAP1 KECCAK256 PUSH1 0x3 DUP2 ADD SLOAD PUSH1 0xFF AND ISZERO PUSH2 0x5C7 JUMPI DUP3 DUP2 PUSH1 0x1 ADD PUSH1 0x0 DUP3 DUP3 SLOAD PUSH2 0x33B SWAP2 SWAP1 PUSH2 0x28F0 JUMP JUMPDEST PUSH1 0x40 MLOAD DUP1 PUSH1 0xA0 ADD PUSH1 0x40 MSTORE DUP1 DUP6 PUSH1 0x1 PUSH1 0x1 PUSH1 0xA0 SHL SUB AND DUP2 MSTORE PUSH1 0x20 ADD DUP5 PUSH2 0x5EB SWAP1 PUSH2 0x287B JUMP JUMPDEST DUP2 MSTORE PUSH1 0x20 DUP1 DUP3 ADD SWAP5 SWAP1 SWAP5 MSTORE PUSH1 0x1 PUSH1 0x40 DUP1 DUP4 ADD DUP3 SWAP1 MSTORE TIMESTAMP PUSH1 0x60 SWAP4 DUP5 ADD MSTORE PUSH1 0x1 PUSH1 0x1 PUSH1 0xA0 SHL SUB SWAP8 DUP9 AND PUSH1 0x0 SWAP1 DUP2 MSTORE DUP3 DUP8 MSTORE DUP2 SWAP1 KECCAK256 DUP5 MLOAD DUP2 SLOAD PUSH1 0x1 PUSH1 0x1 PUSH1 0xA0 SHL SUB NOT AND SWAP10 AND SWAP9 SWAP1 SWAP9 OR DUP9 SSTORE SWAP5 DUP4 ADD MLOAD SWAP1 DUP8 ADD SSTORE SWAP3 DUP2 ADD MLOAD PUSH1 0x2 DUP7 ADD SSTORE SWAP2 DUP3 ADD MLOAD PUSH1 0x3 DUP6 ADD DUP1 SLOAD PUSH1 0xFF NOT AND SWAP2 ISZERO ISZERO SWAP2 SWAP1 SWAP2 OR SWAP1 SSTORE POP PUSH1 0x80 ADD MLOAD PUSH1 0x4 SWAP1 SWAP3 ADD SWAP2 SWAP1 SWAP2 SSTORE POP JUMP JUMPDEST PUSH1 0x1 PUSH1 0x1 PUSH1 0xA0 SHL SUB DUP2 AND PUSH1 0x0 SWAP1 DUP2 MSTORE PUSH1 0x1 PUSH1 0x20 MSTORE PUSH1 0x40 SWAP1 KECCAK256 PUSH1 0x3 DUP2 ADD SLOAD PUSH1 0xFF AND DUP1 ISZERO PUSH2 0x69C JUMPI POP PUSH1 0x5 DUP2 PUSH1 0x1 ADD SLOAD SLT JUMPDEST DUP1 ISZERO PUSH2 0x6B4 JUMPI POP PUSH2 0x6AD PUSH1 0x5 PUSH2 0x287B JUMP JUMPDEST DUP2 PUSH1 0x1 ADD SLOAD SGT JUMPDEST ISZERO PUSH2 0x6CD JUMPI PUSH1 0x0 PUSH1 0x1 DUP3 ADD SSTORE PUSH1 0x3 DUP2 ADD DUP1 SLOAD PUSH1 0xFF NOT AND SWAP1 SSTORE JUMPDEST POP POP JUMP JUMPDEST PUSH1 0x0 PUSH2 0x73C PUSH2 0x737 PUSH2 0x6E2 DUP7 PUSH2 0x744 JUMP JUMPDEST PUSH2 0x72D PUSH2 0x732 PUSH2 0x6F1 DUP8 PUSH2 0x7D7 JUMP JUMPDEST PUSH2 0x72D PUSH2 0x728 PUSH2 0x701 PUSH1 0x1 PUSH2 0x7D7 JUMP JUMPDEST PUSH2 0x723 PUSH2 0x70D DUP14 PUSH2 0x7D7 JUMP JUMPDEST PUSH2 0x71E PUSH8 0xDE0B6B3A7640000 PUSH2 0x7D7 JUMP JUMPDEST PUSH2 0x83B JUMP JUMPDEST PUSH2 0xAF5 JUMP JUMPDEST PUSH2 0xEC5 JUMP JUMPDEST PUSH2 0x1078 JUMP JUMPDEST PUSH2 0x12C3 JUMP JUMPDEST PUSH2 0x2616 JUMP JUMPDEST SWAP5 SWAP4 POP POP POP POP JUMP JUMPDEST PUSH1 0x0 DUP2 PUSH2 0x753 JUMPI POP PUSH1 0x0 SWAP2 SWAP1 POP JUMP JUMPDEST PUSH1 0x0 DUP1 DUP4 SGT PUSH2 0x765 JUMPI DUP3 PUSH1 0x0 SUB PUSH2 0x767 JUMP JUMPDEST DUP3 JUMPDEST SWAP1 POP PUSH1 0x0 PUSH2 0x774 DUP3 PUSH2 0x26C4 JUMP JUMPDEST SWAP1 POP PUSH1 0x70 DUP2 LT ISZERO PUSH2 0x78D JUMPI DUP1 PUSH1 0x70 SUB DUP3 SWAP1 SHL SWAP2 POP PUSH2 0x7A0 JUMP JUMPDEST PUSH1 0x70 DUP2 GT ISZERO PUSH2 0x7A0 JUMPI PUSH1 0x70 DUP2 SUB DUP3 SWAP1 SHR SWAP2 POP JUMPDEST PUSH1 0x1 PUSH1 0x1 PUSH1 0x70 SHL SUB SWAP1 SWAP2 AND PUSH2 0x3FFF DUP3 ADD PUSH1 0x70 SHL OR SWAP1 PUSH1 0x0 DUP5 SLT ISZERO PUSH2 0x7C8 JUMPI PUSH1 0x1 PUSH1 0x7F SHL DUP3 OR SWAP2 POP JUMPDEST POP PUSH1 0x80 SHL SWAP3 SWAP2 POP POP JUMP JUMPDEST SWAP2 SWAP1 POP JUMP JUMPDEST PUSH1 0x0 DUP2 PUSH2 0x7E6 JUMPI POP PUSH1 0x0 SWAP2 SWAP1 POP JUMP JUMPDEST DUP2 PUSH1 0x0 PUSH2 0x7F2 DUP3 PUSH2 0x26C4 JUMP JUMPDEST SWAP1 POP PUSH1 0x70 DUP2 LT ISZERO PUSH2 0x80B JUMPI DUP1 PUSH1 0x70 SUB DUP3 SWAP1 SHL SWAP2 POP PUSH2 0x81E JUMP JUMPDEST PUSH1 0x70 DUP2 GT ISZERO PUSH2 0x81E JUMPI PUSH1 0x70 DUP2 SUB DUP3 SWAP1 SHR SWAP2 POP JUMPDEST PUSH2 0x3FFF ADD PUSH1 0x70 SHL PUSH1 0x1 PUSH1 0x1 PUSH1 0x70 SHL SUB SWAP2 SWAP1 SWAP2 AND OR PUSH1 0x80 SHL SWAP3 SWAP2 POP POP JUMP JUMPDEST PUSH1 0x0 PUSH2 0x7FFF PUSH1 0xF0 DUP5 DUP2 SHR DUP3 AND SWAP2 SWAP1 DUP5 SWAP1 SHR DUP2 AND SWAP1 DUP3 EQ ISZERO PUSH2 0x881 JUMPI DUP1 PUSH2 0x7FFF EQ ISZERO PUSH2 0x870 JUMPI POP PUSH2 0xFFFF PUSH1 0xEF SHL SWAP2 POP PUSH2 0xAEF SWAP1 POP JUMP JUMPDEST POP POP POP PUSH1 0x1 PUSH1 0xFF SHL DUP2 AND DUP3 XOR PUSH2 0xAEF JUMP JUMPDEST DUP1 PUSH2 0x7FFF EQ ISZERO PUSH2 0x8C5 JUMPI PUSH14 0xFFFFFFFFFFFFFFFFFFFFFFFFFFFF PUSH1 0x80 SHL DUP5 AND ISZERO PUSH2 0x8B4 JUMPI POP PUSH2 0xFFFF PUSH1 0xEF SHL SWAP2 POP PUSH2 0xAEF SWAP1 POP JUMP JUMPDEST POP POP POP DUP1 DUP3 XOR PUSH1 0x1 PUSH1 0xFF SHL AND PUSH2 0xAEF JUMP JUMPDEST PUSH1 0x1 PUSH1 0x80 SHL PUSH1 0x1 PUSH1 0xFF SHL SUB DUP5 AND PUSH2 0x90F JUMPI PUSH1 0x1 PUSH1 0x80 SHL PUSH1 0x1 PUSH1 0xFF SHL SUB DUP6 AND PUSH2 0x8F7 JUMPI POP PUSH2 0xFFFF PUSH1 0xEF SHL SWAP2 POP PUSH2 0xAEF SWAP1 POP JUMP JUMPDEST POP POP POP DUP1 DUP3 XOR PUSH1 0x1 PUSH1 0xFF SHL AND PUSH2 0x7FFF PUSH1 0xF0 SHL OR PUSH2 0xAEF JUMP JUMPDEST PUSH1 0x1 PUSH1 0x1 PUSH1 0x70 SHL SUB PUSH1 0x80 DUP6 SWAP1 SHR AND DUP2 PUSH2 0x92B JUMPI PUSH1 0x1 SWAP2 POP PUSH2 0x932 JUMP JUMPDEST PUSH1 0x1 PUSH1 0x70 SHL OR JUMPDEST PUSH1 0x1 PUSH1 0x1 PUSH1 0x70 SHL SUB PUSH1 0x80 DUP8 SWAP1 SHR AND DUP4 PUSH2 0x971 JUMPI DUP1 ISZERO PUSH2 0x96C JUMPI PUSH1 0x0 PUSH2 0x956 DUP3 PUSH2 0x26C4 JUMP JUMPDEST PUSH1 0x1 SWAP6 POP PUSH1 0xE2 SUB SWAP4 DUP5 ADD PUSH1 0x71 NOT ADD SWAP4 SWAP2 SWAP1 SWAP2 SHL SWAP1 POP JUMPDEST PUSH2 0x97B JUMP JUMPDEST PUSH1 0x1 PUSH1 0x70 SHL OR PUSH1 0x72 SHL JUMPDEST DUP2 DUP2 DUP2 PUSH2 0x98A JUMPI PUSH2 0x98A PUSH2 0x292F JUMP JUMPDEST DIV SWAP1 POP DUP1 PUSH2 0x9B7 JUMPI PUSH1 0x1 PUSH1 0xFF SHL DUP8 DUP8 XOR AND PUSH2 0x9A6 JUMPI PUSH1 0x0 PUSH2 0x9AC JUMP JUMPDEST PUSH1 0x1 PUSH1 0xFF SHL JUMPDEST SWAP5 POP POP POP POP POP PUSH2 0xAEF JUMP JUMPDEST PUSH1 0x1 PUSH1 0x6C SHL DUP2 LT ISZERO PUSH2 0x9CB JUMPI PUSH2 0x9CB PUSH2 0x2945 JUMP JUMPDEST PUSH1 0x0 PUSH1 0x1 PUSH1 0x73 SHL DUP3 LT ISZERO PUSH2 0xA0A JUMPI PUSH1 0x1 PUSH1 0x72 SHL DUP3 LT ISZERO PUSH2 0x9FF JUMPI PUSH1 0x1 PUSH1 0x71 SHL DUP3 LT ISZERO PUSH2 0x9F8 JUMPI PUSH1 0x70 PUSH2 0xA02 JUMP JUMPDEST PUSH1 0x71 PUSH2 0xA02 JUMP JUMPDEST PUSH1 0x72 JUMPDEST PUSH1 0xFF AND PUSH2 0xA13 JUMP JUMPDEST PUSH2 0xA13 DUP3 PUSH2 0x26C4 JUMP JUMPDEST SWAP1 POP DUP4 PUSH2 0x4071 ADD DUP2 DUP7 ADD GT ISZERO PUSH2 0xA31 JUMPI PUSH2 0x7FFF SWAP5 POP PUSH1 0x0 SWAP2 POP PUSH2 0xAC4 JUMP JUMPDEST DUP4 DUP2 DUP7 ADD PUSH2 0x3FFC ADD LT ISZERO PUSH2 0xA4C JUMPI PUSH1 0x0 SWAP5 POP PUSH1 0x0 SWAP2 POP PUSH2 0xAC4 JUMP JUMPDEST DUP4 DUP2 DUP7 ADD PUSH2 0x3F8C ADD LT ISZERO PUSH2 0xA99 JUMPI DUP4 DUP6 PUSH2 0x3FFC ADD GT ISZERO PUSH2 0xA77 JUMPI DUP4 DUP6 PUSH2 0x3FFC ADD SUB DUP3 SWAP1 SHL SWAP2 POP PUSH2 0xA90 JUMP JUMPDEST DUP4 DUP6 PUSH2 0x3FFC ADD LT ISZERO PUSH2 0xA90 JUMPI PUSH2 0x3FFC DUP6 DUP6 SUB SUB DUP3 SWAP1 SHR SWAP2 POP JUMPDEST PUSH1 0x0 SWAP5 POP PUSH2 0xAC4 JUMP JUMPDEST PUSH1 0x70 DUP2 GT ISZERO PUSH2 0xAAC JUMPI PUSH1 0x70 DUP2 SUB DUP3 SWAP1 SHR SWAP2 POP JUMPDEST PUSH1 0x1 PUSH1 0x1 PUSH1 0x70 SHL SUB DUP3 AND SWAP2 POP DUP4 DUP2 DUP7 ADD PUSH2 0x3F8D ADD SUB SWAP5 POP JUMPDEST DUP2 PUSH1 0x70 DUP7 SWAP1 SHL DUP9 DUP11 XOR PUSH1 0x1 PUSH1 0x7F SHL PUSH1 0x80 SHL AND PUSH1 0x80 SHR PUSH1 0x1 PUSH1 0x1 PUSH1 0x80 SHL SUB AND OR OR PUSH1 0x80 SHL SWAP6 POP POP POP POP POP POP JUMPDEST SWAP3 SWAP2 POP POP JUMP JUMPDEST PUSH1 0x0 PUSH2 0x7FFF PUSH1 0xF0 DUP5 DUP2 SHR DUP3 AND SWAP2 SWAP1 DUP5 SWAP1 SHR DUP2 AND SWAP1 DUP3 EQ ISZERO PUSH2 0xB53 JUMPI DUP1 PUSH2 0x7FFF EQ ISZERO PUSH2 0xB49 JUMPI PUSH1 0x1 PUSH1 0x1 PUSH1 0x80 SHL SUB NOT DUP6 DUP2 AND SWAP1 DUP6 AND EQ ISZERO PUSH2 0xB39 JUMPI DUP5 SWAP3 POP POP POP PUSH2 0xAEF JUMP JUMPDEST POP PUSH2 0xFFFF PUSH1 0xEF SHL SWAP2 POP PUSH2 0xAEF SWAP1 POP JUMP JUMPDEST DUP5 SWAP3 POP POP POP PUSH2 0xAEF JUMP JUMPDEST DUP1 PUSH2 0x7FFF EQ ISZERO PUSH2 0xB67 JUMPI DUP4 SWAP3 POP POP POP PUSH2 0xAEF JUMP JUMPDEST PUSH1 0x1 PUSH1 0x7F SHL PUSH1 0x80 DUP7 SWAP1 SHR SWAP1 DUP2 LT ISZERO SWAP1 PUSH1 0x1 PUSH1 0x1 PUSH1 0x70 SHL SUB AND DUP4 PUSH2 0xB8D JUMPI PUSH1 0x1 SWAP4 POP PUSH2 0xB94 JUMP JUMPDEST PUSH1 0x1 PUSH1 0x70 SHL OR JUMPDEST PUSH1 0x1 PUSH1 0x7F SHL PUSH1 0x80 DUP8 SWAP1 SHR SWAP1 DUP2 LT ISZERO SWAP1 PUSH1 0x1 PUSH1 0x1 PUSH1 0x70 SHL SUB AND DUP5 PUSH2 0xBBA JUMPI PUSH1 0x1 SWAP5 POP PUSH2 0xBC1 JUMP JUMPDEST PUSH1 0x1 PUSH1 0x70 SHL OR JUMPDEST DUP3 PUSH2 0xBF1 JUMPI PUSH1 0x1 PUSH1 0x1 PUSH1 0x80 SHL SUB NOT DUP9 AND PUSH1 0x1 PUSH1 0xFF SHL EQ PUSH2 0xBE1 JUMPI DUP8 PUSH2 0xBE4 JUMP JUMPDEST PUSH1 0x0 JUMPDEST SWAP7 POP POP POP POP POP POP POP PUSH2 0xAEF JUMP JUMPDEST DUP1 PUSH2 0xC11 JUMPI PUSH1 0x1 PUSH1 0x1 PUSH1 0x80 SHL SUB NOT DUP10 AND PUSH1 0x1 PUSH1 0xFF SHL EQ PUSH2 0xBE1 JUMPI DUP9 PUSH2 0xBE4 JUMP JUMPDEST DUP5 DUP7 SUB DUP5 ISZERO ISZERO DUP4 ISZERO ISZERO EQ ISZERO PUSH2 0xD1C JUMPI PUSH1 0x70 DUP2 SGT ISZERO PUSH2 0xC38 JUMPI DUP10 SWAP8 POP POP POP POP POP POP POP POP PUSH2 0xAEF JUMP JUMPDEST PUSH1 0x0 DUP2 SGT ISZERO PUSH2 0xC4A JUMPI SWAP1 DUP2 SHR SWAP1 PUSH2 0xC79 JUMP JUMPDEST PUSH1 0x6F NOT DUP2 SLT ISZERO PUSH2 0xC63 JUMPI DUP9 SWAP8 POP POP POP POP POP POP POP POP PUSH2 0xAEF JUMP JUMPDEST PUSH1 0x0 DUP2 SLT ISZERO PUSH2 0xC79 JUMPI DUP1 PUSH1 0x0 SUB DUP5 SWAP1 SHR SWAP4 POP DUP6 SWAP7 POP JUMPDEST SWAP3 DUP2 ADD SWAP3 PUSH1 0x1 PUSH1 0x71 SHL DUP5 LT PUSH2 0xC94 JUMPI PUSH1 0x1 SWAP7 DUP8 ADD SWAP7 SWAP4 SWAP1 SWAP4 SHR SWAP3 JUMPDEST DUP7 PUSH2 0x7FFF EQ ISZERO PUSH2 0xCC6 JUMPI DUP5 PUSH2 0xCAE JUMPI PUSH2 0x7FFF PUSH1 0xF0 SHL PUSH2 0xCB8 JUMP JUMPDEST PUSH1 0x1 PUSH1 0x1 PUSH1 0xF0 SHL SUB NOT JUMPDEST SWAP8 POP POP POP POP POP POP POP POP PUSH2 0xAEF JUMP JUMPDEST PUSH1 0x1 PUSH1 0x70 SHL DUP5 LT ISZERO PUSH2 0xCDB JUMPI PUSH1 0x0 SWAP7 POP PUSH2 0xCE8 JUMP JUMPDEST PUSH1 0x1 PUSH1 0x1 PUSH1 0x70 SHL SUB DUP5 AND SWAP4 POP JUMPDEST DUP4 PUSH1 0x70 DUP9 SWAP1 SHL DUP7 PUSH2 0xCFA JUMPI PUSH1 0x0 PUSH2 0xD00 JUMP JUMPDEST PUSH1 0x1 PUSH1 0x7F SHL JUMPDEST PUSH1 0x1 PUSH1 0x1 PUSH1 0x80 SHL SUB AND OR OR PUSH1 0x80 SHL SWAP8 POP POP POP POP POP POP POP POP PUSH2 0xAEF JUMP JUMPDEST PUSH1 0x0 DUP2 SGT ISZERO PUSH2 0xD37 JUMPI PUSH1 0x1 DUP5 SWAP1 SHL SWAP4 POP PUSH1 0x1 DUP8 SUB SWAP7 POP PUSH2 0xD4E JUMP JUMPDEST PUSH1 0x0 DUP2 SLT ISZERO PUSH2 0xD4E JUMPI PUSH1 0x1 DUP3 SWAP1 SHL SWAP2 POP PUSH1 0x1 DUP7 SUB SWAP7 POP JUMPDEST PUSH1 0x70 DUP2 SGT ISZERO PUSH2 0xD60 JUMPI PUSH1 0x1 SWAP2 POP PUSH2 0xDAD JUMP JUMPDEST PUSH1 0x1 DUP2 SGT ISZERO PUSH2 0xD7D JUMPI PUSH1 0x1 DUP2 SUB PUSH1 0x1 DUP4 SUB SWAP1 SHR PUSH1 0x1 ADD SWAP2 POP PUSH2 0xDAD JUMP JUMPDEST PUSH1 0x6F NOT DUP2 SLT ISZERO PUSH2 0xD90 JUMPI PUSH1 0x1 SWAP4 POP PUSH2 0xDAD JUMP JUMPDEST PUSH1 0x0 NOT DUP2 SLT ISZERO PUSH2 0xDAD JUMPI PUSH1 0x1 DUP2 PUSH1 0x0 SUB SUB PUSH1 0x1 DUP6 SUB SWAP1 SHR PUSH1 0x1 ADD SWAP4 POP JUMPDEST DUP2 DUP5 LT PUSH2 0xDBE JUMPI DUP2 DUP5 SUB SWAP4 POP PUSH2 0xDC7 JUMP JUMPDEST DUP4 DUP3 SUB SWAP4 POP DUP3 SWAP5 POP JUMPDEST DUP4 PUSH2 0xDDD JUMPI POP PUSH1 0x0 SWAP7 POP PUSH2 0xAEF SWAP6 POP POP POP POP POP POP JUMP JUMPDEST PUSH1 0x0 PUSH2 0xDE8 DUP6 PUSH2 0x26C4 JUMP JUMPDEST SWAP1 POP DUP1 PUSH1 0x71 EQ ISZERO PUSH2 0xE0E JUMPI PUSH1 0x1 DUP6 SWAP1 SHR PUSH1 0x1 PUSH1 0x1 PUSH1 0x70 SHL SUB AND SWAP5 POP PUSH1 0x1 DUP9 ADD SWAP8 POP PUSH2 0xE5D JUMP JUMPDEST PUSH1 0x70 DUP2 LT ISZERO PUSH2 0xE50 JUMPI PUSH1 0x70 DUP2 SWAP1 SUB DUP1 DUP10 GT ISZERO PUSH2 0xE3D JUMPI DUP1 DUP7 SWAP1 SHL PUSH1 0x1 PUSH1 0x1 PUSH1 0x70 SHL SUB AND SWAP6 POP DUP1 DUP10 SUB SWAP9 POP PUSH2 0xE4A JUMP JUMPDEST PUSH1 0x0 SWAP9 PUSH1 0x0 NOT ADD SWAP6 SWAP1 SWAP6 SHL SWAP5 JUMPDEST POP PUSH2 0xE5D JUMP JUMPDEST PUSH1 0x1 PUSH1 0x1 PUSH1 0x70 SHL SUB DUP6 AND SWAP5 POP JUMPDEST DUP8 PUSH2 0x7FFF EQ ISZERO PUSH2 0xE90 JUMPI DUP6 PUSH2 0xE77 JUMPI PUSH2 0x7FFF PUSH1 0xF0 SHL PUSH2 0xE81 JUMP JUMPDEST PUSH1 0x1 PUSH1 0x1 PUSH1 0xF0 SHL SUB NOT JUMPDEST SWAP9 POP POP POP POP POP POP POP POP POP PUSH2 0xAEF JUMP JUMPDEST DUP5 PUSH1 0x70 DUP10 SWAP1 SHL DUP8 PUSH2 0xEA2 JUMPI PUSH1 0x0 PUSH2 0xEA8 JUMP JUMPDEST PUSH1 0x1 PUSH1 0x7F SHL JUMPDEST PUSH1 0x1 PUSH1 0x1 PUSH1 0x80 SHL SUB AND OR OR PUSH1 0x80 SHL SWAP9 POP POP POP POP POP POP POP POP POP PUSH2 0xAEF JUMP JUMPDEST PUSH1 0x0 PUSH1 0x1 PUSH1 0x7F SHL PUSH1 0x80 DUP4 SWAP1 SHR GT ISZERO PUSH2 0xEE3 JUMPI POP PUSH2 0xFFFF PUSH1 0xEF SHL SWAP2 SWAP1 POP JUMP JUMPDEST PUSH2 0x3FFF PUSH1 0xF0 SHL PUSH1 0x1 PUSH1 0x1 PUSH1 0x80 SHL SUB NOT DUP4 AND EQ ISZERO PUSH2 0xF02 JUMPI POP PUSH1 0x0 SWAP2 SWAP1 POP JUMP JUMPDEST PUSH2 0x7FFF PUSH1 0xF0 DUP4 SWAP1 SHR DUP2 AND SWAP1 DUP2 EQ ISZERO PUSH2 0xF1B JUMPI POP SWAP1 SWAP2 SWAP1 POP JUMP JUMPDEST PUSH1 0x1 PUSH1 0x1 PUSH1 0x70 SHL SUB PUSH1 0x80 DUP5 SWAP1 SHR AND DUP2 PUSH2 0xF37 JUMPI PUSH1 0x1 SWAP2 POP PUSH2 0xF3E JUMP JUMPDEST PUSH1 0x1 PUSH1 0x70 SHL OR JUMPDEST DUP1 PUSH2 0xF54 JUMPI POP PUSH1 0x1 PUSH1 0x1 PUSH1 0xF0 SHL SUB NOT SWAP4 SWAP3 POP POP POP JUMP JUMPDEST PUSH1 0x0 PUSH2 0x406F DUP2 PUSH2 0x3FFF DUP6 LT PUSH2 0xF7A JUMPI POP PUSH1 0xF SWAP3 SWAP1 SWAP3 SHL SWAP2 PUSH1 0x0 SWAP2 POP PUSH2 0x3FFE NOT DUP5 ADD PUSH2 0xFB9 JUMP JUMPDEST PUSH1 0x1 SWAP3 POP PUSH1 0x1 PUSH1 0x70 SHL DUP5 LT PUSH2 0xF9C JUMPI DUP5 PUSH2 0x3FFE SUB SWAP1 POP PUSH1 0xF DUP5 SWAP1 SHL SWAP4 POP PUSH2 0xFB9 JUMP JUMPDEST PUSH1 0x0 PUSH2 0xFA7 DUP6 PUSH2 0x26C4 JUMP JUMPDEST PUSH1 0x7F DUP2 SWAP1 SUB SWAP6 SWAP1 SWAP6 SHL SWAP5 PUSH2 0x406D SUB SWAP2 POP POP JUMPDEST DUP4 PUSH1 0x1 PUSH1 0x7F SHL EQ ISZERO PUSH2 0xFF0 JUMPI DUP3 ISZERO PUSH2 0xFCF JUMPI PUSH1 0x1 ADD JUMPDEST PUSH1 0x0 PUSH2 0xFDA DUP3 PUSH2 0x26C4 JUMP JUMPDEST PUSH1 0x70 SUB SWAP1 POP DUP1 DUP3 SWAP1 SHL SWAP2 POP DUP1 DUP4 SUB SWAP3 POP POP PUSH2 0x103E JUMP JUMPDEST PUSH1 0x0 DUP4 PUSH2 0xFFE JUMPI PUSH1 0x0 PUSH2 0x1001 JUMP JUMPDEST PUSH1 0x1 JUMPDEST PUSH1 0xFF AND SWAP1 POP JUMPDEST PUSH1 0x1 PUSH1 0x70 SHL DUP3 LT ISZERO PUSH2 0x103C JUMPI SWAP4 DUP1 MUL PUSH1 0xFF DUP2 SWAP1 SHR PUSH1 0x7F DUP2 ADD SWAP2 SWAP1 SWAP2 SHR SWAP5 PUSH1 0x0 NOT SWAP4 SWAP1 SWAP4 ADD SWAP3 PUSH1 0x1 SWAP3 SWAP1 SWAP3 SHL SWAP1 DUP3 XOR ADD SWAP1 PUSH2 0x1007 JUMP JUMPDEST POP JUMPDEST DUP1 PUSH1 0x1 PUSH1 0x1 PUSH1 0x70 SHL SUB AND PUSH1 0x70 DUP4 SWAP1 SHL DUP5 PUSH2 0x1059 JUMPI PUSH1 0x0 PUSH2 0x105F JUMP JUMPDEST PUSH1 0x1 PUSH1 0x7F SHL JUMPDEST PUSH1 0x1 PUSH1 0x1 PUSH1 0x80 SHL SUB AND OR OR PUSH1 0x80 SHL SWAP8 SWAP7 POP POP POP POP POP POP POP JUMP JUMPDEST PUSH1 0x0 PUSH2 0x7FFF PUSH1 0xF0 DUP5 DUP2 SHR DUP3 AND SWAP2 SWAP1 DUP5 SWAP1 SHR DUP2 AND SWAP1 DUP3 EQ ISZERO PUSH2 0x1107 JUMPI DUP1 PUSH2 0x7FFF EQ ISZERO PUSH2 0x10E6 JUMPI PUSH1 0x1 PUSH1 0x1 PUSH1 0x80 SHL SUB NOT DUP6 DUP2 AND SWAP1 DUP6 AND EQ ISZERO PUSH2 0x10C3 JUMPI POP POP POP PUSH1 0x1 PUSH1 0xFF SHL DUP2 AND DUP3 XOR PUSH2 0xAEF JUMP JUMPDEST PUSH1 0x1 PUSH1 0xFF SHL PUSH1 0x1 PUSH1 0x1 PUSH1 0x80 SHL SUB NOT DUP7 DUP7 XOR AND EQ ISZERO PUSH2 0xB39 JUMPI POP POP POP DUP2 DUP2 OR PUSH2 0xAEF JUMP JUMPDEST PUSH1 0x1 PUSH1 0x80 SHL PUSH1 0x1 PUSH1 0xFF SHL SUB DUP5 AND PUSH2 0x870 JUMPI POP PUSH2 0xFFFF PUSH1 0xEF SHL SWAP2 POP PUSH2 0xAEF SWAP1 POP JUMP JUMPDEST DUP1 PUSH2 0x7FFF EQ ISZERO PUSH2 0x1143 JUMPI PUSH1 0x1 PUSH1 0x80 SHL PUSH1 0x1 PUSH1 0xFF SHL SUB DUP6 AND PUSH2 0x1132 JUMPI POP PUSH2 0xFFFF PUSH1 0xEF SHL SWAP2 POP PUSH2 0xAEF SWAP1 POP JUMP JUMPDEST POP POP POP PUSH1 0x1 PUSH1 0xFF SHL DUP3 AND DUP2 XOR PUSH2 0xAEF JUMP JUMPDEST PUSH1 0x1 PUSH1 0x1 PUSH1 0x70 SHL SUB PUSH1 0x80 DUP7 SWAP1 SHR AND DUP3 PUSH2 0x115F JUMPI PUSH1 0x1 SWAP3 POP PUSH2 0x1166 JUMP JUMPDEST PUSH1 0x1 PUSH1 0x70 SHL OR JUMPDEST PUSH1 0x1 PUSH1 0x1 PUSH1 0x70 SHL SUB PUSH1 0x80 DUP7 SWAP1 SHR AND DUP3 PUSH2 0x1182 JUMPI PUSH1 0x1 SWAP3 POP PUSH2 0x1189 JUMP JUMPDEST PUSH1 0x1 PUSH1 0x70 SHL OR JUMPDEST SWAP1 DUP2 MUL SWAP1 DUP2 PUSH2 0x11A6 JUMPI PUSH1 0x1 PUSH1 0xFF SHL DUP8 DUP8 XOR AND PUSH2 0x9A6 JUMPI PUSH1 0x0 PUSH2 0x9AC JUMP JUMPDEST SWAP3 DUP3 ADD SWAP3 PUSH1 0x0 PUSH1 0x1 PUSH1 0xE1 SHL DUP4 LT ISZERO PUSH2 0x11D9 JUMPI PUSH1 0x1 PUSH1 0xE0 SHL DUP4 LT ISZERO PUSH2 0x11D2 JUMPI PUSH2 0x11CD DUP4 PUSH2 0x26C4 JUMP JUMPDEST PUSH2 0x11DC JUMP JUMPDEST PUSH1 0xE0 PUSH2 0x11DC JUMP JUMPDEST PUSH1 0xE1 JUMPDEST SWAP1 POP PUSH2 0x4070 DUP2 DUP7 ADD LT ISZERO PUSH2 0x11F7 JUMPI PUSH1 0x0 SWAP5 POP PUSH1 0x0 SWAP3 POP PUSH2 0x1294 JUMP JUMPDEST PUSH2 0x40E0 DUP2 DUP7 ADD LT ISZERO PUSH2 0x123A JUMPI PUSH2 0x4070 DUP6 LT ISZERO PUSH2 0x121C JUMPI DUP5 PUSH2 0x4070 SUB DUP4 SWAP1 SHR SWAP3 POP PUSH2 0x1231 JUMP JUMPDEST PUSH2 0x4070 DUP6 GT ISZERO PUSH2 0x1231 JUMPI PUSH2 0x4070 DUP6 SUB DUP4 SWAP1 SHL SWAP3 POP JUMPDEST PUSH1 0x0 SWAP5 POP PUSH2 0x1294 JUMP JUMPDEST PUSH2 0xC0DD DUP2 DUP7 ADD GT ISZERO PUSH2 0x1254 JUMPI PUSH2 0x7FFF SWAP5 POP PUSH1 0x0 SWAP3 POP PUSH2 0x1294 JUMP JUMPDEST PUSH1 0x70 DUP2 GT ISZERO PUSH2 0x126B JUMPI PUSH1 0x70 DUP2 SUB DUP4 SWAP1 SHR SWAP3 POP PUSH2 0x127E JUMP JUMPDEST PUSH1 0x70 DUP2 LT ISZERO PUSH2 0x127E JUMPI DUP1 PUSH1 0x70 SUB DUP4 SWAP1 SHL SWAP3 POP JUMPDEST PUSH1 0x1 PUSH1 0x1 PUSH1 0x70 SHL SUB DUP4 AND SWAP3 POP PUSH2 0x40DF DUP2 DUP7 ADD SUB SWAP5 POP JUMPDEST DUP3 PUSH1 0x70 DUP7 SWAP1 SHL DUP9 DUP11 XOR PUSH1 0x1 PUSH1 0x7F SHL PUSH1 0x80 SHL AND PUSH1 0x80 SHR PUSH1 0x1 PUSH1 0x1 PUSH1 0x80 SHL SUB AND OR OR PUSH1 0x80 SHL SWAP6 POP POP POP POP POP POP PUSH2 0xAEF JUMP JUMPDEST PUSH1 0x0 PUSH1 0x1 PUSH1 0x7F SHL PUSH1 0x80 DUP4 SWAP1 SHR SWAP1 DUP2 GT SWAP1 PUSH2 0x7FFF PUSH1 0xF0 DUP6 SWAP1 SHR DUP2 AND SWAP2 PUSH1 0x1 PUSH1 0x1 PUSH1 0x70 SHL SUB AND SWAP1 DUP3 EQ DUP1 ISZERO PUSH2 0x12F5 JUMPI POP DUP1 ISZERO ISZERO JUMPDEST ISZERO PUSH2 0x1309 JUMPI POP PUSH2 0xFFFF PUSH1 0xEF SHL SWAP5 SWAP4 POP POP POP POP JUMP JUMPDEST PUSH2 0x400D DUP3 GT ISZERO PUSH2 0x132F JUMPI DUP3 PUSH2 0x1323 JUMPI PUSH2 0x7FFF PUSH1 0xF0 SHL PUSH2 0x1326 JUMP JUMPDEST PUSH1 0x0 JUMPDEST SWAP6 SWAP5 POP POP POP POP POP JUMP JUMPDEST PUSH2 0x3F7F DUP3 LT ISZERO PUSH2 0x1348 JUMPI POP PUSH2 0x3FFF PUSH1 0xF0 SHL SWAP5 SWAP4 POP POP POP POP JUMP JUMPDEST DUP2 PUSH2 0x1356 JUMPI PUSH1 0x1 SWAP2 POP PUSH2 0x135D JUMP JUMPDEST PUSH1 0x1 PUSH1 0x70 SHL OR JUMPDEST PUSH2 0x3FEF DUP3 GT ISZERO PUSH2 0x1373 JUMPI PUSH2 0x3FEE NOT DUP3 ADD SHL PUSH2 0x1385 JUMP JUMPDEST PUSH2 0x3FEF DUP3 LT ISZERO PUSH2 0x1385 JUMPI PUSH2 0x3FEF DUP3 SWAP1 SUB SHR JUMPDEST DUP3 DUP1 ISZERO PUSH2 0x1396 JUMPI POP PUSH2 0x2037 PUSH1 0x81 SHL DUP2 GT JUMPDEST ISZERO PUSH2 0x13A6 JUMPI POP PUSH1 0x0 SWAP5 SWAP4 POP POP POP POP JUMP JUMPDEST DUP3 ISZERO DUP1 ISZERO PUSH2 0x13C5 JUMPI POP PUSH18 0x3FFFFFFFFFFFFFFFFFFFFFFFFFFFFFFFFFFF DUP2 GT JUMPDEST ISZERO PUSH2 0x13D9 JUMPI POP PUSH2 0x7FFF PUSH1 0xF0 SHL SWAP5 SWAP4 POP POP POP POP JUMP JUMPDEST PUSH1 0x1 PUSH1 0x1 PUSH1 0x80 SHL SUB DUP2 AND SWAP1 PUSH1 0x80 SHR DUP4 DUP1 ISZERO PUSH2 0x13F3 JUMPI POP DUP2 ISZERO ISZERO JUMPDEST ISZERO PUSH2 0x13FF JUMPI SWAP1 NOT SWAP1 PUSH1 0x1 ADD JUMPDEST PUSH1 0x1 PUSH1 0x7F SHL DUP3 DUP2 AND ISZERO PUSH2 0x1423 JUMPI PUSH17 0x16A09E667F3BCC908B2FB1366EA957D3E MUL PUSH1 0x80 SHR JUMPDEST PUSH1 0x1 PUSH1 0x7E SHL DUP4 AND ISZERO PUSH2 0x1446 JUMPI PUSH17 0x1306FE0A31B7152DE8D5A46305C85EDEC MUL PUSH1 0x80 SHR JUMPDEST PUSH1 0x1 PUSH1 0x7D SHL DUP4 AND ISZERO PUSH2 0x1469 JUMPI PUSH17 0x1172B83C7D517ADCDF7C8C50EB14A791F MUL PUSH1 0x80 SHR JUMPDEST PUSH1 0x1 PUSH1 0x7C SHL DUP4 AND ISZERO PUSH2 0x148C JUMPI PUSH17 0x10B5586CF9890F6298B92B71842A98363 MUL PUSH1 0x80 SHR JUMPDEST PUSH1 0x1 PUSH1 0x7B SHL DUP4 AND ISZERO PUSH2 0x14AF JUMPI PUSH17 0x1059B0D31585743AE7C548EB68CA417FD MUL PUSH1 0x80 SHR JUMPDEST PUSH1 0x1 PUSH1 0x7A SHL DUP4 AND ISZERO PUSH2 0x14D2 JUMPI PUSH17 0x102C9A3E778060EE6F7CACA4F7A29BDE8 MUL PUSH1 0x80 SHR JUMPDEST PUSH1 0x1 PUSH1 0x79 SHL DUP4 AND ISZERO PUSH2 0x14F5 JUMPI PUSH17 0x10163DA9FB33356D84A66AE336DCDFA3F MUL PUSH1 0x80 SHR JUMPDEST PUSH1 0x1 PUSH1 0x78 SHL DUP4 AND ISZERO PUSH2 0x1518 JUMPI PUSH17 0x100B1AFA5ABCBED6129AB13EC11DC9543 MUL PUSH1 0x80 SHR JUMPDEST PUSH1 0x1 PUSH1 0x77 SHL DUP4 AND ISZERO PUSH2 0x153B JUMPI PUSH17 0x10058C86DA1C09EA1FF19D294CF2F679B MUL PUSH1 0x80 SHR JUMPDEST PUSH1 0x1 PUSH1 0x76 SHL DUP4 AND ISZERO PUSH2 0x155E JUMPI PUSH17 0x1002C605E2E8CEC506D21BFC89A23A00F MUL PUSH1 0x80 SHR JUMPDEST PUSH1 0x1 PUSH1 0x75 SHL DUP4 AND ISZERO PUSH2 0x1581 JUMPI PUSH17 0x100162F3904051FA128BCA9C55C31E5DF MUL PUSH1 0x80 SHR JUMPDEST PUSH1 0x1 PUSH1 0x74 SHL DUP4 AND ISZERO PUSH2 0x15A4 JUMPI PUSH17 0x1000B175EFFDC76BA38E31671CA939725 MUL PUSH1 0x80 SHR JUMPDEST PUSH1 0x1 PUSH1 0x73 SHL DUP4 AND ISZERO PUSH2 0x15C7 JUMPI PUSH17 0x100058BA01FB9F96D6CACD4B180917C3D MUL PUSH1 0x80 SHR JUMPDEST PUSH1 0x1 PUSH1 0x72 SHL DUP4 AND ISZERO PUSH2 0x15EA JUMPI PUSH17 0x10002C5CC37DA9491D0985C348C68E7B3 MUL PUSH1 0x80 SHR JUMPDEST PUSH1 0x1 PUSH1 0x71 SHL DUP4 AND ISZERO PUSH2 0x160D JUMPI PUSH17 0x1000162E525EE054754457D5995292026 MUL PUSH1 0x80 SHR JUMPDEST PUSH1 0x1 PUSH1 0x70 SHL DUP4 AND ISZERO PUSH2 0x1630 JUMPI PUSH17 0x10000B17255775C040618BF4A4ADE83FC MUL PUSH1 0x80 SHR JUMPDEST PUSH1 0x1 PUSH1 0x6F SHL DUP4 AND ISZERO PUSH2 0x1653 JUMPI PUSH17 0x1000058B91B5BC9AE2EED81E9B7D4CFAB MUL PUSH1 0x80 SHR JUMPDEST PUSH1 0x1 PUSH1 0x6E SHL DUP4 AND ISZERO PUSH2 0x1676 JUMPI PUSH17 0x100002C5C89D5EC6CA4D7C8ACC017B7C9 MUL PUSH1 0x80 SHR JUMPDEST PUSH1 0x1 PUSH1 0x6D SHL DUP4 AND ISZERO PUSH2 0x1699 JUMPI PUSH17 0x10000162E43F4F831060E02D839A9D16D MUL PUSH1 0x80 SHR JUMPDEST PUSH1 0x1 PUSH1 0x6C SHL DUP4 AND ISZERO PUSH2 0x16BC JUMPI PUSH17 0x100000B1721BCFC99D9F890EA06911763 MUL PUSH1 0x80 SHR JUMPDEST PUSH1 0x1 PUSH1 0x6B SHL DUP4 AND ISZERO PUSH2 0x16DF JUMPI PUSH17 0x10000058B90CF1E6D97F9CA14DBCC1628 MUL PUSH1 0x80 SHR JUMPDEST PUSH1 0x1 PUSH1 0x6A SHL DUP4 AND ISZERO PUSH2 0x1702 JUMPI PUSH17 0x1000002C5C863B73F016468F6BAC5CA2B MUL PUSH1 0x80 SHR JUMPDEST PUSH1 0x1 PUSH1 0x69 SHL DUP4 AND ISZERO PUSH2 0x1725 JUMPI PUSH17 0x100000162E430E5A18F6119E3C02282A5 MUL PUSH1 0x80 SHR JUMPDEST PUSH1 0x1 PUSH1 0x68 SHL DUP4 AND ISZERO PUSH2 0x1748 JUMPI PUSH17 0x1000000B1721835514B86E6D96EFD1BFE MUL PUSH1 0x80 SHR JUMPDEST PUSH1 0x1 PUSH1 0x67 SHL DUP4 AND ISZERO PUSH2 0x176B JUMPI PUSH17 0x100000058B90C0B48C6BE5DF846C5B2EF MUL PUSH1 0x80 SHR JUMPDEST PUSH1 0x1 PUSH1 0x66 SHL DUP4 AND ISZERO PUSH2 0x178E JUMPI PUSH17 0x10000002C5C8601CC6B9E94213C72737A MUL PUSH1 0x80 SHR JUMPDEST PUSH1 0x1 PUSH1 0x65 SHL DUP4 AND ISZERO PUSH2 0x17B1 JUMPI PUSH17 0x1000000162E42FFF037DF38AA2B219F06 MUL PUSH1 0x80 SHR JUMPDEST PUSH1 0x1 PUSH1 0x64 SHL DUP4 AND ISZERO PUSH2 0x17D4 JUMPI PUSH17 0x10000000B17217FBA9C739AA5819F44F9 MUL PUSH1 0x80 SHR JUMPDEST PUSH1 0x1 PUSH1 0x63 SHL DUP4 AND ISZERO PUSH2 0x17F7 JUMPI PUSH17 0x1000000058B90BFCDEE5ACD3C1CEDC823 MUL PUSH1 0x80 SHR JUMPDEST PUSH1 0x1 PUSH1 0x62 SHL DUP4 AND ISZERO PUSH2 0x181A JUMPI PUSH17 0x100000002C5C85FE31F35A6A30DA1BE50 MUL PUSH1 0x80 SHR JUMPDEST PUSH1 0x1 PUSH1 0x61 SHL DUP4 AND ISZERO PUSH2 0x183D JUMPI PUSH17 0x10000000162E42FF0999CE3541B9FFFCF MUL PUSH1 0x80 SHR JUMPDEST PUSH1 0x1 PUSH1 0x60 SHL DUP4 AND ISZERO PUSH2 0x1860 JUMPI PUSH17 0x100000000B17217F80F4EF5AADDA45554 MUL PUSH1 0x80 SHR JUMPDEST PUSH1 0x1 PUSH1 0x5F SHL DUP4 AND ISZERO PUSH2 0x1883 JUMPI PUSH17 0x10000000058B90BFBF8479BD5A81B51AD MUL PUSH1 0x80 SHR JUMPDEST PUSH1 0x1 PUSH1 0x5E SHL DUP4 AND ISZERO PUSH2 0x18A6 JUMPI PUSH17 0x1000000002C5C85FDF84BD62AE30A74CC MUL PUSH1 0x80 SHR JUMPDEST PUSH1 0x1 PUSH1 0x5D SHL DUP4 AND ISZERO PUSH2 0x18C9 JUMPI PUSH17 0x100000000162E42FEFB2FED257559BDAA MUL PUSH1 0x80 SHR JUMPDEST PUSH1 0x1 PUSH1 0x5C SHL DUP4 AND ISZERO PUSH2 0x18EC JUMPI PUSH17 0x1000000000B17217F7D5A7716BBA4A9AE MUL PUSH1 0x80 SHR JUMPDEST PUSH1 0x1 PUSH1 0x5B SHL DUP4 AND ISZERO PUSH2 0x190F JUMPI PUSH17 0x100000000058B90BFBE9DDBAC5E109CCE MUL PUSH1 0x80 SHR JUMPDEST PUSH1 0x1 PUSH1 0x5A SHL DUP4 AND ISZERO PUSH2 0x1932 JUMPI PUSH17 0x10000000002C5C85FDF4B15DE6F17EB0D MUL PUSH1 0x80 SHR JUMPDEST PUSH1 0x1 PUSH1 0x59 SHL DUP4 AND ISZERO PUSH2 0x1955 JUMPI PUSH17 0x1000000000162E42FEFA494F1478FDE05 MUL PUSH1 0x80 SHR JUMPDEST PUSH1 0x1 PUSH1 0x58 SHL DUP4 AND ISZERO PUSH2 0x1978 JUMPI PUSH17 0x10000000000B17217F7D20CF927C8E94C MUL PUSH1 0x80 SHR JUMPDEST PUSH1 0x1 PUSH1 0x57 SHL DUP4 AND ISZERO PUSH2 0x199B JUMPI PUSH17 0x1000000000058B90BFBE8F71CB4E4B33D MUL PUSH1 0x80 SHR JUMPDEST PUSH1 0x1 PUSH1 0x56 SHL DUP4 AND ISZERO PUSH2 0x19BE JUMPI PUSH17 0x100000000002C5C85FDF477B662B26945 MUL PUSH1 0x80 SHR JUMPDEST PUSH1 0x1 PUSH1 0x55 SHL DUP4 AND ISZERO PUSH2 0x19E1 JUMPI PUSH17 0x10000000000162E42FEFA3AE53369388C MUL PUSH1 0x80 SHR JUMPDEST PUSH1 0x1 PUSH1 0x54 SHL DUP4 AND ISZERO PUSH2 0x1A04 JUMPI PUSH17 0x100000000000B17217F7D1D351A389D40 MUL PUSH1 0x80 SHR JUMPDEST PUSH1 0x1 PUSH1 0x53 SHL DUP4 AND ISZERO PUSH2 0x1A27 JUMPI PUSH17 0x10000000000058B90BFBE8E8B2D3D4EDE MUL PUSH1 0x80 SHR JUMPDEST PUSH1 0x1 PUSH1 0x52 SHL DUP4 AND ISZERO PUSH2 0x1A4A JUMPI PUSH17 0x1000000000002C5C85FDF4741BEA6E77E MUL PUSH1 0x80 SHR JUMPDEST PUSH1 0x1 PUSH1 0x51 SHL DUP4 AND ISZERO PUSH2 0x1A6D JUMPI PUSH17 0x100000000000162E42FEFA39FE95583C2 MUL PUSH1 0x80 SHR JUMPDEST PUSH1 0x1 PUSH1 0x50 SHL DUP4 AND ISZERO PUSH2 0x1A90 JUMPI PUSH17 0x1000000000000B17217F7D1CFB72B45E1 MUL PUSH1 0x80 SHR JUMPDEST PUSH10 0x80000000000000000000 DUP4 AND ISZERO PUSH2 0x1AB9 JUMPI PUSH17 0x100000000000058B90BFBE8E7CC35C3F0 MUL PUSH1 0x80 SHR JUMPDEST PUSH10 0x40000000000000000000 DUP4 AND ISZERO PUSH2 0x1AE2 JUMPI PUSH17 0x10000000000002C5C85FDF473E242EA38 MUL PUSH1 0x80 SHR JUMPDEST PUSH10 0x20000000000000000000 DUP4 AND ISZERO PUSH2 0x1B0B JUMPI PUSH17 0x1000000000000162E42FEFA39F02B772C MUL PUSH1 0x80 SHR JUMPDEST PUSH10 0x10000000000000000000 DUP4 AND ISZERO PUSH2 0x1B34 JUMPI PUSH17 0x10000000000000B17217F7D1CF7D83C1A MUL PUSH1 0x80 SHR JUMPDEST PUSH10 0x8000000000000000000 DUP4 AND ISZERO PUSH2 0x1B5D JUMPI PUSH17 0x1000000000000058B90BFBE8E7BDCBE2E MUL PUSH1 0x80 SHR JUMPDEST PUSH10 0x4000000000000000000 DUP4 AND ISZERO PUSH2 0x1B86 JUMPI PUSH17 0x100000000000002C5C85FDF473DEA871F MUL PUSH1 0x80 SHR JUMPDEST PUSH10 0x2000000000000000000 DUP4 AND ISZERO PUSH2 0x1BAF JUMPI PUSH17 0x10000000000000162E42FEFA39EF44D91 MUL PUSH1 0x80 SHR JUMPDEST PUSH10 0x1000000000000000000 DUP4 AND ISZERO PUSH2 0x1BD8 JUMPI PUSH17 0x100000000000000B17217F7D1CF79E949 MUL PUSH1 0x80 SHR JUMPDEST PUSH9 0x800000000000000000 DUP4 AND ISZERO PUSH2 0x1C00 JUMPI PUSH17 0x10000000000000058B90BFBE8E7BCE544 MUL PUSH1 0x80 SHR JUMPDEST PUSH9 0x400000000000000000 DUP4 AND ISZERO PUSH2 0x1C28 JUMPI PUSH17 0x1000000000000002C5C85FDF473DE6ECA MUL PUSH1 0x80 SHR JUMPDEST PUSH9 0x200000000000000000 DUP4 AND ISZERO PUSH2 0x1C50 JUMPI PUSH17 0x100000000000000162E42FEFA39EF366F MUL PUSH1 0x80 SHR JUMPDEST PUSH9 0x100000000000000000 DUP4 AND ISZERO PUSH2 0x1C78 JUMPI PUSH17 0x1000000000000000B17217F7D1CF79AFA MUL PUSH1 0x80 SHR JUMPDEST PUSH9 0x80000000000000000 DUP4 AND ISZERO PUSH2 0x1CA0 JUMPI PUSH17 0x100000000000000058B90BFBE8E7BCD6D MUL PUSH1 0x80 SHR JUMPDEST PUSH9 0x40000000000000000 DUP4 AND ISZERO PUSH2 0x1CC8 JUMPI PUSH17 0x10000000000000002C5C85FDF473DE6B2 MUL PUSH1 0x80 SHR JUMPDEST PUSH9 0x20000000000000000 DUP4 AND ISZERO PUSH2 0x1CF0 JUMPI PUSH17 0x1000000000000000162E42FEFA39EF358 MUL PUSH1 0x80 SHR JUMPDEST PUSH1 0x1 PUSH1 0x40 SHL DUP4 AND ISZERO PUSH2 0x1D13 JUMPI PUSH17 0x10000000000000000B17217F7D1CF79AB MUL PUSH1 0x80 SHR JUMPDEST PUSH8 0x8000000000000000 DUP4 AND ISZERO PUSH2 0x1D3A JUMPI PUSH17 0x1000000000000000058B90BFBE8E7BCD5 MUL PUSH1 0x80 SHR JUMPDEST PUSH8 0x4000000000000000 DUP4 AND ISZERO PUSH2 0x1D61 JUMPI PUSH17 0x100000000000000002C5C85FDF473DE6A MUL PUSH1 0x80 SHR JUMPDEST PUSH8 0x2000000000000000 DUP4 AND ISZERO PUSH2 0x1D88 JUMPI PUSH17 0x10000000000000000162E42FEFA39EF34 MUL PUSH1 0x80 SHR JUMPDEST PUSH8 0x1000000000000000 DUP4 AND ISZERO PUSH2 0x1DAF JUMPI PUSH17 0x100000000000000000B17217F7D1CF799 MUL PUSH1 0x80 SHR JUMPDEST PUSH8 0x800000000000000 DUP4 AND ISZERO PUSH2 0x1DD6 JUMPI PUSH17 0x10000000000000000058B90BFBE8E7BCC MUL PUSH1 0x80 SHR JUMPDEST PUSH8 0x400000000000000 DUP4 AND ISZERO PUSH2 0x1DFD JUMPI PUSH17 0x1000000000000000002C5C85FDF473DE5 MUL PUSH1 0x80 SHR JUMPDEST PUSH8 0x200000000000000 DUP4 AND ISZERO PUSH2 0x1E24 JUMPI PUSH17 0x100000000000000000162E42FEFA39EF2 MUL PUSH1 0x80 SHR JUMPDEST PUSH8 0x100000000000000 DUP4 AND ISZERO PUSH2 0x1E4B JUMPI PUSH17 0x1000000000000000000B17217F7D1CF78 MUL PUSH1 0x80 SHR JUMPDEST PUSH7 0x80000000000000 DUP4 AND ISZERO PUSH2 0x1E71 JUMPI PUSH17 0x100000000000000000058B90BFBE8E7BB MUL PUSH1 0x80 SHR JUMPDEST PUSH7 0x40000000000000 DUP4 AND ISZERO PUSH2 0x1E97 JUMPI PUSH17 0x10000000000000000002C5C85FDF473DD MUL PUSH1 0x80 SHR JUMPDEST PUSH7 0x20000000000000 DUP4 AND ISZERO PUSH2 0x1EBD JUMPI PUSH17 0x1000000000000000000162E42FEFA39EE MUL PUSH1 0x80 SHR JUMPDEST PUSH7 0x10000000000000 DUP4 AND ISZERO PUSH2 0x1EE3 JUMPI PUSH17 0x10000000000000000000B17217F7D1CF6 MUL PUSH1 0x80 SHR JUMPDEST PUSH7 0x8000000000000 DUP4 AND ISZERO PUSH2 0x1F09 JUMPI PUSH17 0x1000000000000000000058B90BFBE8E7A MUL PUSH1 0x80 SHR JUMPDEST PUSH7 0x4000000000000 DUP4 AND ISZERO PUSH2 0x1F2F JUMPI PUSH17 0x100000000000000000002C5C85FDF473C MUL PUSH1 0x80 SHR JUMPDEST PUSH7 0x2000000000000 DUP4 AND ISZERO PUSH2 0x1F55 JUMPI PUSH17 0x10000000000000000000162E42FEFA39D MUL PUSH1 0x80 SHR JUMPDEST PUSH7 0x1000000000000 DUP4 AND ISZERO PUSH2 0x1F7B JUMPI PUSH17 0x100000000000000000000B17217F7D1CE MUL PUSH1 0x80 SHR JUMPDEST PUSH6 0x800000000000 DUP4 AND ISZERO PUSH2 0x1FA0 JUMPI PUSH17 0x10000000000000000000058B90BFBE8E6 MUL PUSH1 0x80 SHR JUMPDEST PUSH6 0x400000000000 DUP4 AND ISZERO PUSH2 0x1FC5 JUMPI PUSH17 0x1000000000000000000002C5C85FDF472 MUL PUSH1 0x80 SHR JUMPDEST PUSH6 0x200000000000 DUP4 AND ISZERO PUSH2 0x1FEA JUMPI PUSH17 0x100000000000000000000162E42FEFA38 MUL PUSH1 0x80 SHR JUMPDEST PUSH6 0x100000000000 DUP4 AND ISZERO PUSH2 0x200F JUMPI PUSH17 0x1000000000000000000000B17217F7D1B MUL PUSH1 0x80 SHR JUMPDEST PUSH6 0x80000000000 DUP4 AND ISZERO PUSH2 0x2034 JUMPI PUSH17 0x100000000000000000000058B90BFBE8D MUL PUSH1 0x80 SHR JUMPDEST PUSH6 0x40000000000 DUP4 AND ISZERO PUSH2 0x2059 JUMPI PUSH17 0x10000000000000000000002C5C85FDF46 MUL PUSH1 0x80 SHR JUMPDEST PUSH6 0x20000000000 DUP4 AND ISZERO PUSH2 0x207E JUMPI PUSH17 0x1000000000000000000000162E42FEFA2 MUL PUSH1 0x80 SHR JUMPDEST PUSH6 0x10000000000 DUP4 AND ISZERO PUSH2 0x20A3 JUMPI PUSH17 0x10000000000000000000000B17217F7D0 MUL PUSH1 0x80 SHR JUMPDEST PUSH5 0x8000000000 DUP4 AND ISZERO PUSH2 0x20C7 JUMPI PUSH17 0x1000000000000000000000058B90BFBE7 MUL PUSH1 0x80 SHR JUMPDEST PUSH5 0x4000000000 DUP4 AND ISZERO PUSH2 0x20EB JUMPI PUSH17 0x100000000000000000000002C5C85FDF3 MUL PUSH1 0x80 SHR JUMPDEST PUSH5 0x2000000000 DUP4 AND ISZERO PUSH2 0x210F JUMPI PUSH17 0x10000000000000000000000162E42FEF9 MUL PUSH1 0x80 SHR JUMPDEST PUSH5 0x1000000000 DUP4 AND ISZERO PUSH2 0x2133 JUMPI PUSH17 0x100000000000000000000000B17217F7C MUL PUSH1 0x80 SHR JUMPDEST PUSH5 0x800000000 DUP4 AND ISZERO PUSH2 0x2157 JUMPI PUSH17 0x10000000000000000000000058B90BFBD MUL PUSH1 0x80 SHR JUMPDEST PUSH5 0x400000000 DUP4 AND ISZERO PUSH2 0x217B JUMPI PUSH17 0x1000000000000000000000002C5C85FDE MUL PUSH1 0x80 SHR JUMPDEST PUSH5 0x200000000 DUP4 AND ISZERO PUSH2 0x219F JUMPI PUSH17 0x100000000000000000000000162E42FEE MUL PUSH1 0x80 SHR JUMPDEST PUSH5 0x100000000 DUP4 AND ISZERO PUSH2 0x21C3 JUMPI PUSH17 0x1000000000000000000000000B17217F6 MUL PUSH1 0x80 SHR JUMPDEST PUSH4 0x80000000 DUP4 AND ISZERO PUSH2 0x21E6 JUMPI PUSH17 0x100000000000000000000000058B90BFA MUL PUSH1 0x80 SHR JUMPDEST PUSH4 0x40000000 DUP4 AND ISZERO PUSH2 0x2209 JUMPI PUSH17 0x10000000000000000000000002C5C85FC MUL PUSH1 0x80 SHR JUMPDEST PUSH4 0x20000000 DUP4 AND ISZERO PUSH2 0x222C JUMPI PUSH17 0x1000000000000000000000000162E42FD MUL PUSH1 0x80 SHR JUMPDEST PUSH4 0x10000000 DUP4 AND ISZERO PUSH2 0x224F JUMPI PUSH17 0x10000000000000000000000000B17217E MUL PUSH1 0x80 SHR JUMPDEST PUSH4 0x8000000 DUP4 AND ISZERO PUSH2 0x2272 JUMPI PUSH17 0x1000000000000000000000000058B90BE MUL PUSH1 0x80 SHR JUMPDEST PUSH4 0x4000000 DUP4 AND ISZERO PUSH2 0x2295 JUMPI PUSH17 0x100000000000000000000000002C5C85E MUL PUSH1 0x80 SHR JUMPDEST PUSH4 0x2000000 DUP4 AND ISZERO PUSH2 0x22B8 JUMPI PUSH17 0x10000000000000000000000000162E42E MUL PUSH1 0x80 SHR JUMPDEST PUSH4 0x1000000 DUP4 AND ISZERO PUSH2 0x22DB JUMPI PUSH17 0x100000000000000000000000000B17216 MUL PUSH1 0x80 SHR JUMPDEST PUSH3 0x800000 DUP4 AND ISZERO PUSH2 0x22FD JUMPI PUSH17 0x10000000000000000000000000058B90A MUL PUSH1 0x80 SHR JUMPDEST PUSH3 0x400000 DUP4 AND ISZERO PUSH2 0x231F JUMPI PUSH17 0x1000000000000000000000000002C5C84 MUL PUSH1 0x80 SHR JUMPDEST PUSH3 0x200000 DUP4 AND ISZERO PUSH2 0x2341 JUMPI PUSH17 0x100000000000000000000000000162E41 MUL PUSH1 0x80 SHR JUMPDEST PUSH3 0x100000 DUP4 AND ISZERO PUSH2 0x2363 JUMPI PUSH17 0x1000000000000000000000000000B1720 MUL PUSH1 0x80 SHR JUMPDEST PUSH3 0x80000 DUP4 AND ISZERO PUSH2 0x2385 JUMPI PUSH17 0x100000000000000000000000000058B8F MUL PUSH1 0x80 SHR JUMPDEST PUSH3 0x40000 DUP4 AND ISZERO PUSH2 0x23A7 JUMPI PUSH17 0x10000000000000000000000000002C5C7 MUL PUSH1 0x80 SHR JUMPDEST PUSH3 0x20000 DUP4 AND ISZERO PUSH2 0x23C9 JUMPI PUSH17 0x1000000000000000000000000000162E3 MUL PUSH1 0x80 SHR JUMPDEST PUSH3 0x10000 DUP4 AND ISZERO PUSH2 0x23EB JUMPI PUSH17 0x10000000000000000000000000000B171 MUL PUSH1 0x80 SHR JUMPDEST PUSH2 0x8000 DUP4 AND ISZERO PUSH2 0x240C JUMPI PUSH17 0x1000000000000000000000000000058B8 MUL PUSH1 0x80 SHR JUMPDEST PUSH2 0x4000 DUP4 AND ISZERO PUSH2 0x242D JUMPI PUSH17 0x100000000000000000000000000002C5B MUL PUSH1 0x80 SHR JUMPDEST PUSH2 0x2000 DUP4 AND ISZERO PUSH2 0x244E JUMPI PUSH17 0x10000000000000000000000000000162D MUL PUSH1 0x80 SHR JUMPDEST PUSH2 0x1000 DUP4 AND ISZERO PUSH2 0x246F JUMPI PUSH17 0x100000000000000000000000000000B16 MUL PUSH1 0x80 SHR JUMPDEST PUSH2 0x800 DUP4 AND ISZERO PUSH2 0x2490 JUMPI PUSH17 0x10000000000000000000000000000058A MUL PUSH1 0x80 SHR JUMPDEST PUSH2 0x400 DUP4 AND ISZERO PUSH2 0x24B1 JUMPI PUSH17 0x1000000000000000000000000000002C4 MUL PUSH1 0x80 SHR JUMPDEST PUSH2 0x200 DUP4 AND ISZERO PUSH2 0x24D2 JUMPI PUSH17 0x100000000000000000000000000000161 MUL PUSH1 0x80 SHR JUMPDEST PUSH2 0x100 DUP4 AND ISZERO PUSH2 0x24F3 JUMPI PUSH17 0x1000000000000000000000000000000B0 MUL PUSH1 0x80 SHR JUMPDEST PUSH1 0x80 DUP4 AND ISZERO PUSH2 0x2513 JUMPI PUSH17 0x100000000000000000000000000000057 MUL PUSH1 0x80 SHR JUMPDEST PUSH1 0x40 DUP4 AND ISZERO PUSH2 0x2533 JUMPI PUSH17 0x10000000000000000000000000000002B MUL PUSH1 0x80 SHR JUMPDEST PUSH1 0x20 DUP4 AND ISZERO PUSH2 0x2553 JUMPI PUSH17 0x100000000000000000000000000000015 MUL PUSH1 0x80 SHR JUMPDEST PUSH1 0x10 DUP4 AND ISZERO PUSH2 0x2573 JUMPI PUSH17 0x10000000000000000000000000000000A MUL PUSH1 0x80 SHR JUMPDEST PUSH1 0x8 DUP4 AND ISZERO PUSH2 0x2593 JUMPI PUSH17 0x100000000000000000000000000000004 MUL PUSH1 0x80 SHR JUMPDEST PUSH1 0x4 DUP4 AND ISZERO PUSH2 0x25B3 JUMPI PUSH17 0x100000000000000000000000000000001 MUL PUSH1 0x80 SHR JUMPDEST DUP5 PUSH2 0x25D4 JUMPI PUSH1 0xF DUP2 SWAP1 SHR PUSH1 0x1 PUSH1 0x1 PUSH1 0x70 SHL SUB AND SWAP1 POP PUSH2 0x3FFF DUP3 ADD SWAP2 POP PUSH2 0x2603 JUMP JUMPDEST PUSH2 0x3FFE DUP3 GT PUSH2 0x25F9 JUMPI PUSH1 0xF DUP2 SWAP1 SHR PUSH1 0x1 PUSH1 0x1 PUSH1 0x70 SHL SUB AND SWAP1 POP DUP2 PUSH2 0x3FFF SUB SWAP2 POP PUSH2 0x2603 JUMP JUMPDEST PUSH1 0x0 SWAP2 PUSH2 0x3FEE NOT ADD SHR JUMPDEST PUSH1 0x70 SWAP2 SWAP1 SWAP2 SHL OR PUSH1 0x80 SHL SWAP6 SWAP5 POP POP POP POP POP JUMP JUMPDEST PUSH1 0x0 PUSH2 0x7FFF PUSH1 0xF0 DUP4 SWAP1 SHR AND PUSH2 0x40FE DUP2 GT ISZERO PUSH2 0x2630 JUMPI PUSH1 0x0 DUP1 REVERT JUMPDEST PUSH2 0x3FFF DUP2 LT ISZERO PUSH2 0x2643 JUMPI POP PUSH1 0x0 SWAP3 SWAP2 POP POP JUMP JUMPDEST PUSH1 0x1 PUSH1 0x70 SHL PUSH1 0x1 PUSH1 0x1 PUSH1 0x70 SHL SUB PUSH1 0x80 DUP6 SWAP1 SHR AND OR PUSH2 0x406F DUP3 LT ISZERO PUSH2 0x266D JUMPI PUSH2 0x406F DUP3 SWAP1 SUB SHR PUSH2 0x267F JUMP JUMPDEST PUSH2 0x406F DUP3 GT ISZERO PUSH2 0x267F JUMPI PUSH2 0x406E NOT DUP3 ADD SHL JUMPDEST PUSH1 0x1 PUSH1 0x7F SHL PUSH1 0x80 DUP6 SWAP1 SHR LT PUSH2 0x26A9 JUMPI PUSH1 0x1 PUSH1 0xFF SHL DUP2 GT ISZERO PUSH2 0x269F JUMPI PUSH1 0x0 DUP1 REVERT JUMPDEST PUSH1 0x0 SUB SWAP4 SWAP3 POP POP POP JUMP JUMPDEST PUSH1 0x1 PUSH1 0x1 PUSH1 0xFF SHL SUB DUP2 GT ISZERO PUSH2 0x26BD JUMPI PUSH1 0x0 DUP1 REVERT JUMPDEST SWAP4 SWAP3 POP POP POP JUMP JUMPDEST PUSH1 0x0 DUP1 DUP3 GT PUSH2 0x26D2 JUMPI PUSH1 0x0 DUP1 REVERT JUMPDEST PUSH1 0x0 PUSH1 0x1 PUSH1 0x80 SHL DUP4 LT PUSH2 0x26E7 JUMPI PUSH1 0x80 SWAP3 DUP4 SHR SWAP3 ADD JUMPDEST PUSH1 0x1 PUSH1 0x40 SHL DUP4 LT PUSH2 0x26FA JUMPI PUSH1 0x40 SWAP3 DUP4 SHR SWAP3 ADD JUMPDEST PUSH5 0x100000000 DUP4 LT PUSH2 0x270E JUMPI PUSH1 0x20 SWAP3 DUP4 SHR SWAP3 ADD JUMPDEST PUSH3 0x10000 DUP4 LT PUSH2 0x2720 JUMPI PUSH1 0x10 SWAP3 DUP4 SHR SWAP3 ADD JUMPDEST PUSH2 0x100 DUP4 LT PUSH2 0x2731 JUMPI PUSH1 0x8 SWAP3 DUP4 SHR SWAP3 ADD JUMPDEST PUSH1 0x10 DUP4 LT PUSH2 0x2741 JUMPI PUSH1 0x4 SWAP3 DUP4 SHR SWAP3 ADD JUMPDEST PUSH1 0x4 DUP4 LT PUSH2 0x2751 JUMPI PUSH1 0x2 SWAP3 DUP4 SHR SWAP3 ADD JUMPDEST PUSH1 0x2 DUP4 LT PUSH2 0xAEF JUMPI PUSH1 0x1 ADD SWAP3 SWAP2 POP POP JUMP JUMPDEST DUP1 CALLDATALOAD PUSH1 0x1 PUSH1 0x1 PUSH1 0xA0 SHL SUB DUP2 AND DUP2 EQ PUSH2 0x7D2 JUMPI PUSH1 0x0 DUP1 REVERT JUMPDEST PUSH1 0x0 DUP1 PUSH1 0x40 DUP4 DUP6 SUB SLT ISZERO PUSH2 0x278C JUMPI PUSH1 0x0 DUP1 REVERT JUMPDEST PUSH2 0x2795 DUP4 PUSH2 0x2762 JUMP JUMPDEST SWAP5 PUSH1 0x20 SWAP4 SWAP1 SWAP4 ADD CALLDATALOAD SWAP4 POP POP POP JUMP JUMPDEST PUSH1 0x0 DUP1 PUSH1 0x0 PUSH1 0x60 DUP5 DUP7 SUB SLT ISZERO PUSH2 0x27B8 JUMPI PUSH1 0x0 DUP1 REVERT JUMPDEST PUSH2 0x27C1 DUP5 PUSH2 0x2762 JUMP JUMPDEST SWAP6 PUSH1 0x20 DUP6 ADD CALLDATALOAD SWAP6 POP PUSH1 0x40 SWAP1 SWAP5 ADD CALLDATALOAD SWAP4 SWAP3 POP POP POP JUMP JUMPDEST PUSH1 0x0 PUSH1 0x20 DUP3 DUP5 SUB SLT ISZERO PUSH2 0x27E8 JUMPI PUSH1 0x0 DUP1 REVERT JUMPDEST PUSH2 0x26BD DUP3 PUSH2 0x2762 JUMP JUMPDEST PUSH1 0x20 DUP1 DUP3 MSTORE PUSH1 0x12 SWAP1 DUP3 ADD MSTORE PUSH18 0x416D6F756E74206D757374206265203E203 PUSH1 0x74 SHL PUSH1 0x40 DUP3 ADD MSTORE PUSH1 0x60 ADD SWAP1 JUMP JUMPDEST PUSH1 0x20 DUP1 DUP3 MSTORE PUSH1 0x28 SWAP1 DUP3 ADD MSTORE PUSH32 0x596F7572204C6F616E206163636F756E7420646F65736E277420686176652074 PUSH1 0x40 DUP3 ADD MSTORE PUSH8 0x3434B99031B7B4B7 PUSH1 0xC1 SHL PUSH1 0x60 DUP3 ADD MSTORE PUSH1 0x80 ADD SWAP1 JUMP JUMPDEST PUSH4 0x4E487B71 PUSH1 0xE0 SHL PUSH1 0x0 MSTORE PUSH1 0x11 PUSH1 0x4 MSTORE PUSH1 0x24 PUSH1 0x0 REVERT JUMPDEST PUSH1 0x0 PUSH1 0x1 PUSH1 0xFF SHL DUP3 EQ ISZERO PUSH2 0x2891 JUMPI PUSH2 0x2891 PUSH2 0x2865 JUMP JUMPDEST POP PUSH1 0x0 SUB SWAP1 JUMP JUMPDEST PUSH1 0x0 DUP1 DUP3 SLT DUP1 ISZERO PUSH1 0x1 PUSH1 0x1 PUSH1 0xFF SHL SUB DUP5 SWAP1 SUB DUP6 SGT AND ISZERO PUSH2 0x28BA JUMPI PUSH2 0x28BA PUSH2 0x2865 JUMP JUMPDEST PUSH1 0x1 PUSH1 0xFF SHL DUP4 SWAP1 SUB DUP5 SLT DUP2 AND ISZERO PUSH2 0x28D3 JUMPI PUSH2 0x28D3 PUSH2 0x2865 JUMP JUMPDEST POP POP ADD SWAP1 JUMP JUMPDEST PUSH1 0x0 DUP3 DUP3 LT ISZERO PUSH2 0x28EB JUMPI PUSH2 0x28EB PUSH2 0x2865 JUMP JUMPDEST POP SUB SWAP1 JUMP JUMPDEST PUSH1 0x0 DUP1 DUP4 SLT DUP1 ISZERO PUSH1 0x1 PUSH1 0xFF SHL DUP6 ADD DUP5 SLT AND ISZERO PUSH2 0x290E JUMPI PUSH2 0x290E PUSH2 0x2865 JUMP JUMPDEST PUSH1 0x1 PUSH1 0x1 PUSH1 0xFF SHL SUB DUP5 ADD DUP4 SGT DUP2 AND ISZERO PUSH2 0x2929 JUMPI PUSH2 0x2929 PUSH2 0x2865 JUMP JUMPDEST POP POP SUB SWAP1 JUMP JUMPDEST PUSH4 0x4E487B71 PUSH1 0xE0 SHL PUSH1 0x0 MSTORE PUSH1 0x12 PUSH1 0x4 MSTORE PUSH1 0x24 PUSH1 0x0 REVERT JUMPDEST PUSH4 0x4E487B71 PUSH1 0xE0 SHL PUSH1 0x0 MSTORE PUSH1 0x1 PUSH1 0x4 MSTORE PUSH1 0x24 PUSH1 0x0 REVERT INVALID LOG2 PUSH5 0x6970667358 0x22 SLT KECCAK256 PUSH20 0xBC6E07294D254C9907F482916B7BD86EB7443DA0 PUSH8 0xCB7686FCEA87D0D CALLER 0x5C PUSH5 0x736F6C6343 STOP ADDMOD SIGNEXTEND STOP CALLER ",
  "sha1": "74dcf6c4f9baa7839bf2db28007b45d4dc63fa3f",
  "source": "// SPDX-License-Identifier: MIT\npragma solidity ^0.8.0;\n\nimport \"./ABDKMathQuad.sol\";\n\ncontract LoanAccount {\n    //If balance is so minute, i.e falls within -epsilon to epsilon\n    //Set the balance to 0\n    int256 constant EPSILON = 5;\n\n    struct Balance {\n        address tokenAddress;\n        int256 balance;\n        uint256 fsecondInterestRate; //interest rate per second\n        bool isExist;\n        uint256 lastInterestRateUpdated;\n    }\n\n    address public userAddress;\n    //Token Address => Balance\n    mapping(address => Balance) balanceMap;\n\n    //TODO: maybe should make sure that only the main PotamusLoan contract\n    //is able to call this function instead of everyone\n    constructor(address _userAddress) {\n        userAddress = _userAddress;\n    }\n\n    //Recalculate Deposit Balance and Loan Balance for that particular token\n    function recalculateBalance(address _token, uint256 _fSecondInterestRate)\n        public\n    {\n        Balance storage balance = balanceMap[_token];\n        uint256 currentTime = block.timestamp;\n        if (balance.isExist) {\n            balance.balance = getNewBalance(\n                balance.balance,\n                balance.fsecondInterestRate, //calculate with the old interest rate\n                currentTime - balance.lastInterestRateUpdated\n            );\n            balance.lastInterestRateUpdated = currentTime;\n            balance.fsecondInterestRate = _fSecondInterestRate;\n        }\n    }\n\n    function tokenBalance(address _token) public view returns (int256) {\n        return balanceMap[_token].balance;\n    }\n\n    function getNewBalance(\n        int256 _oldBalance,\n        uint256 _fRatePerSecond,\n        uint256 _secondInterval\n    ) private pure returns (int256) {\n        //TODO: We have the below ugly implementation cos ABDKMathQuad doesn't have\n        //function to calculate x^n given x and n\n        //ABDKMath64x64 has support for that, but I used ABDKMathQuad in LoanPool so just\n        //wanna keep the same library. We should do gas optimization here if possible by changing\n        //library.\n        //The math trick used below: (1+rate)^(interval) = 2^(interval.log_2(1+rate))\n        return\n            ABDKMathQuad.toInt(\n                ABDKMathQuad.mul(\n                    ABDKMathQuad.fromInt(_oldBalance),\n                    ABDKMathQuad.pow_2(\n                        ABDKMathQuad.mul(\n                            //interval\n                            ABDKMathQuad.fromUInt(_secondInterval),\n                            //log_2^(1+rate)\n                            ABDKMathQuad.log_2(\n                                ABDKMathQuad.add(\n                                    ABDKMathQuad.fromUInt(1),\n                                    ABDKMathQuad.div(\n                                        ABDKMathQuad.fromUInt(_fRatePerSecond),\n                                        ABDKMathQuad.fromUInt(10**18)\n                                    )\n                                )\n                            )\n                        )\n                    )\n                )\n            );\n    }\n\n    function deposit(\n        address _token,\n        int256 _amount,\n        uint256 _fUpdatedSecondInterestRate\n    ) public {\n        require(_amount > 0, \"Amount must be > 0\");\n        //Update the balance\n        Balance storage balance = balanceMap[_token];\n        if (balance.isExist) {\n            balance.balance += _amount;\n        } else {\n            balanceMap[_token] = Balance(\n                _token,\n                _amount,\n                _fUpdatedSecondInterestRate,\n                true,\n                block.timestamp\n            );\n        }\n    }\n\n    function withdraw(address _token, int256 _amount) public {\n        require(_amount > 0, \"Amount must be > 0\");\n        //TODO: Oracle: Implement check on how much you can withdraw\n        Balance storage balance = balanceMap[_token];\n        require(balance.isExist, \"Your Loan account doesn't have this coin\");\n        require(\n            balance.balance > 0,\n            \"Your balance for this token is not positive\"\n        );\n        require(\n            _amount <= balance.balance,\n            \"You have insufficient balance for this token\"\n        );\n\n        balance.balance -= _amount;\n\n        //If balance almost zero, remove it\n        removeBalanceIfZero(_token);\n    }\n\n    function loan(\n        address _token,\n        int256 _amount,\n        uint256 _fUpdatedSecondInterestRate\n    ) public {\n        require(_amount > 0, \"Amount must be > 0\");\n        //TODO: Oracle: Implement check on how much you can withdraw\n        Balance storage balance = balanceMap[_token];\n        if (balance.isExist) {\n            balance.balance -= _amount;\n        } else {\n            balanceMap[_token] = Balance(\n                _token,\n                -_amount,\n                _fUpdatedSecondInterestRate,\n                true,\n                block.timestamp\n            );\n        }\n    }\n\n    function payback(address _token, int256 _amount) public {\n        require(_amount > 0, \"Amount must be > 0\");\n        Balance storage balance = balanceMap[_token];\n        //TODO: Oracle: Implement check on how much you can withdraw\n        require(balance.isExist, \"Your Loan account doesn't have this coin\");\n        require(balance.balance < 0, \"You don't owe any for this token\");\n        require(\n            _amount <= -balance.balance,\n            \"You are overpaying for what you owe\"\n        );\n        balance.balance += _amount;\n\n        //If balance almost zero, remove it\n        removeBalanceIfZero(_token);\n    }\n\n    function removeBalanceIfZero(address _token) private {\n        Balance storage balance = balanceMap[_token];\n        if (\n            balance.isExist &&\n            balance.balance < EPSILON &&\n            balance.balance > -EPSILON\n        ) {\n            balance.balance = 0;\n            balance.isExist = false;\n        }\n    }\n\n    function hasDepositOrLoan(address _token) public view returns (bool) {\n        //Return trues if the user deposit or loan in this token\n        return balanceMap[_token].isExist;\n    }\n}\n",
  "sourcePath": "contracts/LoanAccount.sol",
  "type": "contract"
}