{
  "abi": [
    {
      "inputs": [
        {
          "internalType": "address",
          "name": "_userAddress",
          "type": "address"
        }
      ],
      "stateMutability": "nonpayable",
      "type": "constructor"
    },
    {
      "inputs": [
        {
          "internalType": "address",
          "name": "_token",
          "type": "address"
        },
        {
          "internalType": "int256",
          "name": "_amount",
          "type": "int256"
        },
        {
          "internalType": "uint256",
          "name": "_fUpdatedSecondInterestRate",
          "type": "uint256"
        }
      ],
      "name": "deposit",
      "outputs": [],
      "stateMutability": "nonpayable",
      "type": "function"
    },
    {
      "inputs": [
        {
          "internalType": "address",
          "name": "_userAddress",
          "type": "address"
        },
        {
          "internalType": "uint256",
          "name": "_index",
          "type": "uint256"
        }
      ],
      "name": "getTokenBalanceInfo",
      "outputs": [
        {
          "internalType": "address",
          "name": "_tokenAddress",
          "type": "address"
        },
        {
          "internalType": "int256",
          "name": "_balance",
          "type": "int256"
        },
        {
          "internalType": "uint256",
          "name": "_secondRate",
          "type": "uint256"
        },
        {
          "internalType": "uint256",
          "name": "_secondRateDecimals",
          "type": "uint256"
        },
        {
          "internalType": "uint256",
          "name": "lastUpdated",
          "type": "uint256"
        },
        {
          "internalType": "bool",
          "name": "_isExist",
          "type": "bool"
        }
      ],
      "stateMutability": "view",
      "type": "function"
    },
    {
      "inputs": [],
      "name": "getTokenListLength",
      "outputs": [
        {
          "internalType": "uint256",
          "name": "",
          "type": "uint256"
        }
      ],
      "stateMutability": "view",
      "type": "function"
    },
    {
      "inputs": [
        {
          "internalType": "address",
          "name": "_token",
          "type": "address"
        }
      ],
      "name": "hasDepositOrLoan",
      "outputs": [
        {
          "internalType": "bool",
          "name": "",
          "type": "bool"
        }
      ],
      "stateMutability": "view",
      "type": "function"
    },
    {
      "inputs": [
        {
          "internalType": "address",
          "name": "_token",
          "type": "address"
        },
        {
          "internalType": "int256",
          "name": "_amount",
          "type": "int256"
        },
        {
          "internalType": "uint256",
          "name": "_fUpdatedSecondInterestRate",
          "type": "uint256"
        }
      ],
      "name": "loan",
      "outputs": [],
      "stateMutability": "nonpayable",
      "type": "function"
    },
    {
      "inputs": [
        {
          "internalType": "address",
          "name": "_token",
          "type": "address"
        },
        {
          "internalType": "int256",
          "name": "_amount",
          "type": "int256"
        }
      ],
      "name": "payback",
      "outputs": [],
      "stateMutability": "nonpayable",
      "type": "function"
    },
    {
      "inputs": [
        {
          "internalType": "address",
          "name": "_token",
          "type": "address"
        },
        {
          "internalType": "uint256",
          "name": "_fSecondInterestRate",
          "type": "uint256"
        }
      ],
      "name": "recalculateBalance",
      "outputs": [],
      "stateMutability": "nonpayable",
      "type": "function"
    },
    {
      "inputs": [
        {
          "internalType": "address",
          "name": "_token",
          "type": "address"
        }
      ],
      "name": "tokenBalance",
      "outputs": [
        {
          "internalType": "int256",
          "name": "",
          "type": "int256"
        }
      ],
      "stateMutability": "view",
      "type": "function"
    },
    {
      "inputs": [],
      "name": "userAddress",
      "outputs": [
        {
          "internalType": "address",
          "name": "",
          "type": "address"
        }
      ],
      "stateMutability": "view",
      "type": "function"
    },
    {
      "inputs": [
        {
          "internalType": "address",
          "name": "_token",
          "type": "address"
        },
        {
          "internalType": "int256",
          "name": "_amount",
          "type": "int256"
        }
      ],
      "name": "withdraw",
      "outputs": [],
      "stateMutability": "nonpayable",
      "type": "function"
    }
  ],
  "bytecode": "608060405234801561001057600080fd5b50604051610b76380380610b7683398101604081905261002f91610054565b600080546001600160a01b0319166001600160a01b0392909216919091179055610084565b60006020828403121561006657600080fd5b81516001600160a01b038116811461007d57600080fd5b9392505050565b610ae3806100936000396000f3fe608060405234801561001057600080fd5b506004361061009e5760003560e01c80637da7d3f1116100665780637da7d3f114610141578063cebc743d14610154578063e4128fb314610167578063eedc966a14610192578063f3984804146101bf57600080fd5b80630b56fd49146100a35780630e19ae76146100b857806313957027146100cb5780633683ef57146100de5780635719dd221461012f575b600080fd5b6100b66100b13660046108c1565b6101fe565b005b6100b66100c63660046108eb565b610348565b6100b66100d93660046108c1565b610475565b6100f16100ec3660046108c1565b61054e565b604080516001600160a01b03909716875260208701959095529385019290925260608401526080830152151560a082015260c0015b60405180910390f35b6002545b604051908152602001610126565b6100b661014f3660046108c1565b6105c2565b6100b66101623660046108eb565b610703565b60005461017a906001600160a01b031681565b6040516001600160a01b039091168152602001610126565b6101336101a036600461091e565b6001600160a01b03166000908152600160208190526040909120015490565b6101ee6101cd36600461091e565b6001600160a01b031660009081526001602052604090206003015460ff1690565b6040519015158152602001610126565b600081136102275760405162461bcd60e51b815260040161021e90610940565b60405180910390fd5b6001600160a01b0382166000908152600160205260409020600381015460ff166102635760405162461bcd60e51b815260040161021e9061096c565b60008160010154126102b75760405162461bcd60e51b815260206004820181905260248201527f596f7520646f6e2774206f776520616e7920666f72207468697320746f6b656e604482015260640161021e565b80600101546102c5906109ca565b8213156103205760405162461bcd60e51b815260206004820152602360248201527f596f7520617265206f766572706179696e6720666f72207768617420796f75206044820152626f776560e81b606482015260840161021e565b8181600101600082825461033491906109e7565b90915550610343905083610840565b505050565b600082136103685760405162461bcd60e51b815260040161021e90610940565b6001600160a01b0383166000908152600160205260409020600381015460ff16156103ac57828160010160008282546103a191906109e7565b9091555061046f9050565b6040805160a0810182526001600160a01b03808716808352602080840188815284860188815260016060870181815242608089019081526000878152958390529885209751885497166001600160a01b03199788161788559251878201559051600280880191909155915160038701805491151560ff19909216919091179055955160049095019490945583549485018455929092527f405787fa12a823e0f2b7631cc41b3ba8828b3321ca811111fa75cd3aa3bb5ace90920180549092161790555b50505050565b6001600160a01b03821660009081526001602052604090206003810154429060ff161561046f5773__PotamusUtils__________________________63e24a9e6e836001015484600201548560040154856104d09190610a28565b6040516001600160e01b031960e086901b168152600481019390935260248301919091526044820152606401602060405180830381865af4158015610519573d6000803e3d6000fd5b505050506040513d601f19601f8201168201806040525081019061053d9190610a3f565b600183015560048201556002015550565b60008060008060008060006002888154811061056c5761056c610a58565b6000918252602080832091909101546001600160a01b031680835260019182905260409092209081015460028201546004830154600390930154939d919c509a506012995090975060ff90911695509350505050565b600081136105e25760405162461bcd60e51b815260040161021e90610940565b6001600160a01b0382166000908152600160205260409020600381015460ff1661061e5760405162461bcd60e51b815260040161021e9061096c565b60008160010154136106865760405162461bcd60e51b815260206004820152602b60248201527f596f75722062616c616e636520666f72207468697320746f6b656e206973206e60448201526a6f7420706f73697469766560a81b606482015260840161021e565b80600101548213156106ef5760405162461bcd60e51b815260206004820152602c60248201527f596f75206861766520696e73756666696369656e742062616c616e636520666f60448201526b39103a3434b9903a37b5b2b760a11b606482015260840161021e565b818160010160008282546103349190610a6e565b600082136107235760405162461bcd60e51b815260040161021e90610940565b6001600160a01b0383166000908152600160205260409020600381015460ff161561075c57828160010160008282546103a19190610a6e565b6040518060a00160405280856001600160a01b0316815260200184610780906109ca565b815260208082019490945260016040808301829052426060938401526001600160a01b039788166000818152838852828120865181546001600160a01b031990811691909c161781559786015188850155918501516002808901919091559385015160038801805460ff19169115159190911790556080909401516004909601959095558154908101825593527f405787fa12a823e0f2b7631cc41b3ba8828b3321ca811111fa75cd3aa3bb5ace90920180549094169091179092555050565b6001600160a01b0381166000908152600160205260409020600381015460ff168015610870575060058160010154125b8015610888575061088160056109ca565b8160010154135b156108a1576000600182015560038101805460ff191690555b5050565b80356001600160a01b03811681146108bc57600080fd5b919050565b600080604083850312156108d457600080fd5b6108dd836108a5565b946020939093013593505050565b60008060006060848603121561090057600080fd5b610909846108a5565b95602085013595506040909401359392505050565b60006020828403121561093057600080fd5b610939826108a5565b9392505050565b6020808252601290820152710416d6f756e74206d757374206265203e20360741b604082015260600190565b60208082526028908201527f596f7572204c6f616e206163636f756e7420646f65736e2774206861766520746040820152673434b99031b7b4b760c11b606082015260800190565b634e487b7160e01b600052601160045260246000fd5b6000600160ff1b8214156109e0576109e06109b4565b5060000390565b600080821280156001600160ff1b0384900385131615610a0957610a096109b4565b600160ff1b8390038412811615610a2257610a226109b4565b50500190565b600082821015610a3a57610a3a6109b4565b500390565b600060208284031215610a5157600080fd5b5051919050565b634e487b7160e01b600052603260045260246000fd5b60008083128015600160ff1b850184121615610a8c57610a8c6109b4565b6001600160ff1b0384018313811615610aa757610aa76109b4565b5050039056fea26469706673582212204b021665b30f911a4af13a7816af840918f839798b4ef3e81296b085042dc90964736f6c634300080b0033",
  "bytecodeSha1": "afb49454877c29b149317e93d4e99962ce0c2f0d",
  "compiler": {
    "evm_version": "istanbul",
    "optimizer": {
      "enabled": true,
      "runs": 200
    },
    "version": "0.8.11+commit.d7f03943"
  },
  "contractName": "LoanAccount",
  "deployedBytecode": "608060405234801561001057600080fd5b506004361061009e5760003560e01c80637da7d3f1116100665780637da7d3f114610141578063cebc743d14610154578063e4128fb314610167578063eedc966a14610192578063f3984804146101bf57600080fd5b80630b56fd49146100a35780630e19ae76146100b857806313957027146100cb5780633683ef57146100de5780635719dd221461012f575b600080fd5b6100b66100b13660046108c1565b6101fe565b005b6100b66100c63660046108eb565b610348565b6100b66100d93660046108c1565b610475565b6100f16100ec3660046108c1565b61054e565b604080516001600160a01b03909716875260208701959095529385019290925260608401526080830152151560a082015260c0015b60405180910390f35b6002545b604051908152602001610126565b6100b661014f3660046108c1565b6105c2565b6100b66101623660046108eb565b610703565b60005461017a906001600160a01b031681565b6040516001600160a01b039091168152602001610126565b6101336101a036600461091e565b6001600160a01b03166000908152600160208190526040909120015490565b6101ee6101cd36600461091e565b6001600160a01b031660009081526001602052604090206003015460ff1690565b6040519015158152602001610126565b600081136102275760405162461bcd60e51b815260040161021e90610940565b60405180910390fd5b6001600160a01b0382166000908152600160205260409020600381015460ff166102635760405162461bcd60e51b815260040161021e9061096c565b60008160010154126102b75760405162461bcd60e51b815260206004820181905260248201527f596f7520646f6e2774206f776520616e7920666f72207468697320746f6b656e604482015260640161021e565b80600101546102c5906109ca565b8213156103205760405162461bcd60e51b815260206004820152602360248201527f596f7520617265206f766572706179696e6720666f72207768617420796f75206044820152626f776560e81b606482015260840161021e565b8181600101600082825461033491906109e7565b90915550610343905083610840565b505050565b600082136103685760405162461bcd60e51b815260040161021e90610940565b6001600160a01b0383166000908152600160205260409020600381015460ff16156103ac57828160010160008282546103a191906109e7565b9091555061046f9050565b6040805160a0810182526001600160a01b03808716808352602080840188815284860188815260016060870181815242608089019081526000878152958390529885209751885497166001600160a01b03199788161788559251878201559051600280880191909155915160038701805491151560ff19909216919091179055955160049095019490945583549485018455929092527f405787fa12a823e0f2b7631cc41b3ba8828b3321ca811111fa75cd3aa3bb5ace90920180549092161790555b50505050565b6001600160a01b03821660009081526001602052604090206003810154429060ff161561046f5773__$399c488f34e53de4c155d62f7f1a443bc7$__63e24a9e6e836001015484600201548560040154856104d09190610a28565b6040516001600160e01b031960e086901b168152600481019390935260248301919091526044820152606401602060405180830381865af4158015610519573d6000803e3d6000fd5b505050506040513d601f19601f8201168201806040525081019061053d9190610a3f565b600183015560048201556002015550565b60008060008060008060006002888154811061056c5761056c610a58565b6000918252602080832091909101546001600160a01b031680835260019182905260409092209081015460028201546004830154600390930154939d919c509a506012995090975060ff90911695509350505050565b600081136105e25760405162461bcd60e51b815260040161021e90610940565b6001600160a01b0382166000908152600160205260409020600381015460ff1661061e5760405162461bcd60e51b815260040161021e9061096c565b60008160010154136106865760405162461bcd60e51b815260206004820152602b60248201527f596f75722062616c616e636520666f72207468697320746f6b656e206973206e60448201526a6f7420706f73697469766560a81b606482015260840161021e565b80600101548213156106ef5760405162461bcd60e51b815260206004820152602c60248201527f596f75206861766520696e73756666696369656e742062616c616e636520666f60448201526b39103a3434b9903a37b5b2b760a11b606482015260840161021e565b818160010160008282546103349190610a6e565b600082136107235760405162461bcd60e51b815260040161021e90610940565b6001600160a01b0383166000908152600160205260409020600381015460ff161561075c57828160010160008282546103a19190610a6e565b6040518060a00160405280856001600160a01b0316815260200184610780906109ca565b815260208082019490945260016040808301829052426060938401526001600160a01b039788166000818152838852828120865181546001600160a01b031990811691909c161781559786015188850155918501516002808901919091559385015160038801805460ff19169115159190911790556080909401516004909601959095558154908101825593527f405787fa12a823e0f2b7631cc41b3ba8828b3321ca811111fa75cd3aa3bb5ace90920180549094169091179092555050565b6001600160a01b0381166000908152600160205260409020600381015460ff168015610870575060058160010154125b8015610888575061088160056109ca565b8160010154135b156108a1576000600182015560038101805460ff191690555b5050565b80356001600160a01b03811681146108bc57600080fd5b919050565b600080604083850312156108d457600080fd5b6108dd836108a5565b946020939093013593505050565b60008060006060848603121561090057600080fd5b610909846108a5565b95602085013595506040909401359392505050565b60006020828403121561093057600080fd5b610939826108a5565b9392505050565b6020808252601290820152710416d6f756e74206d757374206265203e20360741b604082015260600190565b60208082526028908201527f596f7572204c6f616e206163636f756e7420646f65736e2774206861766520746040820152673434b99031b7b4b760c11b606082015260800190565b634e487b7160e01b600052601160045260246000fd5b6000600160ff1b8214156109e0576109e06109b4565b5060000390565b600080821280156001600160ff1b0384900385131615610a0957610a096109b4565b600160ff1b8390038412811615610a2257610a226109b4565b50500190565b600082821015610a3a57610a3a6109b4565b500390565b600060208284031215610a5157600080fd5b5051919050565b634e487b7160e01b600052603260045260246000fd5b60008083128015600160ff1b850184121615610a8c57610a8c6109b4565b6001600160ff1b0384018313811615610aa757610aa76109b4565b5050039056fea26469706673582212204b021665b30f911a4af13a7816af840918f839798b4ef3e81296b085042dc90964736f6c634300080b0033",
  "language": "Solidity",
  "natspec": {
    "kind": "dev",
    "methods": {},
    "version": 1
  },
  "opcodes": "PUSH1 0x80 PUSH1 0x40 MSTORE CALLVALUE DUP1 ISZERO PUSH2 0x10 JUMPI PUSH1 0x0 DUP1 REVERT JUMPDEST POP PUSH1 0x4 CALLDATASIZE LT PUSH2 0x9E JUMPI PUSH1 0x0 CALLDATALOAD PUSH1 0xE0 SHR DUP1 PUSH4 0x7DA7D3F1 GT PUSH2 0x66 JUMPI DUP1 PUSH4 0x7DA7D3F1 EQ PUSH2 0x141 JUMPI DUP1 PUSH4 0xCEBC743D EQ PUSH2 0x154 JUMPI DUP1 PUSH4 0xE4128FB3 EQ PUSH2 0x167 JUMPI DUP1 PUSH4 0xEEDC966A EQ PUSH2 0x192 JUMPI DUP1 PUSH4 0xF3984804 EQ PUSH2 0x1BF JUMPI PUSH1 0x0 DUP1 REVERT JUMPDEST DUP1 PUSH4 0xB56FD49 EQ PUSH2 0xA3 JUMPI DUP1 PUSH4 0xE19AE76 EQ PUSH2 0xB8 JUMPI DUP1 PUSH4 0x13957027 EQ PUSH2 0xCB JUMPI DUP1 PUSH4 0x3683EF57 EQ PUSH2 0xDE JUMPI DUP1 PUSH4 0x5719DD22 EQ PUSH2 0x12F JUMPI JUMPDEST PUSH1 0x0 DUP1 REVERT JUMPDEST PUSH2 0xB6 PUSH2 0xB1 CALLDATASIZE PUSH1 0x4 PUSH2 0x8C1 JUMP JUMPDEST PUSH2 0x1FE JUMP JUMPDEST STOP JUMPDEST PUSH2 0xB6 PUSH2 0xC6 CALLDATASIZE PUSH1 0x4 PUSH2 0x8EB JUMP JUMPDEST PUSH2 0x348 JUMP JUMPDEST PUSH2 0xB6 PUSH2 0xD9 CALLDATASIZE PUSH1 0x4 PUSH2 0x8C1 JUMP JUMPDEST PUSH2 0x475 JUMP JUMPDEST PUSH2 0xF1 PUSH2 0xEC CALLDATASIZE PUSH1 0x4 PUSH2 0x8C1 JUMP JUMPDEST PUSH2 0x54E JUMP JUMPDEST PUSH1 0x40 DUP1 MLOAD PUSH1 0x1 PUSH1 0x1 PUSH1 0xA0 SHL SUB SWAP1 SWAP8 AND DUP8 MSTORE PUSH1 0x20 DUP8 ADD SWAP6 SWAP1 SWAP6 MSTORE SWAP4 DUP6 ADD SWAP3 SWAP1 SWAP3 MSTORE PUSH1 0x60 DUP5 ADD MSTORE PUSH1 0x80 DUP4 ADD MSTORE ISZERO ISZERO PUSH1 0xA0 DUP3 ADD MSTORE PUSH1 0xC0 ADD JUMPDEST PUSH1 0x40 MLOAD DUP1 SWAP2 SUB SWAP1 RETURN JUMPDEST PUSH1 0x2 SLOAD JUMPDEST PUSH1 0x40 MLOAD SWAP1 DUP2 MSTORE PUSH1 0x20 ADD PUSH2 0x126 JUMP JUMPDEST PUSH2 0xB6 PUSH2 0x14F CALLDATASIZE PUSH1 0x4 PUSH2 0x8C1 JUMP JUMPDEST PUSH2 0x5C2 JUMP JUMPDEST PUSH2 0xB6 PUSH2 0x162 CALLDATASIZE PUSH1 0x4 PUSH2 0x8EB JUMP JUMPDEST PUSH2 0x703 JUMP JUMPDEST PUSH1 0x0 SLOAD PUSH2 0x17A SWAP1 PUSH1 0x1 PUSH1 0x1 PUSH1 0xA0 SHL SUB AND DUP2 JUMP JUMPDEST PUSH1 0x40 MLOAD PUSH1 0x1 PUSH1 0x1 PUSH1 0xA0 SHL SUB SWAP1 SWAP2 AND DUP2 MSTORE PUSH1 0x20 ADD PUSH2 0x126 JUMP JUMPDEST PUSH2 0x133 PUSH2 0x1A0 CALLDATASIZE PUSH1 0x4 PUSH2 0x91E JUMP JUMPDEST PUSH1 0x1 PUSH1 0x1 PUSH1 0xA0 SHL SUB AND PUSH1 0x0 SWAP1 DUP2 MSTORE PUSH1 0x1 PUSH1 0x20 DUP2 SWAP1 MSTORE PUSH1 0x40 SWAP1 SWAP2 KECCAK256 ADD SLOAD SWAP1 JUMP JUMPDEST PUSH2 0x1EE PUSH2 0x1CD CALLDATASIZE PUSH1 0x4 PUSH2 0x91E JUMP JUMPDEST PUSH1 0x1 PUSH1 0x1 PUSH1 0xA0 SHL SUB AND PUSH1 0x0 SWAP1 DUP2 MSTORE PUSH1 0x1 PUSH1 0x20 MSTORE PUSH1 0x40 SWAP1 KECCAK256 PUSH1 0x3 ADD SLOAD PUSH1 0xFF AND SWAP1 JUMP JUMPDEST PUSH1 0x40 MLOAD SWAP1 ISZERO ISZERO DUP2 MSTORE PUSH1 0x20 ADD PUSH2 0x126 JUMP JUMPDEST PUSH1 0x0 DUP2 SGT PUSH2 0x227 JUMPI PUSH1 0x40 MLOAD PUSH3 0x461BCD PUSH1 0xE5 SHL DUP2 MSTORE PUSH1 0x4 ADD PUSH2 0x21E SWAP1 PUSH2 0x940 JUMP JUMPDEST PUSH1 0x40 MLOAD DUP1 SWAP2 SUB SWAP1 REVERT JUMPDEST PUSH1 0x1 PUSH1 0x1 PUSH1 0xA0 SHL SUB DUP3 AND PUSH1 0x0 SWAP1 DUP2 MSTORE PUSH1 0x1 PUSH1 0x20 MSTORE PUSH1 0x40 SWAP1 KECCAK256 PUSH1 0x3 DUP2 ADD SLOAD PUSH1 0xFF AND PUSH2 0x263 JUMPI PUSH1 0x40 MLOAD PUSH3 0x461BCD PUSH1 0xE5 SHL DUP2 MSTORE PUSH1 0x4 ADD PUSH2 0x21E SWAP1 PUSH2 0x96C JUMP JUMPDEST PUSH1 0x0 DUP2 PUSH1 0x1 ADD SLOAD SLT PUSH2 0x2B7 JUMPI PUSH1 0x40 MLOAD PUSH3 0x461BCD PUSH1 0xE5 SHL DUP2 MSTORE PUSH1 0x20 PUSH1 0x4 DUP3 ADD DUP2 SWAP1 MSTORE PUSH1 0x24 DUP3 ADD MSTORE PUSH32 0x596F7520646F6E2774206F776520616E7920666F72207468697320746F6B656E PUSH1 0x44 DUP3 ADD MSTORE PUSH1 0x64 ADD PUSH2 0x21E JUMP JUMPDEST DUP1 PUSH1 0x1 ADD SLOAD PUSH2 0x2C5 SWAP1 PUSH2 0x9CA JUMP JUMPDEST DUP3 SGT ISZERO PUSH2 0x320 JUMPI PUSH1 0x40 MLOAD PUSH3 0x461BCD PUSH1 0xE5 SHL DUP2 MSTORE PUSH1 0x20 PUSH1 0x4 DUP3 ADD MSTORE PUSH1 0x23 PUSH1 0x24 DUP3 ADD MSTORE PUSH32 0x596F7520617265206F766572706179696E6720666F72207768617420796F7520 PUSH1 0x44 DUP3 ADD MSTORE PUSH3 0x6F7765 PUSH1 0xE8 SHL PUSH1 0x64 DUP3 ADD MSTORE PUSH1 0x84 ADD PUSH2 0x21E JUMP JUMPDEST DUP2 DUP2 PUSH1 0x1 ADD PUSH1 0x0 DUP3 DUP3 SLOAD PUSH2 0x334 SWAP2 SWAP1 PUSH2 0x9E7 JUMP JUMPDEST SWAP1 SWAP2 SSTORE POP PUSH2 0x343 SWAP1 POP DUP4 PUSH2 0x840 JUMP JUMPDEST POP POP POP JUMP JUMPDEST PUSH1 0x0 DUP3 SGT PUSH2 0x368 JUMPI PUSH1 0x40 MLOAD PUSH3 0x461BCD PUSH1 0xE5 SHL DUP2 MSTORE PUSH1 0x4 ADD PUSH2 0x21E SWAP1 PUSH2 0x940 JUMP JUMPDEST PUSH1 0x1 PUSH1 0x1 PUSH1 0xA0 SHL SUB DUP4 AND PUSH1 0x0 SWAP1 DUP2 MSTORE PUSH1 0x1 PUSH1 0x20 MSTORE PUSH1 0x40 SWAP1 KECCAK256 PUSH1 0x3 DUP2 ADD SLOAD PUSH1 0xFF AND ISZERO PUSH2 0x3AC JUMPI DUP3 DUP2 PUSH1 0x1 ADD PUSH1 0x0 DUP3 DUP3 SLOAD PUSH2 0x3A1 SWAP2 SWAP1 PUSH2 0x9E7 JUMP JUMPDEST SWAP1 SWAP2 SSTORE POP PUSH2 0x46F SWAP1 POP JUMP JUMPDEST PUSH1 0x40 DUP1 MLOAD PUSH1 0xA0 DUP2 ADD DUP3 MSTORE PUSH1 0x1 PUSH1 0x1 PUSH1 0xA0 SHL SUB DUP1 DUP8 AND DUP1 DUP4 MSTORE PUSH1 0x20 DUP1 DUP5 ADD DUP9 DUP2 MSTORE DUP5 DUP7 ADD DUP9 DUP2 MSTORE PUSH1 0x1 PUSH1 0x60 DUP8 ADD DUP2 DUP2 MSTORE TIMESTAMP PUSH1 0x80 DUP10 ADD SWAP1 DUP2 MSTORE PUSH1 0x0 DUP8 DUP2 MSTORE SWAP6 DUP4 SWAP1 MSTORE SWAP9 DUP6 KECCAK256 SWAP8 MLOAD DUP9 SLOAD SWAP8 AND PUSH1 0x1 PUSH1 0x1 PUSH1 0xA0 SHL SUB NOT SWAP8 DUP9 AND OR DUP9 SSTORE SWAP3 MLOAD DUP8 DUP3 ADD SSTORE SWAP1 MLOAD PUSH1 0x2 DUP1 DUP9 ADD SWAP2 SWAP1 SWAP2 SSTORE SWAP2 MLOAD PUSH1 0x3 DUP8 ADD DUP1 SLOAD SWAP2 ISZERO ISZERO PUSH1 0xFF NOT SWAP1 SWAP3 AND SWAP2 SWAP1 SWAP2 OR SWAP1 SSTORE SWAP6 MLOAD PUSH1 0x4 SWAP1 SWAP6 ADD SWAP5 SWAP1 SWAP5 SSTORE DUP4 SLOAD SWAP5 DUP6 ADD DUP5 SSTORE SWAP3 SWAP1 SWAP3 MSTORE PUSH32 0x405787FA12A823E0F2B7631CC41B3BA8828B3321CA811111FA75CD3AA3BB5ACE SWAP1 SWAP3 ADD DUP1 SLOAD SWAP1 SWAP3 AND OR SWAP1 SSTORE JUMPDEST POP POP POP POP JUMP JUMPDEST PUSH1 0x1 PUSH1 0x1 PUSH1 0xA0 SHL SUB DUP3 AND PUSH1 0x0 SWAP1 DUP2 MSTORE PUSH1 0x1 PUSH1 0x20 MSTORE PUSH1 0x40 SWAP1 KECCAK256 PUSH1 0x3 DUP2 ADD SLOAD TIMESTAMP SWAP1 PUSH1 0xFF AND ISZERO PUSH2 0x46F JUMPI PUSH20 0x0 PUSH4 0xE24A9E6E DUP4 PUSH1 0x1 ADD SLOAD DUP5 PUSH1 0x2 ADD SLOAD DUP6 PUSH1 0x4 ADD SLOAD DUP6 PUSH2 0x4D0 SWAP2 SWAP1 PUSH2 0xA28 JUMP JUMPDEST PUSH1 0x40 MLOAD PUSH1 0x1 PUSH1 0x1 PUSH1 0xE0 SHL SUB NOT PUSH1 0xE0 DUP7 SWAP1 SHL AND DUP2 MSTORE PUSH1 0x4 DUP2 ADD SWAP4 SWAP1 SWAP4 MSTORE PUSH1 0x24 DUP4 ADD SWAP2 SWAP1 SWAP2 MSTORE PUSH1 0x44 DUP3 ADD MSTORE PUSH1 0x64 ADD PUSH1 0x20 PUSH1 0x40 MLOAD DUP1 DUP4 SUB DUP2 DUP7 GAS DELEGATECALL ISZERO DUP1 ISZERO PUSH2 0x519 JUMPI RETURNDATASIZE PUSH1 0x0 DUP1 RETURNDATACOPY RETURNDATASIZE PUSH1 0x0 REVERT JUMPDEST POP POP POP POP PUSH1 0x40 MLOAD RETURNDATASIZE PUSH1 0x1F NOT PUSH1 0x1F DUP3 ADD AND DUP3 ADD DUP1 PUSH1 0x40 MSTORE POP DUP2 ADD SWAP1 PUSH2 0x53D SWAP2 SWAP1 PUSH2 0xA3F JUMP JUMPDEST PUSH1 0x1 DUP4 ADD SSTORE PUSH1 0x4 DUP3 ADD SSTORE PUSH1 0x2 ADD SSTORE POP JUMP JUMPDEST PUSH1 0x0 DUP1 PUSH1 0x0 DUP1 PUSH1 0x0 DUP1 PUSH1 0x0 PUSH1 0x2 DUP9 DUP2 SLOAD DUP2 LT PUSH2 0x56C JUMPI PUSH2 0x56C PUSH2 0xA58 JUMP JUMPDEST PUSH1 0x0 SWAP2 DUP3 MSTORE PUSH1 0x20 DUP1 DUP4 KECCAK256 SWAP2 SWAP1 SWAP2 ADD SLOAD PUSH1 0x1 PUSH1 0x1 PUSH1 0xA0 SHL SUB AND DUP1 DUP4 MSTORE PUSH1 0x1 SWAP2 DUP3 SWAP1 MSTORE PUSH1 0x40 SWAP1 SWAP3 KECCAK256 SWAP1 DUP2 ADD SLOAD PUSH1 0x2 DUP3 ADD SLOAD PUSH1 0x4 DUP4 ADD SLOAD PUSH1 0x3 SWAP1 SWAP4 ADD SLOAD SWAP4 SWAP14 SWAP2 SWAP13 POP SWAP11 POP PUSH1 0x12 SWAP10 POP SWAP1 SWAP8 POP PUSH1 0xFF SWAP1 SWAP2 AND SWAP6 POP SWAP4 POP POP POP POP JUMP JUMPDEST PUSH1 0x0 DUP2 SGT PUSH2 0x5E2 JUMPI PUSH1 0x40 MLOAD PUSH3 0x461BCD PUSH1 0xE5 SHL DUP2 MSTORE PUSH1 0x4 ADD PUSH2 0x21E SWAP1 PUSH2 0x940 JUMP JUMPDEST PUSH1 0x1 PUSH1 0x1 PUSH1 0xA0 SHL SUB DUP3 AND PUSH1 0x0 SWAP1 DUP2 MSTORE PUSH1 0x1 PUSH1 0x20 MSTORE PUSH1 0x40 SWAP1 KECCAK256 PUSH1 0x3 DUP2 ADD SLOAD PUSH1 0xFF AND PUSH2 0x61E JUMPI PUSH1 0x40 MLOAD PUSH3 0x461BCD PUSH1 0xE5 SHL DUP2 MSTORE PUSH1 0x4 ADD PUSH2 0x21E SWAP1 PUSH2 0x96C JUMP JUMPDEST PUSH1 0x0 DUP2 PUSH1 0x1 ADD SLOAD SGT PUSH2 0x686 JUMPI PUSH1 0x40 MLOAD PUSH3 0x461BCD PUSH1 0xE5 SHL DUP2 MSTORE PUSH1 0x20 PUSH1 0x4 DUP3 ADD MSTORE PUSH1 0x2B PUSH1 0x24 DUP3 ADD MSTORE PUSH32 0x596F75722062616C616E636520666F72207468697320746F6B656E206973206E PUSH1 0x44 DUP3 ADD MSTORE PUSH11 0x6F7420706F736974697665 PUSH1 0xA8 SHL PUSH1 0x64 DUP3 ADD MSTORE PUSH1 0x84 ADD PUSH2 0x21E JUMP JUMPDEST DUP1 PUSH1 0x1 ADD SLOAD DUP3 SGT ISZERO PUSH2 0x6EF JUMPI PUSH1 0x40 MLOAD PUSH3 0x461BCD PUSH1 0xE5 SHL DUP2 MSTORE PUSH1 0x20 PUSH1 0x4 DUP3 ADD MSTORE PUSH1 0x2C PUSH1 0x24 DUP3 ADD MSTORE PUSH32 0x596F75206861766520696E73756666696369656E742062616C616E636520666F PUSH1 0x44 DUP3 ADD MSTORE PUSH12 0x39103A3434B9903A37B5B2B7 PUSH1 0xA1 SHL PUSH1 0x64 DUP3 ADD MSTORE PUSH1 0x84 ADD PUSH2 0x21E JUMP JUMPDEST DUP2 DUP2 PUSH1 0x1 ADD PUSH1 0x0 DUP3 DUP3 SLOAD PUSH2 0x334 SWAP2 SWAP1 PUSH2 0xA6E JUMP JUMPDEST PUSH1 0x0 DUP3 SGT PUSH2 0x723 JUMPI PUSH1 0x40 MLOAD PUSH3 0x461BCD PUSH1 0xE5 SHL DUP2 MSTORE PUSH1 0x4 ADD PUSH2 0x21E SWAP1 PUSH2 0x940 JUMP JUMPDEST PUSH1 0x1 PUSH1 0x1 PUSH1 0xA0 SHL SUB DUP4 AND PUSH1 0x0 SWAP1 DUP2 MSTORE PUSH1 0x1 PUSH1 0x20 MSTORE PUSH1 0x40 SWAP1 KECCAK256 PUSH1 0x3 DUP2 ADD SLOAD PUSH1 0xFF AND ISZERO PUSH2 0x75C JUMPI DUP3 DUP2 PUSH1 0x1 ADD PUSH1 0x0 DUP3 DUP3 SLOAD PUSH2 0x3A1 SWAP2 SWAP1 PUSH2 0xA6E JUMP JUMPDEST PUSH1 0x40 MLOAD DUP1 PUSH1 0xA0 ADD PUSH1 0x40 MSTORE DUP1 DUP6 PUSH1 0x1 PUSH1 0x1 PUSH1 0xA0 SHL SUB AND DUP2 MSTORE PUSH1 0x20 ADD DUP5 PUSH2 0x780 SWAP1 PUSH2 0x9CA JUMP JUMPDEST DUP2 MSTORE PUSH1 0x20 DUP1 DUP3 ADD SWAP5 SWAP1 SWAP5 MSTORE PUSH1 0x1 PUSH1 0x40 DUP1 DUP4 ADD DUP3 SWAP1 MSTORE TIMESTAMP PUSH1 0x60 SWAP4 DUP5 ADD MSTORE PUSH1 0x1 PUSH1 0x1 PUSH1 0xA0 SHL SUB SWAP8 DUP9 AND PUSH1 0x0 DUP2 DUP2 MSTORE DUP4 DUP9 MSTORE DUP3 DUP2 KECCAK256 DUP7 MLOAD DUP2 SLOAD PUSH1 0x1 PUSH1 0x1 PUSH1 0xA0 SHL SUB NOT SWAP1 DUP2 AND SWAP2 SWAP1 SWAP13 AND OR DUP2 SSTORE SWAP8 DUP7 ADD MLOAD DUP9 DUP6 ADD SSTORE SWAP2 DUP6 ADD MLOAD PUSH1 0x2 DUP1 DUP10 ADD SWAP2 SWAP1 SWAP2 SSTORE SWAP4 DUP6 ADD MLOAD PUSH1 0x3 DUP9 ADD DUP1 SLOAD PUSH1 0xFF NOT AND SWAP2 ISZERO ISZERO SWAP2 SWAP1 SWAP2 OR SWAP1 SSTORE PUSH1 0x80 SWAP1 SWAP5 ADD MLOAD PUSH1 0x4 SWAP1 SWAP7 ADD SWAP6 SWAP1 SWAP6 SSTORE DUP2 SLOAD SWAP1 DUP2 ADD DUP3 SSTORE SWAP4 MSTORE PUSH32 0x405787FA12A823E0F2B7631CC41B3BA8828B3321CA811111FA75CD3AA3BB5ACE SWAP1 SWAP3 ADD DUP1 SLOAD SWAP1 SWAP5 AND SWAP1 SWAP2 OR SWAP1 SWAP3 SSTORE POP POP JUMP JUMPDEST PUSH1 0x1 PUSH1 0x1 PUSH1 0xA0 SHL SUB DUP2 AND PUSH1 0x0 SWAP1 DUP2 MSTORE PUSH1 0x1 PUSH1 0x20 MSTORE PUSH1 0x40 SWAP1 KECCAK256 PUSH1 0x3 DUP2 ADD SLOAD PUSH1 0xFF AND DUP1 ISZERO PUSH2 0x870 JUMPI POP PUSH1 0x5 DUP2 PUSH1 0x1 ADD SLOAD SLT JUMPDEST DUP1 ISZERO PUSH2 0x888 JUMPI POP PUSH2 0x881 PUSH1 0x5 PUSH2 0x9CA JUMP JUMPDEST DUP2 PUSH1 0x1 ADD SLOAD SGT JUMPDEST ISZERO PUSH2 0x8A1 JUMPI PUSH1 0x0 PUSH1 0x1 DUP3 ADD SSTORE PUSH1 0x3 DUP2 ADD DUP1 SLOAD PUSH1 0xFF NOT AND SWAP1 SSTORE JUMPDEST POP POP JUMP JUMPDEST DUP1 CALLDATALOAD PUSH1 0x1 PUSH1 0x1 PUSH1 0xA0 SHL SUB DUP2 AND DUP2 EQ PUSH2 0x8BC JUMPI PUSH1 0x0 DUP1 REVERT JUMPDEST SWAP2 SWAP1 POP JUMP JUMPDEST PUSH1 0x0 DUP1 PUSH1 0x40 DUP4 DUP6 SUB SLT ISZERO PUSH2 0x8D4 JUMPI PUSH1 0x0 DUP1 REVERT JUMPDEST PUSH2 0x8DD DUP4 PUSH2 0x8A5 JUMP JUMPDEST SWAP5 PUSH1 0x20 SWAP4 SWAP1 SWAP4 ADD CALLDATALOAD SWAP4 POP POP POP JUMP JUMPDEST PUSH1 0x0 DUP1 PUSH1 0x0 PUSH1 0x60 DUP5 DUP7 SUB SLT ISZERO PUSH2 0x900 JUMPI PUSH1 0x0 DUP1 REVERT JUMPDEST PUSH2 0x909 DUP5 PUSH2 0x8A5 JUMP JUMPDEST SWAP6 PUSH1 0x20 DUP6 ADD CALLDATALOAD SWAP6 POP PUSH1 0x40 SWAP1 SWAP5 ADD CALLDATALOAD SWAP4 SWAP3 POP POP POP JUMP JUMPDEST PUSH1 0x0 PUSH1 0x20 DUP3 DUP5 SUB SLT ISZERO PUSH2 0x930 JUMPI PUSH1 0x0 DUP1 REVERT JUMPDEST PUSH2 0x939 DUP3 PUSH2 0x8A5 JUMP JUMPDEST SWAP4 SWAP3 POP POP POP JUMP JUMPDEST PUSH1 0x20 DUP1 DUP3 MSTORE PUSH1 0x12 SWAP1 DUP3 ADD MSTORE PUSH18 0x416D6F756E74206D757374206265203E203 PUSH1 0x74 SHL PUSH1 0x40 DUP3 ADD MSTORE PUSH1 0x60 ADD SWAP1 JUMP JUMPDEST PUSH1 0x20 DUP1 DUP3 MSTORE PUSH1 0x28 SWAP1 DUP3 ADD MSTORE PUSH32 0x596F7572204C6F616E206163636F756E7420646F65736E277420686176652074 PUSH1 0x40 DUP3 ADD MSTORE PUSH8 0x3434B99031B7B4B7 PUSH1 0xC1 SHL PUSH1 0x60 DUP3 ADD MSTORE PUSH1 0x80 ADD SWAP1 JUMP JUMPDEST PUSH4 0x4E487B71 PUSH1 0xE0 SHL PUSH1 0x0 MSTORE PUSH1 0x11 PUSH1 0x4 MSTORE PUSH1 0x24 PUSH1 0x0 REVERT JUMPDEST PUSH1 0x0 PUSH1 0x1 PUSH1 0xFF SHL DUP3 EQ ISZERO PUSH2 0x9E0 JUMPI PUSH2 0x9E0 PUSH2 0x9B4 JUMP JUMPDEST POP PUSH1 0x0 SUB SWAP1 JUMP JUMPDEST PUSH1 0x0 DUP1 DUP3 SLT DUP1 ISZERO PUSH1 0x1 PUSH1 0x1 PUSH1 0xFF SHL SUB DUP5 SWAP1 SUB DUP6 SGT AND ISZERO PUSH2 0xA09 JUMPI PUSH2 0xA09 PUSH2 0x9B4 JUMP JUMPDEST PUSH1 0x1 PUSH1 0xFF SHL DUP4 SWAP1 SUB DUP5 SLT DUP2 AND ISZERO PUSH2 0xA22 JUMPI PUSH2 0xA22 PUSH2 0x9B4 JUMP JUMPDEST POP POP ADD SWAP1 JUMP JUMPDEST PUSH1 0x0 DUP3 DUP3 LT ISZERO PUSH2 0xA3A JUMPI PUSH2 0xA3A PUSH2 0x9B4 JUMP JUMPDEST POP SUB SWAP1 JUMP JUMPDEST PUSH1 0x0 PUSH1 0x20 DUP3 DUP5 SUB SLT ISZERO PUSH2 0xA51 JUMPI PUSH1 0x0 DUP1 REVERT JUMPDEST POP MLOAD SWAP2 SWAP1 POP JUMP JUMPDEST PUSH4 0x4E487B71 PUSH1 0xE0 SHL PUSH1 0x0 MSTORE PUSH1 0x32 PUSH1 0x4 MSTORE PUSH1 0x24 PUSH1 0x0 REVERT JUMPDEST PUSH1 0x0 DUP1 DUP4 SLT DUP1 ISZERO PUSH1 0x1 PUSH1 0xFF SHL DUP6 ADD DUP5 SLT AND ISZERO PUSH2 0xA8C JUMPI PUSH2 0xA8C PUSH2 0x9B4 JUMP JUMPDEST PUSH1 0x1 PUSH1 0x1 PUSH1 0xFF SHL SUB DUP5 ADD DUP4 SGT DUP2 AND ISZERO PUSH2 0xAA7 JUMPI PUSH2 0xAA7 PUSH2 0x9B4 JUMP JUMPDEST POP POP SUB SWAP1 JUMP INVALID LOG2 PUSH5 0x6970667358 0x22 SLT KECCAK256 0x4B MUL AND PUSH6 0xB30F911A4AF1 GASPRICE PUSH25 0x16AF840918F839798B4EF3E81296B085042DC90964736F6C63 NUMBER STOP ADDMOD SIGNEXTEND STOP CALLER ",
  "sha1": "4f323d5c2af791b1321b15738458336c3a28f288",
  "source": "// SPDX-License-Identifier: MIT\npragma solidity ^0.8.0;\n\nimport \"./ABDKMathQuad.sol\";\nimport \"./PotamusUtils.sol\";\n\ncontract LoanAccount {\n    //If balance is so minute, i.e falls within -epsilon to epsilon\n    //Set the balance to 0\n    int256 constant EPSILON = 5;\n\n    struct Balance {\n        address tokenAddress;\n        int256 balance;\n        uint256 fsecondInterestRate; //interest rate per second\n        bool isExist;\n        uint256 lastInterestRateUpdated;\n    }\n\n    address public userAddress;\n    //Token Address => Balance\n    mapping(address => Balance) balanceMap;\n    //Token Address List\n    address[] tokenAddressList;\n\n    function getTokenListLength() public view returns (uint256) {\n        return tokenAddressList.length;\n    }\n\n    function getTokenBalanceInfo(address _userAddress, uint256 _index)\n        public\n        view\n        returns (\n            address _tokenAddress,\n            int256 _balance,\n            uint256 _secondRate,\n            uint256 _secondRateDecimals,\n            uint256 lastUpdated,\n            bool _isExist\n        )\n    {\n        address tokenAddress = tokenAddressList[_index];\n        return (\n            tokenAddress,\n            balanceMap[tokenAddress].balance,\n            balanceMap[tokenAddress].fsecondInterestRate,\n            PotamusUtils.FLOAT_DECIMALS,\n            balanceMap[tokenAddress].lastInterestRateUpdated,\n            balanceMap[tokenAddress].isExist\n        );\n    }\n\n    //TODO: maybe should make sure that only the main PotamusLoan contract\n    //is able to call this function instead of everyone\n    constructor(address _userAddress) {\n        userAddress = _userAddress;\n    }\n\n    //Recalculate Deposit Balance and Loan Balance for that particular token\n    function recalculateBalance(address _token, uint256 _fSecondInterestRate)\n        public\n    {\n        Balance storage balance = balanceMap[_token];\n        uint256 currentTime = block.timestamp;\n        if (balance.isExist) {\n            balance.balance = PotamusUtils.getNewBalance(\n                balance.balance,\n                balance.fsecondInterestRate, //calculate with the old interest rate\n                currentTime - balance.lastInterestRateUpdated\n            );\n            balance.lastInterestRateUpdated = currentTime;\n            balance.fsecondInterestRate = _fSecondInterestRate;\n        }\n    }\n\n    function tokenBalance(address _token) public view returns (int256) {\n        return balanceMap[_token].balance;\n    }\n\n    function deposit(\n        address _token,\n        int256 _amount,\n        uint256 _fUpdatedSecondInterestRate\n    ) public {\n        require(_amount > 0, \"Amount must be > 0\");\n        //Update the balance\n        Balance storage balance = balanceMap[_token];\n        if (balance.isExist) {\n            balance.balance += _amount;\n        } else {\n            balanceMap[_token] = Balance(\n                _token,\n                _amount,\n                _fUpdatedSecondInterestRate,\n                true,\n                block.timestamp\n            );\n            //Add the address token to list of token\n            tokenAddressList.push(_token);\n        }\n    }\n\n    function withdraw(address _token, int256 _amount) public {\n        require(_amount > 0, \"Amount must be > 0\");\n        //TODO: Oracle: Implement check on how much you can withdraw\n        Balance storage balance = balanceMap[_token];\n        require(balance.isExist, \"Your Loan account doesn't have this coin\");\n        require(\n            balance.balance > 0,\n            \"Your balance for this token is not positive\"\n        );\n        require(\n            _amount <= balance.balance,\n            \"You have insufficient balance for this token\"\n        );\n\n        balance.balance -= _amount;\n\n        //If balance almost zero, remove it\n        removeBalanceIfZero(_token);\n    }\n\n    function loan(\n        address _token,\n        int256 _amount,\n        uint256 _fUpdatedSecondInterestRate\n    ) public {\n        require(_amount > 0, \"Amount must be > 0\");\n        //TODO: Oracle: Implement check on how much you can withdraw\n        Balance storage balance = balanceMap[_token];\n        if (balance.isExist) {\n            balance.balance -= _amount;\n        } else {\n            balanceMap[_token] = Balance(\n                _token,\n                -_amount,\n                _fUpdatedSecondInterestRate,\n                true,\n                block.timestamp\n            );\n            //Add the address token to list of token\n            tokenAddressList.push(_token);\n        }\n    }\n\n    function payback(address _token, int256 _amount) public {\n        require(_amount > 0, \"Amount must be > 0\");\n        Balance storage balance = balanceMap[_token];\n        //TODO: Oracle: Implement check on how much you can withdraw\n        require(balance.isExist, \"Your Loan account doesn't have this coin\");\n        require(balance.balance < 0, \"You don't owe any for this token\");\n        require(\n            _amount <= -balance.balance,\n            \"You are overpaying for what you owe\"\n        );\n        balance.balance += _amount;\n\n        //If balance almost zero, remove it\n        removeBalanceIfZero(_token);\n    }\n\n    function removeBalanceIfZero(address _token) private {\n        Balance storage balance = balanceMap[_token];\n        if (\n            balance.isExist &&\n            balance.balance < EPSILON &&\n            balance.balance > -EPSILON\n        ) {\n            balance.balance = 0;\n            balance.isExist = false;\n        }\n    }\n\n    function hasDepositOrLoan(address _token) public view returns (bool) {\n        //Return trues if the user deposit or loan in this token\n        return balanceMap[_token].isExist;\n    }\n}\n",
  "sourcePath": "contracts/LoanAccount.sol",
  "type": "contract"
}