{
  "abi": [
    {
      "inputs": [
        {
          "internalType": "address",
          "name": "_token",
          "type": "address"
        }
      ],
      "stateMutability": "nonpayable",
      "type": "constructor"
    },
    {
      "inputs": [
        {
          "internalType": "address",
          "name": "_loanAccountAddress",
          "type": "address"
        }
      ],
      "name": "addLoanAccount",
      "outputs": [],
      "stateMutability": "nonpayable",
      "type": "function"
    },
    {
      "inputs": [],
      "name": "availableFund",
      "outputs": [
        {
          "internalType": "uint256",
          "name": "",
          "type": "uint256"
        }
      ],
      "stateMutability": "view",
      "type": "function"
    },
    {
      "inputs": [
        {
          "internalType": "int256",
          "name": "_depositBalanceAdjustment",
          "type": "int256"
        },
        {
          "internalType": "int256",
          "name": "_loanBalanceAdjustment",
          "type": "int256"
        }
      ],
      "name": "deposit",
      "outputs": [],
      "stateMutability": "nonpayable",
      "type": "function"
    },
    {
      "inputs": [],
      "name": "depositBalance",
      "outputs": [
        {
          "internalType": "uint256",
          "name": "",
          "type": "uint256"
        }
      ],
      "stateMutability": "view",
      "type": "function"
    },
    {
      "inputs": [],
      "name": "fAnnualInteretRate",
      "outputs": [
        {
          "internalType": "uint256",
          "name": "",
          "type": "uint256"
        }
      ],
      "stateMutability": "view",
      "type": "function"
    },
    {
      "inputs": [],
      "name": "fSecondInterestRate",
      "outputs": [
        {
          "internalType": "uint256",
          "name": "",
          "type": "uint256"
        }
      ],
      "stateMutability": "view",
      "type": "function"
    },
    {
      "inputs": [
        {
          "internalType": "address",
          "name": "_loanAccountAddress",
          "type": "address"
        }
      ],
      "name": "isContain",
      "outputs": [
        {
          "internalType": "bool",
          "name": "",
          "type": "bool"
        }
      ],
      "stateMutability": "view",
      "type": "function"
    },
    {
      "inputs": [
        {
          "internalType": "address",
          "name": "_userAddress",
          "type": "address"
        },
        {
          "internalType": "uint256",
          "name": "_amount",
          "type": "uint256"
        },
        {
          "internalType": "int256",
          "name": "_depositBalanceAdjustment",
          "type": "int256"
        },
        {
          "internalType": "int256",
          "name": "_loanBalanceAdjustment",
          "type": "int256"
        }
      ],
      "name": "loan",
      "outputs": [],
      "stateMutability": "nonpayable",
      "type": "function"
    },
    {
      "inputs": [],
      "name": "loanBalance",
      "outputs": [
        {
          "internalType": "uint256",
          "name": "",
          "type": "uint256"
        }
      ],
      "stateMutability": "view",
      "type": "function"
    },
    {
      "inputs": [
        {
          "internalType": "uint256",
          "name": "_amount",
          "type": "uint256"
        }
      ],
      "name": "payback",
      "outputs": [],
      "stateMutability": "nonpayable",
      "type": "function"
    },
    {
      "inputs": [
        {
          "internalType": "address",
          "name": "_loanAccountAddress",
          "type": "address"
        }
      ],
      "name": "removeLoanAccount",
      "outputs": [],
      "stateMutability": "nonpayable",
      "type": "function"
    },
    {
      "inputs": [],
      "name": "tokenAddress",
      "outputs": [
        {
          "internalType": "address",
          "name": "",
          "type": "address"
        }
      ],
      "stateMutability": "view",
      "type": "function"
    },
    {
      "inputs": [
        {
          "internalType": "address",
          "name": "_userAddress",
          "type": "address"
        },
        {
          "internalType": "uint256",
          "name": "_amount",
          "type": "uint256"
        }
      ],
      "name": "withdraw",
      "outputs": [],
      "stateMutability": "nonpayable",
      "type": "function"
    }
  ],
  "bytecode": "6080604052600a6200001360128262000204565b6200002090600262000219565b6200002c91906200023b565b600055600a6200003e60128262000204565b6200004b90601462000219565b6200005791906200023b565b600155600a6200006960128262000204565b6200007690600862000219565b6200008291906200023b565b6002556000600455600060055560006006556000600755348015620000a657600080fd5b5060405162000da538038062000da5833981016040819052620000c9916200025e565b600380546001600160a01b0319166001600160a01b039290921691909117905562000289565b634e487b7160e01b600052601160045260246000fd5b600181815b80851115620001465781600019048211156200012a576200012a620000ef565b808516156200013857918102915b93841c93908002906200010a565b509250929050565b6000826200015f57506001620001fe565b816200016e57506000620001fe565b81600181146200018757600281146200019257620001b2565b6001915050620001fe565b60ff841115620001a657620001a6620000ef565b50506001821b620001fe565b5060208310610133831016604e8410600b8410161715620001d7575081810a620001fe565b620001e3838362000105565b8060001904821115620001fa57620001fa620000ef565b0290505b92915050565b60006200021283836200014e565b9392505050565b6000816000190483118215151615620002365762000236620000ef565b500290565b6000826200025957634e487b7160e01b600052601260045260246000fd5b500490565b6000602082840312156200027157600080fd5b81516001600160a01b03811681146200021257600080fd5b610b0c80620002996000396000f3fe608060405234801561001057600080fd5b50600436106100cf5760003560e01c80639d76ea581161008c578063d0cb3cd111610066578063d0cb3cd1146101b7578063d6c3d994146101bf578063d9ed2685146101c8578063f3fef3a3146101db57600080fd5b80639d76ea5814610166578063a846c2fd14610191578063ad0429cc146101a457600080fd5b80631bf05579146100d457806334a501c7146100f057806334b3c50f1461010557806361bc1a49146101185780637c7dc0941461012157806388adcac11461015d575b600080fd5b6100dd60055481565b6040519081526020015b60405180910390f35b6101036100fe3660046108e9565b6101ee565b005b610103610113366004610927565b61021c565b6100dd60045481565b61014d61012f366004610927565b6001600160a01b031660009081526009602052604090205460ff1690565b60405190151581526020016100e7565b6100dd60065481565b600354610179906001600160a01b031681565b6040516001600160a01b0390911681526020016100e7565b61010361019f366004610949565b6102ef565b6101036101b2366004610962565b61030f565b6100dd6104bd565b6100dd60075481565b6101036101d6366004610927565b6104d4565b6101036101e936600461099b565b610562565b816004546101fc91906109db565b60045560055461020d9082906109db565b6005556102186106fb565b5050565b604051631f1f702560e21b81526001600160a01b03821660048201523090637c7dc09490602401602060405180830381865afa158015610260573d6000803e3d6000fd5b505050506040513d601f19601f820116820180604052508101906102849190610a1c565b6102ec576008805460018082019092557ff3f7a9fe364faab93b216da50a3214154f22a0a2b415b23a84c8169e8b636ee30180546001600160a01b0319166001600160a01b0384169081179091556000908152600960205260409020805460ff191690911790555b50565b80600560008282546103019190610a3e565b909155506102ec90506106fb565b6003546040516370a0823160e01b81523060048201528591859182916001600160a01b0316906370a0823190602401602060405180830381865afa15801561035b573d6000803e3d6000fd5b505050506040513d601f19601f8201168201806040525081019061037f9190610a55565b10156103a65760405162461bcd60e51b815260040161039d90610a6e565b60405180910390fd5b806103af6104bd565b10156103cd5760405162461bcd60e51b815260040161039d90610a6e565b60035460405163a9059cbb60e01b81526001600160a01b038481166004830152602482018490529091169063a9059cbb906044016020604051808303816000875af1158015610420573d6000803e3d6000fd5b505050506040513d601f19601f820116820180604052508101906104449190610a1c565b61048b5760405162461bcd60e51b8152602060048201526018602482015277151c985b9cd9995c881bd9881d1bdad95b8819985a5b195960421b604482015260640161039d565b8360045461049991906109db565b6004556005546104aa9084906109db565b6005556104b56106fb565b505050505050565b60006005546004546104cf9190610a3e565b905090565b604051631f1f702560e21b81526001600160a01b03821660048201523090637c7dc09490602401602060405180830381865afa158015610518573d6000803e3d6000fd5b505050506040513d601f19601f8201168201806040525081019061053c9190610a1c565b156102ec576001600160a01b03166000908152600960205260409020805460ff19169055565b6003546040516370a0823160e01b81523060048201528391839182916001600160a01b0316906370a0823190602401602060405180830381865afa1580156105ae573d6000803e3d6000fd5b505050506040513d601f19601f820116820180604052508101906105d29190610a55565b10156105f05760405162461bcd60e51b815260040161039d90610a6e565b806105f96104bd565b10156106175760405162461bcd60e51b815260040161039d90610a6e565b60035460405163a9059cbb60e01b81526001600160a01b038481166004830152602482018490529091169063a9059cbb906044016020604051808303816000875af115801561066a573d6000803e3d6000fd5b505050506040513d601f19601f8201168201806040525081019061068e9190610a1c565b6106d55760405162461bcd60e51b8152602060048201526018602482015277151c985b9cd9995c881bd9881d1bdad95b8819985a5b195960421b604482015260640161039d565b82600460008282546106e79190610a3e565b909155506106f590506106fb565b50505050565b60055460048054600254600054600154604051636bed508b60e11b815294850195909552602484019290925260448301526064820152608481019190915273__PotamusUtils__________________________9063d7daa1169060a401602060405180830381865af4158015610775573d6000803e3d6000fd5b505050506040513d601f19601f820116820180604052508101906107999190610a55565b60078190556040516311bb7e4960e31b8152600481019190915273__PotamusUtils__________________________90638ddbf24890602401602060405180830381865af41580156107ef573d6000803e3d6000fd5b505050506040513d601f19601f820116820180604052508101906108139190610a55565b60065560005b6008548110156102ec5760006008600001828154811061083b5761083b610aa5565b60009182526020808320909101546001600160a01b0316808352600990915260409091205490915060ff16156108d657600354600654604051631395702760e01b81526001600160a01b039283166004820152602481019190915290821690631395702790604401600060405180830381600087803b1580156108bd57600080fd5b505af11580156108d1573d6000803e3d6000fd5b505050505b50806108e181610abb565b915050610819565b600080604083850312156108fc57600080fd5b50508035926020909101359150565b80356001600160a01b038116811461092257600080fd5b919050565b60006020828403121561093957600080fd5b6109428261090b565b9392505050565b60006020828403121561095b57600080fd5b5035919050565b6000806000806080858703121561097857600080fd5b6109818561090b565b966020860135965060408601359560600135945092505050565b600080604083850312156109ae57600080fd5b6109b78361090b565b946020939093013593505050565b634e487b7160e01b600052601160045260246000fd5b600080821280156001600160ff1b03849003851316156109fd576109fd6109c5565b600160ff1b8390038412811615610a1657610a166109c5565b50500190565b600060208284031215610a2e57600080fd5b8151801515811461094257600080fd5b600082821015610a5057610a506109c5565b500390565b600060208284031215610a6757600080fd5b5051919050565b6020808252601a908201527f506f6f6c2068617320696e73756666696369656e742066756e64000000000000604082015260600190565b634e487b7160e01b600052603260045260246000fd5b6000600019821415610acf57610acf6109c5565b506001019056fea2646970667358221220f259c00a9132aaba692ee69529cbfe611361c5d2ef00e9893b5f12d831511df764736f6c634300080b0033",
  "bytecodeSha1": "e1b99b2b5fd1a2dc9278dd63d009ff3c828fa34d",
  "compiler": {
    "evm_version": "istanbul",
    "optimizer": {
      "enabled": true,
      "runs": 200
    },
    "version": "0.8.11+commit.d7f03943"
  },
  "contractName": "LoanPool",
  "deployedBytecode": "608060405234801561001057600080fd5b50600436106100cf5760003560e01c80639d76ea581161008c578063d0cb3cd111610066578063d0cb3cd1146101b7578063d6c3d994146101bf578063d9ed2685146101c8578063f3fef3a3146101db57600080fd5b80639d76ea5814610166578063a846c2fd14610191578063ad0429cc146101a457600080fd5b80631bf05579146100d457806334a501c7146100f057806334b3c50f1461010557806361bc1a49146101185780637c7dc0941461012157806388adcac11461015d575b600080fd5b6100dd60055481565b6040519081526020015b60405180910390f35b6101036100fe3660046108e9565b6101ee565b005b610103610113366004610927565b61021c565b6100dd60045481565b61014d61012f366004610927565b6001600160a01b031660009081526009602052604090205460ff1690565b60405190151581526020016100e7565b6100dd60065481565b600354610179906001600160a01b031681565b6040516001600160a01b0390911681526020016100e7565b61010361019f366004610949565b6102ef565b6101036101b2366004610962565b61030f565b6100dd6104bd565b6100dd60075481565b6101036101d6366004610927565b6104d4565b6101036101e936600461099b565b610562565b816004546101fc91906109db565b60045560055461020d9082906109db565b6005556102186106fb565b5050565b604051631f1f702560e21b81526001600160a01b03821660048201523090637c7dc09490602401602060405180830381865afa158015610260573d6000803e3d6000fd5b505050506040513d601f19601f820116820180604052508101906102849190610a1c565b6102ec576008805460018082019092557ff3f7a9fe364faab93b216da50a3214154f22a0a2b415b23a84c8169e8b636ee30180546001600160a01b0319166001600160a01b0384169081179091556000908152600960205260409020805460ff191690911790555b50565b80600560008282546103019190610a3e565b909155506102ec90506106fb565b6003546040516370a0823160e01b81523060048201528591859182916001600160a01b0316906370a0823190602401602060405180830381865afa15801561035b573d6000803e3d6000fd5b505050506040513d601f19601f8201168201806040525081019061037f9190610a55565b10156103a65760405162461bcd60e51b815260040161039d90610a6e565b60405180910390fd5b806103af6104bd565b10156103cd5760405162461bcd60e51b815260040161039d90610a6e565b60035460405163a9059cbb60e01b81526001600160a01b038481166004830152602482018490529091169063a9059cbb906044016020604051808303816000875af1158015610420573d6000803e3d6000fd5b505050506040513d601f19601f820116820180604052508101906104449190610a1c565b61048b5760405162461bcd60e51b8152602060048201526018602482015277151c985b9cd9995c881bd9881d1bdad95b8819985a5b195960421b604482015260640161039d565b8360045461049991906109db565b6004556005546104aa9084906109db565b6005556104b56106fb565b505050505050565b60006005546004546104cf9190610a3e565b905090565b604051631f1f702560e21b81526001600160a01b03821660048201523090637c7dc09490602401602060405180830381865afa158015610518573d6000803e3d6000fd5b505050506040513d601f19601f8201168201806040525081019061053c9190610a1c565b156102ec576001600160a01b03166000908152600960205260409020805460ff19169055565b6003546040516370a0823160e01b81523060048201528391839182916001600160a01b0316906370a0823190602401602060405180830381865afa1580156105ae573d6000803e3d6000fd5b505050506040513d601f19601f820116820180604052508101906105d29190610a55565b10156105f05760405162461bcd60e51b815260040161039d90610a6e565b806105f96104bd565b10156106175760405162461bcd60e51b815260040161039d90610a6e565b60035460405163a9059cbb60e01b81526001600160a01b038481166004830152602482018490529091169063a9059cbb906044016020604051808303816000875af115801561066a573d6000803e3d6000fd5b505050506040513d601f19601f8201168201806040525081019061068e9190610a1c565b6106d55760405162461bcd60e51b8152602060048201526018602482015277151c985b9cd9995c881bd9881d1bdad95b8819985a5b195960421b604482015260640161039d565b82600460008282546106e79190610a3e565b909155506106f590506106fb565b50505050565b60055460048054600254600054600154604051636bed508b60e11b815294850195909552602484019290925260448301526064820152608481019190915273__$399c488f34e53de4c155d62f7f1a443bc7$__9063d7daa1169060a401602060405180830381865af4158015610775573d6000803e3d6000fd5b505050506040513d601f19601f820116820180604052508101906107999190610a55565b60078190556040516311bb7e4960e31b8152600481019190915273__$399c488f34e53de4c155d62f7f1a443bc7$__90638ddbf24890602401602060405180830381865af41580156107ef573d6000803e3d6000fd5b505050506040513d601f19601f820116820180604052508101906108139190610a55565b60065560005b6008548110156102ec5760006008600001828154811061083b5761083b610aa5565b60009182526020808320909101546001600160a01b0316808352600990915260409091205490915060ff16156108d657600354600654604051631395702760e01b81526001600160a01b039283166004820152602481019190915290821690631395702790604401600060405180830381600087803b1580156108bd57600080fd5b505af11580156108d1573d6000803e3d6000fd5b505050505b50806108e181610abb565b915050610819565b600080604083850312156108fc57600080fd5b50508035926020909101359150565b80356001600160a01b038116811461092257600080fd5b919050565b60006020828403121561093957600080fd5b6109428261090b565b9392505050565b60006020828403121561095b57600080fd5b5035919050565b6000806000806080858703121561097857600080fd5b6109818561090b565b966020860135965060408601359560600135945092505050565b600080604083850312156109ae57600080fd5b6109b78361090b565b946020939093013593505050565b634e487b7160e01b600052601160045260246000fd5b600080821280156001600160ff1b03849003851316156109fd576109fd6109c5565b600160ff1b8390038412811615610a1657610a166109c5565b50500190565b600060208284031215610a2e57600080fd5b8151801515811461094257600080fd5b600082821015610a5057610a506109c5565b500390565b600060208284031215610a6757600080fd5b5051919050565b6020808252601a908201527f506f6f6c2068617320696e73756666696369656e742066756e64000000000000604082015260600190565b634e487b7160e01b600052603260045260246000fd5b6000600019821415610acf57610acf6109c5565b506001019056fea2646970667358221220f259c00a9132aaba692ee69529cbfe611361c5d2ef00e9893b5f12d831511df764736f6c634300080b0033",
  "language": "Solidity",
  "natspec": {
    "kind": "dev",
    "methods": {},
    "version": 1
  },
  "opcodes": "PUSH1 0x80 PUSH1 0x40 MSTORE CALLVALUE DUP1 ISZERO PUSH2 0x10 JUMPI PUSH1 0x0 DUP1 REVERT JUMPDEST POP PUSH1 0x4 CALLDATASIZE LT PUSH2 0xCF JUMPI PUSH1 0x0 CALLDATALOAD PUSH1 0xE0 SHR DUP1 PUSH4 0x9D76EA58 GT PUSH2 0x8C JUMPI DUP1 PUSH4 0xD0CB3CD1 GT PUSH2 0x66 JUMPI DUP1 PUSH4 0xD0CB3CD1 EQ PUSH2 0x1B7 JUMPI DUP1 PUSH4 0xD6C3D994 EQ PUSH2 0x1BF JUMPI DUP1 PUSH4 0xD9ED2685 EQ PUSH2 0x1C8 JUMPI DUP1 PUSH4 0xF3FEF3A3 EQ PUSH2 0x1DB JUMPI PUSH1 0x0 DUP1 REVERT JUMPDEST DUP1 PUSH4 0x9D76EA58 EQ PUSH2 0x166 JUMPI DUP1 PUSH4 0xA846C2FD EQ PUSH2 0x191 JUMPI DUP1 PUSH4 0xAD0429CC EQ PUSH2 0x1A4 JUMPI PUSH1 0x0 DUP1 REVERT JUMPDEST DUP1 PUSH4 0x1BF05579 EQ PUSH2 0xD4 JUMPI DUP1 PUSH4 0x34A501C7 EQ PUSH2 0xF0 JUMPI DUP1 PUSH4 0x34B3C50F EQ PUSH2 0x105 JUMPI DUP1 PUSH4 0x61BC1A49 EQ PUSH2 0x118 JUMPI DUP1 PUSH4 0x7C7DC094 EQ PUSH2 0x121 JUMPI DUP1 PUSH4 0x88ADCAC1 EQ PUSH2 0x15D JUMPI JUMPDEST PUSH1 0x0 DUP1 REVERT JUMPDEST PUSH2 0xDD PUSH1 0x5 SLOAD DUP2 JUMP JUMPDEST PUSH1 0x40 MLOAD SWAP1 DUP2 MSTORE PUSH1 0x20 ADD JUMPDEST PUSH1 0x40 MLOAD DUP1 SWAP2 SUB SWAP1 RETURN JUMPDEST PUSH2 0x103 PUSH2 0xFE CALLDATASIZE PUSH1 0x4 PUSH2 0x8E9 JUMP JUMPDEST PUSH2 0x1EE JUMP JUMPDEST STOP JUMPDEST PUSH2 0x103 PUSH2 0x113 CALLDATASIZE PUSH1 0x4 PUSH2 0x927 JUMP JUMPDEST PUSH2 0x21C JUMP JUMPDEST PUSH2 0xDD PUSH1 0x4 SLOAD DUP2 JUMP JUMPDEST PUSH2 0x14D PUSH2 0x12F CALLDATASIZE PUSH1 0x4 PUSH2 0x927 JUMP JUMPDEST PUSH1 0x1 PUSH1 0x1 PUSH1 0xA0 SHL SUB AND PUSH1 0x0 SWAP1 DUP2 MSTORE PUSH1 0x9 PUSH1 0x20 MSTORE PUSH1 0x40 SWAP1 KECCAK256 SLOAD PUSH1 0xFF AND SWAP1 JUMP JUMPDEST PUSH1 0x40 MLOAD SWAP1 ISZERO ISZERO DUP2 MSTORE PUSH1 0x20 ADD PUSH2 0xE7 JUMP JUMPDEST PUSH2 0xDD PUSH1 0x6 SLOAD DUP2 JUMP JUMPDEST PUSH1 0x3 SLOAD PUSH2 0x179 SWAP1 PUSH1 0x1 PUSH1 0x1 PUSH1 0xA0 SHL SUB AND DUP2 JUMP JUMPDEST PUSH1 0x40 MLOAD PUSH1 0x1 PUSH1 0x1 PUSH1 0xA0 SHL SUB SWAP1 SWAP2 AND DUP2 MSTORE PUSH1 0x20 ADD PUSH2 0xE7 JUMP JUMPDEST PUSH2 0x103 PUSH2 0x19F CALLDATASIZE PUSH1 0x4 PUSH2 0x949 JUMP JUMPDEST PUSH2 0x2EF JUMP JUMPDEST PUSH2 0x103 PUSH2 0x1B2 CALLDATASIZE PUSH1 0x4 PUSH2 0x962 JUMP JUMPDEST PUSH2 0x30F JUMP JUMPDEST PUSH2 0xDD PUSH2 0x4BD JUMP JUMPDEST PUSH2 0xDD PUSH1 0x7 SLOAD DUP2 JUMP JUMPDEST PUSH2 0x103 PUSH2 0x1D6 CALLDATASIZE PUSH1 0x4 PUSH2 0x927 JUMP JUMPDEST PUSH2 0x4D4 JUMP JUMPDEST PUSH2 0x103 PUSH2 0x1E9 CALLDATASIZE PUSH1 0x4 PUSH2 0x99B JUMP JUMPDEST PUSH2 0x562 JUMP JUMPDEST DUP2 PUSH1 0x4 SLOAD PUSH2 0x1FC SWAP2 SWAP1 PUSH2 0x9DB JUMP JUMPDEST PUSH1 0x4 SSTORE PUSH1 0x5 SLOAD PUSH2 0x20D SWAP1 DUP3 SWAP1 PUSH2 0x9DB JUMP JUMPDEST PUSH1 0x5 SSTORE PUSH2 0x218 PUSH2 0x6FB JUMP JUMPDEST POP POP JUMP JUMPDEST PUSH1 0x40 MLOAD PUSH4 0x1F1F7025 PUSH1 0xE2 SHL DUP2 MSTORE PUSH1 0x1 PUSH1 0x1 PUSH1 0xA0 SHL SUB DUP3 AND PUSH1 0x4 DUP3 ADD MSTORE ADDRESS SWAP1 PUSH4 0x7C7DC094 SWAP1 PUSH1 0x24 ADD PUSH1 0x20 PUSH1 0x40 MLOAD DUP1 DUP4 SUB DUP2 DUP7 GAS STATICCALL ISZERO DUP1 ISZERO PUSH2 0x260 JUMPI RETURNDATASIZE PUSH1 0x0 DUP1 RETURNDATACOPY RETURNDATASIZE PUSH1 0x0 REVERT JUMPDEST POP POP POP POP PUSH1 0x40 MLOAD RETURNDATASIZE PUSH1 0x1F NOT PUSH1 0x1F DUP3 ADD AND DUP3 ADD DUP1 PUSH1 0x40 MSTORE POP DUP2 ADD SWAP1 PUSH2 0x284 SWAP2 SWAP1 PUSH2 0xA1C JUMP JUMPDEST PUSH2 0x2EC JUMPI PUSH1 0x8 DUP1 SLOAD PUSH1 0x1 DUP1 DUP3 ADD SWAP1 SWAP3 SSTORE PUSH32 0xF3F7A9FE364FAAB93B216DA50A3214154F22A0A2B415B23A84C8169E8B636EE3 ADD DUP1 SLOAD PUSH1 0x1 PUSH1 0x1 PUSH1 0xA0 SHL SUB NOT AND PUSH1 0x1 PUSH1 0x1 PUSH1 0xA0 SHL SUB DUP5 AND SWAP1 DUP2 OR SWAP1 SWAP2 SSTORE PUSH1 0x0 SWAP1 DUP2 MSTORE PUSH1 0x9 PUSH1 0x20 MSTORE PUSH1 0x40 SWAP1 KECCAK256 DUP1 SLOAD PUSH1 0xFF NOT AND SWAP1 SWAP2 OR SWAP1 SSTORE JUMPDEST POP JUMP JUMPDEST DUP1 PUSH1 0x5 PUSH1 0x0 DUP3 DUP3 SLOAD PUSH2 0x301 SWAP2 SWAP1 PUSH2 0xA3E JUMP JUMPDEST SWAP1 SWAP2 SSTORE POP PUSH2 0x2EC SWAP1 POP PUSH2 0x6FB JUMP JUMPDEST PUSH1 0x3 SLOAD PUSH1 0x40 MLOAD PUSH4 0x70A08231 PUSH1 0xE0 SHL DUP2 MSTORE ADDRESS PUSH1 0x4 DUP3 ADD MSTORE DUP6 SWAP2 DUP6 SWAP2 DUP3 SWAP2 PUSH1 0x1 PUSH1 0x1 PUSH1 0xA0 SHL SUB AND SWAP1 PUSH4 0x70A08231 SWAP1 PUSH1 0x24 ADD PUSH1 0x20 PUSH1 0x40 MLOAD DUP1 DUP4 SUB DUP2 DUP7 GAS STATICCALL ISZERO DUP1 ISZERO PUSH2 0x35B JUMPI RETURNDATASIZE PUSH1 0x0 DUP1 RETURNDATACOPY RETURNDATASIZE PUSH1 0x0 REVERT JUMPDEST POP POP POP POP PUSH1 0x40 MLOAD RETURNDATASIZE PUSH1 0x1F NOT PUSH1 0x1F DUP3 ADD AND DUP3 ADD DUP1 PUSH1 0x40 MSTORE POP DUP2 ADD SWAP1 PUSH2 0x37F SWAP2 SWAP1 PUSH2 0xA55 JUMP JUMPDEST LT ISZERO PUSH2 0x3A6 JUMPI PUSH1 0x40 MLOAD PUSH3 0x461BCD PUSH1 0xE5 SHL DUP2 MSTORE PUSH1 0x4 ADD PUSH2 0x39D SWAP1 PUSH2 0xA6E JUMP JUMPDEST PUSH1 0x40 MLOAD DUP1 SWAP2 SUB SWAP1 REVERT JUMPDEST DUP1 PUSH2 0x3AF PUSH2 0x4BD JUMP JUMPDEST LT ISZERO PUSH2 0x3CD JUMPI PUSH1 0x40 MLOAD PUSH3 0x461BCD PUSH1 0xE5 SHL DUP2 MSTORE PUSH1 0x4 ADD PUSH2 0x39D SWAP1 PUSH2 0xA6E JUMP JUMPDEST PUSH1 0x3 SLOAD PUSH1 0x40 MLOAD PUSH4 0xA9059CBB PUSH1 0xE0 SHL DUP2 MSTORE PUSH1 0x1 PUSH1 0x1 PUSH1 0xA0 SHL SUB DUP5 DUP2 AND PUSH1 0x4 DUP4 ADD MSTORE PUSH1 0x24 DUP3 ADD DUP5 SWAP1 MSTORE SWAP1 SWAP2 AND SWAP1 PUSH4 0xA9059CBB SWAP1 PUSH1 0x44 ADD PUSH1 0x20 PUSH1 0x40 MLOAD DUP1 DUP4 SUB DUP2 PUSH1 0x0 DUP8 GAS CALL ISZERO DUP1 ISZERO PUSH2 0x420 JUMPI RETURNDATASIZE PUSH1 0x0 DUP1 RETURNDATACOPY RETURNDATASIZE PUSH1 0x0 REVERT JUMPDEST POP POP POP POP PUSH1 0x40 MLOAD RETURNDATASIZE PUSH1 0x1F NOT PUSH1 0x1F DUP3 ADD AND DUP3 ADD DUP1 PUSH1 0x40 MSTORE POP DUP2 ADD SWAP1 PUSH2 0x444 SWAP2 SWAP1 PUSH2 0xA1C JUMP JUMPDEST PUSH2 0x48B JUMPI PUSH1 0x40 MLOAD PUSH3 0x461BCD PUSH1 0xE5 SHL DUP2 MSTORE PUSH1 0x20 PUSH1 0x4 DUP3 ADD MSTORE PUSH1 0x18 PUSH1 0x24 DUP3 ADD MSTORE PUSH24 0x151C985B9CD9995C881BD9881D1BDAD95B8819985A5B1959 PUSH1 0x42 SHL PUSH1 0x44 DUP3 ADD MSTORE PUSH1 0x64 ADD PUSH2 0x39D JUMP JUMPDEST DUP4 PUSH1 0x4 SLOAD PUSH2 0x499 SWAP2 SWAP1 PUSH2 0x9DB JUMP JUMPDEST PUSH1 0x4 SSTORE PUSH1 0x5 SLOAD PUSH2 0x4AA SWAP1 DUP5 SWAP1 PUSH2 0x9DB JUMP JUMPDEST PUSH1 0x5 SSTORE PUSH2 0x4B5 PUSH2 0x6FB JUMP JUMPDEST POP POP POP POP POP POP JUMP JUMPDEST PUSH1 0x0 PUSH1 0x5 SLOAD PUSH1 0x4 SLOAD PUSH2 0x4CF SWAP2 SWAP1 PUSH2 0xA3E JUMP JUMPDEST SWAP1 POP SWAP1 JUMP JUMPDEST PUSH1 0x40 MLOAD PUSH4 0x1F1F7025 PUSH1 0xE2 SHL DUP2 MSTORE PUSH1 0x1 PUSH1 0x1 PUSH1 0xA0 SHL SUB DUP3 AND PUSH1 0x4 DUP3 ADD MSTORE ADDRESS SWAP1 PUSH4 0x7C7DC094 SWAP1 PUSH1 0x24 ADD PUSH1 0x20 PUSH1 0x40 MLOAD DUP1 DUP4 SUB DUP2 DUP7 GAS STATICCALL ISZERO DUP1 ISZERO PUSH2 0x518 JUMPI RETURNDATASIZE PUSH1 0x0 DUP1 RETURNDATACOPY RETURNDATASIZE PUSH1 0x0 REVERT JUMPDEST POP POP POP POP PUSH1 0x40 MLOAD RETURNDATASIZE PUSH1 0x1F NOT PUSH1 0x1F DUP3 ADD AND DUP3 ADD DUP1 PUSH1 0x40 MSTORE POP DUP2 ADD SWAP1 PUSH2 0x53C SWAP2 SWAP1 PUSH2 0xA1C JUMP JUMPDEST ISZERO PUSH2 0x2EC JUMPI PUSH1 0x1 PUSH1 0x1 PUSH1 0xA0 SHL SUB AND PUSH1 0x0 SWAP1 DUP2 MSTORE PUSH1 0x9 PUSH1 0x20 MSTORE PUSH1 0x40 SWAP1 KECCAK256 DUP1 SLOAD PUSH1 0xFF NOT AND SWAP1 SSTORE JUMP JUMPDEST PUSH1 0x3 SLOAD PUSH1 0x40 MLOAD PUSH4 0x70A08231 PUSH1 0xE0 SHL DUP2 MSTORE ADDRESS PUSH1 0x4 DUP3 ADD MSTORE DUP4 SWAP2 DUP4 SWAP2 DUP3 SWAP2 PUSH1 0x1 PUSH1 0x1 PUSH1 0xA0 SHL SUB AND SWAP1 PUSH4 0x70A08231 SWAP1 PUSH1 0x24 ADD PUSH1 0x20 PUSH1 0x40 MLOAD DUP1 DUP4 SUB DUP2 DUP7 GAS STATICCALL ISZERO DUP1 ISZERO PUSH2 0x5AE JUMPI RETURNDATASIZE PUSH1 0x0 DUP1 RETURNDATACOPY RETURNDATASIZE PUSH1 0x0 REVERT JUMPDEST POP POP POP POP PUSH1 0x40 MLOAD RETURNDATASIZE PUSH1 0x1F NOT PUSH1 0x1F DUP3 ADD AND DUP3 ADD DUP1 PUSH1 0x40 MSTORE POP DUP2 ADD SWAP1 PUSH2 0x5D2 SWAP2 SWAP1 PUSH2 0xA55 JUMP JUMPDEST LT ISZERO PUSH2 0x5F0 JUMPI PUSH1 0x40 MLOAD PUSH3 0x461BCD PUSH1 0xE5 SHL DUP2 MSTORE PUSH1 0x4 ADD PUSH2 0x39D SWAP1 PUSH2 0xA6E JUMP JUMPDEST DUP1 PUSH2 0x5F9 PUSH2 0x4BD JUMP JUMPDEST LT ISZERO PUSH2 0x617 JUMPI PUSH1 0x40 MLOAD PUSH3 0x461BCD PUSH1 0xE5 SHL DUP2 MSTORE PUSH1 0x4 ADD PUSH2 0x39D SWAP1 PUSH2 0xA6E JUMP JUMPDEST PUSH1 0x3 SLOAD PUSH1 0x40 MLOAD PUSH4 0xA9059CBB PUSH1 0xE0 SHL DUP2 MSTORE PUSH1 0x1 PUSH1 0x1 PUSH1 0xA0 SHL SUB DUP5 DUP2 AND PUSH1 0x4 DUP4 ADD MSTORE PUSH1 0x24 DUP3 ADD DUP5 SWAP1 MSTORE SWAP1 SWAP2 AND SWAP1 PUSH4 0xA9059CBB SWAP1 PUSH1 0x44 ADD PUSH1 0x20 PUSH1 0x40 MLOAD DUP1 DUP4 SUB DUP2 PUSH1 0x0 DUP8 GAS CALL ISZERO DUP1 ISZERO PUSH2 0x66A JUMPI RETURNDATASIZE PUSH1 0x0 DUP1 RETURNDATACOPY RETURNDATASIZE PUSH1 0x0 REVERT JUMPDEST POP POP POP POP PUSH1 0x40 MLOAD RETURNDATASIZE PUSH1 0x1F NOT PUSH1 0x1F DUP3 ADD AND DUP3 ADD DUP1 PUSH1 0x40 MSTORE POP DUP2 ADD SWAP1 PUSH2 0x68E SWAP2 SWAP1 PUSH2 0xA1C JUMP JUMPDEST PUSH2 0x6D5 JUMPI PUSH1 0x40 MLOAD PUSH3 0x461BCD PUSH1 0xE5 SHL DUP2 MSTORE PUSH1 0x20 PUSH1 0x4 DUP3 ADD MSTORE PUSH1 0x18 PUSH1 0x24 DUP3 ADD MSTORE PUSH24 0x151C985B9CD9995C881BD9881D1BDAD95B8819985A5B1959 PUSH1 0x42 SHL PUSH1 0x44 DUP3 ADD MSTORE PUSH1 0x64 ADD PUSH2 0x39D JUMP JUMPDEST DUP3 PUSH1 0x4 PUSH1 0x0 DUP3 DUP3 SLOAD PUSH2 0x6E7 SWAP2 SWAP1 PUSH2 0xA3E JUMP JUMPDEST SWAP1 SWAP2 SSTORE POP PUSH2 0x6F5 SWAP1 POP PUSH2 0x6FB JUMP JUMPDEST POP POP POP POP JUMP JUMPDEST PUSH1 0x5 SLOAD PUSH1 0x4 DUP1 SLOAD PUSH1 0x2 SLOAD PUSH1 0x0 SLOAD PUSH1 0x1 SLOAD PUSH1 0x40 MLOAD PUSH4 0x6BED508B PUSH1 0xE1 SHL DUP2 MSTORE SWAP5 DUP6 ADD SWAP6 SWAP1 SWAP6 MSTORE PUSH1 0x24 DUP5 ADD SWAP3 SWAP1 SWAP3 MSTORE PUSH1 0x44 DUP4 ADD MSTORE PUSH1 0x64 DUP3 ADD MSTORE PUSH1 0x84 DUP2 ADD SWAP2 SWAP1 SWAP2 MSTORE PUSH20 0x0 SWAP1 PUSH4 0xD7DAA116 SWAP1 PUSH1 0xA4 ADD PUSH1 0x20 PUSH1 0x40 MLOAD DUP1 DUP4 SUB DUP2 DUP7 GAS DELEGATECALL ISZERO DUP1 ISZERO PUSH2 0x775 JUMPI RETURNDATASIZE PUSH1 0x0 DUP1 RETURNDATACOPY RETURNDATASIZE PUSH1 0x0 REVERT JUMPDEST POP POP POP POP PUSH1 0x40 MLOAD RETURNDATASIZE PUSH1 0x1F NOT PUSH1 0x1F DUP3 ADD AND DUP3 ADD DUP1 PUSH1 0x40 MSTORE POP DUP2 ADD SWAP1 PUSH2 0x799 SWAP2 SWAP1 PUSH2 0xA55 JUMP JUMPDEST PUSH1 0x7 DUP2 SWAP1 SSTORE PUSH1 0x40 MLOAD PUSH4 0x11BB7E49 PUSH1 0xE3 SHL DUP2 MSTORE PUSH1 0x4 DUP2 ADD SWAP2 SWAP1 SWAP2 MSTORE PUSH20 0x0 SWAP1 PUSH4 0x8DDBF248 SWAP1 PUSH1 0x24 ADD PUSH1 0x20 PUSH1 0x40 MLOAD DUP1 DUP4 SUB DUP2 DUP7 GAS DELEGATECALL ISZERO DUP1 ISZERO PUSH2 0x7EF JUMPI RETURNDATASIZE PUSH1 0x0 DUP1 RETURNDATACOPY RETURNDATASIZE PUSH1 0x0 REVERT JUMPDEST POP POP POP POP PUSH1 0x40 MLOAD RETURNDATASIZE PUSH1 0x1F NOT PUSH1 0x1F DUP3 ADD AND DUP3 ADD DUP1 PUSH1 0x40 MSTORE POP DUP2 ADD SWAP1 PUSH2 0x813 SWAP2 SWAP1 PUSH2 0xA55 JUMP JUMPDEST PUSH1 0x6 SSTORE PUSH1 0x0 JUMPDEST PUSH1 0x8 SLOAD DUP2 LT ISZERO PUSH2 0x2EC JUMPI PUSH1 0x0 PUSH1 0x8 PUSH1 0x0 ADD DUP3 DUP2 SLOAD DUP2 LT PUSH2 0x83B JUMPI PUSH2 0x83B PUSH2 0xAA5 JUMP JUMPDEST PUSH1 0x0 SWAP2 DUP3 MSTORE PUSH1 0x20 DUP1 DUP4 KECCAK256 SWAP1 SWAP2 ADD SLOAD PUSH1 0x1 PUSH1 0x1 PUSH1 0xA0 SHL SUB AND DUP1 DUP4 MSTORE PUSH1 0x9 SWAP1 SWAP2 MSTORE PUSH1 0x40 SWAP1 SWAP2 KECCAK256 SLOAD SWAP1 SWAP2 POP PUSH1 0xFF AND ISZERO PUSH2 0x8D6 JUMPI PUSH1 0x3 SLOAD PUSH1 0x6 SLOAD PUSH1 0x40 MLOAD PUSH4 0x13957027 PUSH1 0xE0 SHL DUP2 MSTORE PUSH1 0x1 PUSH1 0x1 PUSH1 0xA0 SHL SUB SWAP3 DUP4 AND PUSH1 0x4 DUP3 ADD MSTORE PUSH1 0x24 DUP2 ADD SWAP2 SWAP1 SWAP2 MSTORE SWAP1 DUP3 AND SWAP1 PUSH4 0x13957027 SWAP1 PUSH1 0x44 ADD PUSH1 0x0 PUSH1 0x40 MLOAD DUP1 DUP4 SUB DUP2 PUSH1 0x0 DUP8 DUP1 EXTCODESIZE ISZERO DUP1 ISZERO PUSH2 0x8BD JUMPI PUSH1 0x0 DUP1 REVERT JUMPDEST POP GAS CALL ISZERO DUP1 ISZERO PUSH2 0x8D1 JUMPI RETURNDATASIZE PUSH1 0x0 DUP1 RETURNDATACOPY RETURNDATASIZE PUSH1 0x0 REVERT JUMPDEST POP POP POP POP JUMPDEST POP DUP1 PUSH2 0x8E1 DUP2 PUSH2 0xABB JUMP JUMPDEST SWAP2 POP POP PUSH2 0x819 JUMP JUMPDEST PUSH1 0x0 DUP1 PUSH1 0x40 DUP4 DUP6 SUB SLT ISZERO PUSH2 0x8FC JUMPI PUSH1 0x0 DUP1 REVERT JUMPDEST POP POP DUP1 CALLDATALOAD SWAP3 PUSH1 0x20 SWAP1 SWAP2 ADD CALLDATALOAD SWAP2 POP JUMP JUMPDEST DUP1 CALLDATALOAD PUSH1 0x1 PUSH1 0x1 PUSH1 0xA0 SHL SUB DUP2 AND DUP2 EQ PUSH2 0x922 JUMPI PUSH1 0x0 DUP1 REVERT JUMPDEST SWAP2 SWAP1 POP JUMP JUMPDEST PUSH1 0x0 PUSH1 0x20 DUP3 DUP5 SUB SLT ISZERO PUSH2 0x939 JUMPI PUSH1 0x0 DUP1 REVERT JUMPDEST PUSH2 0x942 DUP3 PUSH2 0x90B JUMP JUMPDEST SWAP4 SWAP3 POP POP POP JUMP JUMPDEST PUSH1 0x0 PUSH1 0x20 DUP3 DUP5 SUB SLT ISZERO PUSH2 0x95B JUMPI PUSH1 0x0 DUP1 REVERT JUMPDEST POP CALLDATALOAD SWAP2 SWAP1 POP JUMP JUMPDEST PUSH1 0x0 DUP1 PUSH1 0x0 DUP1 PUSH1 0x80 DUP6 DUP8 SUB SLT ISZERO PUSH2 0x978 JUMPI PUSH1 0x0 DUP1 REVERT JUMPDEST PUSH2 0x981 DUP6 PUSH2 0x90B JUMP JUMPDEST SWAP7 PUSH1 0x20 DUP7 ADD CALLDATALOAD SWAP7 POP PUSH1 0x40 DUP7 ADD CALLDATALOAD SWAP6 PUSH1 0x60 ADD CALLDATALOAD SWAP5 POP SWAP3 POP POP POP JUMP JUMPDEST PUSH1 0x0 DUP1 PUSH1 0x40 DUP4 DUP6 SUB SLT ISZERO PUSH2 0x9AE JUMPI PUSH1 0x0 DUP1 REVERT JUMPDEST PUSH2 0x9B7 DUP4 PUSH2 0x90B JUMP JUMPDEST SWAP5 PUSH1 0x20 SWAP4 SWAP1 SWAP4 ADD CALLDATALOAD SWAP4 POP POP POP JUMP JUMPDEST PUSH4 0x4E487B71 PUSH1 0xE0 SHL PUSH1 0x0 MSTORE PUSH1 0x11 PUSH1 0x4 MSTORE PUSH1 0x24 PUSH1 0x0 REVERT JUMPDEST PUSH1 0x0 DUP1 DUP3 SLT DUP1 ISZERO PUSH1 0x1 PUSH1 0x1 PUSH1 0xFF SHL SUB DUP5 SWAP1 SUB DUP6 SGT AND ISZERO PUSH2 0x9FD JUMPI PUSH2 0x9FD PUSH2 0x9C5 JUMP JUMPDEST PUSH1 0x1 PUSH1 0xFF SHL DUP4 SWAP1 SUB DUP5 SLT DUP2 AND ISZERO PUSH2 0xA16 JUMPI PUSH2 0xA16 PUSH2 0x9C5 JUMP JUMPDEST POP POP ADD SWAP1 JUMP JUMPDEST PUSH1 0x0 PUSH1 0x20 DUP3 DUP5 SUB SLT ISZERO PUSH2 0xA2E JUMPI PUSH1 0x0 DUP1 REVERT JUMPDEST DUP2 MLOAD DUP1 ISZERO ISZERO DUP2 EQ PUSH2 0x942 JUMPI PUSH1 0x0 DUP1 REVERT JUMPDEST PUSH1 0x0 DUP3 DUP3 LT ISZERO PUSH2 0xA50 JUMPI PUSH2 0xA50 PUSH2 0x9C5 JUMP JUMPDEST POP SUB SWAP1 JUMP JUMPDEST PUSH1 0x0 PUSH1 0x20 DUP3 DUP5 SUB SLT ISZERO PUSH2 0xA67 JUMPI PUSH1 0x0 DUP1 REVERT JUMPDEST POP MLOAD SWAP2 SWAP1 POP JUMP JUMPDEST PUSH1 0x20 DUP1 DUP3 MSTORE PUSH1 0x1A SWAP1 DUP3 ADD MSTORE PUSH32 0x506F6F6C2068617320696E73756666696369656E742066756E64000000000000 PUSH1 0x40 DUP3 ADD MSTORE PUSH1 0x60 ADD SWAP1 JUMP JUMPDEST PUSH4 0x4E487B71 PUSH1 0xE0 SHL PUSH1 0x0 MSTORE PUSH1 0x32 PUSH1 0x4 MSTORE PUSH1 0x24 PUSH1 0x0 REVERT JUMPDEST PUSH1 0x0 PUSH1 0x0 NOT DUP3 EQ ISZERO PUSH2 0xACF JUMPI PUSH2 0xACF PUSH2 0x9C5 JUMP JUMPDEST POP PUSH1 0x1 ADD SWAP1 JUMP INVALID LOG2 PUSH5 0x6970667358 0x22 SLT KECCAK256 CALLCODE MSIZE 0xC0 EXP SWAP2 ORIGIN 0xAA 0xBA PUSH10 0x2EE69529CBFE611361C5 0xD2 0xEF STOP 0xE9 DUP10 EXTCODESIZE 0x5F SLT 0xD8 BALANCE MLOAD SAR 0xF7 PUSH5 0x736F6C6343 STOP ADDMOD SIGNEXTEND STOP CALLER ",
  "sha1": "e064f5bdd541e09a435e1883f31d02a05f3b735c",
  "source": "// SPDX-License-Identifier: MIT\npragma solidity ^0.8.0;\n\nimport \"./LoanAccount.sol\";\nimport \"./ABDKMathQuad.sol\";\nimport \"./PotamusUtils.sol\";\n\nimport \"./IERC20.sol\";\n\n//LoanPool is the one holding the actual money\ncontract LoanPool {\n    //TODO: Fixed interest rate function for now\n    //can extends to account for different interest rate function\n    //with different kink value and slopes\n    //TODO: Right now all floating point are hard coded with `PotamusUtils.FLOAT_DECIMALS` decimal place after the dot\n    //The float-like variable representing ratios will be marked as fCamelCase\n    //So if you see 0.2 * 10 ** 18 (0.2x10^18, this represents 0.2)\n    //Can consider to use external libraries or something to be more readable\n    //Oh also, It's compounded secondly\n\n    //Note that all these rate are per anual basis\n    uint256 fFIRST_ANNUAL_INTEREST_RATE =\n        (2 * 10**PotamusUtils.FLOAT_DECIMALS) / 10; //0.2\n    uint256 fSECOND_ANNUAL_INTEREST_RATE =\n        (20 * 10**PotamusUtils.FLOAT_DECIMALS) / 10; // 2\n    uint256 fCRITICAL_UTIL_RATE = (8 * 10**PotamusUtils.FLOAT_DECIMALS) / 10; //0.8\n\n    address public tokenAddress;\n    uint256 public depositBalance = 0;\n    uint256 public loanBalance = 0;\n    uint256 public fSecondInterestRate = 0;\n    uint256 public fAnnualInteretRate = 0;\n\n    //The combination of both of these will give a data structure\n    //Operation     Time complexity\n    //Contains            O(1)\n    //Insert              O(1)\n    //Delete              O(1)\n    //List                O(k) with k >= n\n    struct ListableAccountMap {\n        address[] loanAccountAddressList;\n        //LoanAccount address to corresponding bool\n        mapping(address => bool) boolMap;\n    }\n\n    ListableAccountMap accountMap;\n\n    constructor(address _token) {\n        tokenAddress = _token;\n    }\n\n    function isContain(address _loanAccountAddress) public view returns (bool) {\n        return accountMap.boolMap[_loanAccountAddress];\n    }\n\n    function addLoanAccount(address _loanAccountAddress) public {\n        if (!this.isContain(_loanAccountAddress)) {\n            accountMap.loanAccountAddressList.push(_loanAccountAddress);\n            accountMap.boolMap[_loanAccountAddress] = true;\n        }\n    }\n\n    function removeLoanAccount(address _loanAccountAddress) public {\n        if (this.isContain(_loanAccountAddress)) {\n            accountMap.boolMap[_loanAccountAddress] = false;\n        }\n    }\n\n    function availableFund() public view returns (uint256) {\n        return depositBalance - loanBalance;\n    }\n\n    //TODO: remember to trigger recalculation for both deposit and loan function\n    function deposit(\n        int256 _depositBalanceAdjustment,\n        int256 _loanBalanceAdjustment\n    ) public {\n        depositBalance = uint256(\n            int256(depositBalance) + _depositBalanceAdjustment\n        );\n        loanBalance = uint256(int256(loanBalance) + _loanBalanceAdjustment);\n        updateAccountListBalance();\n    }\n\n    //Returns if this money transfer is successful\n    modifier onlyMoneyOut(address _userAddress, uint256 _amount) {\n        //Make sure that the pool has sufficient ERC20\n        require(\n            IERC20(tokenAddress).balanceOf(address(this)) >= _amount,\n            \"Pool has insufficient fund\"\n        );\n        require(availableFund() >= _amount, \"Pool has insufficient fund\");\n        //Make the transfer\n        require(\n            IERC20(tokenAddress).transfer(_userAddress, _amount),\n            \"Transfer of token failed\"\n        );\n        _;\n    }\n\n    function withdraw(address _userAddress, uint256 _amount)\n        public\n        onlyMoneyOut(_userAddress, _amount)\n    {\n        //If transfer is succesful, update the pool balance\n        depositBalance -= _amount;\n        updateAccountListBalance();\n    }\n\n    //Have check to make sure the amount loan out doesn't cause more loan amount than deposit\n    function loan(\n        address _userAddress,\n        uint256 _amount,\n        int256 _depositBalanceAdjustment,\n        int256 _loanBalanceAdjustment\n    ) public onlyMoneyOut(_userAddress, _amount) {\n        //If transfer is succesful, update the pool balance\n        depositBalance = uint256(\n            int256(depositBalance) + _depositBalanceAdjustment\n        );\n        loanBalance = uint256(int256(loanBalance) + _loanBalanceAdjustment);\n        updateAccountListBalance();\n    }\n\n    function payback(uint256 _amount) public {\n        loanBalance -= _amount;\n        updateAccountListBalance();\n    }\n\n    function updateAccountListBalance() private {\n        fAnnualInteretRate = PotamusUtils.getAnnualInterestRate(\n            loanBalance,\n            depositBalance,\n            fCRITICAL_UTIL_RATE,\n            fFIRST_ANNUAL_INTEREST_RATE,\n            fSECOND_ANNUAL_INTEREST_RATE\n        );\n        fSecondInterestRate = PotamusUtils.getEquivalentSecRate(\n            fAnnualInteretRate\n        );\n        for (uint256 i = 0; i < accountMap.loanAccountAddressList.length; i++) {\n            address loanAccountAddress = accountMap.loanAccountAddressList[i];\n            if (accountMap.boolMap[loanAccountAddress]) {\n                LoanAccount(loanAccountAddress).recalculateBalance(\n                    tokenAddress,\n                    fSecondInterestRate\n                );\n            }\n        }\n    }\n}\n",
  "sourcePath": "contracts/LoanPool.sol",
  "type": "contract"
}