{
  "abi": [
    {
      "inputs": [],
      "name": "FLOAT_DECIMALS",
      "outputs": [
        {
          "internalType": "uint256",
          "name": "",
          "type": "uint256"
        }
      ],
      "stateMutability": "view",
      "type": "function"
    },
    {
      "inputs": [
        {
          "internalType": "int256",
          "name": "_balance",
          "type": "int256"
        },
        {
          "internalType": "int256",
          "name": "_amount",
          "type": "int256"
        }
      ],
      "name": "depositDBLB",
      "outputs": [
        {
          "internalType": "int256",
          "name": "_DBAdjustment",
          "type": "int256"
        },
        {
          "internalType": "int256",
          "name": "_LBAdjustment",
          "type": "int256"
        }
      ],
      "stateMutability": "pure",
      "type": "function"
    },
    {
      "inputs": [
        {
          "internalType": "uint256",
          "name": "_loanBalance",
          "type": "uint256"
        },
        {
          "internalType": "uint256",
          "name": "_depositBalance",
          "type": "uint256"
        },
        {
          "internalType": "uint256",
          "name": "_fCRITICAL_UTIL_RATE",
          "type": "uint256"
        },
        {
          "internalType": "uint256",
          "name": "_fFIRST_ANNUAL_INTEREST_RATE",
          "type": "uint256"
        },
        {
          "internalType": "uint256",
          "name": "_fSECOND_ANNUAL_INTEREST_RATE",
          "type": "uint256"
        }
      ],
      "name": "getAnnualInterestRate",
      "outputs": [
        {
          "internalType": "uint256",
          "name": "fInterestRate",
          "type": "uint256"
        }
      ],
      "stateMutability": "pure",
      "type": "function"
    },
    {
      "inputs": [
        {
          "internalType": "uint256",
          "name": "_annualRate",
          "type": "uint256"
        }
      ],
      "name": "getEquivalentSecRate",
      "outputs": [
        {
          "internalType": "uint256",
          "name": "",
          "type": "uint256"
        }
      ],
      "stateMutability": "pure",
      "type": "function"
    },
    {
      "inputs": [
        {
          "internalType": "int256",
          "name": "_oldBalance",
          "type": "int256"
        },
        {
          "internalType": "uint256",
          "name": "_fRatePerSecond",
          "type": "uint256"
        },
        {
          "internalType": "uint256",
          "name": "_secondInterval",
          "type": "uint256"
        }
      ],
      "name": "getNewBalance",
      "outputs": [
        {
          "internalType": "int256",
          "name": "",
          "type": "int256"
        }
      ],
      "stateMutability": "pure",
      "type": "function"
    },
    {
      "inputs": [
        {
          "internalType": "int256",
          "name": "_balance",
          "type": "int256"
        },
        {
          "internalType": "int256",
          "name": "_amount",
          "type": "int256"
        }
      ],
      "name": "loanDBLB",
      "outputs": [
        {
          "internalType": "int256",
          "name": "_DBAdjustment",
          "type": "int256"
        },
        {
          "internalType": "int256",
          "name": "_LBAdjustment",
          "type": "int256"
        }
      ],
      "stateMutability": "pure",
      "type": "function"
    }
  ],
  "bytecode": "6127b561003a600b82828239805160001a60731461002d57634e487b7160e01b600052600060045260246000fd5b30600052607381538281f3fe730000000000000000000000000000000000000000301460806040526004361061006c5760003560e01c806316f82acc14610071578063570539971461009e5780638ddbf248146100b157806398be96ac146100d2578063d7daa116146100da578063e24a9e6e146100ed575b600080fd5b61008461007f36600461249e565b610100565b604080519283526020830191909152015b60405180910390f35b6100846100ac36600461249e565b6101a8565b6100c46100bf3660046124c0565b61023f565b604051908152602001610095565b6100c4601281565b6100c46100e83660046124d9565b6102da565b6100c46100fb366004612514565b610399565b60008060008312156101595760405162461bcd60e51b815260206004820152601a60248201527f416d6f756e74206d7573746e2774206265206e6567617469766500000000000060448201526064015b60405180910390fd5b600084131561019a578383121561017e5761017383612556565b6000915091506101a1565b61018784612556565b6101918585612573565b915091506101a1565b5060009050815b9250929050565b60008060008312156101fc5760405162461bcd60e51b815260206004820152601a60248201527f416d6f756e74206d7573746e2774206265206e656761746976650000000000006044820152606401610150565b60008412156102345761020e84612556565b83121561022057600061019184612556565b61022a84846125b2565b84915091506101a1565b5081905060006101a1565b60006102d46102cf6102bb6102ac6102a761029a6102956102866102628a6103f3565b6102816102716012600a6126d7565b61027c9060016126e3565b6103f3565b610457565b61029060016103f3565b61070f565b610adf565b6102816301e133806103f3565b610c92565b6102b660016103f3565b611fe4565b6102ca6102716012600a6126d7565b611ffd565b612248565b92915050565b60008085876102eb6012600a6126d7565b6102f591906126e3565b6102ff9190612718565b9050848110156103355761032d6102cf61032461031b846103f3565b610281896103f3565b6102ca876103f3565b915050610390565b84811061038e576103846102cf61037761035261027c898661273a565b610281896103626012600a6126d7565b61036d9060016126e3565b61027c919061273a565b6102ca61027c888861273a565b61032d9085612751565b505b95945050505050565b60006103eb6103e66103aa866122cb565b6102ca6102a76103b9876103f3565b6102ca6102956103c960016103f3565b6102906103d58d6103f3565b610281670de0b6b3a76400006103f3565b612359565b949350505050565b60008161040257506000919050565b81600061040e82612400565b90506070811015610427578060700382901b915061043a565b607081111561043a576070810382901c91505b613fff0160701b6001600160701b03919091161760801b92915050565b6000617fff60f084811c8216919084901c81169082141561049d5780617fff141561048c575061ffff60ef1b91506102d49050565b505050600160ff1b811682186102d4565b80617fff14156104e1576dffffffffffffffffffffffffffff60801b8416156104d0575061ffff60ef1b91506102d49050565b505050808218600160ff1b166102d4565b600160801b600160ff1b03841661052b57600160801b600160ff1b038516610513575061ffff60ef1b91506102d49050565b505050808218600160ff1b16617fff60f01b176102d4565b6001600160701b03608085901c1681610547576001915061054e565b600160701b175b6001600160701b03608087901c168361058d57801561058857600061057282612400565b6001955060e20393840160711901939190911b90505b610597565b600160701b1760721b5b8181816105a6576105a6612702565b049050806105d357600160ff1b878718166105c25760006105c8565b600160ff1b5b9450505050506102d4565b6001606c1b8110156105e7576105e7612769565b6000600160731b82101561062657600160721b82101561061b57600160711b82101561061457607061061e565b607161061e565b60725b60ff1661062f565b61062f82612400565b90508361407101818601111561064d57617fff9450600091506106e0565b83818601613ffc0110156106685760009450600091506106e0565b83818601613f8c0110156106b5578385613ffc011115610693578385613ffc010382901b91506106ac565b8385613ffc0110156106ac57613ffc8585030382901c91505b600094506106e0565b60708111156106c8576070810382901c91505b6001600160701b038216915083818601613f8d010394505b81607086901b888a186001607f1b60801b1660801c6001600160801b0316171760801b955050505050506102d4565b6000617fff60f084811c8216919084901c81169082141561076d5780617fff1415610763576001600160801b031985811690851614156107535784925050506102d4565b5061ffff60ef1b91506102d49050565b84925050506102d4565b80617fff14156107815783925050506102d4565b6001607f1b608086901c90811015906001600160701b0316836107a757600193506107ae565b600160701b175b6001607f1b608087901c90811015906001600160701b0316846107d457600194506107db565b600160701b175b8261080b576001600160801b03198816600160ff1b146107fb57876107fe565b60005b96505050505050506102d4565b8061082b576001600160801b03198916600160ff1b146107fb57886107fe565b848603841515831515141561093657607081131561085257899750505050505050506102d4565b60008113156108645790811c90610893565b606f1981121561087d57889750505050505050506102d4565b6000811215610893578060000384901c93508596505b92810192600160711b84106108ae576001968701969390931c925b86617fff14156108e057846108c857617fff60f01b6108d2565b6001600160f01b03195b9750505050505050506102d4565b600160701b8410156108f55760009650610902565b6001600160701b03841693505b83607088901b8661091457600061091a565b6001607f1b5b6001600160801b0316171760801b9750505050505050506102d4565b600081131561095157600184901b9350600187039650610968565b600081121561096857600182901b91506001860396505b607081131561097a57600191506109c7565b6001811315610997576001810360018303901c60010191506109c7565b606f198112156109aa57600193506109c7565b6000198112156109c7576001816000030360018503901c60010193505b8184106109d85781840393506109e1565b83820393508294505b836109f75750600096506102d495505050505050565b6000610a0285612400565b90508060711415610a2857600185901c6001600160701b03169450600188019750610a77565b6070811015610a6a57607081900380891115610a57578086901b6001600160701b031695508089039850610a64565b600098600019019590951b945b50610a77565b6001600160701b03851694505b87617fff1415610aaa5785610a9157617fff60f01b610a9b565b6001600160f01b03195b985050505050505050506102d4565b84607089901b87610abc576000610ac2565b6001607f1b5b6001600160801b0316171760801b985050505050505050506102d4565b60006001607f1b608083901c1115610afd575061ffff60ef1b919050565b613fff60f01b6001600160801b031983161415610b1c57506000919050565b617fff60f083901c811690811415610b35575090919050565b6001600160701b03608084901c1681610b515760019150610b58565b600160701b175b80610b6e57506001600160f01b03199392505050565b600061406f81613fff8510610b945750600f9290921b9160009150613ffe198401610bd3565b60019250600160701b8410610bb65784613ffe039050600f84901b9350610bd3565b6000610bc185612400565b607f8190039590951b9461406d039150505b836001607f1b1415610c0a578215610be9576001015b6000610bf482612400565b60700390508082901b9150808303925050610c58565b600083610c18576000610c1b565b60015b60ff1690505b600160701b821015610c565793800260ff81901c607f81019190911c94600019939093019260019290921b9082180190610c21565b505b806001600160701b0316607083901b84610c73576000610c79565b6001607f1b5b6001600160801b0316171760801b979650505050505050565b60006001607f1b608083901c90811190617fff60f085901c8116916001600160701b03169082148015610cc457508015155b15610cd8575061ffff60ef1b949350505050565b61400d821115610cfd5782610cf257617fff60f01b610390565b600095945050505050565b613f7f821015610d165750613fff60f01b949350505050565b81610d245760019150610d2b565b600160701b175b613fef821115610d4157613fee1982011b610d53565b613fef821015610d5357613fef8290031c5b828015610d64575061203760811b81115b15610d7457506000949350505050565b82158015610d935750713fffffffffffffffffffffffffffffffffff81115b15610da75750617fff60f01b949350505050565b6001600160801b0381169060801c838015610dc157508115155b15610dcd579019906001015b6001607f1b82811615610df15770016a09e667f3bcc908b2fb1366ea957d3e0260801c5b6001607e1b831615610e14577001306fe0a31b7152de8d5a46305c85edec0260801c5b6001607d1b831615610e37577001172b83c7d517adcdf7c8c50eb14a791f0260801c5b6001607c1b831615610e5a5770010b5586cf9890f6298b92b71842a983630260801c5b6001607b1b831615610e7d577001059b0d31585743ae7c548eb68ca417fd0260801c5b6001607a1b831615610ea057700102c9a3e778060ee6f7caca4f7a29bde80260801c5b600160791b831615610ec35770010163da9fb33356d84a66ae336dcdfa3f0260801c5b600160781b831615610ee657700100b1afa5abcbed6129ab13ec11dc95430260801c5b600160771b831615610f095770010058c86da1c09ea1ff19d294cf2f679b0260801c5b600160761b831615610f2c577001002c605e2e8cec506d21bfc89a23a00f0260801c5b600160751b831615610f4f57700100162f3904051fa128bca9c55c31e5df0260801c5b600160741b831615610f72577001000b175effdc76ba38e31671ca9397250260801c5b600160731b831615610f9557700100058ba01fb9f96d6cacd4b180917c3d0260801c5b600160721b831615610fb85770010002c5cc37da9491d0985c348c68e7b30260801c5b600160711b831615610fdb577001000162e525ee054754457d59952920260260801c5b600160701b831615610ffe5770010000b17255775c040618bf4a4ade83fc0260801c5b6001606f1b831615611021577001000058b91b5bc9ae2eed81e9b7d4cfab0260801c5b6001606e1b83161561104457700100002c5c89d5ec6ca4d7c8acc017b7c90260801c5b6001606d1b8316156110675770010000162e43f4f831060e02d839a9d16d0260801c5b6001606c1b83161561108a57700100000b1721bcfc99d9f890ea069117630260801c5b6001606b1b8316156110ad5770010000058b90cf1e6d97f9ca14dbcc16280260801c5b6001606a1b8316156110d0577001000002c5c863b73f016468f6bac5ca2b0260801c5b600160691b8316156110f357700100000162e430e5a18f6119e3c02282a50260801c5b600160681b831615611116577001000000b1721835514b86e6d96efd1bfe0260801c5b600160671b83161561113957700100000058b90c0b48c6be5df846c5b2ef0260801c5b600160661b83161561115c5770010000002c5c8601cc6b9e94213c72737a0260801c5b600160651b83161561117f577001000000162e42fff037df38aa2b219f060260801c5b600160641b8316156111a25770010000000b17217fba9c739aa5819f44f90260801c5b600160631b8316156111c5577001000000058b90bfcdee5acd3c1cedc8230260801c5b600160621b8316156111e857700100000002c5c85fe31f35a6a30da1be500260801c5b600160611b83161561120b5770010000000162e42ff0999ce3541b9fffcf0260801c5b600160601b83161561122e57700100000000b17217f80f4ef5aadda455540260801c5b6001605f1b8316156112515770010000000058b90bfbf8479bd5a81b51ad0260801c5b6001605e1b831615611274577001000000002c5c85fdf84bd62ae30a74cc0260801c5b6001605d1b83161561129757700100000000162e42fefb2fed257559bdaa0260801c5b6001605c1b8316156112ba577001000000000b17217f7d5a7716bba4a9ae0260801c5b6001605b1b8316156112dd57700100000000058b90bfbe9ddbac5e109cce0260801c5b6001605a1b8316156113005770010000000002c5c85fdf4b15de6f17eb0d0260801c5b600160591b831615611323577001000000000162e42fefa494f1478fde050260801c5b600160581b8316156113465770010000000000b17217f7d20cf927c8e94c0260801c5b600160571b831615611369577001000000000058b90bfbe8f71cb4e4b33d0260801c5b600160561b83161561138c57700100000000002c5c85fdf477b662b269450260801c5b600160551b8316156113af5770010000000000162e42fefa3ae53369388c0260801c5b600160541b8316156113d257700100000000000b17217f7d1d351a389d400260801c5b600160531b8316156113f55770010000000000058b90bfbe8e8b2d3d4ede0260801c5b600160521b831615611418577001000000000002c5c85fdf4741bea6e77e0260801c5b600160511b83161561143b57700100000000000162e42fefa39fe95583c20260801c5b600160501b83161561145e577001000000000000b17217f7d1cfb72b45e10260801c5b698000000000000000000083161561148757700100000000000058b90bfbe8e7cc35c3f00260801c5b69400000000000000000008316156114b05770010000000000002c5c85fdf473e242ea380260801c5b69200000000000000000008316156114d9577001000000000000162e42fefa39f02b772c0260801c5b69100000000000000000008316156115025770010000000000000b17217f7d1cf7d83c1a0260801c5b690800000000000000000083161561152b577001000000000000058b90bfbe8e7bdcbe2e0260801c5b690400000000000000000083161561155457700100000000000002c5c85fdf473dea871f0260801c5b690200000000000000000083161561157d5770010000000000000162e42fefa39ef44d910260801c5b69010000000000000000008316156115a657700100000000000000b17217f7d1cf79e9490260801c5b688000000000000000008316156115ce5770010000000000000058b90bfbe8e7bce5440260801c5b684000000000000000008316156115f6577001000000000000002c5c85fdf473de6eca0260801c5b6820000000000000000083161561161e57700100000000000000162e42fefa39ef366f0260801c5b68100000000000000000831615611646577001000000000000000b17217f7d1cf79afa0260801c5b6808000000000000000083161561166e57700100000000000000058b90bfbe8e7bcd6d0260801c5b680400000000000000008316156116965770010000000000000002c5c85fdf473de6b20260801c5b680200000000000000008316156116be577001000000000000000162e42fefa39ef3580260801c5b600160401b8316156116e15770010000000000000000b17217f7d1cf79ab0260801c5b678000000000000000831615611708577001000000000000000058b90bfbe8e7bcd50260801c5b67400000000000000083161561172f57700100000000000000002c5c85fdf473de6a0260801c5b6720000000000000008316156117565770010000000000000000162e42fefa39ef340260801c5b67100000000000000083161561177d57700100000000000000000b17217f7d1cf7990260801c5b6708000000000000008316156117a45770010000000000000000058b90bfbe8e7bcc0260801c5b6704000000000000008316156117cb577001000000000000000002c5c85fdf473de50260801c5b6702000000000000008316156117f257700100000000000000000162e42fefa39ef20260801c5b670100000000000000831615611819577001000000000000000000b17217f7d1cf780260801c5b668000000000000083161561183f57700100000000000000000058b90bfbe8e7bb0260801c5b66400000000000008316156118655770010000000000000000002c5c85fdf473dd0260801c5b662000000000000083161561188b577001000000000000000000162e42fefa39ee0260801c5b66100000000000008316156118b15770010000000000000000000b17217f7d1cf60260801c5b66080000000000008316156118d7577001000000000000000000058b90bfbe8e7a0260801c5b66040000000000008316156118fd57700100000000000000000002c5c85fdf473c0260801c5b66020000000000008316156119235770010000000000000000000162e42fefa39d0260801c5b660100000000000083161561194957700100000000000000000000b17217f7d1ce0260801c5b6580000000000083161561196e5770010000000000000000000058b90bfbe8e60260801c5b65400000000000831615611993577001000000000000000000002c5c85fdf4720260801c5b652000000000008316156119b857700100000000000000000000162e42fefa380260801c5b651000000000008316156119dd577001000000000000000000000b17217f7d1b0260801c5b65080000000000831615611a0257700100000000000000000000058b90bfbe8d0260801c5b65040000000000831615611a275770010000000000000000000002c5c85fdf460260801c5b65020000000000831615611a4c577001000000000000000000000162e42fefa20260801c5b65010000000000831615611a715770010000000000000000000000b17217f7d00260801c5b648000000000831615611a95577001000000000000000000000058b90bfbe70260801c5b644000000000831615611ab957700100000000000000000000002c5c85fdf30260801c5b642000000000831615611add5770010000000000000000000000162e42fef90260801c5b641000000000831615611b0157700100000000000000000000000b17217f7c0260801c5b640800000000831615611b255770010000000000000000000000058b90bfbd0260801c5b640400000000831615611b49577001000000000000000000000002c5c85fde0260801c5b640200000000831615611b6d57700100000000000000000000000162e42fee0260801c5b640100000000831615611b91577001000000000000000000000000b17217f60260801c5b6380000000831615611bb457700100000000000000000000000058b90bfa0260801c5b6340000000831615611bd75770010000000000000000000000002c5c85fc0260801c5b6320000000831615611bfa577001000000000000000000000000162e42fd0260801c5b6310000000831615611c1d5770010000000000000000000000000b17217e0260801c5b6308000000831615611c40577001000000000000000000000000058b90be0260801c5b6304000000831615611c6357700100000000000000000000000002c5c85e0260801c5b6302000000831615611c865770010000000000000000000000000162e42e0260801c5b6301000000831615611ca957700100000000000000000000000000b172160260801c5b62800000831615611ccb5770010000000000000000000000000058b90a0260801c5b62400000831615611ced577001000000000000000000000000002c5c840260801c5b62200000831615611d0f57700100000000000000000000000000162e410260801c5b62100000831615611d31577001000000000000000000000000000b17200260801c5b62080000831615611d5357700100000000000000000000000000058b8f0260801c5b62040000831615611d755770010000000000000000000000000002c5c70260801c5b62020000831615611d97577001000000000000000000000000000162e30260801c5b62010000831615611db95770010000000000000000000000000000b1710260801c5b618000831615611dda577001000000000000000000000000000058b80260801c5b614000831615611dfb57700100000000000000000000000000002c5b0260801c5b612000831615611e1c5770010000000000000000000000000000162d0260801c5b611000831615611e3d57700100000000000000000000000000000b160260801c5b610800831615611e5e5770010000000000000000000000000000058a0260801c5b610400831615611e7f577001000000000000000000000000000002c40260801c5b610200831615611ea0577001000000000000000000000000000001610260801c5b610100831615611ec1577001000000000000000000000000000000b00260801c5b6080831615611ee1577001000000000000000000000000000000570260801c5b6040831615611f015770010000000000000000000000000000002b0260801c5b6020831615611f21577001000000000000000000000000000000150260801c5b6010831615611f415770010000000000000000000000000000000a0260801c5b6008831615611f61577001000000000000000000000000000000040260801c5b6004831615611f81577001000000000000000000000000000000010260801c5b84611fa257600f81901c6001600160701b03169050613fff82019150611fd1565b613ffe8211611fc757600f81901c6001600160701b0316905081613fff039150611fd1565b600091613fee19011c5b60709190911b1760801b95945050505050565b6000611ff683600160ff1b841861070f565b9392505050565b6000617fff60f084811c8216919084901c81169082141561208c5780617fff141561206b576001600160801b0319858116908516141561204857505050600160ff1b811682186102d4565b600160ff1b6001600160801b0319868618161415610753575050508181176102d4565b600160801b600160ff1b03841661048c575061ffff60ef1b91506102d49050565b80617fff14156120c857600160801b600160ff1b0385166120b7575061ffff60ef1b91506102d49050565b505050600160ff1b821681186102d4565b6001600160701b03608086901c16826120e457600192506120eb565b600160701b175b6001600160701b03608086901c1682612107576001925061210e565b600160701b175b908102908161212b57600160ff1b878718166105c25760006105c8565b928201926000600160e11b83101561215e57600160e01b8310156121575761215283612400565b612161565b60e0612161565b60e15b9050614070818601101561217c576000945060009250612219565b6140e081860110156121bf576140708510156121a157846140700383901c92506121b6565b6140708511156121b657614070850383901b92505b60009450612219565b61c0dd81860111156121d957617fff945060009250612219565b60708111156121f0576070810383901c9250612203565b6070811015612203578060700383901b92505b6001600160701b03831692506140df8186010394505b82607086901b888a186001607f1b60801b1660801c6001600160801b0316171760801b955050505050506102d4565b6000617fff60f083901c16613fff8110156122665750600092915050565b6001607f1b608084901c1061227a57600080fd5b6140fe81111561228957600080fd5b600160701b6001600160701b03608085901c161761406f8210156122b35761406f8290031c611ff6565b61406f821115611ff65761406e1982011b9392505050565b6000816122da57506000919050565b60008083136122ec57826000036122ee565b825b905060006122fb82612400565b90506070811015612314578060700382901b9150612327565b6070811115612327576070810382901c91505b6001600160701b03909116613fff820160701b1790600084121561234f576001607f1b821791505b5060801b92915050565b6000617fff60f083901c166140fe81111561237357600080fd5b613fff8110156123865750600092915050565b600160701b6001600160701b03608085901c161761406f8210156123b05761406f8290031c6123c2565b61406f8211156123c25761406e1982011b5b6001607f1b608085901c106123ec57600160ff1b8111156123e257600080fd5b6000039392505050565b6001600160ff1b03811115611ff657600080fd5b600080821161240e57600080fd5b6000600160801b831061242357608092831c92015b600160401b831061243657604092831c92015b640100000000831061244a57602092831c92015b62010000831061245c57601092831c92015b610100831061246d57600892831c92015b6010831061247d57600492831c92015b6004831061248d57600292831c92015b600283106102d45760010192915050565b600080604083850312156124b157600080fd5b50508035926020909101359150565b6000602082840312156124d257600080fd5b5035919050565b600080600080600060a086880312156124f157600080fd5b505083359560208501359550604085013594606081013594506080013592509050565b60008060006060848603121561252957600080fd5b505081359360208301359350604090920135919050565b634e487b7160e01b600052601160045260246000fd5b6000600160ff1b82141561256c5761256c612540565b5060000390565b60008083128015600160ff1b85018412161561259157612591612540565b6001600160ff1b03840183138116156125ac576125ac612540565b50500390565b600080821280156001600160ff1b03849003851316156125d4576125d4612540565b600160ff1b83900384128116156125ed576125ed612540565b50500190565b600181815b8085111561262e57816000190482111561261457612614612540565b8085161561262157918102915b93841c93908002906125f8565b509250929050565b600082612645575060016102d4565b81612652575060006102d4565b816001811461266857600281146126725761268e565b60019150506102d4565b60ff84111561268357612683612540565b50506001821b6102d4565b5060208310610133831016604e8410600b84101617156126b1575081810a6102d4565b6126bb83836125f3565b80600019048211156126cf576126cf612540565b029392505050565b6000611ff68383612636565b60008160001904831182151516156126fd576126fd612540565b500290565b634e487b7160e01b600052601260045260246000fd5b60008261273557634e487b7160e01b600052601260045260246000fd5b500490565b60008282101561274c5761274c612540565b500390565b6000821982111561276457612764612540565b500190565b634e487b7160e01b600052600160045260246000fdfea2646970667358221220b73e9bfbdb9c92335e059e204f32c2c7a0614e3e86806fa67a934c305047821464736f6c634300080b0033",
  "bytecodeSha1": "a0fbc27668a2f4d724271fc821020b12bbfd2056",
  "compiler": {
    "evm_version": "istanbul",
    "optimizer": {
      "enabled": true,
      "runs": 200
    },
    "version": "0.8.11+commit.d7f03943"
  },
  "contractName": "PotamusUtils",
  "language": "Solidity",
  "natspec": {
    "kind": "dev",
    "methods": {},
    "version": 1
  },
  "opcodes": "PUSH20 0x0 ADDRESS EQ PUSH1 0x80 PUSH1 0x40 MSTORE PUSH1 0x4 CALLDATASIZE LT PUSH2 0x6C JUMPI PUSH1 0x0 CALLDATALOAD PUSH1 0xE0 SHR DUP1 PUSH4 0x16F82ACC EQ PUSH2 0x71 JUMPI DUP1 PUSH4 0x57053997 EQ PUSH2 0x9E JUMPI DUP1 PUSH4 0x8DDBF248 EQ PUSH2 0xB1 JUMPI DUP1 PUSH4 0x98BE96AC EQ PUSH2 0xD2 JUMPI DUP1 PUSH4 0xD7DAA116 EQ PUSH2 0xDA JUMPI DUP1 PUSH4 0xE24A9E6E EQ PUSH2 0xED JUMPI JUMPDEST PUSH1 0x0 DUP1 REVERT JUMPDEST PUSH2 0x84 PUSH2 0x7F CALLDATASIZE PUSH1 0x4 PUSH2 0x249E JUMP JUMPDEST PUSH2 0x100 JUMP JUMPDEST PUSH1 0x40 DUP1 MLOAD SWAP3 DUP4 MSTORE PUSH1 0x20 DUP4 ADD SWAP2 SWAP1 SWAP2 MSTORE ADD JUMPDEST PUSH1 0x40 MLOAD DUP1 SWAP2 SUB SWAP1 RETURN JUMPDEST PUSH2 0x84 PUSH2 0xAC CALLDATASIZE PUSH1 0x4 PUSH2 0x249E JUMP JUMPDEST PUSH2 0x1A8 JUMP JUMPDEST PUSH2 0xC4 PUSH2 0xBF CALLDATASIZE PUSH1 0x4 PUSH2 0x24C0 JUMP JUMPDEST PUSH2 0x23F JUMP JUMPDEST PUSH1 0x40 MLOAD SWAP1 DUP2 MSTORE PUSH1 0x20 ADD PUSH2 0x95 JUMP JUMPDEST PUSH2 0xC4 PUSH1 0x12 DUP2 JUMP JUMPDEST PUSH2 0xC4 PUSH2 0xE8 CALLDATASIZE PUSH1 0x4 PUSH2 0x24D9 JUMP JUMPDEST PUSH2 0x2DA JUMP JUMPDEST PUSH2 0xC4 PUSH2 0xFB CALLDATASIZE PUSH1 0x4 PUSH2 0x2514 JUMP JUMPDEST PUSH2 0x399 JUMP JUMPDEST PUSH1 0x0 DUP1 PUSH1 0x0 DUP4 SLT ISZERO PUSH2 0x159 JUMPI PUSH1 0x40 MLOAD PUSH3 0x461BCD PUSH1 0xE5 SHL DUP2 MSTORE PUSH1 0x20 PUSH1 0x4 DUP3 ADD MSTORE PUSH1 0x1A PUSH1 0x24 DUP3 ADD MSTORE PUSH32 0x416D6F756E74206D7573746E2774206265206E65676174697665000000000000 PUSH1 0x44 DUP3 ADD MSTORE PUSH1 0x64 ADD JUMPDEST PUSH1 0x40 MLOAD DUP1 SWAP2 SUB SWAP1 REVERT JUMPDEST PUSH1 0x0 DUP5 SGT ISZERO PUSH2 0x19A JUMPI DUP4 DUP4 SLT ISZERO PUSH2 0x17E JUMPI PUSH2 0x173 DUP4 PUSH2 0x2556 JUMP JUMPDEST PUSH1 0x0 SWAP2 POP SWAP2 POP PUSH2 0x1A1 JUMP JUMPDEST PUSH2 0x187 DUP5 PUSH2 0x2556 JUMP JUMPDEST PUSH2 0x191 DUP6 DUP6 PUSH2 0x2573 JUMP JUMPDEST SWAP2 POP SWAP2 POP PUSH2 0x1A1 JUMP JUMPDEST POP PUSH1 0x0 SWAP1 POP DUP2 JUMPDEST SWAP3 POP SWAP3 SWAP1 POP JUMP JUMPDEST PUSH1 0x0 DUP1 PUSH1 0x0 DUP4 SLT ISZERO PUSH2 0x1FC JUMPI PUSH1 0x40 MLOAD PUSH3 0x461BCD PUSH1 0xE5 SHL DUP2 MSTORE PUSH1 0x20 PUSH1 0x4 DUP3 ADD MSTORE PUSH1 0x1A PUSH1 0x24 DUP3 ADD MSTORE PUSH32 0x416D6F756E74206D7573746E2774206265206E65676174697665000000000000 PUSH1 0x44 DUP3 ADD MSTORE PUSH1 0x64 ADD PUSH2 0x150 JUMP JUMPDEST PUSH1 0x0 DUP5 SLT ISZERO PUSH2 0x234 JUMPI PUSH2 0x20E DUP5 PUSH2 0x2556 JUMP JUMPDEST DUP4 SLT ISZERO PUSH2 0x220 JUMPI PUSH1 0x0 PUSH2 0x191 DUP5 PUSH2 0x2556 JUMP JUMPDEST PUSH2 0x22A DUP5 DUP5 PUSH2 0x25B2 JUMP JUMPDEST DUP5 SWAP2 POP SWAP2 POP PUSH2 0x1A1 JUMP JUMPDEST POP DUP2 SWAP1 POP PUSH1 0x0 PUSH2 0x1A1 JUMP JUMPDEST PUSH1 0x0 PUSH2 0x2D4 PUSH2 0x2CF PUSH2 0x2BB PUSH2 0x2AC PUSH2 0x2A7 PUSH2 0x29A PUSH2 0x295 PUSH2 0x286 PUSH2 0x262 DUP11 PUSH2 0x3F3 JUMP JUMPDEST PUSH2 0x281 PUSH2 0x271 PUSH1 0x12 PUSH1 0xA PUSH2 0x26D7 JUMP JUMPDEST PUSH2 0x27C SWAP1 PUSH1 0x1 PUSH2 0x26E3 JUMP JUMPDEST PUSH2 0x3F3 JUMP JUMPDEST PUSH2 0x457 JUMP JUMPDEST PUSH2 0x290 PUSH1 0x1 PUSH2 0x3F3 JUMP JUMPDEST PUSH2 0x70F JUMP JUMPDEST PUSH2 0xADF JUMP JUMPDEST PUSH2 0x281 PUSH4 0x1E13380 PUSH2 0x3F3 JUMP JUMPDEST PUSH2 0xC92 JUMP JUMPDEST PUSH2 0x2B6 PUSH1 0x1 PUSH2 0x3F3 JUMP JUMPDEST PUSH2 0x1FE4 JUMP JUMPDEST PUSH2 0x2CA PUSH2 0x271 PUSH1 0x12 PUSH1 0xA PUSH2 0x26D7 JUMP JUMPDEST PUSH2 0x1FFD JUMP JUMPDEST PUSH2 0x2248 JUMP JUMPDEST SWAP3 SWAP2 POP POP JUMP JUMPDEST PUSH1 0x0 DUP1 DUP6 DUP8 PUSH2 0x2EB PUSH1 0x12 PUSH1 0xA PUSH2 0x26D7 JUMP JUMPDEST PUSH2 0x2F5 SWAP2 SWAP1 PUSH2 0x26E3 JUMP JUMPDEST PUSH2 0x2FF SWAP2 SWAP1 PUSH2 0x2718 JUMP JUMPDEST SWAP1 POP DUP5 DUP2 LT ISZERO PUSH2 0x335 JUMPI PUSH2 0x32D PUSH2 0x2CF PUSH2 0x324 PUSH2 0x31B DUP5 PUSH2 0x3F3 JUMP JUMPDEST PUSH2 0x281 DUP10 PUSH2 0x3F3 JUMP JUMPDEST PUSH2 0x2CA DUP8 PUSH2 0x3F3 JUMP JUMPDEST SWAP2 POP POP PUSH2 0x390 JUMP JUMPDEST DUP5 DUP2 LT PUSH2 0x38E JUMPI PUSH2 0x384 PUSH2 0x2CF PUSH2 0x377 PUSH2 0x352 PUSH2 0x27C DUP10 DUP7 PUSH2 0x273A JUMP JUMPDEST PUSH2 0x281 DUP10 PUSH2 0x362 PUSH1 0x12 PUSH1 0xA PUSH2 0x26D7 JUMP JUMPDEST PUSH2 0x36D SWAP1 PUSH1 0x1 PUSH2 0x26E3 JUMP JUMPDEST PUSH2 0x27C SWAP2 SWAP1 PUSH2 0x273A JUMP JUMPDEST PUSH2 0x2CA PUSH2 0x27C DUP9 DUP9 PUSH2 0x273A JUMP JUMPDEST PUSH2 0x32D SWAP1 DUP6 PUSH2 0x2751 JUMP JUMPDEST POP JUMPDEST SWAP6 SWAP5 POP POP POP POP POP JUMP JUMPDEST PUSH1 0x0 PUSH2 0x3EB PUSH2 0x3E6 PUSH2 0x3AA DUP7 PUSH2 0x22CB JUMP JUMPDEST PUSH2 0x2CA PUSH2 0x2A7 PUSH2 0x3B9 DUP8 PUSH2 0x3F3 JUMP JUMPDEST PUSH2 0x2CA PUSH2 0x295 PUSH2 0x3C9 PUSH1 0x1 PUSH2 0x3F3 JUMP JUMPDEST PUSH2 0x290 PUSH2 0x3D5 DUP14 PUSH2 0x3F3 JUMP JUMPDEST PUSH2 0x281 PUSH8 0xDE0B6B3A7640000 PUSH2 0x3F3 JUMP JUMPDEST PUSH2 0x2359 JUMP JUMPDEST SWAP5 SWAP4 POP POP POP POP JUMP JUMPDEST PUSH1 0x0 DUP2 PUSH2 0x402 JUMPI POP PUSH1 0x0 SWAP2 SWAP1 POP JUMP JUMPDEST DUP2 PUSH1 0x0 PUSH2 0x40E DUP3 PUSH2 0x2400 JUMP JUMPDEST SWAP1 POP PUSH1 0x70 DUP2 LT ISZERO PUSH2 0x427 JUMPI DUP1 PUSH1 0x70 SUB DUP3 SWAP1 SHL SWAP2 POP PUSH2 0x43A JUMP JUMPDEST PUSH1 0x70 DUP2 GT ISZERO PUSH2 0x43A JUMPI PUSH1 0x70 DUP2 SUB DUP3 SWAP1 SHR SWAP2 POP JUMPDEST PUSH2 0x3FFF ADD PUSH1 0x70 SHL PUSH1 0x1 PUSH1 0x1 PUSH1 0x70 SHL SUB SWAP2 SWAP1 SWAP2 AND OR PUSH1 0x80 SHL SWAP3 SWAP2 POP POP JUMP JUMPDEST PUSH1 0x0 PUSH2 0x7FFF PUSH1 0xF0 DUP5 DUP2 SHR DUP3 AND SWAP2 SWAP1 DUP5 SWAP1 SHR DUP2 AND SWAP1 DUP3 EQ ISZERO PUSH2 0x49D JUMPI DUP1 PUSH2 0x7FFF EQ ISZERO PUSH2 0x48C JUMPI POP PUSH2 0xFFFF PUSH1 0xEF SHL SWAP2 POP PUSH2 0x2D4 SWAP1 POP JUMP JUMPDEST POP POP POP PUSH1 0x1 PUSH1 0xFF SHL DUP2 AND DUP3 XOR PUSH2 0x2D4 JUMP JUMPDEST DUP1 PUSH2 0x7FFF EQ ISZERO PUSH2 0x4E1 JUMPI PUSH14 0xFFFFFFFFFFFFFFFFFFFFFFFFFFFF PUSH1 0x80 SHL DUP5 AND ISZERO PUSH2 0x4D0 JUMPI POP PUSH2 0xFFFF PUSH1 0xEF SHL SWAP2 POP PUSH2 0x2D4 SWAP1 POP JUMP JUMPDEST POP POP POP DUP1 DUP3 XOR PUSH1 0x1 PUSH1 0xFF SHL AND PUSH2 0x2D4 JUMP JUMPDEST PUSH1 0x1 PUSH1 0x80 SHL PUSH1 0x1 PUSH1 0xFF SHL SUB DUP5 AND PUSH2 0x52B JUMPI PUSH1 0x1 PUSH1 0x80 SHL PUSH1 0x1 PUSH1 0xFF SHL SUB DUP6 AND PUSH2 0x513 JUMPI POP PUSH2 0xFFFF PUSH1 0xEF SHL SWAP2 POP PUSH2 0x2D4 SWAP1 POP JUMP JUMPDEST POP POP POP DUP1 DUP3 XOR PUSH1 0x1 PUSH1 0xFF SHL AND PUSH2 0x7FFF PUSH1 0xF0 SHL OR PUSH2 0x2D4 JUMP JUMPDEST PUSH1 0x1 PUSH1 0x1 PUSH1 0x70 SHL SUB PUSH1 0x80 DUP6 SWAP1 SHR AND DUP2 PUSH2 0x547 JUMPI PUSH1 0x1 SWAP2 POP PUSH2 0x54E JUMP JUMPDEST PUSH1 0x1 PUSH1 0x70 SHL OR JUMPDEST PUSH1 0x1 PUSH1 0x1 PUSH1 0x70 SHL SUB PUSH1 0x80 DUP8 SWAP1 SHR AND DUP4 PUSH2 0x58D JUMPI DUP1 ISZERO PUSH2 0x588 JUMPI PUSH1 0x0 PUSH2 0x572 DUP3 PUSH2 0x2400 JUMP JUMPDEST PUSH1 0x1 SWAP6 POP PUSH1 0xE2 SUB SWAP4 DUP5 ADD PUSH1 0x71 NOT ADD SWAP4 SWAP2 SWAP1 SWAP2 SHL SWAP1 POP JUMPDEST PUSH2 0x597 JUMP JUMPDEST PUSH1 0x1 PUSH1 0x70 SHL OR PUSH1 0x72 SHL JUMPDEST DUP2 DUP2 DUP2 PUSH2 0x5A6 JUMPI PUSH2 0x5A6 PUSH2 0x2702 JUMP JUMPDEST DIV SWAP1 POP DUP1 PUSH2 0x5D3 JUMPI PUSH1 0x1 PUSH1 0xFF SHL DUP8 DUP8 XOR AND PUSH2 0x5C2 JUMPI PUSH1 0x0 PUSH2 0x5C8 JUMP JUMPDEST PUSH1 0x1 PUSH1 0xFF SHL JUMPDEST SWAP5 POP POP POP POP POP PUSH2 0x2D4 JUMP JUMPDEST PUSH1 0x1 PUSH1 0x6C SHL DUP2 LT ISZERO PUSH2 0x5E7 JUMPI PUSH2 0x5E7 PUSH2 0x2769 JUMP JUMPDEST PUSH1 0x0 PUSH1 0x1 PUSH1 0x73 SHL DUP3 LT ISZERO PUSH2 0x626 JUMPI PUSH1 0x1 PUSH1 0x72 SHL DUP3 LT ISZERO PUSH2 0x61B JUMPI PUSH1 0x1 PUSH1 0x71 SHL DUP3 LT ISZERO PUSH2 0x614 JUMPI PUSH1 0x70 PUSH2 0x61E JUMP JUMPDEST PUSH1 0x71 PUSH2 0x61E JUMP JUMPDEST PUSH1 0x72 JUMPDEST PUSH1 0xFF AND PUSH2 0x62F JUMP JUMPDEST PUSH2 0x62F DUP3 PUSH2 0x2400 JUMP JUMPDEST SWAP1 POP DUP4 PUSH2 0x4071 ADD DUP2 DUP7 ADD GT ISZERO PUSH2 0x64D JUMPI PUSH2 0x7FFF SWAP5 POP PUSH1 0x0 SWAP2 POP PUSH2 0x6E0 JUMP JUMPDEST DUP4 DUP2 DUP7 ADD PUSH2 0x3FFC ADD LT ISZERO PUSH2 0x668 JUMPI PUSH1 0x0 SWAP5 POP PUSH1 0x0 SWAP2 POP PUSH2 0x6E0 JUMP JUMPDEST DUP4 DUP2 DUP7 ADD PUSH2 0x3F8C ADD LT ISZERO PUSH2 0x6B5 JUMPI DUP4 DUP6 PUSH2 0x3FFC ADD GT ISZERO PUSH2 0x693 JUMPI DUP4 DUP6 PUSH2 0x3FFC ADD SUB DUP3 SWAP1 SHL SWAP2 POP PUSH2 0x6AC JUMP JUMPDEST DUP4 DUP6 PUSH2 0x3FFC ADD LT ISZERO PUSH2 0x6AC JUMPI PUSH2 0x3FFC DUP6 DUP6 SUB SUB DUP3 SWAP1 SHR SWAP2 POP JUMPDEST PUSH1 0x0 SWAP5 POP PUSH2 0x6E0 JUMP JUMPDEST PUSH1 0x70 DUP2 GT ISZERO PUSH2 0x6C8 JUMPI PUSH1 0x70 DUP2 SUB DUP3 SWAP1 SHR SWAP2 POP JUMPDEST PUSH1 0x1 PUSH1 0x1 PUSH1 0x70 SHL SUB DUP3 AND SWAP2 POP DUP4 DUP2 DUP7 ADD PUSH2 0x3F8D ADD SUB SWAP5 POP JUMPDEST DUP2 PUSH1 0x70 DUP7 SWAP1 SHL DUP9 DUP11 XOR PUSH1 0x1 PUSH1 0x7F SHL PUSH1 0x80 SHL AND PUSH1 0x80 SHR PUSH1 0x1 PUSH1 0x1 PUSH1 0x80 SHL SUB AND OR OR PUSH1 0x80 SHL SWAP6 POP POP POP POP POP POP PUSH2 0x2D4 JUMP JUMPDEST PUSH1 0x0 PUSH2 0x7FFF PUSH1 0xF0 DUP5 DUP2 SHR DUP3 AND SWAP2 SWAP1 DUP5 SWAP1 SHR DUP2 AND SWAP1 DUP3 EQ ISZERO PUSH2 0x76D JUMPI DUP1 PUSH2 0x7FFF EQ ISZERO PUSH2 0x763 JUMPI PUSH1 0x1 PUSH1 0x1 PUSH1 0x80 SHL SUB NOT DUP6 DUP2 AND SWAP1 DUP6 AND EQ ISZERO PUSH2 0x753 JUMPI DUP5 SWAP3 POP POP POP PUSH2 0x2D4 JUMP JUMPDEST POP PUSH2 0xFFFF PUSH1 0xEF SHL SWAP2 POP PUSH2 0x2D4 SWAP1 POP JUMP JUMPDEST DUP5 SWAP3 POP POP POP PUSH2 0x2D4 JUMP JUMPDEST DUP1 PUSH2 0x7FFF EQ ISZERO PUSH2 0x781 JUMPI DUP4 SWAP3 POP POP POP PUSH2 0x2D4 JUMP JUMPDEST PUSH1 0x1 PUSH1 0x7F SHL PUSH1 0x80 DUP7 SWAP1 SHR SWAP1 DUP2 LT ISZERO SWAP1 PUSH1 0x1 PUSH1 0x1 PUSH1 0x70 SHL SUB AND DUP4 PUSH2 0x7A7 JUMPI PUSH1 0x1 SWAP4 POP PUSH2 0x7AE JUMP JUMPDEST PUSH1 0x1 PUSH1 0x70 SHL OR JUMPDEST PUSH1 0x1 PUSH1 0x7F SHL PUSH1 0x80 DUP8 SWAP1 SHR SWAP1 DUP2 LT ISZERO SWAP1 PUSH1 0x1 PUSH1 0x1 PUSH1 0x70 SHL SUB AND DUP5 PUSH2 0x7D4 JUMPI PUSH1 0x1 SWAP5 POP PUSH2 0x7DB JUMP JUMPDEST PUSH1 0x1 PUSH1 0x70 SHL OR JUMPDEST DUP3 PUSH2 0x80B JUMPI PUSH1 0x1 PUSH1 0x1 PUSH1 0x80 SHL SUB NOT DUP9 AND PUSH1 0x1 PUSH1 0xFF SHL EQ PUSH2 0x7FB JUMPI DUP8 PUSH2 0x7FE JUMP JUMPDEST PUSH1 0x0 JUMPDEST SWAP7 POP POP POP POP POP POP POP PUSH2 0x2D4 JUMP JUMPDEST DUP1 PUSH2 0x82B JUMPI PUSH1 0x1 PUSH1 0x1 PUSH1 0x80 SHL SUB NOT DUP10 AND PUSH1 0x1 PUSH1 0xFF SHL EQ PUSH2 0x7FB JUMPI DUP9 PUSH2 0x7FE JUMP JUMPDEST DUP5 DUP7 SUB DUP5 ISZERO ISZERO DUP4 ISZERO ISZERO EQ ISZERO PUSH2 0x936 JUMPI PUSH1 0x70 DUP2 SGT ISZERO PUSH2 0x852 JUMPI DUP10 SWAP8 POP POP POP POP POP POP POP POP PUSH2 0x2D4 JUMP JUMPDEST PUSH1 0x0 DUP2 SGT ISZERO PUSH2 0x864 JUMPI SWAP1 DUP2 SHR SWAP1 PUSH2 0x893 JUMP JUMPDEST PUSH1 0x6F NOT DUP2 SLT ISZERO PUSH2 0x87D JUMPI DUP9 SWAP8 POP POP POP POP POP POP POP POP PUSH2 0x2D4 JUMP JUMPDEST PUSH1 0x0 DUP2 SLT ISZERO PUSH2 0x893 JUMPI DUP1 PUSH1 0x0 SUB DUP5 SWAP1 SHR SWAP4 POP DUP6 SWAP7 POP JUMPDEST SWAP3 DUP2 ADD SWAP3 PUSH1 0x1 PUSH1 0x71 SHL DUP5 LT PUSH2 0x8AE JUMPI PUSH1 0x1 SWAP7 DUP8 ADD SWAP7 SWAP4 SWAP1 SWAP4 SHR SWAP3 JUMPDEST DUP7 PUSH2 0x7FFF EQ ISZERO PUSH2 0x8E0 JUMPI DUP5 PUSH2 0x8C8 JUMPI PUSH2 0x7FFF PUSH1 0xF0 SHL PUSH2 0x8D2 JUMP JUMPDEST PUSH1 0x1 PUSH1 0x1 PUSH1 0xF0 SHL SUB NOT JUMPDEST SWAP8 POP POP POP POP POP POP POP POP PUSH2 0x2D4 JUMP JUMPDEST PUSH1 0x1 PUSH1 0x70 SHL DUP5 LT ISZERO PUSH2 0x8F5 JUMPI PUSH1 0x0 SWAP7 POP PUSH2 0x902 JUMP JUMPDEST PUSH1 0x1 PUSH1 0x1 PUSH1 0x70 SHL SUB DUP5 AND SWAP4 POP JUMPDEST DUP4 PUSH1 0x70 DUP9 SWAP1 SHL DUP7 PUSH2 0x914 JUMPI PUSH1 0x0 PUSH2 0x91A JUMP JUMPDEST PUSH1 0x1 PUSH1 0x7F SHL JUMPDEST PUSH1 0x1 PUSH1 0x1 PUSH1 0x80 SHL SUB AND OR OR PUSH1 0x80 SHL SWAP8 POP POP POP POP POP POP POP POP PUSH2 0x2D4 JUMP JUMPDEST PUSH1 0x0 DUP2 SGT ISZERO PUSH2 0x951 JUMPI PUSH1 0x1 DUP5 SWAP1 SHL SWAP4 POP PUSH1 0x1 DUP8 SUB SWAP7 POP PUSH2 0x968 JUMP JUMPDEST PUSH1 0x0 DUP2 SLT ISZERO PUSH2 0x968 JUMPI PUSH1 0x1 DUP3 SWAP1 SHL SWAP2 POP PUSH1 0x1 DUP7 SUB SWAP7 POP JUMPDEST PUSH1 0x70 DUP2 SGT ISZERO PUSH2 0x97A JUMPI PUSH1 0x1 SWAP2 POP PUSH2 0x9C7 JUMP JUMPDEST PUSH1 0x1 DUP2 SGT ISZERO PUSH2 0x997 JUMPI PUSH1 0x1 DUP2 SUB PUSH1 0x1 DUP4 SUB SWAP1 SHR PUSH1 0x1 ADD SWAP2 POP PUSH2 0x9C7 JUMP JUMPDEST PUSH1 0x6F NOT DUP2 SLT ISZERO PUSH2 0x9AA JUMPI PUSH1 0x1 SWAP4 POP PUSH2 0x9C7 JUMP JUMPDEST PUSH1 0x0 NOT DUP2 SLT ISZERO PUSH2 0x9C7 JUMPI PUSH1 0x1 DUP2 PUSH1 0x0 SUB SUB PUSH1 0x1 DUP6 SUB SWAP1 SHR PUSH1 0x1 ADD SWAP4 POP JUMPDEST DUP2 DUP5 LT PUSH2 0x9D8 JUMPI DUP2 DUP5 SUB SWAP4 POP PUSH2 0x9E1 JUMP JUMPDEST DUP4 DUP3 SUB SWAP4 POP DUP3 SWAP5 POP JUMPDEST DUP4 PUSH2 0x9F7 JUMPI POP PUSH1 0x0 SWAP7 POP PUSH2 0x2D4 SWAP6 POP POP POP POP POP POP JUMP JUMPDEST PUSH1 0x0 PUSH2 0xA02 DUP6 PUSH2 0x2400 JUMP JUMPDEST SWAP1 POP DUP1 PUSH1 0x71 EQ ISZERO PUSH2 0xA28 JUMPI PUSH1 0x1 DUP6 SWAP1 SHR PUSH1 0x1 PUSH1 0x1 PUSH1 0x70 SHL SUB AND SWAP5 POP PUSH1 0x1 DUP9 ADD SWAP8 POP PUSH2 0xA77 JUMP JUMPDEST PUSH1 0x70 DUP2 LT ISZERO PUSH2 0xA6A JUMPI PUSH1 0x70 DUP2 SWAP1 SUB DUP1 DUP10 GT ISZERO PUSH2 0xA57 JUMPI DUP1 DUP7 SWAP1 SHL PUSH1 0x1 PUSH1 0x1 PUSH1 0x70 SHL SUB AND SWAP6 POP DUP1 DUP10 SUB SWAP9 POP PUSH2 0xA64 JUMP JUMPDEST PUSH1 0x0 SWAP9 PUSH1 0x0 NOT ADD SWAP6 SWAP1 SWAP6 SHL SWAP5 JUMPDEST POP PUSH2 0xA77 JUMP JUMPDEST PUSH1 0x1 PUSH1 0x1 PUSH1 0x70 SHL SUB DUP6 AND SWAP5 POP JUMPDEST DUP8 PUSH2 0x7FFF EQ ISZERO PUSH2 0xAAA JUMPI DUP6 PUSH2 0xA91 JUMPI PUSH2 0x7FFF PUSH1 0xF0 SHL PUSH2 0xA9B JUMP JUMPDEST PUSH1 0x1 PUSH1 0x1 PUSH1 0xF0 SHL SUB NOT JUMPDEST SWAP9 POP POP POP POP POP POP POP POP POP PUSH2 0x2D4 JUMP JUMPDEST DUP5 PUSH1 0x70 DUP10 SWAP1 SHL DUP8 PUSH2 0xABC JUMPI PUSH1 0x0 PUSH2 0xAC2 JUMP JUMPDEST PUSH1 0x1 PUSH1 0x7F SHL JUMPDEST PUSH1 0x1 PUSH1 0x1 PUSH1 0x80 SHL SUB AND OR OR PUSH1 0x80 SHL SWAP9 POP POP POP POP POP POP POP POP POP PUSH2 0x2D4 JUMP JUMPDEST PUSH1 0x0 PUSH1 0x1 PUSH1 0x7F SHL PUSH1 0x80 DUP4 SWAP1 SHR GT ISZERO PUSH2 0xAFD JUMPI POP PUSH2 0xFFFF PUSH1 0xEF SHL SWAP2 SWAP1 POP JUMP JUMPDEST PUSH2 0x3FFF PUSH1 0xF0 SHL PUSH1 0x1 PUSH1 0x1 PUSH1 0x80 SHL SUB NOT DUP4 AND EQ ISZERO PUSH2 0xB1C JUMPI POP PUSH1 0x0 SWAP2 SWAP1 POP JUMP JUMPDEST PUSH2 0x7FFF PUSH1 0xF0 DUP4 SWAP1 SHR DUP2 AND SWAP1 DUP2 EQ ISZERO PUSH2 0xB35 JUMPI POP SWAP1 SWAP2 SWAP1 POP JUMP JUMPDEST PUSH1 0x1 PUSH1 0x1 PUSH1 0x70 SHL SUB PUSH1 0x80 DUP5 SWAP1 SHR AND DUP2 PUSH2 0xB51 JUMPI PUSH1 0x1 SWAP2 POP PUSH2 0xB58 JUMP JUMPDEST PUSH1 0x1 PUSH1 0x70 SHL OR JUMPDEST DUP1 PUSH2 0xB6E JUMPI POP PUSH1 0x1 PUSH1 0x1 PUSH1 0xF0 SHL SUB NOT SWAP4 SWAP3 POP POP POP JUMP JUMPDEST PUSH1 0x0 PUSH2 0x406F DUP2 PUSH2 0x3FFF DUP6 LT PUSH2 0xB94 JUMPI POP PUSH1 0xF SWAP3 SWAP1 SWAP3 SHL SWAP2 PUSH1 0x0 SWAP2 POP PUSH2 0x3FFE NOT DUP5 ADD PUSH2 0xBD3 JUMP JUMPDEST PUSH1 0x1 SWAP3 POP PUSH1 0x1 PUSH1 0x70 SHL DUP5 LT PUSH2 0xBB6 JUMPI DUP5 PUSH2 0x3FFE SUB SWAP1 POP PUSH1 0xF DUP5 SWAP1 SHL SWAP4 POP PUSH2 0xBD3 JUMP JUMPDEST PUSH1 0x0 PUSH2 0xBC1 DUP6 PUSH2 0x2400 JUMP JUMPDEST PUSH1 0x7F DUP2 SWAP1 SUB SWAP6 SWAP1 SWAP6 SHL SWAP5 PUSH2 0x406D SUB SWAP2 POP POP JUMPDEST DUP4 PUSH1 0x1 PUSH1 0x7F SHL EQ ISZERO PUSH2 0xC0A JUMPI DUP3 ISZERO PUSH2 0xBE9 JUMPI PUSH1 0x1 ADD JUMPDEST PUSH1 0x0 PUSH2 0xBF4 DUP3 PUSH2 0x2400 JUMP JUMPDEST PUSH1 0x70 SUB SWAP1 POP DUP1 DUP3 SWAP1 SHL SWAP2 POP DUP1 DUP4 SUB SWAP3 POP POP PUSH2 0xC58 JUMP JUMPDEST PUSH1 0x0 DUP4 PUSH2 0xC18 JUMPI PUSH1 0x0 PUSH2 0xC1B JUMP JUMPDEST PUSH1 0x1 JUMPDEST PUSH1 0xFF AND SWAP1 POP JUMPDEST PUSH1 0x1 PUSH1 0x70 SHL DUP3 LT ISZERO PUSH2 0xC56 JUMPI SWAP4 DUP1 MUL PUSH1 0xFF DUP2 SWAP1 SHR PUSH1 0x7F DUP2 ADD SWAP2 SWAP1 SWAP2 SHR SWAP5 PUSH1 0x0 NOT SWAP4 SWAP1 SWAP4 ADD SWAP3 PUSH1 0x1 SWAP3 SWAP1 SWAP3 SHL SWAP1 DUP3 XOR ADD SWAP1 PUSH2 0xC21 JUMP JUMPDEST POP JUMPDEST DUP1 PUSH1 0x1 PUSH1 0x1 PUSH1 0x70 SHL SUB AND PUSH1 0x70 DUP4 SWAP1 SHL DUP5 PUSH2 0xC73 JUMPI PUSH1 0x0 PUSH2 0xC79 JUMP JUMPDEST PUSH1 0x1 PUSH1 0x7F SHL JUMPDEST PUSH1 0x1 PUSH1 0x1 PUSH1 0x80 SHL SUB AND OR OR PUSH1 0x80 SHL SWAP8 SWAP7 POP POP POP POP POP POP POP JUMP JUMPDEST PUSH1 0x0 PUSH1 0x1 PUSH1 0x7F SHL PUSH1 0x80 DUP4 SWAP1 SHR SWAP1 DUP2 GT SWAP1 PUSH2 0x7FFF PUSH1 0xF0 DUP6 SWAP1 SHR DUP2 AND SWAP2 PUSH1 0x1 PUSH1 0x1 PUSH1 0x70 SHL SUB AND SWAP1 DUP3 EQ DUP1 ISZERO PUSH2 0xCC4 JUMPI POP DUP1 ISZERO ISZERO JUMPDEST ISZERO PUSH2 0xCD8 JUMPI POP PUSH2 0xFFFF PUSH1 0xEF SHL SWAP5 SWAP4 POP POP POP POP JUMP JUMPDEST PUSH2 0x400D DUP3 GT ISZERO PUSH2 0xCFD JUMPI DUP3 PUSH2 0xCF2 JUMPI PUSH2 0x7FFF PUSH1 0xF0 SHL PUSH2 0x390 JUMP JUMPDEST PUSH1 0x0 SWAP6 SWAP5 POP POP POP POP POP JUMP JUMPDEST PUSH2 0x3F7F DUP3 LT ISZERO PUSH2 0xD16 JUMPI POP PUSH2 0x3FFF PUSH1 0xF0 SHL SWAP5 SWAP4 POP POP POP POP JUMP JUMPDEST DUP2 PUSH2 0xD24 JUMPI PUSH1 0x1 SWAP2 POP PUSH2 0xD2B JUMP JUMPDEST PUSH1 0x1 PUSH1 0x70 SHL OR JUMPDEST PUSH2 0x3FEF DUP3 GT ISZERO PUSH2 0xD41 JUMPI PUSH2 0x3FEE NOT DUP3 ADD SHL PUSH2 0xD53 JUMP JUMPDEST PUSH2 0x3FEF DUP3 LT ISZERO PUSH2 0xD53 JUMPI PUSH2 0x3FEF DUP3 SWAP1 SUB SHR JUMPDEST DUP3 DUP1 ISZERO PUSH2 0xD64 JUMPI POP PUSH2 0x2037 PUSH1 0x81 SHL DUP2 GT JUMPDEST ISZERO PUSH2 0xD74 JUMPI POP PUSH1 0x0 SWAP5 SWAP4 POP POP POP POP JUMP JUMPDEST DUP3 ISZERO DUP1 ISZERO PUSH2 0xD93 JUMPI POP PUSH18 0x3FFFFFFFFFFFFFFFFFFFFFFFFFFFFFFFFFFF DUP2 GT JUMPDEST ISZERO PUSH2 0xDA7 JUMPI POP PUSH2 0x7FFF PUSH1 0xF0 SHL SWAP5 SWAP4 POP POP POP POP JUMP JUMPDEST PUSH1 0x1 PUSH1 0x1 PUSH1 0x80 SHL SUB DUP2 AND SWAP1 PUSH1 0x80 SHR DUP4 DUP1 ISZERO PUSH2 0xDC1 JUMPI POP DUP2 ISZERO ISZERO JUMPDEST ISZERO PUSH2 0xDCD JUMPI SWAP1 NOT SWAP1 PUSH1 0x1 ADD JUMPDEST PUSH1 0x1 PUSH1 0x7F SHL DUP3 DUP2 AND ISZERO PUSH2 0xDF1 JUMPI PUSH17 0x16A09E667F3BCC908B2FB1366EA957D3E MUL PUSH1 0x80 SHR JUMPDEST PUSH1 0x1 PUSH1 0x7E SHL DUP4 AND ISZERO PUSH2 0xE14 JUMPI PUSH17 0x1306FE0A31B7152DE8D5A46305C85EDEC MUL PUSH1 0x80 SHR JUMPDEST PUSH1 0x1 PUSH1 0x7D SHL DUP4 AND ISZERO PUSH2 0xE37 JUMPI PUSH17 0x1172B83C7D517ADCDF7C8C50EB14A791F MUL PUSH1 0x80 SHR JUMPDEST PUSH1 0x1 PUSH1 0x7C SHL DUP4 AND ISZERO PUSH2 0xE5A JUMPI PUSH17 0x10B5586CF9890F6298B92B71842A98363 MUL PUSH1 0x80 SHR JUMPDEST PUSH1 0x1 PUSH1 0x7B SHL DUP4 AND ISZERO PUSH2 0xE7D JUMPI PUSH17 0x1059B0D31585743AE7C548EB68CA417FD MUL PUSH1 0x80 SHR JUMPDEST PUSH1 0x1 PUSH1 0x7A SHL DUP4 AND ISZERO PUSH2 0xEA0 JUMPI PUSH17 0x102C9A3E778060EE6F7CACA4F7A29BDE8 MUL PUSH1 0x80 SHR JUMPDEST PUSH1 0x1 PUSH1 0x79 SHL DUP4 AND ISZERO PUSH2 0xEC3 JUMPI PUSH17 0x10163DA9FB33356D84A66AE336DCDFA3F MUL PUSH1 0x80 SHR JUMPDEST PUSH1 0x1 PUSH1 0x78 SHL DUP4 AND ISZERO PUSH2 0xEE6 JUMPI PUSH17 0x100B1AFA5ABCBED6129AB13EC11DC9543 MUL PUSH1 0x80 SHR JUMPDEST PUSH1 0x1 PUSH1 0x77 SHL DUP4 AND ISZERO PUSH2 0xF09 JUMPI PUSH17 0x10058C86DA1C09EA1FF19D294CF2F679B MUL PUSH1 0x80 SHR JUMPDEST PUSH1 0x1 PUSH1 0x76 SHL DUP4 AND ISZERO PUSH2 0xF2C JUMPI PUSH17 0x1002C605E2E8CEC506D21BFC89A23A00F MUL PUSH1 0x80 SHR JUMPDEST PUSH1 0x1 PUSH1 0x75 SHL DUP4 AND ISZERO PUSH2 0xF4F JUMPI PUSH17 0x100162F3904051FA128BCA9C55C31E5DF MUL PUSH1 0x80 SHR JUMPDEST PUSH1 0x1 PUSH1 0x74 SHL DUP4 AND ISZERO PUSH2 0xF72 JUMPI PUSH17 0x1000B175EFFDC76BA38E31671CA939725 MUL PUSH1 0x80 SHR JUMPDEST PUSH1 0x1 PUSH1 0x73 SHL DUP4 AND ISZERO PUSH2 0xF95 JUMPI PUSH17 0x100058BA01FB9F96D6CACD4B180917C3D MUL PUSH1 0x80 SHR JUMPDEST PUSH1 0x1 PUSH1 0x72 SHL DUP4 AND ISZERO PUSH2 0xFB8 JUMPI PUSH17 0x10002C5CC37DA9491D0985C348C68E7B3 MUL PUSH1 0x80 SHR JUMPDEST PUSH1 0x1 PUSH1 0x71 SHL DUP4 AND ISZERO PUSH2 0xFDB JUMPI PUSH17 0x1000162E525EE054754457D5995292026 MUL PUSH1 0x80 SHR JUMPDEST PUSH1 0x1 PUSH1 0x70 SHL DUP4 AND ISZERO PUSH2 0xFFE JUMPI PUSH17 0x10000B17255775C040618BF4A4ADE83FC MUL PUSH1 0x80 SHR JUMPDEST PUSH1 0x1 PUSH1 0x6F SHL DUP4 AND ISZERO PUSH2 0x1021 JUMPI PUSH17 0x1000058B91B5BC9AE2EED81E9B7D4CFAB MUL PUSH1 0x80 SHR JUMPDEST PUSH1 0x1 PUSH1 0x6E SHL DUP4 AND ISZERO PUSH2 0x1044 JUMPI PUSH17 0x100002C5C89D5EC6CA4D7C8ACC017B7C9 MUL PUSH1 0x80 SHR JUMPDEST PUSH1 0x1 PUSH1 0x6D SHL DUP4 AND ISZERO PUSH2 0x1067 JUMPI PUSH17 0x10000162E43F4F831060E02D839A9D16D MUL PUSH1 0x80 SHR JUMPDEST PUSH1 0x1 PUSH1 0x6C SHL DUP4 AND ISZERO PUSH2 0x108A JUMPI PUSH17 0x100000B1721BCFC99D9F890EA06911763 MUL PUSH1 0x80 SHR JUMPDEST PUSH1 0x1 PUSH1 0x6B SHL DUP4 AND ISZERO PUSH2 0x10AD JUMPI PUSH17 0x10000058B90CF1E6D97F9CA14DBCC1628 MUL PUSH1 0x80 SHR JUMPDEST PUSH1 0x1 PUSH1 0x6A SHL DUP4 AND ISZERO PUSH2 0x10D0 JUMPI PUSH17 0x1000002C5C863B73F016468F6BAC5CA2B MUL PUSH1 0x80 SHR JUMPDEST PUSH1 0x1 PUSH1 0x69 SHL DUP4 AND ISZERO PUSH2 0x10F3 JUMPI PUSH17 0x100000162E430E5A18F6119E3C02282A5 MUL PUSH1 0x80 SHR JUMPDEST PUSH1 0x1 PUSH1 0x68 SHL DUP4 AND ISZERO PUSH2 0x1116 JUMPI PUSH17 0x1000000B1721835514B86E6D96EFD1BFE MUL PUSH1 0x80 SHR JUMPDEST PUSH1 0x1 PUSH1 0x67 SHL DUP4 AND ISZERO PUSH2 0x1139 JUMPI PUSH17 0x100000058B90C0B48C6BE5DF846C5B2EF MUL PUSH1 0x80 SHR JUMPDEST PUSH1 0x1 PUSH1 0x66 SHL DUP4 AND ISZERO PUSH2 0x115C JUMPI PUSH17 0x10000002C5C8601CC6B9E94213C72737A MUL PUSH1 0x80 SHR JUMPDEST PUSH1 0x1 PUSH1 0x65 SHL DUP4 AND ISZERO PUSH2 0x117F JUMPI PUSH17 0x1000000162E42FFF037DF38AA2B219F06 MUL PUSH1 0x80 SHR JUMPDEST PUSH1 0x1 PUSH1 0x64 SHL DUP4 AND ISZERO PUSH2 0x11A2 JUMPI PUSH17 0x10000000B17217FBA9C739AA5819F44F9 MUL PUSH1 0x80 SHR JUMPDEST PUSH1 0x1 PUSH1 0x63 SHL DUP4 AND ISZERO PUSH2 0x11C5 JUMPI PUSH17 0x1000000058B90BFCDEE5ACD3C1CEDC823 MUL PUSH1 0x80 SHR JUMPDEST PUSH1 0x1 PUSH1 0x62 SHL DUP4 AND ISZERO PUSH2 0x11E8 JUMPI PUSH17 0x100000002C5C85FE31F35A6A30DA1BE50 MUL PUSH1 0x80 SHR JUMPDEST PUSH1 0x1 PUSH1 0x61 SHL DUP4 AND ISZERO PUSH2 0x120B JUMPI PUSH17 0x10000000162E42FF0999CE3541B9FFFCF MUL PUSH1 0x80 SHR JUMPDEST PUSH1 0x1 PUSH1 0x60 SHL DUP4 AND ISZERO PUSH2 0x122E JUMPI PUSH17 0x100000000B17217F80F4EF5AADDA45554 MUL PUSH1 0x80 SHR JUMPDEST PUSH1 0x1 PUSH1 0x5F SHL DUP4 AND ISZERO PUSH2 0x1251 JUMPI PUSH17 0x10000000058B90BFBF8479BD5A81B51AD MUL PUSH1 0x80 SHR JUMPDEST PUSH1 0x1 PUSH1 0x5E SHL DUP4 AND ISZERO PUSH2 0x1274 JUMPI PUSH17 0x1000000002C5C85FDF84BD62AE30A74CC MUL PUSH1 0x80 SHR JUMPDEST PUSH1 0x1 PUSH1 0x5D SHL DUP4 AND ISZERO PUSH2 0x1297 JUMPI PUSH17 0x100000000162E42FEFB2FED257559BDAA MUL PUSH1 0x80 SHR JUMPDEST PUSH1 0x1 PUSH1 0x5C SHL DUP4 AND ISZERO PUSH2 0x12BA JUMPI PUSH17 0x1000000000B17217F7D5A7716BBA4A9AE MUL PUSH1 0x80 SHR JUMPDEST PUSH1 0x1 PUSH1 0x5B SHL DUP4 AND ISZERO PUSH2 0x12DD JUMPI PUSH17 0x100000000058B90BFBE9DDBAC5E109CCE MUL PUSH1 0x80 SHR JUMPDEST PUSH1 0x1 PUSH1 0x5A SHL DUP4 AND ISZERO PUSH2 0x1300 JUMPI PUSH17 0x10000000002C5C85FDF4B15DE6F17EB0D MUL PUSH1 0x80 SHR JUMPDEST PUSH1 0x1 PUSH1 0x59 SHL DUP4 AND ISZERO PUSH2 0x1323 JUMPI PUSH17 0x1000000000162E42FEFA494F1478FDE05 MUL PUSH1 0x80 SHR JUMPDEST PUSH1 0x1 PUSH1 0x58 SHL DUP4 AND ISZERO PUSH2 0x1346 JUMPI PUSH17 0x10000000000B17217F7D20CF927C8E94C MUL PUSH1 0x80 SHR JUMPDEST PUSH1 0x1 PUSH1 0x57 SHL DUP4 AND ISZERO PUSH2 0x1369 JUMPI PUSH17 0x1000000000058B90BFBE8F71CB4E4B33D MUL PUSH1 0x80 SHR JUMPDEST PUSH1 0x1 PUSH1 0x56 SHL DUP4 AND ISZERO PUSH2 0x138C JUMPI PUSH17 0x100000000002C5C85FDF477B662B26945 MUL PUSH1 0x80 SHR JUMPDEST PUSH1 0x1 PUSH1 0x55 SHL DUP4 AND ISZERO PUSH2 0x13AF JUMPI PUSH17 0x10000000000162E42FEFA3AE53369388C MUL PUSH1 0x80 SHR JUMPDEST PUSH1 0x1 PUSH1 0x54 SHL DUP4 AND ISZERO PUSH2 0x13D2 JUMPI PUSH17 0x100000000000B17217F7D1D351A389D40 MUL PUSH1 0x80 SHR JUMPDEST PUSH1 0x1 PUSH1 0x53 SHL DUP4 AND ISZERO PUSH2 0x13F5 JUMPI PUSH17 0x10000000000058B90BFBE8E8B2D3D4EDE MUL PUSH1 0x80 SHR JUMPDEST PUSH1 0x1 PUSH1 0x52 SHL DUP4 AND ISZERO PUSH2 0x1418 JUMPI PUSH17 0x1000000000002C5C85FDF4741BEA6E77E MUL PUSH1 0x80 SHR JUMPDEST PUSH1 0x1 PUSH1 0x51 SHL DUP4 AND ISZERO PUSH2 0x143B JUMPI PUSH17 0x100000000000162E42FEFA39FE95583C2 MUL PUSH1 0x80 SHR JUMPDEST PUSH1 0x1 PUSH1 0x50 SHL DUP4 AND ISZERO PUSH2 0x145E JUMPI PUSH17 0x1000000000000B17217F7D1CFB72B45E1 MUL PUSH1 0x80 SHR JUMPDEST PUSH10 0x80000000000000000000 DUP4 AND ISZERO PUSH2 0x1487 JUMPI PUSH17 0x100000000000058B90BFBE8E7CC35C3F0 MUL PUSH1 0x80 SHR JUMPDEST PUSH10 0x40000000000000000000 DUP4 AND ISZERO PUSH2 0x14B0 JUMPI PUSH17 0x10000000000002C5C85FDF473E242EA38 MUL PUSH1 0x80 SHR JUMPDEST PUSH10 0x20000000000000000000 DUP4 AND ISZERO PUSH2 0x14D9 JUMPI PUSH17 0x1000000000000162E42FEFA39F02B772C MUL PUSH1 0x80 SHR JUMPDEST PUSH10 0x10000000000000000000 DUP4 AND ISZERO PUSH2 0x1502 JUMPI PUSH17 0x10000000000000B17217F7D1CF7D83C1A MUL PUSH1 0x80 SHR JUMPDEST PUSH10 0x8000000000000000000 DUP4 AND ISZERO PUSH2 0x152B JUMPI PUSH17 0x1000000000000058B90BFBE8E7BDCBE2E MUL PUSH1 0x80 SHR JUMPDEST PUSH10 0x4000000000000000000 DUP4 AND ISZERO PUSH2 0x1554 JUMPI PUSH17 0x100000000000002C5C85FDF473DEA871F MUL PUSH1 0x80 SHR JUMPDEST PUSH10 0x2000000000000000000 DUP4 AND ISZERO PUSH2 0x157D JUMPI PUSH17 0x10000000000000162E42FEFA39EF44D91 MUL PUSH1 0x80 SHR JUMPDEST PUSH10 0x1000000000000000000 DUP4 AND ISZERO PUSH2 0x15A6 JUMPI PUSH17 0x100000000000000B17217F7D1CF79E949 MUL PUSH1 0x80 SHR JUMPDEST PUSH9 0x800000000000000000 DUP4 AND ISZERO PUSH2 0x15CE JUMPI PUSH17 0x10000000000000058B90BFBE8E7BCE544 MUL PUSH1 0x80 SHR JUMPDEST PUSH9 0x400000000000000000 DUP4 AND ISZERO PUSH2 0x15F6 JUMPI PUSH17 0x1000000000000002C5C85FDF473DE6ECA MUL PUSH1 0x80 SHR JUMPDEST PUSH9 0x200000000000000000 DUP4 AND ISZERO PUSH2 0x161E JUMPI PUSH17 0x100000000000000162E42FEFA39EF366F MUL PUSH1 0x80 SHR JUMPDEST PUSH9 0x100000000000000000 DUP4 AND ISZERO PUSH2 0x1646 JUMPI PUSH17 0x1000000000000000B17217F7D1CF79AFA MUL PUSH1 0x80 SHR JUMPDEST PUSH9 0x80000000000000000 DUP4 AND ISZERO PUSH2 0x166E JUMPI PUSH17 0x100000000000000058B90BFBE8E7BCD6D MUL PUSH1 0x80 SHR JUMPDEST PUSH9 0x40000000000000000 DUP4 AND ISZERO PUSH2 0x1696 JUMPI PUSH17 0x10000000000000002C5C85FDF473DE6B2 MUL PUSH1 0x80 SHR JUMPDEST PUSH9 0x20000000000000000 DUP4 AND ISZERO PUSH2 0x16BE JUMPI PUSH17 0x1000000000000000162E42FEFA39EF358 MUL PUSH1 0x80 SHR JUMPDEST PUSH1 0x1 PUSH1 0x40 SHL DUP4 AND ISZERO PUSH2 0x16E1 JUMPI PUSH17 0x10000000000000000B17217F7D1CF79AB MUL PUSH1 0x80 SHR JUMPDEST PUSH8 0x8000000000000000 DUP4 AND ISZERO PUSH2 0x1708 JUMPI PUSH17 0x1000000000000000058B90BFBE8E7BCD5 MUL PUSH1 0x80 SHR JUMPDEST PUSH8 0x4000000000000000 DUP4 AND ISZERO PUSH2 0x172F JUMPI PUSH17 0x100000000000000002C5C85FDF473DE6A MUL PUSH1 0x80 SHR JUMPDEST PUSH8 0x2000000000000000 DUP4 AND ISZERO PUSH2 0x1756 JUMPI PUSH17 0x10000000000000000162E42FEFA39EF34 MUL PUSH1 0x80 SHR JUMPDEST PUSH8 0x1000000000000000 DUP4 AND ISZERO PUSH2 0x177D JUMPI PUSH17 0x100000000000000000B17217F7D1CF799 MUL PUSH1 0x80 SHR JUMPDEST PUSH8 0x800000000000000 DUP4 AND ISZERO PUSH2 0x17A4 JUMPI PUSH17 0x10000000000000000058B90BFBE8E7BCC MUL PUSH1 0x80 SHR JUMPDEST PUSH8 0x400000000000000 DUP4 AND ISZERO PUSH2 0x17CB JUMPI PUSH17 0x1000000000000000002C5C85FDF473DE5 MUL PUSH1 0x80 SHR JUMPDEST PUSH8 0x200000000000000 DUP4 AND ISZERO PUSH2 0x17F2 JUMPI PUSH17 0x100000000000000000162E42FEFA39EF2 MUL PUSH1 0x80 SHR JUMPDEST PUSH8 0x100000000000000 DUP4 AND ISZERO PUSH2 0x1819 JUMPI PUSH17 0x1000000000000000000B17217F7D1CF78 MUL PUSH1 0x80 SHR JUMPDEST PUSH7 0x80000000000000 DUP4 AND ISZERO PUSH2 0x183F JUMPI PUSH17 0x100000000000000000058B90BFBE8E7BB MUL PUSH1 0x80 SHR JUMPDEST PUSH7 0x40000000000000 DUP4 AND ISZERO PUSH2 0x1865 JUMPI PUSH17 0x10000000000000000002C5C85FDF473DD MUL PUSH1 0x80 SHR JUMPDEST PUSH7 0x20000000000000 DUP4 AND ISZERO PUSH2 0x188B JUMPI PUSH17 0x1000000000000000000162E42FEFA39EE MUL PUSH1 0x80 SHR JUMPDEST PUSH7 0x10000000000000 DUP4 AND ISZERO PUSH2 0x18B1 JUMPI PUSH17 0x10000000000000000000B17217F7D1CF6 MUL PUSH1 0x80 SHR JUMPDEST PUSH7 0x8000000000000 DUP4 AND ISZERO PUSH2 0x18D7 JUMPI PUSH17 0x1000000000000000000058B90BFBE8E7A MUL PUSH1 0x80 SHR JUMPDEST PUSH7 0x4000000000000 DUP4 AND ISZERO PUSH2 0x18FD JUMPI PUSH17 0x100000000000000000002C5C85FDF473C MUL PUSH1 0x80 SHR JUMPDEST PUSH7 0x2000000000000 DUP4 AND ISZERO PUSH2 0x1923 JUMPI PUSH17 0x10000000000000000000162E42FEFA39D MUL PUSH1 0x80 SHR JUMPDEST PUSH7 0x1000000000000 DUP4 AND ISZERO PUSH2 0x1949 JUMPI PUSH17 0x100000000000000000000B17217F7D1CE MUL PUSH1 0x80 SHR JUMPDEST PUSH6 0x800000000000 DUP4 AND ISZERO PUSH2 0x196E JUMPI PUSH17 0x10000000000000000000058B90BFBE8E6 MUL PUSH1 0x80 SHR JUMPDEST PUSH6 0x400000000000 DUP4 AND ISZERO PUSH2 0x1993 JUMPI PUSH17 0x1000000000000000000002C5C85FDF472 MUL PUSH1 0x80 SHR JUMPDEST PUSH6 0x200000000000 DUP4 AND ISZERO PUSH2 0x19B8 JUMPI PUSH17 0x100000000000000000000162E42FEFA38 MUL PUSH1 0x80 SHR JUMPDEST PUSH6 0x100000000000 DUP4 AND ISZERO PUSH2 0x19DD JUMPI PUSH17 0x1000000000000000000000B17217F7D1B MUL PUSH1 0x80 SHR JUMPDEST PUSH6 0x80000000000 DUP4 AND ISZERO PUSH2 0x1A02 JUMPI PUSH17 0x100000000000000000000058B90BFBE8D MUL PUSH1 0x80 SHR JUMPDEST PUSH6 0x40000000000 DUP4 AND ISZERO PUSH2 0x1A27 JUMPI PUSH17 0x10000000000000000000002C5C85FDF46 MUL PUSH1 0x80 SHR JUMPDEST PUSH6 0x20000000000 DUP4 AND ISZERO PUSH2 0x1A4C JUMPI PUSH17 0x1000000000000000000000162E42FEFA2 MUL PUSH1 0x80 SHR JUMPDEST PUSH6 0x10000000000 DUP4 AND ISZERO PUSH2 0x1A71 JUMPI PUSH17 0x10000000000000000000000B17217F7D0 MUL PUSH1 0x80 SHR JUMPDEST PUSH5 0x8000000000 DUP4 AND ISZERO PUSH2 0x1A95 JUMPI PUSH17 0x1000000000000000000000058B90BFBE7 MUL PUSH1 0x80 SHR JUMPDEST PUSH5 0x4000000000 DUP4 AND ISZERO PUSH2 0x1AB9 JUMPI PUSH17 0x100000000000000000000002C5C85FDF3 MUL PUSH1 0x80 SHR JUMPDEST PUSH5 0x2000000000 DUP4 AND ISZERO PUSH2 0x1ADD JUMPI PUSH17 0x10000000000000000000000162E42FEF9 MUL PUSH1 0x80 SHR JUMPDEST PUSH5 0x1000000000 DUP4 AND ISZERO PUSH2 0x1B01 JUMPI PUSH17 0x100000000000000000000000B17217F7C MUL PUSH1 0x80 SHR JUMPDEST PUSH5 0x800000000 DUP4 AND ISZERO PUSH2 0x1B25 JUMPI PUSH17 0x10000000000000000000000058B90BFBD MUL PUSH1 0x80 SHR JUMPDEST PUSH5 0x400000000 DUP4 AND ISZERO PUSH2 0x1B49 JUMPI PUSH17 0x1000000000000000000000002C5C85FDE MUL PUSH1 0x80 SHR JUMPDEST PUSH5 0x200000000 DUP4 AND ISZERO PUSH2 0x1B6D JUMPI PUSH17 0x100000000000000000000000162E42FEE MUL PUSH1 0x80 SHR JUMPDEST PUSH5 0x100000000 DUP4 AND ISZERO PUSH2 0x1B91 JUMPI PUSH17 0x1000000000000000000000000B17217F6 MUL PUSH1 0x80 SHR JUMPDEST PUSH4 0x80000000 DUP4 AND ISZERO PUSH2 0x1BB4 JUMPI PUSH17 0x100000000000000000000000058B90BFA MUL PUSH1 0x80 SHR JUMPDEST PUSH4 0x40000000 DUP4 AND ISZERO PUSH2 0x1BD7 JUMPI PUSH17 0x10000000000000000000000002C5C85FC MUL PUSH1 0x80 SHR JUMPDEST PUSH4 0x20000000 DUP4 AND ISZERO PUSH2 0x1BFA JUMPI PUSH17 0x1000000000000000000000000162E42FD MUL PUSH1 0x80 SHR JUMPDEST PUSH4 0x10000000 DUP4 AND ISZERO PUSH2 0x1C1D JUMPI PUSH17 0x10000000000000000000000000B17217E MUL PUSH1 0x80 SHR JUMPDEST PUSH4 0x8000000 DUP4 AND ISZERO PUSH2 0x1C40 JUMPI PUSH17 0x1000000000000000000000000058B90BE MUL PUSH1 0x80 SHR JUMPDEST PUSH4 0x4000000 DUP4 AND ISZERO PUSH2 0x1C63 JUMPI PUSH17 0x100000000000000000000000002C5C85E MUL PUSH1 0x80 SHR JUMPDEST PUSH4 0x2000000 DUP4 AND ISZERO PUSH2 0x1C86 JUMPI PUSH17 0x10000000000000000000000000162E42E MUL PUSH1 0x80 SHR JUMPDEST PUSH4 0x1000000 DUP4 AND ISZERO PUSH2 0x1CA9 JUMPI PUSH17 0x100000000000000000000000000B17216 MUL PUSH1 0x80 SHR JUMPDEST PUSH3 0x800000 DUP4 AND ISZERO PUSH2 0x1CCB JUMPI PUSH17 0x10000000000000000000000000058B90A MUL PUSH1 0x80 SHR JUMPDEST PUSH3 0x400000 DUP4 AND ISZERO PUSH2 0x1CED JUMPI PUSH17 0x1000000000000000000000000002C5C84 MUL PUSH1 0x80 SHR JUMPDEST PUSH3 0x200000 DUP4 AND ISZERO PUSH2 0x1D0F JUMPI PUSH17 0x100000000000000000000000000162E41 MUL PUSH1 0x80 SHR JUMPDEST PUSH3 0x100000 DUP4 AND ISZERO PUSH2 0x1D31 JUMPI PUSH17 0x1000000000000000000000000000B1720 MUL PUSH1 0x80 SHR JUMPDEST PUSH3 0x80000 DUP4 AND ISZERO PUSH2 0x1D53 JUMPI PUSH17 0x100000000000000000000000000058B8F MUL PUSH1 0x80 SHR JUMPDEST PUSH3 0x40000 DUP4 AND ISZERO PUSH2 0x1D75 JUMPI PUSH17 0x10000000000000000000000000002C5C7 MUL PUSH1 0x80 SHR JUMPDEST PUSH3 0x20000 DUP4 AND ISZERO PUSH2 0x1D97 JUMPI PUSH17 0x1000000000000000000000000000162E3 MUL PUSH1 0x80 SHR JUMPDEST PUSH3 0x10000 DUP4 AND ISZERO PUSH2 0x1DB9 JUMPI PUSH17 0x10000000000000000000000000000B171 MUL PUSH1 0x80 SHR JUMPDEST PUSH2 0x8000 DUP4 AND ISZERO PUSH2 0x1DDA JUMPI PUSH17 0x1000000000000000000000000000058B8 MUL PUSH1 0x80 SHR JUMPDEST PUSH2 0x4000 DUP4 AND ISZERO PUSH2 0x1DFB JUMPI PUSH17 0x100000000000000000000000000002C5B MUL PUSH1 0x80 SHR JUMPDEST PUSH2 0x2000 DUP4 AND ISZERO PUSH2 0x1E1C JUMPI PUSH17 0x10000000000000000000000000000162D MUL PUSH1 0x80 SHR JUMPDEST PUSH2 0x1000 DUP4 AND ISZERO PUSH2 0x1E3D JUMPI PUSH17 0x100000000000000000000000000000B16 MUL PUSH1 0x80 SHR JUMPDEST PUSH2 0x800 DUP4 AND ISZERO PUSH2 0x1E5E JUMPI PUSH17 0x10000000000000000000000000000058A MUL PUSH1 0x80 SHR JUMPDEST PUSH2 0x400 DUP4 AND ISZERO PUSH2 0x1E7F JUMPI PUSH17 0x1000000000000000000000000000002C4 MUL PUSH1 0x80 SHR JUMPDEST PUSH2 0x200 DUP4 AND ISZERO PUSH2 0x1EA0 JUMPI PUSH17 0x100000000000000000000000000000161 MUL PUSH1 0x80 SHR JUMPDEST PUSH2 0x100 DUP4 AND ISZERO PUSH2 0x1EC1 JUMPI PUSH17 0x1000000000000000000000000000000B0 MUL PUSH1 0x80 SHR JUMPDEST PUSH1 0x80 DUP4 AND ISZERO PUSH2 0x1EE1 JUMPI PUSH17 0x100000000000000000000000000000057 MUL PUSH1 0x80 SHR JUMPDEST PUSH1 0x40 DUP4 AND ISZERO PUSH2 0x1F01 JUMPI PUSH17 0x10000000000000000000000000000002B MUL PUSH1 0x80 SHR JUMPDEST PUSH1 0x20 DUP4 AND ISZERO PUSH2 0x1F21 JUMPI PUSH17 0x100000000000000000000000000000015 MUL PUSH1 0x80 SHR JUMPDEST PUSH1 0x10 DUP4 AND ISZERO PUSH2 0x1F41 JUMPI PUSH17 0x10000000000000000000000000000000A MUL PUSH1 0x80 SHR JUMPDEST PUSH1 0x8 DUP4 AND ISZERO PUSH2 0x1F61 JUMPI PUSH17 0x100000000000000000000000000000004 MUL PUSH1 0x80 SHR JUMPDEST PUSH1 0x4 DUP4 AND ISZERO PUSH2 0x1F81 JUMPI PUSH17 0x100000000000000000000000000000001 MUL PUSH1 0x80 SHR JUMPDEST DUP5 PUSH2 0x1FA2 JUMPI PUSH1 0xF DUP2 SWAP1 SHR PUSH1 0x1 PUSH1 0x1 PUSH1 0x70 SHL SUB AND SWAP1 POP PUSH2 0x3FFF DUP3 ADD SWAP2 POP PUSH2 0x1FD1 JUMP JUMPDEST PUSH2 0x3FFE DUP3 GT PUSH2 0x1FC7 JUMPI PUSH1 0xF DUP2 SWAP1 SHR PUSH1 0x1 PUSH1 0x1 PUSH1 0x70 SHL SUB AND SWAP1 POP DUP2 PUSH2 0x3FFF SUB SWAP2 POP PUSH2 0x1FD1 JUMP JUMPDEST PUSH1 0x0 SWAP2 PUSH2 0x3FEE NOT ADD SHR JUMPDEST PUSH1 0x70 SWAP2 SWAP1 SWAP2 SHL OR PUSH1 0x80 SHL SWAP6 SWAP5 POP POP POP POP POP JUMP JUMPDEST PUSH1 0x0 PUSH2 0x1FF6 DUP4 PUSH1 0x1 PUSH1 0xFF SHL DUP5 XOR PUSH2 0x70F JUMP JUMPDEST SWAP4 SWAP3 POP POP POP JUMP JUMPDEST PUSH1 0x0 PUSH2 0x7FFF PUSH1 0xF0 DUP5 DUP2 SHR DUP3 AND SWAP2 SWAP1 DUP5 SWAP1 SHR DUP2 AND SWAP1 DUP3 EQ ISZERO PUSH2 0x208C JUMPI DUP1 PUSH2 0x7FFF EQ ISZERO PUSH2 0x206B JUMPI PUSH1 0x1 PUSH1 0x1 PUSH1 0x80 SHL SUB NOT DUP6 DUP2 AND SWAP1 DUP6 AND EQ ISZERO PUSH2 0x2048 JUMPI POP POP POP PUSH1 0x1 PUSH1 0xFF SHL DUP2 AND DUP3 XOR PUSH2 0x2D4 JUMP JUMPDEST PUSH1 0x1 PUSH1 0xFF SHL PUSH1 0x1 PUSH1 0x1 PUSH1 0x80 SHL SUB NOT DUP7 DUP7 XOR AND EQ ISZERO PUSH2 0x753 JUMPI POP POP POP DUP2 DUP2 OR PUSH2 0x2D4 JUMP JUMPDEST PUSH1 0x1 PUSH1 0x80 SHL PUSH1 0x1 PUSH1 0xFF SHL SUB DUP5 AND PUSH2 0x48C JUMPI POP PUSH2 0xFFFF PUSH1 0xEF SHL SWAP2 POP PUSH2 0x2D4 SWAP1 POP JUMP JUMPDEST DUP1 PUSH2 0x7FFF EQ ISZERO PUSH2 0x20C8 JUMPI PUSH1 0x1 PUSH1 0x80 SHL PUSH1 0x1 PUSH1 0xFF SHL SUB DUP6 AND PUSH2 0x20B7 JUMPI POP PUSH2 0xFFFF PUSH1 0xEF SHL SWAP2 POP PUSH2 0x2D4 SWAP1 POP JUMP JUMPDEST POP POP POP PUSH1 0x1 PUSH1 0xFF SHL DUP3 AND DUP2 XOR PUSH2 0x2D4 JUMP JUMPDEST PUSH1 0x1 PUSH1 0x1 PUSH1 0x70 SHL SUB PUSH1 0x80 DUP7 SWAP1 SHR AND DUP3 PUSH2 0x20E4 JUMPI PUSH1 0x1 SWAP3 POP PUSH2 0x20EB JUMP JUMPDEST PUSH1 0x1 PUSH1 0x70 SHL OR JUMPDEST PUSH1 0x1 PUSH1 0x1 PUSH1 0x70 SHL SUB PUSH1 0x80 DUP7 SWAP1 SHR AND DUP3 PUSH2 0x2107 JUMPI PUSH1 0x1 SWAP3 POP PUSH2 0x210E JUMP JUMPDEST PUSH1 0x1 PUSH1 0x70 SHL OR JUMPDEST SWAP1 DUP2 MUL SWAP1 DUP2 PUSH2 0x212B JUMPI PUSH1 0x1 PUSH1 0xFF SHL DUP8 DUP8 XOR AND PUSH2 0x5C2 JUMPI PUSH1 0x0 PUSH2 0x5C8 JUMP JUMPDEST SWAP3 DUP3 ADD SWAP3 PUSH1 0x0 PUSH1 0x1 PUSH1 0xE1 SHL DUP4 LT ISZERO PUSH2 0x215E JUMPI PUSH1 0x1 PUSH1 0xE0 SHL DUP4 LT ISZERO PUSH2 0x2157 JUMPI PUSH2 0x2152 DUP4 PUSH2 0x2400 JUMP JUMPDEST PUSH2 0x2161 JUMP JUMPDEST PUSH1 0xE0 PUSH2 0x2161 JUMP JUMPDEST PUSH1 0xE1 JUMPDEST SWAP1 POP PUSH2 0x4070 DUP2 DUP7 ADD LT ISZERO PUSH2 0x217C JUMPI PUSH1 0x0 SWAP5 POP PUSH1 0x0 SWAP3 POP PUSH2 0x2219 JUMP JUMPDEST PUSH2 0x40E0 DUP2 DUP7 ADD LT ISZERO PUSH2 0x21BF JUMPI PUSH2 0x4070 DUP6 LT ISZERO PUSH2 0x21A1 JUMPI DUP5 PUSH2 0x4070 SUB DUP4 SWAP1 SHR SWAP3 POP PUSH2 0x21B6 JUMP JUMPDEST PUSH2 0x4070 DUP6 GT ISZERO PUSH2 0x21B6 JUMPI PUSH2 0x4070 DUP6 SUB DUP4 SWAP1 SHL SWAP3 POP JUMPDEST PUSH1 0x0 SWAP5 POP PUSH2 0x2219 JUMP JUMPDEST PUSH2 0xC0DD DUP2 DUP7 ADD GT ISZERO PUSH2 0x21D9 JUMPI PUSH2 0x7FFF SWAP5 POP PUSH1 0x0 SWAP3 POP PUSH2 0x2219 JUMP JUMPDEST PUSH1 0x70 DUP2 GT ISZERO PUSH2 0x21F0 JUMPI PUSH1 0x70 DUP2 SUB DUP4 SWAP1 SHR SWAP3 POP PUSH2 0x2203 JUMP JUMPDEST PUSH1 0x70 DUP2 LT ISZERO PUSH2 0x2203 JUMPI DUP1 PUSH1 0x70 SUB DUP4 SWAP1 SHL SWAP3 POP JUMPDEST PUSH1 0x1 PUSH1 0x1 PUSH1 0x70 SHL SUB DUP4 AND SWAP3 POP PUSH2 0x40DF DUP2 DUP7 ADD SUB SWAP5 POP JUMPDEST DUP3 PUSH1 0x70 DUP7 SWAP1 SHL DUP9 DUP11 XOR PUSH1 0x1 PUSH1 0x7F SHL PUSH1 0x80 SHL AND PUSH1 0x80 SHR PUSH1 0x1 PUSH1 0x1 PUSH1 0x80 SHL SUB AND OR OR PUSH1 0x80 SHL SWAP6 POP POP POP POP POP POP PUSH2 0x2D4 JUMP JUMPDEST PUSH1 0x0 PUSH2 0x7FFF PUSH1 0xF0 DUP4 SWAP1 SHR AND PUSH2 0x3FFF DUP2 LT ISZERO PUSH2 0x2266 JUMPI POP PUSH1 0x0 SWAP3 SWAP2 POP POP JUMP JUMPDEST PUSH1 0x1 PUSH1 0x7F SHL PUSH1 0x80 DUP5 SWAP1 SHR LT PUSH2 0x227A JUMPI PUSH1 0x0 DUP1 REVERT JUMPDEST PUSH2 0x40FE DUP2 GT ISZERO PUSH2 0x2289 JUMPI PUSH1 0x0 DUP1 REVERT JUMPDEST PUSH1 0x1 PUSH1 0x70 SHL PUSH1 0x1 PUSH1 0x1 PUSH1 0x70 SHL SUB PUSH1 0x80 DUP6 SWAP1 SHR AND OR PUSH2 0x406F DUP3 LT ISZERO PUSH2 0x22B3 JUMPI PUSH2 0x406F DUP3 SWAP1 SUB SHR PUSH2 0x1FF6 JUMP JUMPDEST PUSH2 0x406F DUP3 GT ISZERO PUSH2 0x1FF6 JUMPI PUSH2 0x406E NOT DUP3 ADD SHL SWAP4 SWAP3 POP POP POP JUMP JUMPDEST PUSH1 0x0 DUP2 PUSH2 0x22DA JUMPI POP PUSH1 0x0 SWAP2 SWAP1 POP JUMP JUMPDEST PUSH1 0x0 DUP1 DUP4 SGT PUSH2 0x22EC JUMPI DUP3 PUSH1 0x0 SUB PUSH2 0x22EE JUMP JUMPDEST DUP3 JUMPDEST SWAP1 POP PUSH1 0x0 PUSH2 0x22FB DUP3 PUSH2 0x2400 JUMP JUMPDEST SWAP1 POP PUSH1 0x70 DUP2 LT ISZERO PUSH2 0x2314 JUMPI DUP1 PUSH1 0x70 SUB DUP3 SWAP1 SHL SWAP2 POP PUSH2 0x2327 JUMP JUMPDEST PUSH1 0x70 DUP2 GT ISZERO PUSH2 0x2327 JUMPI PUSH1 0x70 DUP2 SUB DUP3 SWAP1 SHR SWAP2 POP JUMPDEST PUSH1 0x1 PUSH1 0x1 PUSH1 0x70 SHL SUB SWAP1 SWAP2 AND PUSH2 0x3FFF DUP3 ADD PUSH1 0x70 SHL OR SWAP1 PUSH1 0x0 DUP5 SLT ISZERO PUSH2 0x234F JUMPI PUSH1 0x1 PUSH1 0x7F SHL DUP3 OR SWAP2 POP JUMPDEST POP PUSH1 0x80 SHL SWAP3 SWAP2 POP POP JUMP JUMPDEST PUSH1 0x0 PUSH2 0x7FFF PUSH1 0xF0 DUP4 SWAP1 SHR AND PUSH2 0x40FE DUP2 GT ISZERO PUSH2 0x2373 JUMPI PUSH1 0x0 DUP1 REVERT JUMPDEST PUSH2 0x3FFF DUP2 LT ISZERO PUSH2 0x2386 JUMPI POP PUSH1 0x0 SWAP3 SWAP2 POP POP JUMP JUMPDEST PUSH1 0x1 PUSH1 0x70 SHL PUSH1 0x1 PUSH1 0x1 PUSH1 0x70 SHL SUB PUSH1 0x80 DUP6 SWAP1 SHR AND OR PUSH2 0x406F DUP3 LT ISZERO PUSH2 0x23B0 JUMPI PUSH2 0x406F DUP3 SWAP1 SUB SHR PUSH2 0x23C2 JUMP JUMPDEST PUSH2 0x406F DUP3 GT ISZERO PUSH2 0x23C2 JUMPI PUSH2 0x406E NOT DUP3 ADD SHL JUMPDEST PUSH1 0x1 PUSH1 0x7F SHL PUSH1 0x80 DUP6 SWAP1 SHR LT PUSH2 0x23EC JUMPI PUSH1 0x1 PUSH1 0xFF SHL DUP2 GT ISZERO PUSH2 0x23E2 JUMPI PUSH1 0x0 DUP1 REVERT JUMPDEST PUSH1 0x0 SUB SWAP4 SWAP3 POP POP POP JUMP JUMPDEST PUSH1 0x1 PUSH1 0x1 PUSH1 0xFF SHL SUB DUP2 GT ISZERO PUSH2 0x1FF6 JUMPI PUSH1 0x0 DUP1 REVERT JUMPDEST PUSH1 0x0 DUP1 DUP3 GT PUSH2 0x240E JUMPI PUSH1 0x0 DUP1 REVERT JUMPDEST PUSH1 0x0 PUSH1 0x1 PUSH1 0x80 SHL DUP4 LT PUSH2 0x2423 JUMPI PUSH1 0x80 SWAP3 DUP4 SHR SWAP3 ADD JUMPDEST PUSH1 0x1 PUSH1 0x40 SHL DUP4 LT PUSH2 0x2436 JUMPI PUSH1 0x40 SWAP3 DUP4 SHR SWAP3 ADD JUMPDEST PUSH5 0x100000000 DUP4 LT PUSH2 0x244A JUMPI PUSH1 0x20 SWAP3 DUP4 SHR SWAP3 ADD JUMPDEST PUSH3 0x10000 DUP4 LT PUSH2 0x245C JUMPI PUSH1 0x10 SWAP3 DUP4 SHR SWAP3 ADD JUMPDEST PUSH2 0x100 DUP4 LT PUSH2 0x246D JUMPI PUSH1 0x8 SWAP3 DUP4 SHR SWAP3 ADD JUMPDEST PUSH1 0x10 DUP4 LT PUSH2 0x247D JUMPI PUSH1 0x4 SWAP3 DUP4 SHR SWAP3 ADD JUMPDEST PUSH1 0x4 DUP4 LT PUSH2 0x248D JUMPI PUSH1 0x2 SWAP3 DUP4 SHR SWAP3 ADD JUMPDEST PUSH1 0x2 DUP4 LT PUSH2 0x2D4 JUMPI PUSH1 0x1 ADD SWAP3 SWAP2 POP POP JUMP JUMPDEST PUSH1 0x0 DUP1 PUSH1 0x40 DUP4 DUP6 SUB SLT ISZERO PUSH2 0x24B1 JUMPI PUSH1 0x0 DUP1 REVERT JUMPDEST POP POP DUP1 CALLDATALOAD SWAP3 PUSH1 0x20 SWAP1 SWAP2 ADD CALLDATALOAD SWAP2 POP JUMP JUMPDEST PUSH1 0x0 PUSH1 0x20 DUP3 DUP5 SUB SLT ISZERO PUSH2 0x24D2 JUMPI PUSH1 0x0 DUP1 REVERT JUMPDEST POP CALLDATALOAD SWAP2 SWAP1 POP JUMP JUMPDEST PUSH1 0x0 DUP1 PUSH1 0x0 DUP1 PUSH1 0x0 PUSH1 0xA0 DUP7 DUP9 SUB SLT ISZERO PUSH2 0x24F1 JUMPI PUSH1 0x0 DUP1 REVERT JUMPDEST POP POP DUP4 CALLDATALOAD SWAP6 PUSH1 0x20 DUP6 ADD CALLDATALOAD SWAP6 POP PUSH1 0x40 DUP6 ADD CALLDATALOAD SWAP5 PUSH1 0x60 DUP2 ADD CALLDATALOAD SWAP5 POP PUSH1 0x80 ADD CALLDATALOAD SWAP3 POP SWAP1 POP JUMP JUMPDEST PUSH1 0x0 DUP1 PUSH1 0x0 PUSH1 0x60 DUP5 DUP7 SUB SLT ISZERO PUSH2 0x2529 JUMPI PUSH1 0x0 DUP1 REVERT JUMPDEST POP POP DUP2 CALLDATALOAD SWAP4 PUSH1 0x20 DUP4 ADD CALLDATALOAD SWAP4 POP PUSH1 0x40 SWAP1 SWAP3 ADD CALLDATALOAD SWAP2 SWAP1 POP JUMP JUMPDEST PUSH4 0x4E487B71 PUSH1 0xE0 SHL PUSH1 0x0 MSTORE PUSH1 0x11 PUSH1 0x4 MSTORE PUSH1 0x24 PUSH1 0x0 REVERT JUMPDEST PUSH1 0x0 PUSH1 0x1 PUSH1 0xFF SHL DUP3 EQ ISZERO PUSH2 0x256C JUMPI PUSH2 0x256C PUSH2 0x2540 JUMP JUMPDEST POP PUSH1 0x0 SUB SWAP1 JUMP JUMPDEST PUSH1 0x0 DUP1 DUP4 SLT DUP1 ISZERO PUSH1 0x1 PUSH1 0xFF SHL DUP6 ADD DUP5 SLT AND ISZERO PUSH2 0x2591 JUMPI PUSH2 0x2591 PUSH2 0x2540 JUMP JUMPDEST PUSH1 0x1 PUSH1 0x1 PUSH1 0xFF SHL SUB DUP5 ADD DUP4 SGT DUP2 AND ISZERO PUSH2 0x25AC JUMPI PUSH2 0x25AC PUSH2 0x2540 JUMP JUMPDEST POP POP SUB SWAP1 JUMP JUMPDEST PUSH1 0x0 DUP1 DUP3 SLT DUP1 ISZERO PUSH1 0x1 PUSH1 0x1 PUSH1 0xFF SHL SUB DUP5 SWAP1 SUB DUP6 SGT AND ISZERO PUSH2 0x25D4 JUMPI PUSH2 0x25D4 PUSH2 0x2540 JUMP JUMPDEST PUSH1 0x1 PUSH1 0xFF SHL DUP4 SWAP1 SUB DUP5 SLT DUP2 AND ISZERO PUSH2 0x25ED JUMPI PUSH2 0x25ED PUSH2 0x2540 JUMP JUMPDEST POP POP ADD SWAP1 JUMP JUMPDEST PUSH1 0x1 DUP2 DUP2 JUMPDEST DUP1 DUP6 GT ISZERO PUSH2 0x262E JUMPI DUP2 PUSH1 0x0 NOT DIV DUP3 GT ISZERO PUSH2 0x2614 JUMPI PUSH2 0x2614 PUSH2 0x2540 JUMP JUMPDEST DUP1 DUP6 AND ISZERO PUSH2 0x2621 JUMPI SWAP2 DUP2 MUL SWAP2 JUMPDEST SWAP4 DUP5 SHR SWAP4 SWAP1 DUP1 MUL SWAP1 PUSH2 0x25F8 JUMP JUMPDEST POP SWAP3 POP SWAP3 SWAP1 POP JUMP JUMPDEST PUSH1 0x0 DUP3 PUSH2 0x2645 JUMPI POP PUSH1 0x1 PUSH2 0x2D4 JUMP JUMPDEST DUP2 PUSH2 0x2652 JUMPI POP PUSH1 0x0 PUSH2 0x2D4 JUMP JUMPDEST DUP2 PUSH1 0x1 DUP2 EQ PUSH2 0x2668 JUMPI PUSH1 0x2 DUP2 EQ PUSH2 0x2672 JUMPI PUSH2 0x268E JUMP JUMPDEST PUSH1 0x1 SWAP2 POP POP PUSH2 0x2D4 JUMP JUMPDEST PUSH1 0xFF DUP5 GT ISZERO PUSH2 0x2683 JUMPI PUSH2 0x2683 PUSH2 0x2540 JUMP JUMPDEST POP POP PUSH1 0x1 DUP3 SHL PUSH2 0x2D4 JUMP JUMPDEST POP PUSH1 0x20 DUP4 LT PUSH2 0x133 DUP4 LT AND PUSH1 0x4E DUP5 LT PUSH1 0xB DUP5 LT AND OR ISZERO PUSH2 0x26B1 JUMPI POP DUP2 DUP2 EXP PUSH2 0x2D4 JUMP JUMPDEST PUSH2 0x26BB DUP4 DUP4 PUSH2 0x25F3 JUMP JUMPDEST DUP1 PUSH1 0x0 NOT DIV DUP3 GT ISZERO PUSH2 0x26CF JUMPI PUSH2 0x26CF PUSH2 0x2540 JUMP JUMPDEST MUL SWAP4 SWAP3 POP POP POP JUMP JUMPDEST PUSH1 0x0 PUSH2 0x1FF6 DUP4 DUP4 PUSH2 0x2636 JUMP JUMPDEST PUSH1 0x0 DUP2 PUSH1 0x0 NOT DIV DUP4 GT DUP3 ISZERO ISZERO AND ISZERO PUSH2 0x26FD JUMPI PUSH2 0x26FD PUSH2 0x2540 JUMP JUMPDEST POP MUL SWAP1 JUMP JUMPDEST PUSH4 0x4E487B71 PUSH1 0xE0 SHL PUSH1 0x0 MSTORE PUSH1 0x12 PUSH1 0x4 MSTORE PUSH1 0x24 PUSH1 0x0 REVERT JUMPDEST PUSH1 0x0 DUP3 PUSH2 0x2735 JUMPI PUSH4 0x4E487B71 PUSH1 0xE0 SHL PUSH1 0x0 MSTORE PUSH1 0x12 PUSH1 0x4 MSTORE PUSH1 0x24 PUSH1 0x0 REVERT JUMPDEST POP DIV SWAP1 JUMP JUMPDEST PUSH1 0x0 DUP3 DUP3 LT ISZERO PUSH2 0x274C JUMPI PUSH2 0x274C PUSH2 0x2540 JUMP JUMPDEST POP SUB SWAP1 JUMP JUMPDEST PUSH1 0x0 DUP3 NOT DUP3 GT ISZERO PUSH2 0x2764 JUMPI PUSH2 0x2764 PUSH2 0x2540 JUMP JUMPDEST POP ADD SWAP1 JUMP JUMPDEST PUSH4 0x4E487B71 PUSH1 0xE0 SHL PUSH1 0x0 MSTORE PUSH1 0x1 PUSH1 0x4 MSTORE PUSH1 0x24 PUSH1 0x0 REVERT INVALID LOG2 PUSH5 0x6970667358 0x22 SLT KECCAK256 0xB7 RETURNDATACOPY SWAP12 0xFB 0xDB SWAP13 SWAP3 CALLER 0x5E SDIV SWAP15 KECCAK256 0x4F ORIGIN 0xC2 0xC7 LOG0 PUSH2 0x4E3E DUP7 DUP1 PUSH16 0xA67A934C305047821464736F6C634300 ADDMOD SIGNEXTEND STOP CALLER ",
  "sha1": "9e06573eb74a30ab796691c732100bb5b8bf51bb",
  "source": "// SPDX-License-Identifier: MIT\npragma solidity ^0.8.0;\n\nimport \"./ABDKMathQuad.sol\";\n\n//TODO: Make another library called PotamusRequirement\n//to house all the requirements as function\nlibrary PotamusUtils {\n    uint256 public constant FLOAT_DECIMALS = 18;\n\n    function depositDBLB(int256 _balance, int256 _amount)\n        public\n        pure\n        returns (int256 _DBAdjustment, int256 _LBAdjustment)\n    {\n        require(_amount >= 0, \"Amount mustn't be negative\");\n        if (_balance < 0) {\n            if (_amount < -_balance) {\n                return (0, -_amount);\n            } else {\n                return (_amount + _balance, _balance);\n            }\n        } else {\n            return (_amount, 0);\n        }\n    }\n\n    function loanDBLB(int256 _balance, int256 _amount)\n        public\n        pure\n        returns (int256 _DBAdjustment, int256 _LBAdjustment)\n    {\n        require(_amount >= 0, \"Amount mustn't be negative\");\n        if (_balance > 0) {\n            if (_amount < _balance) {\n                return (-_amount, 0);\n            } else {\n                return (-_balance, _amount - _balance);\n            }\n        } else {\n            return (0, _amount);\n        }\n    }\n\n    //Calculate new balance with interest rate compounded per sec\n    function getNewBalance(\n        int256 _oldBalance,\n        uint256 _fRatePerSecond,\n        uint256 _secondInterval\n    ) public pure returns (int256) {\n        //TODO: We have the below ugly implementation cos ABDKMathQuad doesn't have\n        //function to calculate x^n given x and n\n        //ABDKMath64x64 has support for that, but I used ABDKMathQuad in LoanPool so just\n        //wanna keep the same library. We should do gas optimization here if possible by changing\n        //library.\n        //The math trick used below: (1+rate)^(interval) = 2^(interval.log_2(1+rate))\n        return\n            ABDKMathQuad.toInt(\n                ABDKMathQuad.mul(\n                    ABDKMathQuad.fromInt(_oldBalance),\n                    ABDKMathQuad.pow_2(\n                        ABDKMathQuad.mul(\n                            //interval\n                            ABDKMathQuad.fromUInt(_secondInterval),\n                            //log_2^(1+rate)\n                            ABDKMathQuad.log_2(\n                                ABDKMathQuad.add(\n                                    ABDKMathQuad.fromUInt(1),\n                                    ABDKMathQuad.div(\n                                        ABDKMathQuad.fromUInt(_fRatePerSecond),\n                                        ABDKMathQuad.fromUInt(10**18)\n                                    )\n                                )\n                            )\n                        )\n                    )\n                )\n            );\n    }\n\n    //Convert annually compounded interest into equivalent secondly compounded rate\n    function getEquivalentSecRate(uint256 _annualRate)\n        public\n        pure\n        returns (uint256)\n    {\n        return\n            ABDKMathQuad.toUInt(\n                ABDKMathQuad.mul(\n                    ABDKMathQuad.sub(\n                        ABDKMathQuad.pow_2(\n                            ABDKMathQuad.div(\n                                ABDKMathQuad.log_2(\n                                    ABDKMathQuad.add(\n                                        ABDKMathQuad.div(\n                                            ABDKMathQuad.fromUInt(_annualRate),\n                                            ABDKMathQuad.fromUInt(\n                                                1 * 10**FLOAT_DECIMALS\n                                            )\n                                        ),\n                                        ABDKMathQuad.fromUInt(1)\n                                    )\n                                ),\n                                ABDKMathQuad.fromUInt(365 * 1 days)\n                            )\n                        ),\n                        ABDKMathQuad.fromUInt(1)\n                    ),\n                    ABDKMathQuad.fromUInt(1 * 10**FLOAT_DECIMALS)\n                )\n            );\n    }\n\n    //TODO: Write test for this function\n    function getAnnualInterestRate(\n        uint256 _loanBalance,\n        uint256 _depositBalance,\n        uint256 _fCRITICAL_UTIL_RATE,\n        uint256 _fFIRST_ANNUAL_INTEREST_RATE,\n        uint256 _fSECOND_ANNUAL_INTEREST_RATE\n    ) public pure returns (uint256 fInterestRate) {\n        uint256 fUtilRate = (10**FLOAT_DECIMALS * _loanBalance) /\n            _depositBalance;\n\n        if (fUtilRate < _fCRITICAL_UTIL_RATE) {\n            return\n                ABDKMathQuad.toUInt(\n                    ABDKMathQuad.mul(\n                        ABDKMathQuad.div(\n                            ABDKMathQuad.fromUInt(fUtilRate),\n                            ABDKMathQuad.fromUInt(_fCRITICAL_UTIL_RATE)\n                        ),\n                        ABDKMathQuad.fromUInt(_fFIRST_ANNUAL_INTEREST_RATE)\n                    )\n                );\n        } else if (fUtilRate >= _fCRITICAL_UTIL_RATE) {\n            return\n                _fFIRST_ANNUAL_INTEREST_RATE +\n                ABDKMathQuad.toUInt(\n                    ABDKMathQuad.mul(\n                        ABDKMathQuad.div(\n                            ABDKMathQuad.fromUInt(\n                                fUtilRate - _fCRITICAL_UTIL_RATE\n                            ),\n                            ABDKMathQuad.fromUInt(\n                                1 * 10**FLOAT_DECIMALS - _fCRITICAL_UTIL_RATE\n                            )\n                        ),\n                        ABDKMathQuad.fromUInt(\n                            _fSECOND_ANNUAL_INTEREST_RATE -\n                                _fFIRST_ANNUAL_INTEREST_RATE\n                        )\n                    )\n                );\n        }\n    }\n}\n",
  "sourcePath": "contracts/PotamusUtils.sol",
  "type": "library"
}