{
  "abi": [
    {
      "inputs": [],
      "name": "favoriteNumber",
      "outputs": [
        {
          "internalType": "uint256",
          "name": "",
          "type": "uint256"
        }
      ],
      "stateMutability": "view",
      "type": "function"
    },
    {
      "inputs": [
        {
          "internalType": "uint256",
          "name": "_favoriteNumber",
          "type": "uint256"
        }
      ],
      "name": "store",
      "outputs": [],
      "stateMutability": "nonpayable",
      "type": "function"
    }
  ],
  "bytecode": "6080604052600560005534801561001557600080fd5b5060b1806100246000396000f3fe6080604052348015600f57600080fd5b506004361060325760003560e01c8063471f7cdf1460375780636057361d146051575b600080fd5b603f60005481565b60405190815260200160405180910390f35b6061605c3660046063565b600055565b005b600060208284031215607457600080fd5b503591905056fea264697066735822122091a559a6721d957beea7f4a787ebe826ff745a0d33dadec27623c18e1f95342b64736f6c634300080b0033",
  "bytecodeSha1": "e062db4b8c336b4bb819dd0888e75c7badfdb6fa",
  "compiler": {
    "evm_version": "istanbul",
    "optimizer": {
      "enabled": true,
      "runs": 200
    },
    "version": "0.8.11+commit.d7f03943"
  },
  "contractName": "SimpleStorage",
  "language": "Solidity",
  "natspec": {
    "kind": "dev",
    "methods": {},
    "version": 1
  },
  "opcodes": "PUSH1 0x80 PUSH1 0x40 MSTORE CALLVALUE DUP1 ISZERO PUSH1 0xF JUMPI PUSH1 0x0 DUP1 REVERT JUMPDEST POP PUSH1 0x4 CALLDATASIZE LT PUSH1 0x32 JUMPI PUSH1 0x0 CALLDATALOAD PUSH1 0xE0 SHR DUP1 PUSH4 0x471F7CDF EQ PUSH1 0x37 JUMPI DUP1 PUSH4 0x6057361D EQ PUSH1 0x51 JUMPI JUMPDEST PUSH1 0x0 DUP1 REVERT JUMPDEST PUSH1 0x3F PUSH1 0x0 SLOAD DUP2 JUMP JUMPDEST PUSH1 0x40 MLOAD SWAP1 DUP2 MSTORE PUSH1 0x20 ADD PUSH1 0x40 MLOAD DUP1 SWAP2 SUB SWAP1 RETURN JUMPDEST PUSH1 0x61 PUSH1 0x5C CALLDATASIZE PUSH1 0x4 PUSH1 0x63 JUMP JUMPDEST PUSH1 0x0 SSTORE JUMP JUMPDEST STOP JUMPDEST PUSH1 0x0 PUSH1 0x20 DUP3 DUP5 SUB SLT ISZERO PUSH1 0x74 JUMPI PUSH1 0x0 DUP1 REVERT JUMPDEST POP CALLDATALOAD SWAP2 SWAP1 POP JUMP INVALID LOG2 PUSH5 0x6970667358 0x22 SLT KECCAK256 SWAP2 0xA5 MSIZE 0xA6 PUSH19 0x1D957BEEA7F4A787EBE826FF745A0D33DADEC2 PUSH23 0x23C18E1F95342B64736F6C634300080B00330000000000 ",
  "sha1": "7cf81b986773b4bcffb519b06e056bc315a9f79d",
  "source": "// SPDX-License-Identifier: MIT\npragma solidity ^0.8.0;\n\ncontract SimpleStorage {\n    \n    uint256 public favoriteNumber =  5;\n\n    function store(uint256 _favoriteNumber) public {\n        favoriteNumber = _favoriteNumber;\n    }\n}",
  "sourcePath": "contracts/SimpleStorage.sol",
  "type": "contract"
}